{
	"data": {
		"bytecode": {
			"linkReferences": {},
			"object": "6080604052600b805461ffff1916600917905534801561001d575f80fd5b506040516146b43803806146b483398101604081905261003c916101eb565b6001805460ff1990811682556001600160a01b038481165f908152600260205260408082208054851686179055918716808252918120805490931684179092558254610100600160a81b0319166101009091021790915561009d9033610127565b506100c87ffacaf2747a7486cf5730e9265973fb54447d3ace6e7e4711f6360826b073194182610127565b506100f37f183175b7b980894e2ea4c7ef510cf97a6819a85ee72e9e5b0186e21c7db90e8433610127565b5061011e7f65d7a28e3265b37a6474929f336521b332c1681b933f6cb9f3376673440d862a82610127565b5050505061022b565b5f828152602081815260408083206001600160a01b038516845290915281205460ff166101c7575f838152602081815260408083206001600160a01b03861684529091529020805460ff1916600117905561017f3390565b6001600160a01b0316826001600160a01b0316847f2f8788117e7eff1d82e926ec794901d17c78024a50270940304540a733656f0d60405160405180910390a45060016101ca565b505f5b92915050565b80516001600160a01b03811681146101e6575f80fd5b919050565b5f805f606084860312156101fd575f80fd5b610206846101d0565b9250610214602085016101d0565b9150610222604085016101d0565b90509250925092565b61447c806102385f395ff3fe608060405234801561000f575f80fd5b5060043610610393575f3560e01c806376319190116101df578063b229280311610109578063e63ab1e9116100a9578063f20e5e3511610079578063f20e5e3514610a7c578063f441bc1a14610a9c578063f59b255014610aa4578063f8fac9b714610ab7575f80fd5b8063e63ab1e9146109fc578063e6d40dad14610a23578063eee44acb14610a45578063f0a56fc814610a68575f80fd5b8063d547741f116100e4578063d547741f1461098a578063d8f5acbf1461099d578063e436cdd2146109b0578063e55de0e7146109db575f80fd5b8063b22928031461094c578063b3c1f5d814610964578063cf8ddf0d14610977575f80fd5b806396b5a7551161017f578063a217fddf1161014f578063a217fddf146108de578063a63fcdf0146108e5578063ab1bc3b214610905578063ad8087381461092a575f80fd5b806396b5a75514610861578063983dd192146108745780639bec364c146108875780639d902fc0146108bf575f80fd5b80638456cb59116101ba5780638456cb5914610802578063919e84f51461080a57806391d148541461082c578063930e79f11461083f575f80fd5b806376319190146107d457806376d4c56d146107e75780637aab745f146107ef575f80fd5b80633f4ba83a116102c05780635e556234116102605780636ea933b8116102305780636ea933b8146107845780636f168f8b146107a657806372e2867d146107b8578063758ab90b146107c1575f80fd5b80635e556234146107295780635e97a86e1461073c57806368c4ac261461074f5780636d69fcaf14610771575f80fd5b806356eca3e51161029b57806356eca3e5146105e0578063571a26a01461060257806359a68623146106ff5780635c975abb1461071e575f80fd5b80633f4ba83a1461059b57806351bb5dff146105a35780635591b7c3146105b6575f80fd5b80632b60c822116103365780632f932f22116103065780632f932f221461052057806333b7643f1461054057806336568abe1461056157806339bea75e14610574575f80fd5b80632b60c822146104c55780632c6ea90d146104d85780632f2ff15d146104eb5780632f8fabc9146104fe575f80fd5b8063119ee4ab11610371578063119ee4ab1461042d57806312df76ae14610442578063248a9ca31461048c5780632ad71573146104bc575f80fd5b806301ffc9a714610397578063037c8e4d146103bf57806309f0a14d14610402575b5f80fd5b6103aa6103a5366004613963565b610ad9565b60405190151581526020015b60405180910390f35b6103ea6103cd36600461398a565b5f908152600660205260409020600401546001600160a01b031690565b6040516001600160a01b0390911681526020016103b6565b6103ea61041036600461398a565b5f908152600660205260409020600201546001600160a01b031690565b61044061043b366004613a67565b610b0f565b005b61047561045036600461398a565b5f9081526006602052604090208054600b909101549015159161010090910460ff1690565b6040805192151583529015156020830152016103b6565b6104ae61049a36600461398a565b5f9081526020819052604090206001015490565b6040519081526020016103b6565b6104ae60085481565b6103ea6104d336600461398a565b610b60565b6104ae6104e636600461398a565b610b88565b6104406104f9366004613ab3565b610ba7565b6104ae61050c36600461398a565b5f9081526006602052604090206005015490565b61053361052e366004613aea565b610bd1565b6040516103b69190613b5a565b61055361054e366004613a67565b610cf3565b6040516103b6929190613b9e565b61044061056f366004613ab3565b610e2d565b6104ae7f183175b7b980894e2ea4c7ef510cf97a6819a85ee72e9e5b0186e21c7db90e8481565b610440610e60565b6104406105b1366004613bc2565b610e95565b6104ae6105c4366004613bdb565b600360209081525f928352604080842090915290825290205481565b6104ae6105ee36600461398a565b5f9081526006602052604090206008015490565b61068a61061036600461398a565b600660208190525f918252604090912080546001820154600283015460038401546004850154600586015496860154600787015460088801546009890154600a8a0154600b909a0154989a97996001600160a01b039788169996881698979095169695939492939192909160ff808216916101009004168d565b604080519d8e5260208e019c909c526001600160a01b039a8b169b8d019b909b5297891660608c01529790951660808a015260a089019390935260c088019190915260e0870152610100860152610120850152610140840191909152151561016083015215156101808201526101a0016103b6565b6104ae61070d36600461398a565b60076020525f908152604090205481565b60015460ff166103aa565b610440610737366004613c03565b610f37565b61044061074a366004613c4b565b611109565b6103aa61075d366004613bc2565b60046020525f908152604090205460ff1681565b61044061077f366004613bc2565b6111a0565b6104ae61079236600461398a565b5f9081526006602052604090206001015490565b600b546103aa90610100900460ff1681565b6104ae600a5481565b6104406107cf366004613c66565b6112ef565b6104406107e2366004613bc2565b61195d565b610440611b3f565b6104406107fd366004613bc2565b611b7f565b610440611ccb565b6104ae61081836600461398a565b5f9081526006602052604090206009015490565b6103aa61083a366004613ab3565b611cfd565b6104ae61084d36600461398a565b5f908152600660205260409020600a015490565b61044061086f36600461398a565b611d25565b610440610882366004613dc4565b611e63565b6104ae610895366004613bdb565b6001600160a01b039182165f90815260036020908152604080832093909416825291909152205490565b600b546108cc9060ff1681565b60405160ff90911681526020016103b6565b6104ae5f81565b6108f86108f3366004613aea565b612097565b6040516103b69190614068565b6103aa61091336600461398a565b5f908152600660205260409020600b015460ff1690565b61093d610938366004613bc2565b612215565b6040516103b6939291906140b6565b6001546103ea9061010090046001600160a01b031681565b610440610972366004613bc2565b61256b565b610440610985366004613bdb565b61262a565b610440610998366004613ab3565b612748565b6104406109ab36600461398a565b61276c565b6103ea6109be36600461398a565b5f908152600660205260409020600301546001600160a01b031690565b6109ee6109e93660046140ee565b612c42565b6040516103b692919061411e565b6104ae7f65d7a28e3265b37a6474929f336521b332c1681b933f6cb9f3376673440d862a81565b6103aa610a31366004613bc2565b60026020525f908152604090205460ff1681565b6104ae610a5336600461398a565b5f908152600660208190526040909120015490565b6104ae5f8051602061442783398151915281565b610a8f610a8a36600461398a565b612e79565b6040516103b69190614174565b610440612f42565b610440610ab236600461398a565b612f86565b6104ae610ac536600461398a565b5f9081526006602052604090206007015490565b5f6001600160e01b03198216637965db0b60e01b1480610b0957506301ffc9a760e01b6001600160e01b03198316145b92915050565b5f80516020614427833981519152610b2681613457565b5f5b8251811015610b5b57610b53838281518110610b4657610b46614183565b6020026020010151611d25565b600101610b28565b505050565b60058181548110610b6f575f80fd5b5f918252602090912001546001600160a01b0316905081565b60098181548110610b97575f80fd5b5f91825260209091200154905081565b5f82815260208190526040902060010154610bc181613457565b610bcb8383613461565b50505050565b60605f808315610be6575050600a545f610c32565b85610bf181876141ab565b600a54610bfe91906141c2565b610c0891906141c2565b90505f610c1587876141ab565b600a54610c2291906141c2565b9050610c2e82826141c2565b9250505b5f826001600160401b03811115610c4b57610c4b6139a1565b604051908082528060200260200182016040528015610c74578160200160208202803683370190505b5090505f5b83811015610ce657600983600183600a54610c9491906141c2565b610c9e91906141c2565b610ca891906141c2565b81548110610cb857610cb8614183565b905f5260205f200154828281518110610cd357610cd3614183565b6020908102919091010152600101610c79565b50925050505b9392505050565b6060805f83516001600160401b03811115610d1057610d106139a1565b604051908082528060200260200182016040528015610d39578160200160208202803683370190505b5090505f84516001600160401b03811115610d5657610d566139a1565b604051908082528060200260200182016040528015610d7f578160200160208202803683370190505b5090505f5b8551811015610e22575f60065f888481518110610da357610da3614183565b602002602001015181526020019081526020015f209050805f01545f1415848381518110610dd357610dd3614183565b60200260200101901515908115158152505080600b0160019054906101000a900460ff16838381518110610e0957610e09614183565b9115156020928302919091019091015250600101610d84565b509094909350915050565b6001600160a01b0381163314610e565760405163334bd91960e11b815260040160405180910390fd5b610b5b82826134f0565b7f65d7a28e3265b37a6474929f336521b332c1681b933f6cb9f3376673440d862a610e8a81613457565b610e92613559565b50565b5f610e9f81613457565b6001600160a01b0382165f9081526002602052604090205460ff16610edf5760405162461bcd60e51b8152600401610ed6906141d5565b60405180910390fd5b6001600160a01b0382165f81815260026020908152604091829020805460ff1916905590519182527f03c01f8893dd371767a61635a5add2b7aa2dc48c2f254906c5a8a5d915b2974c91015b60405180910390a15050565b7f183175b7b980894e2ea4c7ef510cf97a6819a85ee72e9e5b0186e21c7db90e84610f6181613457565b6001600160a01b0384165f9081526002602052604090205460ff16610f985760405162461bcd60e51b8152600401610ed6906141d5565b6040516370a0823160e01b815230600482015282906001600160a01b038616906370a0823190602401602060405180830381865afa158015610fdc573d5f803e3d5ffd5b505050506040513d601f19601f820116820180604052508101906110009190614202565b10156110455760405162461bcd60e51b8152602060048201526014602482015273496e73756666696369656e742062616c616e636560601b6044820152606401610ed6565b60405163a9059cbb60e01b81526001600160a01b0384811660048301526024820184905285169063a9059cbb906044016020604051808303815f875af1158015611091573d5f803e3d5ffd5b505050506040513d601f19601f820116820180604052508101906110b59190614219565b50826001600160a01b0316846001600160a01b03167f7c1f0fc7960c40eca97bca5beab93d5405c142c505317e944e79085bb4676fd8846040516110fb91815260200190565b60405180910390a350505050565b5f61111381613457565b60018260ff161015801561112b575060128260ff1611155b6111895760405162461bcd60e51b815260206004820152602960248201527f507265636973696f6e20666163746f72206d757374206265206265747765656e6044820152680406240c2dcc84062760bb1b6064820152608401610ed6565b50600b805460ff191660ff92909216919091179055565b5f6111aa81613457565b6001600160a01b0382166111f85760405162461bcd60e51b8152602060048201526015602482015274496e76616c696420746f6b656e206164647265737360581b6044820152606401610ed6565b6001600160a01b0382165f9081526004602052604090205460ff161561125a5760405162461bcd60e51b8152602060048201526017602482015276151bdad95b88185b1c9958591e481cdd5c1c1bdc9d1959604a1b6044820152606401610ed6565b6001600160a01b0382165f818152600460209081526040808320805460ff191660019081179091556005805491820181559093527f036b6384b5eca791c62761152d0c79bb0604c104a5fb6f4eb0703f3154bb3db090920180546001600160a01b0319168417905590519182527f784c8f4dbf0ffedd6e72c76501c545a70f8b203b30a26ce542bf92ba87c248a49101610f2b565b5f8051602061442783398151915261130681613457565b8115611373578385111561136e5760405162461bcd60e51b815260206004820152602960248201527f5374617274207072696365206d757374206265203c3d20656e6420707269636560448201526820666f72206275797360b81b6064820152608401610ed6565b6113d6565b838510156113d65760405162461bcd60e51b815260206004820152602a60248201527f5374617274207072696365206d757374206265203e3d20656e6420707269636560448201526920666f722073656c6c7360b01b6064820152608401610ed6565b5f87116114255760405162461bcd60e51b815260206004820152601e60248201527f537461626c6520636f696e20616d6f756e74206d757374206265203e203000006044820152606401610ed6565b5f86116114745760405162461bcd60e51b815260206004820152601860248201527f546f6b656e20616d6f756e74206d757374206265203e203000000000000000006044820152606401610ed6565b5f83116114ba5760405162461bcd60e51b815260206004820152601460248201527304475726174696f6e206d757374206265203e20360641b6044820152606401610ed6565b468b1461151d5760405162461bcd60e51b815260206004820152602b60248201527f54617267657420636861696e204944206d757374206d6174636820637572726560448201526a1b9d0818da185a5b88125160aa1b6064820152608401610ed6565b6001600160a01b0388165f9081526002602052604090205460ff166115845760405162461bcd60e51b815260206004820152601760248201527f556e737570706f7274656420737461626c6520636f696e0000000000000000006044820152606401610ed6565b8b5f036115c75760405162461bcd60e51b8152602060048201526011602482015270125b9d985b1a59081c995c5d595cdd1259607a1b6044820152606401610ed6565b5f8c8152600660205260409020541561161b5760405162461bcd60e51b815260206004820152601660248201527541756374696f6e20616c72656164792065786973747360501b6044820152606401610ed6565b6001600160a01b0389165f9081526004602052604090205460ff1661169f576001600160a01b0389165f818152600460205260408120805460ff191660019081179091556005805491820181559091527f036b6384b5eca791c62761152d0c79bb0604c104a5fb6f4eb0703f3154bb3db00180546001600160a01b03191690911790555b604051806101a001604052808d81526020018c81526020018b6001600160a01b031681526020018a6001600160a01b03168152602001896001600160a01b03168152602001888152602001878152602001868152602001858152602001428152602001844261170e9190614234565b815260200183151581526020016001151581525060065f8e81526020019081526020015f205f820151815f0155602082015181600101556040820151816002015f6101000a8154816001600160a01b0302191690836001600160a01b031602179055506060820151816003015f6101000a8154816001600160a01b0302191690836001600160a01b031602179055506080820151816004015f6101000a8154816001600160a01b0302191690836001600160a01b0316021790555060a0820151816005015560c0820151816006015560e082015181600701556101008201518160080155610120820151816009015561014082015181600a015561016082015181600b015f6101000a81548160ff02191690831515021790555061018082015181600b0160016101000a81548160ff02191690831515021790555090505060098c908060018154018082558091505060019003905f5260205f20015f9091909190915055600a5460075f8e81526020019081526020015f2081905550600a5f81548092919061189c90614247565b909155505060088054905f6118b083614247565b90915550506001600160a01b038a168c7fa089e6cf84499ef8adf4db50df1470260bc4a1594998512bf5d06d8a7e00235b8d8c8c8c8c8c8c426118f38e82614234565b60408051998a526001600160a01b0398891660208b015296909716958801959095526060870193909352608086019190915260a085015260c084015260e08301526101008201528515156101208201526101400160405180910390a3505050505050505050505050565b5f61196781613457565b6001600160a01b0382166119b55760405162461bcd60e51b8152602060048201526015602482015274496e76616c696420746f6b656e206164647265737360581b6044820152606401610ed6565b6001600160a01b0382165f9081526004602052604090205460ff166119ec5760405162461bcd60e51b8152600401610ed6906141d5565b6001600160a01b0382165f908152600460205260408120805460ff191690555b600554811015610b5b57826001600160a01b031660058281548110611a3357611a33614183565b5f918252602090912001546001600160a01b031603611b375760058054611a5c906001906141c2565b81548110611a6c57611a6c614183565b5f91825260209091200154600580546001600160a01b039092169183908110611a9757611a97614183565b905f5260205f20015f6101000a8154816001600160a01b0302191690836001600160a01b031602179055506005805480611ad357611ad361425f565b5f8281526020908190205f19908301810180546001600160a01b03191690559091019091556040516001600160a01b03851681527f4c910b69fe65a61f7531b9c5042b2329ca7179c77290aa7e2eb3afa3c8511fd3910160405180910390a1505050565b600101611a0c565b5f611b4981613457565b600b805461ff00191690556040517f0d8b5479baf73c92fc46529e4c8003f70ea02be564a680b766792d291551443d905f90a150565b600b54610100900460ff16611bd65760405162461bcd60e51b815260206004820152601a60248201527f457363617065206d6f6465206973206e6f7420656e61626c65640000000000006044820152606401610ed6565b335f9081526003602090815260408083206001600160a01b038516845290915290205480611c3f5760405162461bcd60e51b81526020600482015260166024820152754e6f2062616c616e636520746f20776974686472617760501b6044820152606401610ed6565b335f8181526003602090815260408083206001600160a01b038716808552925280832092909255905163a9059cbb60e01b81526004810192909252602482018390529063a9059cbb906044016020604051808303815f875af1158015611ca7573d5f803e3d5ffd5b505050506040513d601f19601f82011682018060405250810190610b5b9190614219565b7f65d7a28e3265b37a6474929f336521b332c1681b933f6cb9f3376673440d862a611cf581613457565b610e926135ab565b5f918252602082815260408084206001600160a01b0393909316845291905290205460ff1690565b5f80516020614427833981519152611d3c81613457565b5f828152600660205260409020600b810154610100900460ff16611d9a5760405162461bcd60e51b815260206004820152601560248201527441756374696f6e206973206e6f742061637469766560581b6044820152606401610ed6565b600b8101805461ff0019169055611db0836135e6565b60028101546003820154600483015460058401546006850154600786015460088701546009880154600a890154600b8a0154604080516001600160a01b039a8b168152988a1660208a01528801969096526060870194909452608086019290925260a085015260c084015260e083015260ff16151561010082015291169084907f4f0accbccd65c219b11bdfb34fd480ce34d290e123cc95011bd135883ff6313f906101200160405180910390a3505050565b5f80516020614427833981519152611e7a81613457565b8a518c51148015611e8c575089518c51145b8015611e99575088518c51145b8015611ea6575087518c51145b8015611eb3575086518c51145b8015611ec0575085518c51145b8015611ecd575084518c51145b8015611eda575083518c51145b8015611ee7575082518c51145b8015611ef4575081518c51145b611f4f5760405162461bcd60e51b815260206004820152602660248201527f496e70757420617272617973206d7573742068617665207468652073616d65206044820152650d8cadccee8d60d31b6064820152608401610ed6565b5f5b8c51811015612088576120808d8281518110611f6f57611f6f614183565b60200260200101518d8381518110611f8957611f89614183565b60200260200101518d8481518110611fa357611fa3614183565b60200260200101518d8581518110611fbd57611fbd614183565b60200260200101518d8681518110611fd757611fd7614183565b60200260200101518d8781518110611ff157611ff1614183565b60200260200101518d888151811061200b5761200b614183565b60200260200101518d898151811061202557612025614183565b60200260200101518d8a8151811061203f5761203f614183565b60200260200101518d8b8151811061205957612059614183565b60200260200101518d8c8151811061207357612073614183565b60200260200101516112ef565b600101611f51565b50505050505050505050505050565b60605f6120a5858585610bd1565b90505f81516001600160401b038111156120c1576120c16139a1565b6040519080825280602002602001820160405280156120fa57816020015b6120e76138e9565b8152602001906001900390816120df5790505b5090505f5b825181101561220b5760065f84838151811061211d5761211d614183565b60209081029190910181015182528181019290925260409081015f2081516101a0810183528154815260018201549381019390935260028101546001600160a01b039081169284019290925260038101548216606084015260048101549091166080830152600581015460a0830152600681015460c0830152600781015460e08301526008810154610100808401919091526009820154610120840152600a820154610140840152600b9091015460ff808216151561016085015291900416151561018082015282518390839081106121f8576121f8614183565b60209081029190910101526001016120ff565b5095945050505050565b60608060605f805b600a5481101561228957856001600160a01b031660065f6009848154811061224757612247614183565b5f91825260208083209091015483528201929092526040019020600301546001600160a01b031603612281578161227d81614247565b9250505b60010161221d565b50806001600160401b038111156122a2576122a26139a1565b6040519080825280602002602001820160405280156122cb578160200160208202803683370190505b509350806001600160401b038111156122e6576122e66139a1565b60405190808252806020026020018201604052801561230f578160200160208202803683370190505b509250806001600160401b0381111561232a5761232a6139a1565b604051908082528060200260200182016040528015612353578160200160208202803683370190505b5091505f805b600a5481101561256157866001600160a01b031660065f6009848154811061238357612383614183565b5f91825260208083209091015483528201929092526040019020600301546001600160a01b03160361255957600981815481106123c2576123c2614183565b905f5260205f2001548683815181106123dd576123dd614183565b6020026020010181815250506124cf60065f6009848154811061240257612402614183565b5f9182526020808320909101548352828101939093526040918201902081516101a0810183528154815260018201549381019390935260028101546001600160a01b039081169284019290925260038101548216606084015260048101549091166080830152600581015460a0830152600681015460c0830152600781015460e08301526008810154610100808401919091526009820154610120840152600a820154610140840152600b9091015460ff80821615156101608501529190041615156101808201526136a5565b8583815181106124e1576124e1614183565b60200260200101818152505060065f6009838154811061250357612503614183565b905f5260205f20015481526020019081526020015f20600b015f9054906101000a900460ff1684838151811061253b5761253b614183565b911515602092830291909101909101528161255581614247565b9250505b600101612359565b5050509193909250565b5f61257581613457565b6001600160a01b0382165f9081526002602052604090205460ff16156125d75760405162461bcd60e51b8152602060048201526017602482015276151bdad95b88185b1c9958591e481cdd5c1c1bdc9d1959604a1b6044820152606401610ed6565b6001600160a01b0382165f81815260026020908152604091829020805460ff1916600117905590519182527fa4ef42c8f3f478286602411dd6c174efd807bdbf5fdbdb6398001a39cbe7f3fa9101610f2b565b7f183175b7b980894e2ea4c7ef510cf97a6819a85ee72e9e5b0186e21c7db90e8461265481613457565b6001600160a01b038084165f908152600360209081526040808320938616835292905220548015610bcb5760405163a9059cbb60e01b81526001600160a01b0385811660048301526024820183905284169063a9059cbb906044016020604051808303815f875af11580156126cb573d5f803e3d5ffd5b505050506040513d601f19601f820116820180604052508101906126ef9190614219565b506001600160a01b038481165f8181526003602090815260408083209488168084529482528083209290925590518481527f1b89874203ff7f0bba87c969ada3f32fda22ed38a6706d35199d21280c7811b191016110fb565b5f8281526020819052604090206001015461276281613457565b610bcb83836134f0565b61277461377d565b5f818152600660209081526040808320600480820154835163313ce56760e01b815293519295946001600160a01b039091169363313ce567938184019390918290030181865afa1580156127ca573d5f803e3d5ffd5b505050506040513d601f19601f820116820180604052508101906127ee9190614273565b90505f826003015f9054906101000a90046001600160a01b03166001600160a01b031663313ce5676040518163ffffffff1660e01b8152600401602060405180830381865afa158015612843573d5f803e3d5ffd5b505050506040513d601f19601f820116820180604052508101906128679190614273565b604080516101a081018252855481526001860154602082015260028601546001600160a01b039081169282019290925260038601548216606082015260048601549091166080820152600585015460a0820152600685015460c0820152600785015460e08201526008850154610100808301919091526009860154610120830152600a860154610140830152600b86015460ff80821615156101608501529190041615156101808201529091505f9061291f906136a5565b600b549091505f906129359060ff16600a614369565b61293f908361438b565b600b549091505f906129559060ff16601261439e565b61296090600a614369565b82876006015461297091906141ab565b61297a919061438b565b600b870154909150610100900460ff166129c95760405162461bcd60e51b815260206004820152601060248201526f41756374696f6e20696e61637469766560801b6044820152606401610ed6565b600b86015460ff1615612a135760405162461bcd60e51b81526020600482015260126024820152712737ba10309039b2b6361030bab1ba34b7b760711b6044820152606401610ed6565b60015461010090046001600160a01b03166379cc679033612a368460128a6137a3565b6040516001600160e01b031960e085901b1681526001600160a01b03909216600483015260248201526044015f604051808303815f87803b158015612a79575f80fd5b505af1158015612a8b573d5f803e3d5ffd5b505050600387015460068801546001600160a01b03909116915063a9059cbb903390612ab990601289613835565b6040516001600160e01b031960e085901b1681526001600160a01b03909216600483015260248201526044016020604051808303815f875af1158015612b01573d5f803e3d5ffd5b505050506040513d601f19601f82011682018060405250810190612b259190614219565b612b695760405162461bcd60e51b8152602060048201526015602482015274151bdad95b881d1c985b9cd9995c8819985a5b1959605a1b6044820152606401610ed6565b600b8601805461ff0019169055600686015460028701546001600160a01b039081165f908152600360208181526040808420928c01549094168352529081208054909190612bb89084906141c2565b90915550612bc79050876135e6565b6002860154600387015460048801546006890154600b8a01546040516001600160a01b03958616958d957f73ba522fd2ddab6d4ef64d235bbe388e2c2cadfb833e7004acbc67a7f4cbafaf95612c319533959284169493909116928a928d91429160ff16906143b7565b60405180910390a350505050505050565b6060805f612c5084866141ab565b90505f612c5d8583614234565b600554909150811115612c6f57506005545b5f825b82811015612ce8576001600160a01b0389165f9081526003602052604081206005805483919085908110612ca857612ca8614183565b5f9182526020808320909101546001600160a01b031683528201929092526040019020541115612ce05781612cdc81614247565b9250505b600101612c72565b50806001600160401b03811115612d0157612d016139a1565b604051908082528060200260200182016040528015612d2a578160200160208202803683370190505b509450806001600160401b03811115612d4557612d456139a1565b604051908082528060200260200182016040528015612d6e578160200160208202803683370190505b5093505f835b83811015612e6b576001600160a01b038a165f9081526003602052604081206005805483919085908110612daa57612daa614183565b5f9182526020808320909101546001600160a01b0316835282019290925260400190205490508015612e625760058281548110612de957612de9614183565b905f5260205f20015f9054906101000a90046001600160a01b0316888481518110612e1657612e16614183565b60200260200101906001600160a01b031690816001600160a01b03168152505080878481518110612e4957612e49614183565b602090810291909101015282612e5e81614247565b9350505b50600101612d74565b50505050505b935093915050565b612e816138e9565b505f9081526006602081815260409283902083516101a0810185528154815260018201549281019290925260028101546001600160a01b039081169483019490945260038101548416606083015260048101549093166080820152600583015460a08201529082015460c0820152600782015460e08201526008820154610100808301919091526009830154610120830152600a830154610140830152600b9092015460ff8082161515610160840152929004909116151561018082015290565b5f612f4c81613457565b600b805461ff0019166101001790556040517fa539f23ceecabcbf9482932c0fc64f5782f3efd5924bf426a79c78c1f08b4d6f905f90a150565b612f8e61377d565b5f818152600660209081526040808320600480820154835163313ce56760e01b815293519295946001600160a01b039091169363313ce567938184019390918290030181865afa158015612fe4573d5f803e3d5ffd5b505050506040513d601f19601f820116820180604052508101906130089190614273565b90505f826003015f9054906101000a90046001600160a01b03166001600160a01b031663313ce5676040518163ffffffff1660e01b8152600401602060405180830381865afa15801561305d573d5f803e3d5ffd5b505050506040513d601f19601f820116820180604052508101906130819190614273565b604080516101a081018252855481526001860154602082015260028601546001600160a01b039081169282019290925260038601548216606082015260048601549091166080820152600585015460a0820152600685015460c0820152600785015460e08201526008850154610100808301919091526009860154610120830152600a860154610140830152600b86015460ff80821615156101608501529190041615156101808201529091505f90613139906136a5565b600b549091505f9061314f9060ff16600a614369565b613159908361438b565b600b549091505f9082906131719060ff16601261439e565b61317c90600a614369565b876005015461318b91906141ab565b613195919061438b565b600b870154909150610100900460ff166131e45760405162461bcd60e51b815260206004820152601060248201526f41756374696f6e20696e61637469766560801b6044820152606401610ed6565b600b86015460ff1661322c5760405162461bcd60e51b81526020600482015260116024820152702737ba103090313abc9030bab1ba34b7b760791b6044820152606401610ed6565b60038601546001600160a01b03166323b872dd333061324d8560128a6137a3565b6040516001600160e01b031960e086901b1681526001600160a01b03938416600482015292909116602483015260448201526064016020604051808303815f875af115801561329e573d5f803e3d5ffd5b505050506040513d601f19601f820116820180604052508101906132c29190614219565b6133065760405162461bcd60e51b8152602060048201526015602482015274151bdad95b881d1c985b9cd9995c8819985a5b1959605a1b6044820152606401610ed6565b60018054906101000a90046001600160a01b03166001600160a01b03166340c10f1933613339896005015460128a613835565b6040516001600160e01b031960e085901b1681526001600160a01b03909216600483015260248201526044015f604051808303815f87803b15801561337c575f80fd5b505af115801561338e573d5f803e3d5ffd5b505050600b8701805461ff0019169055506133a8876135e6565b60028601546001600160a01b039081165f908152600360208181526040808420928b015490941683525290812080548392906133e5908490614234565b90915550506002860154600387015460048801546005890154600b8a01546040516001600160a01b03958616958d957f73ba522fd2ddab6d4ef64d235bbe388e2c2cadfb833e7004acbc67a7f4cbafaf95612c31953395928416949190931692918a918d91429160ff909116906143b7565b610e928133613889565b5f61346c8383611cfd565b6134e9575f838152602081815260408083206001600160a01b03861684529091529020805460ff191660011790556134a13390565b6001600160a01b0316826001600160a01b0316847f2f8788117e7eff1d82e926ec794901d17c78024a50270940304540a733656f0d60405160405180910390a4506001610b09565b505f610b09565b5f6134fb8383611cfd565b156134e9575f838152602081815260408083206001600160a01b0386168085529252808320805460ff1916905551339286917ff6391f5c32d9c69d2a47ea670b442974b53935d1edc7fd64eb21e047a839171b9190a4506001610b09565b6135616138c6565b6001805460ff191690557f5db9ee0a495bf2e6ff9c91a7834c1ba4fdd244a5e8aa4e537bd38aeae4b073aa335b6040516001600160a01b03909116815260200160405180910390a1565b6135b361377d565b6001805460ff1916811790557f62e78cea01bee320cd4e420270b5ea74000d11b0c9f74754ebdbfc544b05a2583361358e565b5f8181526007602052604081205460098054919291613607906001906141c2565b8154811061361757613617614183565b905f5260205f2001549050806009838154811061363657613636614183565b5f91825260208083209091019290925582815260079091526040902082905560098054806136665761366661425f565b5f828152602080822083015f199081018390559092019092558482526007905260408120819055600a80549161369b836143fe565b9190505550505050565b5f80826101200151426136b891906141c2565b90505f8361012001518461014001516136d191906141c2565b905083610140015142106136ea57505050610100015190565b5f808561016001511561373f578560e0015186610100015161370c91906141c2565b91508261371985846141ab565b613723919061438b565b9050808660e001516137359190614234565b9695505050505050565b8561010001518660e0015161375491906141c2565b91508261376185846141ab565b61376b919061438b565b9050808660e0015161373591906141c2565b60015460ff16156137a15760405163d93c066560e01b815260040160405180910390fd5b565b5f8160ff168360ff16036137b8575082610cec565b8160ff168360ff1610156137ec576137d0838361439e565b6137db90600a614369565b6137e590856141ab565b9050610cec565b5f6137f7838561439e565b61380290600a614369565b905061380e818661438b565b915061381a8186614413565b1561382d5761382a600183614234565b91505b509392505050565b5f8160ff168360ff160361384a575082610cec565b8160ff168360ff161015613862576137d0838361439e565b61386c828461439e565b61387790600a614369565b613881908561438b565b949350505050565b6138938282611cfd565b6138c25760405163e2517d3f60e01b81526001600160a01b038216600482015260248101839052604401610ed6565b5050565b60015460ff166137a157604051638dfc202b60e01b815260040160405180910390fd5b604051806101a001604052805f81526020015f81526020015f6001600160a01b031681526020015f6001600160a01b031681526020015f6001600160a01b031681526020015f81526020015f81526020015f81526020015f81526020015f81526020015f81526020015f151581526020015f151581525090565b5f60208284031215613973575f80fd5b81356001600160e01b031981168114610cec575f80fd5b5f6020828403121561399a575f80fd5b5035919050565b634e487b7160e01b5f52604160045260245ffd5b604051601f8201601f191681016001600160401b03811182821017156139dd576139dd6139a1565b604052919050565b5f6001600160401b038211156139fd576139fd6139a1565b5060051b60200190565b5f82601f830112613a16575f80fd5b8135613a29613a24826139e5565b6139b5565b8082825260208201915060208360051b860101925085831115613a4a575f80fd5b602085015b8381101561220b578035835260209283019201613a4f565b5f60208284031215613a77575f80fd5b81356001600160401b03811115613a8c575f80fd5b61388184828501613a07565b80356001600160a01b0381168114613aae575f80fd5b919050565b5f8060408385031215613ac4575f80fd5b82359150613ad460208401613a98565b90509250929050565b8015158114610e92575f80fd5b5f805f60608486031215613afc575f80fd5b83359250602084013591506040840135613b1581613add565b809150509250925092565b5f8151808452602084019350602083015f5b82811015613b50578151865260209586019590910190600101613b32565b5093949350505050565b602081525f610cec6020830184613b20565b5f8151808452602084019350602083015f5b82811015613b505781511515865260209586019590910190600101613b7e565b604081525f613bb06040830185613b6c565b828103602084015261382a8185613b6c565b5f60208284031215613bd2575f80fd5b610cec82613a98565b5f8060408385031215613bec575f80fd5b613bf583613a98565b9150613ad460208401613a98565b5f805f60608486031215613c15575f80fd5b613c1e84613a98565b9250613c2c60208501613a98565b929592945050506040919091013590565b60ff81168114610e92575f80fd5b5f60208284031215613c5b575f80fd5b8135610cec81613c3d565b5f805f805f805f805f805f6101608c8e031215613c81575f80fd5b8b359a5060208c01359950613c9860408d01613a98565b9850613ca660608d01613a98565b9750613cb460808d01613a98565b965060a08c0135955060c08c0135945060e08c013593506101008c013592506101208c013591506101408c0135613cea81613add565b809150509295989b509295989b9093969950565b5f82601f830112613d0d575f80fd5b8135613d1b613a24826139e5565b8082825260208201915060208360051b860101925085831115613d3c575f80fd5b602085015b8381101561220b57613d5281613a98565b835260209283019201613d41565b5f82601f830112613d6f575f80fd5b8135613d7d613a24826139e5565b8082825260208201915060208360051b860101925085831115613d9e575f80fd5b602085015b8381101561220b578035613db681613add565b835260209283019201613da3565b5f805f805f805f805f805f6101608c8e031215613ddf575f80fd5b8b356001600160401b03811115613df4575f80fd5b613e008e828f01613a07565b9b505060208c01356001600160401b03811115613e1b575f80fd5b613e278e828f01613a07565b9a505060408c01356001600160401b03811115613e42575f80fd5b613e4e8e828f01613cfe565b99505060608c01356001600160401b03811115613e69575f80fd5b613e758e828f01613cfe565b98505060808c01356001600160401b03811115613e90575f80fd5b613e9c8e828f01613cfe565b97505060a08c01356001600160401b03811115613eb7575f80fd5b613ec38e828f01613a07565b96505060c08c01356001600160401b03811115613ede575f80fd5b613eea8e828f01613a07565b95505060e08c01356001600160401b03811115613f05575f80fd5b613f118e828f01613a07565b9450506101008c01356001600160401b03811115613f2d575f80fd5b613f398e828f01613a07565b9350506101208c01356001600160401b03811115613f55575f80fd5b613f618e828f01613a07565b9250506101408c01356001600160401b03811115613f7d575f80fd5b613f898e828f01613d60565b9150509295989b509295989b9093969950565b80518252602081015160208301526040810151613fc460408401826001600160a01b03169052565b506060810151613fdf60608401826001600160a01b03169052565b506080810151613ffa60808401826001600160a01b03169052565b5060a081015160a083015260c081015160c083015260e081015160e083015261010081015161010083015261012081015161012083015261014081015161014083015261016081015161405261016084018215159052565b50610180810151610b5b61018084018215159052565b602080825282518282018190525f918401906040840190835b818110156140ab57614094838551613f9c565b602093909301926101a09290920191600101614081565b509095945050505050565b606081525f6140c86060830186613b20565b82810360208401526140da8186613b20565b905082810360408401526137358185613b6c565b5f805f60608486031215614100575f80fd5b61410984613a98565b95602085013595506040909401359392505050565b604080825283519082018190525f9060208501906060840190835b818110156141605783516001600160a01b0316835260209384019390920191600101614139565b505083810360208501526137358186613b20565b6101a08101610b098284613f9c565b634e487b7160e01b5f52603260045260245ffd5b634e487b7160e01b5f52601160045260245ffd5b8082028115828204841417610b0957610b09614197565b81810381811115610b0957610b09614197565b602080825260139082015272151bdad95b881b9bdd081cdd5c1c1bdc9d1959606a1b604082015260600190565b5f60208284031215614212575f80fd5b5051919050565b5f60208284031215614229575f80fd5b8151610cec81613add565b80820180821115610b0957610b09614197565b5f6001820161425857614258614197565b5060010190565b634e487b7160e01b5f52603160045260245ffd5b5f60208284031215614283575f80fd5b8151610cec81613c3d565b6001815b6001841115612e71578085048111156142ad576142ad614197565b60018416156142bb57908102905b60019390931c928002614292565b5f826142d757506001610b09565b816142e357505f610b09565b81600181146142f957600281146143035761431f565b6001915050610b09565b60ff84111561431457614314614197565b50506001821b610b09565b5060208310610133831016604e8410600b8410161715614342575081810a610b09565b61434e5f19848461428e565b805f190482111561436157614361614197565b029392505050565b5f610cec60ff8416836142c9565b634e487b7160e01b5f52601260045260245ffd5b5f8261439957614399614377565b500490565b60ff8281168282160390811115610b0957610b09614197565b6001600160a01b03988916815296881660208801529490961660408601526060850192909252608084015260a083015260c082019290925290151560e08201526101000190565b5f8161440c5761440c614197565b505f190190565b5f8261442157614421614377565b50069056fefacaf2747a7486cf5730e9265973fb54447d3ace6e7e4711f6360826b0731941a2646970667358221220274b3428d1459ae52b531a9f2fc780f8a8f59ba4dee34160664e74110cb3126664736f6c634300081a0033",
			"opcodes": "PUSH1 0x80 PUSH1 0x40 MSTORE PUSH1 0xB DUP1 SLOAD PUSH2 0xFFFF NOT AND PUSH1 0x9 OR SWAP1 SSTORE CALLVALUE DUP1 ISZERO PUSH2 0x1D JUMPI PUSH0 DUP1 REVERT JUMPDEST POP PUSH1 0x40 MLOAD PUSH2 0x46B4 CODESIZE SUB DUP1 PUSH2 0x46B4 DUP4 CODECOPY DUP2 ADD PUSH1 0x40 DUP2 SWAP1 MSTORE PUSH2 0x3C SWAP2 PUSH2 0x1EB JUMP JUMPDEST PUSH1 0x1 DUP1 SLOAD PUSH1 0xFF NOT SWAP1 DUP2 AND DUP3 SSTORE PUSH1 0x1 PUSH1 0x1 PUSH1 0xA0 SHL SUB DUP5 DUP2 AND PUSH0 SWAP1 DUP2 MSTORE PUSH1 0x2 PUSH1 0x20 MSTORE PUSH1 0x40 DUP1 DUP3 KECCAK256 DUP1 SLOAD DUP6 AND DUP7 OR SWAP1 SSTORE SWAP2 DUP8 AND DUP1 DUP3 MSTORE SWAP2 DUP2 KECCAK256 DUP1 SLOAD SWAP1 SWAP4 AND DUP5 OR SWAP1 SWAP3 SSTORE DUP3 SLOAD PUSH2 0x100 PUSH1 0x1 PUSH1 0xA8 SHL SUB NOT AND PUSH2 0x100 SWAP1 SWAP2 MUL OR SWAP1 SWAP2 SSTORE PUSH2 0x9D SWAP1 CALLER PUSH2 0x127 JUMP JUMPDEST POP PUSH2 0xC8 PUSH32 0xFACAF2747A7486CF5730E9265973FB54447D3ACE6E7E4711F6360826B0731941 DUP3 PUSH2 0x127 JUMP JUMPDEST POP PUSH2 0xF3 PUSH32 0x183175B7B980894E2EA4C7EF510CF97A6819A85EE72E9E5B0186E21C7DB90E84 CALLER PUSH2 0x127 JUMP JUMPDEST POP PUSH2 0x11E PUSH32 0x65D7A28E3265B37A6474929F336521B332C1681B933F6CB9F3376673440D862A DUP3 PUSH2 0x127 JUMP JUMPDEST POP POP POP POP PUSH2 0x22B JUMP JUMPDEST PUSH0 DUP3 DUP2 MSTORE PUSH1 0x20 DUP2 DUP2 MSTORE PUSH1 0x40 DUP1 DUP4 KECCAK256 PUSH1 0x1 PUSH1 0x1 PUSH1 0xA0 SHL SUB DUP6 AND DUP5 MSTORE SWAP1 SWAP2 MSTORE DUP2 KECCAK256 SLOAD PUSH1 0xFF AND PUSH2 0x1C7 JUMPI PUSH0 DUP4 DUP2 MSTORE PUSH1 0x20 DUP2 DUP2 MSTORE PUSH1 0x40 DUP1 DUP4 KECCAK256 PUSH1 0x1 PUSH1 0x1 PUSH1 0xA0 SHL SUB DUP7 AND DUP5 MSTORE SWAP1 SWAP2 MSTORE SWAP1 KECCAK256 DUP1 SLOAD PUSH1 0xFF NOT AND PUSH1 0x1 OR SWAP1 SSTORE PUSH2 0x17F CALLER SWAP1 JUMP JUMPDEST PUSH1 0x1 PUSH1 0x1 PUSH1 0xA0 SHL SUB AND DUP3 PUSH1 0x1 PUSH1 0x1 PUSH1 0xA0 SHL SUB AND DUP5 PUSH32 0x2F8788117E7EFF1D82E926EC794901D17C78024A50270940304540A733656F0D PUSH1 0x40 MLOAD PUSH1 0x40 MLOAD DUP1 SWAP2 SUB SWAP1 LOG4 POP PUSH1 0x1 PUSH2 0x1CA JUMP JUMPDEST POP PUSH0 JUMPDEST SWAP3 SWAP2 POP POP JUMP JUMPDEST DUP1 MLOAD PUSH1 0x1 PUSH1 0x1 PUSH1 0xA0 SHL SUB DUP2 AND DUP2 EQ PUSH2 0x1E6 JUMPI PUSH0 DUP1 REVERT JUMPDEST SWAP2 SWAP1 POP JUMP JUMPDEST PUSH0 DUP1 PUSH0 PUSH1 0x60 DUP5 DUP7 SUB SLT ISZERO PUSH2 0x1FD JUMPI PUSH0 DUP1 REVERT JUMPDEST PUSH2 0x206 DUP5 PUSH2 0x1D0 JUMP JUMPDEST SWAP3 POP PUSH2 0x214 PUSH1 0x20 DUP6 ADD PUSH2 0x1D0 JUMP JUMPDEST SWAP2 POP PUSH2 0x222 PUSH1 0x40 DUP6 ADD PUSH2 0x1D0 JUMP JUMPDEST SWAP1 POP SWAP3 POP SWAP3 POP SWAP3 JUMP JUMPDEST PUSH2 0x447C DUP1 PUSH2 0x238 PUSH0 CODECOPY PUSH0 RETURN INVALID PUSH1 0x80 PUSH1 0x40 MSTORE CALLVALUE DUP1 ISZERO PUSH2 0xF JUMPI PUSH0 DUP1 REVERT JUMPDEST POP PUSH1 0x4 CALLDATASIZE LT PUSH2 0x393 JUMPI PUSH0 CALLDATALOAD PUSH1 0xE0 SHR DUP1 PUSH4 0x76319190 GT PUSH2 0x1DF JUMPI DUP1 PUSH4 0xB2292803 GT PUSH2 0x109 JUMPI DUP1 PUSH4 0xE63AB1E9 GT PUSH2 0xA9 JUMPI DUP1 PUSH4 0xF20E5E35 GT PUSH2 0x79 JUMPI DUP1 PUSH4 0xF20E5E35 EQ PUSH2 0xA7C JUMPI DUP1 PUSH4 0xF441BC1A EQ PUSH2 0xA9C JUMPI DUP1 PUSH4 0xF59B2550 EQ PUSH2 0xAA4 JUMPI DUP1 PUSH4 0xF8FAC9B7 EQ PUSH2 0xAB7 JUMPI PUSH0 DUP1 REVERT JUMPDEST DUP1 PUSH4 0xE63AB1E9 EQ PUSH2 0x9FC JUMPI DUP1 PUSH4 0xE6D40DAD EQ PUSH2 0xA23 JUMPI DUP1 PUSH4 0xEEE44ACB EQ PUSH2 0xA45 JUMPI DUP1 PUSH4 0xF0A56FC8 EQ PUSH2 0xA68 JUMPI PUSH0 DUP1 REVERT JUMPDEST DUP1 PUSH4 0xD547741F GT PUSH2 0xE4 JUMPI DUP1 PUSH4 0xD547741F EQ PUSH2 0x98A JUMPI DUP1 PUSH4 0xD8F5ACBF EQ PUSH2 0x99D JUMPI DUP1 PUSH4 0xE436CDD2 EQ PUSH2 0x9B0 JUMPI DUP1 PUSH4 0xE55DE0E7 EQ PUSH2 0x9DB JUMPI PUSH0 DUP1 REVERT JUMPDEST DUP1 PUSH4 0xB2292803 EQ PUSH2 0x94C JUMPI DUP1 PUSH4 0xB3C1F5D8 EQ PUSH2 0x964 JUMPI DUP1 PUSH4 0xCF8DDF0D EQ PUSH2 0x977 JUMPI PUSH0 DUP1 REVERT JUMPDEST DUP1 PUSH4 0x96B5A755 GT PUSH2 0x17F JUMPI DUP1 PUSH4 0xA217FDDF GT PUSH2 0x14F JUMPI DUP1 PUSH4 0xA217FDDF EQ PUSH2 0x8DE JUMPI DUP1 PUSH4 0xA63FCDF0 EQ PUSH2 0x8E5 JUMPI DUP1 PUSH4 0xAB1BC3B2 EQ PUSH2 0x905 JUMPI DUP1 PUSH4 0xAD808738 EQ PUSH2 0x92A JUMPI PUSH0 DUP1 REVERT JUMPDEST DUP1 PUSH4 0x96B5A755 EQ PUSH2 0x861 JUMPI DUP1 PUSH4 0x983DD192 EQ PUSH2 0x874 JUMPI DUP1 PUSH4 0x9BEC364C EQ PUSH2 0x887 JUMPI DUP1 PUSH4 0x9D902FC0 EQ PUSH2 0x8BF JUMPI PUSH0 DUP1 REVERT JUMPDEST DUP1 PUSH4 0x8456CB59 GT PUSH2 0x1BA JUMPI DUP1 PUSH4 0x8456CB59 EQ PUSH2 0x802 JUMPI DUP1 PUSH4 0x919E84F5 EQ PUSH2 0x80A JUMPI DUP1 PUSH4 0x91D14854 EQ PUSH2 0x82C JUMPI DUP1 PUSH4 0x930E79F1 EQ PUSH2 0x83F JUMPI PUSH0 DUP1 REVERT JUMPDEST DUP1 PUSH4 0x76319190 EQ PUSH2 0x7D4 JUMPI DUP1 PUSH4 0x76D4C56D EQ PUSH2 0x7E7 JUMPI DUP1 PUSH4 0x7AAB745F EQ PUSH2 0x7EF JUMPI PUSH0 DUP1 REVERT JUMPDEST DUP1 PUSH4 0x3F4BA83A GT PUSH2 0x2C0 JUMPI DUP1 PUSH4 0x5E556234 GT PUSH2 0x260 JUMPI DUP1 PUSH4 0x6EA933B8 GT PUSH2 0x230 JUMPI DUP1 PUSH4 0x6EA933B8 EQ PUSH2 0x784 JUMPI DUP1 PUSH4 0x6F168F8B EQ PUSH2 0x7A6 JUMPI DUP1 PUSH4 0x72E2867D EQ PUSH2 0x7B8 JUMPI DUP1 PUSH4 0x758AB90B EQ PUSH2 0x7C1 JUMPI PUSH0 DUP1 REVERT JUMPDEST DUP1 PUSH4 0x5E556234 EQ PUSH2 0x729 JUMPI DUP1 PUSH4 0x5E97A86E EQ PUSH2 0x73C JUMPI DUP1 PUSH4 0x68C4AC26 EQ PUSH2 0x74F JUMPI DUP1 PUSH4 0x6D69FCAF EQ PUSH2 0x771 JUMPI PUSH0 DUP1 REVERT JUMPDEST DUP1 PUSH4 0x56ECA3E5 GT PUSH2 0x29B JUMPI DUP1 PUSH4 0x56ECA3E5 EQ PUSH2 0x5E0 JUMPI DUP1 PUSH4 0x571A26A0 EQ PUSH2 0x602 JUMPI DUP1 PUSH4 0x59A68623 EQ PUSH2 0x6FF JUMPI DUP1 PUSH4 0x5C975ABB EQ PUSH2 0x71E JUMPI PUSH0 DUP1 REVERT JUMPDEST DUP1 PUSH4 0x3F4BA83A EQ PUSH2 0x59B JUMPI DUP1 PUSH4 0x51BB5DFF EQ PUSH2 0x5A3 JUMPI DUP1 PUSH4 0x5591B7C3 EQ PUSH2 0x5B6 JUMPI PUSH0 DUP1 REVERT JUMPDEST DUP1 PUSH4 0x2B60C822 GT PUSH2 0x336 JUMPI DUP1 PUSH4 0x2F932F22 GT PUSH2 0x306 JUMPI DUP1 PUSH4 0x2F932F22 EQ PUSH2 0x520 JUMPI DUP1 PUSH4 0x33B7643F EQ PUSH2 0x540 JUMPI DUP1 PUSH4 0x36568ABE EQ PUSH2 0x561 JUMPI DUP1 PUSH4 0x39BEA75E EQ PUSH2 0x574 JUMPI PUSH0 DUP1 REVERT JUMPDEST DUP1 PUSH4 0x2B60C822 EQ PUSH2 0x4C5 JUMPI DUP1 PUSH4 0x2C6EA90D EQ PUSH2 0x4D8 JUMPI DUP1 PUSH4 0x2F2FF15D EQ PUSH2 0x4EB JUMPI DUP1 PUSH4 0x2F8FABC9 EQ PUSH2 0x4FE JUMPI PUSH0 DUP1 REVERT JUMPDEST DUP1 PUSH4 0x119EE4AB GT PUSH2 0x371 JUMPI DUP1 PUSH4 0x119EE4AB EQ PUSH2 0x42D JUMPI DUP1 PUSH4 0x12DF76AE EQ PUSH2 0x442 JUMPI DUP1 PUSH4 0x248A9CA3 EQ PUSH2 0x48C JUMPI DUP1 PUSH4 0x2AD71573 EQ PUSH2 0x4BC JUMPI PUSH0 DUP1 REVERT JUMPDEST DUP1 PUSH4 0x1FFC9A7 EQ PUSH2 0x397 JUMPI DUP1 PUSH4 0x37C8E4D EQ PUSH2 0x3BF JUMPI DUP1 PUSH4 0x9F0A14D EQ PUSH2 0x402 JUMPI JUMPDEST PUSH0 DUP1 REVERT JUMPDEST PUSH2 0x3AA PUSH2 0x3A5 CALLDATASIZE PUSH1 0x4 PUSH2 0x3963 JUMP JUMPDEST PUSH2 0xAD9 JUMP JUMPDEST PUSH1 0x40 MLOAD SWAP1 ISZERO ISZERO DUP2 MSTORE PUSH1 0x20 ADD JUMPDEST PUSH1 0x40 MLOAD DUP1 SWAP2 SUB SWAP1 RETURN JUMPDEST PUSH2 0x3EA PUSH2 0x3CD CALLDATASIZE PUSH1 0x4 PUSH2 0x398A JUMP JUMPDEST PUSH0 SWAP1 DUP2 MSTORE PUSH1 0x6 PUSH1 0x20 MSTORE PUSH1 0x40 SWAP1 KECCAK256 PUSH1 0x4 ADD SLOAD PUSH1 0x1 PUSH1 0x1 PUSH1 0xA0 SHL SUB AND SWAP1 JUMP JUMPDEST PUSH1 0x40 MLOAD PUSH1 0x1 PUSH1 0x1 PUSH1 0xA0 SHL SUB SWAP1 SWAP2 AND DUP2 MSTORE PUSH1 0x20 ADD PUSH2 0x3B6 JUMP JUMPDEST PUSH2 0x3EA PUSH2 0x410 CALLDATASIZE PUSH1 0x4 PUSH2 0x398A JUMP JUMPDEST PUSH0 SWAP1 DUP2 MSTORE PUSH1 0x6 PUSH1 0x20 MSTORE PUSH1 0x40 SWAP1 KECCAK256 PUSH1 0x2 ADD SLOAD PUSH1 0x1 PUSH1 0x1 PUSH1 0xA0 SHL SUB AND SWAP1 JUMP JUMPDEST PUSH2 0x440 PUSH2 0x43B CALLDATASIZE PUSH1 0x4 PUSH2 0x3A67 JUMP JUMPDEST PUSH2 0xB0F JUMP JUMPDEST STOP JUMPDEST PUSH2 0x475 PUSH2 0x450 CALLDATASIZE PUSH1 0x4 PUSH2 0x398A JUMP JUMPDEST PUSH0 SWAP1 DUP2 MSTORE PUSH1 0x6 PUSH1 0x20 MSTORE PUSH1 0x40 SWAP1 KECCAK256 DUP1 SLOAD PUSH1 0xB SWAP1 SWAP2 ADD SLOAD SWAP1 ISZERO ISZERO SWAP2 PUSH2 0x100 SWAP1 SWAP2 DIV PUSH1 0xFF AND SWAP1 JUMP JUMPDEST PUSH1 0x40 DUP1 MLOAD SWAP3 ISZERO ISZERO DUP4 MSTORE SWAP1 ISZERO ISZERO PUSH1 0x20 DUP4 ADD MSTORE ADD PUSH2 0x3B6 JUMP JUMPDEST PUSH2 0x4AE PUSH2 0x49A CALLDATASIZE PUSH1 0x4 PUSH2 0x398A JUMP JUMPDEST PUSH0 SWAP1 DUP2 MSTORE PUSH1 0x20 DUP2 SWAP1 MSTORE PUSH1 0x40 SWAP1 KECCAK256 PUSH1 0x1 ADD SLOAD SWAP1 JUMP JUMPDEST PUSH1 0x40 MLOAD SWAP1 DUP2 MSTORE PUSH1 0x20 ADD PUSH2 0x3B6 JUMP JUMPDEST PUSH2 0x4AE PUSH1 0x8 SLOAD DUP2 JUMP JUMPDEST PUSH2 0x3EA PUSH2 0x4D3 CALLDATASIZE PUSH1 0x4 PUSH2 0x398A JUMP JUMPDEST PUSH2 0xB60 JUMP JUMPDEST PUSH2 0x4AE PUSH2 0x4E6 CALLDATASIZE PUSH1 0x4 PUSH2 0x398A JUMP JUMPDEST PUSH2 0xB88 JUMP JUMPDEST PUSH2 0x440 PUSH2 0x4F9 CALLDATASIZE PUSH1 0x4 PUSH2 0x3AB3 JUMP JUMPDEST PUSH2 0xBA7 JUMP JUMPDEST PUSH2 0x4AE PUSH2 0x50C CALLDATASIZE PUSH1 0x4 PUSH2 0x398A JUMP JUMPDEST PUSH0 SWAP1 DUP2 MSTORE PUSH1 0x6 PUSH1 0x20 MSTORE PUSH1 0x40 SWAP1 KECCAK256 PUSH1 0x5 ADD SLOAD SWAP1 JUMP JUMPDEST PUSH2 0x533 PUSH2 0x52E CALLDATASIZE PUSH1 0x4 PUSH2 0x3AEA JUMP JUMPDEST PUSH2 0xBD1 JUMP JUMPDEST PUSH1 0x40 MLOAD PUSH2 0x3B6 SWAP2 SWAP1 PUSH2 0x3B5A JUMP JUMPDEST PUSH2 0x553 PUSH2 0x54E CALLDATASIZE PUSH1 0x4 PUSH2 0x3A67 JUMP JUMPDEST PUSH2 0xCF3 JUMP JUMPDEST PUSH1 0x40 MLOAD PUSH2 0x3B6 SWAP3 SWAP2 SWAP1 PUSH2 0x3B9E JUMP JUMPDEST PUSH2 0x440 PUSH2 0x56F CALLDATASIZE PUSH1 0x4 PUSH2 0x3AB3 JUMP JUMPDEST PUSH2 0xE2D JUMP JUMPDEST PUSH2 0x4AE PUSH32 0x183175B7B980894E2EA4C7EF510CF97A6819A85EE72E9E5B0186E21C7DB90E84 DUP2 JUMP JUMPDEST PUSH2 0x440 PUSH2 0xE60 JUMP JUMPDEST PUSH2 0x440 PUSH2 0x5B1 CALLDATASIZE PUSH1 0x4 PUSH2 0x3BC2 JUMP JUMPDEST PUSH2 0xE95 JUMP JUMPDEST PUSH2 0x4AE PUSH2 0x5C4 CALLDATASIZE PUSH1 0x4 PUSH2 0x3BDB JUMP JUMPDEST PUSH1 0x3 PUSH1 0x20 SWAP1 DUP2 MSTORE PUSH0 SWAP3 DUP4 MSTORE PUSH1 0x40 DUP1 DUP5 KECCAK256 SWAP1 SWAP2 MSTORE SWAP1 DUP3 MSTORE SWAP1 KECCAK256 SLOAD DUP2 JUMP JUMPDEST PUSH2 0x4AE PUSH2 0x5EE CALLDATASIZE PUSH1 0x4 PUSH2 0x398A JUMP JUMPDEST PUSH0 SWAP1 DUP2 MSTORE PUSH1 0x6 PUSH1 0x20 MSTORE PUSH1 0x40 SWAP1 KECCAK256 PUSH1 0x8 ADD SLOAD SWAP1 JUMP JUMPDEST PUSH2 0x68A PUSH2 0x610 CALLDATASIZE PUSH1 0x4 PUSH2 0x398A JUMP JUMPDEST PUSH1 0x6 PUSH1 0x20 DUP2 SWAP1 MSTORE PUSH0 SWAP2 DUP3 MSTORE PUSH1 0x40 SWAP1 SWAP2 KECCAK256 DUP1 SLOAD PUSH1 0x1 DUP3 ADD SLOAD PUSH1 0x2 DUP4 ADD SLOAD PUSH1 0x3 DUP5 ADD SLOAD PUSH1 0x4 DUP6 ADD SLOAD PUSH1 0x5 DUP7 ADD SLOAD SWAP7 DUP7 ADD SLOAD PUSH1 0x7 DUP8 ADD SLOAD PUSH1 0x8 DUP9 ADD SLOAD PUSH1 0x9 DUP10 ADD SLOAD PUSH1 0xA DUP11 ADD SLOAD PUSH1 0xB SWAP1 SWAP11 ADD SLOAD SWAP9 SWAP11 SWAP8 SWAP10 PUSH1 0x1 PUSH1 0x1 PUSH1 0xA0 SHL SUB SWAP8 DUP9 AND SWAP10 SWAP7 DUP9 AND SWAP9 SWAP8 SWAP1 SWAP6 AND SWAP7 SWAP6 SWAP4 SWAP5 SWAP3 SWAP4 SWAP2 SWAP3 SWAP1 SWAP2 PUSH1 0xFF DUP1 DUP3 AND SWAP2 PUSH2 0x100 SWAP1 DIV AND DUP14 JUMP JUMPDEST PUSH1 0x40 DUP1 MLOAD SWAP14 DUP15 MSTORE PUSH1 0x20 DUP15 ADD SWAP13 SWAP1 SWAP13 MSTORE PUSH1 0x1 PUSH1 0x1 PUSH1 0xA0 SHL SUB SWAP11 DUP12 AND SWAP12 DUP14 ADD SWAP12 SWAP1 SWAP12 MSTORE SWAP8 DUP10 AND PUSH1 0x60 DUP13 ADD MSTORE SWAP8 SWAP1 SWAP6 AND PUSH1 0x80 DUP11 ADD MSTORE PUSH1 0xA0 DUP10 ADD SWAP4 SWAP1 SWAP4 MSTORE PUSH1 0xC0 DUP9 ADD SWAP2 SWAP1 SWAP2 MSTORE PUSH1 0xE0 DUP8 ADD MSTORE PUSH2 0x100 DUP7 ADD MSTORE PUSH2 0x120 DUP6 ADD MSTORE PUSH2 0x140 DUP5 ADD SWAP2 SWAP1 SWAP2 MSTORE ISZERO ISZERO PUSH2 0x160 DUP4 ADD MSTORE ISZERO ISZERO PUSH2 0x180 DUP3 ADD MSTORE PUSH2 0x1A0 ADD PUSH2 0x3B6 JUMP JUMPDEST PUSH2 0x4AE PUSH2 0x70D CALLDATASIZE PUSH1 0x4 PUSH2 0x398A JUMP JUMPDEST PUSH1 0x7 PUSH1 0x20 MSTORE PUSH0 SWAP1 DUP2 MSTORE PUSH1 0x40 SWAP1 KECCAK256 SLOAD DUP2 JUMP JUMPDEST PUSH1 0x1 SLOAD PUSH1 0xFF AND PUSH2 0x3AA JUMP JUMPDEST PUSH2 0x440 PUSH2 0x737 CALLDATASIZE PUSH1 0x4 PUSH2 0x3C03 JUMP JUMPDEST PUSH2 0xF37 JUMP JUMPDEST PUSH2 0x440 PUSH2 0x74A CALLDATASIZE PUSH1 0x4 PUSH2 0x3C4B JUMP JUMPDEST PUSH2 0x1109 JUMP JUMPDEST PUSH2 0x3AA PUSH2 0x75D CALLDATASIZE PUSH1 0x4 PUSH2 0x3BC2 JUMP JUMPDEST PUSH1 0x4 PUSH1 0x20 MSTORE PUSH0 SWAP1 DUP2 MSTORE PUSH1 0x40 SWAP1 KECCAK256 SLOAD PUSH1 0xFF AND DUP2 JUMP JUMPDEST PUSH2 0x440 PUSH2 0x77F CALLDATASIZE PUSH1 0x4 PUSH2 0x3BC2 JUMP JUMPDEST PUSH2 0x11A0 JUMP JUMPDEST PUSH2 0x4AE PUSH2 0x792 CALLDATASIZE PUSH1 0x4 PUSH2 0x398A JUMP JUMPDEST PUSH0 SWAP1 DUP2 MSTORE PUSH1 0x6 PUSH1 0x20 MSTORE PUSH1 0x40 SWAP1 KECCAK256 PUSH1 0x1 ADD SLOAD SWAP1 JUMP JUMPDEST PUSH1 0xB SLOAD PUSH2 0x3AA SWAP1 PUSH2 0x100 SWAP1 DIV PUSH1 0xFF AND DUP2 JUMP JUMPDEST PUSH2 0x4AE PUSH1 0xA SLOAD DUP2 JUMP JUMPDEST PUSH2 0x440 PUSH2 0x7CF CALLDATASIZE PUSH1 0x4 PUSH2 0x3C66 JUMP JUMPDEST PUSH2 0x12EF JUMP JUMPDEST PUSH2 0x440 PUSH2 0x7E2 CALLDATASIZE PUSH1 0x4 PUSH2 0x3BC2 JUMP JUMPDEST PUSH2 0x195D JUMP JUMPDEST PUSH2 0x440 PUSH2 0x1B3F JUMP JUMPDEST PUSH2 0x440 PUSH2 0x7FD CALLDATASIZE PUSH1 0x4 PUSH2 0x3BC2 JUMP JUMPDEST PUSH2 0x1B7F JUMP JUMPDEST PUSH2 0x440 PUSH2 0x1CCB JUMP JUMPDEST PUSH2 0x4AE PUSH2 0x818 CALLDATASIZE PUSH1 0x4 PUSH2 0x398A JUMP JUMPDEST PUSH0 SWAP1 DUP2 MSTORE PUSH1 0x6 PUSH1 0x20 MSTORE PUSH1 0x40 SWAP1 KECCAK256 PUSH1 0x9 ADD SLOAD SWAP1 JUMP JUMPDEST PUSH2 0x3AA PUSH2 0x83A CALLDATASIZE PUSH1 0x4 PUSH2 0x3AB3 JUMP JUMPDEST PUSH2 0x1CFD JUMP JUMPDEST PUSH2 0x4AE PUSH2 0x84D CALLDATASIZE PUSH1 0x4 PUSH2 0x398A JUMP JUMPDEST PUSH0 SWAP1 DUP2 MSTORE PUSH1 0x6 PUSH1 0x20 MSTORE PUSH1 0x40 SWAP1 KECCAK256 PUSH1 0xA ADD SLOAD SWAP1 JUMP JUMPDEST PUSH2 0x440 PUSH2 0x86F CALLDATASIZE PUSH1 0x4 PUSH2 0x398A JUMP JUMPDEST PUSH2 0x1D25 JUMP JUMPDEST PUSH2 0x440 PUSH2 0x882 CALLDATASIZE PUSH1 0x4 PUSH2 0x3DC4 JUMP JUMPDEST PUSH2 0x1E63 JUMP JUMPDEST PUSH2 0x4AE PUSH2 0x895 CALLDATASIZE PUSH1 0x4 PUSH2 0x3BDB JUMP JUMPDEST PUSH1 0x1 PUSH1 0x1 PUSH1 0xA0 SHL SUB SWAP2 DUP3 AND PUSH0 SWAP1 DUP2 MSTORE PUSH1 0x3 PUSH1 0x20 SWAP1 DUP2 MSTORE PUSH1 0x40 DUP1 DUP4 KECCAK256 SWAP4 SWAP1 SWAP5 AND DUP3 MSTORE SWAP2 SWAP1 SWAP2 MSTORE KECCAK256 SLOAD SWAP1 JUMP JUMPDEST PUSH1 0xB SLOAD PUSH2 0x8CC SWAP1 PUSH1 0xFF AND DUP2 JUMP JUMPDEST PUSH1 0x40 MLOAD PUSH1 0xFF SWAP1 SWAP2 AND DUP2 MSTORE PUSH1 0x20 ADD PUSH2 0x3B6 JUMP JUMPDEST PUSH2 0x4AE PUSH0 DUP2 JUMP JUMPDEST PUSH2 0x8F8 PUSH2 0x8F3 CALLDATASIZE PUSH1 0x4 PUSH2 0x3AEA JUMP JUMPDEST PUSH2 0x2097 JUMP JUMPDEST PUSH1 0x40 MLOAD PUSH2 0x3B6 SWAP2 SWAP1 PUSH2 0x4068 JUMP JUMPDEST PUSH2 0x3AA PUSH2 0x913 CALLDATASIZE PUSH1 0x4 PUSH2 0x398A JUMP JUMPDEST PUSH0 SWAP1 DUP2 MSTORE PUSH1 0x6 PUSH1 0x20 MSTORE PUSH1 0x40 SWAP1 KECCAK256 PUSH1 0xB ADD SLOAD PUSH1 0xFF AND SWAP1 JUMP JUMPDEST PUSH2 0x93D PUSH2 0x938 CALLDATASIZE PUSH1 0x4 PUSH2 0x3BC2 JUMP JUMPDEST PUSH2 0x2215 JUMP JUMPDEST PUSH1 0x40 MLOAD PUSH2 0x3B6 SWAP4 SWAP3 SWAP2 SWAP1 PUSH2 0x40B6 JUMP JUMPDEST PUSH1 0x1 SLOAD PUSH2 0x3EA SWAP1 PUSH2 0x100 SWAP1 DIV PUSH1 0x1 PUSH1 0x1 PUSH1 0xA0 SHL SUB AND DUP2 JUMP JUMPDEST PUSH2 0x440 PUSH2 0x972 CALLDATASIZE PUSH1 0x4 PUSH2 0x3BC2 JUMP JUMPDEST PUSH2 0x256B JUMP JUMPDEST PUSH2 0x440 PUSH2 0x985 CALLDATASIZE PUSH1 0x4 PUSH2 0x3BDB JUMP JUMPDEST PUSH2 0x262A JUMP JUMPDEST PUSH2 0x440 PUSH2 0x998 CALLDATASIZE PUSH1 0x4 PUSH2 0x3AB3 JUMP JUMPDEST PUSH2 0x2748 JUMP JUMPDEST PUSH2 0x440 PUSH2 0x9AB CALLDATASIZE PUSH1 0x4 PUSH2 0x398A JUMP JUMPDEST PUSH2 0x276C JUMP JUMPDEST PUSH2 0x3EA PUSH2 0x9BE CALLDATASIZE PUSH1 0x4 PUSH2 0x398A JUMP JUMPDEST PUSH0 SWAP1 DUP2 MSTORE PUSH1 0x6 PUSH1 0x20 MSTORE PUSH1 0x40 SWAP1 KECCAK256 PUSH1 0x3 ADD SLOAD PUSH1 0x1 PUSH1 0x1 PUSH1 0xA0 SHL SUB AND SWAP1 JUMP JUMPDEST PUSH2 0x9EE PUSH2 0x9E9 CALLDATASIZE PUSH1 0x4 PUSH2 0x40EE JUMP JUMPDEST PUSH2 0x2C42 JUMP JUMPDEST PUSH1 0x40 MLOAD PUSH2 0x3B6 SWAP3 SWAP2 SWAP1 PUSH2 0x411E JUMP JUMPDEST PUSH2 0x4AE PUSH32 0x65D7A28E3265B37A6474929F336521B332C1681B933F6CB9F3376673440D862A DUP2 JUMP JUMPDEST PUSH2 0x3AA PUSH2 0xA31 CALLDATASIZE PUSH1 0x4 PUSH2 0x3BC2 JUMP JUMPDEST PUSH1 0x2 PUSH1 0x20 MSTORE PUSH0 SWAP1 DUP2 MSTORE PUSH1 0x40 SWAP1 KECCAK256 SLOAD PUSH1 0xFF AND DUP2 JUMP JUMPDEST PUSH2 0x4AE PUSH2 0xA53 CALLDATASIZE PUSH1 0x4 PUSH2 0x398A JUMP JUMPDEST PUSH0 SWAP1 DUP2 MSTORE PUSH1 0x6 PUSH1 0x20 DUP2 SWAP1 MSTORE PUSH1 0x40 SWAP1 SWAP2 KECCAK256 ADD SLOAD SWAP1 JUMP JUMPDEST PUSH2 0x4AE PUSH0 DUP1 MLOAD PUSH1 0x20 PUSH2 0x4427 DUP4 CODECOPY DUP2 MLOAD SWAP2 MSTORE DUP2 JUMP JUMPDEST PUSH2 0xA8F PUSH2 0xA8A CALLDATASIZE PUSH1 0x4 PUSH2 0x398A JUMP JUMPDEST PUSH2 0x2E79 JUMP JUMPDEST PUSH1 0x40 MLOAD PUSH2 0x3B6 SWAP2 SWAP1 PUSH2 0x4174 JUMP JUMPDEST PUSH2 0x440 PUSH2 0x2F42 JUMP JUMPDEST PUSH2 0x440 PUSH2 0xAB2 CALLDATASIZE PUSH1 0x4 PUSH2 0x398A JUMP JUMPDEST PUSH2 0x2F86 JUMP JUMPDEST PUSH2 0x4AE PUSH2 0xAC5 CALLDATASIZE PUSH1 0x4 PUSH2 0x398A JUMP JUMPDEST PUSH0 SWAP1 DUP2 MSTORE PUSH1 0x6 PUSH1 0x20 MSTORE PUSH1 0x40 SWAP1 KECCAK256 PUSH1 0x7 ADD SLOAD SWAP1 JUMP JUMPDEST PUSH0 PUSH1 0x1 PUSH1 0x1 PUSH1 0xE0 SHL SUB NOT DUP3 AND PUSH4 0x7965DB0B PUSH1 0xE0 SHL EQ DUP1 PUSH2 0xB09 JUMPI POP PUSH4 0x1FFC9A7 PUSH1 0xE0 SHL PUSH1 0x1 PUSH1 0x1 PUSH1 0xE0 SHL SUB NOT DUP4 AND EQ JUMPDEST SWAP3 SWAP2 POP POP JUMP JUMPDEST PUSH0 DUP1 MLOAD PUSH1 0x20 PUSH2 0x4427 DUP4 CODECOPY DUP2 MLOAD SWAP2 MSTORE PUSH2 0xB26 DUP2 PUSH2 0x3457 JUMP JUMPDEST PUSH0 JUMPDEST DUP3 MLOAD DUP2 LT ISZERO PUSH2 0xB5B JUMPI PUSH2 0xB53 DUP4 DUP3 DUP2 MLOAD DUP2 LT PUSH2 0xB46 JUMPI PUSH2 0xB46 PUSH2 0x4183 JUMP JUMPDEST PUSH1 0x20 MUL PUSH1 0x20 ADD ADD MLOAD PUSH2 0x1D25 JUMP JUMPDEST PUSH1 0x1 ADD PUSH2 0xB28 JUMP JUMPDEST POP POP POP JUMP JUMPDEST PUSH1 0x5 DUP2 DUP2 SLOAD DUP2 LT PUSH2 0xB6F JUMPI PUSH0 DUP1 REVERT JUMPDEST PUSH0 SWAP2 DUP3 MSTORE PUSH1 0x20 SWAP1 SWAP2 KECCAK256 ADD SLOAD PUSH1 0x1 PUSH1 0x1 PUSH1 0xA0 SHL SUB AND SWAP1 POP DUP2 JUMP JUMPDEST PUSH1 0x9 DUP2 DUP2 SLOAD DUP2 LT PUSH2 0xB97 JUMPI PUSH0 DUP1 REVERT JUMPDEST PUSH0 SWAP2 DUP3 MSTORE PUSH1 0x20 SWAP1 SWAP2 KECCAK256 ADD SLOAD SWAP1 POP DUP2 JUMP JUMPDEST PUSH0 DUP3 DUP2 MSTORE PUSH1 0x20 DUP2 SWAP1 MSTORE PUSH1 0x40 SWAP1 KECCAK256 PUSH1 0x1 ADD SLOAD PUSH2 0xBC1 DUP2 PUSH2 0x3457 JUMP JUMPDEST PUSH2 0xBCB DUP4 DUP4 PUSH2 0x3461 JUMP JUMPDEST POP POP POP POP JUMP JUMPDEST PUSH1 0x60 PUSH0 DUP1 DUP4 ISZERO PUSH2 0xBE6 JUMPI POP POP PUSH1 0xA SLOAD PUSH0 PUSH2 0xC32 JUMP JUMPDEST DUP6 PUSH2 0xBF1 DUP2 DUP8 PUSH2 0x41AB JUMP JUMPDEST PUSH1 0xA SLOAD PUSH2 0xBFE SWAP2 SWAP1 PUSH2 0x41C2 JUMP JUMPDEST PUSH2 0xC08 SWAP2 SWAP1 PUSH2 0x41C2 JUMP JUMPDEST SWAP1 POP PUSH0 PUSH2 0xC15 DUP8 DUP8 PUSH2 0x41AB JUMP JUMPDEST PUSH1 0xA SLOAD PUSH2 0xC22 SWAP2 SWAP1 PUSH2 0x41C2 JUMP JUMPDEST SWAP1 POP PUSH2 0xC2E DUP3 DUP3 PUSH2 0x41C2 JUMP JUMPDEST SWAP3 POP POP JUMPDEST PUSH0 DUP3 PUSH1 0x1 PUSH1 0x1 PUSH1 0x40 SHL SUB DUP2 GT ISZERO PUSH2 0xC4B JUMPI PUSH2 0xC4B PUSH2 0x39A1 JUMP JUMPDEST PUSH1 0x40 MLOAD SWAP1 DUP1 DUP3 MSTORE DUP1 PUSH1 0x20 MUL PUSH1 0x20 ADD DUP3 ADD PUSH1 0x40 MSTORE DUP1 ISZERO PUSH2 0xC74 JUMPI DUP2 PUSH1 0x20 ADD PUSH1 0x20 DUP3 MUL DUP1 CALLDATASIZE DUP4 CALLDATACOPY ADD SWAP1 POP JUMPDEST POP SWAP1 POP PUSH0 JUMPDEST DUP4 DUP2 LT ISZERO PUSH2 0xCE6 JUMPI PUSH1 0x9 DUP4 PUSH1 0x1 DUP4 PUSH1 0xA SLOAD PUSH2 0xC94 SWAP2 SWAP1 PUSH2 0x41C2 JUMP JUMPDEST PUSH2 0xC9E SWAP2 SWAP1 PUSH2 0x41C2 JUMP JUMPDEST PUSH2 0xCA8 SWAP2 SWAP1 PUSH2 0x41C2 JUMP JUMPDEST DUP2 SLOAD DUP2 LT PUSH2 0xCB8 JUMPI PUSH2 0xCB8 PUSH2 0x4183 JUMP JUMPDEST SWAP1 PUSH0 MSTORE PUSH1 0x20 PUSH0 KECCAK256 ADD SLOAD DUP3 DUP3 DUP2 MLOAD DUP2 LT PUSH2 0xCD3 JUMPI PUSH2 0xCD3 PUSH2 0x4183 JUMP JUMPDEST PUSH1 0x20 SWAP1 DUP2 MUL SWAP2 SWAP1 SWAP2 ADD ADD MSTORE PUSH1 0x1 ADD PUSH2 0xC79 JUMP JUMPDEST POP SWAP3 POP POP POP JUMPDEST SWAP4 SWAP3 POP POP POP JUMP JUMPDEST PUSH1 0x60 DUP1 PUSH0 DUP4 MLOAD PUSH1 0x1 PUSH1 0x1 PUSH1 0x40 SHL SUB DUP2 GT ISZERO PUSH2 0xD10 JUMPI PUSH2 0xD10 PUSH2 0x39A1 JUMP JUMPDEST PUSH1 0x40 MLOAD SWAP1 DUP1 DUP3 MSTORE DUP1 PUSH1 0x20 MUL PUSH1 0x20 ADD DUP3 ADD PUSH1 0x40 MSTORE DUP1 ISZERO PUSH2 0xD39 JUMPI DUP2 PUSH1 0x20 ADD PUSH1 0x20 DUP3 MUL DUP1 CALLDATASIZE DUP4 CALLDATACOPY ADD SWAP1 POP JUMPDEST POP SWAP1 POP PUSH0 DUP5 MLOAD PUSH1 0x1 PUSH1 0x1 PUSH1 0x40 SHL SUB DUP2 GT ISZERO PUSH2 0xD56 JUMPI PUSH2 0xD56 PUSH2 0x39A1 JUMP JUMPDEST PUSH1 0x40 MLOAD SWAP1 DUP1 DUP3 MSTORE DUP1 PUSH1 0x20 MUL PUSH1 0x20 ADD DUP3 ADD PUSH1 0x40 MSTORE DUP1 ISZERO PUSH2 0xD7F JUMPI DUP2 PUSH1 0x20 ADD PUSH1 0x20 DUP3 MUL DUP1 CALLDATASIZE DUP4 CALLDATACOPY ADD SWAP1 POP JUMPDEST POP SWAP1 POP PUSH0 JUMPDEST DUP6 MLOAD DUP2 LT ISZERO PUSH2 0xE22 JUMPI PUSH0 PUSH1 0x6 PUSH0 DUP9 DUP5 DUP2 MLOAD DUP2 LT PUSH2 0xDA3 JUMPI PUSH2 0xDA3 PUSH2 0x4183 JUMP JUMPDEST PUSH1 0x20 MUL PUSH1 0x20 ADD ADD MLOAD DUP2 MSTORE PUSH1 0x20 ADD SWAP1 DUP2 MSTORE PUSH1 0x20 ADD PUSH0 KECCAK256 SWAP1 POP DUP1 PUSH0 ADD SLOAD PUSH0 EQ ISZERO DUP5 DUP4 DUP2 MLOAD DUP2 LT PUSH2 0xDD3 JUMPI PUSH2 0xDD3 PUSH2 0x4183 JUMP JUMPDEST PUSH1 0x20 MUL PUSH1 0x20 ADD ADD SWAP1 ISZERO ISZERO SWAP1 DUP2 ISZERO ISZERO DUP2 MSTORE POP POP DUP1 PUSH1 0xB ADD PUSH1 0x1 SWAP1 SLOAD SWAP1 PUSH2 0x100 EXP SWAP1 DIV PUSH1 0xFF AND DUP4 DUP4 DUP2 MLOAD DUP2 LT PUSH2 0xE09 JUMPI PUSH2 0xE09 PUSH2 0x4183 JUMP JUMPDEST SWAP2 ISZERO ISZERO PUSH1 0x20 SWAP3 DUP4 MUL SWAP2 SWAP1 SWAP2 ADD SWAP1 SWAP2 ADD MSTORE POP PUSH1 0x1 ADD PUSH2 0xD84 JUMP JUMPDEST POP SWAP1 SWAP5 SWAP1 SWAP4 POP SWAP2 POP POP JUMP JUMPDEST PUSH1 0x1 PUSH1 0x1 PUSH1 0xA0 SHL SUB DUP2 AND CALLER EQ PUSH2 0xE56 JUMPI PUSH1 0x40 MLOAD PUSH4 0x334BD919 PUSH1 0xE1 SHL DUP2 MSTORE PUSH1 0x4 ADD PUSH1 0x40 MLOAD DUP1 SWAP2 SUB SWAP1 REVERT JUMPDEST PUSH2 0xB5B DUP3 DUP3 PUSH2 0x34F0 JUMP JUMPDEST PUSH32 0x65D7A28E3265B37A6474929F336521B332C1681B933F6CB9F3376673440D862A PUSH2 0xE8A DUP2 PUSH2 0x3457 JUMP JUMPDEST PUSH2 0xE92 PUSH2 0x3559 JUMP JUMPDEST POP JUMP JUMPDEST PUSH0 PUSH2 0xE9F DUP2 PUSH2 0x3457 JUMP JUMPDEST PUSH1 0x1 PUSH1 0x1 PUSH1 0xA0 SHL SUB DUP3 AND PUSH0 SWAP1 DUP2 MSTORE PUSH1 0x2 PUSH1 0x20 MSTORE PUSH1 0x40 SWAP1 KECCAK256 SLOAD PUSH1 0xFF AND PUSH2 0xEDF JUMPI PUSH1 0x40 MLOAD PUSH3 0x461BCD PUSH1 0xE5 SHL DUP2 MSTORE PUSH1 0x4 ADD PUSH2 0xED6 SWAP1 PUSH2 0x41D5 JUMP JUMPDEST PUSH1 0x40 MLOAD DUP1 SWAP2 SUB SWAP1 REVERT JUMPDEST PUSH1 0x1 PUSH1 0x1 PUSH1 0xA0 SHL SUB DUP3 AND PUSH0 DUP2 DUP2 MSTORE PUSH1 0x2 PUSH1 0x20 SWAP1 DUP2 MSTORE PUSH1 0x40 SWAP2 DUP3 SWAP1 KECCAK256 DUP1 SLOAD PUSH1 0xFF NOT AND SWAP1 SSTORE SWAP1 MLOAD SWAP2 DUP3 MSTORE PUSH32 0x3C01F8893DD371767A61635A5ADD2B7AA2DC48C2F254906C5A8A5D915B2974C SWAP2 ADD JUMPDEST PUSH1 0x40 MLOAD DUP1 SWAP2 SUB SWAP1 LOG1 POP POP JUMP JUMPDEST PUSH32 0x183175B7B980894E2EA4C7EF510CF97A6819A85EE72E9E5B0186E21C7DB90E84 PUSH2 0xF61 DUP2 PUSH2 0x3457 JUMP JUMPDEST PUSH1 0x1 PUSH1 0x1 PUSH1 0xA0 SHL SUB DUP5 AND PUSH0 SWAP1 DUP2 MSTORE PUSH1 0x2 PUSH1 0x20 MSTORE PUSH1 0x40 SWAP1 KECCAK256 SLOAD PUSH1 0xFF AND PUSH2 0xF98 JUMPI PUSH1 0x40 MLOAD PUSH3 0x461BCD PUSH1 0xE5 SHL DUP2 MSTORE PUSH1 0x4 ADD PUSH2 0xED6 SWAP1 PUSH2 0x41D5 JUMP JUMPDEST PUSH1 0x40 MLOAD PUSH4 0x70A08231 PUSH1 0xE0 SHL DUP2 MSTORE ADDRESS PUSH1 0x4 DUP3 ADD MSTORE DUP3 SWAP1 PUSH1 0x1 PUSH1 0x1 PUSH1 0xA0 SHL SUB DUP7 AND SWAP1 PUSH4 0x70A08231 SWAP1 PUSH1 0x24 ADD PUSH1 0x20 PUSH1 0x40 MLOAD DUP1 DUP4 SUB DUP2 DUP7 GAS STATICCALL ISZERO DUP1 ISZERO PUSH2 0xFDC JUMPI RETURNDATASIZE PUSH0 DUP1 RETURNDATACOPY RETURNDATASIZE PUSH0 REVERT JUMPDEST POP POP POP POP PUSH1 0x40 MLOAD RETURNDATASIZE PUSH1 0x1F NOT PUSH1 0x1F DUP3 ADD AND DUP3 ADD DUP1 PUSH1 0x40 MSTORE POP DUP2 ADD SWAP1 PUSH2 0x1000 SWAP2 SWAP1 PUSH2 0x4202 JUMP JUMPDEST LT ISZERO PUSH2 0x1045 JUMPI PUSH1 0x40 MLOAD PUSH3 0x461BCD PUSH1 0xE5 SHL DUP2 MSTORE PUSH1 0x20 PUSH1 0x4 DUP3 ADD MSTORE PUSH1 0x14 PUSH1 0x24 DUP3 ADD MSTORE PUSH20 0x496E73756666696369656E742062616C616E6365 PUSH1 0x60 SHL PUSH1 0x44 DUP3 ADD MSTORE PUSH1 0x64 ADD PUSH2 0xED6 JUMP JUMPDEST PUSH1 0x40 MLOAD PUSH4 0xA9059CBB PUSH1 0xE0 SHL DUP2 MSTORE PUSH1 0x1 PUSH1 0x1 PUSH1 0xA0 SHL SUB DUP5 DUP2 AND PUSH1 0x4 DUP4 ADD MSTORE PUSH1 0x24 DUP3 ADD DUP5 SWAP1 MSTORE DUP6 AND SWAP1 PUSH4 0xA9059CBB SWAP1 PUSH1 0x44 ADD PUSH1 0x20 PUSH1 0x40 MLOAD DUP1 DUP4 SUB DUP2 PUSH0 DUP8 GAS CALL ISZERO DUP1 ISZERO PUSH2 0x1091 JUMPI RETURNDATASIZE PUSH0 DUP1 RETURNDATACOPY RETURNDATASIZE PUSH0 REVERT JUMPDEST POP POP POP POP PUSH1 0x40 MLOAD RETURNDATASIZE PUSH1 0x1F NOT PUSH1 0x1F DUP3 ADD AND DUP3 ADD DUP1 PUSH1 0x40 MSTORE POP DUP2 ADD SWAP1 PUSH2 0x10B5 SWAP2 SWAP1 PUSH2 0x4219 JUMP JUMPDEST POP DUP3 PUSH1 0x1 PUSH1 0x1 PUSH1 0xA0 SHL SUB AND DUP5 PUSH1 0x1 PUSH1 0x1 PUSH1 0xA0 SHL SUB AND PUSH32 0x7C1F0FC7960C40ECA97BCA5BEAB93D5405C142C505317E944E79085BB4676FD8 DUP5 PUSH1 0x40 MLOAD PUSH2 0x10FB SWAP2 DUP2 MSTORE PUSH1 0x20 ADD SWAP1 JUMP JUMPDEST PUSH1 0x40 MLOAD DUP1 SWAP2 SUB SWAP1 LOG3 POP POP POP POP JUMP JUMPDEST PUSH0 PUSH2 0x1113 DUP2 PUSH2 0x3457 JUMP JUMPDEST PUSH1 0x1 DUP3 PUSH1 0xFF AND LT ISZERO DUP1 ISZERO PUSH2 0x112B JUMPI POP PUSH1 0x12 DUP3 PUSH1 0xFF AND GT ISZERO JUMPDEST PUSH2 0x1189 JUMPI PUSH1 0x40 MLOAD PUSH3 0x461BCD PUSH1 0xE5 SHL DUP2 MSTORE PUSH1 0x20 PUSH1 0x4 DUP3 ADD MSTORE PUSH1 0x29 PUSH1 0x24 DUP3 ADD MSTORE PUSH32 0x507265636973696F6E20666163746F72206D757374206265206265747765656E PUSH1 0x44 DUP3 ADD MSTORE PUSH9 0x406240C2DCC840627 PUSH1 0xBB SHL PUSH1 0x64 DUP3 ADD MSTORE PUSH1 0x84 ADD PUSH2 0xED6 JUMP JUMPDEST POP PUSH1 0xB DUP1 SLOAD PUSH1 0xFF NOT AND PUSH1 0xFF SWAP3 SWAP1 SWAP3 AND SWAP2 SWAP1 SWAP2 OR SWAP1 SSTORE JUMP JUMPDEST PUSH0 PUSH2 0x11AA DUP2 PUSH2 0x3457 JUMP JUMPDEST PUSH1 0x1 PUSH1 0x1 PUSH1 0xA0 SHL SUB DUP3 AND PUSH2 0x11F8 JUMPI PUSH1 0x40 MLOAD PUSH3 0x461BCD PUSH1 0xE5 SHL DUP2 MSTORE PUSH1 0x20 PUSH1 0x4 DUP3 ADD MSTORE PUSH1 0x15 PUSH1 0x24 DUP3 ADD MSTORE PUSH21 0x496E76616C696420746F6B656E2061646472657373 PUSH1 0x58 SHL PUSH1 0x44 DUP3 ADD MSTORE PUSH1 0x64 ADD PUSH2 0xED6 JUMP JUMPDEST PUSH1 0x1 PUSH1 0x1 PUSH1 0xA0 SHL SUB DUP3 AND PUSH0 SWAP1 DUP2 MSTORE PUSH1 0x4 PUSH1 0x20 MSTORE PUSH1 0x40 SWAP1 KECCAK256 SLOAD PUSH1 0xFF AND ISZERO PUSH2 0x125A JUMPI PUSH1 0x40 MLOAD PUSH3 0x461BCD PUSH1 0xE5 SHL DUP2 MSTORE PUSH1 0x20 PUSH1 0x4 DUP3 ADD MSTORE PUSH1 0x17 PUSH1 0x24 DUP3 ADD MSTORE PUSH23 0x151BDAD95B88185B1C9958591E481CDD5C1C1BDC9D1959 PUSH1 0x4A SHL PUSH1 0x44 DUP3 ADD MSTORE PUSH1 0x64 ADD PUSH2 0xED6 JUMP JUMPDEST PUSH1 0x1 PUSH1 0x1 PUSH1 0xA0 SHL SUB DUP3 AND PUSH0 DUP2 DUP2 MSTORE PUSH1 0x4 PUSH1 0x20 SWAP1 DUP2 MSTORE PUSH1 0x40 DUP1 DUP4 KECCAK256 DUP1 SLOAD PUSH1 0xFF NOT AND PUSH1 0x1 SWAP1 DUP2 OR SWAP1 SWAP2 SSTORE PUSH1 0x5 DUP1 SLOAD SWAP2 DUP3 ADD DUP2 SSTORE SWAP1 SWAP4 MSTORE PUSH32 0x36B6384B5ECA791C62761152D0C79BB0604C104A5FB6F4EB0703F3154BB3DB0 SWAP1 SWAP3 ADD DUP1 SLOAD PUSH1 0x1 PUSH1 0x1 PUSH1 0xA0 SHL SUB NOT AND DUP5 OR SWAP1 SSTORE SWAP1 MLOAD SWAP2 DUP3 MSTORE PUSH32 0x784C8F4DBF0FFEDD6E72C76501C545A70F8B203B30A26CE542BF92BA87C248A4 SWAP2 ADD PUSH2 0xF2B JUMP JUMPDEST PUSH0 DUP1 MLOAD PUSH1 0x20 PUSH2 0x4427 DUP4 CODECOPY DUP2 MLOAD SWAP2 MSTORE PUSH2 0x1306 DUP2 PUSH2 0x3457 JUMP JUMPDEST DUP2 ISZERO PUSH2 0x1373 JUMPI DUP4 DUP6 GT ISZERO PUSH2 0x136E JUMPI PUSH1 0x40 MLOAD PUSH3 0x461BCD PUSH1 0xE5 SHL DUP2 MSTORE PUSH1 0x20 PUSH1 0x4 DUP3 ADD MSTORE PUSH1 0x29 PUSH1 0x24 DUP3 ADD MSTORE PUSH32 0x5374617274207072696365206D757374206265203C3D20656E64207072696365 PUSH1 0x44 DUP3 ADD MSTORE PUSH9 0x20666F722062757973 PUSH1 0xB8 SHL PUSH1 0x64 DUP3 ADD MSTORE PUSH1 0x84 ADD PUSH2 0xED6 JUMP JUMPDEST PUSH2 0x13D6 JUMP JUMPDEST DUP4 DUP6 LT ISZERO PUSH2 0x13D6 JUMPI PUSH1 0x40 MLOAD PUSH3 0x461BCD PUSH1 0xE5 SHL DUP2 MSTORE PUSH1 0x20 PUSH1 0x4 DUP3 ADD MSTORE PUSH1 0x2A PUSH1 0x24 DUP3 ADD MSTORE PUSH32 0x5374617274207072696365206D757374206265203E3D20656E64207072696365 PUSH1 0x44 DUP3 ADD MSTORE PUSH10 0x20666F722073656C6C73 PUSH1 0xB0 SHL PUSH1 0x64 DUP3 ADD MSTORE PUSH1 0x84 ADD PUSH2 0xED6 JUMP JUMPDEST PUSH0 DUP8 GT PUSH2 0x1425 JUMPI PUSH1 0x40 MLOAD PUSH3 0x461BCD PUSH1 0xE5 SHL DUP2 MSTORE PUSH1 0x20 PUSH1 0x4 DUP3 ADD MSTORE PUSH1 0x1E PUSH1 0x24 DUP3 ADD MSTORE PUSH32 0x537461626C6520636F696E20616D6F756E74206D757374206265203E20300000 PUSH1 0x44 DUP3 ADD MSTORE PUSH1 0x64 ADD PUSH2 0xED6 JUMP JUMPDEST PUSH0 DUP7 GT PUSH2 0x1474 JUMPI PUSH1 0x40 MLOAD PUSH3 0x461BCD PUSH1 0xE5 SHL DUP2 MSTORE PUSH1 0x20 PUSH1 0x4 DUP3 ADD MSTORE PUSH1 0x18 PUSH1 0x24 DUP3 ADD MSTORE PUSH32 0x546F6B656E20616D6F756E74206D757374206265203E20300000000000000000 PUSH1 0x44 DUP3 ADD MSTORE PUSH1 0x64 ADD PUSH2 0xED6 JUMP JUMPDEST PUSH0 DUP4 GT PUSH2 0x14BA JUMPI PUSH1 0x40 MLOAD PUSH3 0x461BCD PUSH1 0xE5 SHL DUP2 MSTORE PUSH1 0x20 PUSH1 0x4 DUP3 ADD MSTORE PUSH1 0x14 PUSH1 0x24 DUP3 ADD MSTORE PUSH20 0x4475726174696F6E206D757374206265203E203 PUSH1 0x64 SHL PUSH1 0x44 DUP3 ADD MSTORE PUSH1 0x64 ADD PUSH2 0xED6 JUMP JUMPDEST CHAINID DUP12 EQ PUSH2 0x151D JUMPI PUSH1 0x40 MLOAD PUSH3 0x461BCD PUSH1 0xE5 SHL DUP2 MSTORE PUSH1 0x20 PUSH1 0x4 DUP3 ADD MSTORE PUSH1 0x2B PUSH1 0x24 DUP3 ADD MSTORE PUSH32 0x54617267657420636861696E204944206D757374206D61746368206375727265 PUSH1 0x44 DUP3 ADD MSTORE PUSH11 0x1B9D0818DA185A5B881251 PUSH1 0xAA SHL PUSH1 0x64 DUP3 ADD MSTORE PUSH1 0x84 ADD PUSH2 0xED6 JUMP JUMPDEST PUSH1 0x1 PUSH1 0x1 PUSH1 0xA0 SHL SUB DUP9 AND PUSH0 SWAP1 DUP2 MSTORE PUSH1 0x2 PUSH1 0x20 MSTORE PUSH1 0x40 SWAP1 KECCAK256 SLOAD PUSH1 0xFF AND PUSH2 0x1584 JUMPI PUSH1 0x40 MLOAD PUSH3 0x461BCD PUSH1 0xE5 SHL DUP2 MSTORE PUSH1 0x20 PUSH1 0x4 DUP3 ADD MSTORE PUSH1 0x17 PUSH1 0x24 DUP3 ADD MSTORE PUSH32 0x556E737570706F7274656420737461626C6520636F696E000000000000000000 PUSH1 0x44 DUP3 ADD MSTORE PUSH1 0x64 ADD PUSH2 0xED6 JUMP JUMPDEST DUP12 PUSH0 SUB PUSH2 0x15C7 JUMPI PUSH1 0x40 MLOAD PUSH3 0x461BCD PUSH1 0xE5 SHL DUP2 MSTORE PUSH1 0x20 PUSH1 0x4 DUP3 ADD MSTORE PUSH1 0x11 PUSH1 0x24 DUP3 ADD MSTORE PUSH17 0x125B9D985B1A59081C995C5D595CDD1259 PUSH1 0x7A SHL PUSH1 0x44 DUP3 ADD MSTORE PUSH1 0x64 ADD PUSH2 0xED6 JUMP JUMPDEST PUSH0 DUP13 DUP2 MSTORE PUSH1 0x6 PUSH1 0x20 MSTORE PUSH1 0x40 SWAP1 KECCAK256 SLOAD ISZERO PUSH2 0x161B JUMPI PUSH1 0x40 MLOAD PUSH3 0x461BCD PUSH1 0xE5 SHL DUP2 MSTORE PUSH1 0x20 PUSH1 0x4 DUP3 ADD MSTORE PUSH1 0x16 PUSH1 0x24 DUP3 ADD MSTORE PUSH22 0x41756374696F6E20616C726561647920657869737473 PUSH1 0x50 SHL PUSH1 0x44 DUP3 ADD MSTORE PUSH1 0x64 ADD PUSH2 0xED6 JUMP JUMPDEST PUSH1 0x1 PUSH1 0x1 PUSH1 0xA0 SHL SUB DUP10 AND PUSH0 SWAP1 DUP2 MSTORE PUSH1 0x4 PUSH1 0x20 MSTORE PUSH1 0x40 SWAP1 KECCAK256 SLOAD PUSH1 0xFF AND PUSH2 0x169F JUMPI PUSH1 0x1 PUSH1 0x1 PUSH1 0xA0 SHL SUB DUP10 AND PUSH0 DUP2 DUP2 MSTORE PUSH1 0x4 PUSH1 0x20 MSTORE PUSH1 0x40 DUP2 KECCAK256 DUP1 SLOAD PUSH1 0xFF NOT AND PUSH1 0x1 SWAP1 DUP2 OR SWAP1 SWAP2 SSTORE PUSH1 0x5 DUP1 SLOAD SWAP2 DUP3 ADD DUP2 SSTORE SWAP1 SWAP2 MSTORE PUSH32 0x36B6384B5ECA791C62761152D0C79BB0604C104A5FB6F4EB0703F3154BB3DB0 ADD DUP1 SLOAD PUSH1 0x1 PUSH1 0x1 PUSH1 0xA0 SHL SUB NOT AND SWAP1 SWAP2 OR SWAP1 SSTORE JUMPDEST PUSH1 0x40 MLOAD DUP1 PUSH2 0x1A0 ADD PUSH1 0x40 MSTORE DUP1 DUP14 DUP2 MSTORE PUSH1 0x20 ADD DUP13 DUP2 MSTORE PUSH1 0x20 ADD DUP12 PUSH1 0x1 PUSH1 0x1 PUSH1 0xA0 SHL SUB AND DUP2 MSTORE PUSH1 0x20 ADD DUP11 PUSH1 0x1 PUSH1 0x1 PUSH1 0xA0 SHL SUB AND DUP2 MSTORE PUSH1 0x20 ADD DUP10 PUSH1 0x1 PUSH1 0x1 PUSH1 0xA0 SHL SUB AND DUP2 MSTORE PUSH1 0x20 ADD DUP9 DUP2 MSTORE PUSH1 0x20 ADD DUP8 DUP2 MSTORE PUSH1 0x20 ADD DUP7 DUP2 MSTORE PUSH1 0x20 ADD DUP6 DUP2 MSTORE PUSH1 0x20 ADD TIMESTAMP DUP2 MSTORE PUSH1 0x20 ADD DUP5 TIMESTAMP PUSH2 0x170E SWAP2 SWAP1 PUSH2 0x4234 JUMP JUMPDEST DUP2 MSTORE PUSH1 0x20 ADD DUP4 ISZERO ISZERO DUP2 MSTORE PUSH1 0x20 ADD PUSH1 0x1 ISZERO ISZERO DUP2 MSTORE POP PUSH1 0x6 PUSH0 DUP15 DUP2 MSTORE PUSH1 0x20 ADD SWAP1 DUP2 MSTORE PUSH1 0x20 ADD PUSH0 KECCAK256 PUSH0 DUP3 ADD MLOAD DUP2 PUSH0 ADD SSTORE PUSH1 0x20 DUP3 ADD MLOAD DUP2 PUSH1 0x1 ADD SSTORE PUSH1 0x40 DUP3 ADD MLOAD DUP2 PUSH1 0x2 ADD PUSH0 PUSH2 0x100 EXP DUP2 SLOAD DUP2 PUSH1 0x1 PUSH1 0x1 PUSH1 0xA0 SHL SUB MUL NOT AND SWAP1 DUP4 PUSH1 0x1 PUSH1 0x1 PUSH1 0xA0 SHL SUB AND MUL OR SWAP1 SSTORE POP PUSH1 0x60 DUP3 ADD MLOAD DUP2 PUSH1 0x3 ADD PUSH0 PUSH2 0x100 EXP DUP2 SLOAD DUP2 PUSH1 0x1 PUSH1 0x1 PUSH1 0xA0 SHL SUB MUL NOT AND SWAP1 DUP4 PUSH1 0x1 PUSH1 0x1 PUSH1 0xA0 SHL SUB AND MUL OR SWAP1 SSTORE POP PUSH1 0x80 DUP3 ADD MLOAD DUP2 PUSH1 0x4 ADD PUSH0 PUSH2 0x100 EXP DUP2 SLOAD DUP2 PUSH1 0x1 PUSH1 0x1 PUSH1 0xA0 SHL SUB MUL NOT AND SWAP1 DUP4 PUSH1 0x1 PUSH1 0x1 PUSH1 0xA0 SHL SUB AND MUL OR SWAP1 SSTORE POP PUSH1 0xA0 DUP3 ADD MLOAD DUP2 PUSH1 0x5 ADD SSTORE PUSH1 0xC0 DUP3 ADD MLOAD DUP2 PUSH1 0x6 ADD SSTORE PUSH1 0xE0 DUP3 ADD MLOAD DUP2 PUSH1 0x7 ADD SSTORE PUSH2 0x100 DUP3 ADD MLOAD DUP2 PUSH1 0x8 ADD SSTORE PUSH2 0x120 DUP3 ADD MLOAD DUP2 PUSH1 0x9 ADD SSTORE PUSH2 0x140 DUP3 ADD MLOAD DUP2 PUSH1 0xA ADD SSTORE PUSH2 0x160 DUP3 ADD MLOAD DUP2 PUSH1 0xB ADD PUSH0 PUSH2 0x100 EXP DUP2 SLOAD DUP2 PUSH1 0xFF MUL NOT AND SWAP1 DUP4 ISZERO ISZERO MUL OR SWAP1 SSTORE POP PUSH2 0x180 DUP3 ADD MLOAD DUP2 PUSH1 0xB ADD PUSH1 0x1 PUSH2 0x100 EXP DUP2 SLOAD DUP2 PUSH1 0xFF MUL NOT AND SWAP1 DUP4 ISZERO ISZERO MUL OR SWAP1 SSTORE POP SWAP1 POP POP PUSH1 0x9 DUP13 SWAP1 DUP1 PUSH1 0x1 DUP2 SLOAD ADD DUP1 DUP3 SSTORE DUP1 SWAP2 POP POP PUSH1 0x1 SWAP1 SUB SWAP1 PUSH0 MSTORE PUSH1 0x20 PUSH0 KECCAK256 ADD PUSH0 SWAP1 SWAP2 SWAP1 SWAP2 SWAP1 SWAP2 POP SSTORE PUSH1 0xA SLOAD PUSH1 0x7 PUSH0 DUP15 DUP2 MSTORE PUSH1 0x20 ADD SWAP1 DUP2 MSTORE PUSH1 0x20 ADD PUSH0 KECCAK256 DUP2 SWAP1 SSTORE POP PUSH1 0xA PUSH0 DUP2 SLOAD DUP1 SWAP3 SWAP2 SWAP1 PUSH2 0x189C SWAP1 PUSH2 0x4247 JUMP JUMPDEST SWAP1 SWAP2 SSTORE POP POP PUSH1 0x8 DUP1 SLOAD SWAP1 PUSH0 PUSH2 0x18B0 DUP4 PUSH2 0x4247 JUMP JUMPDEST SWAP1 SWAP2 SSTORE POP POP PUSH1 0x1 PUSH1 0x1 PUSH1 0xA0 SHL SUB DUP11 AND DUP13 PUSH32 0xA089E6CF84499EF8ADF4DB50DF1470260BC4A1594998512BF5D06D8A7E00235B DUP14 DUP13 DUP13 DUP13 DUP13 DUP13 DUP13 TIMESTAMP PUSH2 0x18F3 DUP15 DUP3 PUSH2 0x4234 JUMP JUMPDEST PUSH1 0x40 DUP1 MLOAD SWAP10 DUP11 MSTORE PUSH1 0x1 PUSH1 0x1 PUSH1 0xA0 SHL SUB SWAP9 DUP10 AND PUSH1 0x20 DUP12 ADD MSTORE SWAP7 SWAP1 SWAP8 AND SWAP6 DUP9 ADD SWAP6 SWAP1 SWAP6 MSTORE PUSH1 0x60 DUP8 ADD SWAP4 SWAP1 SWAP4 MSTORE PUSH1 0x80 DUP7 ADD SWAP2 SWAP1 SWAP2 MSTORE PUSH1 0xA0 DUP6 ADD MSTORE PUSH1 0xC0 DUP5 ADD MSTORE PUSH1 0xE0 DUP4 ADD MSTORE PUSH2 0x100 DUP3 ADD MSTORE DUP6 ISZERO ISZERO PUSH2 0x120 DUP3 ADD MSTORE PUSH2 0x140 ADD PUSH1 0x40 MLOAD DUP1 SWAP2 SUB SWAP1 LOG3 POP POP POP POP POP POP POP POP POP POP POP POP JUMP JUMPDEST PUSH0 PUSH2 0x1967 DUP2 PUSH2 0x3457 JUMP JUMPDEST PUSH1 0x1 PUSH1 0x1 PUSH1 0xA0 SHL SUB DUP3 AND PUSH2 0x19B5 JUMPI PUSH1 0x40 MLOAD PUSH3 0x461BCD PUSH1 0xE5 SHL DUP2 MSTORE PUSH1 0x20 PUSH1 0x4 DUP3 ADD MSTORE PUSH1 0x15 PUSH1 0x24 DUP3 ADD MSTORE PUSH21 0x496E76616C696420746F6B656E2061646472657373 PUSH1 0x58 SHL PUSH1 0x44 DUP3 ADD MSTORE PUSH1 0x64 ADD PUSH2 0xED6 JUMP JUMPDEST PUSH1 0x1 PUSH1 0x1 PUSH1 0xA0 SHL SUB DUP3 AND PUSH0 SWAP1 DUP2 MSTORE PUSH1 0x4 PUSH1 0x20 MSTORE PUSH1 0x40 SWAP1 KECCAK256 SLOAD PUSH1 0xFF AND PUSH2 0x19EC JUMPI PUSH1 0x40 MLOAD PUSH3 0x461BCD PUSH1 0xE5 SHL DUP2 MSTORE PUSH1 0x4 ADD PUSH2 0xED6 SWAP1 PUSH2 0x41D5 JUMP JUMPDEST PUSH1 0x1 PUSH1 0x1 PUSH1 0xA0 SHL SUB DUP3 AND PUSH0 SWAP1 DUP2 MSTORE PUSH1 0x4 PUSH1 0x20 MSTORE PUSH1 0x40 DUP2 KECCAK256 DUP1 SLOAD PUSH1 0xFF NOT AND SWAP1 SSTORE JUMPDEST PUSH1 0x5 SLOAD DUP2 LT ISZERO PUSH2 0xB5B JUMPI DUP3 PUSH1 0x1 PUSH1 0x1 PUSH1 0xA0 SHL SUB AND PUSH1 0x5 DUP3 DUP2 SLOAD DUP2 LT PUSH2 0x1A33 JUMPI PUSH2 0x1A33 PUSH2 0x4183 JUMP JUMPDEST PUSH0 SWAP2 DUP3 MSTORE PUSH1 0x20 SWAP1 SWAP2 KECCAK256 ADD SLOAD PUSH1 0x1 PUSH1 0x1 PUSH1 0xA0 SHL SUB AND SUB PUSH2 0x1B37 JUMPI PUSH1 0x5 DUP1 SLOAD PUSH2 0x1A5C SWAP1 PUSH1 0x1 SWAP1 PUSH2 0x41C2 JUMP JUMPDEST DUP2 SLOAD DUP2 LT PUSH2 0x1A6C JUMPI PUSH2 0x1A6C PUSH2 0x4183 JUMP JUMPDEST PUSH0 SWAP2 DUP3 MSTORE PUSH1 0x20 SWAP1 SWAP2 KECCAK256 ADD SLOAD PUSH1 0x5 DUP1 SLOAD PUSH1 0x1 PUSH1 0x1 PUSH1 0xA0 SHL SUB SWAP1 SWAP3 AND SWAP2 DUP4 SWAP1 DUP2 LT PUSH2 0x1A97 JUMPI PUSH2 0x1A97 PUSH2 0x4183 JUMP JUMPDEST SWAP1 PUSH0 MSTORE PUSH1 0x20 PUSH0 KECCAK256 ADD PUSH0 PUSH2 0x100 EXP DUP2 SLOAD DUP2 PUSH1 0x1 PUSH1 0x1 PUSH1 0xA0 SHL SUB MUL NOT AND SWAP1 DUP4 PUSH1 0x1 PUSH1 0x1 PUSH1 0xA0 SHL SUB AND MUL OR SWAP1 SSTORE POP PUSH1 0x5 DUP1 SLOAD DUP1 PUSH2 0x1AD3 JUMPI PUSH2 0x1AD3 PUSH2 0x425F JUMP JUMPDEST PUSH0 DUP3 DUP2 MSTORE PUSH1 0x20 SWAP1 DUP2 SWAP1 KECCAK256 PUSH0 NOT SWAP1 DUP4 ADD DUP2 ADD DUP1 SLOAD PUSH1 0x1 PUSH1 0x1 PUSH1 0xA0 SHL SUB NOT AND SWAP1 SSTORE SWAP1 SWAP2 ADD SWAP1 SWAP2 SSTORE PUSH1 0x40 MLOAD PUSH1 0x1 PUSH1 0x1 PUSH1 0xA0 SHL SUB DUP6 AND DUP2 MSTORE PUSH32 0x4C910B69FE65A61F7531B9C5042B2329CA7179C77290AA7E2EB3AFA3C8511FD3 SWAP2 ADD PUSH1 0x40 MLOAD DUP1 SWAP2 SUB SWAP1 LOG1 POP POP POP JUMP JUMPDEST PUSH1 0x1 ADD PUSH2 0x1A0C JUMP JUMPDEST PUSH0 PUSH2 0x1B49 DUP2 PUSH2 0x3457 JUMP JUMPDEST PUSH1 0xB DUP1 SLOAD PUSH2 0xFF00 NOT AND SWAP1 SSTORE PUSH1 0x40 MLOAD PUSH32 0xD8B5479BAF73C92FC46529E4C8003F70EA02BE564A680B766792D291551443D SWAP1 PUSH0 SWAP1 LOG1 POP JUMP JUMPDEST PUSH1 0xB SLOAD PUSH2 0x100 SWAP1 DIV PUSH1 0xFF AND PUSH2 0x1BD6 JUMPI PUSH1 0x40 MLOAD PUSH3 0x461BCD PUSH1 0xE5 SHL DUP2 MSTORE PUSH1 0x20 PUSH1 0x4 DUP3 ADD MSTORE PUSH1 0x1A PUSH1 0x24 DUP3 ADD MSTORE PUSH32 0x457363617065206D6F6465206973206E6F7420656E61626C6564000000000000 PUSH1 0x44 DUP3 ADD MSTORE PUSH1 0x64 ADD PUSH2 0xED6 JUMP JUMPDEST CALLER PUSH0 SWAP1 DUP2 MSTORE PUSH1 0x3 PUSH1 0x20 SWAP1 DUP2 MSTORE PUSH1 0x40 DUP1 DUP4 KECCAK256 PUSH1 0x1 PUSH1 0x1 PUSH1 0xA0 SHL SUB DUP6 AND DUP5 MSTORE SWAP1 SWAP2 MSTORE SWAP1 KECCAK256 SLOAD DUP1 PUSH2 0x1C3F JUMPI PUSH1 0x40 MLOAD PUSH3 0x461BCD PUSH1 0xE5 SHL DUP2 MSTORE PUSH1 0x20 PUSH1 0x4 DUP3 ADD MSTORE PUSH1 0x16 PUSH1 0x24 DUP3 ADD MSTORE PUSH22 0x4E6F2062616C616E636520746F207769746864726177 PUSH1 0x50 SHL PUSH1 0x44 DUP3 ADD MSTORE PUSH1 0x64 ADD PUSH2 0xED6 JUMP JUMPDEST CALLER PUSH0 DUP2 DUP2 MSTORE PUSH1 0x3 PUSH1 0x20 SWAP1 DUP2 MSTORE PUSH1 0x40 DUP1 DUP4 KECCAK256 PUSH1 0x1 PUSH1 0x1 PUSH1 0xA0 SHL SUB DUP8 AND DUP1 DUP6 MSTORE SWAP3 MSTORE DUP1 DUP4 KECCAK256 SWAP3 SWAP1 SWAP3 SSTORE SWAP1 MLOAD PUSH4 0xA9059CBB PUSH1 0xE0 SHL DUP2 MSTORE PUSH1 0x4 DUP2 ADD SWAP3 SWAP1 SWAP3 MSTORE PUSH1 0x24 DUP3 ADD DUP4 SWAP1 MSTORE SWAP1 PUSH4 0xA9059CBB SWAP1 PUSH1 0x44 ADD PUSH1 0x20 PUSH1 0x40 MLOAD DUP1 DUP4 SUB DUP2 PUSH0 DUP8 GAS CALL ISZERO DUP1 ISZERO PUSH2 0x1CA7 JUMPI RETURNDATASIZE PUSH0 DUP1 RETURNDATACOPY RETURNDATASIZE PUSH0 REVERT JUMPDEST POP POP POP POP PUSH1 0x40 MLOAD RETURNDATASIZE PUSH1 0x1F NOT PUSH1 0x1F DUP3 ADD AND DUP3 ADD DUP1 PUSH1 0x40 MSTORE POP DUP2 ADD SWAP1 PUSH2 0xB5B SWAP2 SWAP1 PUSH2 0x4219 JUMP JUMPDEST PUSH32 0x65D7A28E3265B37A6474929F336521B332C1681B933F6CB9F3376673440D862A PUSH2 0x1CF5 DUP2 PUSH2 0x3457 JUMP JUMPDEST PUSH2 0xE92 PUSH2 0x35AB JUMP JUMPDEST PUSH0 SWAP2 DUP3 MSTORE PUSH1 0x20 DUP3 DUP2 MSTORE PUSH1 0x40 DUP1 DUP5 KECCAK256 PUSH1 0x1 PUSH1 0x1 PUSH1 0xA0 SHL SUB SWAP4 SWAP1 SWAP4 AND DUP5 MSTORE SWAP2 SWAP1 MSTORE SWAP1 KECCAK256 SLOAD PUSH1 0xFF AND SWAP1 JUMP JUMPDEST PUSH0 DUP1 MLOAD PUSH1 0x20 PUSH2 0x4427 DUP4 CODECOPY DUP2 MLOAD SWAP2 MSTORE PUSH2 0x1D3C DUP2 PUSH2 0x3457 JUMP JUMPDEST PUSH0 DUP3 DUP2 MSTORE PUSH1 0x6 PUSH1 0x20 MSTORE PUSH1 0x40 SWAP1 KECCAK256 PUSH1 0xB DUP2 ADD SLOAD PUSH2 0x100 SWAP1 DIV PUSH1 0xFF AND PUSH2 0x1D9A JUMPI PUSH1 0x40 MLOAD PUSH3 0x461BCD PUSH1 0xE5 SHL DUP2 MSTORE PUSH1 0x20 PUSH1 0x4 DUP3 ADD MSTORE PUSH1 0x15 PUSH1 0x24 DUP3 ADD MSTORE PUSH21 0x41756374696F6E206973206E6F7420616374697665 PUSH1 0x58 SHL PUSH1 0x44 DUP3 ADD MSTORE PUSH1 0x64 ADD PUSH2 0xED6 JUMP JUMPDEST PUSH1 0xB DUP2 ADD DUP1 SLOAD PUSH2 0xFF00 NOT AND SWAP1 SSTORE PUSH2 0x1DB0 DUP4 PUSH2 0x35E6 JUMP JUMPDEST PUSH1 0x2 DUP2 ADD SLOAD PUSH1 0x3 DUP3 ADD SLOAD PUSH1 0x4 DUP4 ADD SLOAD PUSH1 0x5 DUP5 ADD SLOAD PUSH1 0x6 DUP6 ADD SLOAD PUSH1 0x7 DUP7 ADD SLOAD PUSH1 0x8 DUP8 ADD SLOAD PUSH1 0x9 DUP9 ADD SLOAD PUSH1 0xA DUP10 ADD SLOAD PUSH1 0xB DUP11 ADD SLOAD PUSH1 0x40 DUP1 MLOAD PUSH1 0x1 PUSH1 0x1 PUSH1 0xA0 SHL SUB SWAP11 DUP12 AND DUP2 MSTORE SWAP9 DUP11 AND PUSH1 0x20 DUP11 ADD MSTORE DUP9 ADD SWAP7 SWAP1 SWAP7 MSTORE PUSH1 0x60 DUP8 ADD SWAP5 SWAP1 SWAP5 MSTORE PUSH1 0x80 DUP7 ADD SWAP3 SWAP1 SWAP3 MSTORE PUSH1 0xA0 DUP6 ADD MSTORE PUSH1 0xC0 DUP5 ADD MSTORE PUSH1 0xE0 DUP4 ADD MSTORE PUSH1 0xFF AND ISZERO ISZERO PUSH2 0x100 DUP3 ADD MSTORE SWAP2 AND SWAP1 DUP5 SWAP1 PUSH32 0x4F0ACCBCCD65C219B11BDFB34FD480CE34D290E123CC95011BD135883FF6313F SWAP1 PUSH2 0x120 ADD PUSH1 0x40 MLOAD DUP1 SWAP2 SUB SWAP1 LOG3 POP POP POP JUMP JUMPDEST PUSH0 DUP1 MLOAD PUSH1 0x20 PUSH2 0x4427 DUP4 CODECOPY DUP2 MLOAD SWAP2 MSTORE PUSH2 0x1E7A DUP2 PUSH2 0x3457 JUMP JUMPDEST DUP11 MLOAD DUP13 MLOAD EQ DUP1 ISZERO PUSH2 0x1E8C JUMPI POP DUP10 MLOAD DUP13 MLOAD EQ JUMPDEST DUP1 ISZERO PUSH2 0x1E99 JUMPI POP DUP9 MLOAD DUP13 MLOAD EQ JUMPDEST DUP1 ISZERO PUSH2 0x1EA6 JUMPI POP DUP8 MLOAD DUP13 MLOAD EQ JUMPDEST DUP1 ISZERO PUSH2 0x1EB3 JUMPI POP DUP7 MLOAD DUP13 MLOAD EQ JUMPDEST DUP1 ISZERO PUSH2 0x1EC0 JUMPI POP DUP6 MLOAD DUP13 MLOAD EQ JUMPDEST DUP1 ISZERO PUSH2 0x1ECD JUMPI POP DUP5 MLOAD DUP13 MLOAD EQ JUMPDEST DUP1 ISZERO PUSH2 0x1EDA JUMPI POP DUP4 MLOAD DUP13 MLOAD EQ JUMPDEST DUP1 ISZERO PUSH2 0x1EE7 JUMPI POP DUP3 MLOAD DUP13 MLOAD EQ JUMPDEST DUP1 ISZERO PUSH2 0x1EF4 JUMPI POP DUP2 MLOAD DUP13 MLOAD EQ JUMPDEST PUSH2 0x1F4F JUMPI PUSH1 0x40 MLOAD PUSH3 0x461BCD PUSH1 0xE5 SHL DUP2 MSTORE PUSH1 0x20 PUSH1 0x4 DUP3 ADD MSTORE PUSH1 0x26 PUSH1 0x24 DUP3 ADD MSTORE PUSH32 0x496E70757420617272617973206D7573742068617665207468652073616D6520 PUSH1 0x44 DUP3 ADD MSTORE PUSH6 0xD8CADCCEE8D PUSH1 0xD3 SHL PUSH1 0x64 DUP3 ADD MSTORE PUSH1 0x84 ADD PUSH2 0xED6 JUMP JUMPDEST PUSH0 JUMPDEST DUP13 MLOAD DUP2 LT ISZERO PUSH2 0x2088 JUMPI PUSH2 0x2080 DUP14 DUP3 DUP2 MLOAD DUP2 LT PUSH2 0x1F6F JUMPI PUSH2 0x1F6F PUSH2 0x4183 JUMP JUMPDEST PUSH1 0x20 MUL PUSH1 0x20 ADD ADD MLOAD DUP14 DUP4 DUP2 MLOAD DUP2 LT PUSH2 0x1F89 JUMPI PUSH2 0x1F89 PUSH2 0x4183 JUMP JUMPDEST PUSH1 0x20 MUL PUSH1 0x20 ADD ADD MLOAD DUP14 DUP5 DUP2 MLOAD DUP2 LT PUSH2 0x1FA3 JUMPI PUSH2 0x1FA3 PUSH2 0x4183 JUMP JUMPDEST PUSH1 0x20 MUL PUSH1 0x20 ADD ADD MLOAD DUP14 DUP6 DUP2 MLOAD DUP2 LT PUSH2 0x1FBD JUMPI PUSH2 0x1FBD PUSH2 0x4183 JUMP JUMPDEST PUSH1 0x20 MUL PUSH1 0x20 ADD ADD MLOAD DUP14 DUP7 DUP2 MLOAD DUP2 LT PUSH2 0x1FD7 JUMPI PUSH2 0x1FD7 PUSH2 0x4183 JUMP JUMPDEST PUSH1 0x20 MUL PUSH1 0x20 ADD ADD MLOAD DUP14 DUP8 DUP2 MLOAD DUP2 LT PUSH2 0x1FF1 JUMPI PUSH2 0x1FF1 PUSH2 0x4183 JUMP JUMPDEST PUSH1 0x20 MUL PUSH1 0x20 ADD ADD MLOAD DUP14 DUP9 DUP2 MLOAD DUP2 LT PUSH2 0x200B JUMPI PUSH2 0x200B PUSH2 0x4183 JUMP JUMPDEST PUSH1 0x20 MUL PUSH1 0x20 ADD ADD MLOAD DUP14 DUP10 DUP2 MLOAD DUP2 LT PUSH2 0x2025 JUMPI PUSH2 0x2025 PUSH2 0x4183 JUMP JUMPDEST PUSH1 0x20 MUL PUSH1 0x20 ADD ADD MLOAD DUP14 DUP11 DUP2 MLOAD DUP2 LT PUSH2 0x203F JUMPI PUSH2 0x203F PUSH2 0x4183 JUMP JUMPDEST PUSH1 0x20 MUL PUSH1 0x20 ADD ADD MLOAD DUP14 DUP12 DUP2 MLOAD DUP2 LT PUSH2 0x2059 JUMPI PUSH2 0x2059 PUSH2 0x4183 JUMP JUMPDEST PUSH1 0x20 MUL PUSH1 0x20 ADD ADD MLOAD DUP14 DUP13 DUP2 MLOAD DUP2 LT PUSH2 0x2073 JUMPI PUSH2 0x2073 PUSH2 0x4183 JUMP JUMPDEST PUSH1 0x20 MUL PUSH1 0x20 ADD ADD MLOAD PUSH2 0x12EF JUMP JUMPDEST PUSH1 0x1 ADD PUSH2 0x1F51 JUMP JUMPDEST POP POP POP POP POP POP POP POP POP POP POP POP POP JUMP JUMPDEST PUSH1 0x60 PUSH0 PUSH2 0x20A5 DUP6 DUP6 DUP6 PUSH2 0xBD1 JUMP JUMPDEST SWAP1 POP PUSH0 DUP2 MLOAD PUSH1 0x1 PUSH1 0x1 PUSH1 0x40 SHL SUB DUP2 GT ISZERO PUSH2 0x20C1 JUMPI PUSH2 0x20C1 PUSH2 0x39A1 JUMP JUMPDEST PUSH1 0x40 MLOAD SWAP1 DUP1 DUP3 MSTORE DUP1 PUSH1 0x20 MUL PUSH1 0x20 ADD DUP3 ADD PUSH1 0x40 MSTORE DUP1 ISZERO PUSH2 0x20FA JUMPI DUP2 PUSH1 0x20 ADD JUMPDEST PUSH2 0x20E7 PUSH2 0x38E9 JUMP JUMPDEST DUP2 MSTORE PUSH1 0x20 ADD SWAP1 PUSH1 0x1 SWAP1 SUB SWAP1 DUP2 PUSH2 0x20DF JUMPI SWAP1 POP JUMPDEST POP SWAP1 POP PUSH0 JUMPDEST DUP3 MLOAD DUP2 LT ISZERO PUSH2 0x220B JUMPI PUSH1 0x6 PUSH0 DUP5 DUP4 DUP2 MLOAD DUP2 LT PUSH2 0x211D JUMPI PUSH2 0x211D PUSH2 0x4183 JUMP JUMPDEST PUSH1 0x20 SWAP1 DUP2 MUL SWAP2 SWAP1 SWAP2 ADD DUP2 ADD MLOAD DUP3 MSTORE DUP2 DUP2 ADD SWAP3 SWAP1 SWAP3 MSTORE PUSH1 0x40 SWAP1 DUP2 ADD PUSH0 KECCAK256 DUP2 MLOAD PUSH2 0x1A0 DUP2 ADD DUP4 MSTORE DUP2 SLOAD DUP2 MSTORE PUSH1 0x1 DUP3 ADD SLOAD SWAP4 DUP2 ADD SWAP4 SWAP1 SWAP4 MSTORE PUSH1 0x2 DUP2 ADD SLOAD PUSH1 0x1 PUSH1 0x1 PUSH1 0xA0 SHL SUB SWAP1 DUP2 AND SWAP3 DUP5 ADD SWAP3 SWAP1 SWAP3 MSTORE PUSH1 0x3 DUP2 ADD SLOAD DUP3 AND PUSH1 0x60 DUP5 ADD MSTORE PUSH1 0x4 DUP2 ADD SLOAD SWAP1 SWAP2 AND PUSH1 0x80 DUP4 ADD MSTORE PUSH1 0x5 DUP2 ADD SLOAD PUSH1 0xA0 DUP4 ADD MSTORE PUSH1 0x6 DUP2 ADD SLOAD PUSH1 0xC0 DUP4 ADD MSTORE PUSH1 0x7 DUP2 ADD SLOAD PUSH1 0xE0 DUP4 ADD MSTORE PUSH1 0x8 DUP2 ADD SLOAD PUSH2 0x100 DUP1 DUP5 ADD SWAP2 SWAP1 SWAP2 MSTORE PUSH1 0x9 DUP3 ADD SLOAD PUSH2 0x120 DUP5 ADD MSTORE PUSH1 0xA DUP3 ADD SLOAD PUSH2 0x140 DUP5 ADD MSTORE PUSH1 0xB SWAP1 SWAP2 ADD SLOAD PUSH1 0xFF DUP1 DUP3 AND ISZERO ISZERO PUSH2 0x160 DUP6 ADD MSTORE SWAP2 SWAP1 DIV AND ISZERO ISZERO PUSH2 0x180 DUP3 ADD MSTORE DUP3 MLOAD DUP4 SWAP1 DUP4 SWAP1 DUP2 LT PUSH2 0x21F8 JUMPI PUSH2 0x21F8 PUSH2 0x4183 JUMP JUMPDEST PUSH1 0x20 SWAP1 DUP2 MUL SWAP2 SWAP1 SWAP2 ADD ADD MSTORE PUSH1 0x1 ADD PUSH2 0x20FF JUMP JUMPDEST POP SWAP6 SWAP5 POP POP POP POP POP JUMP JUMPDEST PUSH1 0x60 DUP1 PUSH1 0x60 PUSH0 DUP1 JUMPDEST PUSH1 0xA SLOAD DUP2 LT ISZERO PUSH2 0x2289 JUMPI DUP6 PUSH1 0x1 PUSH1 0x1 PUSH1 0xA0 SHL SUB AND PUSH1 0x6 PUSH0 PUSH1 0x9 DUP5 DUP2 SLOAD DUP2 LT PUSH2 0x2247 JUMPI PUSH2 0x2247 PUSH2 0x4183 JUMP JUMPDEST PUSH0 SWAP2 DUP3 MSTORE PUSH1 0x20 DUP1 DUP4 KECCAK256 SWAP1 SWAP2 ADD SLOAD DUP4 MSTORE DUP3 ADD SWAP3 SWAP1 SWAP3 MSTORE PUSH1 0x40 ADD SWAP1 KECCAK256 PUSH1 0x3 ADD SLOAD PUSH1 0x1 PUSH1 0x1 PUSH1 0xA0 SHL SUB AND SUB PUSH2 0x2281 JUMPI DUP2 PUSH2 0x227D DUP2 PUSH2 0x4247 JUMP JUMPDEST SWAP3 POP POP JUMPDEST PUSH1 0x1 ADD PUSH2 0x221D JUMP JUMPDEST POP DUP1 PUSH1 0x1 PUSH1 0x1 PUSH1 0x40 SHL SUB DUP2 GT ISZERO PUSH2 0x22A2 JUMPI PUSH2 0x22A2 PUSH2 0x39A1 JUMP JUMPDEST PUSH1 0x40 MLOAD SWAP1 DUP1 DUP3 MSTORE DUP1 PUSH1 0x20 MUL PUSH1 0x20 ADD DUP3 ADD PUSH1 0x40 MSTORE DUP1 ISZERO PUSH2 0x22CB JUMPI DUP2 PUSH1 0x20 ADD PUSH1 0x20 DUP3 MUL DUP1 CALLDATASIZE DUP4 CALLDATACOPY ADD SWAP1 POP JUMPDEST POP SWAP4 POP DUP1 PUSH1 0x1 PUSH1 0x1 PUSH1 0x40 SHL SUB DUP2 GT ISZERO PUSH2 0x22E6 JUMPI PUSH2 0x22E6 PUSH2 0x39A1 JUMP JUMPDEST PUSH1 0x40 MLOAD SWAP1 DUP1 DUP3 MSTORE DUP1 PUSH1 0x20 MUL PUSH1 0x20 ADD DUP3 ADD PUSH1 0x40 MSTORE DUP1 ISZERO PUSH2 0x230F JUMPI DUP2 PUSH1 0x20 ADD PUSH1 0x20 DUP3 MUL DUP1 CALLDATASIZE DUP4 CALLDATACOPY ADD SWAP1 POP JUMPDEST POP SWAP3 POP DUP1 PUSH1 0x1 PUSH1 0x1 PUSH1 0x40 SHL SUB DUP2 GT ISZERO PUSH2 0x232A JUMPI PUSH2 0x232A PUSH2 0x39A1 JUMP JUMPDEST PUSH1 0x40 MLOAD SWAP1 DUP1 DUP3 MSTORE DUP1 PUSH1 0x20 MUL PUSH1 0x20 ADD DUP3 ADD PUSH1 0x40 MSTORE DUP1 ISZERO PUSH2 0x2353 JUMPI DUP2 PUSH1 0x20 ADD PUSH1 0x20 DUP3 MUL DUP1 CALLDATASIZE DUP4 CALLDATACOPY ADD SWAP1 POP JUMPDEST POP SWAP2 POP PUSH0 DUP1 JUMPDEST PUSH1 0xA SLOAD DUP2 LT ISZERO PUSH2 0x2561 JUMPI DUP7 PUSH1 0x1 PUSH1 0x1 PUSH1 0xA0 SHL SUB AND PUSH1 0x6 PUSH0 PUSH1 0x9 DUP5 DUP2 SLOAD DUP2 LT PUSH2 0x2383 JUMPI PUSH2 0x2383 PUSH2 0x4183 JUMP JUMPDEST PUSH0 SWAP2 DUP3 MSTORE PUSH1 0x20 DUP1 DUP4 KECCAK256 SWAP1 SWAP2 ADD SLOAD DUP4 MSTORE DUP3 ADD SWAP3 SWAP1 SWAP3 MSTORE PUSH1 0x40 ADD SWAP1 KECCAK256 PUSH1 0x3 ADD SLOAD PUSH1 0x1 PUSH1 0x1 PUSH1 0xA0 SHL SUB AND SUB PUSH2 0x2559 JUMPI PUSH1 0x9 DUP2 DUP2 SLOAD DUP2 LT PUSH2 0x23C2 JUMPI PUSH2 0x23C2 PUSH2 0x4183 JUMP JUMPDEST SWAP1 PUSH0 MSTORE PUSH1 0x20 PUSH0 KECCAK256 ADD SLOAD DUP7 DUP4 DUP2 MLOAD DUP2 LT PUSH2 0x23DD JUMPI PUSH2 0x23DD PUSH2 0x4183 JUMP JUMPDEST PUSH1 0x20 MUL PUSH1 0x20 ADD ADD DUP2 DUP2 MSTORE POP POP PUSH2 0x24CF PUSH1 0x6 PUSH0 PUSH1 0x9 DUP5 DUP2 SLOAD DUP2 LT PUSH2 0x2402 JUMPI PUSH2 0x2402 PUSH2 0x4183 JUMP JUMPDEST PUSH0 SWAP2 DUP3 MSTORE PUSH1 0x20 DUP1 DUP4 KECCAK256 SWAP1 SWAP2 ADD SLOAD DUP4 MSTORE DUP3 DUP2 ADD SWAP4 SWAP1 SWAP4 MSTORE PUSH1 0x40 SWAP2 DUP3 ADD SWAP1 KECCAK256 DUP2 MLOAD PUSH2 0x1A0 DUP2 ADD DUP4 MSTORE DUP2 SLOAD DUP2 MSTORE PUSH1 0x1 DUP3 ADD SLOAD SWAP4 DUP2 ADD SWAP4 SWAP1 SWAP4 MSTORE PUSH1 0x2 DUP2 ADD SLOAD PUSH1 0x1 PUSH1 0x1 PUSH1 0xA0 SHL SUB SWAP1 DUP2 AND SWAP3 DUP5 ADD SWAP3 SWAP1 SWAP3 MSTORE PUSH1 0x3 DUP2 ADD SLOAD DUP3 AND PUSH1 0x60 DUP5 ADD MSTORE PUSH1 0x4 DUP2 ADD SLOAD SWAP1 SWAP2 AND PUSH1 0x80 DUP4 ADD MSTORE PUSH1 0x5 DUP2 ADD SLOAD PUSH1 0xA0 DUP4 ADD MSTORE PUSH1 0x6 DUP2 ADD SLOAD PUSH1 0xC0 DUP4 ADD MSTORE PUSH1 0x7 DUP2 ADD SLOAD PUSH1 0xE0 DUP4 ADD MSTORE PUSH1 0x8 DUP2 ADD SLOAD PUSH2 0x100 DUP1 DUP5 ADD SWAP2 SWAP1 SWAP2 MSTORE PUSH1 0x9 DUP3 ADD SLOAD PUSH2 0x120 DUP5 ADD MSTORE PUSH1 0xA DUP3 ADD SLOAD PUSH2 0x140 DUP5 ADD MSTORE PUSH1 0xB SWAP1 SWAP2 ADD SLOAD PUSH1 0xFF DUP1 DUP3 AND ISZERO ISZERO PUSH2 0x160 DUP6 ADD MSTORE SWAP2 SWAP1 DIV AND ISZERO ISZERO PUSH2 0x180 DUP3 ADD MSTORE PUSH2 0x36A5 JUMP JUMPDEST DUP6 DUP4 DUP2 MLOAD DUP2 LT PUSH2 0x24E1 JUMPI PUSH2 0x24E1 PUSH2 0x4183 JUMP JUMPDEST PUSH1 0x20 MUL PUSH1 0x20 ADD ADD DUP2 DUP2 MSTORE POP POP PUSH1 0x6 PUSH0 PUSH1 0x9 DUP4 DUP2 SLOAD DUP2 LT PUSH2 0x2503 JUMPI PUSH2 0x2503 PUSH2 0x4183 JUMP JUMPDEST SWAP1 PUSH0 MSTORE PUSH1 0x20 PUSH0 KECCAK256 ADD SLOAD DUP2 MSTORE PUSH1 0x20 ADD SWAP1 DUP2 MSTORE PUSH1 0x20 ADD PUSH0 KECCAK256 PUSH1 0xB ADD PUSH0 SWAP1 SLOAD SWAP1 PUSH2 0x100 EXP SWAP1 DIV PUSH1 0xFF AND DUP5 DUP4 DUP2 MLOAD DUP2 LT PUSH2 0x253B JUMPI PUSH2 0x253B PUSH2 0x4183 JUMP JUMPDEST SWAP2 ISZERO ISZERO PUSH1 0x20 SWAP3 DUP4 MUL SWAP2 SWAP1 SWAP2 ADD SWAP1 SWAP2 ADD MSTORE DUP2 PUSH2 0x2555 DUP2 PUSH2 0x4247 JUMP JUMPDEST SWAP3 POP POP JUMPDEST PUSH1 0x1 ADD PUSH2 0x2359 JUMP JUMPDEST POP POP POP SWAP2 SWAP4 SWAP1 SWAP3 POP JUMP JUMPDEST PUSH0 PUSH2 0x2575 DUP2 PUSH2 0x3457 JUMP JUMPDEST PUSH1 0x1 PUSH1 0x1 PUSH1 0xA0 SHL SUB DUP3 AND PUSH0 SWAP1 DUP2 MSTORE PUSH1 0x2 PUSH1 0x20 MSTORE PUSH1 0x40 SWAP1 KECCAK256 SLOAD PUSH1 0xFF AND ISZERO PUSH2 0x25D7 JUMPI PUSH1 0x40 MLOAD PUSH3 0x461BCD PUSH1 0xE5 SHL DUP2 MSTORE PUSH1 0x20 PUSH1 0x4 DUP3 ADD MSTORE PUSH1 0x17 PUSH1 0x24 DUP3 ADD MSTORE PUSH23 0x151BDAD95B88185B1C9958591E481CDD5C1C1BDC9D1959 PUSH1 0x4A SHL PUSH1 0x44 DUP3 ADD MSTORE PUSH1 0x64 ADD PUSH2 0xED6 JUMP JUMPDEST PUSH1 0x1 PUSH1 0x1 PUSH1 0xA0 SHL SUB DUP3 AND PUSH0 DUP2 DUP2 MSTORE PUSH1 0x2 PUSH1 0x20 SWAP1 DUP2 MSTORE PUSH1 0x40 SWAP2 DUP3 SWAP1 KECCAK256 DUP1 SLOAD PUSH1 0xFF NOT AND PUSH1 0x1 OR SWAP1 SSTORE SWAP1 MLOAD SWAP2 DUP3 MSTORE PUSH32 0xA4EF42C8F3F478286602411DD6C174EFD807BDBF5FDBDB6398001A39CBE7F3FA SWAP2 ADD PUSH2 0xF2B JUMP JUMPDEST PUSH32 0x183175B7B980894E2EA4C7EF510CF97A6819A85EE72E9E5B0186E21C7DB90E84 PUSH2 0x2654 DUP2 PUSH2 0x3457 JUMP JUMPDEST PUSH1 0x1 PUSH1 0x1 PUSH1 0xA0 SHL SUB DUP1 DUP5 AND PUSH0 SWAP1 DUP2 MSTORE PUSH1 0x3 PUSH1 0x20 SWAP1 DUP2 MSTORE PUSH1 0x40 DUP1 DUP4 KECCAK256 SWAP4 DUP7 AND DUP4 MSTORE SWAP3 SWAP1 MSTORE KECCAK256 SLOAD DUP1 ISZERO PUSH2 0xBCB JUMPI PUSH1 0x40 MLOAD PUSH4 0xA9059CBB PUSH1 0xE0 SHL DUP2 MSTORE PUSH1 0x1 PUSH1 0x1 PUSH1 0xA0 SHL SUB DUP6 DUP2 AND PUSH1 0x4 DUP4 ADD MSTORE PUSH1 0x24 DUP3 ADD DUP4 SWAP1 MSTORE DUP5 AND SWAP1 PUSH4 0xA9059CBB SWAP1 PUSH1 0x44 ADD PUSH1 0x20 PUSH1 0x40 MLOAD DUP1 DUP4 SUB DUP2 PUSH0 DUP8 GAS CALL ISZERO DUP1 ISZERO PUSH2 0x26CB JUMPI RETURNDATASIZE PUSH0 DUP1 RETURNDATACOPY RETURNDATASIZE PUSH0 REVERT JUMPDEST POP POP POP POP PUSH1 0x40 MLOAD RETURNDATASIZE PUSH1 0x1F NOT PUSH1 0x1F DUP3 ADD AND DUP3 ADD DUP1 PUSH1 0x40 MSTORE POP DUP2 ADD SWAP1 PUSH2 0x26EF SWAP2 SWAP1 PUSH2 0x4219 JUMP JUMPDEST POP PUSH1 0x1 PUSH1 0x1 PUSH1 0xA0 SHL SUB DUP5 DUP2 AND PUSH0 DUP2 DUP2 MSTORE PUSH1 0x3 PUSH1 0x20 SWAP1 DUP2 MSTORE PUSH1 0x40 DUP1 DUP4 KECCAK256 SWAP5 DUP9 AND DUP1 DUP5 MSTORE SWAP5 DUP3 MSTORE DUP1 DUP4 KECCAK256 SWAP3 SWAP1 SWAP3 SSTORE SWAP1 MLOAD DUP5 DUP2 MSTORE PUSH32 0x1B89874203FF7F0BBA87C969ADA3F32FDA22ED38A6706D35199D21280C7811B1 SWAP2 ADD PUSH2 0x10FB JUMP JUMPDEST PUSH0 DUP3 DUP2 MSTORE PUSH1 0x20 DUP2 SWAP1 MSTORE PUSH1 0x40 SWAP1 KECCAK256 PUSH1 0x1 ADD SLOAD PUSH2 0x2762 DUP2 PUSH2 0x3457 JUMP JUMPDEST PUSH2 0xBCB DUP4 DUP4 PUSH2 0x34F0 JUMP JUMPDEST PUSH2 0x2774 PUSH2 0x377D JUMP JUMPDEST PUSH0 DUP2 DUP2 MSTORE PUSH1 0x6 PUSH1 0x20 SWAP1 DUP2 MSTORE PUSH1 0x40 DUP1 DUP4 KECCAK256 PUSH1 0x4 DUP1 DUP3 ADD SLOAD DUP4 MLOAD PUSH4 0x313CE567 PUSH1 0xE0 SHL DUP2 MSTORE SWAP4 MLOAD SWAP3 SWAP6 SWAP5 PUSH1 0x1 PUSH1 0x1 PUSH1 0xA0 SHL SUB SWAP1 SWAP2 AND SWAP4 PUSH4 0x313CE567 SWAP4 DUP2 DUP5 ADD SWAP4 SWAP1 SWAP2 DUP3 SWAP1 SUB ADD DUP2 DUP7 GAS STATICCALL ISZERO DUP1 ISZERO PUSH2 0x27CA JUMPI RETURNDATASIZE PUSH0 DUP1 RETURNDATACOPY RETURNDATASIZE PUSH0 REVERT JUMPDEST POP POP POP POP PUSH1 0x40 MLOAD RETURNDATASIZE PUSH1 0x1F NOT PUSH1 0x1F DUP3 ADD AND DUP3 ADD DUP1 PUSH1 0x40 MSTORE POP DUP2 ADD SWAP1 PUSH2 0x27EE SWAP2 SWAP1 PUSH2 0x4273 JUMP JUMPDEST SWAP1 POP PUSH0 DUP3 PUSH1 0x3 ADD PUSH0 SWAP1 SLOAD SWAP1 PUSH2 0x100 EXP SWAP1 DIV PUSH1 0x1 PUSH1 0x1 PUSH1 0xA0 SHL SUB AND PUSH1 0x1 PUSH1 0x1 PUSH1 0xA0 SHL SUB AND PUSH4 0x313CE567 PUSH1 0x40 MLOAD DUP2 PUSH4 0xFFFFFFFF AND PUSH1 0xE0 SHL DUP2 MSTORE PUSH1 0x4 ADD PUSH1 0x20 PUSH1 0x40 MLOAD DUP1 DUP4 SUB DUP2 DUP7 GAS STATICCALL ISZERO DUP1 ISZERO PUSH2 0x2843 JUMPI RETURNDATASIZE PUSH0 DUP1 RETURNDATACOPY RETURNDATASIZE PUSH0 REVERT JUMPDEST POP POP POP POP PUSH1 0x40 MLOAD RETURNDATASIZE PUSH1 0x1F NOT PUSH1 0x1F DUP3 ADD AND DUP3 ADD DUP1 PUSH1 0x40 MSTORE POP DUP2 ADD SWAP1 PUSH2 0x2867 SWAP2 SWAP1 PUSH2 0x4273 JUMP JUMPDEST PUSH1 0x40 DUP1 MLOAD PUSH2 0x1A0 DUP2 ADD DUP3 MSTORE DUP6 SLOAD DUP2 MSTORE PUSH1 0x1 DUP7 ADD SLOAD PUSH1 0x20 DUP3 ADD MSTORE PUSH1 0x2 DUP7 ADD SLOAD PUSH1 0x1 PUSH1 0x1 PUSH1 0xA0 SHL SUB SWAP1 DUP2 AND SWAP3 DUP3 ADD SWAP3 SWAP1 SWAP3 MSTORE PUSH1 0x3 DUP7 ADD SLOAD DUP3 AND PUSH1 0x60 DUP3 ADD MSTORE PUSH1 0x4 DUP7 ADD SLOAD SWAP1 SWAP2 AND PUSH1 0x80 DUP3 ADD MSTORE PUSH1 0x5 DUP6 ADD SLOAD PUSH1 0xA0 DUP3 ADD MSTORE PUSH1 0x6 DUP6 ADD SLOAD PUSH1 0xC0 DUP3 ADD MSTORE PUSH1 0x7 DUP6 ADD SLOAD PUSH1 0xE0 DUP3 ADD MSTORE PUSH1 0x8 DUP6 ADD SLOAD PUSH2 0x100 DUP1 DUP4 ADD SWAP2 SWAP1 SWAP2 MSTORE PUSH1 0x9 DUP7 ADD SLOAD PUSH2 0x120 DUP4 ADD MSTORE PUSH1 0xA DUP7 ADD SLOAD PUSH2 0x140 DUP4 ADD MSTORE PUSH1 0xB DUP7 ADD SLOAD PUSH1 0xFF DUP1 DUP3 AND ISZERO ISZERO PUSH2 0x160 DUP6 ADD MSTORE SWAP2 SWAP1 DIV AND ISZERO ISZERO PUSH2 0x180 DUP3 ADD MSTORE SWAP1 SWAP2 POP PUSH0 SWAP1 PUSH2 0x291F SWAP1 PUSH2 0x36A5 JUMP JUMPDEST PUSH1 0xB SLOAD SWAP1 SWAP2 POP PUSH0 SWAP1 PUSH2 0x2935 SWAP1 PUSH1 0xFF AND PUSH1 0xA PUSH2 0x4369 JUMP JUMPDEST PUSH2 0x293F SWAP1 DUP4 PUSH2 0x438B JUMP JUMPDEST PUSH1 0xB SLOAD SWAP1 SWAP2 POP PUSH0 SWAP1 PUSH2 0x2955 SWAP1 PUSH1 0xFF AND PUSH1 0x12 PUSH2 0x439E JUMP JUMPDEST PUSH2 0x2960 SWAP1 PUSH1 0xA PUSH2 0x4369 JUMP JUMPDEST DUP3 DUP8 PUSH1 0x6 ADD SLOAD PUSH2 0x2970 SWAP2 SWAP1 PUSH2 0x41AB JUMP JUMPDEST PUSH2 0x297A SWAP2 SWAP1 PUSH2 0x438B JUMP JUMPDEST PUSH1 0xB DUP8 ADD SLOAD SWAP1 SWAP2 POP PUSH2 0x100 SWAP1 DIV PUSH1 0xFF AND PUSH2 0x29C9 JUMPI PUSH1 0x40 MLOAD PUSH3 0x461BCD PUSH1 0xE5 SHL DUP2 MSTORE PUSH1 0x20 PUSH1 0x4 DUP3 ADD MSTORE PUSH1 0x10 PUSH1 0x24 DUP3 ADD MSTORE PUSH16 0x41756374696F6E20696E616374697665 PUSH1 0x80 SHL PUSH1 0x44 DUP3 ADD MSTORE PUSH1 0x64 ADD PUSH2 0xED6 JUMP JUMPDEST PUSH1 0xB DUP7 ADD SLOAD PUSH1 0xFF AND ISZERO PUSH2 0x2A13 JUMPI PUSH1 0x40 MLOAD PUSH3 0x461BCD PUSH1 0xE5 SHL DUP2 MSTORE PUSH1 0x20 PUSH1 0x4 DUP3 ADD MSTORE PUSH1 0x12 PUSH1 0x24 DUP3 ADD MSTORE PUSH18 0x2737BA10309039B2B6361030BAB1BA34B7B7 PUSH1 0x71 SHL PUSH1 0x44 DUP3 ADD MSTORE PUSH1 0x64 ADD PUSH2 0xED6 JUMP JUMPDEST PUSH1 0x1 SLOAD PUSH2 0x100 SWAP1 DIV PUSH1 0x1 PUSH1 0x1 PUSH1 0xA0 SHL SUB AND PUSH4 0x79CC6790 CALLER PUSH2 0x2A36 DUP5 PUSH1 0x12 DUP11 PUSH2 0x37A3 JUMP JUMPDEST PUSH1 0x40 MLOAD PUSH1 0x1 PUSH1 0x1 PUSH1 0xE0 SHL SUB NOT PUSH1 0xE0 DUP6 SWAP1 SHL AND DUP2 MSTORE PUSH1 0x1 PUSH1 0x1 PUSH1 0xA0 SHL SUB SWAP1 SWAP3 AND PUSH1 0x4 DUP4 ADD MSTORE PUSH1 0x24 DUP3 ADD MSTORE PUSH1 0x44 ADD PUSH0 PUSH1 0x40 MLOAD DUP1 DUP4 SUB DUP2 PUSH0 DUP8 DUP1 EXTCODESIZE ISZERO DUP1 ISZERO PUSH2 0x2A79 JUMPI PUSH0 DUP1 REVERT JUMPDEST POP GAS CALL ISZERO DUP1 ISZERO PUSH2 0x2A8B JUMPI RETURNDATASIZE PUSH0 DUP1 RETURNDATACOPY RETURNDATASIZE PUSH0 REVERT JUMPDEST POP POP POP PUSH1 0x3 DUP8 ADD SLOAD PUSH1 0x6 DUP9 ADD SLOAD PUSH1 0x1 PUSH1 0x1 PUSH1 0xA0 SHL SUB SWAP1 SWAP2 AND SWAP2 POP PUSH4 0xA9059CBB SWAP1 CALLER SWAP1 PUSH2 0x2AB9 SWAP1 PUSH1 0x12 DUP10 PUSH2 0x3835 JUMP JUMPDEST PUSH1 0x40 MLOAD PUSH1 0x1 PUSH1 0x1 PUSH1 0xE0 SHL SUB NOT PUSH1 0xE0 DUP6 SWAP1 SHL AND DUP2 MSTORE PUSH1 0x1 PUSH1 0x1 PUSH1 0xA0 SHL SUB SWAP1 SWAP3 AND PUSH1 0x4 DUP4 ADD MSTORE PUSH1 0x24 DUP3 ADD MSTORE PUSH1 0x44 ADD PUSH1 0x20 PUSH1 0x40 MLOAD DUP1 DUP4 SUB DUP2 PUSH0 DUP8 GAS CALL ISZERO DUP1 ISZERO PUSH2 0x2B01 JUMPI RETURNDATASIZE PUSH0 DUP1 RETURNDATACOPY RETURNDATASIZE PUSH0 REVERT JUMPDEST POP POP POP POP PUSH1 0x40 MLOAD RETURNDATASIZE PUSH1 0x1F NOT PUSH1 0x1F DUP3 ADD AND DUP3 ADD DUP1 PUSH1 0x40 MSTORE POP DUP2 ADD SWAP1 PUSH2 0x2B25 SWAP2 SWAP1 PUSH2 0x4219 JUMP JUMPDEST PUSH2 0x2B69 JUMPI PUSH1 0x40 MLOAD PUSH3 0x461BCD PUSH1 0xE5 SHL DUP2 MSTORE PUSH1 0x20 PUSH1 0x4 DUP3 ADD MSTORE PUSH1 0x15 PUSH1 0x24 DUP3 ADD MSTORE PUSH21 0x151BDAD95B881D1C985B9CD9995C8819985A5B1959 PUSH1 0x5A SHL PUSH1 0x44 DUP3 ADD MSTORE PUSH1 0x64 ADD PUSH2 0xED6 JUMP JUMPDEST PUSH1 0xB DUP7 ADD DUP1 SLOAD PUSH2 0xFF00 NOT AND SWAP1 SSTORE PUSH1 0x6 DUP7 ADD SLOAD PUSH1 0x2 DUP8 ADD SLOAD PUSH1 0x1 PUSH1 0x1 PUSH1 0xA0 SHL SUB SWAP1 DUP2 AND PUSH0 SWAP1 DUP2 MSTORE PUSH1 0x3 PUSH1 0x20 DUP2 DUP2 MSTORE PUSH1 0x40 DUP1 DUP5 KECCAK256 SWAP3 DUP13 ADD SLOAD SWAP1 SWAP5 AND DUP4 MSTORE MSTORE SWAP1 DUP2 KECCAK256 DUP1 SLOAD SWAP1 SWAP2 SWAP1 PUSH2 0x2BB8 SWAP1 DUP5 SWAP1 PUSH2 0x41C2 JUMP JUMPDEST SWAP1 SWAP2 SSTORE POP PUSH2 0x2BC7 SWAP1 POP DUP8 PUSH2 0x35E6 JUMP JUMPDEST PUSH1 0x2 DUP7 ADD SLOAD PUSH1 0x3 DUP8 ADD SLOAD PUSH1 0x4 DUP9 ADD SLOAD PUSH1 0x6 DUP10 ADD SLOAD PUSH1 0xB DUP11 ADD SLOAD PUSH1 0x40 MLOAD PUSH1 0x1 PUSH1 0x1 PUSH1 0xA0 SHL SUB SWAP6 DUP7 AND SWAP6 DUP14 SWAP6 PUSH32 0x73BA522FD2DDAB6D4EF64D235BBE388E2C2CADFB833E7004ACBC67A7F4CBAFAF SWAP6 PUSH2 0x2C31 SWAP6 CALLER SWAP6 SWAP3 DUP5 AND SWAP5 SWAP4 SWAP1 SWAP2 AND SWAP3 DUP11 SWAP3 DUP14 SWAP2 TIMESTAMP SWAP2 PUSH1 0xFF AND SWAP1 PUSH2 0x43B7 JUMP JUMPDEST PUSH1 0x40 MLOAD DUP1 SWAP2 SUB SWAP1 LOG3 POP POP POP POP POP POP POP JUMP JUMPDEST PUSH1 0x60 DUP1 PUSH0 PUSH2 0x2C50 DUP5 DUP7 PUSH2 0x41AB JUMP JUMPDEST SWAP1 POP PUSH0 PUSH2 0x2C5D DUP6 DUP4 PUSH2 0x4234 JUMP JUMPDEST PUSH1 0x5 SLOAD SWAP1 SWAP2 POP DUP2 GT ISZERO PUSH2 0x2C6F JUMPI POP PUSH1 0x5 SLOAD JUMPDEST PUSH0 DUP3 JUMPDEST DUP3 DUP2 LT ISZERO PUSH2 0x2CE8 JUMPI PUSH1 0x1 PUSH1 0x1 PUSH1 0xA0 SHL SUB DUP10 AND PUSH0 SWAP1 DUP2 MSTORE PUSH1 0x3 PUSH1 0x20 MSTORE PUSH1 0x40 DUP2 KECCAK256 PUSH1 0x5 DUP1 SLOAD DUP4 SWAP2 SWAP1 DUP6 SWAP1 DUP2 LT PUSH2 0x2CA8 JUMPI PUSH2 0x2CA8 PUSH2 0x4183 JUMP JUMPDEST PUSH0 SWAP2 DUP3 MSTORE PUSH1 0x20 DUP1 DUP4 KECCAK256 SWAP1 SWAP2 ADD SLOAD PUSH1 0x1 PUSH1 0x1 PUSH1 0xA0 SHL SUB AND DUP4 MSTORE DUP3 ADD SWAP3 SWAP1 SWAP3 MSTORE PUSH1 0x40 ADD SWAP1 KECCAK256 SLOAD GT ISZERO PUSH2 0x2CE0 JUMPI DUP2 PUSH2 0x2CDC DUP2 PUSH2 0x4247 JUMP JUMPDEST SWAP3 POP POP JUMPDEST PUSH1 0x1 ADD PUSH2 0x2C72 JUMP JUMPDEST POP DUP1 PUSH1 0x1 PUSH1 0x1 PUSH1 0x40 SHL SUB DUP2 GT ISZERO PUSH2 0x2D01 JUMPI PUSH2 0x2D01 PUSH2 0x39A1 JUMP JUMPDEST PUSH1 0x40 MLOAD SWAP1 DUP1 DUP3 MSTORE DUP1 PUSH1 0x20 MUL PUSH1 0x20 ADD DUP3 ADD PUSH1 0x40 MSTORE DUP1 ISZERO PUSH2 0x2D2A JUMPI DUP2 PUSH1 0x20 ADD PUSH1 0x20 DUP3 MUL DUP1 CALLDATASIZE DUP4 CALLDATACOPY ADD SWAP1 POP JUMPDEST POP SWAP5 POP DUP1 PUSH1 0x1 PUSH1 0x1 PUSH1 0x40 SHL SUB DUP2 GT ISZERO PUSH2 0x2D45 JUMPI PUSH2 0x2D45 PUSH2 0x39A1 JUMP JUMPDEST PUSH1 0x40 MLOAD SWAP1 DUP1 DUP3 MSTORE DUP1 PUSH1 0x20 MUL PUSH1 0x20 ADD DUP3 ADD PUSH1 0x40 MSTORE DUP1 ISZERO PUSH2 0x2D6E JUMPI DUP2 PUSH1 0x20 ADD PUSH1 0x20 DUP3 MUL DUP1 CALLDATASIZE DUP4 CALLDATACOPY ADD SWAP1 POP JUMPDEST POP SWAP4 POP PUSH0 DUP4 JUMPDEST DUP4 DUP2 LT ISZERO PUSH2 0x2E6B JUMPI PUSH1 0x1 PUSH1 0x1 PUSH1 0xA0 SHL SUB DUP11 AND PUSH0 SWAP1 DUP2 MSTORE PUSH1 0x3 PUSH1 0x20 MSTORE PUSH1 0x40 DUP2 KECCAK256 PUSH1 0x5 DUP1 SLOAD DUP4 SWAP2 SWAP1 DUP6 SWAP1 DUP2 LT PUSH2 0x2DAA JUMPI PUSH2 0x2DAA PUSH2 0x4183 JUMP JUMPDEST PUSH0 SWAP2 DUP3 MSTORE PUSH1 0x20 DUP1 DUP4 KECCAK256 SWAP1 SWAP2 ADD SLOAD PUSH1 0x1 PUSH1 0x1 PUSH1 0xA0 SHL SUB AND DUP4 MSTORE DUP3 ADD SWAP3 SWAP1 SWAP3 MSTORE PUSH1 0x40 ADD SWAP1 KECCAK256 SLOAD SWAP1 POP DUP1 ISZERO PUSH2 0x2E62 JUMPI PUSH1 0x5 DUP3 DUP2 SLOAD DUP2 LT PUSH2 0x2DE9 JUMPI PUSH2 0x2DE9 PUSH2 0x4183 JUMP JUMPDEST SWAP1 PUSH0 MSTORE PUSH1 0x20 PUSH0 KECCAK256 ADD PUSH0 SWAP1 SLOAD SWAP1 PUSH2 0x100 EXP SWAP1 DIV PUSH1 0x1 PUSH1 0x1 PUSH1 0xA0 SHL SUB AND DUP9 DUP5 DUP2 MLOAD DUP2 LT PUSH2 0x2E16 JUMPI PUSH2 0x2E16 PUSH2 0x4183 JUMP JUMPDEST PUSH1 0x20 MUL PUSH1 0x20 ADD ADD SWAP1 PUSH1 0x1 PUSH1 0x1 PUSH1 0xA0 SHL SUB AND SWAP1 DUP2 PUSH1 0x1 PUSH1 0x1 PUSH1 0xA0 SHL SUB AND DUP2 MSTORE POP POP DUP1 DUP8 DUP5 DUP2 MLOAD DUP2 LT PUSH2 0x2E49 JUMPI PUSH2 0x2E49 PUSH2 0x4183 JUMP JUMPDEST PUSH1 0x20 SWAP1 DUP2 MUL SWAP2 SWAP1 SWAP2 ADD ADD MSTORE DUP3 PUSH2 0x2E5E DUP2 PUSH2 0x4247 JUMP JUMPDEST SWAP4 POP POP JUMPDEST POP PUSH1 0x1 ADD PUSH2 0x2D74 JUMP JUMPDEST POP POP POP POP POP JUMPDEST SWAP4 POP SWAP4 SWAP2 POP POP JUMP JUMPDEST PUSH2 0x2E81 PUSH2 0x38E9 JUMP JUMPDEST POP PUSH0 SWAP1 DUP2 MSTORE PUSH1 0x6 PUSH1 0x20 DUP2 DUP2 MSTORE PUSH1 0x40 SWAP3 DUP4 SWAP1 KECCAK256 DUP4 MLOAD PUSH2 0x1A0 DUP2 ADD DUP6 MSTORE DUP2 SLOAD DUP2 MSTORE PUSH1 0x1 DUP3 ADD SLOAD SWAP3 DUP2 ADD SWAP3 SWAP1 SWAP3 MSTORE PUSH1 0x2 DUP2 ADD SLOAD PUSH1 0x1 PUSH1 0x1 PUSH1 0xA0 SHL SUB SWAP1 DUP2 AND SWAP5 DUP4 ADD SWAP5 SWAP1 SWAP5 MSTORE PUSH1 0x3 DUP2 ADD SLOAD DUP5 AND PUSH1 0x60 DUP4 ADD MSTORE PUSH1 0x4 DUP2 ADD SLOAD SWAP1 SWAP4 AND PUSH1 0x80 DUP3 ADD MSTORE PUSH1 0x5 DUP4 ADD SLOAD PUSH1 0xA0 DUP3 ADD MSTORE SWAP1 DUP3 ADD SLOAD PUSH1 0xC0 DUP3 ADD MSTORE PUSH1 0x7 DUP3 ADD SLOAD PUSH1 0xE0 DUP3 ADD MSTORE PUSH1 0x8 DUP3 ADD SLOAD PUSH2 0x100 DUP1 DUP4 ADD SWAP2 SWAP1 SWAP2 MSTORE PUSH1 0x9 DUP4 ADD SLOAD PUSH2 0x120 DUP4 ADD MSTORE PUSH1 0xA DUP4 ADD SLOAD PUSH2 0x140 DUP4 ADD MSTORE PUSH1 0xB SWAP1 SWAP3 ADD SLOAD PUSH1 0xFF DUP1 DUP3 AND ISZERO ISZERO PUSH2 0x160 DUP5 ADD MSTORE SWAP3 SWAP1 DIV SWAP1 SWAP2 AND ISZERO ISZERO PUSH2 0x180 DUP3 ADD MSTORE SWAP1 JUMP JUMPDEST PUSH0 PUSH2 0x2F4C DUP2 PUSH2 0x3457 JUMP JUMPDEST PUSH1 0xB DUP1 SLOAD PUSH2 0xFF00 NOT AND PUSH2 0x100 OR SWAP1 SSTORE PUSH1 0x40 MLOAD PUSH32 0xA539F23CEECABCBF9482932C0FC64F5782F3EFD5924BF426A79C78C1F08B4D6F SWAP1 PUSH0 SWAP1 LOG1 POP JUMP JUMPDEST PUSH2 0x2F8E PUSH2 0x377D JUMP JUMPDEST PUSH0 DUP2 DUP2 MSTORE PUSH1 0x6 PUSH1 0x20 SWAP1 DUP2 MSTORE PUSH1 0x40 DUP1 DUP4 KECCAK256 PUSH1 0x4 DUP1 DUP3 ADD SLOAD DUP4 MLOAD PUSH4 0x313CE567 PUSH1 0xE0 SHL DUP2 MSTORE SWAP4 MLOAD SWAP3 SWAP6 SWAP5 PUSH1 0x1 PUSH1 0x1 PUSH1 0xA0 SHL SUB SWAP1 SWAP2 AND SWAP4 PUSH4 0x313CE567 SWAP4 DUP2 DUP5 ADD SWAP4 SWAP1 SWAP2 DUP3 SWAP1 SUB ADD DUP2 DUP7 GAS STATICCALL ISZERO DUP1 ISZERO PUSH2 0x2FE4 JUMPI RETURNDATASIZE PUSH0 DUP1 RETURNDATACOPY RETURNDATASIZE PUSH0 REVERT JUMPDEST POP POP POP POP PUSH1 0x40 MLOAD RETURNDATASIZE PUSH1 0x1F NOT PUSH1 0x1F DUP3 ADD AND DUP3 ADD DUP1 PUSH1 0x40 MSTORE POP DUP2 ADD SWAP1 PUSH2 0x3008 SWAP2 SWAP1 PUSH2 0x4273 JUMP JUMPDEST SWAP1 POP PUSH0 DUP3 PUSH1 0x3 ADD PUSH0 SWAP1 SLOAD SWAP1 PUSH2 0x100 EXP SWAP1 DIV PUSH1 0x1 PUSH1 0x1 PUSH1 0xA0 SHL SUB AND PUSH1 0x1 PUSH1 0x1 PUSH1 0xA0 SHL SUB AND PUSH4 0x313CE567 PUSH1 0x40 MLOAD DUP2 PUSH4 0xFFFFFFFF AND PUSH1 0xE0 SHL DUP2 MSTORE PUSH1 0x4 ADD PUSH1 0x20 PUSH1 0x40 MLOAD DUP1 DUP4 SUB DUP2 DUP7 GAS STATICCALL ISZERO DUP1 ISZERO PUSH2 0x305D JUMPI RETURNDATASIZE PUSH0 DUP1 RETURNDATACOPY RETURNDATASIZE PUSH0 REVERT JUMPDEST POP POP POP POP PUSH1 0x40 MLOAD RETURNDATASIZE PUSH1 0x1F NOT PUSH1 0x1F DUP3 ADD AND DUP3 ADD DUP1 PUSH1 0x40 MSTORE POP DUP2 ADD SWAP1 PUSH2 0x3081 SWAP2 SWAP1 PUSH2 0x4273 JUMP JUMPDEST PUSH1 0x40 DUP1 MLOAD PUSH2 0x1A0 DUP2 ADD DUP3 MSTORE DUP6 SLOAD DUP2 MSTORE PUSH1 0x1 DUP7 ADD SLOAD PUSH1 0x20 DUP3 ADD MSTORE PUSH1 0x2 DUP7 ADD SLOAD PUSH1 0x1 PUSH1 0x1 PUSH1 0xA0 SHL SUB SWAP1 DUP2 AND SWAP3 DUP3 ADD SWAP3 SWAP1 SWAP3 MSTORE PUSH1 0x3 DUP7 ADD SLOAD DUP3 AND PUSH1 0x60 DUP3 ADD MSTORE PUSH1 0x4 DUP7 ADD SLOAD SWAP1 SWAP2 AND PUSH1 0x80 DUP3 ADD MSTORE PUSH1 0x5 DUP6 ADD SLOAD PUSH1 0xA0 DUP3 ADD MSTORE PUSH1 0x6 DUP6 ADD SLOAD PUSH1 0xC0 DUP3 ADD MSTORE PUSH1 0x7 DUP6 ADD SLOAD PUSH1 0xE0 DUP3 ADD MSTORE PUSH1 0x8 DUP6 ADD SLOAD PUSH2 0x100 DUP1 DUP4 ADD SWAP2 SWAP1 SWAP2 MSTORE PUSH1 0x9 DUP7 ADD SLOAD PUSH2 0x120 DUP4 ADD MSTORE PUSH1 0xA DUP7 ADD SLOAD PUSH2 0x140 DUP4 ADD MSTORE PUSH1 0xB DUP7 ADD SLOAD PUSH1 0xFF DUP1 DUP3 AND ISZERO ISZERO PUSH2 0x160 DUP6 ADD MSTORE SWAP2 SWAP1 DIV AND ISZERO ISZERO PUSH2 0x180 DUP3 ADD MSTORE SWAP1 SWAP2 POP PUSH0 SWAP1 PUSH2 0x3139 SWAP1 PUSH2 0x36A5 JUMP JUMPDEST PUSH1 0xB SLOAD SWAP1 SWAP2 POP PUSH0 SWAP1 PUSH2 0x314F SWAP1 PUSH1 0xFF AND PUSH1 0xA PUSH2 0x4369 JUMP JUMPDEST PUSH2 0x3159 SWAP1 DUP4 PUSH2 0x438B JUMP JUMPDEST PUSH1 0xB SLOAD SWAP1 SWAP2 POP PUSH0 SWAP1 DUP3 SWAP1 PUSH2 0x3171 SWAP1 PUSH1 0xFF AND PUSH1 0x12 PUSH2 0x439E JUMP JUMPDEST PUSH2 0x317C SWAP1 PUSH1 0xA PUSH2 0x4369 JUMP JUMPDEST DUP8 PUSH1 0x5 ADD SLOAD PUSH2 0x318B SWAP2 SWAP1 PUSH2 0x41AB JUMP JUMPDEST PUSH2 0x3195 SWAP2 SWAP1 PUSH2 0x438B JUMP JUMPDEST PUSH1 0xB DUP8 ADD SLOAD SWAP1 SWAP2 POP PUSH2 0x100 SWAP1 DIV PUSH1 0xFF AND PUSH2 0x31E4 JUMPI PUSH1 0x40 MLOAD PUSH3 0x461BCD PUSH1 0xE5 SHL DUP2 MSTORE PUSH1 0x20 PUSH1 0x4 DUP3 ADD MSTORE PUSH1 0x10 PUSH1 0x24 DUP3 ADD MSTORE PUSH16 0x41756374696F6E20696E616374697665 PUSH1 0x80 SHL PUSH1 0x44 DUP3 ADD MSTORE PUSH1 0x64 ADD PUSH2 0xED6 JUMP JUMPDEST PUSH1 0xB DUP7 ADD SLOAD PUSH1 0xFF AND PUSH2 0x322C JUMPI PUSH1 0x40 MLOAD PUSH3 0x461BCD PUSH1 0xE5 SHL DUP2 MSTORE PUSH1 0x20 PUSH1 0x4 DUP3 ADD MSTORE PUSH1 0x11 PUSH1 0x24 DUP3 ADD MSTORE PUSH17 0x2737BA103090313ABC9030BAB1BA34B7B7 PUSH1 0x79 SHL PUSH1 0x44 DUP3 ADD MSTORE PUSH1 0x64 ADD PUSH2 0xED6 JUMP JUMPDEST PUSH1 0x3 DUP7 ADD SLOAD PUSH1 0x1 PUSH1 0x1 PUSH1 0xA0 SHL SUB AND PUSH4 0x23B872DD CALLER ADDRESS PUSH2 0x324D DUP6 PUSH1 0x12 DUP11 PUSH2 0x37A3 JUMP JUMPDEST PUSH1 0x40 MLOAD PUSH1 0x1 PUSH1 0x1 PUSH1 0xE0 SHL SUB NOT PUSH1 0xE0 DUP7 SWAP1 SHL AND DUP2 MSTORE PUSH1 0x1 PUSH1 0x1 PUSH1 0xA0 SHL SUB SWAP4 DUP5 AND PUSH1 0x4 DUP3 ADD MSTORE SWAP3 SWAP1 SWAP2 AND PUSH1 0x24 DUP4 ADD MSTORE PUSH1 0x44 DUP3 ADD MSTORE PUSH1 0x64 ADD PUSH1 0x20 PUSH1 0x40 MLOAD DUP1 DUP4 SUB DUP2 PUSH0 DUP8 GAS CALL ISZERO DUP1 ISZERO PUSH2 0x329E JUMPI RETURNDATASIZE PUSH0 DUP1 RETURNDATACOPY RETURNDATASIZE PUSH0 REVERT JUMPDEST POP POP POP POP PUSH1 0x40 MLOAD RETURNDATASIZE PUSH1 0x1F NOT PUSH1 0x1F DUP3 ADD AND DUP3 ADD DUP1 PUSH1 0x40 MSTORE POP DUP2 ADD SWAP1 PUSH2 0x32C2 SWAP2 SWAP1 PUSH2 0x4219 JUMP JUMPDEST PUSH2 0x3306 JUMPI PUSH1 0x40 MLOAD PUSH3 0x461BCD PUSH1 0xE5 SHL DUP2 MSTORE PUSH1 0x20 PUSH1 0x4 DUP3 ADD MSTORE PUSH1 0x15 PUSH1 0x24 DUP3 ADD MSTORE PUSH21 0x151BDAD95B881D1C985B9CD9995C8819985A5B1959 PUSH1 0x5A SHL PUSH1 0x44 DUP3 ADD MSTORE PUSH1 0x64 ADD PUSH2 0xED6 JUMP JUMPDEST PUSH1 0x1 DUP1 SLOAD SWAP1 PUSH2 0x100 EXP SWAP1 DIV PUSH1 0x1 PUSH1 0x1 PUSH1 0xA0 SHL SUB AND PUSH1 0x1 PUSH1 0x1 PUSH1 0xA0 SHL SUB AND PUSH4 0x40C10F19 CALLER PUSH2 0x3339 DUP10 PUSH1 0x5 ADD SLOAD PUSH1 0x12 DUP11 PUSH2 0x3835 JUMP JUMPDEST PUSH1 0x40 MLOAD PUSH1 0x1 PUSH1 0x1 PUSH1 0xE0 SHL SUB NOT PUSH1 0xE0 DUP6 SWAP1 SHL AND DUP2 MSTORE PUSH1 0x1 PUSH1 0x1 PUSH1 0xA0 SHL SUB SWAP1 SWAP3 AND PUSH1 0x4 DUP4 ADD MSTORE PUSH1 0x24 DUP3 ADD MSTORE PUSH1 0x44 ADD PUSH0 PUSH1 0x40 MLOAD DUP1 DUP4 SUB DUP2 PUSH0 DUP8 DUP1 EXTCODESIZE ISZERO DUP1 ISZERO PUSH2 0x337C JUMPI PUSH0 DUP1 REVERT JUMPDEST POP GAS CALL ISZERO DUP1 ISZERO PUSH2 0x338E JUMPI RETURNDATASIZE PUSH0 DUP1 RETURNDATACOPY RETURNDATASIZE PUSH0 REVERT JUMPDEST POP POP POP PUSH1 0xB DUP8 ADD DUP1 SLOAD PUSH2 0xFF00 NOT AND SWAP1 SSTORE POP PUSH2 0x33A8 DUP8 PUSH2 0x35E6 JUMP JUMPDEST PUSH1 0x2 DUP7 ADD SLOAD PUSH1 0x1 PUSH1 0x1 PUSH1 0xA0 SHL SUB SWAP1 DUP2 AND PUSH0 SWAP1 DUP2 MSTORE PUSH1 0x3 PUSH1 0x20 DUP2 DUP2 MSTORE PUSH1 0x40 DUP1 DUP5 KECCAK256 SWAP3 DUP12 ADD SLOAD SWAP1 SWAP5 AND DUP4 MSTORE MSTORE SWAP1 DUP2 KECCAK256 DUP1 SLOAD DUP4 SWAP3 SWAP1 PUSH2 0x33E5 SWAP1 DUP5 SWAP1 PUSH2 0x4234 JUMP JUMPDEST SWAP1 SWAP2 SSTORE POP POP PUSH1 0x2 DUP7 ADD SLOAD PUSH1 0x3 DUP8 ADD SLOAD PUSH1 0x4 DUP9 ADD SLOAD PUSH1 0x5 DUP10 ADD SLOAD PUSH1 0xB DUP11 ADD SLOAD PUSH1 0x40 MLOAD PUSH1 0x1 PUSH1 0x1 PUSH1 0xA0 SHL SUB SWAP6 DUP7 AND SWAP6 DUP14 SWAP6 PUSH32 0x73BA522FD2DDAB6D4EF64D235BBE388E2C2CADFB833E7004ACBC67A7F4CBAFAF SWAP6 PUSH2 0x2C31 SWAP6 CALLER SWAP6 SWAP3 DUP5 AND SWAP5 SWAP2 SWAP1 SWAP4 AND SWAP3 SWAP2 DUP11 SWAP2 DUP14 SWAP2 TIMESTAMP SWAP2 PUSH1 0xFF SWAP1 SWAP2 AND SWAP1 PUSH2 0x43B7 JUMP JUMPDEST PUSH2 0xE92 DUP2 CALLER PUSH2 0x3889 JUMP JUMPDEST PUSH0 PUSH2 0x346C DUP4 DUP4 PUSH2 0x1CFD JUMP JUMPDEST PUSH2 0x34E9 JUMPI PUSH0 DUP4 DUP2 MSTORE PUSH1 0x20 DUP2 DUP2 MSTORE PUSH1 0x40 DUP1 DUP4 KECCAK256 PUSH1 0x1 PUSH1 0x1 PUSH1 0xA0 SHL SUB DUP7 AND DUP5 MSTORE SWAP1 SWAP2 MSTORE SWAP1 KECCAK256 DUP1 SLOAD PUSH1 0xFF NOT AND PUSH1 0x1 OR SWAP1 SSTORE PUSH2 0x34A1 CALLER SWAP1 JUMP JUMPDEST PUSH1 0x1 PUSH1 0x1 PUSH1 0xA0 SHL SUB AND DUP3 PUSH1 0x1 PUSH1 0x1 PUSH1 0xA0 SHL SUB AND DUP5 PUSH32 0x2F8788117E7EFF1D82E926EC794901D17C78024A50270940304540A733656F0D PUSH1 0x40 MLOAD PUSH1 0x40 MLOAD DUP1 SWAP2 SUB SWAP1 LOG4 POP PUSH1 0x1 PUSH2 0xB09 JUMP JUMPDEST POP PUSH0 PUSH2 0xB09 JUMP JUMPDEST PUSH0 PUSH2 0x34FB DUP4 DUP4 PUSH2 0x1CFD JUMP JUMPDEST ISZERO PUSH2 0x34E9 JUMPI PUSH0 DUP4 DUP2 MSTORE PUSH1 0x20 DUP2 DUP2 MSTORE PUSH1 0x40 DUP1 DUP4 KECCAK256 PUSH1 0x1 PUSH1 0x1 PUSH1 0xA0 SHL SUB DUP7 AND DUP1 DUP6 MSTORE SWAP3 MSTORE DUP1 DUP4 KECCAK256 DUP1 SLOAD PUSH1 0xFF NOT AND SWAP1 SSTORE MLOAD CALLER SWAP3 DUP7 SWAP2 PUSH32 0xF6391F5C32D9C69D2A47EA670B442974B53935D1EDC7FD64EB21E047A839171B SWAP2 SWAP1 LOG4 POP PUSH1 0x1 PUSH2 0xB09 JUMP JUMPDEST PUSH2 0x3561 PUSH2 0x38C6 JUMP JUMPDEST PUSH1 0x1 DUP1 SLOAD PUSH1 0xFF NOT AND SWAP1 SSTORE PUSH32 0x5DB9EE0A495BF2E6FF9C91A7834C1BA4FDD244A5E8AA4E537BD38AEAE4B073AA CALLER JUMPDEST PUSH1 0x40 MLOAD PUSH1 0x1 PUSH1 0x1 PUSH1 0xA0 SHL SUB SWAP1 SWAP2 AND DUP2 MSTORE PUSH1 0x20 ADD PUSH1 0x40 MLOAD DUP1 SWAP2 SUB SWAP1 LOG1 JUMP JUMPDEST PUSH2 0x35B3 PUSH2 0x377D JUMP JUMPDEST PUSH1 0x1 DUP1 SLOAD PUSH1 0xFF NOT AND DUP2 OR SWAP1 SSTORE PUSH32 0x62E78CEA01BEE320CD4E420270B5EA74000D11B0C9F74754EBDBFC544B05A258 CALLER PUSH2 0x358E JUMP JUMPDEST PUSH0 DUP2 DUP2 MSTORE PUSH1 0x7 PUSH1 0x20 MSTORE PUSH1 0x40 DUP2 KECCAK256 SLOAD PUSH1 0x9 DUP1 SLOAD SWAP2 SWAP3 SWAP2 PUSH2 0x3607 SWAP1 PUSH1 0x1 SWAP1 PUSH2 0x41C2 JUMP JUMPDEST DUP2 SLOAD DUP2 LT PUSH2 0x3617 JUMPI PUSH2 0x3617 PUSH2 0x4183 JUMP JUMPDEST SWAP1 PUSH0 MSTORE PUSH1 0x20 PUSH0 KECCAK256 ADD SLOAD SWAP1 POP DUP1 PUSH1 0x9 DUP4 DUP2 SLOAD DUP2 LT PUSH2 0x3636 JUMPI PUSH2 0x3636 PUSH2 0x4183 JUMP JUMPDEST PUSH0 SWAP2 DUP3 MSTORE PUSH1 0x20 DUP1 DUP4 KECCAK256 SWAP1 SWAP2 ADD SWAP3 SWAP1 SWAP3 SSTORE DUP3 DUP2 MSTORE PUSH1 0x7 SWAP1 SWAP2 MSTORE PUSH1 0x40 SWAP1 KECCAK256 DUP3 SWAP1 SSTORE PUSH1 0x9 DUP1 SLOAD DUP1 PUSH2 0x3666 JUMPI PUSH2 0x3666 PUSH2 0x425F JUMP JUMPDEST PUSH0 DUP3 DUP2 MSTORE PUSH1 0x20 DUP1 DUP3 KECCAK256 DUP4 ADD PUSH0 NOT SWAP1 DUP2 ADD DUP4 SWAP1 SSTORE SWAP1 SWAP3 ADD SWAP1 SWAP3 SSTORE DUP5 DUP3 MSTORE PUSH1 0x7 SWAP1 MSTORE PUSH1 0x40 DUP2 KECCAK256 DUP2 SWAP1 SSTORE PUSH1 0xA DUP1 SLOAD SWAP2 PUSH2 0x369B DUP4 PUSH2 0x43FE JUMP JUMPDEST SWAP2 SWAP1 POP SSTORE POP POP POP POP JUMP JUMPDEST PUSH0 DUP1 DUP3 PUSH2 0x120 ADD MLOAD TIMESTAMP PUSH2 0x36B8 SWAP2 SWAP1 PUSH2 0x41C2 JUMP JUMPDEST SWAP1 POP PUSH0 DUP4 PUSH2 0x120 ADD MLOAD DUP5 PUSH2 0x140 ADD MLOAD PUSH2 0x36D1 SWAP2 SWAP1 PUSH2 0x41C2 JUMP JUMPDEST SWAP1 POP DUP4 PUSH2 0x140 ADD MLOAD TIMESTAMP LT PUSH2 0x36EA JUMPI POP POP POP PUSH2 0x100 ADD MLOAD SWAP1 JUMP JUMPDEST PUSH0 DUP1 DUP6 PUSH2 0x160 ADD MLOAD ISZERO PUSH2 0x373F JUMPI DUP6 PUSH1 0xE0 ADD MLOAD DUP7 PUSH2 0x100 ADD MLOAD PUSH2 0x370C SWAP2 SWAP1 PUSH2 0x41C2 JUMP JUMPDEST SWAP2 POP DUP3 PUSH2 0x3719 DUP6 DUP5 PUSH2 0x41AB JUMP JUMPDEST PUSH2 0x3723 SWAP2 SWAP1 PUSH2 0x438B JUMP JUMPDEST SWAP1 POP DUP1 DUP7 PUSH1 0xE0 ADD MLOAD PUSH2 0x3735 SWAP2 SWAP1 PUSH2 0x4234 JUMP JUMPDEST SWAP7 SWAP6 POP POP POP POP POP POP JUMP JUMPDEST DUP6 PUSH2 0x100 ADD MLOAD DUP7 PUSH1 0xE0 ADD MLOAD PUSH2 0x3754 SWAP2 SWAP1 PUSH2 0x41C2 JUMP JUMPDEST SWAP2 POP DUP3 PUSH2 0x3761 DUP6 DUP5 PUSH2 0x41AB JUMP JUMPDEST PUSH2 0x376B SWAP2 SWAP1 PUSH2 0x438B JUMP JUMPDEST SWAP1 POP DUP1 DUP7 PUSH1 0xE0 ADD MLOAD PUSH2 0x3735 SWAP2 SWAP1 PUSH2 0x41C2 JUMP JUMPDEST PUSH1 0x1 SLOAD PUSH1 0xFF AND ISZERO PUSH2 0x37A1 JUMPI PUSH1 0x40 MLOAD PUSH4 0xD93C0665 PUSH1 0xE0 SHL DUP2 MSTORE PUSH1 0x4 ADD PUSH1 0x40 MLOAD DUP1 SWAP2 SUB SWAP1 REVERT JUMPDEST JUMP JUMPDEST PUSH0 DUP2 PUSH1 0xFF AND DUP4 PUSH1 0xFF AND SUB PUSH2 0x37B8 JUMPI POP DUP3 PUSH2 0xCEC JUMP JUMPDEST DUP2 PUSH1 0xFF AND DUP4 PUSH1 0xFF AND LT ISZERO PUSH2 0x37EC JUMPI PUSH2 0x37D0 DUP4 DUP4 PUSH2 0x439E JUMP JUMPDEST PUSH2 0x37DB SWAP1 PUSH1 0xA PUSH2 0x4369 JUMP JUMPDEST PUSH2 0x37E5 SWAP1 DUP6 PUSH2 0x41AB JUMP JUMPDEST SWAP1 POP PUSH2 0xCEC JUMP JUMPDEST PUSH0 PUSH2 0x37F7 DUP4 DUP6 PUSH2 0x439E JUMP JUMPDEST PUSH2 0x3802 SWAP1 PUSH1 0xA PUSH2 0x4369 JUMP JUMPDEST SWAP1 POP PUSH2 0x380E DUP2 DUP7 PUSH2 0x438B JUMP JUMPDEST SWAP2 POP PUSH2 0x381A DUP2 DUP7 PUSH2 0x4413 JUMP JUMPDEST ISZERO PUSH2 0x382D JUMPI PUSH2 0x382A PUSH1 0x1 DUP4 PUSH2 0x4234 JUMP JUMPDEST SWAP2 POP JUMPDEST POP SWAP4 SWAP3 POP POP POP JUMP JUMPDEST PUSH0 DUP2 PUSH1 0xFF AND DUP4 PUSH1 0xFF AND SUB PUSH2 0x384A JUMPI POP DUP3 PUSH2 0xCEC JUMP JUMPDEST DUP2 PUSH1 0xFF AND DUP4 PUSH1 0xFF AND LT ISZERO PUSH2 0x3862 JUMPI PUSH2 0x37D0 DUP4 DUP4 PUSH2 0x439E JUMP JUMPDEST PUSH2 0x386C DUP3 DUP5 PUSH2 0x439E JUMP JUMPDEST PUSH2 0x3877 SWAP1 PUSH1 0xA PUSH2 0x4369 JUMP JUMPDEST PUSH2 0x3881 SWAP1 DUP6 PUSH2 0x438B JUMP JUMPDEST SWAP5 SWAP4 POP POP POP POP JUMP JUMPDEST PUSH2 0x3893 DUP3 DUP3 PUSH2 0x1CFD JUMP JUMPDEST PUSH2 0x38C2 JUMPI PUSH1 0x40 MLOAD PUSH4 0xE2517D3F PUSH1 0xE0 SHL DUP2 MSTORE PUSH1 0x1 PUSH1 0x1 PUSH1 0xA0 SHL SUB DUP3 AND PUSH1 0x4 DUP3 ADD MSTORE PUSH1 0x24 DUP2 ADD DUP4 SWAP1 MSTORE PUSH1 0x44 ADD PUSH2 0xED6 JUMP JUMPDEST POP POP JUMP JUMPDEST PUSH1 0x1 SLOAD PUSH1 0xFF AND PUSH2 0x37A1 JUMPI PUSH1 0x40 MLOAD PUSH4 0x8DFC202B PUSH1 0xE0 SHL DUP2 MSTORE PUSH1 0x4 ADD PUSH1 0x40 MLOAD DUP1 SWAP2 SUB SWAP1 REVERT JUMPDEST PUSH1 0x40 MLOAD DUP1 PUSH2 0x1A0 ADD PUSH1 0x40 MSTORE DUP1 PUSH0 DUP2 MSTORE PUSH1 0x20 ADD PUSH0 DUP2 MSTORE PUSH1 0x20 ADD PUSH0 PUSH1 0x1 PUSH1 0x1 PUSH1 0xA0 SHL SUB AND DUP2 MSTORE PUSH1 0x20 ADD PUSH0 PUSH1 0x1 PUSH1 0x1 PUSH1 0xA0 SHL SUB AND DUP2 MSTORE PUSH1 0x20 ADD PUSH0 PUSH1 0x1 PUSH1 0x1 PUSH1 0xA0 SHL SUB AND DUP2 MSTORE PUSH1 0x20 ADD PUSH0 DUP2 MSTORE PUSH1 0x20 ADD PUSH0 DUP2 MSTORE PUSH1 0x20 ADD PUSH0 DUP2 MSTORE PUSH1 0x20 ADD PUSH0 DUP2 MSTORE PUSH1 0x20 ADD PUSH0 DUP2 MSTORE PUSH1 0x20 ADD PUSH0 DUP2 MSTORE PUSH1 0x20 ADD PUSH0 ISZERO ISZERO DUP2 MSTORE PUSH1 0x20 ADD PUSH0 ISZERO ISZERO DUP2 MSTORE POP SWAP1 JUMP JUMPDEST PUSH0 PUSH1 0x20 DUP3 DUP5 SUB SLT ISZERO PUSH2 0x3973 JUMPI PUSH0 DUP1 REVERT JUMPDEST DUP2 CALLDATALOAD PUSH1 0x1 PUSH1 0x1 PUSH1 0xE0 SHL SUB NOT DUP2 AND DUP2 EQ PUSH2 0xCEC JUMPI PUSH0 DUP1 REVERT JUMPDEST PUSH0 PUSH1 0x20 DUP3 DUP5 SUB SLT ISZERO PUSH2 0x399A JUMPI PUSH0 DUP1 REVERT JUMPDEST POP CALLDATALOAD SWAP2 SWAP1 POP JUMP JUMPDEST PUSH4 0x4E487B71 PUSH1 0xE0 SHL PUSH0 MSTORE PUSH1 0x41 PUSH1 0x4 MSTORE PUSH1 0x24 PUSH0 REVERT JUMPDEST PUSH1 0x40 MLOAD PUSH1 0x1F DUP3 ADD PUSH1 0x1F NOT AND DUP2 ADD PUSH1 0x1 PUSH1 0x1 PUSH1 0x40 SHL SUB DUP2 GT DUP3 DUP3 LT OR ISZERO PUSH2 0x39DD JUMPI PUSH2 0x39DD PUSH2 0x39A1 JUMP JUMPDEST PUSH1 0x40 MSTORE SWAP2 SWAP1 POP JUMP JUMPDEST PUSH0 PUSH1 0x1 PUSH1 0x1 PUSH1 0x40 SHL SUB DUP3 GT ISZERO PUSH2 0x39FD JUMPI PUSH2 0x39FD PUSH2 0x39A1 JUMP JUMPDEST POP PUSH1 0x5 SHL PUSH1 0x20 ADD SWAP1 JUMP JUMPDEST PUSH0 DUP3 PUSH1 0x1F DUP4 ADD SLT PUSH2 0x3A16 JUMPI PUSH0 DUP1 REVERT JUMPDEST DUP2 CALLDATALOAD PUSH2 0x3A29 PUSH2 0x3A24 DUP3 PUSH2 0x39E5 JUMP JUMPDEST PUSH2 0x39B5 JUMP JUMPDEST DUP1 DUP3 DUP3 MSTORE PUSH1 0x20 DUP3 ADD SWAP2 POP PUSH1 0x20 DUP4 PUSH1 0x5 SHL DUP7 ADD ADD SWAP3 POP DUP6 DUP4 GT ISZERO PUSH2 0x3A4A JUMPI PUSH0 DUP1 REVERT JUMPDEST PUSH1 0x20 DUP6 ADD JUMPDEST DUP4 DUP2 LT ISZERO PUSH2 0x220B JUMPI DUP1 CALLDATALOAD DUP4 MSTORE PUSH1 0x20 SWAP3 DUP4 ADD SWAP3 ADD PUSH2 0x3A4F JUMP JUMPDEST PUSH0 PUSH1 0x20 DUP3 DUP5 SUB SLT ISZERO PUSH2 0x3A77 JUMPI PUSH0 DUP1 REVERT JUMPDEST DUP2 CALLDATALOAD PUSH1 0x1 PUSH1 0x1 PUSH1 0x40 SHL SUB DUP2 GT ISZERO PUSH2 0x3A8C JUMPI PUSH0 DUP1 REVERT JUMPDEST PUSH2 0x3881 DUP5 DUP3 DUP6 ADD PUSH2 0x3A07 JUMP JUMPDEST DUP1 CALLDATALOAD PUSH1 0x1 PUSH1 0x1 PUSH1 0xA0 SHL SUB DUP2 AND DUP2 EQ PUSH2 0x3AAE JUMPI PUSH0 DUP1 REVERT JUMPDEST SWAP2 SWAP1 POP JUMP JUMPDEST PUSH0 DUP1 PUSH1 0x40 DUP4 DUP6 SUB SLT ISZERO PUSH2 0x3AC4 JUMPI PUSH0 DUP1 REVERT JUMPDEST DUP3 CALLDATALOAD SWAP2 POP PUSH2 0x3AD4 PUSH1 0x20 DUP5 ADD PUSH2 0x3A98 JUMP JUMPDEST SWAP1 POP SWAP3 POP SWAP3 SWAP1 POP JUMP JUMPDEST DUP1 ISZERO ISZERO DUP2 EQ PUSH2 0xE92 JUMPI PUSH0 DUP1 REVERT JUMPDEST PUSH0 DUP1 PUSH0 PUSH1 0x60 DUP5 DUP7 SUB SLT ISZERO PUSH2 0x3AFC JUMPI PUSH0 DUP1 REVERT JUMPDEST DUP4 CALLDATALOAD SWAP3 POP PUSH1 0x20 DUP5 ADD CALLDATALOAD SWAP2 POP PUSH1 0x40 DUP5 ADD CALLDATALOAD PUSH2 0x3B15 DUP2 PUSH2 0x3ADD JUMP JUMPDEST DUP1 SWAP2 POP POP SWAP3 POP SWAP3 POP SWAP3 JUMP JUMPDEST PUSH0 DUP2 MLOAD DUP1 DUP5 MSTORE PUSH1 0x20 DUP5 ADD SWAP4 POP PUSH1 0x20 DUP4 ADD PUSH0 JUMPDEST DUP3 DUP2 LT ISZERO PUSH2 0x3B50 JUMPI DUP2 MLOAD DUP7 MSTORE PUSH1 0x20 SWAP6 DUP7 ADD SWAP6 SWAP1 SWAP2 ADD SWAP1 PUSH1 0x1 ADD PUSH2 0x3B32 JUMP JUMPDEST POP SWAP4 SWAP5 SWAP4 POP POP POP POP JUMP JUMPDEST PUSH1 0x20 DUP2 MSTORE PUSH0 PUSH2 0xCEC PUSH1 0x20 DUP4 ADD DUP5 PUSH2 0x3B20 JUMP JUMPDEST PUSH0 DUP2 MLOAD DUP1 DUP5 MSTORE PUSH1 0x20 DUP5 ADD SWAP4 POP PUSH1 0x20 DUP4 ADD PUSH0 JUMPDEST DUP3 DUP2 LT ISZERO PUSH2 0x3B50 JUMPI DUP2 MLOAD ISZERO ISZERO DUP7 MSTORE PUSH1 0x20 SWAP6 DUP7 ADD SWAP6 SWAP1 SWAP2 ADD SWAP1 PUSH1 0x1 ADD PUSH2 0x3B7E JUMP JUMPDEST PUSH1 0x40 DUP2 MSTORE PUSH0 PUSH2 0x3BB0 PUSH1 0x40 DUP4 ADD DUP6 PUSH2 0x3B6C JUMP JUMPDEST DUP3 DUP2 SUB PUSH1 0x20 DUP5 ADD MSTORE PUSH2 0x382A DUP2 DUP6 PUSH2 0x3B6C JUMP JUMPDEST PUSH0 PUSH1 0x20 DUP3 DUP5 SUB SLT ISZERO PUSH2 0x3BD2 JUMPI PUSH0 DUP1 REVERT JUMPDEST PUSH2 0xCEC DUP3 PUSH2 0x3A98 JUMP JUMPDEST PUSH0 DUP1 PUSH1 0x40 DUP4 DUP6 SUB SLT ISZERO PUSH2 0x3BEC JUMPI PUSH0 DUP1 REVERT JUMPDEST PUSH2 0x3BF5 DUP4 PUSH2 0x3A98 JUMP JUMPDEST SWAP2 POP PUSH2 0x3AD4 PUSH1 0x20 DUP5 ADD PUSH2 0x3A98 JUMP JUMPDEST PUSH0 DUP1 PUSH0 PUSH1 0x60 DUP5 DUP7 SUB SLT ISZERO PUSH2 0x3C15 JUMPI PUSH0 DUP1 REVERT JUMPDEST PUSH2 0x3C1E DUP5 PUSH2 0x3A98 JUMP JUMPDEST SWAP3 POP PUSH2 0x3C2C PUSH1 0x20 DUP6 ADD PUSH2 0x3A98 JUMP JUMPDEST SWAP3 SWAP6 SWAP3 SWAP5 POP POP POP PUSH1 0x40 SWAP2 SWAP1 SWAP2 ADD CALLDATALOAD SWAP1 JUMP JUMPDEST PUSH1 0xFF DUP2 AND DUP2 EQ PUSH2 0xE92 JUMPI PUSH0 DUP1 REVERT JUMPDEST PUSH0 PUSH1 0x20 DUP3 DUP5 SUB SLT ISZERO PUSH2 0x3C5B JUMPI PUSH0 DUP1 REVERT JUMPDEST DUP2 CALLDATALOAD PUSH2 0xCEC DUP2 PUSH2 0x3C3D JUMP JUMPDEST PUSH0 DUP1 PUSH0 DUP1 PUSH0 DUP1 PUSH0 DUP1 PUSH0 DUP1 PUSH0 PUSH2 0x160 DUP13 DUP15 SUB SLT ISZERO PUSH2 0x3C81 JUMPI PUSH0 DUP1 REVERT JUMPDEST DUP12 CALLDATALOAD SWAP11 POP PUSH1 0x20 DUP13 ADD CALLDATALOAD SWAP10 POP PUSH2 0x3C98 PUSH1 0x40 DUP14 ADD PUSH2 0x3A98 JUMP JUMPDEST SWAP9 POP PUSH2 0x3CA6 PUSH1 0x60 DUP14 ADD PUSH2 0x3A98 JUMP JUMPDEST SWAP8 POP PUSH2 0x3CB4 PUSH1 0x80 DUP14 ADD PUSH2 0x3A98 JUMP JUMPDEST SWAP7 POP PUSH1 0xA0 DUP13 ADD CALLDATALOAD SWAP6 POP PUSH1 0xC0 DUP13 ADD CALLDATALOAD SWAP5 POP PUSH1 0xE0 DUP13 ADD CALLDATALOAD SWAP4 POP PUSH2 0x100 DUP13 ADD CALLDATALOAD SWAP3 POP PUSH2 0x120 DUP13 ADD CALLDATALOAD SWAP2 POP PUSH2 0x140 DUP13 ADD CALLDATALOAD PUSH2 0x3CEA DUP2 PUSH2 0x3ADD JUMP JUMPDEST DUP1 SWAP2 POP POP SWAP3 SWAP6 SWAP9 SWAP12 POP SWAP3 SWAP6 SWAP9 SWAP12 SWAP1 SWAP4 SWAP7 SWAP10 POP JUMP JUMPDEST PUSH0 DUP3 PUSH1 0x1F DUP4 ADD SLT PUSH2 0x3D0D JUMPI PUSH0 DUP1 REVERT JUMPDEST DUP2 CALLDATALOAD PUSH2 0x3D1B PUSH2 0x3A24 DUP3 PUSH2 0x39E5 JUMP JUMPDEST DUP1 DUP3 DUP3 MSTORE PUSH1 0x20 DUP3 ADD SWAP2 POP PUSH1 0x20 DUP4 PUSH1 0x5 SHL DUP7 ADD ADD SWAP3 POP DUP6 DUP4 GT ISZERO PUSH2 0x3D3C JUMPI PUSH0 DUP1 REVERT JUMPDEST PUSH1 0x20 DUP6 ADD JUMPDEST DUP4 DUP2 LT ISZERO PUSH2 0x220B JUMPI PUSH2 0x3D52 DUP2 PUSH2 0x3A98 JUMP JUMPDEST DUP4 MSTORE PUSH1 0x20 SWAP3 DUP4 ADD SWAP3 ADD PUSH2 0x3D41 JUMP JUMPDEST PUSH0 DUP3 PUSH1 0x1F DUP4 ADD SLT PUSH2 0x3D6F JUMPI PUSH0 DUP1 REVERT JUMPDEST DUP2 CALLDATALOAD PUSH2 0x3D7D PUSH2 0x3A24 DUP3 PUSH2 0x39E5 JUMP JUMPDEST DUP1 DUP3 DUP3 MSTORE PUSH1 0x20 DUP3 ADD SWAP2 POP PUSH1 0x20 DUP4 PUSH1 0x5 SHL DUP7 ADD ADD SWAP3 POP DUP6 DUP4 GT ISZERO PUSH2 0x3D9E JUMPI PUSH0 DUP1 REVERT JUMPDEST PUSH1 0x20 DUP6 ADD JUMPDEST DUP4 DUP2 LT ISZERO PUSH2 0x220B JUMPI DUP1 CALLDATALOAD PUSH2 0x3DB6 DUP2 PUSH2 0x3ADD JUMP JUMPDEST DUP4 MSTORE PUSH1 0x20 SWAP3 DUP4 ADD SWAP3 ADD PUSH2 0x3DA3 JUMP JUMPDEST PUSH0 DUP1 PUSH0 DUP1 PUSH0 DUP1 PUSH0 DUP1 PUSH0 DUP1 PUSH0 PUSH2 0x160 DUP13 DUP15 SUB SLT ISZERO PUSH2 0x3DDF JUMPI PUSH0 DUP1 REVERT JUMPDEST DUP12 CALLDATALOAD PUSH1 0x1 PUSH1 0x1 PUSH1 0x40 SHL SUB DUP2 GT ISZERO PUSH2 0x3DF4 JUMPI PUSH0 DUP1 REVERT JUMPDEST PUSH2 0x3E00 DUP15 DUP3 DUP16 ADD PUSH2 0x3A07 JUMP JUMPDEST SWAP12 POP POP PUSH1 0x20 DUP13 ADD CALLDATALOAD PUSH1 0x1 PUSH1 0x1 PUSH1 0x40 SHL SUB DUP2 GT ISZERO PUSH2 0x3E1B JUMPI PUSH0 DUP1 REVERT JUMPDEST PUSH2 0x3E27 DUP15 DUP3 DUP16 ADD PUSH2 0x3A07 JUMP JUMPDEST SWAP11 POP POP PUSH1 0x40 DUP13 ADD CALLDATALOAD PUSH1 0x1 PUSH1 0x1 PUSH1 0x40 SHL SUB DUP2 GT ISZERO PUSH2 0x3E42 JUMPI PUSH0 DUP1 REVERT JUMPDEST PUSH2 0x3E4E DUP15 DUP3 DUP16 ADD PUSH2 0x3CFE JUMP JUMPDEST SWAP10 POP POP PUSH1 0x60 DUP13 ADD CALLDATALOAD PUSH1 0x1 PUSH1 0x1 PUSH1 0x40 SHL SUB DUP2 GT ISZERO PUSH2 0x3E69 JUMPI PUSH0 DUP1 REVERT JUMPDEST PUSH2 0x3E75 DUP15 DUP3 DUP16 ADD PUSH2 0x3CFE JUMP JUMPDEST SWAP9 POP POP PUSH1 0x80 DUP13 ADD CALLDATALOAD PUSH1 0x1 PUSH1 0x1 PUSH1 0x40 SHL SUB DUP2 GT ISZERO PUSH2 0x3E90 JUMPI PUSH0 DUP1 REVERT JUMPDEST PUSH2 0x3E9C DUP15 DUP3 DUP16 ADD PUSH2 0x3CFE JUMP JUMPDEST SWAP8 POP POP PUSH1 0xA0 DUP13 ADD CALLDATALOAD PUSH1 0x1 PUSH1 0x1 PUSH1 0x40 SHL SUB DUP2 GT ISZERO PUSH2 0x3EB7 JUMPI PUSH0 DUP1 REVERT JUMPDEST PUSH2 0x3EC3 DUP15 DUP3 DUP16 ADD PUSH2 0x3A07 JUMP JUMPDEST SWAP7 POP POP PUSH1 0xC0 DUP13 ADD CALLDATALOAD PUSH1 0x1 PUSH1 0x1 PUSH1 0x40 SHL SUB DUP2 GT ISZERO PUSH2 0x3EDE JUMPI PUSH0 DUP1 REVERT JUMPDEST PUSH2 0x3EEA DUP15 DUP3 DUP16 ADD PUSH2 0x3A07 JUMP JUMPDEST SWAP6 POP POP PUSH1 0xE0 DUP13 ADD CALLDATALOAD PUSH1 0x1 PUSH1 0x1 PUSH1 0x40 SHL SUB DUP2 GT ISZERO PUSH2 0x3F05 JUMPI PUSH0 DUP1 REVERT JUMPDEST PUSH2 0x3F11 DUP15 DUP3 DUP16 ADD PUSH2 0x3A07 JUMP JUMPDEST SWAP5 POP POP PUSH2 0x100 DUP13 ADD CALLDATALOAD PUSH1 0x1 PUSH1 0x1 PUSH1 0x40 SHL SUB DUP2 GT ISZERO PUSH2 0x3F2D JUMPI PUSH0 DUP1 REVERT JUMPDEST PUSH2 0x3F39 DUP15 DUP3 DUP16 ADD PUSH2 0x3A07 JUMP JUMPDEST SWAP4 POP POP PUSH2 0x120 DUP13 ADD CALLDATALOAD PUSH1 0x1 PUSH1 0x1 PUSH1 0x40 SHL SUB DUP2 GT ISZERO PUSH2 0x3F55 JUMPI PUSH0 DUP1 REVERT JUMPDEST PUSH2 0x3F61 DUP15 DUP3 DUP16 ADD PUSH2 0x3A07 JUMP JUMPDEST SWAP3 POP POP PUSH2 0x140 DUP13 ADD CALLDATALOAD PUSH1 0x1 PUSH1 0x1 PUSH1 0x40 SHL SUB DUP2 GT ISZERO PUSH2 0x3F7D JUMPI PUSH0 DUP1 REVERT JUMPDEST PUSH2 0x3F89 DUP15 DUP3 DUP16 ADD PUSH2 0x3D60 JUMP JUMPDEST SWAP2 POP POP SWAP3 SWAP6 SWAP9 SWAP12 POP SWAP3 SWAP6 SWAP9 SWAP12 SWAP1 SWAP4 SWAP7 SWAP10 POP JUMP JUMPDEST DUP1 MLOAD DUP3 MSTORE PUSH1 0x20 DUP2 ADD MLOAD PUSH1 0x20 DUP4 ADD MSTORE PUSH1 0x40 DUP2 ADD MLOAD PUSH2 0x3FC4 PUSH1 0x40 DUP5 ADD DUP3 PUSH1 0x1 PUSH1 0x1 PUSH1 0xA0 SHL SUB AND SWAP1 MSTORE JUMP JUMPDEST POP PUSH1 0x60 DUP2 ADD MLOAD PUSH2 0x3FDF PUSH1 0x60 DUP5 ADD DUP3 PUSH1 0x1 PUSH1 0x1 PUSH1 0xA0 SHL SUB AND SWAP1 MSTORE JUMP JUMPDEST POP PUSH1 0x80 DUP2 ADD MLOAD PUSH2 0x3FFA PUSH1 0x80 DUP5 ADD DUP3 PUSH1 0x1 PUSH1 0x1 PUSH1 0xA0 SHL SUB AND SWAP1 MSTORE JUMP JUMPDEST POP PUSH1 0xA0 DUP2 ADD MLOAD PUSH1 0xA0 DUP4 ADD MSTORE PUSH1 0xC0 DUP2 ADD MLOAD PUSH1 0xC0 DUP4 ADD MSTORE PUSH1 0xE0 DUP2 ADD MLOAD PUSH1 0xE0 DUP4 ADD MSTORE PUSH2 0x100 DUP2 ADD MLOAD PUSH2 0x100 DUP4 ADD MSTORE PUSH2 0x120 DUP2 ADD MLOAD PUSH2 0x120 DUP4 ADD MSTORE PUSH2 0x140 DUP2 ADD MLOAD PUSH2 0x140 DUP4 ADD MSTORE PUSH2 0x160 DUP2 ADD MLOAD PUSH2 0x4052 PUSH2 0x160 DUP5 ADD DUP3 ISZERO ISZERO SWAP1 MSTORE JUMP JUMPDEST POP PUSH2 0x180 DUP2 ADD MLOAD PUSH2 0xB5B PUSH2 0x180 DUP5 ADD DUP3 ISZERO ISZERO SWAP1 MSTORE JUMP JUMPDEST PUSH1 0x20 DUP1 DUP3 MSTORE DUP3 MLOAD DUP3 DUP3 ADD DUP2 SWAP1 MSTORE PUSH0 SWAP2 DUP5 ADD SWAP1 PUSH1 0x40 DUP5 ADD SWAP1 DUP4 JUMPDEST DUP2 DUP2 LT ISZERO PUSH2 0x40AB JUMPI PUSH2 0x4094 DUP4 DUP6 MLOAD PUSH2 0x3F9C JUMP JUMPDEST PUSH1 0x20 SWAP4 SWAP1 SWAP4 ADD SWAP3 PUSH2 0x1A0 SWAP3 SWAP1 SWAP3 ADD SWAP2 PUSH1 0x1 ADD PUSH2 0x4081 JUMP JUMPDEST POP SWAP1 SWAP6 SWAP5 POP POP POP POP POP JUMP JUMPDEST PUSH1 0x60 DUP2 MSTORE PUSH0 PUSH2 0x40C8 PUSH1 0x60 DUP4 ADD DUP7 PUSH2 0x3B20 JUMP JUMPDEST DUP3 DUP2 SUB PUSH1 0x20 DUP5 ADD MSTORE PUSH2 0x40DA DUP2 DUP7 PUSH2 0x3B20 JUMP JUMPDEST SWAP1 POP DUP3 DUP2 SUB PUSH1 0x40 DUP5 ADD MSTORE PUSH2 0x3735 DUP2 DUP6 PUSH2 0x3B6C JUMP JUMPDEST PUSH0 DUP1 PUSH0 PUSH1 0x60 DUP5 DUP7 SUB SLT ISZERO PUSH2 0x4100 JUMPI PUSH0 DUP1 REVERT JUMPDEST PUSH2 0x4109 DUP5 PUSH2 0x3A98 JUMP JUMPDEST SWAP6 PUSH1 0x20 DUP6 ADD CALLDATALOAD SWAP6 POP PUSH1 0x40 SWAP1 SWAP5 ADD CALLDATALOAD SWAP4 SWAP3 POP POP POP JUMP JUMPDEST PUSH1 0x40 DUP1 DUP3 MSTORE DUP4 MLOAD SWAP1 DUP3 ADD DUP2 SWAP1 MSTORE PUSH0 SWAP1 PUSH1 0x20 DUP6 ADD SWAP1 PUSH1 0x60 DUP5 ADD SWAP1 DUP4 JUMPDEST DUP2 DUP2 LT ISZERO PUSH2 0x4160 JUMPI DUP4 MLOAD PUSH1 0x1 PUSH1 0x1 PUSH1 0xA0 SHL SUB AND DUP4 MSTORE PUSH1 0x20 SWAP4 DUP5 ADD SWAP4 SWAP1 SWAP3 ADD SWAP2 PUSH1 0x1 ADD PUSH2 0x4139 JUMP JUMPDEST POP POP DUP4 DUP2 SUB PUSH1 0x20 DUP6 ADD MSTORE PUSH2 0x3735 DUP2 DUP7 PUSH2 0x3B20 JUMP JUMPDEST PUSH2 0x1A0 DUP2 ADD PUSH2 0xB09 DUP3 DUP5 PUSH2 0x3F9C JUMP JUMPDEST PUSH4 0x4E487B71 PUSH1 0xE0 SHL PUSH0 MSTORE PUSH1 0x32 PUSH1 0x4 MSTORE PUSH1 0x24 PUSH0 REVERT JUMPDEST PUSH4 0x4E487B71 PUSH1 0xE0 SHL PUSH0 MSTORE PUSH1 0x11 PUSH1 0x4 MSTORE PUSH1 0x24 PUSH0 REVERT JUMPDEST DUP1 DUP3 MUL DUP2 ISZERO DUP3 DUP3 DIV DUP5 EQ OR PUSH2 0xB09 JUMPI PUSH2 0xB09 PUSH2 0x4197 JUMP JUMPDEST DUP2 DUP2 SUB DUP2 DUP2 GT ISZERO PUSH2 0xB09 JUMPI PUSH2 0xB09 PUSH2 0x4197 JUMP JUMPDEST PUSH1 0x20 DUP1 DUP3 MSTORE PUSH1 0x13 SWAP1 DUP3 ADD MSTORE PUSH19 0x151BDAD95B881B9BDD081CDD5C1C1BDC9D1959 PUSH1 0x6A SHL PUSH1 0x40 DUP3 ADD MSTORE PUSH1 0x60 ADD SWAP1 JUMP JUMPDEST PUSH0 PUSH1 0x20 DUP3 DUP5 SUB SLT ISZERO PUSH2 0x4212 JUMPI PUSH0 DUP1 REVERT JUMPDEST POP MLOAD SWAP2 SWAP1 POP JUMP JUMPDEST PUSH0 PUSH1 0x20 DUP3 DUP5 SUB SLT ISZERO PUSH2 0x4229 JUMPI PUSH0 DUP1 REVERT JUMPDEST DUP2 MLOAD PUSH2 0xCEC DUP2 PUSH2 0x3ADD JUMP JUMPDEST DUP1 DUP3 ADD DUP1 DUP3 GT ISZERO PUSH2 0xB09 JUMPI PUSH2 0xB09 PUSH2 0x4197 JUMP JUMPDEST PUSH0 PUSH1 0x1 DUP3 ADD PUSH2 0x4258 JUMPI PUSH2 0x4258 PUSH2 0x4197 JUMP JUMPDEST POP PUSH1 0x1 ADD SWAP1 JUMP JUMPDEST PUSH4 0x4E487B71 PUSH1 0xE0 SHL PUSH0 MSTORE PUSH1 0x31 PUSH1 0x4 MSTORE PUSH1 0x24 PUSH0 REVERT JUMPDEST PUSH0 PUSH1 0x20 DUP3 DUP5 SUB SLT ISZERO PUSH2 0x4283 JUMPI PUSH0 DUP1 REVERT JUMPDEST DUP2 MLOAD PUSH2 0xCEC DUP2 PUSH2 0x3C3D JUMP JUMPDEST PUSH1 0x1 DUP2 JUMPDEST PUSH1 0x1 DUP5 GT ISZERO PUSH2 0x2E71 JUMPI DUP1 DUP6 DIV DUP2 GT ISZERO PUSH2 0x42AD JUMPI PUSH2 0x42AD PUSH2 0x4197 JUMP JUMPDEST PUSH1 0x1 DUP5 AND ISZERO PUSH2 0x42BB JUMPI SWAP1 DUP2 MUL SWAP1 JUMPDEST PUSH1 0x1 SWAP4 SWAP1 SWAP4 SHR SWAP3 DUP1 MUL PUSH2 0x4292 JUMP JUMPDEST PUSH0 DUP3 PUSH2 0x42D7 JUMPI POP PUSH1 0x1 PUSH2 0xB09 JUMP JUMPDEST DUP2 PUSH2 0x42E3 JUMPI POP PUSH0 PUSH2 0xB09 JUMP JUMPDEST DUP2 PUSH1 0x1 DUP2 EQ PUSH2 0x42F9 JUMPI PUSH1 0x2 DUP2 EQ PUSH2 0x4303 JUMPI PUSH2 0x431F JUMP JUMPDEST PUSH1 0x1 SWAP2 POP POP PUSH2 0xB09 JUMP JUMPDEST PUSH1 0xFF DUP5 GT ISZERO PUSH2 0x4314 JUMPI PUSH2 0x4314 PUSH2 0x4197 JUMP JUMPDEST POP POP PUSH1 0x1 DUP3 SHL PUSH2 0xB09 JUMP JUMPDEST POP PUSH1 0x20 DUP4 LT PUSH2 0x133 DUP4 LT AND PUSH1 0x4E DUP5 LT PUSH1 0xB DUP5 LT AND OR ISZERO PUSH2 0x4342 JUMPI POP DUP2 DUP2 EXP PUSH2 0xB09 JUMP JUMPDEST PUSH2 0x434E PUSH0 NOT DUP5 DUP5 PUSH2 0x428E JUMP JUMPDEST DUP1 PUSH0 NOT DIV DUP3 GT ISZERO PUSH2 0x4361 JUMPI PUSH2 0x4361 PUSH2 0x4197 JUMP JUMPDEST MUL SWAP4 SWAP3 POP POP POP JUMP JUMPDEST PUSH0 PUSH2 0xCEC PUSH1 0xFF DUP5 AND DUP4 PUSH2 0x42C9 JUMP JUMPDEST PUSH4 0x4E487B71 PUSH1 0xE0 SHL PUSH0 MSTORE PUSH1 0x12 PUSH1 0x4 MSTORE PUSH1 0x24 PUSH0 REVERT JUMPDEST PUSH0 DUP3 PUSH2 0x4399 JUMPI PUSH2 0x4399 PUSH2 0x4377 JUMP JUMPDEST POP DIV SWAP1 JUMP JUMPDEST PUSH1 0xFF DUP3 DUP2 AND DUP3 DUP3 AND SUB SWAP1 DUP2 GT ISZERO PUSH2 0xB09 JUMPI PUSH2 0xB09 PUSH2 0x4197 JUMP JUMPDEST PUSH1 0x1 PUSH1 0x1 PUSH1 0xA0 SHL SUB SWAP9 DUP10 AND DUP2 MSTORE SWAP7 DUP9 AND PUSH1 0x20 DUP9 ADD MSTORE SWAP5 SWAP1 SWAP7 AND PUSH1 0x40 DUP7 ADD MSTORE PUSH1 0x60 DUP6 ADD SWAP3 SWAP1 SWAP3 MSTORE PUSH1 0x80 DUP5 ADD MSTORE PUSH1 0xA0 DUP4 ADD MSTORE PUSH1 0xC0 DUP3 ADD SWAP3 SWAP1 SWAP3 MSTORE SWAP1 ISZERO ISZERO PUSH1 0xE0 DUP3 ADD MSTORE PUSH2 0x100 ADD SWAP1 JUMP JUMPDEST PUSH0 DUP2 PUSH2 0x440C JUMPI PUSH2 0x440C PUSH2 0x4197 JUMP JUMPDEST POP PUSH0 NOT ADD SWAP1 JUMP JUMPDEST PUSH0 DUP3 PUSH2 0x4421 JUMPI PUSH2 0x4421 PUSH2 0x4377 JUMP JUMPDEST POP MOD SWAP1 JUMP INVALID STATICCALL 0xCA CALLCODE PUSH21 0x7A7486CF5730E9265973FB54447D3ACE6E7E4711F6 CALLDATASIZE ADDMOD 0x26 0xB0 PUSH20 0x1941A2646970667358221220274B3428D1459AE5 0x2B MSTORE8 BYTE SWAP16 0x2F 0xC7 DUP1 0xF8 0xA8 CREATE2 SWAP12 LOG4 0xDE 0xE3 COINBASE PUSH1 0x66 0x4E PUSH21 0x110CB3126664736F6C634300081A00330000000000 "
		},
		"gasEstimates": {
			"creation": {
				"codeDepositCost": "3506400",
				"executionCost": "infinite",
				"totalCost": "infinite"
			},
			"external": {
				"DEFAULT_ADMIN_ROLE()": "260",
				"PAUSER_ROLE()": "261",
				"TRADER_ROLE()": "infinite",
				"TRANSFER_MANAGER_ROLE()": "328",
				"activeAuctionCount()": "2405",
				"activeAuctionIds(uint256)": "4663",
				"addStableCoin(address)": "30372",
				"addSupportedToken(address)": "78929",
				"auctionCount()": "2429",
				"auctionIdToActiveIndex(uint256)": "2547",
				"auctions(uint256)": "26146",
				"batchCancelAuctions(uint256[])": "infinite",
				"batchCreateAuctions(uint256[],uint256[],address[],address[],address[],uint256[],uint256[],uint256[],uint256[],uint256[],bool[])": "infinite",
				"batchGetAuctionStatus(uint256[])": "infinite",
				"cancelAuction(uint256)": "infinite",
				"checkAuctionExistsAndActive(uint256)": "4703",
				"createAuction(uint256,uint256,address,address,address,uint256,uint256,uint256,uint256,uint256,bool)": "infinite",
				"disableEscapeMode()": "27599",
				"enableEscapeMode()": "27602",
				"escapeMode()": "2398",
				"getActiveAuctionIds(uint256,uint256,bool)": "infinite",
				"getActiveAuctionsData(uint256,uint256,bool)": "infinite",
				"getAllTraderTokenBalances(address,uint256,uint256)": "infinite",
				"getAuctionDetails(uint256)": "26950",
				"getAuctionEndPrice(uint256)": "2509",
				"getAuctionEndTime(uint256)": "2575",
				"getAuctionIsBuy(uint256)": "2553",
				"getAuctionStableCoinAddress(uint256)": "2572",
				"getAuctionStableCoinAmount(uint256)": "2576",
				"getAuctionStartPrice(uint256)": "2573",
				"getAuctionStartTime(uint256)": "2531",
				"getAuctionTargetChainId(uint256)": "2508",
				"getAuctionTokenAddress(uint256)": "2591",
				"getAuctionTokenAmount(uint256)": "2558",
				"getAuctionTrader(uint256)": "2594",
				"getIncompleteAuctionsByToken(address)": "infinite",
				"getRoleAdmin(bytes32)": "2557",
				"getTraderTokenBalance(address,address)": "infinite",
				"grantRole(bytes32,address)": "infinite",
				"hasRole(bytes32,address)": "2760",
				"pause()": "infinite",
				"paused()": "2426",
				"picweUSD()": "2415",
				"precisionFactor()": "2446",
				"proxyBuy(uint256)": "infinite",
				"proxySell(uint256)": "infinite",
				"removeStableCoin(address)": "30353",
				"removeSupportedToken(address)": "infinite",
				"renounceRole(bytes32,address)": "29130",
				"revokeRole(bytes32,address)": "infinite",
				"setPrecisionFactor(uint8)": "infinite",
				"supportedStableCoins(address)": "2606",
				"supportedTokenList(uint256)": "4680",
				"supportedTokens(address)": "2629",
				"supportsInterface(bytes4)": "493",
				"traderTokenBalances(address,address)": "infinite",
				"transferStableCoin(address,address,uint256)": "infinite",
				"transferTokensToTrader(address,address)": "infinite",
				"unpause()": "infinite",
				"withdrawTokensInEscapeMode(address)": "infinite"
			},
			"internal": {
				"_removeFromActiveAuctions(uint256)": "113813"
			}
		},
		"methodIdentifiers": {
			"DEFAULT_ADMIN_ROLE()": "a217fddf",
			"PAUSER_ROLE()": "e63ab1e9",
			"TRADER_ROLE()": "f0a56fc8",
			"TRANSFER_MANAGER_ROLE()": "39bea75e",
			"activeAuctionCount()": "72e2867d",
			"activeAuctionIds(uint256)": "2c6ea90d",
			"addStableCoin(address)": "b3c1f5d8",
			"addSupportedToken(address)": "6d69fcaf",
			"auctionCount()": "2ad71573",
			"auctionIdToActiveIndex(uint256)": "59a68623",
			"auctions(uint256)": "571a26a0",
			"batchCancelAuctions(uint256[])": "119ee4ab",
			"batchCreateAuctions(uint256[],uint256[],address[],address[],address[],uint256[],uint256[],uint256[],uint256[],uint256[],bool[])": "983dd192",
			"batchGetAuctionStatus(uint256[])": "33b7643f",
			"cancelAuction(uint256)": "96b5a755",
			"checkAuctionExistsAndActive(uint256)": "12df76ae",
			"createAuction(uint256,uint256,address,address,address,uint256,uint256,uint256,uint256,uint256,bool)": "758ab90b",
			"disableEscapeMode()": "76d4c56d",
			"enableEscapeMode()": "f441bc1a",
			"escapeMode()": "6f168f8b",
			"getActiveAuctionIds(uint256,uint256,bool)": "2f932f22",
			"getActiveAuctionsData(uint256,uint256,bool)": "a63fcdf0",
			"getAllTraderTokenBalances(address,uint256,uint256)": "e55de0e7",
			"getAuctionDetails(uint256)": "f20e5e35",
			"getAuctionEndPrice(uint256)": "56eca3e5",
			"getAuctionEndTime(uint256)": "930e79f1",
			"getAuctionIsBuy(uint256)": "ab1bc3b2",
			"getAuctionStableCoinAddress(uint256)": "037c8e4d",
			"getAuctionStableCoinAmount(uint256)": "2f8fabc9",
			"getAuctionStartPrice(uint256)": "f8fac9b7",
			"getAuctionStartTime(uint256)": "919e84f5",
			"getAuctionTargetChainId(uint256)": "6ea933b8",
			"getAuctionTokenAddress(uint256)": "e436cdd2",
			"getAuctionTokenAmount(uint256)": "eee44acb",
			"getAuctionTrader(uint256)": "09f0a14d",
			"getIncompleteAuctionsByToken(address)": "ad808738",
			"getRoleAdmin(bytes32)": "248a9ca3",
			"getTraderTokenBalance(address,address)": "9bec364c",
			"grantRole(bytes32,address)": "2f2ff15d",
			"hasRole(bytes32,address)": "91d14854",
			"pause()": "8456cb59",
			"paused()": "5c975abb",
			"picweUSD()": "b2292803",
			"precisionFactor()": "9d902fc0",
			"proxyBuy(uint256)": "f59b2550",
			"proxySell(uint256)": "d8f5acbf",
			"removeStableCoin(address)": "51bb5dff",
			"removeSupportedToken(address)": "76319190",
			"renounceRole(bytes32,address)": "36568abe",
			"revokeRole(bytes32,address)": "d547741f",
			"setPrecisionFactor(uint8)": "5e97a86e",
			"supportedStableCoins(address)": "e6d40dad",
			"supportedTokenList(uint256)": "2b60c822",
			"supportedTokens(address)": "68c4ac26",
			"supportsInterface(bytes4)": "01ffc9a7",
			"traderTokenBalances(address,address)": "5591b7c3",
			"transferStableCoin(address,address,uint256)": "5e556234",
			"transferTokensToTrader(address,address)": "cf8ddf0d",
			"unpause()": "3f4ba83a",
			"withdrawTokensInEscapeMode(address)": "7aab745f"
		}
	},
	"abi": [
		{
			"inputs": [
				{
					"internalType": "address",
					"name": "_picweUSDAddress",
					"type": "address"
				},
				{
					"internalType": "address",
					"name": "_stableCoinAddress",
					"type": "address"
				},
				{
					"internalType": "address",
					"name": "_trader",
					"type": "address"
				}
			],
			"stateMutability": "nonpayable",
			"type": "constructor"
		},
		{
			"inputs": [],
			"name": "AccessControlBadConfirmation",
			"type": "error"
		},
		{
			"inputs": [
				{
					"internalType": "address",
					"name": "account",
					"type": "address"
				},
				{
					"internalType": "bytes32",
					"name": "neededRole",
					"type": "bytes32"
				}
			],
			"name": "AccessControlUnauthorizedAccount",
			"type": "error"
		},
		{
			"inputs": [],
			"name": "EnforcedPause",
			"type": "error"
		},
		{
			"inputs": [],
			"name": "ExpectedPause",
			"type": "error"
		},
		{
			"anonymous": false,
			"inputs": [
				{
					"indexed": true,
					"internalType": "uint256",
					"name": "requestId",
					"type": "uint256"
				},
				{
					"indexed": true,
					"internalType": "address",
					"name": "trader",
					"type": "address"
				},
				{
					"indexed": false,
					"internalType": "address",
					"name": "tokenAddress",
					"type": "address"
				},
				{
					"indexed": false,
					"internalType": "address",
					"name": "stableCoinAddress",
					"type": "address"
				},
				{
					"indexed": false,
					"internalType": "uint256",
					"name": "stableCoinAmount",
					"type": "uint256"
				},
				{
					"indexed": false,
					"internalType": "uint256",
					"name": "tokenAmount",
					"type": "uint256"
				},
				{
					"indexed": false,
					"internalType": "uint256",
					"name": "startPrice",
					"type": "uint256"
				},
				{
					"indexed": false,
					"internalType": "uint256",
					"name": "endPrice",
					"type": "uint256"
				},
				{
					"indexed": false,
					"internalType": "uint256",
					"name": "startTime",
					"type": "uint256"
				},
				{
					"indexed": false,
					"internalType": "uint256",
					"name": "endTime",
					"type": "uint256"
				},
				{
					"indexed": false,
					"internalType": "bool",
					"name": "isBuy",
					"type": "bool"
				}
			],
			"name": "AuctionCancelled",
			"type": "event"
		},
		{
			"anonymous": false,
			"inputs": [
				{
					"indexed": true,
					"internalType": "uint256",
					"name": "requestId",
					"type": "uint256"
				},
				{
					"indexed": false,
					"internalType": "uint256",
					"name": "targetchainId",
					"type": "uint256"
				},
				{
					"indexed": true,
					"internalType": "address",
					"name": "trader",
					"type": "address"
				},
				{
					"indexed": false,
					"internalType": "address",
					"name": "tokenAddress",
					"type": "address"
				},
				{
					"indexed": false,
					"internalType": "address",
					"name": "stableCoinAddress",
					"type": "address"
				},
				{
					"indexed": false,
					"internalType": "uint256",
					"name": "stableCoinAmount",
					"type": "uint256"
				},
				{
					"indexed": false,
					"internalType": "uint256",
					"name": "tokenAmount",
					"type": "uint256"
				},
				{
					"indexed": false,
					"internalType": "uint256",
					"name": "startPrice",
					"type": "uint256"
				},
				{
					"indexed": false,
					"internalType": "uint256",
					"name": "endPrice",
					"type": "uint256"
				},
				{
					"indexed": false,
					"internalType": "uint256",
					"name": "startTime",
					"type": "uint256"
				},
				{
					"indexed": false,
					"internalType": "uint256",
					"name": "endTime",
					"type": "uint256"
				},
				{
					"indexed": false,
					"internalType": "bool",
					"name": "isBuy",
					"type": "bool"
				}
			],
			"name": "AuctionCreated",
			"type": "event"
		},
		{
			"anonymous": false,
			"inputs": [
				{
					"indexed": true,
					"internalType": "uint256",
					"name": "requestId",
					"type": "uint256"
				},
				{
					"indexed": true,
					"internalType": "address",
					"name": "trader",
					"type": "address"
				},
				{
					"indexed": false,
					"internalType": "address",
					"name": "winner",
					"type": "address"
				},
				{
					"indexed": false,
					"internalType": "address",
					"name": "tokenAddress",
					"type": "address"
				},
				{
					"indexed": false,
					"internalType": "address",
					"name": "stableCoinAddress",
					"type": "address"
				},
				{
					"indexed": false,
					"internalType": "uint256",
					"name": "stableCoinAmount",
					"type": "uint256"
				},
				{
					"indexed": false,
					"internalType": "uint256",
					"name": "tokenAmount",
					"type": "uint256"
				},
				{
					"indexed": false,
					"internalType": "uint256",
					"name": "finalPrice",
					"type": "uint256"
				},
				{
					"indexed": false,
					"internalType": "uint256",
					"name": "finalTime",
					"type": "uint256"
				},
				{
					"indexed": false,
					"internalType": "bool",
					"name": "isBuy",
					"type": "bool"
				}
			],
			"name": "AuctionEnded",
			"type": "event"
		},
		{
			"anonymous": false,
			"inputs": [],
			"name": "EscapeModeDisabled",
			"type": "event"
		},
		{
			"anonymous": false,
			"inputs": [],
			"name": "EscapeModeEnabled",
			"type": "event"
		},
		{
			"anonymous": false,
			"inputs": [
				{
					"indexed": false,
					"internalType": "address",
					"name": "account",
					"type": "address"
				}
			],
			"name": "Paused",
			"type": "event"
		},
		{
			"anonymous": false,
			"inputs": [
				{
					"indexed": true,
					"internalType": "bytes32",
					"name": "role",
					"type": "bytes32"
				},
				{
					"indexed": true,
					"internalType": "bytes32",
					"name": "previousAdminRole",
					"type": "bytes32"
				},
				{
					"indexed": true,
					"internalType": "bytes32",
					"name": "newAdminRole",
					"type": "bytes32"
				}
			],
			"name": "RoleAdminChanged",
			"type": "event"
		},
		{
			"anonymous": false,
			"inputs": [
				{
					"indexed": true,
					"internalType": "bytes32",
					"name": "role",
					"type": "bytes32"
				},
				{
					"indexed": true,
					"internalType": "address",
					"name": "account",
					"type": "address"
				},
				{
					"indexed": true,
					"internalType": "address",
					"name": "sender",
					"type": "address"
				}
			],
			"name": "RoleGranted",
			"type": "event"
		},
		{
			"anonymous": false,
			"inputs": [
				{
					"indexed": true,
					"internalType": "bytes32",
					"name": "role",
					"type": "bytes32"
				},
				{
					"indexed": true,
					"internalType": "address",
					"name": "account",
					"type": "address"
				},
				{
					"indexed": true,
					"internalType": "address",
					"name": "sender",
					"type": "address"
				}
			],
			"name": "RoleRevoked",
			"type": "event"
		},
		{
			"anonymous": false,
			"inputs": [
				{
					"indexed": false,
					"internalType": "address",
					"name": "token",
					"type": "address"
				}
			],
			"name": "StableCoinAdded",
			"type": "event"
		},
		{
			"anonymous": false,
			"inputs": [
				{
					"indexed": false,
					"internalType": "address",
					"name": "token",
					"type": "address"
				}
			],
			"name": "StableCoinRemoved",
			"type": "event"
		},
		{
			"anonymous": false,
			"inputs": [
				{
					"indexed": true,
					"internalType": "address",
					"name": "token",
					"type": "address"
				},
				{
					"indexed": true,
					"internalType": "address",
					"name": "to",
					"type": "address"
				},
				{
					"indexed": false,
					"internalType": "uint256",
					"name": "amount",
					"type": "uint256"
				}
			],
			"name": "StableCoinTransferred",
			"type": "event"
		},
		{
			"anonymous": false,
			"inputs": [
				{
					"indexed": false,
					"internalType": "address",
					"name": "token",
					"type": "address"
				}
			],
			"name": "TokenAdded",
			"type": "event"
		},
		{
			"anonymous": false,
			"inputs": [
				{
					"indexed": false,
					"internalType": "address",
					"name": "token",
					"type": "address"
				}
			],
			"name": "TokenRemoved",
			"type": "event"
		},
		{
			"anonymous": false,
			"inputs": [
				{
					"indexed": true,
					"internalType": "address",
					"name": "trader",
					"type": "address"
				},
				{
					"indexed": true,
					"internalType": "address",
					"name": "tokenAddress",
					"type": "address"
				},
				{
					"indexed": false,
					"internalType": "uint256",
					"name": "amount",
					"type": "uint256"
				}
			],
			"name": "TokensTransferred",
			"type": "event"
		},
		{
			"anonymous": false,
			"inputs": [
				{
					"indexed": true,
					"internalType": "address",
					"name": "trader",
					"type": "address"
				},
				{
					"indexed": true,
					"internalType": "address",
					"name": "tokenAddress",
					"type": "address"
				},
				{
					"indexed": false,
					"internalType": "uint256",
					"name": "amount",
					"type": "uint256"
				}
			],
			"name": "TokensWithdrawnInEscapeMode",
			"type": "event"
		},
		{
			"anonymous": false,
			"inputs": [
				{
					"indexed": false,
					"internalType": "address",
					"name": "account",
					"type": "address"
				}
			],
			"name": "Unpaused",
			"type": "event"
		},
		{
			"inputs": [],
			"name": "DEFAULT_ADMIN_ROLE",
			"outputs": [
				{
					"internalType": "bytes32",
					"name": "",
					"type": "bytes32"
				}
			],
			"stateMutability": "view",
			"type": "function"
		},
		{
			"inputs": [],
			"name": "PAUSER_ROLE",
			"outputs": [
				{
					"internalType": "bytes32",
					"name": "",
					"type": "bytes32"
				}
			],
			"stateMutability": "view",
			"type": "function"
		},
		{
			"inputs": [],
			"name": "TRADER_ROLE",
			"outputs": [
				{
					"internalType": "bytes32",
					"name": "",
					"type": "bytes32"
				}
			],
			"stateMutability": "view",
			"type": "function"
		},
		{
			"inputs": [],
			"name": "TRANSFER_MANAGER_ROLE",
			"outputs": [
				{
					"internalType": "bytes32",
					"name": "",
					"type": "bytes32"
				}
			],
			"stateMutability": "view",
			"type": "function"
		},
		{
			"inputs": [],
			"name": "activeAuctionCount",
			"outputs": [
				{
					"internalType": "uint256",
					"name": "",
					"type": "uint256"
				}
			],
			"stateMutability": "view",
			"type": "function"
		},
		{
			"inputs": [
				{
					"internalType": "uint256",
					"name": "",
					"type": "uint256"
				}
			],
			"name": "activeAuctionIds",
			"outputs": [
				{
					"internalType": "uint256",
					"name": "",
					"type": "uint256"
				}
			],
			"stateMutability": "view",
			"type": "function"
		},
		{
			"inputs": [
				{
					"internalType": "address",
					"name": "token",
					"type": "address"
				}
			],
			"name": "addStableCoin",
			"outputs": [],
			"stateMutability": "nonpayable",
			"type": "function"
		},
		{
			"inputs": [
				{
					"internalType": "address",
					"name": "token",
					"type": "address"
				}
			],
			"name": "addSupportedToken",
			"outputs": [],
			"stateMutability": "nonpayable",
			"type": "function"
		},
		{
			"inputs": [],
			"name": "auctionCount",
			"outputs": [
				{
					"internalType": "uint256",
					"name": "",
					"type": "uint256"
				}
			],
			"stateMutability": "view",
			"type": "function"
		},
		{
			"inputs": [
				{
					"internalType": "uint256",
					"name": "",
					"type": "uint256"
				}
			],
			"name": "auctionIdToActiveIndex",
			"outputs": [
				{
					"internalType": "uint256",
					"name": "",
					"type": "uint256"
				}
			],
			"stateMutability": "view",
			"type": "function"
		},
		{
			"inputs": [
				{
					"internalType": "uint256",
					"name": "",
					"type": "uint256"
				}
			],
			"name": "auctions",
			"outputs": [
				{
					"internalType": "uint256",
					"name": "requestId",
					"type": "uint256"
				},
				{
					"internalType": "uint256",
					"name": "targetchainId",
					"type": "uint256"
				},
				{
					"internalType": "address",
					"name": "trader",
					"type": "address"
				},
				{
					"internalType": "address",
					"name": "tokenAddress",
					"type": "address"
				},
				{
					"internalType": "address",
					"name": "stableCoinAddress",
					"type": "address"
				},
				{
					"internalType": "uint256",
					"name": "stableCoinAmount",
					"type": "uint256"
				},
				{
					"internalType": "uint256",
					"name": "tokenAmount",
					"type": "uint256"
				},
				{
					"internalType": "uint256",
					"name": "startPrice",
					"type": "uint256"
				},
				{
					"internalType": "uint256",
					"name": "endPrice",
					"type": "uint256"
				},
				{
					"internalType": "uint256",
					"name": "startTime",
					"type": "uint256"
				},
				{
					"internalType": "uint256",
					"name": "endTime",
					"type": "uint256"
				},
				{
					"internalType": "bool",
					"name": "isBuy",
					"type": "bool"
				},
				{
					"internalType": "bool",
					"name": "isActive",
					"type": "bool"
				}
			],
			"stateMutability": "view",
			"type": "function"
		},
		{
			"inputs": [
				{
					"internalType": "uint256[]",
					"name": "_requestIds",
					"type": "uint256[]"
				}
			],
			"name": "batchCancelAuctions",
			"outputs": [],
			"stateMutability": "nonpayable",
			"type": "function"
		},
		{
			"inputs": [
				{
					"internalType": "uint256[]",
					"name": "_requestIds",
					"type": "uint256[]"
				},
				{
					"internalType": "uint256[]",
					"name": "_targetchainIds",
					"type": "uint256[]"
				},
				{
					"internalType": "address[]",
					"name": "_traders",
					"type": "address[]"
				},
				{
					"internalType": "address[]",
					"name": "_tokenAddresses",
					"type": "address[]"
				},
				{
					"internalType": "address[]",
					"name": "_stableCoinAddresses",
					"type": "address[]"
				},
				{
					"internalType": "uint256[]",
					"name": "_stableCoinAmounts",
					"type": "uint256[]"
				},
				{
					"internalType": "uint256[]",
					"name": "_tokenAmounts",
					"type": "uint256[]"
				},
				{
					"internalType": "uint256[]",
					"name": "_startPrices",
					"type": "uint256[]"
				},
				{
					"internalType": "uint256[]",
					"name": "_endPrices",
					"type": "uint256[]"
				},
				{
					"internalType": "uint256[]",
					"name": "_durations",
					"type": "uint256[]"
				},
				{
					"internalType": "bool[]",
					"name": "_isBuys",
					"type": "bool[]"
				}
			],
			"name": "batchCreateAuctions",
			"outputs": [],
			"stateMutability": "nonpayable",
			"type": "function"
		},
		{
			"inputs": [
				{
					"internalType": "uint256[]",
					"name": "requestIds",
					"type": "uint256[]"
				}
			],
			"name": "batchGetAuctionStatus",
			"outputs": [
				{
					"internalType": "bool[]",
					"name": "",
					"type": "bool[]"
				},
				{
					"internalType": "bool[]",
					"name": "",
					"type": "bool[]"
				}
			],
			"stateMutability": "view",
			"type": "function"
		},
		{
			"inputs": [
				{
					"internalType": "uint256",
					"name": "_requestId",
					"type": "uint256"
				}
			],
			"name": "cancelAuction",
			"outputs": [],
			"stateMutability": "nonpayable",
			"type": "function"
		},
		{
			"inputs": [
				{
					"internalType": "uint256",
					"name": "requestId",
					"type": "uint256"
				}
			],
			"name": "checkAuctionExistsAndActive",
			"outputs": [
				{
					"internalType": "bool",
					"name": "exists",
					"type": "bool"
				},
				{
					"internalType": "bool",
					"name": "isActive",
					"type": "bool"
				}
			],
			"stateMutability": "view",
			"type": "function"
		},
		{
			"inputs": [
				{
					"internalType": "uint256",
					"name": "_requestId",
					"type": "uint256"
				},
				{
					"internalType": "uint256",
					"name": "_targetchainId",
					"type": "uint256"
				},
				{
					"internalType": "address",
					"name": "_trader",
					"type": "address"
				},
				{
					"internalType": "address",
					"name": "_tokenAddress",
					"type": "address"
				},
				{
					"internalType": "address",
					"name": "_stableCoinAddress",
					"type": "address"
				},
				{
					"internalType": "uint256",
					"name": "_stableCoinAmount",
					"type": "uint256"
				},
				{
					"internalType": "uint256",
					"name": "_tokenAmount",
					"type": "uint256"
				},
				{
					"internalType": "uint256",
					"name": "_startPrice",
					"type": "uint256"
				},
				{
					"internalType": "uint256",
					"name": "_endPrice",
					"type": "uint256"
				},
				{
					"internalType": "uint256",
					"name": "_duration",
					"type": "uint256"
				},
				{
					"internalType": "bool",
					"name": "_isBuy",
					"type": "bool"
				}
			],
			"name": "createAuction",
			"outputs": [],
			"stateMutability": "nonpayable",
			"type": "function"
		},
		{
			"inputs": [],
			"name": "disableEscapeMode",
			"outputs": [],
			"stateMutability": "nonpayable",
			"type": "function"
		},
		{
			"inputs": [],
			"name": "enableEscapeMode",
			"outputs": [],
			"stateMutability": "nonpayable",
			"type": "function"
		},
		{
			"inputs": [],
			"name": "escapeMode",
			"outputs": [
				{
					"internalType": "bool",
					"name": "",
					"type": "bool"
				}
			],
			"stateMutability": "view",
			"type": "function"
		},
		{
			"inputs": [
				{
					"internalType": "uint256",
					"name": "pageSize",
					"type": "uint256"
				},
				{
					"internalType": "uint256",
					"name": "page",
					"type": "uint256"
				},
				{
					"internalType": "bool",
					"name": "showAll",
					"type": "bool"
				}
			],
			"name": "getActiveAuctionIds",
			"outputs": [
				{
					"internalType": "uint256[]",
					"name": "",
					"type": "uint256[]"
				}
			],
			"stateMutability": "view",
			"type": "function"
		},
		{
			"inputs": [
				{
					"internalType": "uint256",
					"name": "pageSize",
					"type": "uint256"
				},
				{
					"internalType": "uint256",
					"name": "page",
					"type": "uint256"
				},
				{
					"internalType": "bool",
					"name": "showAll",
					"type": "bool"
				}
			],
			"name": "getActiveAuctionsData",
			"outputs": [
				{
					"components": [
						{
							"internalType": "uint256",
							"name": "requestId",
							"type": "uint256"
						},
						{
							"internalType": "uint256",
							"name": "targetchainId",
							"type": "uint256"
						},
						{
							"internalType": "address",
							"name": "trader",
							"type": "address"
						},
						{
							"internalType": "address",
							"name": "tokenAddress",
							"type": "address"
						},
						{
							"internalType": "address",
							"name": "stableCoinAddress",
							"type": "address"
						},
						{
							"internalType": "uint256",
							"name": "stableCoinAmount",
							"type": "uint256"
						},
						{
							"internalType": "uint256",
							"name": "tokenAmount",
							"type": "uint256"
						},
						{
							"internalType": "uint256",
							"name": "startPrice",
							"type": "uint256"
						},
						{
							"internalType": "uint256",
							"name": "endPrice",
							"type": "uint256"
						},
						{
							"internalType": "uint256",
							"name": "startTime",
							"type": "uint256"
						},
						{
							"internalType": "uint256",
							"name": "endTime",
							"type": "uint256"
						},
						{
							"internalType": "bool",
							"name": "isBuy",
							"type": "bool"
						},
						{
							"internalType": "bool",
							"name": "isActive",
							"type": "bool"
						}
					],
					"internalType": "struct IAuctionStructsEvents.TradeRequest[]",
					"name": "",
					"type": "tuple[]"
				}
			],
			"stateMutability": "view",
			"type": "function"
		},
		{
			"inputs": [
				{
					"internalType": "address",
					"name": "trader",
					"type": "address"
				},
				{
					"internalType": "uint256",
					"name": "page",
					"type": "uint256"
				},
				{
					"internalType": "uint256",
					"name": "pageSize",
					"type": "uint256"
				}
			],
			"name": "getAllTraderTokenBalances",
			"outputs": [
				{
					"internalType": "address[]",
					"name": "tokenAddresses",
					"type": "address[]"
				},
				{
					"internalType": "uint256[]",
					"name": "balances",
					"type": "uint256[]"
				}
			],
			"stateMutability": "view",
			"type": "function"
		},
		{
			"inputs": [
				{
					"internalType": "uint256",
					"name": "requestId",
					"type": "uint256"
				}
			],
			"name": "getAuctionDetails",
			"outputs": [
				{
					"components": [
						{
							"internalType": "uint256",
							"name": "requestId",
							"type": "uint256"
						},
						{
							"internalType": "uint256",
							"name": "targetchainId",
							"type": "uint256"
						},
						{
							"internalType": "address",
							"name": "trader",
							"type": "address"
						},
						{
							"internalType": "address",
							"name": "tokenAddress",
							"type": "address"
						},
						{
							"internalType": "address",
							"name": "stableCoinAddress",
							"type": "address"
						},
						{
							"internalType": "uint256",
							"name": "stableCoinAmount",
							"type": "uint256"
						},
						{
							"internalType": "uint256",
							"name": "tokenAmount",
							"type": "uint256"
						},
						{
							"internalType": "uint256",
							"name": "startPrice",
							"type": "uint256"
						},
						{
							"internalType": "uint256",
							"name": "endPrice",
							"type": "uint256"
						},
						{
							"internalType": "uint256",
							"name": "startTime",
							"type": "uint256"
						},
						{
							"internalType": "uint256",
							"name": "endTime",
							"type": "uint256"
						},
						{
							"internalType": "bool",
							"name": "isBuy",
							"type": "bool"
						},
						{
							"internalType": "bool",
							"name": "isActive",
							"type": "bool"
						}
					],
					"internalType": "struct IAuctionStructsEvents.TradeRequest",
					"name": "",
					"type": "tuple"
				}
			],
			"stateMutability": "view",
			"type": "function"
		},
		{
			"inputs": [
				{
					"internalType": "uint256",
					"name": "requestId",
					"type": "uint256"
				}
			],
			"name": "getAuctionEndPrice",
			"outputs": [
				{
					"internalType": "uint256",
					"name": "",
					"type": "uint256"
				}
			],
			"stateMutability": "view",
			"type": "function"
		},
		{
			"inputs": [
				{
					"internalType": "uint256",
					"name": "requestId",
					"type": "uint256"
				}
			],
			"name": "getAuctionEndTime",
			"outputs": [
				{
					"internalType": "uint256",
					"name": "",
					"type": "uint256"
				}
			],
			"stateMutability": "view",
			"type": "function"
		},
		{
			"inputs": [
				{
					"internalType": "uint256",
					"name": "requestId",
					"type": "uint256"
				}
			],
			"name": "getAuctionIsBuy",
			"outputs": [
				{
					"internalType": "bool",
					"name": "",
					"type": "bool"
				}
			],
			"stateMutability": "view",
			"type": "function"
		},
		{
			"inputs": [
				{
					"internalType": "uint256",
					"name": "requestId",
					"type": "uint256"
				}
			],
			"name": "getAuctionStableCoinAddress",
			"outputs": [
				{
					"internalType": "address",
					"name": "",
					"type": "address"
				}
			],
			"stateMutability": "view",
			"type": "function"
		},
		{
			"inputs": [
				{
					"internalType": "uint256",
					"name": "requestId",
					"type": "uint256"
				}
			],
			"name": "getAuctionStableCoinAmount",
			"outputs": [
				{
					"internalType": "uint256",
					"name": "",
					"type": "uint256"
				}
			],
			"stateMutability": "view",
			"type": "function"
		},
		{
			"inputs": [
				{
					"internalType": "uint256",
					"name": "requestId",
					"type": "uint256"
				}
			],
			"name": "getAuctionStartPrice",
			"outputs": [
				{
					"internalType": "uint256",
					"name": "",
					"type": "uint256"
				}
			],
			"stateMutability": "view",
			"type": "function"
		},
		{
			"inputs": [
				{
					"internalType": "uint256",
					"name": "requestId",
					"type": "uint256"
				}
			],
			"name": "getAuctionStartTime",
			"outputs": [
				{
					"internalType": "uint256",
					"name": "",
					"type": "uint256"
				}
			],
			"stateMutability": "view",
			"type": "function"
		},
		{
			"inputs": [
				{
					"internalType": "uint256",
					"name": "requestId",
					"type": "uint256"
				}
			],
			"name": "getAuctionTargetChainId",
			"outputs": [
				{
					"internalType": "uint256",
					"name": "",
					"type": "uint256"
				}
			],
			"stateMutability": "view",
			"type": "function"
		},
		{
			"inputs": [
				{
					"internalType": "uint256",
					"name": "requestId",
					"type": "uint256"
				}
			],
			"name": "getAuctionTokenAddress",
			"outputs": [
				{
					"internalType": "address",
					"name": "",
					"type": "address"
				}
			],
			"stateMutability": "view",
			"type": "function"
		},
		{
			"inputs": [
				{
					"internalType": "uint256",
					"name": "requestId",
					"type": "uint256"
				}
			],
			"name": "getAuctionTokenAmount",
			"outputs": [
				{
					"internalType": "uint256",
					"name": "",
					"type": "uint256"
				}
			],
			"stateMutability": "view",
			"type": "function"
		},
		{
			"inputs": [
				{
					"internalType": "uint256",
					"name": "requestId",
					"type": "uint256"
				}
			],
			"name": "getAuctionTrader",
			"outputs": [
				{
					"internalType": "address",
					"name": "",
					"type": "address"
				}
			],
			"stateMutability": "view",
			"type": "function"
		},
		{
			"inputs": [
				{
					"internalType": "address",
					"name": "targettokenAddress",
					"type": "address"
				}
			],
			"name": "getIncompleteAuctionsByToken",
			"outputs": [
				{
					"internalType": "uint256[]",
					"name": "requestIds",
					"type": "uint256[]"
				},
				{
					"internalType": "uint256[]",
					"name": "currentPrices",
					"type": "uint256[]"
				},
				{
					"internalType": "bool[]",
					"name": "isBuyArray",
					"type": "bool[]"
				}
			],
			"stateMutability": "view",
			"type": "function"
		},
		{
			"inputs": [
				{
					"internalType": "bytes32",
					"name": "role",
					"type": "bytes32"
				}
			],
			"name": "getRoleAdmin",
			"outputs": [
				{
					"internalType": "bytes32",
					"name": "",
					"type": "bytes32"
				}
			],
			"stateMutability": "view",
			"type": "function"
		},
		{
			"inputs": [
				{
					"internalType": "address",
					"name": "trader",
					"type": "address"
				},
				{
					"internalType": "address",
					"name": "tokenAddress",
					"type": "address"
				}
			],
			"name": "getTraderTokenBalance",
			"outputs": [
				{
					"internalType": "uint256",
					"name": "",
					"type": "uint256"
				}
			],
			"stateMutability": "view",
			"type": "function"
		},
		{
			"inputs": [
				{
					"internalType": "bytes32",
					"name": "role",
					"type": "bytes32"
				},
				{
					"internalType": "address",
					"name": "account",
					"type": "address"
				}
			],
			"name": "grantRole",
			"outputs": [],
			"stateMutability": "nonpayable",
			"type": "function"
		},
		{
			"inputs": [
				{
					"internalType": "bytes32",
					"name": "role",
					"type": "bytes32"
				},
				{
					"internalType": "address",
					"name": "account",
					"type": "address"
				}
			],
			"name": "hasRole",
			"outputs": [
				{
					"internalType": "bool",
					"name": "",
					"type": "bool"
				}
			],
			"stateMutability": "view",
			"type": "function"
		},
		{
			"inputs": [],
			"name": "pause",
			"outputs": [],
			"stateMutability": "nonpayable",
			"type": "function"
		},
		{
			"inputs": [],
			"name": "paused",
			"outputs": [
				{
					"internalType": "bool",
					"name": "",
					"type": "bool"
				}
			],
			"stateMutability": "view",
			"type": "function"
		},
		{
			"inputs": [],
			"name": "picweUSD",
			"outputs": [
				{
					"internalType": "contract IPicweUSD",
					"name": "",
					"type": "address"
				}
			],
			"stateMutability": "view",
			"type": "function"
		},
		{
			"inputs": [],
			"name": "precisionFactor",
			"outputs": [
				{
					"internalType": "uint8",
					"name": "",
					"type": "uint8"
				}
			],
			"stateMutability": "view",
			"type": "function"
		},
		{
			"inputs": [
				{
					"internalType": "uint256",
					"name": "_requestId",
					"type": "uint256"
				}
			],
			"name": "proxyBuy",
			"outputs": [],
			"stateMutability": "nonpayable",
			"type": "function"
		},
		{
			"inputs": [
				{
					"internalType": "uint256",
					"name": "_requestId",
					"type": "uint256"
				}
			],
			"name": "proxySell",
			"outputs": [],
			"stateMutability": "nonpayable",
			"type": "function"
		},
		{
			"inputs": [
				{
					"internalType": "address",
					"name": "token",
					"type": "address"
				}
			],
			"name": "removeStableCoin",
			"outputs": [],
			"stateMutability": "nonpayable",
			"type": "function"
		},
		{
			"inputs": [
				{
					"internalType": "address",
					"name": "token",
					"type": "address"
				}
			],
			"name": "removeSupportedToken",
			"outputs": [],
			"stateMutability": "nonpayable",
			"type": "function"
		},
		{
			"inputs": [
				{
					"internalType": "bytes32",
					"name": "role",
					"type": "bytes32"
				},
				{
					"internalType": "address",
					"name": "callerConfirmation",
					"type": "address"
				}
			],
			"name": "renounceRole",
			"outputs": [],
			"stateMutability": "nonpayable",
			"type": "function"
		},
		{
			"inputs": [
				{
					"internalType": "bytes32",
					"name": "role",
					"type": "bytes32"
				},
				{
					"internalType": "address",
					"name": "account",
					"type": "address"
				}
			],
			"name": "revokeRole",
			"outputs": [],
			"stateMutability": "nonpayable",
			"type": "function"
		},
		{
			"inputs": [
				{
					"internalType": "uint8",
					"name": "_precisionFactor",
					"type": "uint8"
				}
			],
			"name": "setPrecisionFactor",
			"outputs": [],
			"stateMutability": "nonpayable",
			"type": "function"
		},
		{
			"inputs": [
				{
					"internalType": "address",
					"name": "",
					"type": "address"
				}
			],
			"name": "supportedStableCoins",
			"outputs": [
				{
					"internalType": "bool",
					"name": "",
					"type": "bool"
				}
			],
			"stateMutability": "view",
			"type": "function"
		},
		{
			"inputs": [
				{
					"internalType": "uint256",
					"name": "",
					"type": "uint256"
				}
			],
			"name": "supportedTokenList",
			"outputs": [
				{
					"internalType": "address",
					"name": "",
					"type": "address"
				}
			],
			"stateMutability": "view",
			"type": "function"
		},
		{
			"inputs": [
				{
					"internalType": "address",
					"name": "",
					"type": "address"
				}
			],
			"name": "supportedTokens",
			"outputs": [
				{
					"internalType": "bool",
					"name": "",
					"type": "bool"
				}
			],
			"stateMutability": "view",
			"type": "function"
		},
		{
			"inputs": [
				{
					"internalType": "bytes4",
					"name": "interfaceId",
					"type": "bytes4"
				}
			],
			"name": "supportsInterface",
			"outputs": [
				{
					"internalType": "bool",
					"name": "",
					"type": "bool"
				}
			],
			"stateMutability": "view",
			"type": "function"
		},
		{
			"inputs": [
				{
					"internalType": "address",
					"name": "",
					"type": "address"
				},
				{
					"internalType": "address",
					"name": "",
					"type": "address"
				}
			],
			"name": "traderTokenBalances",
			"outputs": [
				{
					"internalType": "uint256",
					"name": "",
					"type": "uint256"
				}
			],
			"stateMutability": "view",
			"type": "function"
		},
		{
			"inputs": [
				{
					"internalType": "address",
					"name": "token",
					"type": "address"
				},
				{
					"internalType": "address",
					"name": "to",
					"type": "address"
				},
				{
					"internalType": "uint256",
					"name": "amount",
					"type": "uint256"
				}
			],
			"name": "transferStableCoin",
			"outputs": [],
			"stateMutability": "nonpayable",
			"type": "function"
		},
		{
			"inputs": [
				{
					"internalType": "address",
					"name": "trader",
					"type": "address"
				},
				{
					"internalType": "address",
					"name": "tokenAddress",
					"type": "address"
				}
			],
			"name": "transferTokensToTrader",
			"outputs": [],
			"stateMutability": "nonpayable",
			"type": "function"
		},
		{
			"inputs": [],
			"name": "unpause",
			"outputs": [],
			"stateMutability": "nonpayable",
			"type": "function"
		},
		{
			"inputs": [
				{
					"internalType": "address",
					"name": "tokenAddress",
					"type": "address"
				}
			],
			"name": "withdrawTokensInEscapeMode",
			"outputs": [],
			"stateMutability": "nonpayable",
			"type": "function"
		}
	]
}