{
	"data": {
		"bytecode": {
			"linkReferences": {},
			"object": "60806040526032600a556064600b556706f05b59d3b20000600c55600d805460ff19166009179055348015610032575f80fd5b50604051613eca380380613eca83398101604081905261005191610208565b6001805460ff199081168255600d80546001600160a01b0380891661010002610100600160a81b0319909216919091179091558581165f9081526004602052604080822080548516861790559186168152908120805490921690921790556100b99033610144565b506100e47ffacaf2747a7486cf5730e9265973fb54447d3ace6e7e4711f6360826b073194182610144565b5061010f7f183175b7b980894e2ea4c7ef510cf97a6819a85ee72e9e5b0186e21c7db90e8433610144565b5061013a7f65d7a28e3265b37a6474929f336521b332c1681b933f6cb9f3376673440d862a82610144565b5050505050610259565b5f828152602081815260408083206001600160a01b038516845290915281205460ff166101e4575f838152602081815260408083206001600160a01b03861684529091529020805460ff1916600117905561019c3390565b6001600160a01b0316826001600160a01b0316847f2f8788117e7eff1d82e926ec794901d17c78024a50270940304540a733656f0d60405160405180910390a45060016101e7565b505f5b92915050565b80516001600160a01b0381168114610203575f80fd5b919050565b5f805f806080858703121561021b575f80fd5b610224856101ed565b9350610232602086016101ed565b9250610240604086016101ed565b915061024e606086016101ed565b905092959194509250565b613c64806102665f395ff3fe608060405234801561000f575f80fd5b506004361061037d575f3560e01c80638be694c7116101d4578063d52dddf411610109578063e6d40dad116100a9578063fa79810311610079578063fa79810314610847578063faf5e6b21461085a578063fc1b31e41461086d578063fcc198f414610880575f80fd5b8063e6d40dad146107eb578063e74b981b1461080d578063e853888914610820578063f0a56fc814610833575f80fd5b8063daa80c70116100e4578063daa80c7014610796578063dcf07b14146107a9578063e1c99d1b146107b1578063e63ab1e9146107c4575f80fd5b8063d52dddf414610740578063d547741f14610770578063d8a4676f14610783575f80fd5b8063ae06c1b711610174578063bb60ef611161014f578063bb60ef61146106d8578063c1c117eb146106eb578063c43a7fa1146106fe578063c58343ef14610720575f80fd5b8063ae06c1b71461069f578063b3c1f5d8146106b2578063ba93851d146106c5575f80fd5b806397faedd3116101af57806397faedd31461065d5780639d902fc014610670578063a001ecdd1461068f578063a217fddf14610698575f80fd5b80638be694c71461062e57806391d1485414610641578063954d046a14610654575f80fd5b806346904840116102b55780635e55623411610255578063688fe4d211610225578063688fe4d2146105e05780637819126814610600578063795a25ac146106135780638456cb5914610626575f80fd5b80635e5562341461059e5780635e97a86e146105b157806364bfd994146105c457806367b50af9146105d7575f80fd5b806351bb5dff1161029057806351bb5dff1461053757806354ce61b11461054a5780635badbe4c1461058a5780635c975abb14610593575f80fd5b806346904840146104e157806347a5d76d146105115780634eab080314610524575f80fd5b8063248a9ca31161032057806339bea75e116102fb57806339bea75e1461047f5780633b5dcd25146104a65780633f4ba83a146104b95780634062f89b146104c1575f80fd5b8063248a9ca3146104375780632f2ff15d1461045957806336568abe1461046c575f80fd5b8063076f917a1161035b578063076f917a146103d15780630c8f78fb146103e45780631c588e09146103f75780632352cb8e14610418575f80fd5b806301ffc9a714610381578063045f1438146103a957806305f10e8a146103be575b5f80fd5b61039461038f366004613353565b610889565b60405190151581526020015b60405180910390f35b6103bc6103b736600461337a565b6108bf565b005b6103bc6103cc36600461337a565b610a57565b6103bc6103df36600461337a565b610cd4565b6103bc6103f236600461337a565b610d4b565b61040a61040536600461337a565b610df8565b6040519081526020016103a0565b61040a61042636600461337a565b60066020525f908152604090205481565b61040a61044536600461337a565b5f9081526020819052604090206001015490565b6103bc6104673660046133ac565b610e2d565b6103bc61047a3660046133ac565b610e57565b61040a7f183175b7b980894e2ea4c7ef510cf97a6819a85ee72e9e5b0186e21c7db90e8481565b6103bc6104b43660046133d6565b610e8f565b6103bc610ec2565b6104d46104cf366004613459565b610ef7565b6040516103a0919061348f565b600d546104f99061010090046001600160a01b031681565b6040516001600160a01b0390911681526020016103a0565b6103bc61051f3660046134d1565b61101a565b6103bc610532366004613597565b61121a565b6103bc6105453660046135c9565b611266565b61040a6105583660046135e2565b6001600160a01b039283165f908152600360209081526040808320948352938152838220929094168152925290205490565b61040a60095481565b60015460ff16610394565b6103bc6105ac36600461361b565b6112f7565b6103bc6105bf366004613663565b6114c9565b6103bc6105d236600461337a565b611560565b61040a600c5481565b6105f36105ee366004613459565b611630565b6040516103a09190613750565b6103bc61060e3660046133d6565b6117a6565b6104f961062136600461337a565b611abb565b6103bc611af9565b6103bc61063c366004613793565b611b2b565b61039461064f3660046133ac565b611bb2565b61040a60085481565b61039461066b36600461337a565b611bda565b600d5461067d9060ff1681565b60405160ff90911681526020016103a0565b61040a600a5481565b61040a5f81565b6103bc6106ad36600461337a565b611c12565b6103bc6106c03660046135c9565b611c73565b6103bc6106d336600461337a565b611d38565b6103bc6106e6366004613597565b6120e5565b6103bc6106f9366004613793565b612131565b61039461070c36600461337a565b60056020525f908152604090205460ff1681565b61073361072e36600461337a565b6121b8565b6040516103a091906137f8565b61040a61074e3660046135e2565b600360209081525f938452604080852082529284528284209052825290205481565b6103bc61077e3660046133ac565b612293565b61067d61079136600461337a565b6122b7565b6103bc6107a4366004613597565b6122f4565b60085461040a565b61040a6107bf36600461337a565b612340565b61040a7f65d7a28e3265b37a6474929f336521b332c1681b933f6cb9f3376673440d862a81565b6103946107f93660046135c9565b60046020525f908152604090205460ff1681565b6103bc61081b3660046135c9565b61235f565b6104f961082e36600461337a565b6123f8565b61040a5f80516020613c0f83398151915281565b61040a61085536600461337a565b612436565b6103bc61086836600461337a565b61246b565b6103bc61087b3660046134d1565b6124ed565b61040a600b5481565b5f6001600160e01b03198216637965db0b60e01b14806108b957506301ffc9a760e01b6001600160e01b03198316145b92915050565b6108c7612a3e565b5f81815260026020526040902060018101546001600160a01b031633148061090157506109015f80516020613c0f83398151915233611bb2565b6109265760405162461bcd60e51b815260040161091d90613807565b60405180910390fd5b600a81015460ff161561094b5760405162461bcd60e51b815260040161091d90613848565b600a810154610100900460ff16156109755760405162461bcd60e51b815260040161091d90613874565b5f8281526005602052604090205460ff16156109d35760405162461bcd60e51b815260206004820152601e60248201527f43616e63656c6c6174696f6e20616c726561647920696e697469617465640000604482015260640161091d565b5f8281526005602052604090819020805460ff19166001908117909155820154825460028401546003850154600a86015494516001600160a01b039485169593947f112b226ccab95b40b9e7ecf69ed52c4f2c4ab9780320d319c78f61f6de45e2ec94610a4b94939091169160ff91909116906138a1565b60405180910390a35050565b5f80516020613c0f833981519152610a6e81612a64565b5f82815260026020908152604080832060059092529091205460ff16610ad65760405162461bcd60e51b815260206004820152601a60248201527f43616e63656c6c6174696f6e206e6f7420696e69746961746564000000000000604482015260640161091d565b600a81015460ff1615610afb5760405162461bcd60e51b815260040161091d90613848565b600a810154610100900460ff1615610b255760405162461bcd60e51b815260040161091d90613874565b600d545f90610b389060ff16600a6139b9565b8260090154610b4791906139db565b600d549091505f908290610b5f9060ff1660126139ee565b610b6a90600a6139b9565b8460060154610b799190613a07565b610b8391906139db565b600d549091505f908390610b9b9060ff1660126139ee565b610ba690600a6139b9565b600c54610bb39190613a07565b610bbd91906139db565b90505f81612710600b5485610bd29190613a07565b610bdc91906139db565b610be69190613a1e565b60018601546001600160a01b039081165f90815260036020818152604080842060028c015485528252808420928b015490941683525290812080549293508392909190610c34908490613a31565b9091555050600a8501805461ff0019166102001790555f878152600560205260409020805460ff19169055610c6887612a6e565b6001850154855460028701546003880154600a8901546040516001600160a01b03958616957ff9af3004acf8c0a1b894f2cda23578e7e848f811d582d389989a18fb1caed8b994610cc394909391169160ff909116906138a1565b60405180910390a350505050505050565b5f610cde81612a64565b6064821115610d455760405162461bcd60e51b815260206004820152602d60248201527f43616e63656c6c6174696f6e206665652070657263656e746167652063616e6e60448201526c06f74206578636565642031303609c1b606482015260840161091d565b50600b55565b5f80516020613c0f833981519152610d6281612a64565b5f8211610dbb5760405162461bcd60e51b815260206004820152602160248201527f47617320616d6f756e74206d7573742062652067726561746572207468616e206044820152600360fc1b606482015260840161091d565b600c8290556040518281527f88ffd10b455c91c297384c9e5ade87d24040aca0a2c14b613f20ef0706425f43906020015b60405180910390a15050565b5f815f03610e185760405162461bcd60e51b815260040161091d90613a44565b505f9081526002602052604090206006015490565b5f82815260208190526040902060010154610e4781612a64565b610e518383612b2d565b50505050565b6001600160a01b0381163314610e805760405163334bd91960e11b815260040160405180910390fd5b610e8a8282612bbc565b505050565b610e97612a3e565b610ea5848a85858c8c612c25565b610eb788888888888e8989895f612e30565b505050505050505050565b7f65d7a28e3265b37a6474929f336521b332c1681b933f6cb9f3376673440d862a610eec81612a64565b610ef4613102565b50565b60605f808315610f0c5750506008545f610f58565b85610f178187613a07565b600854610f249190613a31565b610f2e9190613a31565b90505f610f3b8787613a07565b600854610f489190613a31565b9050610f548282613a31565b9250505b5f8267ffffffffffffffff811115610f7257610f726134f1565b604051908082528060200260200182016040528015610f9b578160200160208202803683370190505b5090505f5b8381101561100d57600783600183600854610fbb9190613a31565b610fc59190613a31565b610fcf9190613a31565b81548110610fdf57610fdf613a74565b905f5260205f200154828281518110610ffa57610ffa613a74565b6020908102919091010152600101610fa0565b50925050505b9392505050565b5f80516020613c0f83398151915261103181612a64565b5f838152600260205260409020600a810154610100900460ff16156110685760405162461bcd60e51b815260040161091d90613874565b600a81015460ff1661108c5760405162461bcd60e51b815260040161091d90613a88565b600d545f9061109f9060ff16600a6139b9565b6110a990856139db565b600d549091505f9082906110c19060ff1660126139ee565b6110cc90600a6139b9565b84600601546110db9190613a07565b6110e591906139db565b60018401546001600160a01b039081165f90815260036020818152604080842060028a0154855282528084209289015490941683525290812080549293508392909190611133908490613a1e565b9091555050600a8301805461ff00191661010017905561115286612a6e565b826001015f9054906101000a90046001600160a01b03166001600160a01b0316867fc1a6bf08dcc3e3a120ddd2394d7c09126f65f7942d7d8666a57aaeb25e3deb9e8560020154866003015f9054906101000a90046001600160a01b0316876004015f9054906101000a90046001600160a01b0316886005015f9054906101000a90046001600160a01b03168960060154888d8c600a015f9054906101000a900460ff1660405161120a989796959493929190613ab3565b60405180910390a3505050505050565b5f80516020613c0f83398151915261123181612a64565b5f5b8251811015610e8a5761125e83828151811061125157611251613a74565b6020026020010151611d38565b600101611233565b5f61127081612a64565b6001600160a01b0382165f9081526004602052604090205460ff166112a75760405162461bcd60e51b815260040161091d90613afa565b6001600160a01b0382165f81815260046020908152604091829020805460ff1916905590519182527ff193dfa890a710dfc199b9022c3a036ff38a5513dce4fd5d2aff7704f7f0957d9101610dec565b7f183175b7b980894e2ea4c7ef510cf97a6819a85ee72e9e5b0186e21c7db90e8461132181612a64565b6001600160a01b0384165f9081526004602052604090205460ff166113585760405162461bcd60e51b815260040161091d90613afa565b6040516370a0823160e01b815230600482015282906001600160a01b038616906370a0823190602401602060405180830381865afa15801561139c573d5f803e3d5ffd5b505050506040513d601f19601f820116820180604052508101906113c09190613b27565b10156114055760405162461bcd60e51b8152602060048201526014602482015273496e73756666696369656e742062616c616e636560601b604482015260640161091d565b60405163a9059cbb60e01b81526001600160a01b0384811660048301526024820184905285169063a9059cbb906044016020604051808303815f875af1158015611451573d5f803e3d5ffd5b505050506040513d601f19601f820116820180604052508101906114759190613b3e565b50826001600160a01b0316846001600160a01b03167f7c1f0fc7960c40eca97bca5beab93d5405c142c505317e944e79085bb4676fd8846040516114bb91815260200190565b60405180910390a350505050565b5f6114d381612a64565b60018260ff16101580156114eb575060128260ff1611155b6115495760405162461bcd60e51b815260206004820152602960248201527f507265636973696f6e20666163746f72206d757374206265206265747765656e6044820152680406240c2dcc84062760bb1b606482015260840161091d565b50600d805460ff191660ff92909216919091179055565b5f80516020613c0f83398151915261157781612a64565b5f828152600260205260409020600a810154610100900460ff16156115ae5760405162461bcd60e51b815260040161091d90613874565b600a8101805461ff0019166102001790556115c883612a6e565b6001810154815460028301546003840154600a8501546040516001600160a01b03958616957ff9af3004acf8c0a1b894f2cda23578e7e848f811d582d389989a18fb1caed8b99461162394909391169160ff909116906138a1565b60405180910390a3505050565b60605f61163e858585610ef7565b90505f815167ffffffffffffffff81111561165b5761165b6134f1565b60405190808252806020026020018201604052801561169457816020015b6116816132d5565b8152602001906001900390816116795790505b5090505f5b825181101561179c5760025f8483815181106116b7576116b7613a74565b60209081029190910181015182528181019290925260409081015f208151610180810183528154815260018201546001600160a01b0390811694820194909452600282015492810192909252600381015483166060830152600481015483166080830152600581015490921660a0820152600682015460c0820152600782015460e08201526008820154610100808301919091526009830154610120830152600a9092015460ff8082161515610140840152929004909116610160820152825183908390811061178957611789613a74565b6020908102919091010152600101611699565b5095945050505050565b6117ae612a3e565b600c548910156118265760405162461bcd60e51b815260206004820152603860248201527f546f6b656e20616d6f756e74206d75737420626520677265617465722074686160448201527f6e206f7220657175616c20746f2067617320616d6f756e740000000000000000606482015260840161091d565b5f856001600160a01b031663313ce5676040518163ffffffff1660e01b8152600401602060405180830381865afa158015611863573d5f803e3d5ffd5b505050506040513d601f19601f820116820180604052508101906118879190613b59565b90505f600c54612710600a548d61189e9190613a07565b6118a891906139db565b6118b29190613a1e565b90505f6118c182601285613154565b90505f6118ce838e613a31565b90505f6118dd82601287613154565b6001600160a01b038b165f9081526004602052604090205490915060ff166119175760405162461bcd60e51b815260040161091d90613afa565b6040516323b872dd60e01b8152336004820152306024820152604481018290526001600160a01b038b16906323b872dd906064016020604051808303815f875af1158015611967573d5f803e3d5ffd5b505050506040513d601f19601f8201168201806040525081019061198b9190613b3e565b6119d75760405162461bcd60e51b815260206004820152601e60248201527f5472616e73666572206f6620737461626c6520636f696e206661696c65640000604482015260640161091d565b600d546040516323b872dd60e01b81523360048201526101009091046001600160a01b039081166024830152604482018590528b16906323b872dd906064016020604051808303815f875af1158015611a32573d5f803e3d5ffd5b505050506040513d601f19601f82011682018060405250810190611a569190613b3e565b611a985760405162461bcd60e51b8152602060048201526013602482015272119959481d1c985b9cd9995c8819985a5b1959606a1b604482015260640161091d565b611aab8d8d8d8d868e8e8e8e6001612e30565b5050505050505050505050505050565b5f815f03611adb5760405162461bcd60e51b815260040161091d90613a44565b505f908152600260205260409020600301546001600160a01b031690565b7f65d7a28e3265b37a6474929f336521b332c1681b933f6cb9f3376673440d862a611b2381612a64565b610ef46131e6565b5f80516020613c0f833981519152611b4281612a64565b8151835114611b635760405162461bcd60e51b815260040161091d90613b74565b5f5b8351811015610e5157611baa848281518110611b8357611b83613a74565b6020026020010151848381518110611b9d57611b9d613a74565b602002602001015161101a565b600101611b65565b5f918252602082815260408084206001600160a01b0393909316845291905290205460ff1690565b5f815f03611bfa5760405162461bcd60e51b815260040161091d90613a44565b505f908152600260205260409020600a015460ff1690565b5f611c1c81612a64565b6064821115611c6d5760405162461bcd60e51b815260206004820181905260248201527f4665652070657263656e746167652063616e6e6f742065786365656420313030604482015260640161091d565b50600a55565b5f611c7d81612a64565b6001600160a01b0382165f9081526004602052604090205460ff1615611ce55760405162461bcd60e51b815260206004820152601760248201527f546f6b656e20616c726561647920737570706f72746564000000000000000000604482015260640161091d565b6001600160a01b0382165f81815260046020908152604091829020805460ff1916600117905590519182527f6cfb39ae69ed806379425cd4dfa4138d579b95bdbf841cecca4f5ff916beecfb9101610dec565b5f80516020613c0f833981519152611d4f81612a64565b5f82815260026020908152604080832060059092529091205460ff16611db75760405162461bcd60e51b815260206004820152601a60248201527f43616e63656c6c6174696f6e206e6f7420696e69746961746564000000000000604482015260640161091d565b600a81015460ff16611ddb5760405162461bcd60e51b815260040161091d90613a88565b600a810154610100900460ff1615611e055760405162461bcd60e51b815260040161091d90613874565b60058101546040805163313ce56760e01b815290515f926001600160a01b03169163313ce5679160048083019260209291908290030181865afa158015611e4e573d5f803e3d5ffd5b505050506040513d601f19601f82011682018060405250810190611e729190613b59565b90505f600c54612710600b548560060154611e8d9190613a07565b611e9791906139db565b611ea19190613a1e565b90505f611eb082601285613221565b90505f828560060154611ec39190613a31565b90505f611ed282601287613221565b6005870154600188015460405163a9059cbb60e01b81526001600160a01b03918216600482015260248101849052929350169063a9059cbb906044016020604051808303815f875af1158015611f2a573d5f803e3d5ffd5b505050506040513d601f19601f82011682018060405250810190611f4e9190613b3e565b611f8a5760405162461bcd60e51b815260206004820152600d60248201526c1499599d5b990819985a5b1959609a1b604482015260640161091d565b6005860154600d5460405163a9059cbb60e01b81526001600160a01b03610100909204821660048201526024810186905291169063a9059cbb906044016020604051808303815f875af1158015611fe3573d5f803e3d5ffd5b505050506040513d601f19601f820116820180604052508101906120079190613b3e565b6120495760405162461bcd60e51b8152602060048201526013602482015272119959481d1c985b9cd9995c8819985a5b1959606a1b604482015260640161091d565b600a8601805461ff0019166102001790555f888152600560205260409020805460ff1916905561207888612a6e565b6001860154865460028801546003890154600a8a01546040516001600160a01b03958616957ff9af3004acf8c0a1b894f2cda23578e7e848f811d582d389989a18fb1caed8b9946120d394909391169160ff909116906138a1565b60405180910390a35050505050505050565b5f80516020613c0f8339815191526120fc81612a64565b5f5b8251811015610e8a5761212983828151811061211c5761211c613a74565b6020026020010151611560565b6001016120fe565b5f80516020613c0f83398151915261214881612a64565b81518351146121695760405162461bcd60e51b815260040161091d90613b74565b5f5b8351811015610e51576121b084828151811061218957612189613a74565b60200260200101518483815181106121a3576121a3613a74565b60200260200101516124ed565b60010161216b565b6121c06132d5565b815f036121df5760405162461bcd60e51b815260040161091d90613a44565b505f908152600260208181526040928390208351610180810185528154815260018201546001600160a01b0390811693820193909352928101549383019390935260038301548116606083015260048301548116608083015260058301541660a0820152600682015460c0820152600782015460e08201526008820154610100808301919091526009830154610120830152600a9092015460ff808216151561014084015292900490911661016082015290565b5f828152602081905260409020600101546122ad81612a64565b610e518383612bbc565b5f815f036122d75760405162461bcd60e51b815260040161091d90613a44565b505f908152600260205260409020600a0154610100900460ff1690565b5f80516020613c0f83398151915261230b81612a64565b5f5b8251811015610e8a5761233883828151811061232b5761232b613a74565b6020026020010151610a57565b60010161230d565b6007818154811061234f575f80fd5b5f91825260209091200154905081565b5f61236981612a64565b6001600160a01b0382166123cf5760405162461bcd60e51b815260206004820152602760248201527f496e76616c696420616464726573733a2063616e6e6f74206265207a65726f206044820152666164647265737360c81b606482015260840161091d565b50600d80546001600160a01b0390921661010002610100600160a81b0319909216919091179055565b5f815f036124185760405162461bcd60e51b815260040161091d90613a44565b505f908152600260205260409020600101546001600160a01b031690565b5f815f036124565760405162461bcd60e51b815260040161091d90613a44565b505f9081526002602052604090206007015490565b612473612a3e565b5f81815260026020526040902060018101546001600160a01b03163314806124ad57506124ad5f80516020613c0f83398151915233611bb2565b6124c95760405162461bcd60e51b815260040161091d90613807565b600a81015460ff1661094b5760405162461bcd60e51b815260040161091d90613a88565b5f80516020613c0f83398151915261250481612a64565b5f838152600260205260409020600a810154610100900460ff161561253b5760405162461bcd60e51b815260040161091d90613874565b600a81015460ff16156125605760405162461bcd60e51b815260040161091d90613848565b60058101546040805163313ce56760e01b815290515f926001600160a01b03169163313ce5679160048083019260209291908290030181865afa1580156125a9573d5f803e3d5ffd5b505050506040513d601f19601f820116820180604052508101906125cd9190613b59565b600d549091505f906125e39060ff16600a6139b9565b6125ed90866139db565b600d549091505f906126039060ff1660126139ee565b61260e90600a6139b9565b82856007015461261e9190613a07565b61262891906139db565b90505f600c54612710600a548461263f9190613a07565b61264991906139db565b6126539190613a1e565b905061266a6126628284613a31565b601286613221565b60058601546040516370a0823160e01b81523060048201526001600160a01b03909116906370a0823190602401602060405180830381865afa1580156126b2573d5f803e3d5ffd5b505050506040513d601f19601f820116820180604052508101906126d69190613b27565b10156127305760405162461bcd60e51b815260206004820152602360248201527f436f6e747261637420646f6573206e6f74206861766520656e6f7567682066756044820152626e647360e81b606482015260840161091d565b6005850154600d546001600160a01b039182169163a9059cbb9161010090041661275c84601289613221565b6040516001600160e01b031960e085901b1681526001600160a01b03909216600483015260248201526044016020604051808303815f875af11580156127a4573d5f803e3d5ffd5b505050506040513d601f19601f820116820180604052508101906127c89190613b3e565b6128205760405162461bcd60e51b8152602060048201526024808201527f466565207472616e7366657220746f2066656520726563697069656e742066616044820152631a5b195960e21b606482015260840161091d565b600585015460018601546001600160a01b039182169163a9059cbb911661285261284a8587613a31565b601289613221565b6040516001600160e01b031960e085901b1681526001600160a01b03909216600483015260248201526044016020604051808303815f875af115801561289a573d5f803e3d5ffd5b505050506040513d601f19601f820116820180604052508101906128be9190613b3e565b6129195760405162461bcd60e51b815260206004820152602660248201527f5472616e73666572206f6620737461626c6520636f696e20746f20757365722060448201526519985a5b195960d21b606482015260840161091d565b600785015460018601546001600160a01b039081165f90815260036020818152604080842060028c015485528252808420928b01549094168352529081208054909190612967908490613a31565b9091555050600a8501805461ff00191661010017905561298688612a6e565b846001015f9054906101000a90046001600160a01b03166001600160a01b0316887fc1a6bf08dcc3e3a120ddd2394d7c09126f65f7942d7d8666a57aaeb25e3deb9e8760020154886003015f9054906101000a90046001600160a01b0316896004015f9054906101000a90046001600160a01b03168a6005015f9054906101000a90046001600160a01b0316888c600701548f8e600a015f9054906101000a900460ff166040516120d3989796959493929190613ab3565b60015460ff1615612a625760405163d93c066560e01b815260040160405180910390fd5b565b610ef48133613275565b5f8181526006602052604081205460078054919291612a8f90600190613a31565b81548110612a9f57612a9f613a74565b905f5260205f20015490508060078381548110612abe57612abe613a74565b5f9182526020808320909101929092558281526006909152604090208290556007805480612aee57612aee613bba565b5f828152602080822083015f1990810183905590920190925584825260069052604081208190556008805491612b2383613bce565b9190505550505050565b5f612b388383611bb2565b612bb5575f838152602081815260408083206001600160a01b03861684529091529020805460ff19166001179055612b6d3390565b6001600160a01b0316826001600160a01b0316847f2f8788117e7eff1d82e926ec794901d17c78024a50270940304540a733656f0d60405160405180910390a45060016108b9565b505f6108b9565b5f612bc78383611bb2565b15612bb5575f838152602081815260408083206001600160a01b0386168085529252808320805460ff1916905551339286917ff6391f5c32d9c69d2a47ea670b442974b53935d1edc7fd64eb21e047a839171b9190a45060016108b9565b600d545f90612c389060ff1660126139ee565b612c4390600a6139b9565b600d54612c549060ff16600a6139b9565b612c5e90866139db565b612c689088613a07565b612c7291906139db565b600d549091505f90612c889060ff1660126139ee565b612c9390600a6139b9565b600d54612ca49060ff16600a6139b9565b612cae90886139db565b612cb89089613a07565b612cc291906139db565b9050600c548211612d2a5760405162461bcd60e51b815260206004820152602c60248201527f546f6b656e20616d6f756e74206d75737420626520677265617465722074686160448201526b1b8819d85cc8185b5bdd5b9d60a21b606482015260840161091d565b335f90815260036020908152604080832087845282528083206001600160a01b0387168452909152902054871115612da45760405162461bcd60e51b815260206004820152601a60248201527f496e73756666696369656e7420746f6b656e2062616c616e6365000000000000604482015260640161091d565b818810158015612db45750808811155b612e265760405162461bcd60e51b815260206004820152603860248201527f537461626c6520636f696e20616d6f756e74206d75737420626520626574776560448201527f656e20656e6420616e6420737461727420616d6f756e74730000000000000000606482015260840161091d565b5050505050505050565b5f60095f8154612e3f90613be3565b919050819055604042901b60808d901b60c046901b1717179050604051806101800160405280828152602001336001600160a01b031681526020018c81526020018b6001600160a01b031681526020018a6001600160a01b03168152602001896001600160a01b0316815260200188815260200187815260200186815260200185815260200183151581526020015f60ff1681525060025f8381526020019081526020015f205f820151815f01556020820151816001015f6101000a8154816001600160a01b0302191690836001600160a01b03160217905550604082015181600201556060820151816003015f6101000a8154816001600160a01b0302191690836001600160a01b031602179055506080820151816004015f6101000a8154816001600160a01b0302191690836001600160a01b0316021790555060a0820151816005015f6101000a8154816001600160a01b0302191690836001600160a01b0316021790555060c0820151816006015560e082015181600701556101008201518160080155610120820151816009015561014082015181600a015f6101000a81548160ff02191690831515021790555061016082015181600a0160016101000a81548160ff021916908360ff160217905550905050600781908060018154018082558091505060019003905f5260205f20015f9091909190915055600160078054905061304e9190613a31565b5f82815260066020526040812091909155600880549161306d83613be3565b9091555050604080518c81526001600160a01b038c811660208301528b8116828401528a1660608201526080810189905260a0810188905260c0810187905260e0810186905261010081018590528315156101208201529051339183917fb4d650dcf47183c4aa01213ab77e8301c06dea37d5612dda99d6f41e3b9a29ab918190036101400190a35050505050505050505050565b61310a6132b2565b6001805460ff191690557f5db9ee0a495bf2e6ff9c91a7834c1ba4fdd244a5e8aa4e537bd38aeae4b073aa335b6040516001600160a01b03909116815260200160405180910390a1565b5f8160ff168360ff1603613169575082611013565b8160ff168360ff16101561319d5761318183836139ee565b61318c90600a6139b9565b6131969085613a07565b9050611013565b5f6131a883856139ee565b6131b390600a6139b9565b90506131bf81866139db565b91506131cb8186613bfb565b156131de576131db600183613a1e565b91505b509392505050565b6131ee612a3e565b6001805460ff1916811790557f62e78cea01bee320cd4e420270b5ea74000d11b0c9f74754ebdbfc544b05a25833613137565b5f8160ff168360ff1603613236575082611013565b8160ff168360ff16101561324e5761318183836139ee565b61325882846139ee565b61326390600a6139b9565b61326d90856139db565b949350505050565b61327f8282611bb2565b6132ae5760405163e2517d3f60e01b81526001600160a01b03821660048201526024810183905260440161091d565b5050565b60015460ff16612a6257604051638dfc202b60e01b815260040160405180910390fd5b6040518061018001604052805f81526020015f6001600160a01b031681526020015f81526020015f6001600160a01b031681526020015f6001600160a01b031681526020015f6001600160a01b031681526020015f81526020015f81526020015f81526020015f81526020015f151581526020015f60ff1681525090565b5f60208284031215613363575f80fd5b81356001600160e01b031981168114611013575f80fd5b5f6020828403121561338a575f80fd5b5035919050565b80356001600160a01b03811681146133a7575f80fd5b919050565b5f80604083850312156133bd575f80fd5b823591506133cd60208401613391565b90509250929050565b5f805f805f805f805f6101208a8c0312156133ef575f80fd5b8935985060208a0135975061340660408b01613391565b965061341460608b01613391565b955061342260808b01613391565b989b979a50959894979660a0860135965060c08601359560e0810135955061010001359350915050565b8015158114610ef4575f80fd5b5f805f6060848603121561346b575f80fd5b833592506020840135915060408401356134848161344c565b809150509250925092565b602080825282518282018190525f918401906040840190835b818110156134c65783518352602093840193909201916001016134a8565b509095945050505050565b5f80604083850312156134e2575f80fd5b50508035926020909101359150565b634e487b7160e01b5f52604160045260245ffd5b5f82601f830112613514575f80fd5b813567ffffffffffffffff81111561352e5761352e6134f1565b8060051b604051601f19603f830116810181811067ffffffffffffffff8211171561355b5761355b6134f1565b604052918252602081850181019290810186841115613578575f80fd5b6020860192505b8383101561179c57823581526020928301920161357f565b5f602082840312156135a7575f80fd5b813567ffffffffffffffff8111156135bd575f80fd5b61326d84828501613505565b5f602082840312156135d9575f80fd5b61101382613391565b5f805f606084860312156135f4575f80fd5b6135fd84613391565b92506020840135915061361260408501613391565b90509250925092565b5f805f6060848603121561362d575f80fd5b61363684613391565b925061364460208501613391565b929592945050506040919091013590565b60ff81168114610ef4575f80fd5b5f60208284031215613673575f80fd5b813561101381613655565b80518252602081015161369c60208401826001600160a01b03169052565b506040810151604083015260608101516136c160608401826001600160a01b03169052565b5060808101516136dc60808401826001600160a01b03169052565b5060a08101516136f760a08401826001600160a01b03169052565b5060c081015160c083015260e081015160e083015261010081015161010083015261012081015161012083015261014081015161373961014084018215159052565b50610160810151610e8a61016084018260ff169052565b602080825282518282018190525f918401906040840190835b818110156134c65761377c83855161367e565b602093909301926101809290920191600101613769565b5f80604083850312156137a4575f80fd5b823567ffffffffffffffff8111156137ba575f80fd5b6137c685828601613505565b925050602083013567ffffffffffffffff8111156137e2575f80fd5b6137ee85828601613505565b9150509250929050565b61018081016108b9828461367e565b60208082526021908201527f4e6f7420617574686f72697a656420746f20696e6974696174652063616e63656040820152601b60fa1b606082015260800190565b602080825260129082015271139bdd0818481cd95b1b081c995c5d595cdd60721b604082015260600190565b60208082526013908201527252657175657374206e6f742070656e64696e6760681b604082015260600190565b9283526001600160a01b039190911660208301521515604082015260600190565b634e487b7160e01b5f52601160045260245ffd5b6001815b6001841115613911578085048111156138f5576138f56138c2565b600184161561390357908102905b60019390931c9280026138da565b935093915050565b5f82613927575060016108b9565b8161393357505f6108b9565b816001811461394957600281146139535761396f565b60019150506108b9565b60ff841115613964576139646138c2565b50506001821b6108b9565b5060208310610133831016604e8410600b8410161715613992575081810a6108b9565b61399e5f1984846138d6565b805f19048211156139b1576139b16138c2565b029392505050565b5f61101360ff841683613919565b634e487b7160e01b5f52601260045260245ffd5b5f826139e9576139e96139c7565b500490565b60ff82811682821603908111156108b9576108b96138c2565b80820281158282048414176108b9576108b96138c2565b808201808211156108b9576108b96138c2565b818103818111156108b9576108b96138c2565b60208082526016908201527514995c5d595cdd08191bd95cc81b9bdd08195e1a5cdd60521b604082015260600190565b634e487b7160e01b5f52603260045260245ffd5b602080825260119082015270139bdd081848189d5e481c995c5d595cdd607a1b604082015260600190565b9788526001600160a01b0396871660208901529486166040880152929094166060860152608085015260a084019290925260c0830191909152151560e08201526101000190565b602080825260139082015272151bdad95b881b9bdd081cdd5c1c1bdc9d1959606a1b604082015260600190565b5f60208284031215613b37575f80fd5b5051919050565b5f60208284031215613b4e575f80fd5b81516110138161344c565b5f60208284031215613b69575f80fd5b815161101381613655565b60208082526026908201527f496e70757420617272617973206d7573742068617665207468652073616d65206040820152650d8cadccee8d60d31b606082015260800190565b634e487b7160e01b5f52603160045260245ffd5b5f81613bdc57613bdc6138c2565b505f190190565b5f60018201613bf457613bf46138c2565b5060010190565b5f82613c0957613c096139c7565b50069056fefacaf2747a7486cf5730e9265973fb54447d3ace6e7e4711f6360826b0731941a264697066735822122055fe29a2195e110b6596b813bb0e303fa53fb72148c3046381359fc74bf8fc5464736f6c634300081a0033",
			"opcodes": "PUSH1 0x80 PUSH1 0x40 MSTORE PUSH1 0x32 PUSH1 0xA SSTORE PUSH1 0x64 PUSH1 0xB SSTORE PUSH8 0x6F05B59D3B20000 PUSH1 0xC SSTORE PUSH1 0xD DUP1 SLOAD PUSH1 0xFF NOT AND PUSH1 0x9 OR SWAP1 SSTORE CALLVALUE DUP1 ISZERO PUSH2 0x32 JUMPI PUSH0 DUP1 REVERT JUMPDEST POP PUSH1 0x40 MLOAD PUSH2 0x3ECA CODESIZE SUB DUP1 PUSH2 0x3ECA DUP4 CODECOPY DUP2 ADD PUSH1 0x40 DUP2 SWAP1 MSTORE PUSH2 0x51 SWAP2 PUSH2 0x208 JUMP JUMPDEST PUSH1 0x1 DUP1 SLOAD PUSH1 0xFF NOT SWAP1 DUP2 AND DUP3 SSTORE PUSH1 0xD DUP1 SLOAD PUSH1 0x1 PUSH1 0x1 PUSH1 0xA0 SHL SUB DUP1 DUP10 AND PUSH2 0x100 MUL PUSH2 0x100 PUSH1 0x1 PUSH1 0xA8 SHL SUB NOT SWAP1 SWAP3 AND SWAP2 SWAP1 SWAP2 OR SWAP1 SWAP2 SSTORE DUP6 DUP2 AND PUSH0 SWAP1 DUP2 MSTORE PUSH1 0x4 PUSH1 0x20 MSTORE PUSH1 0x40 DUP1 DUP3 KECCAK256 DUP1 SLOAD DUP6 AND DUP7 OR SWAP1 SSTORE SWAP2 DUP7 AND DUP2 MSTORE SWAP1 DUP2 KECCAK256 DUP1 SLOAD SWAP1 SWAP3 AND SWAP1 SWAP3 OR SWAP1 SSTORE PUSH2 0xB9 SWAP1 CALLER PUSH2 0x144 JUMP JUMPDEST POP PUSH2 0xE4 PUSH32 0xFACAF2747A7486CF5730E9265973FB54447D3ACE6E7E4711F6360826B0731941 DUP3 PUSH2 0x144 JUMP JUMPDEST POP PUSH2 0x10F PUSH32 0x183175B7B980894E2EA4C7EF510CF97A6819A85EE72E9E5B0186E21C7DB90E84 CALLER PUSH2 0x144 JUMP JUMPDEST POP PUSH2 0x13A PUSH32 0x65D7A28E3265B37A6474929F336521B332C1681B933F6CB9F3376673440D862A DUP3 PUSH2 0x144 JUMP JUMPDEST POP POP POP POP POP PUSH2 0x259 JUMP JUMPDEST PUSH0 DUP3 DUP2 MSTORE PUSH1 0x20 DUP2 DUP2 MSTORE PUSH1 0x40 DUP1 DUP4 KECCAK256 PUSH1 0x1 PUSH1 0x1 PUSH1 0xA0 SHL SUB DUP6 AND DUP5 MSTORE SWAP1 SWAP2 MSTORE DUP2 KECCAK256 SLOAD PUSH1 0xFF AND PUSH2 0x1E4 JUMPI PUSH0 DUP4 DUP2 MSTORE PUSH1 0x20 DUP2 DUP2 MSTORE PUSH1 0x40 DUP1 DUP4 KECCAK256 PUSH1 0x1 PUSH1 0x1 PUSH1 0xA0 SHL SUB DUP7 AND DUP5 MSTORE SWAP1 SWAP2 MSTORE SWAP1 KECCAK256 DUP1 SLOAD PUSH1 0xFF NOT AND PUSH1 0x1 OR SWAP1 SSTORE PUSH2 0x19C CALLER SWAP1 JUMP JUMPDEST PUSH1 0x1 PUSH1 0x1 PUSH1 0xA0 SHL SUB AND DUP3 PUSH1 0x1 PUSH1 0x1 PUSH1 0xA0 SHL SUB AND DUP5 PUSH32 0x2F8788117E7EFF1D82E926EC794901D17C78024A50270940304540A733656F0D PUSH1 0x40 MLOAD PUSH1 0x40 MLOAD DUP1 SWAP2 SUB SWAP1 LOG4 POP PUSH1 0x1 PUSH2 0x1E7 JUMP JUMPDEST POP PUSH0 JUMPDEST SWAP3 SWAP2 POP POP JUMP JUMPDEST DUP1 MLOAD PUSH1 0x1 PUSH1 0x1 PUSH1 0xA0 SHL SUB DUP2 AND DUP2 EQ PUSH2 0x203 JUMPI PUSH0 DUP1 REVERT JUMPDEST SWAP2 SWAP1 POP JUMP JUMPDEST PUSH0 DUP1 PUSH0 DUP1 PUSH1 0x80 DUP6 DUP8 SUB SLT ISZERO PUSH2 0x21B JUMPI PUSH0 DUP1 REVERT JUMPDEST PUSH2 0x224 DUP6 PUSH2 0x1ED JUMP JUMPDEST SWAP4 POP PUSH2 0x232 PUSH1 0x20 DUP7 ADD PUSH2 0x1ED JUMP JUMPDEST SWAP3 POP PUSH2 0x240 PUSH1 0x40 DUP7 ADD PUSH2 0x1ED JUMP JUMPDEST SWAP2 POP PUSH2 0x24E PUSH1 0x60 DUP7 ADD PUSH2 0x1ED JUMP JUMPDEST SWAP1 POP SWAP3 SWAP6 SWAP2 SWAP5 POP SWAP3 POP JUMP JUMPDEST PUSH2 0x3C64 DUP1 PUSH2 0x266 PUSH0 CODECOPY PUSH0 RETURN INVALID PUSH1 0x80 PUSH1 0x40 MSTORE CALLVALUE DUP1 ISZERO PUSH2 0xF JUMPI PUSH0 DUP1 REVERT JUMPDEST POP PUSH1 0x4 CALLDATASIZE LT PUSH2 0x37D JUMPI PUSH0 CALLDATALOAD PUSH1 0xE0 SHR DUP1 PUSH4 0x8BE694C7 GT PUSH2 0x1D4 JUMPI DUP1 PUSH4 0xD52DDDF4 GT PUSH2 0x109 JUMPI DUP1 PUSH4 0xE6D40DAD GT PUSH2 0xA9 JUMPI DUP1 PUSH4 0xFA798103 GT PUSH2 0x79 JUMPI DUP1 PUSH4 0xFA798103 EQ PUSH2 0x847 JUMPI DUP1 PUSH4 0xFAF5E6B2 EQ PUSH2 0x85A JUMPI DUP1 PUSH4 0xFC1B31E4 EQ PUSH2 0x86D JUMPI DUP1 PUSH4 0xFCC198F4 EQ PUSH2 0x880 JUMPI PUSH0 DUP1 REVERT JUMPDEST DUP1 PUSH4 0xE6D40DAD EQ PUSH2 0x7EB JUMPI DUP1 PUSH4 0xE74B981B EQ PUSH2 0x80D JUMPI DUP1 PUSH4 0xE8538889 EQ PUSH2 0x820 JUMPI DUP1 PUSH4 0xF0A56FC8 EQ PUSH2 0x833 JUMPI PUSH0 DUP1 REVERT JUMPDEST DUP1 PUSH4 0xDAA80C70 GT PUSH2 0xE4 JUMPI DUP1 PUSH4 0xDAA80C70 EQ PUSH2 0x796 JUMPI DUP1 PUSH4 0xDCF07B14 EQ PUSH2 0x7A9 JUMPI DUP1 PUSH4 0xE1C99D1B EQ PUSH2 0x7B1 JUMPI DUP1 PUSH4 0xE63AB1E9 EQ PUSH2 0x7C4 JUMPI PUSH0 DUP1 REVERT JUMPDEST DUP1 PUSH4 0xD52DDDF4 EQ PUSH2 0x740 JUMPI DUP1 PUSH4 0xD547741F EQ PUSH2 0x770 JUMPI DUP1 PUSH4 0xD8A4676F EQ PUSH2 0x783 JUMPI PUSH0 DUP1 REVERT JUMPDEST DUP1 PUSH4 0xAE06C1B7 GT PUSH2 0x174 JUMPI DUP1 PUSH4 0xBB60EF61 GT PUSH2 0x14F JUMPI DUP1 PUSH4 0xBB60EF61 EQ PUSH2 0x6D8 JUMPI DUP1 PUSH4 0xC1C117EB EQ PUSH2 0x6EB JUMPI DUP1 PUSH4 0xC43A7FA1 EQ PUSH2 0x6FE JUMPI DUP1 PUSH4 0xC58343EF EQ PUSH2 0x720 JUMPI PUSH0 DUP1 REVERT JUMPDEST DUP1 PUSH4 0xAE06C1B7 EQ PUSH2 0x69F JUMPI DUP1 PUSH4 0xB3C1F5D8 EQ PUSH2 0x6B2 JUMPI DUP1 PUSH4 0xBA93851D EQ PUSH2 0x6C5 JUMPI PUSH0 DUP1 REVERT JUMPDEST DUP1 PUSH4 0x97FAEDD3 GT PUSH2 0x1AF JUMPI DUP1 PUSH4 0x97FAEDD3 EQ PUSH2 0x65D JUMPI DUP1 PUSH4 0x9D902FC0 EQ PUSH2 0x670 JUMPI DUP1 PUSH4 0xA001ECDD EQ PUSH2 0x68F JUMPI DUP1 PUSH4 0xA217FDDF EQ PUSH2 0x698 JUMPI PUSH0 DUP1 REVERT JUMPDEST DUP1 PUSH4 0x8BE694C7 EQ PUSH2 0x62E JUMPI DUP1 PUSH4 0x91D14854 EQ PUSH2 0x641 JUMPI DUP1 PUSH4 0x954D046A EQ PUSH2 0x654 JUMPI PUSH0 DUP1 REVERT JUMPDEST DUP1 PUSH4 0x46904840 GT PUSH2 0x2B5 JUMPI DUP1 PUSH4 0x5E556234 GT PUSH2 0x255 JUMPI DUP1 PUSH4 0x688FE4D2 GT PUSH2 0x225 JUMPI DUP1 PUSH4 0x688FE4D2 EQ PUSH2 0x5E0 JUMPI DUP1 PUSH4 0x78191268 EQ PUSH2 0x600 JUMPI DUP1 PUSH4 0x795A25AC EQ PUSH2 0x613 JUMPI DUP1 PUSH4 0x8456CB59 EQ PUSH2 0x626 JUMPI PUSH0 DUP1 REVERT JUMPDEST DUP1 PUSH4 0x5E556234 EQ PUSH2 0x59E JUMPI DUP1 PUSH4 0x5E97A86E EQ PUSH2 0x5B1 JUMPI DUP1 PUSH4 0x64BFD994 EQ PUSH2 0x5C4 JUMPI DUP1 PUSH4 0x67B50AF9 EQ PUSH2 0x5D7 JUMPI PUSH0 DUP1 REVERT JUMPDEST DUP1 PUSH4 0x51BB5DFF GT PUSH2 0x290 JUMPI DUP1 PUSH4 0x51BB5DFF EQ PUSH2 0x537 JUMPI DUP1 PUSH4 0x54CE61B1 EQ PUSH2 0x54A JUMPI DUP1 PUSH4 0x5BADBE4C EQ PUSH2 0x58A JUMPI DUP1 PUSH4 0x5C975ABB EQ PUSH2 0x593 JUMPI PUSH0 DUP1 REVERT JUMPDEST DUP1 PUSH4 0x46904840 EQ PUSH2 0x4E1 JUMPI DUP1 PUSH4 0x47A5D76D EQ PUSH2 0x511 JUMPI DUP1 PUSH4 0x4EAB0803 EQ PUSH2 0x524 JUMPI PUSH0 DUP1 REVERT JUMPDEST DUP1 PUSH4 0x248A9CA3 GT PUSH2 0x320 JUMPI DUP1 PUSH4 0x39BEA75E GT PUSH2 0x2FB JUMPI DUP1 PUSH4 0x39BEA75E EQ PUSH2 0x47F JUMPI DUP1 PUSH4 0x3B5DCD25 EQ PUSH2 0x4A6 JUMPI DUP1 PUSH4 0x3F4BA83A EQ PUSH2 0x4B9 JUMPI DUP1 PUSH4 0x4062F89B EQ PUSH2 0x4C1 JUMPI PUSH0 DUP1 REVERT JUMPDEST DUP1 PUSH4 0x248A9CA3 EQ PUSH2 0x437 JUMPI DUP1 PUSH4 0x2F2FF15D EQ PUSH2 0x459 JUMPI DUP1 PUSH4 0x36568ABE EQ PUSH2 0x46C JUMPI PUSH0 DUP1 REVERT JUMPDEST DUP1 PUSH4 0x76F917A GT PUSH2 0x35B JUMPI DUP1 PUSH4 0x76F917A EQ PUSH2 0x3D1 JUMPI DUP1 PUSH4 0xC8F78FB EQ PUSH2 0x3E4 JUMPI DUP1 PUSH4 0x1C588E09 EQ PUSH2 0x3F7 JUMPI DUP1 PUSH4 0x2352CB8E EQ PUSH2 0x418 JUMPI PUSH0 DUP1 REVERT JUMPDEST DUP1 PUSH4 0x1FFC9A7 EQ PUSH2 0x381 JUMPI DUP1 PUSH4 0x45F1438 EQ PUSH2 0x3A9 JUMPI DUP1 PUSH4 0x5F10E8A EQ PUSH2 0x3BE JUMPI JUMPDEST PUSH0 DUP1 REVERT JUMPDEST PUSH2 0x394 PUSH2 0x38F CALLDATASIZE PUSH1 0x4 PUSH2 0x3353 JUMP JUMPDEST PUSH2 0x889 JUMP JUMPDEST PUSH1 0x40 MLOAD SWAP1 ISZERO ISZERO DUP2 MSTORE PUSH1 0x20 ADD JUMPDEST PUSH1 0x40 MLOAD DUP1 SWAP2 SUB SWAP1 RETURN JUMPDEST PUSH2 0x3BC PUSH2 0x3B7 CALLDATASIZE PUSH1 0x4 PUSH2 0x337A JUMP JUMPDEST PUSH2 0x8BF JUMP JUMPDEST STOP JUMPDEST PUSH2 0x3BC PUSH2 0x3CC CALLDATASIZE PUSH1 0x4 PUSH2 0x337A JUMP JUMPDEST PUSH2 0xA57 JUMP JUMPDEST PUSH2 0x3BC PUSH2 0x3DF CALLDATASIZE PUSH1 0x4 PUSH2 0x337A JUMP JUMPDEST PUSH2 0xCD4 JUMP JUMPDEST PUSH2 0x3BC PUSH2 0x3F2 CALLDATASIZE PUSH1 0x4 PUSH2 0x337A JUMP JUMPDEST PUSH2 0xD4B JUMP JUMPDEST PUSH2 0x40A PUSH2 0x405 CALLDATASIZE PUSH1 0x4 PUSH2 0x337A JUMP JUMPDEST PUSH2 0xDF8 JUMP JUMPDEST PUSH1 0x40 MLOAD SWAP1 DUP2 MSTORE PUSH1 0x20 ADD PUSH2 0x3A0 JUMP JUMPDEST PUSH2 0x40A PUSH2 0x426 CALLDATASIZE PUSH1 0x4 PUSH2 0x337A JUMP JUMPDEST PUSH1 0x6 PUSH1 0x20 MSTORE PUSH0 SWAP1 DUP2 MSTORE PUSH1 0x40 SWAP1 KECCAK256 SLOAD DUP2 JUMP JUMPDEST PUSH2 0x40A PUSH2 0x445 CALLDATASIZE PUSH1 0x4 PUSH2 0x337A JUMP JUMPDEST PUSH0 SWAP1 DUP2 MSTORE PUSH1 0x20 DUP2 SWAP1 MSTORE PUSH1 0x40 SWAP1 KECCAK256 PUSH1 0x1 ADD SLOAD SWAP1 JUMP JUMPDEST PUSH2 0x3BC PUSH2 0x467 CALLDATASIZE PUSH1 0x4 PUSH2 0x33AC JUMP JUMPDEST PUSH2 0xE2D JUMP JUMPDEST PUSH2 0x3BC PUSH2 0x47A CALLDATASIZE PUSH1 0x4 PUSH2 0x33AC JUMP JUMPDEST PUSH2 0xE57 JUMP JUMPDEST PUSH2 0x40A PUSH32 0x183175B7B980894E2EA4C7EF510CF97A6819A85EE72E9E5B0186E21C7DB90E84 DUP2 JUMP JUMPDEST PUSH2 0x3BC PUSH2 0x4B4 CALLDATASIZE PUSH1 0x4 PUSH2 0x33D6 JUMP JUMPDEST PUSH2 0xE8F JUMP JUMPDEST PUSH2 0x3BC PUSH2 0xEC2 JUMP JUMPDEST PUSH2 0x4D4 PUSH2 0x4CF CALLDATASIZE PUSH1 0x4 PUSH2 0x3459 JUMP JUMPDEST PUSH2 0xEF7 JUMP JUMPDEST PUSH1 0x40 MLOAD PUSH2 0x3A0 SWAP2 SWAP1 PUSH2 0x348F JUMP JUMPDEST PUSH1 0xD SLOAD PUSH2 0x4F9 SWAP1 PUSH2 0x100 SWAP1 DIV PUSH1 0x1 PUSH1 0x1 PUSH1 0xA0 SHL SUB AND DUP2 JUMP JUMPDEST PUSH1 0x40 MLOAD PUSH1 0x1 PUSH1 0x1 PUSH1 0xA0 SHL SUB SWAP1 SWAP2 AND DUP2 MSTORE PUSH1 0x20 ADD PUSH2 0x3A0 JUMP JUMPDEST PUSH2 0x3BC PUSH2 0x51F CALLDATASIZE PUSH1 0x4 PUSH2 0x34D1 JUMP JUMPDEST PUSH2 0x101A JUMP JUMPDEST PUSH2 0x3BC PUSH2 0x532 CALLDATASIZE PUSH1 0x4 PUSH2 0x3597 JUMP JUMPDEST PUSH2 0x121A JUMP JUMPDEST PUSH2 0x3BC PUSH2 0x545 CALLDATASIZE PUSH1 0x4 PUSH2 0x35C9 JUMP JUMPDEST PUSH2 0x1266 JUMP JUMPDEST PUSH2 0x40A PUSH2 0x558 CALLDATASIZE PUSH1 0x4 PUSH2 0x35E2 JUMP JUMPDEST PUSH1 0x1 PUSH1 0x1 PUSH1 0xA0 SHL SUB SWAP3 DUP4 AND PUSH0 SWAP1 DUP2 MSTORE PUSH1 0x3 PUSH1 0x20 SWAP1 DUP2 MSTORE PUSH1 0x40 DUP1 DUP4 KECCAK256 SWAP5 DUP4 MSTORE SWAP4 DUP2 MSTORE DUP4 DUP3 KECCAK256 SWAP3 SWAP1 SWAP5 AND DUP2 MSTORE SWAP3 MSTORE SWAP1 KECCAK256 SLOAD SWAP1 JUMP JUMPDEST PUSH2 0x40A PUSH1 0x9 SLOAD DUP2 JUMP JUMPDEST PUSH1 0x1 SLOAD PUSH1 0xFF AND PUSH2 0x394 JUMP JUMPDEST PUSH2 0x3BC PUSH2 0x5AC CALLDATASIZE PUSH1 0x4 PUSH2 0x361B JUMP JUMPDEST PUSH2 0x12F7 JUMP JUMPDEST PUSH2 0x3BC PUSH2 0x5BF CALLDATASIZE PUSH1 0x4 PUSH2 0x3663 JUMP JUMPDEST PUSH2 0x14C9 JUMP JUMPDEST PUSH2 0x3BC PUSH2 0x5D2 CALLDATASIZE PUSH1 0x4 PUSH2 0x337A JUMP JUMPDEST PUSH2 0x1560 JUMP JUMPDEST PUSH2 0x40A PUSH1 0xC SLOAD DUP2 JUMP JUMPDEST PUSH2 0x5F3 PUSH2 0x5EE CALLDATASIZE PUSH1 0x4 PUSH2 0x3459 JUMP JUMPDEST PUSH2 0x1630 JUMP JUMPDEST PUSH1 0x40 MLOAD PUSH2 0x3A0 SWAP2 SWAP1 PUSH2 0x3750 JUMP JUMPDEST PUSH2 0x3BC PUSH2 0x60E CALLDATASIZE PUSH1 0x4 PUSH2 0x33D6 JUMP JUMPDEST PUSH2 0x17A6 JUMP JUMPDEST PUSH2 0x4F9 PUSH2 0x621 CALLDATASIZE PUSH1 0x4 PUSH2 0x337A JUMP JUMPDEST PUSH2 0x1ABB JUMP JUMPDEST PUSH2 0x3BC PUSH2 0x1AF9 JUMP JUMPDEST PUSH2 0x3BC PUSH2 0x63C CALLDATASIZE PUSH1 0x4 PUSH2 0x3793 JUMP JUMPDEST PUSH2 0x1B2B JUMP JUMPDEST PUSH2 0x394 PUSH2 0x64F CALLDATASIZE PUSH1 0x4 PUSH2 0x33AC JUMP JUMPDEST PUSH2 0x1BB2 JUMP JUMPDEST PUSH2 0x40A PUSH1 0x8 SLOAD DUP2 JUMP JUMPDEST PUSH2 0x394 PUSH2 0x66B CALLDATASIZE PUSH1 0x4 PUSH2 0x337A JUMP JUMPDEST PUSH2 0x1BDA JUMP JUMPDEST PUSH1 0xD SLOAD PUSH2 0x67D SWAP1 PUSH1 0xFF AND DUP2 JUMP JUMPDEST PUSH1 0x40 MLOAD PUSH1 0xFF SWAP1 SWAP2 AND DUP2 MSTORE PUSH1 0x20 ADD PUSH2 0x3A0 JUMP JUMPDEST PUSH2 0x40A PUSH1 0xA SLOAD DUP2 JUMP JUMPDEST PUSH2 0x40A PUSH0 DUP2 JUMP JUMPDEST PUSH2 0x3BC PUSH2 0x6AD CALLDATASIZE PUSH1 0x4 PUSH2 0x337A JUMP JUMPDEST PUSH2 0x1C12 JUMP JUMPDEST PUSH2 0x3BC PUSH2 0x6C0 CALLDATASIZE PUSH1 0x4 PUSH2 0x35C9 JUMP JUMPDEST PUSH2 0x1C73 JUMP JUMPDEST PUSH2 0x3BC PUSH2 0x6D3 CALLDATASIZE PUSH1 0x4 PUSH2 0x337A JUMP JUMPDEST PUSH2 0x1D38 JUMP JUMPDEST PUSH2 0x3BC PUSH2 0x6E6 CALLDATASIZE PUSH1 0x4 PUSH2 0x3597 JUMP JUMPDEST PUSH2 0x20E5 JUMP JUMPDEST PUSH2 0x3BC PUSH2 0x6F9 CALLDATASIZE PUSH1 0x4 PUSH2 0x3793 JUMP JUMPDEST PUSH2 0x2131 JUMP JUMPDEST PUSH2 0x394 PUSH2 0x70C CALLDATASIZE PUSH1 0x4 PUSH2 0x337A JUMP JUMPDEST PUSH1 0x5 PUSH1 0x20 MSTORE PUSH0 SWAP1 DUP2 MSTORE PUSH1 0x40 SWAP1 KECCAK256 SLOAD PUSH1 0xFF AND DUP2 JUMP JUMPDEST PUSH2 0x733 PUSH2 0x72E CALLDATASIZE PUSH1 0x4 PUSH2 0x337A JUMP JUMPDEST PUSH2 0x21B8 JUMP JUMPDEST PUSH1 0x40 MLOAD PUSH2 0x3A0 SWAP2 SWAP1 PUSH2 0x37F8 JUMP JUMPDEST PUSH2 0x40A PUSH2 0x74E CALLDATASIZE PUSH1 0x4 PUSH2 0x35E2 JUMP JUMPDEST PUSH1 0x3 PUSH1 0x20 SWAP1 DUP2 MSTORE PUSH0 SWAP4 DUP5 MSTORE PUSH1 0x40 DUP1 DUP6 KECCAK256 DUP3 MSTORE SWAP3 DUP5 MSTORE DUP3 DUP5 KECCAK256 SWAP1 MSTORE DUP3 MSTORE SWAP1 KECCAK256 SLOAD DUP2 JUMP JUMPDEST PUSH2 0x3BC PUSH2 0x77E CALLDATASIZE PUSH1 0x4 PUSH2 0x33AC JUMP JUMPDEST PUSH2 0x2293 JUMP JUMPDEST PUSH2 0x67D PUSH2 0x791 CALLDATASIZE PUSH1 0x4 PUSH2 0x337A JUMP JUMPDEST PUSH2 0x22B7 JUMP JUMPDEST PUSH2 0x3BC PUSH2 0x7A4 CALLDATASIZE PUSH1 0x4 PUSH2 0x3597 JUMP JUMPDEST PUSH2 0x22F4 JUMP JUMPDEST PUSH1 0x8 SLOAD PUSH2 0x40A JUMP JUMPDEST PUSH2 0x40A PUSH2 0x7BF CALLDATASIZE PUSH1 0x4 PUSH2 0x337A JUMP JUMPDEST PUSH2 0x2340 JUMP JUMPDEST PUSH2 0x40A PUSH32 0x65D7A28E3265B37A6474929F336521B332C1681B933F6CB9F3376673440D862A DUP2 JUMP JUMPDEST PUSH2 0x394 PUSH2 0x7F9 CALLDATASIZE PUSH1 0x4 PUSH2 0x35C9 JUMP JUMPDEST PUSH1 0x4 PUSH1 0x20 MSTORE PUSH0 SWAP1 DUP2 MSTORE PUSH1 0x40 SWAP1 KECCAK256 SLOAD PUSH1 0xFF AND DUP2 JUMP JUMPDEST PUSH2 0x3BC PUSH2 0x81B CALLDATASIZE PUSH1 0x4 PUSH2 0x35C9 JUMP JUMPDEST PUSH2 0x235F JUMP JUMPDEST PUSH2 0x4F9 PUSH2 0x82E CALLDATASIZE PUSH1 0x4 PUSH2 0x337A JUMP JUMPDEST PUSH2 0x23F8 JUMP JUMPDEST PUSH2 0x40A PUSH0 DUP1 MLOAD PUSH1 0x20 PUSH2 0x3C0F DUP4 CODECOPY DUP2 MLOAD SWAP2 MSTORE DUP2 JUMP JUMPDEST PUSH2 0x40A PUSH2 0x855 CALLDATASIZE PUSH1 0x4 PUSH2 0x337A JUMP JUMPDEST PUSH2 0x2436 JUMP JUMPDEST PUSH2 0x3BC PUSH2 0x868 CALLDATASIZE PUSH1 0x4 PUSH2 0x337A JUMP JUMPDEST PUSH2 0x246B JUMP JUMPDEST PUSH2 0x3BC PUSH2 0x87B CALLDATASIZE PUSH1 0x4 PUSH2 0x34D1 JUMP JUMPDEST PUSH2 0x24ED JUMP JUMPDEST PUSH2 0x40A PUSH1 0xB SLOAD DUP2 JUMP JUMPDEST PUSH0 PUSH1 0x1 PUSH1 0x1 PUSH1 0xE0 SHL SUB NOT DUP3 AND PUSH4 0x7965DB0B PUSH1 0xE0 SHL EQ DUP1 PUSH2 0x8B9 JUMPI POP PUSH4 0x1FFC9A7 PUSH1 0xE0 SHL PUSH1 0x1 PUSH1 0x1 PUSH1 0xE0 SHL SUB NOT DUP4 AND EQ JUMPDEST SWAP3 SWAP2 POP POP JUMP JUMPDEST PUSH2 0x8C7 PUSH2 0x2A3E JUMP JUMPDEST PUSH0 DUP2 DUP2 MSTORE PUSH1 0x2 PUSH1 0x20 MSTORE PUSH1 0x40 SWAP1 KECCAK256 PUSH1 0x1 DUP2 ADD SLOAD PUSH1 0x1 PUSH1 0x1 PUSH1 0xA0 SHL SUB AND CALLER EQ DUP1 PUSH2 0x901 JUMPI POP PUSH2 0x901 PUSH0 DUP1 MLOAD PUSH1 0x20 PUSH2 0x3C0F DUP4 CODECOPY DUP2 MLOAD SWAP2 MSTORE CALLER PUSH2 0x1BB2 JUMP JUMPDEST PUSH2 0x926 JUMPI PUSH1 0x40 MLOAD PUSH3 0x461BCD PUSH1 0xE5 SHL DUP2 MSTORE PUSH1 0x4 ADD PUSH2 0x91D SWAP1 PUSH2 0x3807 JUMP JUMPDEST PUSH1 0x40 MLOAD DUP1 SWAP2 SUB SWAP1 REVERT JUMPDEST PUSH1 0xA DUP2 ADD SLOAD PUSH1 0xFF AND ISZERO PUSH2 0x94B JUMPI PUSH1 0x40 MLOAD PUSH3 0x461BCD PUSH1 0xE5 SHL DUP2 MSTORE PUSH1 0x4 ADD PUSH2 0x91D SWAP1 PUSH2 0x3848 JUMP JUMPDEST PUSH1 0xA DUP2 ADD SLOAD PUSH2 0x100 SWAP1 DIV PUSH1 0xFF AND ISZERO PUSH2 0x975 JUMPI PUSH1 0x40 MLOAD PUSH3 0x461BCD PUSH1 0xE5 SHL DUP2 MSTORE PUSH1 0x4 ADD PUSH2 0x91D SWAP1 PUSH2 0x3874 JUMP JUMPDEST PUSH0 DUP3 DUP2 MSTORE PUSH1 0x5 PUSH1 0x20 MSTORE PUSH1 0x40 SWAP1 KECCAK256 SLOAD PUSH1 0xFF AND ISZERO PUSH2 0x9D3 JUMPI PUSH1 0x40 MLOAD PUSH3 0x461BCD PUSH1 0xE5 SHL DUP2 MSTORE PUSH1 0x20 PUSH1 0x4 DUP3 ADD MSTORE PUSH1 0x1E PUSH1 0x24 DUP3 ADD MSTORE PUSH32 0x43616E63656C6C6174696F6E20616C726561647920696E697469617465640000 PUSH1 0x44 DUP3 ADD MSTORE PUSH1 0x64 ADD PUSH2 0x91D JUMP JUMPDEST PUSH0 DUP3 DUP2 MSTORE PUSH1 0x5 PUSH1 0x20 MSTORE PUSH1 0x40 SWAP1 DUP2 SWAP1 KECCAK256 DUP1 SLOAD PUSH1 0xFF NOT AND PUSH1 0x1 SWAP1 DUP2 OR SWAP1 SWAP2 SSTORE DUP3 ADD SLOAD DUP3 SLOAD PUSH1 0x2 DUP5 ADD SLOAD PUSH1 0x3 DUP6 ADD SLOAD PUSH1 0xA DUP7 ADD SLOAD SWAP5 MLOAD PUSH1 0x1 PUSH1 0x1 PUSH1 0xA0 SHL SUB SWAP5 DUP6 AND SWAP6 SWAP4 SWAP5 PUSH32 0x112B226CCAB95B40B9E7ECF69ED52C4F2C4AB9780320D319C78F61F6DE45E2EC SWAP5 PUSH2 0xA4B SWAP5 SWAP4 SWAP1 SWAP2 AND SWAP2 PUSH1 0xFF SWAP2 SWAP1 SWAP2 AND SWAP1 PUSH2 0x38A1 JUMP JUMPDEST PUSH1 0x40 MLOAD DUP1 SWAP2 SUB SWAP1 LOG3 POP POP JUMP JUMPDEST PUSH0 DUP1 MLOAD PUSH1 0x20 PUSH2 0x3C0F DUP4 CODECOPY DUP2 MLOAD SWAP2 MSTORE PUSH2 0xA6E DUP2 PUSH2 0x2A64 JUMP JUMPDEST PUSH0 DUP3 DUP2 MSTORE PUSH1 0x2 PUSH1 0x20 SWAP1 DUP2 MSTORE PUSH1 0x40 DUP1 DUP4 KECCAK256 PUSH1 0x5 SWAP1 SWAP3 MSTORE SWAP1 SWAP2 KECCAK256 SLOAD PUSH1 0xFF AND PUSH2 0xAD6 JUMPI PUSH1 0x40 MLOAD PUSH3 0x461BCD PUSH1 0xE5 SHL DUP2 MSTORE PUSH1 0x20 PUSH1 0x4 DUP3 ADD MSTORE PUSH1 0x1A PUSH1 0x24 DUP3 ADD MSTORE PUSH32 0x43616E63656C6C6174696F6E206E6F7420696E69746961746564000000000000 PUSH1 0x44 DUP3 ADD MSTORE PUSH1 0x64 ADD PUSH2 0x91D JUMP JUMPDEST PUSH1 0xA DUP2 ADD SLOAD PUSH1 0xFF AND ISZERO PUSH2 0xAFB JUMPI PUSH1 0x40 MLOAD PUSH3 0x461BCD PUSH1 0xE5 SHL DUP2 MSTORE PUSH1 0x4 ADD PUSH2 0x91D SWAP1 PUSH2 0x3848 JUMP JUMPDEST PUSH1 0xA DUP2 ADD SLOAD PUSH2 0x100 SWAP1 DIV PUSH1 0xFF AND ISZERO PUSH2 0xB25 JUMPI PUSH1 0x40 MLOAD PUSH3 0x461BCD PUSH1 0xE5 SHL DUP2 MSTORE PUSH1 0x4 ADD PUSH2 0x91D SWAP1 PUSH2 0x3874 JUMP JUMPDEST PUSH1 0xD SLOAD PUSH0 SWAP1 PUSH2 0xB38 SWAP1 PUSH1 0xFF AND PUSH1 0xA PUSH2 0x39B9 JUMP JUMPDEST DUP3 PUSH1 0x9 ADD SLOAD PUSH2 0xB47 SWAP2 SWAP1 PUSH2 0x39DB JUMP JUMPDEST PUSH1 0xD SLOAD SWAP1 SWAP2 POP PUSH0 SWAP1 DUP3 SWAP1 PUSH2 0xB5F SWAP1 PUSH1 0xFF AND PUSH1 0x12 PUSH2 0x39EE JUMP JUMPDEST PUSH2 0xB6A SWAP1 PUSH1 0xA PUSH2 0x39B9 JUMP JUMPDEST DUP5 PUSH1 0x6 ADD SLOAD PUSH2 0xB79 SWAP2 SWAP1 PUSH2 0x3A07 JUMP JUMPDEST PUSH2 0xB83 SWAP2 SWAP1 PUSH2 0x39DB JUMP JUMPDEST PUSH1 0xD SLOAD SWAP1 SWAP2 POP PUSH0 SWAP1 DUP4 SWAP1 PUSH2 0xB9B SWAP1 PUSH1 0xFF AND PUSH1 0x12 PUSH2 0x39EE JUMP JUMPDEST PUSH2 0xBA6 SWAP1 PUSH1 0xA PUSH2 0x39B9 JUMP JUMPDEST PUSH1 0xC SLOAD PUSH2 0xBB3 SWAP2 SWAP1 PUSH2 0x3A07 JUMP JUMPDEST PUSH2 0xBBD SWAP2 SWAP1 PUSH2 0x39DB JUMP JUMPDEST SWAP1 POP PUSH0 DUP2 PUSH2 0x2710 PUSH1 0xB SLOAD DUP6 PUSH2 0xBD2 SWAP2 SWAP1 PUSH2 0x3A07 JUMP JUMPDEST PUSH2 0xBDC SWAP2 SWAP1 PUSH2 0x39DB JUMP JUMPDEST PUSH2 0xBE6 SWAP2 SWAP1 PUSH2 0x3A1E JUMP JUMPDEST PUSH1 0x1 DUP7 ADD SLOAD PUSH1 0x1 PUSH1 0x1 PUSH1 0xA0 SHL SUB SWAP1 DUP2 AND PUSH0 SWAP1 DUP2 MSTORE PUSH1 0x3 PUSH1 0x20 DUP2 DUP2 MSTORE PUSH1 0x40 DUP1 DUP5 KECCAK256 PUSH1 0x2 DUP13 ADD SLOAD DUP6 MSTORE DUP3 MSTORE DUP1 DUP5 KECCAK256 SWAP3 DUP12 ADD SLOAD SWAP1 SWAP5 AND DUP4 MSTORE MSTORE SWAP1 DUP2 KECCAK256 DUP1 SLOAD SWAP3 SWAP4 POP DUP4 SWAP3 SWAP1 SWAP2 SWAP1 PUSH2 0xC34 SWAP1 DUP5 SWAP1 PUSH2 0x3A31 JUMP JUMPDEST SWAP1 SWAP2 SSTORE POP POP PUSH1 0xA DUP6 ADD DUP1 SLOAD PUSH2 0xFF00 NOT AND PUSH2 0x200 OR SWAP1 SSTORE PUSH0 DUP8 DUP2 MSTORE PUSH1 0x5 PUSH1 0x20 MSTORE PUSH1 0x40 SWAP1 KECCAK256 DUP1 SLOAD PUSH1 0xFF NOT AND SWAP1 SSTORE PUSH2 0xC68 DUP8 PUSH2 0x2A6E JUMP JUMPDEST PUSH1 0x1 DUP6 ADD SLOAD DUP6 SLOAD PUSH1 0x2 DUP8 ADD SLOAD PUSH1 0x3 DUP9 ADD SLOAD PUSH1 0xA DUP10 ADD SLOAD PUSH1 0x40 MLOAD PUSH1 0x1 PUSH1 0x1 PUSH1 0xA0 SHL SUB SWAP6 DUP7 AND SWAP6 PUSH32 0xF9AF3004ACF8C0A1B894F2CDA23578E7E848F811D582D389989A18FB1CAED8B9 SWAP5 PUSH2 0xCC3 SWAP5 SWAP1 SWAP4 SWAP2 AND SWAP2 PUSH1 0xFF SWAP1 SWAP2 AND SWAP1 PUSH2 0x38A1 JUMP JUMPDEST PUSH1 0x40 MLOAD DUP1 SWAP2 SUB SWAP1 LOG3 POP POP POP POP POP POP POP JUMP JUMPDEST PUSH0 PUSH2 0xCDE DUP2 PUSH2 0x2A64 JUMP JUMPDEST PUSH1 0x64 DUP3 GT ISZERO PUSH2 0xD45 JUMPI PUSH1 0x40 MLOAD PUSH3 0x461BCD PUSH1 0xE5 SHL DUP2 MSTORE PUSH1 0x20 PUSH1 0x4 DUP3 ADD MSTORE PUSH1 0x2D PUSH1 0x24 DUP3 ADD MSTORE PUSH32 0x43616E63656C6C6174696F6E206665652070657263656E746167652063616E6E PUSH1 0x44 DUP3 ADD MSTORE PUSH13 0x6F74206578636565642031303 PUSH1 0x9C SHL PUSH1 0x64 DUP3 ADD MSTORE PUSH1 0x84 ADD PUSH2 0x91D JUMP JUMPDEST POP PUSH1 0xB SSTORE JUMP JUMPDEST PUSH0 DUP1 MLOAD PUSH1 0x20 PUSH2 0x3C0F DUP4 CODECOPY DUP2 MLOAD SWAP2 MSTORE PUSH2 0xD62 DUP2 PUSH2 0x2A64 JUMP JUMPDEST PUSH0 DUP3 GT PUSH2 0xDBB JUMPI PUSH1 0x40 MLOAD PUSH3 0x461BCD PUSH1 0xE5 SHL DUP2 MSTORE PUSH1 0x20 PUSH1 0x4 DUP3 ADD MSTORE PUSH1 0x21 PUSH1 0x24 DUP3 ADD MSTORE PUSH32 0x47617320616D6F756E74206D7573742062652067726561746572207468616E20 PUSH1 0x44 DUP3 ADD MSTORE PUSH1 0x3 PUSH1 0xFC SHL PUSH1 0x64 DUP3 ADD MSTORE PUSH1 0x84 ADD PUSH2 0x91D JUMP JUMPDEST PUSH1 0xC DUP3 SWAP1 SSTORE PUSH1 0x40 MLOAD DUP3 DUP2 MSTORE PUSH32 0x88FFD10B455C91C297384C9E5ADE87D24040ACA0A2C14B613F20EF0706425F43 SWAP1 PUSH1 0x20 ADD JUMPDEST PUSH1 0x40 MLOAD DUP1 SWAP2 SUB SWAP1 LOG1 POP POP JUMP JUMPDEST PUSH0 DUP2 PUSH0 SUB PUSH2 0xE18 JUMPI PUSH1 0x40 MLOAD PUSH3 0x461BCD PUSH1 0xE5 SHL DUP2 MSTORE PUSH1 0x4 ADD PUSH2 0x91D SWAP1 PUSH2 0x3A44 JUMP JUMPDEST POP PUSH0 SWAP1 DUP2 MSTORE PUSH1 0x2 PUSH1 0x20 MSTORE PUSH1 0x40 SWAP1 KECCAK256 PUSH1 0x6 ADD SLOAD SWAP1 JUMP JUMPDEST PUSH0 DUP3 DUP2 MSTORE PUSH1 0x20 DUP2 SWAP1 MSTORE PUSH1 0x40 SWAP1 KECCAK256 PUSH1 0x1 ADD SLOAD PUSH2 0xE47 DUP2 PUSH2 0x2A64 JUMP JUMPDEST PUSH2 0xE51 DUP4 DUP4 PUSH2 0x2B2D JUMP JUMPDEST POP POP POP POP JUMP JUMPDEST PUSH1 0x1 PUSH1 0x1 PUSH1 0xA0 SHL SUB DUP2 AND CALLER EQ PUSH2 0xE80 JUMPI PUSH1 0x40 MLOAD PUSH4 0x334BD919 PUSH1 0xE1 SHL DUP2 MSTORE PUSH1 0x4 ADD PUSH1 0x40 MLOAD DUP1 SWAP2 SUB SWAP1 REVERT JUMPDEST PUSH2 0xE8A DUP3 DUP3 PUSH2 0x2BBC JUMP JUMPDEST POP POP POP JUMP JUMPDEST PUSH2 0xE97 PUSH2 0x2A3E JUMP JUMPDEST PUSH2 0xEA5 DUP5 DUP11 DUP6 DUP6 DUP13 DUP13 PUSH2 0x2C25 JUMP JUMPDEST PUSH2 0xEB7 DUP9 DUP9 DUP9 DUP9 DUP9 DUP15 DUP10 DUP10 DUP10 PUSH0 PUSH2 0x2E30 JUMP JUMPDEST POP POP POP POP POP POP POP POP POP JUMP JUMPDEST PUSH32 0x65D7A28E3265B37A6474929F336521B332C1681B933F6CB9F3376673440D862A PUSH2 0xEEC DUP2 PUSH2 0x2A64 JUMP JUMPDEST PUSH2 0xEF4 PUSH2 0x3102 JUMP JUMPDEST POP JUMP JUMPDEST PUSH1 0x60 PUSH0 DUP1 DUP4 ISZERO PUSH2 0xF0C JUMPI POP POP PUSH1 0x8 SLOAD PUSH0 PUSH2 0xF58 JUMP JUMPDEST DUP6 PUSH2 0xF17 DUP2 DUP8 PUSH2 0x3A07 JUMP JUMPDEST PUSH1 0x8 SLOAD PUSH2 0xF24 SWAP2 SWAP1 PUSH2 0x3A31 JUMP JUMPDEST PUSH2 0xF2E SWAP2 SWAP1 PUSH2 0x3A31 JUMP JUMPDEST SWAP1 POP PUSH0 PUSH2 0xF3B DUP8 DUP8 PUSH2 0x3A07 JUMP JUMPDEST PUSH1 0x8 SLOAD PUSH2 0xF48 SWAP2 SWAP1 PUSH2 0x3A31 JUMP JUMPDEST SWAP1 POP PUSH2 0xF54 DUP3 DUP3 PUSH2 0x3A31 JUMP JUMPDEST SWAP3 POP POP JUMPDEST PUSH0 DUP3 PUSH8 0xFFFFFFFFFFFFFFFF DUP2 GT ISZERO PUSH2 0xF72 JUMPI PUSH2 0xF72 PUSH2 0x34F1 JUMP JUMPDEST PUSH1 0x40 MLOAD SWAP1 DUP1 DUP3 MSTORE DUP1 PUSH1 0x20 MUL PUSH1 0x20 ADD DUP3 ADD PUSH1 0x40 MSTORE DUP1 ISZERO PUSH2 0xF9B JUMPI DUP2 PUSH1 0x20 ADD PUSH1 0x20 DUP3 MUL DUP1 CALLDATASIZE DUP4 CALLDATACOPY ADD SWAP1 POP JUMPDEST POP SWAP1 POP PUSH0 JUMPDEST DUP4 DUP2 LT ISZERO PUSH2 0x100D JUMPI PUSH1 0x7 DUP4 PUSH1 0x1 DUP4 PUSH1 0x8 SLOAD PUSH2 0xFBB SWAP2 SWAP1 PUSH2 0x3A31 JUMP JUMPDEST PUSH2 0xFC5 SWAP2 SWAP1 PUSH2 0x3A31 JUMP JUMPDEST PUSH2 0xFCF SWAP2 SWAP1 PUSH2 0x3A31 JUMP JUMPDEST DUP2 SLOAD DUP2 LT PUSH2 0xFDF JUMPI PUSH2 0xFDF PUSH2 0x3A74 JUMP JUMPDEST SWAP1 PUSH0 MSTORE PUSH1 0x20 PUSH0 KECCAK256 ADD SLOAD DUP3 DUP3 DUP2 MLOAD DUP2 LT PUSH2 0xFFA JUMPI PUSH2 0xFFA PUSH2 0x3A74 JUMP JUMPDEST PUSH1 0x20 SWAP1 DUP2 MUL SWAP2 SWAP1 SWAP2 ADD ADD MSTORE PUSH1 0x1 ADD PUSH2 0xFA0 JUMP JUMPDEST POP SWAP3 POP POP POP JUMPDEST SWAP4 SWAP3 POP POP POP JUMP JUMPDEST PUSH0 DUP1 MLOAD PUSH1 0x20 PUSH2 0x3C0F DUP4 CODECOPY DUP2 MLOAD SWAP2 MSTORE PUSH2 0x1031 DUP2 PUSH2 0x2A64 JUMP JUMPDEST PUSH0 DUP4 DUP2 MSTORE PUSH1 0x2 PUSH1 0x20 MSTORE PUSH1 0x40 SWAP1 KECCAK256 PUSH1 0xA DUP2 ADD SLOAD PUSH2 0x100 SWAP1 DIV PUSH1 0xFF AND ISZERO PUSH2 0x1068 JUMPI PUSH1 0x40 MLOAD PUSH3 0x461BCD PUSH1 0xE5 SHL DUP2 MSTORE PUSH1 0x4 ADD PUSH2 0x91D SWAP1 PUSH2 0x3874 JUMP JUMPDEST PUSH1 0xA DUP2 ADD SLOAD PUSH1 0xFF AND PUSH2 0x108C JUMPI PUSH1 0x40 MLOAD PUSH3 0x461BCD PUSH1 0xE5 SHL DUP2 MSTORE PUSH1 0x4 ADD PUSH2 0x91D SWAP1 PUSH2 0x3A88 JUMP JUMPDEST PUSH1 0xD SLOAD PUSH0 SWAP1 PUSH2 0x109F SWAP1 PUSH1 0xFF AND PUSH1 0xA PUSH2 0x39B9 JUMP JUMPDEST PUSH2 0x10A9 SWAP1 DUP6 PUSH2 0x39DB JUMP JUMPDEST PUSH1 0xD SLOAD SWAP1 SWAP2 POP PUSH0 SWAP1 DUP3 SWAP1 PUSH2 0x10C1 SWAP1 PUSH1 0xFF AND PUSH1 0x12 PUSH2 0x39EE JUMP JUMPDEST PUSH2 0x10CC SWAP1 PUSH1 0xA PUSH2 0x39B9 JUMP JUMPDEST DUP5 PUSH1 0x6 ADD SLOAD PUSH2 0x10DB SWAP2 SWAP1 PUSH2 0x3A07 JUMP JUMPDEST PUSH2 0x10E5 SWAP2 SWAP1 PUSH2 0x39DB JUMP JUMPDEST PUSH1 0x1 DUP5 ADD SLOAD PUSH1 0x1 PUSH1 0x1 PUSH1 0xA0 SHL SUB SWAP1 DUP2 AND PUSH0 SWAP1 DUP2 MSTORE PUSH1 0x3 PUSH1 0x20 DUP2 DUP2 MSTORE PUSH1 0x40 DUP1 DUP5 KECCAK256 PUSH1 0x2 DUP11 ADD SLOAD DUP6 MSTORE DUP3 MSTORE DUP1 DUP5 KECCAK256 SWAP3 DUP10 ADD SLOAD SWAP1 SWAP5 AND DUP4 MSTORE MSTORE SWAP1 DUP2 KECCAK256 DUP1 SLOAD SWAP3 SWAP4 POP DUP4 SWAP3 SWAP1 SWAP2 SWAP1 PUSH2 0x1133 SWAP1 DUP5 SWAP1 PUSH2 0x3A1E JUMP JUMPDEST SWAP1 SWAP2 SSTORE POP POP PUSH1 0xA DUP4 ADD DUP1 SLOAD PUSH2 0xFF00 NOT AND PUSH2 0x100 OR SWAP1 SSTORE PUSH2 0x1152 DUP7 PUSH2 0x2A6E JUMP JUMPDEST DUP3 PUSH1 0x1 ADD PUSH0 SWAP1 SLOAD SWAP1 PUSH2 0x100 EXP SWAP1 DIV PUSH1 0x1 PUSH1 0x1 PUSH1 0xA0 SHL SUB AND PUSH1 0x1 PUSH1 0x1 PUSH1 0xA0 SHL SUB AND DUP7 PUSH32 0xC1A6BF08DCC3E3A120DDD2394D7C09126F65F7942D7D8666A57AAEB25E3DEB9E DUP6 PUSH1 0x2 ADD SLOAD DUP7 PUSH1 0x3 ADD PUSH0 SWAP1 SLOAD SWAP1 PUSH2 0x100 EXP SWAP1 DIV PUSH1 0x1 PUSH1 0x1 PUSH1 0xA0 SHL SUB AND DUP8 PUSH1 0x4 ADD PUSH0 SWAP1 SLOAD SWAP1 PUSH2 0x100 EXP SWAP1 DIV PUSH1 0x1 PUSH1 0x1 PUSH1 0xA0 SHL SUB AND DUP9 PUSH1 0x5 ADD PUSH0 SWAP1 SLOAD SWAP1 PUSH2 0x100 EXP SWAP1 DIV PUSH1 0x1 PUSH1 0x1 PUSH1 0xA0 SHL SUB AND DUP10 PUSH1 0x6 ADD SLOAD DUP9 DUP14 DUP13 PUSH1 0xA ADD PUSH0 SWAP1 SLOAD SWAP1 PUSH2 0x100 EXP SWAP1 DIV PUSH1 0xFF AND PUSH1 0x40 MLOAD PUSH2 0x120A SWAP9 SWAP8 SWAP7 SWAP6 SWAP5 SWAP4 SWAP3 SWAP2 SWAP1 PUSH2 0x3AB3 JUMP JUMPDEST PUSH1 0x40 MLOAD DUP1 SWAP2 SUB SWAP1 LOG3 POP POP POP POP POP POP JUMP JUMPDEST PUSH0 DUP1 MLOAD PUSH1 0x20 PUSH2 0x3C0F DUP4 CODECOPY DUP2 MLOAD SWAP2 MSTORE PUSH2 0x1231 DUP2 PUSH2 0x2A64 JUMP JUMPDEST PUSH0 JUMPDEST DUP3 MLOAD DUP2 LT ISZERO PUSH2 0xE8A JUMPI PUSH2 0x125E DUP4 DUP3 DUP2 MLOAD DUP2 LT PUSH2 0x1251 JUMPI PUSH2 0x1251 PUSH2 0x3A74 JUMP JUMPDEST PUSH1 0x20 MUL PUSH1 0x20 ADD ADD MLOAD PUSH2 0x1D38 JUMP JUMPDEST PUSH1 0x1 ADD PUSH2 0x1233 JUMP JUMPDEST PUSH0 PUSH2 0x1270 DUP2 PUSH2 0x2A64 JUMP JUMPDEST PUSH1 0x1 PUSH1 0x1 PUSH1 0xA0 SHL SUB DUP3 AND PUSH0 SWAP1 DUP2 MSTORE PUSH1 0x4 PUSH1 0x20 MSTORE PUSH1 0x40 SWAP1 KECCAK256 SLOAD PUSH1 0xFF AND PUSH2 0x12A7 JUMPI PUSH1 0x40 MLOAD PUSH3 0x461BCD PUSH1 0xE5 SHL DUP2 MSTORE PUSH1 0x4 ADD PUSH2 0x91D SWAP1 PUSH2 0x3AFA JUMP JUMPDEST PUSH1 0x1 PUSH1 0x1 PUSH1 0xA0 SHL SUB DUP3 AND PUSH0 DUP2 DUP2 MSTORE PUSH1 0x4 PUSH1 0x20 SWAP1 DUP2 MSTORE PUSH1 0x40 SWAP2 DUP3 SWAP1 KECCAK256 DUP1 SLOAD PUSH1 0xFF NOT AND SWAP1 SSTORE SWAP1 MLOAD SWAP2 DUP3 MSTORE PUSH32 0xF193DFA890A710DFC199B9022C3A036FF38A5513DCE4FD5D2AFF7704F7F0957D SWAP2 ADD PUSH2 0xDEC JUMP JUMPDEST PUSH32 0x183175B7B980894E2EA4C7EF510CF97A6819A85EE72E9E5B0186E21C7DB90E84 PUSH2 0x1321 DUP2 PUSH2 0x2A64 JUMP JUMPDEST PUSH1 0x1 PUSH1 0x1 PUSH1 0xA0 SHL SUB DUP5 AND PUSH0 SWAP1 DUP2 MSTORE PUSH1 0x4 PUSH1 0x20 MSTORE PUSH1 0x40 SWAP1 KECCAK256 SLOAD PUSH1 0xFF AND PUSH2 0x1358 JUMPI PUSH1 0x40 MLOAD PUSH3 0x461BCD PUSH1 0xE5 SHL DUP2 MSTORE PUSH1 0x4 ADD PUSH2 0x91D SWAP1 PUSH2 0x3AFA JUMP JUMPDEST PUSH1 0x40 MLOAD PUSH4 0x70A08231 PUSH1 0xE0 SHL DUP2 MSTORE ADDRESS PUSH1 0x4 DUP3 ADD MSTORE DUP3 SWAP1 PUSH1 0x1 PUSH1 0x1 PUSH1 0xA0 SHL SUB DUP7 AND SWAP1 PUSH4 0x70A08231 SWAP1 PUSH1 0x24 ADD PUSH1 0x20 PUSH1 0x40 MLOAD DUP1 DUP4 SUB DUP2 DUP7 GAS STATICCALL ISZERO DUP1 ISZERO PUSH2 0x139C JUMPI RETURNDATASIZE PUSH0 DUP1 RETURNDATACOPY RETURNDATASIZE PUSH0 REVERT JUMPDEST POP POP POP POP PUSH1 0x40 MLOAD RETURNDATASIZE PUSH1 0x1F NOT PUSH1 0x1F DUP3 ADD AND DUP3 ADD DUP1 PUSH1 0x40 MSTORE POP DUP2 ADD SWAP1 PUSH2 0x13C0 SWAP2 SWAP1 PUSH2 0x3B27 JUMP JUMPDEST LT ISZERO PUSH2 0x1405 JUMPI PUSH1 0x40 MLOAD PUSH3 0x461BCD PUSH1 0xE5 SHL DUP2 MSTORE PUSH1 0x20 PUSH1 0x4 DUP3 ADD MSTORE PUSH1 0x14 PUSH1 0x24 DUP3 ADD MSTORE PUSH20 0x496E73756666696369656E742062616C616E6365 PUSH1 0x60 SHL PUSH1 0x44 DUP3 ADD MSTORE PUSH1 0x64 ADD PUSH2 0x91D JUMP JUMPDEST PUSH1 0x40 MLOAD PUSH4 0xA9059CBB PUSH1 0xE0 SHL DUP2 MSTORE PUSH1 0x1 PUSH1 0x1 PUSH1 0xA0 SHL SUB DUP5 DUP2 AND PUSH1 0x4 DUP4 ADD MSTORE PUSH1 0x24 DUP3 ADD DUP5 SWAP1 MSTORE DUP6 AND SWAP1 PUSH4 0xA9059CBB SWAP1 PUSH1 0x44 ADD PUSH1 0x20 PUSH1 0x40 MLOAD DUP1 DUP4 SUB DUP2 PUSH0 DUP8 GAS CALL ISZERO DUP1 ISZERO PUSH2 0x1451 JUMPI RETURNDATASIZE PUSH0 DUP1 RETURNDATACOPY RETURNDATASIZE PUSH0 REVERT JUMPDEST POP POP POP POP PUSH1 0x40 MLOAD RETURNDATASIZE PUSH1 0x1F NOT PUSH1 0x1F DUP3 ADD AND DUP3 ADD DUP1 PUSH1 0x40 MSTORE POP DUP2 ADD SWAP1 PUSH2 0x1475 SWAP2 SWAP1 PUSH2 0x3B3E JUMP JUMPDEST POP DUP3 PUSH1 0x1 PUSH1 0x1 PUSH1 0xA0 SHL SUB AND DUP5 PUSH1 0x1 PUSH1 0x1 PUSH1 0xA0 SHL SUB AND PUSH32 0x7C1F0FC7960C40ECA97BCA5BEAB93D5405C142C505317E944E79085BB4676FD8 DUP5 PUSH1 0x40 MLOAD PUSH2 0x14BB SWAP2 DUP2 MSTORE PUSH1 0x20 ADD SWAP1 JUMP JUMPDEST PUSH1 0x40 MLOAD DUP1 SWAP2 SUB SWAP1 LOG3 POP POP POP POP JUMP JUMPDEST PUSH0 PUSH2 0x14D3 DUP2 PUSH2 0x2A64 JUMP JUMPDEST PUSH1 0x1 DUP3 PUSH1 0xFF AND LT ISZERO DUP1 ISZERO PUSH2 0x14EB JUMPI POP PUSH1 0x12 DUP3 PUSH1 0xFF AND GT ISZERO JUMPDEST PUSH2 0x1549 JUMPI PUSH1 0x40 MLOAD PUSH3 0x461BCD PUSH1 0xE5 SHL DUP2 MSTORE PUSH1 0x20 PUSH1 0x4 DUP3 ADD MSTORE PUSH1 0x29 PUSH1 0x24 DUP3 ADD MSTORE PUSH32 0x507265636973696F6E20666163746F72206D757374206265206265747765656E PUSH1 0x44 DUP3 ADD MSTORE PUSH9 0x406240C2DCC840627 PUSH1 0xBB SHL PUSH1 0x64 DUP3 ADD MSTORE PUSH1 0x84 ADD PUSH2 0x91D JUMP JUMPDEST POP PUSH1 0xD DUP1 SLOAD PUSH1 0xFF NOT AND PUSH1 0xFF SWAP3 SWAP1 SWAP3 AND SWAP2 SWAP1 SWAP2 OR SWAP1 SSTORE JUMP JUMPDEST PUSH0 DUP1 MLOAD PUSH1 0x20 PUSH2 0x3C0F DUP4 CODECOPY DUP2 MLOAD SWAP2 MSTORE PUSH2 0x1577 DUP2 PUSH2 0x2A64 JUMP JUMPDEST PUSH0 DUP3 DUP2 MSTORE PUSH1 0x2 PUSH1 0x20 MSTORE PUSH1 0x40 SWAP1 KECCAK256 PUSH1 0xA DUP2 ADD SLOAD PUSH2 0x100 SWAP1 DIV PUSH1 0xFF AND ISZERO PUSH2 0x15AE JUMPI PUSH1 0x40 MLOAD PUSH3 0x461BCD PUSH1 0xE5 SHL DUP2 MSTORE PUSH1 0x4 ADD PUSH2 0x91D SWAP1 PUSH2 0x3874 JUMP JUMPDEST PUSH1 0xA DUP2 ADD DUP1 SLOAD PUSH2 0xFF00 NOT AND PUSH2 0x200 OR SWAP1 SSTORE PUSH2 0x15C8 DUP4 PUSH2 0x2A6E JUMP JUMPDEST PUSH1 0x1 DUP2 ADD SLOAD DUP2 SLOAD PUSH1 0x2 DUP4 ADD SLOAD PUSH1 0x3 DUP5 ADD SLOAD PUSH1 0xA DUP6 ADD SLOAD PUSH1 0x40 MLOAD PUSH1 0x1 PUSH1 0x1 PUSH1 0xA0 SHL SUB SWAP6 DUP7 AND SWAP6 PUSH32 0xF9AF3004ACF8C0A1B894F2CDA23578E7E848F811D582D389989A18FB1CAED8B9 SWAP5 PUSH2 0x1623 SWAP5 SWAP1 SWAP4 SWAP2 AND SWAP2 PUSH1 0xFF SWAP1 SWAP2 AND SWAP1 PUSH2 0x38A1 JUMP JUMPDEST PUSH1 0x40 MLOAD DUP1 SWAP2 SUB SWAP1 LOG3 POP POP POP JUMP JUMPDEST PUSH1 0x60 PUSH0 PUSH2 0x163E DUP6 DUP6 DUP6 PUSH2 0xEF7 JUMP JUMPDEST SWAP1 POP PUSH0 DUP2 MLOAD PUSH8 0xFFFFFFFFFFFFFFFF DUP2 GT ISZERO PUSH2 0x165B JUMPI PUSH2 0x165B PUSH2 0x34F1 JUMP JUMPDEST PUSH1 0x40 MLOAD SWAP1 DUP1 DUP3 MSTORE DUP1 PUSH1 0x20 MUL PUSH1 0x20 ADD DUP3 ADD PUSH1 0x40 MSTORE DUP1 ISZERO PUSH2 0x1694 JUMPI DUP2 PUSH1 0x20 ADD JUMPDEST PUSH2 0x1681 PUSH2 0x32D5 JUMP JUMPDEST DUP2 MSTORE PUSH1 0x20 ADD SWAP1 PUSH1 0x1 SWAP1 SUB SWAP1 DUP2 PUSH2 0x1679 JUMPI SWAP1 POP JUMPDEST POP SWAP1 POP PUSH0 JUMPDEST DUP3 MLOAD DUP2 LT ISZERO PUSH2 0x179C JUMPI PUSH1 0x2 PUSH0 DUP5 DUP4 DUP2 MLOAD DUP2 LT PUSH2 0x16B7 JUMPI PUSH2 0x16B7 PUSH2 0x3A74 JUMP JUMPDEST PUSH1 0x20 SWAP1 DUP2 MUL SWAP2 SWAP1 SWAP2 ADD DUP2 ADD MLOAD DUP3 MSTORE DUP2 DUP2 ADD SWAP3 SWAP1 SWAP3 MSTORE PUSH1 0x40 SWAP1 DUP2 ADD PUSH0 KECCAK256 DUP2 MLOAD PUSH2 0x180 DUP2 ADD DUP4 MSTORE DUP2 SLOAD DUP2 MSTORE PUSH1 0x1 DUP3 ADD SLOAD PUSH1 0x1 PUSH1 0x1 PUSH1 0xA0 SHL SUB SWAP1 DUP2 AND SWAP5 DUP3 ADD SWAP5 SWAP1 SWAP5 MSTORE PUSH1 0x2 DUP3 ADD SLOAD SWAP3 DUP2 ADD SWAP3 SWAP1 SWAP3 MSTORE PUSH1 0x3 DUP2 ADD SLOAD DUP4 AND PUSH1 0x60 DUP4 ADD MSTORE PUSH1 0x4 DUP2 ADD SLOAD DUP4 AND PUSH1 0x80 DUP4 ADD MSTORE PUSH1 0x5 DUP2 ADD SLOAD SWAP1 SWAP3 AND PUSH1 0xA0 DUP3 ADD MSTORE PUSH1 0x6 DUP3 ADD SLOAD PUSH1 0xC0 DUP3 ADD MSTORE PUSH1 0x7 DUP3 ADD SLOAD PUSH1 0xE0 DUP3 ADD MSTORE PUSH1 0x8 DUP3 ADD SLOAD PUSH2 0x100 DUP1 DUP4 ADD SWAP2 SWAP1 SWAP2 MSTORE PUSH1 0x9 DUP4 ADD SLOAD PUSH2 0x120 DUP4 ADD MSTORE PUSH1 0xA SWAP1 SWAP3 ADD SLOAD PUSH1 0xFF DUP1 DUP3 AND ISZERO ISZERO PUSH2 0x140 DUP5 ADD MSTORE SWAP3 SWAP1 DIV SWAP1 SWAP2 AND PUSH2 0x160 DUP3 ADD MSTORE DUP3 MLOAD DUP4 SWAP1 DUP4 SWAP1 DUP2 LT PUSH2 0x1789 JUMPI PUSH2 0x1789 PUSH2 0x3A74 JUMP JUMPDEST PUSH1 0x20 SWAP1 DUP2 MUL SWAP2 SWAP1 SWAP2 ADD ADD MSTORE PUSH1 0x1 ADD PUSH2 0x1699 JUMP JUMPDEST POP SWAP6 SWAP5 POP POP POP POP POP JUMP JUMPDEST PUSH2 0x17AE PUSH2 0x2A3E JUMP JUMPDEST PUSH1 0xC SLOAD DUP10 LT ISZERO PUSH2 0x1826 JUMPI PUSH1 0x40 MLOAD PUSH3 0x461BCD PUSH1 0xE5 SHL DUP2 MSTORE PUSH1 0x20 PUSH1 0x4 DUP3 ADD MSTORE PUSH1 0x38 PUSH1 0x24 DUP3 ADD MSTORE PUSH32 0x546F6B656E20616D6F756E74206D757374206265206772656174657220746861 PUSH1 0x44 DUP3 ADD MSTORE PUSH32 0x6E206F7220657175616C20746F2067617320616D6F756E740000000000000000 PUSH1 0x64 DUP3 ADD MSTORE PUSH1 0x84 ADD PUSH2 0x91D JUMP JUMPDEST PUSH0 DUP6 PUSH1 0x1 PUSH1 0x1 PUSH1 0xA0 SHL SUB AND PUSH4 0x313CE567 PUSH1 0x40 MLOAD DUP2 PUSH4 0xFFFFFFFF AND PUSH1 0xE0 SHL DUP2 MSTORE PUSH1 0x4 ADD PUSH1 0x20 PUSH1 0x40 MLOAD DUP1 DUP4 SUB DUP2 DUP7 GAS STATICCALL ISZERO DUP1 ISZERO PUSH2 0x1863 JUMPI RETURNDATASIZE PUSH0 DUP1 RETURNDATACOPY RETURNDATASIZE PUSH0 REVERT JUMPDEST POP POP POP POP PUSH1 0x40 MLOAD RETURNDATASIZE PUSH1 0x1F NOT PUSH1 0x1F DUP3 ADD AND DUP3 ADD DUP1 PUSH1 0x40 MSTORE POP DUP2 ADD SWAP1 PUSH2 0x1887 SWAP2 SWAP1 PUSH2 0x3B59 JUMP JUMPDEST SWAP1 POP PUSH0 PUSH1 0xC SLOAD PUSH2 0x2710 PUSH1 0xA SLOAD DUP14 PUSH2 0x189E SWAP2 SWAP1 PUSH2 0x3A07 JUMP JUMPDEST PUSH2 0x18A8 SWAP2 SWAP1 PUSH2 0x39DB JUMP JUMPDEST PUSH2 0x18B2 SWAP2 SWAP1 PUSH2 0x3A1E JUMP JUMPDEST SWAP1 POP PUSH0 PUSH2 0x18C1 DUP3 PUSH1 0x12 DUP6 PUSH2 0x3154 JUMP JUMPDEST SWAP1 POP PUSH0 PUSH2 0x18CE DUP4 DUP15 PUSH2 0x3A31 JUMP JUMPDEST SWAP1 POP PUSH0 PUSH2 0x18DD DUP3 PUSH1 0x12 DUP8 PUSH2 0x3154 JUMP JUMPDEST PUSH1 0x1 PUSH1 0x1 PUSH1 0xA0 SHL SUB DUP12 AND PUSH0 SWAP1 DUP2 MSTORE PUSH1 0x4 PUSH1 0x20 MSTORE PUSH1 0x40 SWAP1 KECCAK256 SLOAD SWAP1 SWAP2 POP PUSH1 0xFF AND PUSH2 0x1917 JUMPI PUSH1 0x40 MLOAD PUSH3 0x461BCD PUSH1 0xE5 SHL DUP2 MSTORE PUSH1 0x4 ADD PUSH2 0x91D SWAP1 PUSH2 0x3AFA JUMP JUMPDEST PUSH1 0x40 MLOAD PUSH4 0x23B872DD PUSH1 0xE0 SHL DUP2 MSTORE CALLER PUSH1 0x4 DUP3 ADD MSTORE ADDRESS PUSH1 0x24 DUP3 ADD MSTORE PUSH1 0x44 DUP2 ADD DUP3 SWAP1 MSTORE PUSH1 0x1 PUSH1 0x1 PUSH1 0xA0 SHL SUB DUP12 AND SWAP1 PUSH4 0x23B872DD SWAP1 PUSH1 0x64 ADD PUSH1 0x20 PUSH1 0x40 MLOAD DUP1 DUP4 SUB DUP2 PUSH0 DUP8 GAS CALL ISZERO DUP1 ISZERO PUSH2 0x1967 JUMPI RETURNDATASIZE PUSH0 DUP1 RETURNDATACOPY RETURNDATASIZE PUSH0 REVERT JUMPDEST POP POP POP POP PUSH1 0x40 MLOAD RETURNDATASIZE PUSH1 0x1F NOT PUSH1 0x1F DUP3 ADD AND DUP3 ADD DUP1 PUSH1 0x40 MSTORE POP DUP2 ADD SWAP1 PUSH2 0x198B SWAP2 SWAP1 PUSH2 0x3B3E JUMP JUMPDEST PUSH2 0x19D7 JUMPI PUSH1 0x40 MLOAD PUSH3 0x461BCD PUSH1 0xE5 SHL DUP2 MSTORE PUSH1 0x20 PUSH1 0x4 DUP3 ADD MSTORE PUSH1 0x1E PUSH1 0x24 DUP3 ADD MSTORE PUSH32 0x5472616E73666572206F6620737461626C6520636F696E206661696C65640000 PUSH1 0x44 DUP3 ADD MSTORE PUSH1 0x64 ADD PUSH2 0x91D JUMP JUMPDEST PUSH1 0xD SLOAD PUSH1 0x40 MLOAD PUSH4 0x23B872DD PUSH1 0xE0 SHL DUP2 MSTORE CALLER PUSH1 0x4 DUP3 ADD MSTORE PUSH2 0x100 SWAP1 SWAP2 DIV PUSH1 0x1 PUSH1 0x1 PUSH1 0xA0 SHL SUB SWAP1 DUP2 AND PUSH1 0x24 DUP4 ADD MSTORE PUSH1 0x44 DUP3 ADD DUP6 SWAP1 MSTORE DUP12 AND SWAP1 PUSH4 0x23B872DD SWAP1 PUSH1 0x64 ADD PUSH1 0x20 PUSH1 0x40 MLOAD DUP1 DUP4 SUB DUP2 PUSH0 DUP8 GAS CALL ISZERO DUP1 ISZERO PUSH2 0x1A32 JUMPI RETURNDATASIZE PUSH0 DUP1 RETURNDATACOPY RETURNDATASIZE PUSH0 REVERT JUMPDEST POP POP POP POP PUSH1 0x40 MLOAD RETURNDATASIZE PUSH1 0x1F NOT PUSH1 0x1F DUP3 ADD AND DUP3 ADD DUP1 PUSH1 0x40 MSTORE POP DUP2 ADD SWAP1 PUSH2 0x1A56 SWAP2 SWAP1 PUSH2 0x3B3E JUMP JUMPDEST PUSH2 0x1A98 JUMPI PUSH1 0x40 MLOAD PUSH3 0x461BCD PUSH1 0xE5 SHL DUP2 MSTORE PUSH1 0x20 PUSH1 0x4 DUP3 ADD MSTORE PUSH1 0x13 PUSH1 0x24 DUP3 ADD MSTORE PUSH19 0x119959481D1C985B9CD9995C8819985A5B1959 PUSH1 0x6A SHL PUSH1 0x44 DUP3 ADD MSTORE PUSH1 0x64 ADD PUSH2 0x91D JUMP JUMPDEST PUSH2 0x1AAB DUP14 DUP14 DUP14 DUP14 DUP7 DUP15 DUP15 DUP15 DUP15 PUSH1 0x1 PUSH2 0x2E30 JUMP JUMPDEST POP POP POP POP POP POP POP POP POP POP POP POP POP POP JUMP JUMPDEST PUSH0 DUP2 PUSH0 SUB PUSH2 0x1ADB JUMPI PUSH1 0x40 MLOAD PUSH3 0x461BCD PUSH1 0xE5 SHL DUP2 MSTORE PUSH1 0x4 ADD PUSH2 0x91D SWAP1 PUSH2 0x3A44 JUMP JUMPDEST POP PUSH0 SWAP1 DUP2 MSTORE PUSH1 0x2 PUSH1 0x20 MSTORE PUSH1 0x40 SWAP1 KECCAK256 PUSH1 0x3 ADD SLOAD PUSH1 0x1 PUSH1 0x1 PUSH1 0xA0 SHL SUB AND SWAP1 JUMP JUMPDEST PUSH32 0x65D7A28E3265B37A6474929F336521B332C1681B933F6CB9F3376673440D862A PUSH2 0x1B23 DUP2 PUSH2 0x2A64 JUMP JUMPDEST PUSH2 0xEF4 PUSH2 0x31E6 JUMP JUMPDEST PUSH0 DUP1 MLOAD PUSH1 0x20 PUSH2 0x3C0F DUP4 CODECOPY DUP2 MLOAD SWAP2 MSTORE PUSH2 0x1B42 DUP2 PUSH2 0x2A64 JUMP JUMPDEST DUP2 MLOAD DUP4 MLOAD EQ PUSH2 0x1B63 JUMPI PUSH1 0x40 MLOAD PUSH3 0x461BCD PUSH1 0xE5 SHL DUP2 MSTORE PUSH1 0x4 ADD PUSH2 0x91D SWAP1 PUSH2 0x3B74 JUMP JUMPDEST PUSH0 JUMPDEST DUP4 MLOAD DUP2 LT ISZERO PUSH2 0xE51 JUMPI PUSH2 0x1BAA DUP5 DUP3 DUP2 MLOAD DUP2 LT PUSH2 0x1B83 JUMPI PUSH2 0x1B83 PUSH2 0x3A74 JUMP JUMPDEST PUSH1 0x20 MUL PUSH1 0x20 ADD ADD MLOAD DUP5 DUP4 DUP2 MLOAD DUP2 LT PUSH2 0x1B9D JUMPI PUSH2 0x1B9D PUSH2 0x3A74 JUMP JUMPDEST PUSH1 0x20 MUL PUSH1 0x20 ADD ADD MLOAD PUSH2 0x101A JUMP JUMPDEST PUSH1 0x1 ADD PUSH2 0x1B65 JUMP JUMPDEST PUSH0 SWAP2 DUP3 MSTORE PUSH1 0x20 DUP3 DUP2 MSTORE PUSH1 0x40 DUP1 DUP5 KECCAK256 PUSH1 0x1 PUSH1 0x1 PUSH1 0xA0 SHL SUB SWAP4 SWAP1 SWAP4 AND DUP5 MSTORE SWAP2 SWAP1 MSTORE SWAP1 KECCAK256 SLOAD PUSH1 0xFF AND SWAP1 JUMP JUMPDEST PUSH0 DUP2 PUSH0 SUB PUSH2 0x1BFA JUMPI PUSH1 0x40 MLOAD PUSH3 0x461BCD PUSH1 0xE5 SHL DUP2 MSTORE PUSH1 0x4 ADD PUSH2 0x91D SWAP1 PUSH2 0x3A44 JUMP JUMPDEST POP PUSH0 SWAP1 DUP2 MSTORE PUSH1 0x2 PUSH1 0x20 MSTORE PUSH1 0x40 SWAP1 KECCAK256 PUSH1 0xA ADD SLOAD PUSH1 0xFF AND SWAP1 JUMP JUMPDEST PUSH0 PUSH2 0x1C1C DUP2 PUSH2 0x2A64 JUMP JUMPDEST PUSH1 0x64 DUP3 GT ISZERO PUSH2 0x1C6D JUMPI PUSH1 0x40 MLOAD PUSH3 0x461BCD PUSH1 0xE5 SHL DUP2 MSTORE PUSH1 0x20 PUSH1 0x4 DUP3 ADD DUP2 SWAP1 MSTORE PUSH1 0x24 DUP3 ADD MSTORE PUSH32 0x4665652070657263656E746167652063616E6E6F742065786365656420313030 PUSH1 0x44 DUP3 ADD MSTORE PUSH1 0x64 ADD PUSH2 0x91D JUMP JUMPDEST POP PUSH1 0xA SSTORE JUMP JUMPDEST PUSH0 PUSH2 0x1C7D DUP2 PUSH2 0x2A64 JUMP JUMPDEST PUSH1 0x1 PUSH1 0x1 PUSH1 0xA0 SHL SUB DUP3 AND PUSH0 SWAP1 DUP2 MSTORE PUSH1 0x4 PUSH1 0x20 MSTORE PUSH1 0x40 SWAP1 KECCAK256 SLOAD PUSH1 0xFF AND ISZERO PUSH2 0x1CE5 JUMPI PUSH1 0x40 MLOAD PUSH3 0x461BCD PUSH1 0xE5 SHL DUP2 MSTORE PUSH1 0x20 PUSH1 0x4 DUP3 ADD MSTORE PUSH1 0x17 PUSH1 0x24 DUP3 ADD MSTORE PUSH32 0x546F6B656E20616C726561647920737570706F72746564000000000000000000 PUSH1 0x44 DUP3 ADD MSTORE PUSH1 0x64 ADD PUSH2 0x91D JUMP JUMPDEST PUSH1 0x1 PUSH1 0x1 PUSH1 0xA0 SHL SUB DUP3 AND PUSH0 DUP2 DUP2 MSTORE PUSH1 0x4 PUSH1 0x20 SWAP1 DUP2 MSTORE PUSH1 0x40 SWAP2 DUP3 SWAP1 KECCAK256 DUP1 SLOAD PUSH1 0xFF NOT AND PUSH1 0x1 OR SWAP1 SSTORE SWAP1 MLOAD SWAP2 DUP3 MSTORE PUSH32 0x6CFB39AE69ED806379425CD4DFA4138D579B95BDBF841CECCA4F5FF916BEECFB SWAP2 ADD PUSH2 0xDEC JUMP JUMPDEST PUSH0 DUP1 MLOAD PUSH1 0x20 PUSH2 0x3C0F DUP4 CODECOPY DUP2 MLOAD SWAP2 MSTORE PUSH2 0x1D4F DUP2 PUSH2 0x2A64 JUMP JUMPDEST PUSH0 DUP3 DUP2 MSTORE PUSH1 0x2 PUSH1 0x20 SWAP1 DUP2 MSTORE PUSH1 0x40 DUP1 DUP4 KECCAK256 PUSH1 0x5 SWAP1 SWAP3 MSTORE SWAP1 SWAP2 KECCAK256 SLOAD PUSH1 0xFF AND PUSH2 0x1DB7 JUMPI PUSH1 0x40 MLOAD PUSH3 0x461BCD PUSH1 0xE5 SHL DUP2 MSTORE PUSH1 0x20 PUSH1 0x4 DUP3 ADD MSTORE PUSH1 0x1A PUSH1 0x24 DUP3 ADD MSTORE PUSH32 0x43616E63656C6C6174696F6E206E6F7420696E69746961746564000000000000 PUSH1 0x44 DUP3 ADD MSTORE PUSH1 0x64 ADD PUSH2 0x91D JUMP JUMPDEST PUSH1 0xA DUP2 ADD SLOAD PUSH1 0xFF AND PUSH2 0x1DDB JUMPI PUSH1 0x40 MLOAD PUSH3 0x461BCD PUSH1 0xE5 SHL DUP2 MSTORE PUSH1 0x4 ADD PUSH2 0x91D SWAP1 PUSH2 0x3A88 JUMP JUMPDEST PUSH1 0xA DUP2 ADD SLOAD PUSH2 0x100 SWAP1 DIV PUSH1 0xFF AND ISZERO PUSH2 0x1E05 JUMPI PUSH1 0x40 MLOAD PUSH3 0x461BCD PUSH1 0xE5 SHL DUP2 MSTORE PUSH1 0x4 ADD PUSH2 0x91D SWAP1 PUSH2 0x3874 JUMP JUMPDEST PUSH1 0x5 DUP2 ADD SLOAD PUSH1 0x40 DUP1 MLOAD PUSH4 0x313CE567 PUSH1 0xE0 SHL DUP2 MSTORE SWAP1 MLOAD PUSH0 SWAP3 PUSH1 0x1 PUSH1 0x1 PUSH1 0xA0 SHL SUB AND SWAP2 PUSH4 0x313CE567 SWAP2 PUSH1 0x4 DUP1 DUP4 ADD SWAP3 PUSH1 0x20 SWAP3 SWAP2 SWAP1 DUP3 SWAP1 SUB ADD DUP2 DUP7 GAS STATICCALL ISZERO DUP1 ISZERO PUSH2 0x1E4E JUMPI RETURNDATASIZE PUSH0 DUP1 RETURNDATACOPY RETURNDATASIZE PUSH0 REVERT JUMPDEST POP POP POP POP PUSH1 0x40 MLOAD RETURNDATASIZE PUSH1 0x1F NOT PUSH1 0x1F DUP3 ADD AND DUP3 ADD DUP1 PUSH1 0x40 MSTORE POP DUP2 ADD SWAP1 PUSH2 0x1E72 SWAP2 SWAP1 PUSH2 0x3B59 JUMP JUMPDEST SWAP1 POP PUSH0 PUSH1 0xC SLOAD PUSH2 0x2710 PUSH1 0xB SLOAD DUP6 PUSH1 0x6 ADD SLOAD PUSH2 0x1E8D SWAP2 SWAP1 PUSH2 0x3A07 JUMP JUMPDEST PUSH2 0x1E97 SWAP2 SWAP1 PUSH2 0x39DB JUMP JUMPDEST PUSH2 0x1EA1 SWAP2 SWAP1 PUSH2 0x3A1E JUMP JUMPDEST SWAP1 POP PUSH0 PUSH2 0x1EB0 DUP3 PUSH1 0x12 DUP6 PUSH2 0x3221 JUMP JUMPDEST SWAP1 POP PUSH0 DUP3 DUP6 PUSH1 0x6 ADD SLOAD PUSH2 0x1EC3 SWAP2 SWAP1 PUSH2 0x3A31 JUMP JUMPDEST SWAP1 POP PUSH0 PUSH2 0x1ED2 DUP3 PUSH1 0x12 DUP8 PUSH2 0x3221 JUMP JUMPDEST PUSH1 0x5 DUP8 ADD SLOAD PUSH1 0x1 DUP9 ADD SLOAD PUSH1 0x40 MLOAD PUSH4 0xA9059CBB PUSH1 0xE0 SHL DUP2 MSTORE PUSH1 0x1 PUSH1 0x1 PUSH1 0xA0 SHL SUB SWAP2 DUP3 AND PUSH1 0x4 DUP3 ADD MSTORE PUSH1 0x24 DUP2 ADD DUP5 SWAP1 MSTORE SWAP3 SWAP4 POP AND SWAP1 PUSH4 0xA9059CBB SWAP1 PUSH1 0x44 ADD PUSH1 0x20 PUSH1 0x40 MLOAD DUP1 DUP4 SUB DUP2 PUSH0 DUP8 GAS CALL ISZERO DUP1 ISZERO PUSH2 0x1F2A JUMPI RETURNDATASIZE PUSH0 DUP1 RETURNDATACOPY RETURNDATASIZE PUSH0 REVERT JUMPDEST POP POP POP POP PUSH1 0x40 MLOAD RETURNDATASIZE PUSH1 0x1F NOT PUSH1 0x1F DUP3 ADD AND DUP3 ADD DUP1 PUSH1 0x40 MSTORE POP DUP2 ADD SWAP1 PUSH2 0x1F4E SWAP2 SWAP1 PUSH2 0x3B3E JUMP JUMPDEST PUSH2 0x1F8A JUMPI PUSH1 0x40 MLOAD PUSH3 0x461BCD PUSH1 0xE5 SHL DUP2 MSTORE PUSH1 0x20 PUSH1 0x4 DUP3 ADD MSTORE PUSH1 0xD PUSH1 0x24 DUP3 ADD MSTORE PUSH13 0x1499599D5B990819985A5B1959 PUSH1 0x9A SHL PUSH1 0x44 DUP3 ADD MSTORE PUSH1 0x64 ADD PUSH2 0x91D JUMP JUMPDEST PUSH1 0x5 DUP7 ADD SLOAD PUSH1 0xD SLOAD PUSH1 0x40 MLOAD PUSH4 0xA9059CBB PUSH1 0xE0 SHL DUP2 MSTORE PUSH1 0x1 PUSH1 0x1 PUSH1 0xA0 SHL SUB PUSH2 0x100 SWAP1 SWAP3 DIV DUP3 AND PUSH1 0x4 DUP3 ADD MSTORE PUSH1 0x24 DUP2 ADD DUP7 SWAP1 MSTORE SWAP2 AND SWAP1 PUSH4 0xA9059CBB SWAP1 PUSH1 0x44 ADD PUSH1 0x20 PUSH1 0x40 MLOAD DUP1 DUP4 SUB DUP2 PUSH0 DUP8 GAS CALL ISZERO DUP1 ISZERO PUSH2 0x1FE3 JUMPI RETURNDATASIZE PUSH0 DUP1 RETURNDATACOPY RETURNDATASIZE PUSH0 REVERT JUMPDEST POP POP POP POP PUSH1 0x40 MLOAD RETURNDATASIZE PUSH1 0x1F NOT PUSH1 0x1F DUP3 ADD AND DUP3 ADD DUP1 PUSH1 0x40 MSTORE POP DUP2 ADD SWAP1 PUSH2 0x2007 SWAP2 SWAP1 PUSH2 0x3B3E JUMP JUMPDEST PUSH2 0x2049 JUMPI PUSH1 0x40 MLOAD PUSH3 0x461BCD PUSH1 0xE5 SHL DUP2 MSTORE PUSH1 0x20 PUSH1 0x4 DUP3 ADD MSTORE PUSH1 0x13 PUSH1 0x24 DUP3 ADD MSTORE PUSH19 0x119959481D1C985B9CD9995C8819985A5B1959 PUSH1 0x6A SHL PUSH1 0x44 DUP3 ADD MSTORE PUSH1 0x64 ADD PUSH2 0x91D JUMP JUMPDEST PUSH1 0xA DUP7 ADD DUP1 SLOAD PUSH2 0xFF00 NOT AND PUSH2 0x200 OR SWAP1 SSTORE PUSH0 DUP9 DUP2 MSTORE PUSH1 0x5 PUSH1 0x20 MSTORE PUSH1 0x40 SWAP1 KECCAK256 DUP1 SLOAD PUSH1 0xFF NOT AND SWAP1 SSTORE PUSH2 0x2078 DUP9 PUSH2 0x2A6E JUMP JUMPDEST PUSH1 0x1 DUP7 ADD SLOAD DUP7 SLOAD PUSH1 0x2 DUP9 ADD SLOAD PUSH1 0x3 DUP10 ADD SLOAD PUSH1 0xA DUP11 ADD SLOAD PUSH1 0x40 MLOAD PUSH1 0x1 PUSH1 0x1 PUSH1 0xA0 SHL SUB SWAP6 DUP7 AND SWAP6 PUSH32 0xF9AF3004ACF8C0A1B894F2CDA23578E7E848F811D582D389989A18FB1CAED8B9 SWAP5 PUSH2 0x20D3 SWAP5 SWAP1 SWAP4 SWAP2 AND SWAP2 PUSH1 0xFF SWAP1 SWAP2 AND SWAP1 PUSH2 0x38A1 JUMP JUMPDEST PUSH1 0x40 MLOAD DUP1 SWAP2 SUB SWAP1 LOG3 POP POP POP POP POP POP POP POP JUMP JUMPDEST PUSH0 DUP1 MLOAD PUSH1 0x20 PUSH2 0x3C0F DUP4 CODECOPY DUP2 MLOAD SWAP2 MSTORE PUSH2 0x20FC DUP2 PUSH2 0x2A64 JUMP JUMPDEST PUSH0 JUMPDEST DUP3 MLOAD DUP2 LT ISZERO PUSH2 0xE8A JUMPI PUSH2 0x2129 DUP4 DUP3 DUP2 MLOAD DUP2 LT PUSH2 0x211C JUMPI PUSH2 0x211C PUSH2 0x3A74 JUMP JUMPDEST PUSH1 0x20 MUL PUSH1 0x20 ADD ADD MLOAD PUSH2 0x1560 JUMP JUMPDEST PUSH1 0x1 ADD PUSH2 0x20FE JUMP JUMPDEST PUSH0 DUP1 MLOAD PUSH1 0x20 PUSH2 0x3C0F DUP4 CODECOPY DUP2 MLOAD SWAP2 MSTORE PUSH2 0x2148 DUP2 PUSH2 0x2A64 JUMP JUMPDEST DUP2 MLOAD DUP4 MLOAD EQ PUSH2 0x2169 JUMPI PUSH1 0x40 MLOAD PUSH3 0x461BCD PUSH1 0xE5 SHL DUP2 MSTORE PUSH1 0x4 ADD PUSH2 0x91D SWAP1 PUSH2 0x3B74 JUMP JUMPDEST PUSH0 JUMPDEST DUP4 MLOAD DUP2 LT ISZERO PUSH2 0xE51 JUMPI PUSH2 0x21B0 DUP5 DUP3 DUP2 MLOAD DUP2 LT PUSH2 0x2189 JUMPI PUSH2 0x2189 PUSH2 0x3A74 JUMP JUMPDEST PUSH1 0x20 MUL PUSH1 0x20 ADD ADD MLOAD DUP5 DUP4 DUP2 MLOAD DUP2 LT PUSH2 0x21A3 JUMPI PUSH2 0x21A3 PUSH2 0x3A74 JUMP JUMPDEST PUSH1 0x20 MUL PUSH1 0x20 ADD ADD MLOAD PUSH2 0x24ED JUMP JUMPDEST PUSH1 0x1 ADD PUSH2 0x216B JUMP JUMPDEST PUSH2 0x21C0 PUSH2 0x32D5 JUMP JUMPDEST DUP2 PUSH0 SUB PUSH2 0x21DF JUMPI PUSH1 0x40 MLOAD PUSH3 0x461BCD PUSH1 0xE5 SHL DUP2 MSTORE PUSH1 0x4 ADD PUSH2 0x91D SWAP1 PUSH2 0x3A44 JUMP JUMPDEST POP PUSH0 SWAP1 DUP2 MSTORE PUSH1 0x2 PUSH1 0x20 DUP2 DUP2 MSTORE PUSH1 0x40 SWAP3 DUP4 SWAP1 KECCAK256 DUP4 MLOAD PUSH2 0x180 DUP2 ADD DUP6 MSTORE DUP2 SLOAD DUP2 MSTORE PUSH1 0x1 DUP3 ADD SLOAD PUSH1 0x1 PUSH1 0x1 PUSH1 0xA0 SHL SUB SWAP1 DUP2 AND SWAP4 DUP3 ADD SWAP4 SWAP1 SWAP4 MSTORE SWAP3 DUP2 ADD SLOAD SWAP4 DUP4 ADD SWAP4 SWAP1 SWAP4 MSTORE PUSH1 0x3 DUP4 ADD SLOAD DUP2 AND PUSH1 0x60 DUP4 ADD MSTORE PUSH1 0x4 DUP4 ADD SLOAD DUP2 AND PUSH1 0x80 DUP4 ADD MSTORE PUSH1 0x5 DUP4 ADD SLOAD AND PUSH1 0xA0 DUP3 ADD MSTORE PUSH1 0x6 DUP3 ADD SLOAD PUSH1 0xC0 DUP3 ADD MSTORE PUSH1 0x7 DUP3 ADD SLOAD PUSH1 0xE0 DUP3 ADD MSTORE PUSH1 0x8 DUP3 ADD SLOAD PUSH2 0x100 DUP1 DUP4 ADD SWAP2 SWAP1 SWAP2 MSTORE PUSH1 0x9 DUP4 ADD SLOAD PUSH2 0x120 DUP4 ADD MSTORE PUSH1 0xA SWAP1 SWAP3 ADD SLOAD PUSH1 0xFF DUP1 DUP3 AND ISZERO ISZERO PUSH2 0x140 DUP5 ADD MSTORE SWAP3 SWAP1 DIV SWAP1 SWAP2 AND PUSH2 0x160 DUP3 ADD MSTORE SWAP1 JUMP JUMPDEST PUSH0 DUP3 DUP2 MSTORE PUSH1 0x20 DUP2 SWAP1 MSTORE PUSH1 0x40 SWAP1 KECCAK256 PUSH1 0x1 ADD SLOAD PUSH2 0x22AD DUP2 PUSH2 0x2A64 JUMP JUMPDEST PUSH2 0xE51 DUP4 DUP4 PUSH2 0x2BBC JUMP JUMPDEST PUSH0 DUP2 PUSH0 SUB PUSH2 0x22D7 JUMPI PUSH1 0x40 MLOAD PUSH3 0x461BCD PUSH1 0xE5 SHL DUP2 MSTORE PUSH1 0x4 ADD PUSH2 0x91D SWAP1 PUSH2 0x3A44 JUMP JUMPDEST POP PUSH0 SWAP1 DUP2 MSTORE PUSH1 0x2 PUSH1 0x20 MSTORE PUSH1 0x40 SWAP1 KECCAK256 PUSH1 0xA ADD SLOAD PUSH2 0x100 SWAP1 DIV PUSH1 0xFF AND SWAP1 JUMP JUMPDEST PUSH0 DUP1 MLOAD PUSH1 0x20 PUSH2 0x3C0F DUP4 CODECOPY DUP2 MLOAD SWAP2 MSTORE PUSH2 0x230B DUP2 PUSH2 0x2A64 JUMP JUMPDEST PUSH0 JUMPDEST DUP3 MLOAD DUP2 LT ISZERO PUSH2 0xE8A JUMPI PUSH2 0x2338 DUP4 DUP3 DUP2 MLOAD DUP2 LT PUSH2 0x232B JUMPI PUSH2 0x232B PUSH2 0x3A74 JUMP JUMPDEST PUSH1 0x20 MUL PUSH1 0x20 ADD ADD MLOAD PUSH2 0xA57 JUMP JUMPDEST PUSH1 0x1 ADD PUSH2 0x230D JUMP JUMPDEST PUSH1 0x7 DUP2 DUP2 SLOAD DUP2 LT PUSH2 0x234F JUMPI PUSH0 DUP1 REVERT JUMPDEST PUSH0 SWAP2 DUP3 MSTORE PUSH1 0x20 SWAP1 SWAP2 KECCAK256 ADD SLOAD SWAP1 POP DUP2 JUMP JUMPDEST PUSH0 PUSH2 0x2369 DUP2 PUSH2 0x2A64 JUMP JUMPDEST PUSH1 0x1 PUSH1 0x1 PUSH1 0xA0 SHL SUB DUP3 AND PUSH2 0x23CF JUMPI PUSH1 0x40 MLOAD PUSH3 0x461BCD PUSH1 0xE5 SHL DUP2 MSTORE PUSH1 0x20 PUSH1 0x4 DUP3 ADD MSTORE PUSH1 0x27 PUSH1 0x24 DUP3 ADD MSTORE PUSH32 0x496E76616C696420616464726573733A2063616E6E6F74206265207A65726F20 PUSH1 0x44 DUP3 ADD MSTORE PUSH7 0x61646472657373 PUSH1 0xC8 SHL PUSH1 0x64 DUP3 ADD MSTORE PUSH1 0x84 ADD PUSH2 0x91D JUMP JUMPDEST POP PUSH1 0xD DUP1 SLOAD PUSH1 0x1 PUSH1 0x1 PUSH1 0xA0 SHL SUB SWAP1 SWAP3 AND PUSH2 0x100 MUL PUSH2 0x100 PUSH1 0x1 PUSH1 0xA8 SHL SUB NOT SWAP1 SWAP3 AND SWAP2 SWAP1 SWAP2 OR SWAP1 SSTORE JUMP JUMPDEST PUSH0 DUP2 PUSH0 SUB PUSH2 0x2418 JUMPI PUSH1 0x40 MLOAD PUSH3 0x461BCD PUSH1 0xE5 SHL DUP2 MSTORE PUSH1 0x4 ADD PUSH2 0x91D SWAP1 PUSH2 0x3A44 JUMP JUMPDEST POP PUSH0 SWAP1 DUP2 MSTORE PUSH1 0x2 PUSH1 0x20 MSTORE PUSH1 0x40 SWAP1 KECCAK256 PUSH1 0x1 ADD SLOAD PUSH1 0x1 PUSH1 0x1 PUSH1 0xA0 SHL SUB AND SWAP1 JUMP JUMPDEST PUSH0 DUP2 PUSH0 SUB PUSH2 0x2456 JUMPI PUSH1 0x40 MLOAD PUSH3 0x461BCD PUSH1 0xE5 SHL DUP2 MSTORE PUSH1 0x4 ADD PUSH2 0x91D SWAP1 PUSH2 0x3A44 JUMP JUMPDEST POP PUSH0 SWAP1 DUP2 MSTORE PUSH1 0x2 PUSH1 0x20 MSTORE PUSH1 0x40 SWAP1 KECCAK256 PUSH1 0x7 ADD SLOAD SWAP1 JUMP JUMPDEST PUSH2 0x2473 PUSH2 0x2A3E JUMP JUMPDEST PUSH0 DUP2 DUP2 MSTORE PUSH1 0x2 PUSH1 0x20 MSTORE PUSH1 0x40 SWAP1 KECCAK256 PUSH1 0x1 DUP2 ADD SLOAD PUSH1 0x1 PUSH1 0x1 PUSH1 0xA0 SHL SUB AND CALLER EQ DUP1 PUSH2 0x24AD JUMPI POP PUSH2 0x24AD PUSH0 DUP1 MLOAD PUSH1 0x20 PUSH2 0x3C0F DUP4 CODECOPY DUP2 MLOAD SWAP2 MSTORE CALLER PUSH2 0x1BB2 JUMP JUMPDEST PUSH2 0x24C9 JUMPI PUSH1 0x40 MLOAD PUSH3 0x461BCD PUSH1 0xE5 SHL DUP2 MSTORE PUSH1 0x4 ADD PUSH2 0x91D SWAP1 PUSH2 0x3807 JUMP JUMPDEST PUSH1 0xA DUP2 ADD SLOAD PUSH1 0xFF AND PUSH2 0x94B JUMPI PUSH1 0x40 MLOAD PUSH3 0x461BCD PUSH1 0xE5 SHL DUP2 MSTORE PUSH1 0x4 ADD PUSH2 0x91D SWAP1 PUSH2 0x3A88 JUMP JUMPDEST PUSH0 DUP1 MLOAD PUSH1 0x20 PUSH2 0x3C0F DUP4 CODECOPY DUP2 MLOAD SWAP2 MSTORE PUSH2 0x2504 DUP2 PUSH2 0x2A64 JUMP JUMPDEST PUSH0 DUP4 DUP2 MSTORE PUSH1 0x2 PUSH1 0x20 MSTORE PUSH1 0x40 SWAP1 KECCAK256 PUSH1 0xA DUP2 ADD SLOAD PUSH2 0x100 SWAP1 DIV PUSH1 0xFF AND ISZERO PUSH2 0x253B JUMPI PUSH1 0x40 MLOAD PUSH3 0x461BCD PUSH1 0xE5 SHL DUP2 MSTORE PUSH1 0x4 ADD PUSH2 0x91D SWAP1 PUSH2 0x3874 JUMP JUMPDEST PUSH1 0xA DUP2 ADD SLOAD PUSH1 0xFF AND ISZERO PUSH2 0x2560 JUMPI PUSH1 0x40 MLOAD PUSH3 0x461BCD PUSH1 0xE5 SHL DUP2 MSTORE PUSH1 0x4 ADD PUSH2 0x91D SWAP1 PUSH2 0x3848 JUMP JUMPDEST PUSH1 0x5 DUP2 ADD SLOAD PUSH1 0x40 DUP1 MLOAD PUSH4 0x313CE567 PUSH1 0xE0 SHL DUP2 MSTORE SWAP1 MLOAD PUSH0 SWAP3 PUSH1 0x1 PUSH1 0x1 PUSH1 0xA0 SHL SUB AND SWAP2 PUSH4 0x313CE567 SWAP2 PUSH1 0x4 DUP1 DUP4 ADD SWAP3 PUSH1 0x20 SWAP3 SWAP2 SWAP1 DUP3 SWAP1 SUB ADD DUP2 DUP7 GAS STATICCALL ISZERO DUP1 ISZERO PUSH2 0x25A9 JUMPI RETURNDATASIZE PUSH0 DUP1 RETURNDATACOPY RETURNDATASIZE PUSH0 REVERT JUMPDEST POP POP POP POP PUSH1 0x40 MLOAD RETURNDATASIZE PUSH1 0x1F NOT PUSH1 0x1F DUP3 ADD AND DUP3 ADD DUP1 PUSH1 0x40 MSTORE POP DUP2 ADD SWAP1 PUSH2 0x25CD SWAP2 SWAP1 PUSH2 0x3B59 JUMP JUMPDEST PUSH1 0xD SLOAD SWAP1 SWAP2 POP PUSH0 SWAP1 PUSH2 0x25E3 SWAP1 PUSH1 0xFF AND PUSH1 0xA PUSH2 0x39B9 JUMP JUMPDEST PUSH2 0x25ED SWAP1 DUP7 PUSH2 0x39DB JUMP JUMPDEST PUSH1 0xD SLOAD SWAP1 SWAP2 POP PUSH0 SWAP1 PUSH2 0x2603 SWAP1 PUSH1 0xFF AND PUSH1 0x12 PUSH2 0x39EE JUMP JUMPDEST PUSH2 0x260E SWAP1 PUSH1 0xA PUSH2 0x39B9 JUMP JUMPDEST DUP3 DUP6 PUSH1 0x7 ADD SLOAD PUSH2 0x261E SWAP2 SWAP1 PUSH2 0x3A07 JUMP JUMPDEST PUSH2 0x2628 SWAP2 SWAP1 PUSH2 0x39DB JUMP JUMPDEST SWAP1 POP PUSH0 PUSH1 0xC SLOAD PUSH2 0x2710 PUSH1 0xA SLOAD DUP5 PUSH2 0x263F SWAP2 SWAP1 PUSH2 0x3A07 JUMP JUMPDEST PUSH2 0x2649 SWAP2 SWAP1 PUSH2 0x39DB JUMP JUMPDEST PUSH2 0x2653 SWAP2 SWAP1 PUSH2 0x3A1E JUMP JUMPDEST SWAP1 POP PUSH2 0x266A PUSH2 0x2662 DUP3 DUP5 PUSH2 0x3A31 JUMP JUMPDEST PUSH1 0x12 DUP7 PUSH2 0x3221 JUMP JUMPDEST PUSH1 0x5 DUP7 ADD SLOAD PUSH1 0x40 MLOAD PUSH4 0x70A08231 PUSH1 0xE0 SHL DUP2 MSTORE ADDRESS PUSH1 0x4 DUP3 ADD MSTORE PUSH1 0x1 PUSH1 0x1 PUSH1 0xA0 SHL SUB SWAP1 SWAP2 AND SWAP1 PUSH4 0x70A08231 SWAP1 PUSH1 0x24 ADD PUSH1 0x20 PUSH1 0x40 MLOAD DUP1 DUP4 SUB DUP2 DUP7 GAS STATICCALL ISZERO DUP1 ISZERO PUSH2 0x26B2 JUMPI RETURNDATASIZE PUSH0 DUP1 RETURNDATACOPY RETURNDATASIZE PUSH0 REVERT JUMPDEST POP POP POP POP PUSH1 0x40 MLOAD RETURNDATASIZE PUSH1 0x1F NOT PUSH1 0x1F DUP3 ADD AND DUP3 ADD DUP1 PUSH1 0x40 MSTORE POP DUP2 ADD SWAP1 PUSH2 0x26D6 SWAP2 SWAP1 PUSH2 0x3B27 JUMP JUMPDEST LT ISZERO PUSH2 0x2730 JUMPI PUSH1 0x40 MLOAD PUSH3 0x461BCD PUSH1 0xE5 SHL DUP2 MSTORE PUSH1 0x20 PUSH1 0x4 DUP3 ADD MSTORE PUSH1 0x23 PUSH1 0x24 DUP3 ADD MSTORE PUSH32 0x436F6E747261637420646F6573206E6F74206861766520656E6F756768206675 PUSH1 0x44 DUP3 ADD MSTORE PUSH3 0x6E6473 PUSH1 0xE8 SHL PUSH1 0x64 DUP3 ADD MSTORE PUSH1 0x84 ADD PUSH2 0x91D JUMP JUMPDEST PUSH1 0x5 DUP6 ADD SLOAD PUSH1 0xD SLOAD PUSH1 0x1 PUSH1 0x1 PUSH1 0xA0 SHL SUB SWAP2 DUP3 AND SWAP2 PUSH4 0xA9059CBB SWAP2 PUSH2 0x100 SWAP1 DIV AND PUSH2 0x275C DUP5 PUSH1 0x12 DUP10 PUSH2 0x3221 JUMP JUMPDEST PUSH1 0x40 MLOAD PUSH1 0x1 PUSH1 0x1 PUSH1 0xE0 SHL SUB NOT PUSH1 0xE0 DUP6 SWAP1 SHL AND DUP2 MSTORE PUSH1 0x1 PUSH1 0x1 PUSH1 0xA0 SHL SUB SWAP1 SWAP3 AND PUSH1 0x4 DUP4 ADD MSTORE PUSH1 0x24 DUP3 ADD MSTORE PUSH1 0x44 ADD PUSH1 0x20 PUSH1 0x40 MLOAD DUP1 DUP4 SUB DUP2 PUSH0 DUP8 GAS CALL ISZERO DUP1 ISZERO PUSH2 0x27A4 JUMPI RETURNDATASIZE PUSH0 DUP1 RETURNDATACOPY RETURNDATASIZE PUSH0 REVERT JUMPDEST POP POP POP POP PUSH1 0x40 MLOAD RETURNDATASIZE PUSH1 0x1F NOT PUSH1 0x1F DUP3 ADD AND DUP3 ADD DUP1 PUSH1 0x40 MSTORE POP DUP2 ADD SWAP1 PUSH2 0x27C8 SWAP2 SWAP1 PUSH2 0x3B3E JUMP JUMPDEST PUSH2 0x2820 JUMPI PUSH1 0x40 MLOAD PUSH3 0x461BCD PUSH1 0xE5 SHL DUP2 MSTORE PUSH1 0x20 PUSH1 0x4 DUP3 ADD MSTORE PUSH1 0x24 DUP1 DUP3 ADD MSTORE PUSH32 0x466565207472616E7366657220746F2066656520726563697069656E74206661 PUSH1 0x44 DUP3 ADD MSTORE PUSH4 0x1A5B1959 PUSH1 0xE2 SHL PUSH1 0x64 DUP3 ADD MSTORE PUSH1 0x84 ADD PUSH2 0x91D JUMP JUMPDEST PUSH1 0x5 DUP6 ADD SLOAD PUSH1 0x1 DUP7 ADD SLOAD PUSH1 0x1 PUSH1 0x1 PUSH1 0xA0 SHL SUB SWAP2 DUP3 AND SWAP2 PUSH4 0xA9059CBB SWAP2 AND PUSH2 0x2852 PUSH2 0x284A DUP6 DUP8 PUSH2 0x3A31 JUMP JUMPDEST PUSH1 0x12 DUP10 PUSH2 0x3221 JUMP JUMPDEST PUSH1 0x40 MLOAD PUSH1 0x1 PUSH1 0x1 PUSH1 0xE0 SHL SUB NOT PUSH1 0xE0 DUP6 SWAP1 SHL AND DUP2 MSTORE PUSH1 0x1 PUSH1 0x1 PUSH1 0xA0 SHL SUB SWAP1 SWAP3 AND PUSH1 0x4 DUP4 ADD MSTORE PUSH1 0x24 DUP3 ADD MSTORE PUSH1 0x44 ADD PUSH1 0x20 PUSH1 0x40 MLOAD DUP1 DUP4 SUB DUP2 PUSH0 DUP8 GAS CALL ISZERO DUP1 ISZERO PUSH2 0x289A JUMPI RETURNDATASIZE PUSH0 DUP1 RETURNDATACOPY RETURNDATASIZE PUSH0 REVERT JUMPDEST POP POP POP POP PUSH1 0x40 MLOAD RETURNDATASIZE PUSH1 0x1F NOT PUSH1 0x1F DUP3 ADD AND DUP3 ADD DUP1 PUSH1 0x40 MSTORE POP DUP2 ADD SWAP1 PUSH2 0x28BE SWAP2 SWAP1 PUSH2 0x3B3E JUMP JUMPDEST PUSH2 0x2919 JUMPI PUSH1 0x40 MLOAD PUSH3 0x461BCD PUSH1 0xE5 SHL DUP2 MSTORE PUSH1 0x20 PUSH1 0x4 DUP3 ADD MSTORE PUSH1 0x26 PUSH1 0x24 DUP3 ADD MSTORE PUSH32 0x5472616E73666572206F6620737461626C6520636F696E20746F207573657220 PUSH1 0x44 DUP3 ADD MSTORE PUSH6 0x19985A5B1959 PUSH1 0xD2 SHL PUSH1 0x64 DUP3 ADD MSTORE PUSH1 0x84 ADD PUSH2 0x91D JUMP JUMPDEST PUSH1 0x7 DUP6 ADD SLOAD PUSH1 0x1 DUP7 ADD SLOAD PUSH1 0x1 PUSH1 0x1 PUSH1 0xA0 SHL SUB SWAP1 DUP2 AND PUSH0 SWAP1 DUP2 MSTORE PUSH1 0x3 PUSH1 0x20 DUP2 DUP2 MSTORE PUSH1 0x40 DUP1 DUP5 KECCAK256 PUSH1 0x2 DUP13 ADD SLOAD DUP6 MSTORE DUP3 MSTORE DUP1 DUP5 KECCAK256 SWAP3 DUP12 ADD SLOAD SWAP1 SWAP5 AND DUP4 MSTORE MSTORE SWAP1 DUP2 KECCAK256 DUP1 SLOAD SWAP1 SWAP2 SWAP1 PUSH2 0x2967 SWAP1 DUP5 SWAP1 PUSH2 0x3A31 JUMP JUMPDEST SWAP1 SWAP2 SSTORE POP POP PUSH1 0xA DUP6 ADD DUP1 SLOAD PUSH2 0xFF00 NOT AND PUSH2 0x100 OR SWAP1 SSTORE PUSH2 0x2986 DUP9 PUSH2 0x2A6E JUMP JUMPDEST DUP5 PUSH1 0x1 ADD PUSH0 SWAP1 SLOAD SWAP1 PUSH2 0x100 EXP SWAP1 DIV PUSH1 0x1 PUSH1 0x1 PUSH1 0xA0 SHL SUB AND PUSH1 0x1 PUSH1 0x1 PUSH1 0xA0 SHL SUB AND DUP9 PUSH32 0xC1A6BF08DCC3E3A120DDD2394D7C09126F65F7942D7D8666A57AAEB25E3DEB9E DUP8 PUSH1 0x2 ADD SLOAD DUP9 PUSH1 0x3 ADD PUSH0 SWAP1 SLOAD SWAP1 PUSH2 0x100 EXP SWAP1 DIV PUSH1 0x1 PUSH1 0x1 PUSH1 0xA0 SHL SUB AND DUP10 PUSH1 0x4 ADD PUSH0 SWAP1 SLOAD SWAP1 PUSH2 0x100 EXP SWAP1 DIV PUSH1 0x1 PUSH1 0x1 PUSH1 0xA0 SHL SUB AND DUP11 PUSH1 0x5 ADD PUSH0 SWAP1 SLOAD SWAP1 PUSH2 0x100 EXP SWAP1 DIV PUSH1 0x1 PUSH1 0x1 PUSH1 0xA0 SHL SUB AND DUP9 DUP13 PUSH1 0x7 ADD SLOAD DUP16 DUP15 PUSH1 0xA ADD PUSH0 SWAP1 SLOAD SWAP1 PUSH2 0x100 EXP SWAP1 DIV PUSH1 0xFF AND PUSH1 0x40 MLOAD PUSH2 0x20D3 SWAP9 SWAP8 SWAP7 SWAP6 SWAP5 SWAP4 SWAP3 SWAP2 SWAP1 PUSH2 0x3AB3 JUMP JUMPDEST PUSH1 0x1 SLOAD PUSH1 0xFF AND ISZERO PUSH2 0x2A62 JUMPI PUSH1 0x40 MLOAD PUSH4 0xD93C0665 PUSH1 0xE0 SHL DUP2 MSTORE PUSH1 0x4 ADD PUSH1 0x40 MLOAD DUP1 SWAP2 SUB SWAP1 REVERT JUMPDEST JUMP JUMPDEST PUSH2 0xEF4 DUP2 CALLER PUSH2 0x3275 JUMP JUMPDEST PUSH0 DUP2 DUP2 MSTORE PUSH1 0x6 PUSH1 0x20 MSTORE PUSH1 0x40 DUP2 KECCAK256 SLOAD PUSH1 0x7 DUP1 SLOAD SWAP2 SWAP3 SWAP2 PUSH2 0x2A8F SWAP1 PUSH1 0x1 SWAP1 PUSH2 0x3A31 JUMP JUMPDEST DUP2 SLOAD DUP2 LT PUSH2 0x2A9F JUMPI PUSH2 0x2A9F PUSH2 0x3A74 JUMP JUMPDEST SWAP1 PUSH0 MSTORE PUSH1 0x20 PUSH0 KECCAK256 ADD SLOAD SWAP1 POP DUP1 PUSH1 0x7 DUP4 DUP2 SLOAD DUP2 LT PUSH2 0x2ABE JUMPI PUSH2 0x2ABE PUSH2 0x3A74 JUMP JUMPDEST PUSH0 SWAP2 DUP3 MSTORE PUSH1 0x20 DUP1 DUP4 KECCAK256 SWAP1 SWAP2 ADD SWAP3 SWAP1 SWAP3 SSTORE DUP3 DUP2 MSTORE PUSH1 0x6 SWAP1 SWAP2 MSTORE PUSH1 0x40 SWAP1 KECCAK256 DUP3 SWAP1 SSTORE PUSH1 0x7 DUP1 SLOAD DUP1 PUSH2 0x2AEE JUMPI PUSH2 0x2AEE PUSH2 0x3BBA JUMP JUMPDEST PUSH0 DUP3 DUP2 MSTORE PUSH1 0x20 DUP1 DUP3 KECCAK256 DUP4 ADD PUSH0 NOT SWAP1 DUP2 ADD DUP4 SWAP1 SSTORE SWAP1 SWAP3 ADD SWAP1 SWAP3 SSTORE DUP5 DUP3 MSTORE PUSH1 0x6 SWAP1 MSTORE PUSH1 0x40 DUP2 KECCAK256 DUP2 SWAP1 SSTORE PUSH1 0x8 DUP1 SLOAD SWAP2 PUSH2 0x2B23 DUP4 PUSH2 0x3BCE JUMP JUMPDEST SWAP2 SWAP1 POP SSTORE POP POP POP POP JUMP JUMPDEST PUSH0 PUSH2 0x2B38 DUP4 DUP4 PUSH2 0x1BB2 JUMP JUMPDEST PUSH2 0x2BB5 JUMPI PUSH0 DUP4 DUP2 MSTORE PUSH1 0x20 DUP2 DUP2 MSTORE PUSH1 0x40 DUP1 DUP4 KECCAK256 PUSH1 0x1 PUSH1 0x1 PUSH1 0xA0 SHL SUB DUP7 AND DUP5 MSTORE SWAP1 SWAP2 MSTORE SWAP1 KECCAK256 DUP1 SLOAD PUSH1 0xFF NOT AND PUSH1 0x1 OR SWAP1 SSTORE PUSH2 0x2B6D CALLER SWAP1 JUMP JUMPDEST PUSH1 0x1 PUSH1 0x1 PUSH1 0xA0 SHL SUB AND DUP3 PUSH1 0x1 PUSH1 0x1 PUSH1 0xA0 SHL SUB AND DUP5 PUSH32 0x2F8788117E7EFF1D82E926EC794901D17C78024A50270940304540A733656F0D PUSH1 0x40 MLOAD PUSH1 0x40 MLOAD DUP1 SWAP2 SUB SWAP1 LOG4 POP PUSH1 0x1 PUSH2 0x8B9 JUMP JUMPDEST POP PUSH0 PUSH2 0x8B9 JUMP JUMPDEST PUSH0 PUSH2 0x2BC7 DUP4 DUP4 PUSH2 0x1BB2 JUMP JUMPDEST ISZERO PUSH2 0x2BB5 JUMPI PUSH0 DUP4 DUP2 MSTORE PUSH1 0x20 DUP2 DUP2 MSTORE PUSH1 0x40 DUP1 DUP4 KECCAK256 PUSH1 0x1 PUSH1 0x1 PUSH1 0xA0 SHL SUB DUP7 AND DUP1 DUP6 MSTORE SWAP3 MSTORE DUP1 DUP4 KECCAK256 DUP1 SLOAD PUSH1 0xFF NOT AND SWAP1 SSTORE MLOAD CALLER SWAP3 DUP7 SWAP2 PUSH32 0xF6391F5C32D9C69D2A47EA670B442974B53935D1EDC7FD64EB21E047A839171B SWAP2 SWAP1 LOG4 POP PUSH1 0x1 PUSH2 0x8B9 JUMP JUMPDEST PUSH1 0xD SLOAD PUSH0 SWAP1 PUSH2 0x2C38 SWAP1 PUSH1 0xFF AND PUSH1 0x12 PUSH2 0x39EE JUMP JUMPDEST PUSH2 0x2C43 SWAP1 PUSH1 0xA PUSH2 0x39B9 JUMP JUMPDEST PUSH1 0xD SLOAD PUSH2 0x2C54 SWAP1 PUSH1 0xFF AND PUSH1 0xA PUSH2 0x39B9 JUMP JUMPDEST PUSH2 0x2C5E SWAP1 DUP7 PUSH2 0x39DB JUMP JUMPDEST PUSH2 0x2C68 SWAP1 DUP9 PUSH2 0x3A07 JUMP JUMPDEST PUSH2 0x2C72 SWAP2 SWAP1 PUSH2 0x39DB JUMP JUMPDEST PUSH1 0xD SLOAD SWAP1 SWAP2 POP PUSH0 SWAP1 PUSH2 0x2C88 SWAP1 PUSH1 0xFF AND PUSH1 0x12 PUSH2 0x39EE JUMP JUMPDEST PUSH2 0x2C93 SWAP1 PUSH1 0xA PUSH2 0x39B9 JUMP JUMPDEST PUSH1 0xD SLOAD PUSH2 0x2CA4 SWAP1 PUSH1 0xFF AND PUSH1 0xA PUSH2 0x39B9 JUMP JUMPDEST PUSH2 0x2CAE SWAP1 DUP9 PUSH2 0x39DB JUMP JUMPDEST PUSH2 0x2CB8 SWAP1 DUP10 PUSH2 0x3A07 JUMP JUMPDEST PUSH2 0x2CC2 SWAP2 SWAP1 PUSH2 0x39DB JUMP JUMPDEST SWAP1 POP PUSH1 0xC SLOAD DUP3 GT PUSH2 0x2D2A JUMPI PUSH1 0x40 MLOAD PUSH3 0x461BCD PUSH1 0xE5 SHL DUP2 MSTORE PUSH1 0x20 PUSH1 0x4 DUP3 ADD MSTORE PUSH1 0x2C PUSH1 0x24 DUP3 ADD MSTORE PUSH32 0x546F6B656E20616D6F756E74206D757374206265206772656174657220746861 PUSH1 0x44 DUP3 ADD MSTORE PUSH12 0x1B8819D85CC8185B5BDD5B9D PUSH1 0xA2 SHL PUSH1 0x64 DUP3 ADD MSTORE PUSH1 0x84 ADD PUSH2 0x91D JUMP JUMPDEST CALLER PUSH0 SWAP1 DUP2 MSTORE PUSH1 0x3 PUSH1 0x20 SWAP1 DUP2 MSTORE PUSH1 0x40 DUP1 DUP4 KECCAK256 DUP8 DUP5 MSTORE DUP3 MSTORE DUP1 DUP4 KECCAK256 PUSH1 0x1 PUSH1 0x1 PUSH1 0xA0 SHL SUB DUP8 AND DUP5 MSTORE SWAP1 SWAP2 MSTORE SWAP1 KECCAK256 SLOAD DUP8 GT ISZERO PUSH2 0x2DA4 JUMPI PUSH1 0x40 MLOAD PUSH3 0x461BCD PUSH1 0xE5 SHL DUP2 MSTORE PUSH1 0x20 PUSH1 0x4 DUP3 ADD MSTORE PUSH1 0x1A PUSH1 0x24 DUP3 ADD MSTORE PUSH32 0x496E73756666696369656E7420746F6B656E2062616C616E6365000000000000 PUSH1 0x44 DUP3 ADD MSTORE PUSH1 0x64 ADD PUSH2 0x91D JUMP JUMPDEST DUP2 DUP9 LT ISZERO DUP1 ISZERO PUSH2 0x2DB4 JUMPI POP DUP1 DUP9 GT ISZERO JUMPDEST PUSH2 0x2E26 JUMPI PUSH1 0x40 MLOAD PUSH3 0x461BCD PUSH1 0xE5 SHL DUP2 MSTORE PUSH1 0x20 PUSH1 0x4 DUP3 ADD MSTORE PUSH1 0x38 PUSH1 0x24 DUP3 ADD MSTORE PUSH32 0x537461626C6520636F696E20616D6F756E74206D757374206265206265747765 PUSH1 0x44 DUP3 ADD MSTORE PUSH32 0x656E20656E6420616E6420737461727420616D6F756E74730000000000000000 PUSH1 0x64 DUP3 ADD MSTORE PUSH1 0x84 ADD PUSH2 0x91D JUMP JUMPDEST POP POP POP POP POP POP POP POP JUMP JUMPDEST PUSH0 PUSH1 0x9 PUSH0 DUP2 SLOAD PUSH2 0x2E3F SWAP1 PUSH2 0x3BE3 JUMP JUMPDEST SWAP2 SWAP1 POP DUP2 SWAP1 SSTORE PUSH1 0x40 TIMESTAMP SWAP1 SHL PUSH1 0x80 DUP14 SWAP1 SHL PUSH1 0xC0 CHAINID SWAP1 SHL OR OR OR SWAP1 POP PUSH1 0x40 MLOAD DUP1 PUSH2 0x180 ADD PUSH1 0x40 MSTORE DUP1 DUP3 DUP2 MSTORE PUSH1 0x20 ADD CALLER PUSH1 0x1 PUSH1 0x1 PUSH1 0xA0 SHL SUB AND DUP2 MSTORE PUSH1 0x20 ADD DUP13 DUP2 MSTORE PUSH1 0x20 ADD DUP12 PUSH1 0x1 PUSH1 0x1 PUSH1 0xA0 SHL SUB AND DUP2 MSTORE PUSH1 0x20 ADD DUP11 PUSH1 0x1 PUSH1 0x1 PUSH1 0xA0 SHL SUB AND DUP2 MSTORE PUSH1 0x20 ADD DUP10 PUSH1 0x1 PUSH1 0x1 PUSH1 0xA0 SHL SUB AND DUP2 MSTORE PUSH1 0x20 ADD DUP9 DUP2 MSTORE PUSH1 0x20 ADD DUP8 DUP2 MSTORE PUSH1 0x20 ADD DUP7 DUP2 MSTORE PUSH1 0x20 ADD DUP6 DUP2 MSTORE PUSH1 0x20 ADD DUP4 ISZERO ISZERO DUP2 MSTORE PUSH1 0x20 ADD PUSH0 PUSH1 0xFF AND DUP2 MSTORE POP PUSH1 0x2 PUSH0 DUP4 DUP2 MSTORE PUSH1 0x20 ADD SWAP1 DUP2 MSTORE PUSH1 0x20 ADD PUSH0 KECCAK256 PUSH0 DUP3 ADD MLOAD DUP2 PUSH0 ADD SSTORE PUSH1 0x20 DUP3 ADD MLOAD DUP2 PUSH1 0x1 ADD PUSH0 PUSH2 0x100 EXP DUP2 SLOAD DUP2 PUSH1 0x1 PUSH1 0x1 PUSH1 0xA0 SHL SUB MUL NOT AND SWAP1 DUP4 PUSH1 0x1 PUSH1 0x1 PUSH1 0xA0 SHL SUB AND MUL OR SWAP1 SSTORE POP PUSH1 0x40 DUP3 ADD MLOAD DUP2 PUSH1 0x2 ADD SSTORE PUSH1 0x60 DUP3 ADD MLOAD DUP2 PUSH1 0x3 ADD PUSH0 PUSH2 0x100 EXP DUP2 SLOAD DUP2 PUSH1 0x1 PUSH1 0x1 PUSH1 0xA0 SHL SUB MUL NOT AND SWAP1 DUP4 PUSH1 0x1 PUSH1 0x1 PUSH1 0xA0 SHL SUB AND MUL OR SWAP1 SSTORE POP PUSH1 0x80 DUP3 ADD MLOAD DUP2 PUSH1 0x4 ADD PUSH0 PUSH2 0x100 EXP DUP2 SLOAD DUP2 PUSH1 0x1 PUSH1 0x1 PUSH1 0xA0 SHL SUB MUL NOT AND SWAP1 DUP4 PUSH1 0x1 PUSH1 0x1 PUSH1 0xA0 SHL SUB AND MUL OR SWAP1 SSTORE POP PUSH1 0xA0 DUP3 ADD MLOAD DUP2 PUSH1 0x5 ADD PUSH0 PUSH2 0x100 EXP DUP2 SLOAD DUP2 PUSH1 0x1 PUSH1 0x1 PUSH1 0xA0 SHL SUB MUL NOT AND SWAP1 DUP4 PUSH1 0x1 PUSH1 0x1 PUSH1 0xA0 SHL SUB AND MUL OR SWAP1 SSTORE POP PUSH1 0xC0 DUP3 ADD MLOAD DUP2 PUSH1 0x6 ADD SSTORE PUSH1 0xE0 DUP3 ADD MLOAD DUP2 PUSH1 0x7 ADD SSTORE PUSH2 0x100 DUP3 ADD MLOAD DUP2 PUSH1 0x8 ADD SSTORE PUSH2 0x120 DUP3 ADD MLOAD DUP2 PUSH1 0x9 ADD SSTORE PUSH2 0x140 DUP3 ADD MLOAD DUP2 PUSH1 0xA ADD PUSH0 PUSH2 0x100 EXP DUP2 SLOAD DUP2 PUSH1 0xFF MUL NOT AND SWAP1 DUP4 ISZERO ISZERO MUL OR SWAP1 SSTORE POP PUSH2 0x160 DUP3 ADD MLOAD DUP2 PUSH1 0xA ADD PUSH1 0x1 PUSH2 0x100 EXP DUP2 SLOAD DUP2 PUSH1 0xFF MUL NOT AND SWAP1 DUP4 PUSH1 0xFF AND MUL OR SWAP1 SSTORE POP SWAP1 POP POP PUSH1 0x7 DUP2 SWAP1 DUP1 PUSH1 0x1 DUP2 SLOAD ADD DUP1 DUP3 SSTORE DUP1 SWAP2 POP POP PUSH1 0x1 SWAP1 SUB SWAP1 PUSH0 MSTORE PUSH1 0x20 PUSH0 KECCAK256 ADD PUSH0 SWAP1 SWAP2 SWAP1 SWAP2 SWAP1 SWAP2 POP SSTORE PUSH1 0x1 PUSH1 0x7 DUP1 SLOAD SWAP1 POP PUSH2 0x304E SWAP2 SWAP1 PUSH2 0x3A31 JUMP JUMPDEST PUSH0 DUP3 DUP2 MSTORE PUSH1 0x6 PUSH1 0x20 MSTORE PUSH1 0x40 DUP2 KECCAK256 SWAP2 SWAP1 SWAP2 SSTORE PUSH1 0x8 DUP1 SLOAD SWAP2 PUSH2 0x306D DUP4 PUSH2 0x3BE3 JUMP JUMPDEST SWAP1 SWAP2 SSTORE POP POP PUSH1 0x40 DUP1 MLOAD DUP13 DUP2 MSTORE PUSH1 0x1 PUSH1 0x1 PUSH1 0xA0 SHL SUB DUP13 DUP2 AND PUSH1 0x20 DUP4 ADD MSTORE DUP12 DUP2 AND DUP3 DUP5 ADD MSTORE DUP11 AND PUSH1 0x60 DUP3 ADD MSTORE PUSH1 0x80 DUP2 ADD DUP10 SWAP1 MSTORE PUSH1 0xA0 DUP2 ADD DUP9 SWAP1 MSTORE PUSH1 0xC0 DUP2 ADD DUP8 SWAP1 MSTORE PUSH1 0xE0 DUP2 ADD DUP7 SWAP1 MSTORE PUSH2 0x100 DUP2 ADD DUP6 SWAP1 MSTORE DUP4 ISZERO ISZERO PUSH2 0x120 DUP3 ADD MSTORE SWAP1 MLOAD CALLER SWAP2 DUP4 SWAP2 PUSH32 0xB4D650DCF47183C4AA01213AB77E8301C06DEA37D5612DDA99D6F41E3B9A29AB SWAP2 DUP2 SWAP1 SUB PUSH2 0x140 ADD SWAP1 LOG3 POP POP POP POP POP POP POP POP POP POP POP JUMP JUMPDEST PUSH2 0x310A PUSH2 0x32B2 JUMP JUMPDEST PUSH1 0x1 DUP1 SLOAD PUSH1 0xFF NOT AND SWAP1 SSTORE PUSH32 0x5DB9EE0A495BF2E6FF9C91A7834C1BA4FDD244A5E8AA4E537BD38AEAE4B073AA CALLER JUMPDEST PUSH1 0x40 MLOAD PUSH1 0x1 PUSH1 0x1 PUSH1 0xA0 SHL SUB SWAP1 SWAP2 AND DUP2 MSTORE PUSH1 0x20 ADD PUSH1 0x40 MLOAD DUP1 SWAP2 SUB SWAP1 LOG1 JUMP JUMPDEST PUSH0 DUP2 PUSH1 0xFF AND DUP4 PUSH1 0xFF AND SUB PUSH2 0x3169 JUMPI POP DUP3 PUSH2 0x1013 JUMP JUMPDEST DUP2 PUSH1 0xFF AND DUP4 PUSH1 0xFF AND LT ISZERO PUSH2 0x319D JUMPI PUSH2 0x3181 DUP4 DUP4 PUSH2 0x39EE JUMP JUMPDEST PUSH2 0x318C SWAP1 PUSH1 0xA PUSH2 0x39B9 JUMP JUMPDEST PUSH2 0x3196 SWAP1 DUP6 PUSH2 0x3A07 JUMP JUMPDEST SWAP1 POP PUSH2 0x1013 JUMP JUMPDEST PUSH0 PUSH2 0x31A8 DUP4 DUP6 PUSH2 0x39EE JUMP JUMPDEST PUSH2 0x31B3 SWAP1 PUSH1 0xA PUSH2 0x39B9 JUMP JUMPDEST SWAP1 POP PUSH2 0x31BF DUP2 DUP7 PUSH2 0x39DB JUMP JUMPDEST SWAP2 POP PUSH2 0x31CB DUP2 DUP7 PUSH2 0x3BFB JUMP JUMPDEST ISZERO PUSH2 0x31DE JUMPI PUSH2 0x31DB PUSH1 0x1 DUP4 PUSH2 0x3A1E JUMP JUMPDEST SWAP2 POP JUMPDEST POP SWAP4 SWAP3 POP POP POP JUMP JUMPDEST PUSH2 0x31EE PUSH2 0x2A3E JUMP JUMPDEST PUSH1 0x1 DUP1 SLOAD PUSH1 0xFF NOT AND DUP2 OR SWAP1 SSTORE PUSH32 0x62E78CEA01BEE320CD4E420270B5EA74000D11B0C9F74754EBDBFC544B05A258 CALLER PUSH2 0x3137 JUMP JUMPDEST PUSH0 DUP2 PUSH1 0xFF AND DUP4 PUSH1 0xFF AND SUB PUSH2 0x3236 JUMPI POP DUP3 PUSH2 0x1013 JUMP JUMPDEST DUP2 PUSH1 0xFF AND DUP4 PUSH1 0xFF AND LT ISZERO PUSH2 0x324E JUMPI PUSH2 0x3181 DUP4 DUP4 PUSH2 0x39EE JUMP JUMPDEST PUSH2 0x3258 DUP3 DUP5 PUSH2 0x39EE JUMP JUMPDEST PUSH2 0x3263 SWAP1 PUSH1 0xA PUSH2 0x39B9 JUMP JUMPDEST PUSH2 0x326D SWAP1 DUP6 PUSH2 0x39DB JUMP JUMPDEST SWAP5 SWAP4 POP POP POP POP JUMP JUMPDEST PUSH2 0x327F DUP3 DUP3 PUSH2 0x1BB2 JUMP JUMPDEST PUSH2 0x32AE JUMPI PUSH1 0x40 MLOAD PUSH4 0xE2517D3F PUSH1 0xE0 SHL DUP2 MSTORE PUSH1 0x1 PUSH1 0x1 PUSH1 0xA0 SHL SUB DUP3 AND PUSH1 0x4 DUP3 ADD MSTORE PUSH1 0x24 DUP2 ADD DUP4 SWAP1 MSTORE PUSH1 0x44 ADD PUSH2 0x91D JUMP JUMPDEST POP POP JUMP JUMPDEST PUSH1 0x1 SLOAD PUSH1 0xFF AND PUSH2 0x2A62 JUMPI PUSH1 0x40 MLOAD PUSH4 0x8DFC202B PUSH1 0xE0 SHL DUP2 MSTORE PUSH1 0x4 ADD PUSH1 0x40 MLOAD DUP1 SWAP2 SUB SWAP1 REVERT JUMPDEST PUSH1 0x40 MLOAD DUP1 PUSH2 0x180 ADD PUSH1 0x40 MSTORE DUP1 PUSH0 DUP2 MSTORE PUSH1 0x20 ADD PUSH0 PUSH1 0x1 PUSH1 0x1 PUSH1 0xA0 SHL SUB AND DUP2 MSTORE PUSH1 0x20 ADD PUSH0 DUP2 MSTORE PUSH1 0x20 ADD PUSH0 PUSH1 0x1 PUSH1 0x1 PUSH1 0xA0 SHL SUB AND DUP2 MSTORE PUSH1 0x20 ADD PUSH0 PUSH1 0x1 PUSH1 0x1 PUSH1 0xA0 SHL SUB AND DUP2 MSTORE PUSH1 0x20 ADD PUSH0 PUSH1 0x1 PUSH1 0x1 PUSH1 0xA0 SHL SUB AND DUP2 MSTORE PUSH1 0x20 ADD PUSH0 DUP2 MSTORE PUSH1 0x20 ADD PUSH0 DUP2 MSTORE PUSH1 0x20 ADD PUSH0 DUP2 MSTORE PUSH1 0x20 ADD PUSH0 DUP2 MSTORE PUSH1 0x20 ADD PUSH0 ISZERO ISZERO DUP2 MSTORE PUSH1 0x20 ADD PUSH0 PUSH1 0xFF AND DUP2 MSTORE POP SWAP1 JUMP JUMPDEST PUSH0 PUSH1 0x20 DUP3 DUP5 SUB SLT ISZERO PUSH2 0x3363 JUMPI PUSH0 DUP1 REVERT JUMPDEST DUP2 CALLDATALOAD PUSH1 0x1 PUSH1 0x1 PUSH1 0xE0 SHL SUB NOT DUP2 AND DUP2 EQ PUSH2 0x1013 JUMPI PUSH0 DUP1 REVERT JUMPDEST PUSH0 PUSH1 0x20 DUP3 DUP5 SUB SLT ISZERO PUSH2 0x338A JUMPI PUSH0 DUP1 REVERT JUMPDEST POP CALLDATALOAD SWAP2 SWAP1 POP JUMP JUMPDEST DUP1 CALLDATALOAD PUSH1 0x1 PUSH1 0x1 PUSH1 0xA0 SHL SUB DUP2 AND DUP2 EQ PUSH2 0x33A7 JUMPI PUSH0 DUP1 REVERT JUMPDEST SWAP2 SWAP1 POP JUMP JUMPDEST PUSH0 DUP1 PUSH1 0x40 DUP4 DUP6 SUB SLT ISZERO PUSH2 0x33BD JUMPI PUSH0 DUP1 REVERT JUMPDEST DUP3 CALLDATALOAD SWAP2 POP PUSH2 0x33CD PUSH1 0x20 DUP5 ADD PUSH2 0x3391 JUMP JUMPDEST SWAP1 POP SWAP3 POP SWAP3 SWAP1 POP JUMP JUMPDEST PUSH0 DUP1 PUSH0 DUP1 PUSH0 DUP1 PUSH0 DUP1 PUSH0 PUSH2 0x120 DUP11 DUP13 SUB SLT ISZERO PUSH2 0x33EF JUMPI PUSH0 DUP1 REVERT JUMPDEST DUP10 CALLDATALOAD SWAP9 POP PUSH1 0x20 DUP11 ADD CALLDATALOAD SWAP8 POP PUSH2 0x3406 PUSH1 0x40 DUP12 ADD PUSH2 0x3391 JUMP JUMPDEST SWAP7 POP PUSH2 0x3414 PUSH1 0x60 DUP12 ADD PUSH2 0x3391 JUMP JUMPDEST SWAP6 POP PUSH2 0x3422 PUSH1 0x80 DUP12 ADD PUSH2 0x3391 JUMP JUMPDEST SWAP9 SWAP12 SWAP8 SWAP11 POP SWAP6 SWAP9 SWAP5 SWAP8 SWAP7 PUSH1 0xA0 DUP7 ADD CALLDATALOAD SWAP7 POP PUSH1 0xC0 DUP7 ADD CALLDATALOAD SWAP6 PUSH1 0xE0 DUP2 ADD CALLDATALOAD SWAP6 POP PUSH2 0x100 ADD CALLDATALOAD SWAP4 POP SWAP2 POP POP JUMP JUMPDEST DUP1 ISZERO ISZERO DUP2 EQ PUSH2 0xEF4 JUMPI PUSH0 DUP1 REVERT JUMPDEST PUSH0 DUP1 PUSH0 PUSH1 0x60 DUP5 DUP7 SUB SLT ISZERO PUSH2 0x346B JUMPI PUSH0 DUP1 REVERT JUMPDEST DUP4 CALLDATALOAD SWAP3 POP PUSH1 0x20 DUP5 ADD CALLDATALOAD SWAP2 POP PUSH1 0x40 DUP5 ADD CALLDATALOAD PUSH2 0x3484 DUP2 PUSH2 0x344C JUMP JUMPDEST DUP1 SWAP2 POP POP SWAP3 POP SWAP3 POP SWAP3 JUMP JUMPDEST PUSH1 0x20 DUP1 DUP3 MSTORE DUP3 MLOAD DUP3 DUP3 ADD DUP2 SWAP1 MSTORE PUSH0 SWAP2 DUP5 ADD SWAP1 PUSH1 0x40 DUP5 ADD SWAP1 DUP4 JUMPDEST DUP2 DUP2 LT ISZERO PUSH2 0x34C6 JUMPI DUP4 MLOAD DUP4 MSTORE PUSH1 0x20 SWAP4 DUP5 ADD SWAP4 SWAP1 SWAP3 ADD SWAP2 PUSH1 0x1 ADD PUSH2 0x34A8 JUMP JUMPDEST POP SWAP1 SWAP6 SWAP5 POP POP POP POP POP JUMP JUMPDEST PUSH0 DUP1 PUSH1 0x40 DUP4 DUP6 SUB SLT ISZERO PUSH2 0x34E2 JUMPI PUSH0 DUP1 REVERT JUMPDEST POP POP DUP1 CALLDATALOAD SWAP3 PUSH1 0x20 SWAP1 SWAP2 ADD CALLDATALOAD SWAP2 POP JUMP JUMPDEST PUSH4 0x4E487B71 PUSH1 0xE0 SHL PUSH0 MSTORE PUSH1 0x41 PUSH1 0x4 MSTORE PUSH1 0x24 PUSH0 REVERT JUMPDEST PUSH0 DUP3 PUSH1 0x1F DUP4 ADD SLT PUSH2 0x3514 JUMPI PUSH0 DUP1 REVERT JUMPDEST DUP2 CALLDATALOAD PUSH8 0xFFFFFFFFFFFFFFFF DUP2 GT ISZERO PUSH2 0x352E JUMPI PUSH2 0x352E PUSH2 0x34F1 JUMP JUMPDEST DUP1 PUSH1 0x5 SHL PUSH1 0x40 MLOAD PUSH1 0x1F NOT PUSH1 0x3F DUP4 ADD AND DUP2 ADD DUP2 DUP2 LT PUSH8 0xFFFFFFFFFFFFFFFF DUP3 GT OR ISZERO PUSH2 0x355B JUMPI PUSH2 0x355B PUSH2 0x34F1 JUMP JUMPDEST PUSH1 0x40 MSTORE SWAP2 DUP3 MSTORE PUSH1 0x20 DUP2 DUP6 ADD DUP2 ADD SWAP3 SWAP1 DUP2 ADD DUP7 DUP5 GT ISZERO PUSH2 0x3578 JUMPI PUSH0 DUP1 REVERT JUMPDEST PUSH1 0x20 DUP7 ADD SWAP3 POP JUMPDEST DUP4 DUP4 LT ISZERO PUSH2 0x179C JUMPI DUP3 CALLDATALOAD DUP2 MSTORE PUSH1 0x20 SWAP3 DUP4 ADD SWAP3 ADD PUSH2 0x357F JUMP JUMPDEST PUSH0 PUSH1 0x20 DUP3 DUP5 SUB SLT ISZERO PUSH2 0x35A7 JUMPI PUSH0 DUP1 REVERT JUMPDEST DUP2 CALLDATALOAD PUSH8 0xFFFFFFFFFFFFFFFF DUP2 GT ISZERO PUSH2 0x35BD JUMPI PUSH0 DUP1 REVERT JUMPDEST PUSH2 0x326D DUP5 DUP3 DUP6 ADD PUSH2 0x3505 JUMP JUMPDEST PUSH0 PUSH1 0x20 DUP3 DUP5 SUB SLT ISZERO PUSH2 0x35D9 JUMPI PUSH0 DUP1 REVERT JUMPDEST PUSH2 0x1013 DUP3 PUSH2 0x3391 JUMP JUMPDEST PUSH0 DUP1 PUSH0 PUSH1 0x60 DUP5 DUP7 SUB SLT ISZERO PUSH2 0x35F4 JUMPI PUSH0 DUP1 REVERT JUMPDEST PUSH2 0x35FD DUP5 PUSH2 0x3391 JUMP JUMPDEST SWAP3 POP PUSH1 0x20 DUP5 ADD CALLDATALOAD SWAP2 POP PUSH2 0x3612 PUSH1 0x40 DUP6 ADD PUSH2 0x3391 JUMP JUMPDEST SWAP1 POP SWAP3 POP SWAP3 POP SWAP3 JUMP JUMPDEST PUSH0 DUP1 PUSH0 PUSH1 0x60 DUP5 DUP7 SUB SLT ISZERO PUSH2 0x362D JUMPI PUSH0 DUP1 REVERT JUMPDEST PUSH2 0x3636 DUP5 PUSH2 0x3391 JUMP JUMPDEST SWAP3 POP PUSH2 0x3644 PUSH1 0x20 DUP6 ADD PUSH2 0x3391 JUMP JUMPDEST SWAP3 SWAP6 SWAP3 SWAP5 POP POP POP PUSH1 0x40 SWAP2 SWAP1 SWAP2 ADD CALLDATALOAD SWAP1 JUMP JUMPDEST PUSH1 0xFF DUP2 AND DUP2 EQ PUSH2 0xEF4 JUMPI PUSH0 DUP1 REVERT JUMPDEST PUSH0 PUSH1 0x20 DUP3 DUP5 SUB SLT ISZERO PUSH2 0x3673 JUMPI PUSH0 DUP1 REVERT JUMPDEST DUP2 CALLDATALOAD PUSH2 0x1013 DUP2 PUSH2 0x3655 JUMP JUMPDEST DUP1 MLOAD DUP3 MSTORE PUSH1 0x20 DUP2 ADD MLOAD PUSH2 0x369C PUSH1 0x20 DUP5 ADD DUP3 PUSH1 0x1 PUSH1 0x1 PUSH1 0xA0 SHL SUB AND SWAP1 MSTORE JUMP JUMPDEST POP PUSH1 0x40 DUP2 ADD MLOAD PUSH1 0x40 DUP4 ADD MSTORE PUSH1 0x60 DUP2 ADD MLOAD PUSH2 0x36C1 PUSH1 0x60 DUP5 ADD DUP3 PUSH1 0x1 PUSH1 0x1 PUSH1 0xA0 SHL SUB AND SWAP1 MSTORE JUMP JUMPDEST POP PUSH1 0x80 DUP2 ADD MLOAD PUSH2 0x36DC PUSH1 0x80 DUP5 ADD DUP3 PUSH1 0x1 PUSH1 0x1 PUSH1 0xA0 SHL SUB AND SWAP1 MSTORE JUMP JUMPDEST POP PUSH1 0xA0 DUP2 ADD MLOAD PUSH2 0x36F7 PUSH1 0xA0 DUP5 ADD DUP3 PUSH1 0x1 PUSH1 0x1 PUSH1 0xA0 SHL SUB AND SWAP1 MSTORE JUMP JUMPDEST POP PUSH1 0xC0 DUP2 ADD MLOAD PUSH1 0xC0 DUP4 ADD MSTORE PUSH1 0xE0 DUP2 ADD MLOAD PUSH1 0xE0 DUP4 ADD MSTORE PUSH2 0x100 DUP2 ADD MLOAD PUSH2 0x100 DUP4 ADD MSTORE PUSH2 0x120 DUP2 ADD MLOAD PUSH2 0x120 DUP4 ADD MSTORE PUSH2 0x140 DUP2 ADD MLOAD PUSH2 0x3739 PUSH2 0x140 DUP5 ADD DUP3 ISZERO ISZERO SWAP1 MSTORE JUMP JUMPDEST POP PUSH2 0x160 DUP2 ADD MLOAD PUSH2 0xE8A PUSH2 0x160 DUP5 ADD DUP3 PUSH1 0xFF AND SWAP1 MSTORE JUMP JUMPDEST PUSH1 0x20 DUP1 DUP3 MSTORE DUP3 MLOAD DUP3 DUP3 ADD DUP2 SWAP1 MSTORE PUSH0 SWAP2 DUP5 ADD SWAP1 PUSH1 0x40 DUP5 ADD SWAP1 DUP4 JUMPDEST DUP2 DUP2 LT ISZERO PUSH2 0x34C6 JUMPI PUSH2 0x377C DUP4 DUP6 MLOAD PUSH2 0x367E JUMP JUMPDEST PUSH1 0x20 SWAP4 SWAP1 SWAP4 ADD SWAP3 PUSH2 0x180 SWAP3 SWAP1 SWAP3 ADD SWAP2 PUSH1 0x1 ADD PUSH2 0x3769 JUMP JUMPDEST PUSH0 DUP1 PUSH1 0x40 DUP4 DUP6 SUB SLT ISZERO PUSH2 0x37A4 JUMPI PUSH0 DUP1 REVERT JUMPDEST DUP3 CALLDATALOAD PUSH8 0xFFFFFFFFFFFFFFFF DUP2 GT ISZERO PUSH2 0x37BA JUMPI PUSH0 DUP1 REVERT JUMPDEST PUSH2 0x37C6 DUP6 DUP3 DUP7 ADD PUSH2 0x3505 JUMP JUMPDEST SWAP3 POP POP PUSH1 0x20 DUP4 ADD CALLDATALOAD PUSH8 0xFFFFFFFFFFFFFFFF DUP2 GT ISZERO PUSH2 0x37E2 JUMPI PUSH0 DUP1 REVERT JUMPDEST PUSH2 0x37EE DUP6 DUP3 DUP7 ADD PUSH2 0x3505 JUMP JUMPDEST SWAP2 POP POP SWAP3 POP SWAP3 SWAP1 POP JUMP JUMPDEST PUSH2 0x180 DUP2 ADD PUSH2 0x8B9 DUP3 DUP5 PUSH2 0x367E JUMP JUMPDEST PUSH1 0x20 DUP1 DUP3 MSTORE PUSH1 0x21 SWAP1 DUP3 ADD MSTORE PUSH32 0x4E6F7420617574686F72697A656420746F20696E6974696174652063616E6365 PUSH1 0x40 DUP3 ADD MSTORE PUSH1 0x1B PUSH1 0xFA SHL PUSH1 0x60 DUP3 ADD MSTORE PUSH1 0x80 ADD SWAP1 JUMP JUMPDEST PUSH1 0x20 DUP1 DUP3 MSTORE PUSH1 0x12 SWAP1 DUP3 ADD MSTORE PUSH18 0x139BDD0818481CD95B1B081C995C5D595CDD PUSH1 0x72 SHL PUSH1 0x40 DUP3 ADD MSTORE PUSH1 0x60 ADD SWAP1 JUMP JUMPDEST PUSH1 0x20 DUP1 DUP3 MSTORE PUSH1 0x13 SWAP1 DUP3 ADD MSTORE PUSH19 0x52657175657374206E6F742070656E64696E67 PUSH1 0x68 SHL PUSH1 0x40 DUP3 ADD MSTORE PUSH1 0x60 ADD SWAP1 JUMP JUMPDEST SWAP3 DUP4 MSTORE PUSH1 0x1 PUSH1 0x1 PUSH1 0xA0 SHL SUB SWAP2 SWAP1 SWAP2 AND PUSH1 0x20 DUP4 ADD MSTORE ISZERO ISZERO PUSH1 0x40 DUP3 ADD MSTORE PUSH1 0x60 ADD SWAP1 JUMP JUMPDEST PUSH4 0x4E487B71 PUSH1 0xE0 SHL PUSH0 MSTORE PUSH1 0x11 PUSH1 0x4 MSTORE PUSH1 0x24 PUSH0 REVERT JUMPDEST PUSH1 0x1 DUP2 JUMPDEST PUSH1 0x1 DUP5 GT ISZERO PUSH2 0x3911 JUMPI DUP1 DUP6 DIV DUP2 GT ISZERO PUSH2 0x38F5 JUMPI PUSH2 0x38F5 PUSH2 0x38C2 JUMP JUMPDEST PUSH1 0x1 DUP5 AND ISZERO PUSH2 0x3903 JUMPI SWAP1 DUP2 MUL SWAP1 JUMPDEST PUSH1 0x1 SWAP4 SWAP1 SWAP4 SHR SWAP3 DUP1 MUL PUSH2 0x38DA JUMP JUMPDEST SWAP4 POP SWAP4 SWAP2 POP POP JUMP JUMPDEST PUSH0 DUP3 PUSH2 0x3927 JUMPI POP PUSH1 0x1 PUSH2 0x8B9 JUMP JUMPDEST DUP2 PUSH2 0x3933 JUMPI POP PUSH0 PUSH2 0x8B9 JUMP JUMPDEST DUP2 PUSH1 0x1 DUP2 EQ PUSH2 0x3949 JUMPI PUSH1 0x2 DUP2 EQ PUSH2 0x3953 JUMPI PUSH2 0x396F JUMP JUMPDEST PUSH1 0x1 SWAP2 POP POP PUSH2 0x8B9 JUMP JUMPDEST PUSH1 0xFF DUP5 GT ISZERO PUSH2 0x3964 JUMPI PUSH2 0x3964 PUSH2 0x38C2 JUMP JUMPDEST POP POP PUSH1 0x1 DUP3 SHL PUSH2 0x8B9 JUMP JUMPDEST POP PUSH1 0x20 DUP4 LT PUSH2 0x133 DUP4 LT AND PUSH1 0x4E DUP5 LT PUSH1 0xB DUP5 LT AND OR ISZERO PUSH2 0x3992 JUMPI POP DUP2 DUP2 EXP PUSH2 0x8B9 JUMP JUMPDEST PUSH2 0x399E PUSH0 NOT DUP5 DUP5 PUSH2 0x38D6 JUMP JUMPDEST DUP1 PUSH0 NOT DIV DUP3 GT ISZERO PUSH2 0x39B1 JUMPI PUSH2 0x39B1 PUSH2 0x38C2 JUMP JUMPDEST MUL SWAP4 SWAP3 POP POP POP JUMP JUMPDEST PUSH0 PUSH2 0x1013 PUSH1 0xFF DUP5 AND DUP4 PUSH2 0x3919 JUMP JUMPDEST PUSH4 0x4E487B71 PUSH1 0xE0 SHL PUSH0 MSTORE PUSH1 0x12 PUSH1 0x4 MSTORE PUSH1 0x24 PUSH0 REVERT JUMPDEST PUSH0 DUP3 PUSH2 0x39E9 JUMPI PUSH2 0x39E9 PUSH2 0x39C7 JUMP JUMPDEST POP DIV SWAP1 JUMP JUMPDEST PUSH1 0xFF DUP3 DUP2 AND DUP3 DUP3 AND SUB SWAP1 DUP2 GT ISZERO PUSH2 0x8B9 JUMPI PUSH2 0x8B9 PUSH2 0x38C2 JUMP JUMPDEST DUP1 DUP3 MUL DUP2 ISZERO DUP3 DUP3 DIV DUP5 EQ OR PUSH2 0x8B9 JUMPI PUSH2 0x8B9 PUSH2 0x38C2 JUMP JUMPDEST DUP1 DUP3 ADD DUP1 DUP3 GT ISZERO PUSH2 0x8B9 JUMPI PUSH2 0x8B9 PUSH2 0x38C2 JUMP JUMPDEST DUP2 DUP2 SUB DUP2 DUP2 GT ISZERO PUSH2 0x8B9 JUMPI PUSH2 0x8B9 PUSH2 0x38C2 JUMP JUMPDEST PUSH1 0x20 DUP1 DUP3 MSTORE PUSH1 0x16 SWAP1 DUP3 ADD MSTORE PUSH22 0x14995C5D595CDD08191BD95CC81B9BDD08195E1A5CDD PUSH1 0x52 SHL PUSH1 0x40 DUP3 ADD MSTORE PUSH1 0x60 ADD SWAP1 JUMP JUMPDEST PUSH4 0x4E487B71 PUSH1 0xE0 SHL PUSH0 MSTORE PUSH1 0x32 PUSH1 0x4 MSTORE PUSH1 0x24 PUSH0 REVERT JUMPDEST PUSH1 0x20 DUP1 DUP3 MSTORE PUSH1 0x11 SWAP1 DUP3 ADD MSTORE PUSH17 0x139BDD081848189D5E481C995C5D595CDD PUSH1 0x7A SHL PUSH1 0x40 DUP3 ADD MSTORE PUSH1 0x60 ADD SWAP1 JUMP JUMPDEST SWAP8 DUP9 MSTORE PUSH1 0x1 PUSH1 0x1 PUSH1 0xA0 SHL SUB SWAP7 DUP8 AND PUSH1 0x20 DUP10 ADD MSTORE SWAP5 DUP7 AND PUSH1 0x40 DUP9 ADD MSTORE SWAP3 SWAP1 SWAP5 AND PUSH1 0x60 DUP7 ADD MSTORE PUSH1 0x80 DUP6 ADD MSTORE PUSH1 0xA0 DUP5 ADD SWAP3 SWAP1 SWAP3 MSTORE PUSH1 0xC0 DUP4 ADD SWAP2 SWAP1 SWAP2 MSTORE ISZERO ISZERO PUSH1 0xE0 DUP3 ADD MSTORE PUSH2 0x100 ADD SWAP1 JUMP JUMPDEST PUSH1 0x20 DUP1 DUP3 MSTORE PUSH1 0x13 SWAP1 DUP3 ADD MSTORE PUSH19 0x151BDAD95B881B9BDD081CDD5C1C1BDC9D1959 PUSH1 0x6A SHL PUSH1 0x40 DUP3 ADD MSTORE PUSH1 0x60 ADD SWAP1 JUMP JUMPDEST PUSH0 PUSH1 0x20 DUP3 DUP5 SUB SLT ISZERO PUSH2 0x3B37 JUMPI PUSH0 DUP1 REVERT JUMPDEST POP MLOAD SWAP2 SWAP1 POP JUMP JUMPDEST PUSH0 PUSH1 0x20 DUP3 DUP5 SUB SLT ISZERO PUSH2 0x3B4E JUMPI PUSH0 DUP1 REVERT JUMPDEST DUP2 MLOAD PUSH2 0x1013 DUP2 PUSH2 0x344C JUMP JUMPDEST PUSH0 PUSH1 0x20 DUP3 DUP5 SUB SLT ISZERO PUSH2 0x3B69 JUMPI PUSH0 DUP1 REVERT JUMPDEST DUP2 MLOAD PUSH2 0x1013 DUP2 PUSH2 0x3655 JUMP JUMPDEST PUSH1 0x20 DUP1 DUP3 MSTORE PUSH1 0x26 SWAP1 DUP3 ADD MSTORE PUSH32 0x496E70757420617272617973206D7573742068617665207468652073616D6520 PUSH1 0x40 DUP3 ADD MSTORE PUSH6 0xD8CADCCEE8D PUSH1 0xD3 SHL PUSH1 0x60 DUP3 ADD MSTORE PUSH1 0x80 ADD SWAP1 JUMP JUMPDEST PUSH4 0x4E487B71 PUSH1 0xE0 SHL PUSH0 MSTORE PUSH1 0x31 PUSH1 0x4 MSTORE PUSH1 0x24 PUSH0 REVERT JUMPDEST PUSH0 DUP2 PUSH2 0x3BDC JUMPI PUSH2 0x3BDC PUSH2 0x38C2 JUMP JUMPDEST POP PUSH0 NOT ADD SWAP1 JUMP JUMPDEST PUSH0 PUSH1 0x1 DUP3 ADD PUSH2 0x3BF4 JUMPI PUSH2 0x3BF4 PUSH2 0x38C2 JUMP JUMPDEST POP PUSH1 0x1 ADD SWAP1 JUMP JUMPDEST PUSH0 DUP3 PUSH2 0x3C09 JUMPI PUSH2 0x3C09 PUSH2 0x39C7 JUMP JUMPDEST POP MOD SWAP1 JUMP INVALID STATICCALL 0xCA CALLCODE PUSH21 0x7A7486CF5730E9265973FB54447D3ACE6E7E4711F6 CALLDATASIZE ADDMOD 0x26 0xB0 PUSH20 0x1941A264697066735822122055FE29A2195E110B PUSH6 0x96B813BB0E30 EXTCODEHASH 0xA5 EXTCODEHASH 0xB7 0x21 BASEFEE 0xC3 DIV PUSH4 0x81359FC7 0x4B 0xF8 0xFC SLOAD PUSH5 0x736F6C6343 STOP ADDMOD BYTE STOP CALLER "
		},
		"gasEstimates": {
			"creation": {
				"codeDepositCost": "3092000",
				"executionCost": "infinite",
				"totalCost": "infinite"
			},
			"external": {
				"DEFAULT_ADMIN_ROLE()": "327",
				"PAUSER_ROLE()": "327",
				"TRADER_ROLE()": "infinite",
				"TRANSFER_MANAGER_ROLE()": "262",
				"activeRequestCount()": "2407",
				"activeRequestIds(uint256)": "4683",
				"addStableCoin(address)": "30372",
				"balances(address,uint256,address)": "infinite",
				"batchCompleteBuy(uint256[],uint256[])": "infinite",
				"batchCompleteCancelBuyToken(uint256[])": "infinite",
				"batchCompleteCancelSellToken(uint256[])": "infinite",
				"batchCompleteSell(uint256[],uint256[])": "infinite",
				"batchForceCancelRequest(uint256[])": "infinite",
				"buyTokens(uint256,uint256,address,address,address,uint256,uint256,uint256,uint256)": "infinite",
				"cancelFeePercentage()": "2426",
				"completeBuy(uint256,uint256)": "infinite",
				"completeCancelBuyToken(uint256)": "infinite",
				"completeCancelSellToken(uint256)": "infinite",
				"completeSell(uint256,uint256)": "infinite",
				"feePercentage()": "2406",
				"feeRecipient()": "2416",
				"forceCancelRequest(uint256)": "infinite",
				"gasAmount()": "2428",
				"getActiveRequestCount()": "2380",
				"getActiveRequestIds(uint256,uint256,bool)": "infinite",
				"getActiveRequestsData(uint256,uint256,bool)": "infinite",
				"getBalance(address,uint256,address)": "infinite",
				"getRequest(uint256)": "24921",
				"getRequestIsBuy(uint256)": "2548",
				"getRequestStableCoinAmount(uint256)": "2592",
				"getRequestStatus(uint256)": "2617",
				"getRequestTargetTokenAddress(uint256)": "2629",
				"getRequestTokenAmount(uint256)": "2545",
				"getRequestUser(uint256)": "2629",
				"getRoleAdmin(bytes32)": "2513",
				"grantRole(bytes32,address)": "infinite",
				"hasRole(bytes32,address)": "2739",
				"initiateCancelBuyToken(uint256)": "infinite",
				"initiateCancelSellToken(uint256)": "infinite",
				"pause()": "infinite",
				"paused()": "2426",
				"precisionFactor()": "2402",
				"removeStableCoin(address)": "30341",
				"renounceRole(bytes32,address)": "29131",
				"requestCancellationInitiated(uint256)": "2547",
				"requestCount()": "2406",
				"requestIdToActiveIndex(uint256)": "2570",
				"revokeRole(bytes32,address)": "infinite",
				"sellTokens(uint256,uint256,address,address,address,uint256,uint256,uint256,uint256)": "infinite",
				"setCancelFeePercentage(uint256)": "24797",
				"setFeePercentage(uint256)": "24796",
				"setFeeRecipient(address)": "27084",
				"setGasAmount(uint256)": "infinite",
				"setPrecisionFactor(uint8)": "infinite",
				"supportedStableCoins(address)": "2584",
				"supportsInterface(bytes4)": "493",
				"transferStableCoin(address,address,uint256)": "infinite",
				"unpause()": "infinite"
			},
			"internal": {
				"_removeFromActiveRequests(uint256)": "113813",
				"createRequest(uint256,address,address,address,uint256,uint256,uint256,uint256,uint256,bool)": "infinite",
				"validateSellTokenAmount(uint256,uint256,uint256,uint256,uint256,address)": "infinite"
			}
		},
		"methodIdentifiers": {
			"DEFAULT_ADMIN_ROLE()": "a217fddf",
			"PAUSER_ROLE()": "e63ab1e9",
			"TRADER_ROLE()": "f0a56fc8",
			"TRANSFER_MANAGER_ROLE()": "39bea75e",
			"activeRequestCount()": "954d046a",
			"activeRequestIds(uint256)": "e1c99d1b",
			"addStableCoin(address)": "b3c1f5d8",
			"balances(address,uint256,address)": "d52dddf4",
			"batchCompleteBuy(uint256[],uint256[])": "8be694c7",
			"batchCompleteCancelBuyToken(uint256[])": "4eab0803",
			"batchCompleteCancelSellToken(uint256[])": "daa80c70",
			"batchCompleteSell(uint256[],uint256[])": "c1c117eb",
			"batchForceCancelRequest(uint256[])": "bb60ef61",
			"buyTokens(uint256,uint256,address,address,address,uint256,uint256,uint256,uint256)": "78191268",
			"cancelFeePercentage()": "fcc198f4",
			"completeBuy(uint256,uint256)": "47a5d76d",
			"completeCancelBuyToken(uint256)": "ba93851d",
			"completeCancelSellToken(uint256)": "05f10e8a",
			"completeSell(uint256,uint256)": "fc1b31e4",
			"feePercentage()": "a001ecdd",
			"feeRecipient()": "46904840",
			"forceCancelRequest(uint256)": "64bfd994",
			"gasAmount()": "67b50af9",
			"getActiveRequestCount()": "dcf07b14",
			"getActiveRequestIds(uint256,uint256,bool)": "4062f89b",
			"getActiveRequestsData(uint256,uint256,bool)": "688fe4d2",
			"getBalance(address,uint256,address)": "54ce61b1",
			"getRequest(uint256)": "c58343ef",
			"getRequestIsBuy(uint256)": "97faedd3",
			"getRequestStableCoinAmount(uint256)": "1c588e09",
			"getRequestStatus(uint256)": "d8a4676f",
			"getRequestTargetTokenAddress(uint256)": "795a25ac",
			"getRequestTokenAmount(uint256)": "fa798103",
			"getRequestUser(uint256)": "e8538889",
			"getRoleAdmin(bytes32)": "248a9ca3",
			"grantRole(bytes32,address)": "2f2ff15d",
			"hasRole(bytes32,address)": "91d14854",
			"initiateCancelBuyToken(uint256)": "faf5e6b2",
			"initiateCancelSellToken(uint256)": "045f1438",
			"pause()": "8456cb59",
			"paused()": "5c975abb",
			"precisionFactor()": "9d902fc0",
			"removeStableCoin(address)": "51bb5dff",
			"renounceRole(bytes32,address)": "36568abe",
			"requestCancellationInitiated(uint256)": "c43a7fa1",
			"requestCount()": "5badbe4c",
			"requestIdToActiveIndex(uint256)": "2352cb8e",
			"revokeRole(bytes32,address)": "d547741f",
			"sellTokens(uint256,uint256,address,address,address,uint256,uint256,uint256,uint256)": "3b5dcd25",
			"setCancelFeePercentage(uint256)": "076f917a",
			"setFeePercentage(uint256)": "ae06c1b7",
			"setFeeRecipient(address)": "e74b981b",
			"setGasAmount(uint256)": "0c8f78fb",
			"setPrecisionFactor(uint8)": "5e97a86e",
			"supportedStableCoins(address)": "e6d40dad",
			"supportsInterface(bytes4)": "01ffc9a7",
			"transferStableCoin(address,address,uint256)": "5e556234",
			"unpause()": "3f4ba83a"
		}
	},
	"abi": [
		{
			"inputs": [
				{
					"internalType": "address",
					"name": "_feeRecipient",
					"type": "address"
				},
				{
					"internalType": "address",
					"name": "_stableCoinAddress",
					"type": "address"
				},
				{
					"internalType": "address",
					"name": "_weusd",
					"type": "address"
				},
				{
					"internalType": "address",
					"name": "_trader",
					"type": "address"
				}
			],
			"stateMutability": "nonpayable",
			"type": "constructor"
		},
		{
			"inputs": [],
			"name": "AccessControlBadConfirmation",
			"type": "error"
		},
		{
			"inputs": [
				{
					"internalType": "address",
					"name": "account",
					"type": "address"
				},
				{
					"internalType": "bytes32",
					"name": "neededRole",
					"type": "bytes32"
				}
			],
			"name": "AccessControlUnauthorizedAccount",
			"type": "error"
		},
		{
			"inputs": [],
			"name": "EnforcedPause",
			"type": "error"
		},
		{
			"inputs": [],
			"name": "ExpectedPause",
			"type": "error"
		},
		{
			"anonymous": false,
			"inputs": [
				{
					"indexed": true,
					"internalType": "uint256",
					"name": "requestId",
					"type": "uint256"
				},
				{
					"indexed": true,
					"internalType": "address",
					"name": "user",
					"type": "address"
				},
				{
					"indexed": false,
					"internalType": "uint256",
					"name": "targetchainId",
					"type": "uint256"
				},
				{
					"indexed": false,
					"internalType": "address",
					"name": "tokenAddress",
					"type": "address"
				},
				{
					"indexed": false,
					"internalType": "bool",
					"name": "isBuy",
					"type": "bool"
				}
			],
			"name": "CancellationInitiated",
			"type": "event"
		},
		{
			"anonymous": false,
			"inputs": [
				{
					"indexed": false,
					"internalType": "uint256",
					"name": "newGasAmount",
					"type": "uint256"
				}
			],
			"name": "GasAmountSet",
			"type": "event"
		},
		{
			"anonymous": false,
			"inputs": [
				{
					"indexed": false,
					"internalType": "address",
					"name": "account",
					"type": "address"
				}
			],
			"name": "Paused",
			"type": "event"
		},
		{
			"anonymous": false,
			"inputs": [
				{
					"indexed": true,
					"internalType": "uint256",
					"name": "requestId",
					"type": "uint256"
				},
				{
					"indexed": true,
					"internalType": "address",
					"name": "user",
					"type": "address"
				},
				{
					"indexed": false,
					"internalType": "uint256",
					"name": "targetchainId",
					"type": "uint256"
				},
				{
					"indexed": false,
					"internalType": "address",
					"name": "tokenAddress",
					"type": "address"
				},
				{
					"indexed": false,
					"internalType": "bool",
					"name": "isBuy",
					"type": "bool"
				}
			],
			"name": "RequestCancelled",
			"type": "event"
		},
		{
			"anonymous": false,
			"inputs": [
				{
					"indexed": true,
					"internalType": "uint256",
					"name": "requestId",
					"type": "uint256"
				},
				{
					"indexed": true,
					"internalType": "address",
					"name": "user",
					"type": "address"
				},
				{
					"indexed": false,
					"internalType": "uint256",
					"name": "targetchainId",
					"type": "uint256"
				},
				{
					"indexed": false,
					"internalType": "address",
					"name": "tokenAddress",
					"type": "address"
				},
				{
					"indexed": false,
					"internalType": "address",
					"name": "stableCoinAddress",
					"type": "address"
				},
				{
					"indexed": false,
					"internalType": "address",
					"name": "sourceStableCoinAddress",
					"type": "address"
				},
				{
					"indexed": false,
					"internalType": "uint256",
					"name": "stableCoinAmount",
					"type": "uint256"
				},
				{
					"indexed": false,
					"internalType": "uint256",
					"name": "tokenAmount",
					"type": "uint256"
				},
				{
					"indexed": false,
					"internalType": "uint256",
					"name": "finalPrice",
					"type": "uint256"
				},
				{
					"indexed": false,
					"internalType": "bool",
					"name": "isBuy",
					"type": "bool"
				}
			],
			"name": "RequestCompleted",
			"type": "event"
		},
		{
			"anonymous": false,
			"inputs": [
				{
					"indexed": true,
					"internalType": "uint256",
					"name": "requestId",
					"type": "uint256"
				},
				{
					"indexed": true,
					"internalType": "address",
					"name": "user",
					"type": "address"
				},
				{
					"indexed": false,
					"internalType": "uint256",
					"name": "targetchainId",
					"type": "uint256"
				},
				{
					"indexed": false,
					"internalType": "address",
					"name": "tokenAddress",
					"type": "address"
				},
				{
					"indexed": false,
					"internalType": "address",
					"name": "stableCoinAddress",
					"type": "address"
				},
				{
					"indexed": false,
					"internalType": "address",
					"name": "sourceStableCoinAddress",
					"type": "address"
				},
				{
					"indexed": false,
					"internalType": "uint256",
					"name": "stableCoinAmount",
					"type": "uint256"
				},
				{
					"indexed": false,
					"internalType": "uint256",
					"name": "tokenAmount",
					"type": "uint256"
				},
				{
					"indexed": false,
					"internalType": "uint256",
					"name": "startPrice",
					"type": "uint256"
				},
				{
					"indexed": false,
					"internalType": "uint256",
					"name": "endPrice",
					"type": "uint256"
				},
				{
					"indexed": false,
					"internalType": "uint256",
					"name": "duration",
					"type": "uint256"
				},
				{
					"indexed": false,
					"internalType": "bool",
					"name": "isBuy",
					"type": "bool"
				}
			],
			"name": "RequestCreated",
			"type": "event"
		},
		{
			"anonymous": false,
			"inputs": [
				{
					"indexed": true,
					"internalType": "bytes32",
					"name": "role",
					"type": "bytes32"
				},
				{
					"indexed": true,
					"internalType": "bytes32",
					"name": "previousAdminRole",
					"type": "bytes32"
				},
				{
					"indexed": true,
					"internalType": "bytes32",
					"name": "newAdminRole",
					"type": "bytes32"
				}
			],
			"name": "RoleAdminChanged",
			"type": "event"
		},
		{
			"anonymous": false,
			"inputs": [
				{
					"indexed": true,
					"internalType": "bytes32",
					"name": "role",
					"type": "bytes32"
				},
				{
					"indexed": true,
					"internalType": "address",
					"name": "account",
					"type": "address"
				},
				{
					"indexed": true,
					"internalType": "address",
					"name": "sender",
					"type": "address"
				}
			],
			"name": "RoleGranted",
			"type": "event"
		},
		{
			"anonymous": false,
			"inputs": [
				{
					"indexed": true,
					"internalType": "bytes32",
					"name": "role",
					"type": "bytes32"
				},
				{
					"indexed": true,
					"internalType": "address",
					"name": "account",
					"type": "address"
				},
				{
					"indexed": true,
					"internalType": "address",
					"name": "sender",
					"type": "address"
				}
			],
			"name": "RoleRevoked",
			"type": "event"
		},
		{
			"anonymous": false,
			"inputs": [
				{
					"indexed": false,
					"internalType": "address",
					"name": "token",
					"type": "address"
				}
			],
			"name": "SourceStableCoinAdded",
			"type": "event"
		},
		{
			"anonymous": false,
			"inputs": [
				{
					"indexed": false,
					"internalType": "address",
					"name": "token",
					"type": "address"
				}
			],
			"name": "SourceStableCoinRemoved",
			"type": "event"
		},
		{
			"anonymous": false,
			"inputs": [
				{
					"indexed": true,
					"internalType": "address",
					"name": "token",
					"type": "address"
				},
				{
					"indexed": true,
					"internalType": "address",
					"name": "to",
					"type": "address"
				},
				{
					"indexed": false,
					"internalType": "uint256",
					"name": "amount",
					"type": "uint256"
				}
			],
			"name": "StableCoinTransferred",
			"type": "event"
		},
		{
			"anonymous": false,
			"inputs": [
				{
					"indexed": false,
					"internalType": "address",
					"name": "account",
					"type": "address"
				}
			],
			"name": "Unpaused",
			"type": "event"
		},
		{
			"inputs": [],
			"name": "DEFAULT_ADMIN_ROLE",
			"outputs": [
				{
					"internalType": "bytes32",
					"name": "",
					"type": "bytes32"
				}
			],
			"stateMutability": "view",
			"type": "function"
		},
		{
			"inputs": [],
			"name": "PAUSER_ROLE",
			"outputs": [
				{
					"internalType": "bytes32",
					"name": "",
					"type": "bytes32"
				}
			],
			"stateMutability": "view",
			"type": "function"
		},
		{
			"inputs": [],
			"name": "TRADER_ROLE",
			"outputs": [
				{
					"internalType": "bytes32",
					"name": "",
					"type": "bytes32"
				}
			],
			"stateMutability": "view",
			"type": "function"
		},
		{
			"inputs": [],
			"name": "TRANSFER_MANAGER_ROLE",
			"outputs": [
				{
					"internalType": "bytes32",
					"name": "",
					"type": "bytes32"
				}
			],
			"stateMutability": "view",
			"type": "function"
		},
		{
			"inputs": [],
			"name": "activeRequestCount",
			"outputs": [
				{
					"internalType": "uint256",
					"name": "",
					"type": "uint256"
				}
			],
			"stateMutability": "view",
			"type": "function"
		},
		{
			"inputs": [
				{
					"internalType": "uint256",
					"name": "",
					"type": "uint256"
				}
			],
			"name": "activeRequestIds",
			"outputs": [
				{
					"internalType": "uint256",
					"name": "",
					"type": "uint256"
				}
			],
			"stateMutability": "view",
			"type": "function"
		},
		{
			"inputs": [
				{
					"internalType": "address",
					"name": "token",
					"type": "address"
				}
			],
			"name": "addStableCoin",
			"outputs": [],
			"stateMutability": "nonpayable",
			"type": "function"
		},
		{
			"inputs": [
				{
					"internalType": "address",
					"name": "",
					"type": "address"
				},
				{
					"internalType": "uint256",
					"name": "",
					"type": "uint256"
				},
				{
					"internalType": "address",
					"name": "",
					"type": "address"
				}
			],
			"name": "balances",
			"outputs": [
				{
					"internalType": "uint256",
					"name": "",
					"type": "uint256"
				}
			],
			"stateMutability": "view",
			"type": "function"
		},
		{
			"inputs": [
				{
					"internalType": "uint256[]",
					"name": "requestIds",
					"type": "uint256[]"
				},
				{
					"internalType": "uint256[]",
					"name": "finalPrices",
					"type": "uint256[]"
				}
			],
			"name": "batchCompleteBuy",
			"outputs": [],
			"stateMutability": "nonpayable",
			"type": "function"
		},
		{
			"inputs": [
				{
					"internalType": "uint256[]",
					"name": "requestIds",
					"type": "uint256[]"
				}
			],
			"name": "batchCompleteCancelBuyToken",
			"outputs": [],
			"stateMutability": "nonpayable",
			"type": "function"
		},
		{
			"inputs": [
				{
					"internalType": "uint256[]",
					"name": "requestIds",
					"type": "uint256[]"
				}
			],
			"name": "batchCompleteCancelSellToken",
			"outputs": [],
			"stateMutability": "nonpayable",
			"type": "function"
		},
		{
			"inputs": [
				{
					"internalType": "uint256[]",
					"name": "requestIds",
					"type": "uint256[]"
				},
				{
					"internalType": "uint256[]",
					"name": "finalPrices",
					"type": "uint256[]"
				}
			],
			"name": "batchCompleteSell",
			"outputs": [],
			"stateMutability": "nonpayable",
			"type": "function"
		},
		{
			"inputs": [
				{
					"internalType": "uint256[]",
					"name": "requestIds",
					"type": "uint256[]"
				}
			],
			"name": "batchForceCancelRequest",
			"outputs": [],
			"stateMutability": "nonpayable",
			"type": "function"
		},
		{
			"inputs": [
				{
					"internalType": "uint256",
					"name": "_stableCoinAmount",
					"type": "uint256"
				},
				{
					"internalType": "uint256",
					"name": "_targetchainId",
					"type": "uint256"
				},
				{
					"internalType": "address",
					"name": "_tokenAddress",
					"type": "address"
				},
				{
					"internalType": "address",
					"name": "_stableCoinAddress",
					"type": "address"
				},
				{
					"internalType": "address",
					"name": "_sourceStableCoinAddress",
					"type": "address"
				},
				{
					"internalType": "uint256",
					"name": "_tokenAmount",
					"type": "uint256"
				},
				{
					"internalType": "uint256",
					"name": "_startPrice",
					"type": "uint256"
				},
				{
					"internalType": "uint256",
					"name": "_endPrice",
					"type": "uint256"
				},
				{
					"internalType": "uint256",
					"name": "_duration",
					"type": "uint256"
				}
			],
			"name": "buyTokens",
			"outputs": [],
			"stateMutability": "nonpayable",
			"type": "function"
		},
		{
			"inputs": [],
			"name": "cancelFeePercentage",
			"outputs": [
				{
					"internalType": "uint256",
					"name": "",
					"type": "uint256"
				}
			],
			"stateMutability": "view",
			"type": "function"
		},
		{
			"inputs": [
				{
					"internalType": "uint256",
					"name": "requestId",
					"type": "uint256"
				},
				{
					"internalType": "uint256",
					"name": "finalPrice",
					"type": "uint256"
				}
			],
			"name": "completeBuy",
			"outputs": [],
			"stateMutability": "nonpayable",
			"type": "function"
		},
		{
			"inputs": [
				{
					"internalType": "uint256",
					"name": "requestId",
					"type": "uint256"
				}
			],
			"name": "completeCancelBuyToken",
			"outputs": [],
			"stateMutability": "nonpayable",
			"type": "function"
		},
		{
			"inputs": [
				{
					"internalType": "uint256",
					"name": "requestId",
					"type": "uint256"
				}
			],
			"name": "completeCancelSellToken",
			"outputs": [],
			"stateMutability": "nonpayable",
			"type": "function"
		},
		{
			"inputs": [
				{
					"internalType": "uint256",
					"name": "requestId",
					"type": "uint256"
				},
				{
					"internalType": "uint256",
					"name": "finalPrice",
					"type": "uint256"
				}
			],
			"name": "completeSell",
			"outputs": [],
			"stateMutability": "nonpayable",
			"type": "function"
		},
		{
			"inputs": [],
			"name": "feePercentage",
			"outputs": [
				{
					"internalType": "uint256",
					"name": "",
					"type": "uint256"
				}
			],
			"stateMutability": "view",
			"type": "function"
		},
		{
			"inputs": [],
			"name": "feeRecipient",
			"outputs": [
				{
					"internalType": "address",
					"name": "",
					"type": "address"
				}
			],
			"stateMutability": "view",
			"type": "function"
		},
		{
			"inputs": [
				{
					"internalType": "uint256",
					"name": "requestId",
					"type": "uint256"
				}
			],
			"name": "forceCancelRequest",
			"outputs": [],
			"stateMutability": "nonpayable",
			"type": "function"
		},
		{
			"inputs": [],
			"name": "gasAmount",
			"outputs": [
				{
					"internalType": "uint256",
					"name": "",
					"type": "uint256"
				}
			],
			"stateMutability": "view",
			"type": "function"
		},
		{
			"inputs": [],
			"name": "getActiveRequestCount",
			"outputs": [
				{
					"internalType": "uint256",
					"name": "",
					"type": "uint256"
				}
			],
			"stateMutability": "view",
			"type": "function"
		},
		{
			"inputs": [
				{
					"internalType": "uint256",
					"name": "pageSize",
					"type": "uint256"
				},
				{
					"internalType": "uint256",
					"name": "page",
					"type": "uint256"
				},
				{
					"internalType": "bool",
					"name": "showAll",
					"type": "bool"
				}
			],
			"name": "getActiveRequestIds",
			"outputs": [
				{
					"internalType": "uint256[]",
					"name": "",
					"type": "uint256[]"
				}
			],
			"stateMutability": "view",
			"type": "function"
		},
		{
			"inputs": [
				{
					"internalType": "uint256",
					"name": "pageSize",
					"type": "uint256"
				},
				{
					"internalType": "uint256",
					"name": "page",
					"type": "uint256"
				},
				{
					"internalType": "bool",
					"name": "showAll",
					"type": "bool"
				}
			],
			"name": "getActiveRequestsData",
			"outputs": [
				{
					"components": [
						{
							"internalType": "uint256",
							"name": "requestId",
							"type": "uint256"
						},
						{
							"internalType": "address",
							"name": "user",
							"type": "address"
						},
						{
							"internalType": "uint256",
							"name": "targetchainId",
							"type": "uint256"
						},
						{
							"internalType": "address",
							"name": "targettokenAddress",
							"type": "address"
						},
						{
							"internalType": "address",
							"name": "targetstableCoinAddress",
							"type": "address"
						},
						{
							"internalType": "address",
							"name": "sourceStableCoinAddress",
							"type": "address"
						},
						{
							"internalType": "uint256",
							"name": "stableCoinAmount",
							"type": "uint256"
						},
						{
							"internalType": "uint256",
							"name": "tokenAmount",
							"type": "uint256"
						},
						{
							"internalType": "uint256",
							"name": "startPrice",
							"type": "uint256"
						},
						{
							"internalType": "uint256",
							"name": "endPrice",
							"type": "uint256"
						},
						{
							"internalType": "bool",
							"name": "isBuy",
							"type": "bool"
						},
						{
							"internalType": "uint8",
							"name": "status",
							"type": "uint8"
						}
					],
					"internalType": "struct IClientStructsEvents.RequestData[]",
					"name": "",
					"type": "tuple[]"
				}
			],
			"stateMutability": "view",
			"type": "function"
		},
		{
			"inputs": [
				{
					"internalType": "address",
					"name": "user",
					"type": "address"
				},
				{
					"internalType": "uint256",
					"name": "chainId",
					"type": "uint256"
				},
				{
					"internalType": "address",
					"name": "tokenAddress",
					"type": "address"
				}
			],
			"name": "getBalance",
			"outputs": [
				{
					"internalType": "uint256",
					"name": "",
					"type": "uint256"
				}
			],
			"stateMutability": "view",
			"type": "function"
		},
		{
			"inputs": [
				{
					"internalType": "uint256",
					"name": "requestId",
					"type": "uint256"
				}
			],
			"name": "getRequest",
			"outputs": [
				{
					"components": [
						{
							"internalType": "uint256",
							"name": "requestId",
							"type": "uint256"
						},
						{
							"internalType": "address",
							"name": "user",
							"type": "address"
						},
						{
							"internalType": "uint256",
							"name": "targetchainId",
							"type": "uint256"
						},
						{
							"internalType": "address",
							"name": "targettokenAddress",
							"type": "address"
						},
						{
							"internalType": "address",
							"name": "targetstableCoinAddress",
							"type": "address"
						},
						{
							"internalType": "address",
							"name": "sourceStableCoinAddress",
							"type": "address"
						},
						{
							"internalType": "uint256",
							"name": "stableCoinAmount",
							"type": "uint256"
						},
						{
							"internalType": "uint256",
							"name": "tokenAmount",
							"type": "uint256"
						},
						{
							"internalType": "uint256",
							"name": "startPrice",
							"type": "uint256"
						},
						{
							"internalType": "uint256",
							"name": "endPrice",
							"type": "uint256"
						},
						{
							"internalType": "bool",
							"name": "isBuy",
							"type": "bool"
						},
						{
							"internalType": "uint8",
							"name": "status",
							"type": "uint8"
						}
					],
					"internalType": "struct IClientStructsEvents.RequestData",
					"name": "",
					"type": "tuple"
				}
			],
			"stateMutability": "view",
			"type": "function"
		},
		{
			"inputs": [
				{
					"internalType": "uint256",
					"name": "requestId",
					"type": "uint256"
				}
			],
			"name": "getRequestIsBuy",
			"outputs": [
				{
					"internalType": "bool",
					"name": "",
					"type": "bool"
				}
			],
			"stateMutability": "view",
			"type": "function"
		},
		{
			"inputs": [
				{
					"internalType": "uint256",
					"name": "requestId",
					"type": "uint256"
				}
			],
			"name": "getRequestStableCoinAmount",
			"outputs": [
				{
					"internalType": "uint256",
					"name": "",
					"type": "uint256"
				}
			],
			"stateMutability": "view",
			"type": "function"
		},
		{
			"inputs": [
				{
					"internalType": "uint256",
					"name": "requestId",
					"type": "uint256"
				}
			],
			"name": "getRequestStatus",
			"outputs": [
				{
					"internalType": "uint8",
					"name": "",
					"type": "uint8"
				}
			],
			"stateMutability": "view",
			"type": "function"
		},
		{
			"inputs": [
				{
					"internalType": "uint256",
					"name": "requestId",
					"type": "uint256"
				}
			],
			"name": "getRequestTargetTokenAddress",
			"outputs": [
				{
					"internalType": "address",
					"name": "",
					"type": "address"
				}
			],
			"stateMutability": "view",
			"type": "function"
		},
		{
			"inputs": [
				{
					"internalType": "uint256",
					"name": "requestId",
					"type": "uint256"
				}
			],
			"name": "getRequestTokenAmount",
			"outputs": [
				{
					"internalType": "uint256",
					"name": "",
					"type": "uint256"
				}
			],
			"stateMutability": "view",
			"type": "function"
		},
		{
			"inputs": [
				{
					"internalType": "uint256",
					"name": "requestId",
					"type": "uint256"
				}
			],
			"name": "getRequestUser",
			"outputs": [
				{
					"internalType": "address",
					"name": "",
					"type": "address"
				}
			],
			"stateMutability": "view",
			"type": "function"
		},
		{
			"inputs": [
				{
					"internalType": "bytes32",
					"name": "role",
					"type": "bytes32"
				}
			],
			"name": "getRoleAdmin",
			"outputs": [
				{
					"internalType": "bytes32",
					"name": "",
					"type": "bytes32"
				}
			],
			"stateMutability": "view",
			"type": "function"
		},
		{
			"inputs": [
				{
					"internalType": "bytes32",
					"name": "role",
					"type": "bytes32"
				},
				{
					"internalType": "address",
					"name": "account",
					"type": "address"
				}
			],
			"name": "grantRole",
			"outputs": [],
			"stateMutability": "nonpayable",
			"type": "function"
		},
		{
			"inputs": [
				{
					"internalType": "bytes32",
					"name": "role",
					"type": "bytes32"
				},
				{
					"internalType": "address",
					"name": "account",
					"type": "address"
				}
			],
			"name": "hasRole",
			"outputs": [
				{
					"internalType": "bool",
					"name": "",
					"type": "bool"
				}
			],
			"stateMutability": "view",
			"type": "function"
		},
		{
			"inputs": [
				{
					"internalType": "uint256",
					"name": "requestId",
					"type": "uint256"
				}
			],
			"name": "initiateCancelBuyToken",
			"outputs": [],
			"stateMutability": "nonpayable",
			"type": "function"
		},
		{
			"inputs": [
				{
					"internalType": "uint256",
					"name": "requestId",
					"type": "uint256"
				}
			],
			"name": "initiateCancelSellToken",
			"outputs": [],
			"stateMutability": "nonpayable",
			"type": "function"
		},
		{
			"inputs": [],
			"name": "pause",
			"outputs": [],
			"stateMutability": "nonpayable",
			"type": "function"
		},
		{
			"inputs": [],
			"name": "paused",
			"outputs": [
				{
					"internalType": "bool",
					"name": "",
					"type": "bool"
				}
			],
			"stateMutability": "view",
			"type": "function"
		},
		{
			"inputs": [],
			"name": "precisionFactor",
			"outputs": [
				{
					"internalType": "uint8",
					"name": "",
					"type": "uint8"
				}
			],
			"stateMutability": "view",
			"type": "function"
		},
		{
			"inputs": [
				{
					"internalType": "address",
					"name": "token",
					"type": "address"
				}
			],
			"name": "removeStableCoin",
			"outputs": [],
			"stateMutability": "nonpayable",
			"type": "function"
		},
		{
			"inputs": [
				{
					"internalType": "bytes32",
					"name": "role",
					"type": "bytes32"
				},
				{
					"internalType": "address",
					"name": "callerConfirmation",
					"type": "address"
				}
			],
			"name": "renounceRole",
			"outputs": [],
			"stateMutability": "nonpayable",
			"type": "function"
		},
		{
			"inputs": [
				{
					"internalType": "uint256",
					"name": "",
					"type": "uint256"
				}
			],
			"name": "requestCancellationInitiated",
			"outputs": [
				{
					"internalType": "bool",
					"name": "",
					"type": "bool"
				}
			],
			"stateMutability": "view",
			"type": "function"
		},
		{
			"inputs": [],
			"name": "requestCount",
			"outputs": [
				{
					"internalType": "uint256",
					"name": "",
					"type": "uint256"
				}
			],
			"stateMutability": "view",
			"type": "function"
		},
		{
			"inputs": [
				{
					"internalType": "uint256",
					"name": "",
					"type": "uint256"
				}
			],
			"name": "requestIdToActiveIndex",
			"outputs": [
				{
					"internalType": "uint256",
					"name": "",
					"type": "uint256"
				}
			],
			"stateMutability": "view",
			"type": "function"
		},
		{
			"inputs": [
				{
					"internalType": "bytes32",
					"name": "role",
					"type": "bytes32"
				},
				{
					"internalType": "address",
					"name": "account",
					"type": "address"
				}
			],
			"name": "revokeRole",
			"outputs": [],
			"stateMutability": "nonpayable",
			"type": "function"
		},
		{
			"inputs": [
				{
					"internalType": "uint256",
					"name": "_tokenAmount",
					"type": "uint256"
				},
				{
					"internalType": "uint256",
					"name": "_targetchainId",
					"type": "uint256"
				},
				{
					"internalType": "address",
					"name": "_tokenAddress",
					"type": "address"
				},
				{
					"internalType": "address",
					"name": "_stableCoinAddress",
					"type": "address"
				},
				{
					"internalType": "address",
					"name": "_sourceStableCoinAddress",
					"type": "address"
				},
				{
					"internalType": "uint256",
					"name": "_stableCoinAmount",
					"type": "uint256"
				},
				{
					"internalType": "uint256",
					"name": "_startPrice",
					"type": "uint256"
				},
				{
					"internalType": "uint256",
					"name": "_endPrice",
					"type": "uint256"
				},
				{
					"internalType": "uint256",
					"name": "_duration",
					"type": "uint256"
				}
			],
			"name": "sellTokens",
			"outputs": [],
			"stateMutability": "nonpayable",
			"type": "function"
		},
		{
			"inputs": [
				{
					"internalType": "uint256",
					"name": "_cancelFeePercentage",
					"type": "uint256"
				}
			],
			"name": "setCancelFeePercentage",
			"outputs": [],
			"stateMutability": "nonpayable",
			"type": "function"
		},
		{
			"inputs": [
				{
					"internalType": "uint256",
					"name": "_feePercentage",
					"type": "uint256"
				}
			],
			"name": "setFeePercentage",
			"outputs": [],
			"stateMutability": "nonpayable",
			"type": "function"
		},
		{
			"inputs": [
				{
					"internalType": "address",
					"name": "_feeRecipient",
					"type": "address"
				}
			],
			"name": "setFeeRecipient",
			"outputs": [],
			"stateMutability": "nonpayable",
			"type": "function"
		},
		{
			"inputs": [
				{
					"internalType": "uint256",
					"name": "_gasAmount",
					"type": "uint256"
				}
			],
			"name": "setGasAmount",
			"outputs": [],
			"stateMutability": "nonpayable",
			"type": "function"
		},
		{
			"inputs": [
				{
					"internalType": "uint8",
					"name": "_precisionFactor",
					"type": "uint8"
				}
			],
			"name": "setPrecisionFactor",
			"outputs": [],
			"stateMutability": "nonpayable",
			"type": "function"
		},
		{
			"inputs": [
				{
					"internalType": "address",
					"name": "",
					"type": "address"
				}
			],
			"name": "supportedStableCoins",
			"outputs": [
				{
					"internalType": "bool",
					"name": "",
					"type": "bool"
				}
			],
			"stateMutability": "view",
			"type": "function"
		},
		{
			"inputs": [
				{
					"internalType": "bytes4",
					"name": "interfaceId",
					"type": "bytes4"
				}
			],
			"name": "supportsInterface",
			"outputs": [
				{
					"internalType": "bool",
					"name": "",
					"type": "bool"
				}
			],
			"stateMutability": "view",
			"type": "function"
		},
		{
			"inputs": [
				{
					"internalType": "address",
					"name": "token",
					"type": "address"
				},
				{
					"internalType": "address",
					"name": "to",
					"type": "address"
				},
				{
					"internalType": "uint256",
					"name": "amount",
					"type": "uint256"
				}
			],
			"name": "transferStableCoin",
			"outputs": [],
			"stateMutability": "nonpayable",
			"type": "function"
		},
		{
			"inputs": [],
			"name": "unpause",
			"outputs": [],
			"stateMutability": "nonpayable",
			"type": "function"
		}
	]
}