{
	"weusd/manageusd.sol": {
		"weUSD_manager": {
			"abi": [
				{
					"inputs": [
						{
							"internalType": "address",
							"name": "_weUSD",
							"type": "address"
						},
						{
							"internalType": "address",
							"name": "_stablecoin",
							"type": "address"
						},
						{
							"internalType": "address",
							"name": "_crossChainMinter",
							"type": "address"
						},
						{
							"internalType": "address",
							"name": "_main",
							"type": "address"
						},
						{
							"internalType": "address",
							"name": "_feeRecipient",
							"type": "address"
						}
					],
					"stateMutability": "nonpayable",
					"type": "constructor"
				},
				{
					"inputs": [],
					"name": "AccessControlBadConfirmation",
					"type": "error"
				},
				{
					"inputs": [
						{
							"internalType": "address",
							"name": "account",
							"type": "address"
						},
						{
							"internalType": "bytes32",
							"name": "neededRole",
							"type": "bytes32"
						}
					],
					"name": "AccessControlUnauthorizedAccount",
					"type": "error"
				},
				{
					"inputs": [],
					"name": "EnforcedPause",
					"type": "error"
				},
				{
					"inputs": [],
					"name": "ExpectedPause",
					"type": "error"
				},
				{
					"anonymous": false,
					"inputs": [
						{
							"indexed": true,
							"internalType": "address",
							"name": "user",
							"type": "address"
						},
						{
							"indexed": true,
							"internalType": "address",
							"name": "stablecoin",
							"type": "address"
						},
						{
							"indexed": false,
							"internalType": "uint256",
							"name": "weUSDAmount",
							"type": "uint256"
						},
						{
							"indexed": false,
							"internalType": "uint256",
							"name": "stablecoinAmount",
							"type": "uint256"
						}
					],
					"name": "BurnedWeUSD",
					"type": "event"
				},
				{
					"anonymous": false,
					"inputs": [
						{
							"indexed": true,
							"internalType": "uint256",
							"name": "requestId",
							"type": "uint256"
						},
						{
							"indexed": true,
							"internalType": "address",
							"name": "user",
							"type": "address"
						},
						{
							"indexed": false,
							"internalType": "uint256",
							"name": "sourceChainId",
							"type": "uint256"
						},
						{
							"indexed": false,
							"internalType": "uint256",
							"name": "targetChainId",
							"type": "uint256"
						},
						{
							"indexed": false,
							"internalType": "uint256",
							"name": "amount",
							"type": "uint256"
						},
						{
							"indexed": false,
							"internalType": "address",
							"name": "targetUser",
							"type": "address"
						}
					],
					"name": "CrossChainBurn",
					"type": "event"
				},
				{
					"anonymous": false,
					"inputs": [
						{
							"indexed": true,
							"internalType": "uint256",
							"name": "requestId",
							"type": "uint256"
						},
						{
							"indexed": true,
							"internalType": "address",
							"name": "minter",
							"type": "address"
						},
						{
							"indexed": false,
							"internalType": "uint256",
							"name": "sourceChainId",
							"type": "uint256"
						},
						{
							"indexed": false,
							"internalType": "uint256",
							"name": "targetChainId",
							"type": "uint256"
						},
						{
							"indexed": false,
							"internalType": "uint256",
							"name": "amount",
							"type": "uint256"
						},
						{
							"indexed": false,
							"internalType": "address",
							"name": "targetUser",
							"type": "address"
						}
					],
					"name": "CrossChainMint",
					"type": "event"
				},
				{
					"anonymous": false,
					"inputs": [
						{
							"indexed": true,
							"internalType": "address",
							"name": "user",
							"type": "address"
						},
						{
							"indexed": true,
							"internalType": "address",
							"name": "stablecoin",
							"type": "address"
						},
						{
							"indexed": false,
							"internalType": "uint256",
							"name": "stablecoinAmount",
							"type": "uint256"
						},
						{
							"indexed": false,
							"internalType": "uint256",
							"name": "weUSDAmount",
							"type": "uint256"
						}
					],
					"name": "MintedWeUSD",
					"type": "event"
				},
				{
					"anonymous": false,
					"inputs": [
						{
							"indexed": false,
							"internalType": "address",
							"name": "account",
							"type": "address"
						}
					],
					"name": "Paused",
					"type": "event"
				},
				{
					"anonymous": false,
					"inputs": [
						{
							"indexed": true,
							"internalType": "bytes32",
							"name": "role",
							"type": "bytes32"
						},
						{
							"indexed": true,
							"internalType": "bytes32",
							"name": "previousAdminRole",
							"type": "bytes32"
						},
						{
							"indexed": true,
							"internalType": "bytes32",
							"name": "newAdminRole",
							"type": "bytes32"
						}
					],
					"name": "RoleAdminChanged",
					"type": "event"
				},
				{
					"anonymous": false,
					"inputs": [
						{
							"indexed": true,
							"internalType": "bytes32",
							"name": "role",
							"type": "bytes32"
						},
						{
							"indexed": true,
							"internalType": "address",
							"name": "account",
							"type": "address"
						},
						{
							"indexed": true,
							"internalType": "address",
							"name": "sender",
							"type": "address"
						}
					],
					"name": "RoleGranted",
					"type": "event"
				},
				{
					"anonymous": false,
					"inputs": [
						{
							"indexed": true,
							"internalType": "bytes32",
							"name": "role",
							"type": "bytes32"
						},
						{
							"indexed": true,
							"internalType": "address",
							"name": "account",
							"type": "address"
						},
						{
							"indexed": true,
							"internalType": "address",
							"name": "sender",
							"type": "address"
						}
					],
					"name": "RoleRevoked",
					"type": "event"
				},
				{
					"anonymous": false,
					"inputs": [
						{
							"indexed": true,
							"internalType": "address",
							"name": "stablecoin",
							"type": "address"
						}
					],
					"name": "StablecoinDeleted",
					"type": "event"
				},
				{
					"anonymous": false,
					"inputs": [
						{
							"indexed": true,
							"internalType": "address",
							"name": "stablecoin",
							"type": "address"
						}
					],
					"name": "StablecoinRegistered",
					"type": "event"
				},
				{
					"anonymous": false,
					"inputs": [
						{
							"indexed": false,
							"internalType": "address",
							"name": "account",
							"type": "address"
						}
					],
					"name": "Unpaused",
					"type": "event"
				},
				{
					"inputs": [],
					"name": "ADMIN_ROLE",
					"outputs": [
						{
							"internalType": "bytes32",
							"name": "",
							"type": "bytes32"
						}
					],
					"stateMutability": "view",
					"type": "function"
				},
				{
					"inputs": [],
					"name": "CROSS_CHAIN_MINTER_ROLE",
					"outputs": [
						{
							"internalType": "bytes32",
							"name": "",
							"type": "bytes32"
						}
					],
					"stateMutability": "view",
					"type": "function"
				},
				{
					"inputs": [],
					"name": "DEFAULT_ADMIN_ROLE",
					"outputs": [
						{
							"internalType": "bytes32",
							"name": "",
							"type": "bytes32"
						}
					],
					"stateMutability": "view",
					"type": "function"
				},
				{
					"inputs": [],
					"name": "PAUSER_ROLE",
					"outputs": [
						{
							"internalType": "bytes32",
							"name": "",
							"type": "bytes32"
						}
					],
					"stateMutability": "view",
					"type": "function"
				},
				{
					"inputs": [],
					"name": "WEUSD_DECIMALS",
					"outputs": [
						{
							"internalType": "uint8",
							"name": "",
							"type": "uint8"
						}
					],
					"stateMutability": "view",
					"type": "function"
				},
				{
					"inputs": [
						{
							"internalType": "uint256",
							"name": "",
							"type": "uint256"
						}
					],
					"name": "activeSourceRequests",
					"outputs": [
						{
							"internalType": "uint256",
							"name": "",
							"type": "uint256"
						}
					],
					"stateMutability": "view",
					"type": "function"
				},
				{
					"inputs": [
						{
							"internalType": "uint256",
							"name": "",
							"type": "uint256"
						}
					],
					"name": "activeTargetRequests",
					"outputs": [
						{
							"internalType": "uint256",
							"name": "",
							"type": "uint256"
						}
					],
					"stateMutability": "view",
					"type": "function"
				},
				{
					"inputs": [
						{
							"internalType": "address",
							"name": "stablecoin",
							"type": "address"
						},
						{
							"internalType": "uint256",
							"name": "weUSDAmount",
							"type": "uint256"
						}
					],
					"name": "burnWeUSD",
					"outputs": [],
					"stateMutability": "nonpayable",
					"type": "function"
				},
				{
					"inputs": [
						{
							"internalType": "uint256",
							"name": "targetChainId",
							"type": "uint256"
						},
						{
							"internalType": "uint256",
							"name": "amount",
							"type": "uint256"
						},
						{
							"internalType": "address",
							"name": "targetUser",
							"type": "address"
						}
					],
					"name": "burnWeUSDCrossChain",
					"outputs": [],
					"stateMutability": "nonpayable",
					"type": "function"
				},
				{
					"inputs": [
						{
							"internalType": "address",
							"name": "stablecoin",
							"type": "address"
						}
					],
					"name": "deleteStablecoin",
					"outputs": [],
					"stateMutability": "nonpayable",
					"type": "function"
				},
				{
					"inputs": [],
					"name": "feeRecipient",
					"outputs": [
						{
							"internalType": "address",
							"name": "",
							"type": "address"
						}
					],
					"stateMutability": "view",
					"type": "function"
				},
				{
					"inputs": [],
					"name": "gasfee",
					"outputs": [
						{
							"internalType": "uint256",
							"name": "",
							"type": "uint256"
						}
					],
					"stateMutability": "view",
					"type": "function"
				},
				{
					"inputs": [
						{
							"internalType": "uint256",
							"name": "_requestId",
							"type": "uint256"
						}
					],
					"name": "getRequestById",
					"outputs": [
						{
							"components": [
								{
									"internalType": "uint256",
									"name": "requestId",
									"type": "uint256"
								},
								{
									"internalType": "address",
									"name": "user",
									"type": "address"
								},
								{
									"internalType": "uint256",
									"name": "amount",
									"type": "uint256"
								},
								{
									"internalType": "bool",
									"name": "isburn",
									"type": "bool"
								}
							],
							"internalType": "struct RequestData",
							"name": "",
							"type": "tuple"
						}
					],
					"stateMutability": "view",
					"type": "function"
				},
				{
					"inputs": [
						{
							"internalType": "bytes32",
							"name": "role",
							"type": "bytes32"
						}
					],
					"name": "getRoleAdmin",
					"outputs": [
						{
							"internalType": "bytes32",
							"name": "",
							"type": "bytes32"
						}
					],
					"stateMutability": "view",
					"type": "function"
				},
				{
					"inputs": [
						{
							"internalType": "address",
							"name": "_user",
							"type": "address"
						},
						{
							"internalType": "uint256",
							"name": "_page",
							"type": "uint256"
						},
						{
							"internalType": "uint256",
							"name": "_pageSize",
							"type": "uint256"
						}
					],
					"name": "getUserSourceRequests",
					"outputs": [
						{
							"internalType": "uint256[]",
							"name": "",
							"type": "uint256[]"
						},
						{
							"internalType": "uint256",
							"name": "",
							"type": "uint256"
						}
					],
					"stateMutability": "view",
					"type": "function"
				},
				{
					"inputs": [
						{
							"internalType": "address",
							"name": "_user",
							"type": "address"
						},
						{
							"internalType": "uint256",
							"name": "_page",
							"type": "uint256"
						},
						{
							"internalType": "uint256",
							"name": "_pageSize",
							"type": "uint256"
						}
					],
					"name": "getUserTargetRequests",
					"outputs": [
						{
							"internalType": "uint256[]",
							"name": "",
							"type": "uint256[]"
						},
						{
							"internalType": "uint256",
							"name": "",
							"type": "uint256"
						}
					],
					"stateMutability": "view",
					"type": "function"
				},
				{
					"inputs": [
						{
							"internalType": "bytes32",
							"name": "role",
							"type": "bytes32"
						},
						{
							"internalType": "address",
							"name": "account",
							"type": "address"
						}
					],
					"name": "grantRole",
					"outputs": [],
					"stateMutability": "nonpayable",
					"type": "function"
				},
				{
					"inputs": [
						{
							"internalType": "bytes32",
							"name": "role",
							"type": "bytes32"
						},
						{
							"internalType": "address",
							"name": "account",
							"type": "address"
						}
					],
					"name": "hasRole",
					"outputs": [
						{
							"internalType": "bool",
							"name": "",
							"type": "bool"
						}
					],
					"stateMutability": "view",
					"type": "function"
				},
				{
					"inputs": [
						{
							"internalType": "uint256",
							"name": "requestId",
							"type": "uint256"
						}
					],
					"name": "isRequestIdUsed",
					"outputs": [
						{
							"internalType": "bool",
							"name": "",
							"type": "bool"
						}
					],
					"stateMutability": "view",
					"type": "function"
				},
				{
					"inputs": [],
					"name": "mainContract",
					"outputs": [
						{
							"internalType": "contract IMainContract",
							"name": "",
							"type": "address"
						}
					],
					"stateMutability": "view",
					"type": "function"
				},
				{
					"inputs": [
						{
							"internalType": "address",
							"name": "stablecoin",
							"type": "address"
						},
						{
							"internalType": "uint256",
							"name": "stablecoinAmount",
							"type": "uint256"
						}
					],
					"name": "mintWeUSD",
					"outputs": [],
					"stateMutability": "nonpayable",
					"type": "function"
				},
				{
					"inputs": [
						{
							"internalType": "uint256",
							"name": "requestId",
							"type": "uint256"
						},
						{
							"internalType": "uint256",
							"name": "sourceChainId",
							"type": "uint256"
						},
						{
							"internalType": "uint256",
							"name": "amount",
							"type": "uint256"
						},
						{
							"internalType": "address",
							"name": "targetUser",
							"type": "address"
						}
					],
					"name": "mintWeUSDCrossChain",
					"outputs": [],
					"stateMutability": "nonpayable",
					"type": "function"
				},
				{
					"inputs": [],
					"name": "pause",
					"outputs": [],
					"stateMutability": "nonpayable",
					"type": "function"
				},
				{
					"inputs": [],
					"name": "paused",
					"outputs": [
						{
							"internalType": "bool",
							"name": "",
							"type": "bool"
						}
					],
					"stateMutability": "view",
					"type": "function"
				},
				{
					"inputs": [
						{
							"internalType": "address",
							"name": "stablecoin",
							"type": "address"
						}
					],
					"name": "registerStablecoin",
					"outputs": [],
					"stateMutability": "nonpayable",
					"type": "function"
				},
				{
					"inputs": [
						{
							"internalType": "address",
							"name": "",
							"type": "address"
						}
					],
					"name": "registeredStablecoins",
					"outputs": [
						{
							"internalType": "bool",
							"name": "",
							"type": "bool"
						}
					],
					"stateMutability": "view",
					"type": "function"
				},
				{
					"inputs": [
						{
							"internalType": "bytes32",
							"name": "role",
							"type": "bytes32"
						},
						{
							"internalType": "address",
							"name": "callerConfirmation",
							"type": "address"
						}
					],
					"name": "renounceRole",
					"outputs": [],
					"stateMutability": "nonpayable",
					"type": "function"
				},
				{
					"inputs": [],
					"name": "requestCount",
					"outputs": [
						{
							"internalType": "uint256",
							"name": "",
							"type": "uint256"
						}
					],
					"stateMutability": "view",
					"type": "function"
				},
				{
					"inputs": [
						{
							"internalType": "uint256",
							"name": "_requestId",
							"type": "uint256"
						}
					],
					"name": "requestExists",
					"outputs": [
						{
							"internalType": "bool",
							"name": "",
							"type": "bool"
						}
					],
					"stateMutability": "view",
					"type": "function"
				},
				{
					"inputs": [
						{
							"internalType": "uint256",
							"name": "",
							"type": "uint256"
						}
					],
					"name": "requestIdToSourceActiveIndex",
					"outputs": [
						{
							"internalType": "uint256",
							"name": "",
							"type": "uint256"
						}
					],
					"stateMutability": "view",
					"type": "function"
				},
				{
					"inputs": [
						{
							"internalType": "uint256",
							"name": "",
							"type": "uint256"
						}
					],
					"name": "requestIdToTargetActiveIndex",
					"outputs": [
						{
							"internalType": "uint256",
							"name": "",
							"type": "uint256"
						}
					],
					"stateMutability": "view",
					"type": "function"
				},
				{
					"inputs": [
						{
							"internalType": "bytes32",
							"name": "role",
							"type": "bytes32"
						},
						{
							"internalType": "address",
							"name": "account",
							"type": "address"
						}
					],
					"name": "revokeRole",
					"outputs": [],
					"stateMutability": "nonpayable",
					"type": "function"
				},
				{
					"inputs": [
						{
							"internalType": "address",
							"name": "_feeRecipient",
							"type": "address"
						}
					],
					"name": "setFeeRecipient",
					"outputs": [],
					"stateMutability": "nonpayable",
					"type": "function"
				},
				{
					"inputs": [
						{
							"internalType": "uint256",
							"name": "_gasfee",
							"type": "uint256"
						}
					],
					"name": "setGasfee",
					"outputs": [],
					"stateMutability": "nonpayable",
					"type": "function"
				},
				{
					"inputs": [
						{
							"internalType": "bytes4",
							"name": "interfaceId",
							"type": "bytes4"
						}
					],
					"name": "supportsInterface",
					"outputs": [
						{
							"internalType": "bool",
							"name": "",
							"type": "bool"
						}
					],
					"stateMutability": "view",
					"type": "function"
				},
				{
					"inputs": [],
					"name": "unpause",
					"outputs": [],
					"stateMutability": "nonpayable",
					"type": "function"
				},
				{
					"inputs": [
						{
							"internalType": "uint256",
							"name": "",
							"type": "uint256"
						}
					],
					"name": "usedRequestIds",
					"outputs": [
						{
							"internalType": "bool",
							"name": "",
							"type": "bool"
						}
					],
					"stateMutability": "view",
					"type": "function"
				},
				{
					"inputs": [],
					"name": "weUSD",
					"outputs": [
						{
							"internalType": "contract IPicweUSD",
							"name": "",
							"type": "address"
						}
					],
					"stateMutability": "view",
					"type": "function"
				}
			],
			"devdoc": {
				"errors": {
					"AccessControlBadConfirmation()": [
						{
							"details": "The caller of a function is not the expected one. NOTE: Don't confuse with {AccessControlUnauthorizedAccount}."
						}
					],
					"AccessControlUnauthorizedAccount(address,bytes32)": [
						{
							"details": "The `account` is missing a role."
						}
					],
					"EnforcedPause()": [
						{
							"details": "The operation failed because the contract is paused."
						}
					],
					"ExpectedPause()": [
						{
							"details": "The operation failed because the contract is not paused."
						}
					]
				},
				"events": {
					"Paused(address)": {
						"details": "Emitted when the pause is triggered by `account`."
					},
					"RoleAdminChanged(bytes32,bytes32,bytes32)": {
						"details": "Emitted when `newAdminRole` is set as ``role``'s admin role, replacing `previousAdminRole` `DEFAULT_ADMIN_ROLE` is the starting admin for all roles, despite {RoleAdminChanged} not being emitted signaling this."
					},
					"RoleGranted(bytes32,address,address)": {
						"details": "Emitted when `account` is granted `role`. `sender` is the account that originated the contract call, an admin role bearer except when using {AccessControl-_setupRole}."
					},
					"RoleRevoked(bytes32,address,address)": {
						"details": "Emitted when `account` is revoked `role`. `sender` is the account that originated the contract call:   - if using `revokeRole`, it is the admin role bearer   - if using `renounceRole`, it is the role bearer (i.e. `account`)"
					},
					"Unpaused(address)": {
						"details": "Emitted when the pause is lifted by `account`."
					}
				},
				"kind": "dev",
				"methods": {
					"burnWeUSD(address,uint256)": {
						"details": "Burns weUSD tokens and returns stablecoins to the user.",
						"params": {
							"stablecoin": "The address of the stablecoin to be returned.",
							"weUSDAmount": "The amount of weUSD to be burned."
						}
					},
					"burnWeUSDCrossChain(uint256,uint256,address)": {
						"details": "Burns weUSD tokens on the source chain for cross-chain transfer.",
						"params": {
							"amount": "The total amount of weUSD to be burned (including gas fee).",
							"targetChainId": "The ID of the target chain where weUSD will be minted.",
							"targetUser": "The address of the user on the target chain to receive the minted weUSD."
						}
					},
					"deleteStablecoin(address)": {
						"details": "Deletes a stablecoin (stablecoin).",
						"params": {
							"stablecoin": "The address of the stablecoin to be deleted. "
						}
					},
					"getRequestById(uint256)": {
						"details": "Retrieves the request data for a given request ID",
						"params": {
							"_requestId": "The unique identifier of the request"
						},
						"returns": {
							"_0": "RequestData struct containing the request details "
						}
					},
					"getRoleAdmin(bytes32)": {
						"details": "Returns the admin role that controls `role`. See {grantRole} and {revokeRole}. To change a role's admin, use {_setRoleAdmin}."
					},
					"getUserSourceRequests(address,uint256,uint256)": {
						"details": "Get all source chain request IDs for a specific user",
						"params": {
							"_page": "Page number (starting from 1)",
							"_pageSize": "Number of items per page",
							"_user": "User address"
						},
						"returns": {
							"_0": "uint256[] Array containing source chain request IDs for the user's specified page",
							"_1": "uint256 Total number of source chain requests for the user "
						}
					},
					"getUserTargetRequests(address,uint256,uint256)": {
						"details": "Get all target chain request IDs for a specific user",
						"params": {
							"_page": "Page number (starting from 1)",
							"_pageSize": "Number of items per page",
							"_user": "User address"
						},
						"returns": {
							"_0": "uint256[] Array containing target chain request IDs for the user's specified page",
							"_1": "uint256 Total number of target chain requests for the user "
						}
					},
					"grantRole(bytes32,address)": {
						"details": "Grants `role` to `account`. If `account` had not been already granted `role`, emits a {RoleGranted} event. Requirements: - the caller must have ``role``'s admin role. May emit a {RoleGranted} event."
					},
					"hasRole(bytes32,address)": {
						"details": "Returns `true` if `account` has been granted `role`."
					},
					"mintWeUSD(address,uint256)": {
						"details": "Mints weUSD tokens in exchange for stablecoins.",
						"params": {
							"stablecoin": "The address of the stablecoin to be exchanged.",
							"stablecoinAmount": "The amount of stablecoin to be exchanged."
						}
					},
					"mintWeUSDCrossChain(uint256,uint256,uint256,address)": {
						"details": "Mints weUSD tokens on the target chain for cross-chain transfer.",
						"params": {
							"amount": "Amount of weUSD to be minted",
							"requestId": "Unique request ID to prevent duplicate processing",
							"sourceChainId": "ID of the source chain",
							"targetUser": "Address of the target user to receive the minted weUSD"
						}
					},
					"paused()": {
						"details": "Returns true if the contract is paused, and false otherwise."
					},
					"registerStablecoin(address)": {
						"details": "Registers a stablecoin (stablecoin).",
						"params": {
							"stablecoin": "The address of the stablecoin to be registered. "
						}
					},
					"renounceRole(bytes32,address)": {
						"details": "Revokes `role` from the calling account. Roles are often managed via {grantRole} and {revokeRole}: this function's purpose is to provide a mechanism for accounts to lose their privileges if they are compromised (such as when a trusted device is misplaced). If the calling account had been revoked `role`, emits a {RoleRevoked} event. Requirements: - the caller must be `callerConfirmation`. May emit a {RoleRevoked} event."
					},
					"requestExists(uint256)": {
						"details": "Checks if a request exists for a given request ID",
						"params": {
							"_requestId": "The unique identifier of the request"
						},
						"returns": {
							"_0": "bool indicating whether the request exists "
						}
					},
					"revokeRole(bytes32,address)": {
						"details": "Revokes `role` from `account`. If `account` had been granted `role`, emits a {RoleRevoked} event. Requirements: - the caller must have ``role``'s admin role. May emit a {RoleRevoked} event."
					},
					"setFeeRecipient(address)": {
						"details": "Sets the fee recipient (feeRecipient).",
						"params": {
							"_feeRecipient": "The new fee recipient address. "
						}
					},
					"setGasfee(uint256)": {
						"details": "Sets the gas fee (gasfee).",
						"params": {
							"_gasfee": "The new gas fee amount. "
						}
					},
					"supportsInterface(bytes4)": {
						"details": "See {IERC165-supportsInterface}."
					}
				},
				"version": 1
			},
			"evm": {
				"assembly": "    /* \"weusd/manageusd.sol\":534:17479  contract weUSD_manager is AccessControl, Pausable{... */\n  mstore(0x40, 0x80)\n    /* \"weusd/manageusd.sol\":993:1004  5*10**(6-1) */\n  0x07a120\n    /* \"weusd/manageusd.sol\":969:1004  uint256 public gasfee = 5*10**(6-1) */\n  0x04\n  sstore\n    /* \"weusd/manageusd.sol\":2130:2641  constructor(address _weUSD, address _stablecoin, address _crossChainMinter, address _main, address _feeRecipient) {... */\n  callvalue\n  dup1\n  iszero\n  tag_1\n  jumpi\n  0x00\n  dup1\n  revert\ntag_1:\n  pop\n  mload(0x40)\n  sub(codesize, bytecodeSize)\n  dup1\n  bytecodeSize\n  dup4\n  codecopy\n  dup2\n  add\n  0x40\n  dup2\n  swap1\n  mstore\n  tag_2\n  swap2\n  tag_3\n  jump\t// in\ntag_2:\n    /* \"@openzeppelin/contracts/utils/Pausable.sol\":1231:1238  _paused */\n  0x01\n    /* \"@openzeppelin/contracts/utils/Pausable.sol\":1231:1246  _paused = false */\n  dup1\n  sload\n    /* \"weusd/manageusd.sol\":2255:2260  weUSD */\n  0x02\n    /* \"weusd/manageusd.sol\":2255:2280  weUSD = IPicweUSD(_weUSD) */\n  dup1\n  sload\n  sub(shl(0xa0, 0x01), 0x01)\n  dup1\n  dup11\n  and\n  not(sub(shl(0xa0, 0x01), 0x01))\n  swap1\n  swap3\n  and\n  swap2\n  swap1\n  swap2\n  or\n  swap1\n  swap2\n  sstore\n    /* \"weusd/manageusd.sol\":2291:2326  mainContract = IMainContract(_main) */\n  dup5\n  and\n    /* \"@openzeppelin/contracts/utils/Pausable.sol\":1231:1246  _paused = false */\n  0x0100\n    /* \"weusd/manageusd.sol\":2291:2326  mainContract = IMainContract(_main) */\n  mul\n  not(sub(shl(0xa8, 0x01), 0x01))\n  swap1\n  swap2\n  and\n  or\n  swap1\n  sstore\n    /* \"weusd/manageusd.sol\":2337:2379  _grantRole(DEFAULT_ADMIN_ROLE, msg.sender) */\n  tag_8\n    /* \"@openzeppelin/contracts/utils/Pausable.sol\":1241:1246  false */\n  0x00\n    /* \"weusd/manageusd.sol\":2368:2378  msg.sender */\n  caller\n    /* \"weusd/manageusd.sol\":2337:2347  _grantRole */\n  tag_9\n    /* \"weusd/manageusd.sol\":2337:2379  _grantRole(DEFAULT_ADMIN_ROLE, msg.sender) */\n  jump\t// in\ntag_8:\n  pop\n    /* \"weusd/manageusd.sol\":2390:2424  _grantRole(ADMIN_ROLE, msg.sender) */\n  tag_10\n    /* \"weusd/manageusd.sol\":667:690  keccak256(\"ADMIN_ROLE\") */\n  0xa49807205ce4d355092ef5a8a18f56e8913cf4a201fbe287825b095693c21775\n    /* \"weusd/manageusd.sol\":2413:2423  msg.sender */\n  caller\n    /* \"weusd/manageusd.sol\":2390:2400  _grantRole */\n  tag_9\n    /* \"weusd/manageusd.sol\":2390:2424  _grantRole(ADMIN_ROLE, msg.sender) */\n  jump\t// in\ntag_10:\n  pop\n    /* \"weusd/manageusd.sol\":2435:2489  _grantRole(CROSS_CHAIN_MINTER_ROLE, _crossChainMinter) */\n  tag_11\n    /* \"weusd/manageusd.sol\":816:852  keccak256(\"CROSS_CHAIN_MINTER_ROLE\") */\n  0x41de7ae3becaf069074d499ebcbd36df88385ba1e2946870f7e4674aecd43704\n    /* \"weusd/manageusd.sol\":2471:2488  _crossChainMinter */\n  dup5\n    /* \"weusd/manageusd.sol\":2435:2445  _grantRole */\n  tag_9\n    /* \"weusd/manageusd.sol\":2435:2489  _grantRole(CROSS_CHAIN_MINTER_ROLE, _crossChainMinter) */\n  jump\t// in\ntag_11:\n  pop\n    /* \"weusd/manageusd.sol\":2500:2542  _grantRole(PAUSER_ROLE, _crossChainMinter) */\n  tag_12\n    /* \"weusd/manageusd.sol\":735:759  keccak256(\"PAUSER_ROLE\") */\n  0x65d7a28e3265b37a6474929f336521b332c1681b933f6cb9f3376673440d862a\n    /* \"weusd/manageusd.sol\":2524:2541  _crossChainMinter */\n  dup5\n    /* \"weusd/manageusd.sol\":2500:2510  _grantRole */\n  tag_9\n    /* \"weusd/manageusd.sol\":2500:2542  _grantRole(PAUSER_ROLE, _crossChainMinter) */\n  jump\t// in\ntag_12:\n  pop\n  sub(shl(0xa0, 0x01), 0x01)\n    /* \"weusd/manageusd.sol\":2553:2587  registeredStablecoins[_stablecoin] */\n  swap4\n  dup5\n  and\n  0x00\n  swap1\n  dup2\n  mstore\n    /* \"weusd/manageusd.sol\":2553:2574  registeredStablecoins */\n  0x08\n    /* \"weusd/manageusd.sol\":2553:2587  registeredStablecoins[_stablecoin] */\n  0x20\n  mstore\n  0x40\n  swap1\n  keccak256\n    /* \"weusd/manageusd.sol\":2553:2594  registeredStablecoins[_stablecoin] = true */\n  dup1\n  sload\n  not(0xff)\n  and\n    /* \"weusd/manageusd.sol\":2590:2594  true */\n  0x01\n    /* \"weusd/manageusd.sol\":2553:2594  registeredStablecoins[_stablecoin] = true */\n  or\n  swap1\n  sstore\n    /* \"weusd/manageusd.sol\":2605:2617  feeRecipient */\n  0x05\n    /* \"weusd/manageusd.sol\":2605:2633  feeRecipient = _feeRecipient */\n  dup1\n  sload\n  swap2\n  swap1\n  swap5\n  and\n  not(sub(shl(0xa0, 0x01), 0x01))\n  swap1\n  swap2\n  and\n  or\n  swap1\n  swap3\n  sstore\n  pop\n    /* \"weusd/manageusd.sol\":534:17479  contract weUSD_manager is AccessControl, Pausable{... */\n  tag_24\n  swap2\n  pop\n  pop\n  jump\n    /* \"@openzeppelin/contracts/access/AccessControl.sol\":6179:6495  function _grantRole(bytes32 role, address account) internal virtual returns (bool) {... */\ntag_9:\n    /* \"@openzeppelin/contracts/access/AccessControl.sol\":6256:6260  bool */\n  0x00\n    /* \"@openzeppelin/contracts/access/AccessControl.sol\":2954:2966  _roles[role] */\n  dup3\n  dup2\n  mstore\n  0x20\n  dup2\n  dup2\n  mstore\n  0x40\n  dup1\n  dup4\n  keccak256\n  sub(shl(0xa0, 0x01), 0x01)\n    /* \"@openzeppelin/contracts/access/AccessControl.sol\":2954:2983  _roles[role].hasRole[account] */\n  dup6\n  and\n  dup5\n  mstore\n  swap1\n  swap2\n  mstore\n  dup2\n  keccak256\n  sload\n  0xff\n  and\n    /* \"@openzeppelin/contracts/access/AccessControl.sol\":6272:6489  if (!hasRole(role, account)) {... */\n  tag_17\n  jumpi\n    /* \"@openzeppelin/contracts/access/AccessControl.sol\":6315:6321  _roles */\n  0x00\n    /* \"@openzeppelin/contracts/access/AccessControl.sol\":6315:6327  _roles[role] */\n  dup4\n  dup2\n  mstore\n  0x20\n  dup2\n  dup2\n  mstore\n  0x40\n  dup1\n  dup4\n  keccak256\n  sub(shl(0xa0, 0x01), 0x01)\n    /* \"@openzeppelin/contracts/access/AccessControl.sol\":6315:6344  _roles[role].hasRole[account] */\n  dup7\n  and\n  dup5\n  mstore\n  swap1\n  swap2\n  mstore\n  swap1\n  keccak256\n    /* \"@openzeppelin/contracts/access/AccessControl.sol\":6315:6351  _roles[role].hasRole[account] = true */\n  dup1\n  sload\n  not(0xff)\n  and\n    /* \"@openzeppelin/contracts/access/AccessControl.sol\":6347:6351  true */\n  0x01\n    /* \"@openzeppelin/contracts/access/AccessControl.sol\":6315:6351  _roles[role].hasRole[account] = true */\n  or\n  swap1\n  sstore\n    /* \"@openzeppelin/contracts/access/AccessControl.sol\":6397:6409  _msgSender() */\n  tag_18\n    /* \"@openzeppelin/contracts/utils/Context.sol\":735:745  msg.sender */\n  caller\n  swap1\n    /* \"@openzeppelin/contracts/utils/Context.sol\":656:752  function _msgSender() internal view virtual returns (address) {... */\n  jump\n    /* \"@openzeppelin/contracts/access/AccessControl.sol\":6397:6409  _msgSender() */\ntag_18:\n  sub(shl(0xa0, 0x01), 0x01)\n    /* \"@openzeppelin/contracts/access/AccessControl.sol\":6370:6410  RoleGranted(role, account, _msgSender()) */\n  and\n    /* \"@openzeppelin/contracts/access/AccessControl.sol\":6388:6395  account */\n  dup3\n  sub(shl(0xa0, 0x01), 0x01)\n    /* \"@openzeppelin/contracts/access/AccessControl.sol\":6370:6410  RoleGranted(role, account, _msgSender()) */\n  and\n    /* \"@openzeppelin/contracts/access/AccessControl.sol\":6382:6386  role */\n  dup5\n    /* \"@openzeppelin/contracts/access/AccessControl.sol\":6370:6410  RoleGranted(role, account, _msgSender()) */\n  0x2f8788117e7eff1d82e926ec794901d17c78024a50270940304540a733656f0d\n  mload(0x40)\n  mload(0x40)\n  dup1\n  swap2\n  sub\n  swap1\n  log4\n  pop\n    /* \"@openzeppelin/contracts/access/AccessControl.sol\":6431:6435  true */\n  0x01\n    /* \"@openzeppelin/contracts/access/AccessControl.sol\":6424:6435  return true */\n  jump(tag_20)\n    /* \"@openzeppelin/contracts/access/AccessControl.sol\":6272:6489  if (!hasRole(role, account)) {... */\ntag_17:\n  pop\n    /* \"@openzeppelin/contracts/access/AccessControl.sol\":6473:6478  false */\n  0x00\n    /* \"@openzeppelin/contracts/access/AccessControl.sol\":6272:6489  if (!hasRole(role, account)) {... */\ntag_20:\n    /* \"@openzeppelin/contracts/access/AccessControl.sol\":6179:6495  function _grantRole(bytes32 role, address account) internal virtual returns (bool) {... */\n  swap3\n  swap2\n  pop\n  pop\n  jump\t// out\n    /* \"#utility.yul\":14:191   */\ntag_23:\n    /* \"#utility.yul\":93:106   */\n  dup1\n  mload\n  sub(shl(0xa0, 0x01), 0x01)\n    /* \"#utility.yul\":135:166   */\n  dup2\n  and\n    /* \"#utility.yul\":125:167   */\n  dup2\n  eq\n    /* \"#utility.yul\":115:185   */\n  tag_26\n  jumpi\n    /* \"#utility.yul\":181:182   */\n  0x00\n    /* \"#utility.yul\":178:179   */\n  dup1\n    /* \"#utility.yul\":171:183   */\n  revert\n    /* \"#utility.yul\":115:185   */\ntag_26:\n    /* \"#utility.yul\":14:191   */\n  swap2\n  swap1\n  pop\n  jump\t// out\n    /* \"#utility.yul\":196:746   */\ntag_3:\n    /* \"#utility.yul\":302:308   */\n  0x00\n    /* \"#utility.yul\":310:316   */\n  dup1\n    /* \"#utility.yul\":318:324   */\n  0x00\n    /* \"#utility.yul\":326:332   */\n  dup1\n    /* \"#utility.yul\":334:340   */\n  0x00\n    /* \"#utility.yul\":387:390   */\n  0xa0\n    /* \"#utility.yul\":375:384   */\n  dup7\n    /* \"#utility.yul\":366:373   */\n  dup9\n    /* \"#utility.yul\":362:385   */\n  sub\n    /* \"#utility.yul\":358:391   */\n  slt\n    /* \"#utility.yul\":355:408   */\n  iszero\n  tag_28\n  jumpi\n    /* \"#utility.yul\":404:405   */\n  0x00\n    /* \"#utility.yul\":401:402   */\n  dup1\n    /* \"#utility.yul\":394:406   */\n  revert\n    /* \"#utility.yul\":355:408   */\ntag_28:\n    /* \"#utility.yul\":427:467   */\n  tag_29\n    /* \"#utility.yul\":457:466   */\n  dup7\n    /* \"#utility.yul\":427:467   */\n  tag_23\n  jump\t// in\ntag_29:\n    /* \"#utility.yul\":417:467   */\n  swap5\n  pop\n    /* \"#utility.yul\":486:535   */\n  tag_30\n    /* \"#utility.yul\":531:533   */\n  0x20\n    /* \"#utility.yul\":520:529   */\n  dup8\n    /* \"#utility.yul\":516:534   */\n  add\n    /* \"#utility.yul\":486:535   */\n  tag_23\n  jump\t// in\ntag_30:\n    /* \"#utility.yul\":476:535   */\n  swap4\n  pop\n    /* \"#utility.yul\":554:603   */\n  tag_31\n    /* \"#utility.yul\":599:601   */\n  0x40\n    /* \"#utility.yul\":588:597   */\n  dup8\n    /* \"#utility.yul\":584:602   */\n  add\n    /* \"#utility.yul\":554:603   */\n  tag_23\n  jump\t// in\ntag_31:\n    /* \"#utility.yul\":544:603   */\n  swap3\n  pop\n    /* \"#utility.yul\":622:671   */\n  tag_32\n    /* \"#utility.yul\":667:669   */\n  0x60\n    /* \"#utility.yul\":656:665   */\n  dup8\n    /* \"#utility.yul\":652:670   */\n  add\n    /* \"#utility.yul\":622:671   */\n  tag_23\n  jump\t// in\ntag_32:\n    /* \"#utility.yul\":612:671   */\n  swap2\n  pop\n    /* \"#utility.yul\":690:740   */\n  tag_33\n    /* \"#utility.yul\":735:738   */\n  0x80\n    /* \"#utility.yul\":724:733   */\n  dup8\n    /* \"#utility.yul\":720:739   */\n  add\n    /* \"#utility.yul\":690:740   */\n  tag_23\n  jump\t// in\ntag_33:\n    /* \"#utility.yul\":680:740   */\n  swap1\n  pop\n    /* \"#utility.yul\":196:746   */\n  swap3\n  swap6\n  pop\n  swap3\n  swap6\n  swap1\n  swap4\n  pop\n  jump\t// out\ntag_24:\n    /* \"weusd/manageusd.sol\":534:17479  contract weUSD_manager is AccessControl, Pausable{... */\n  dataSize(sub_0)\n  dup1\n  dataOffset(sub_0)\n  0x00\n  codecopy\n  0x00\n  return\nstop\n\nsub_0: assembly {\n        /* \"weusd/manageusd.sol\":534:17479  contract weUSD_manager is AccessControl, Pausable{... */\n      mstore(0x40, 0x80)\n      callvalue\n      dup1\n      iszero\n      tag_1\n      jumpi\n      0x00\n      dup1\n      revert\n    tag_1:\n      pop\n      jumpi(tag_2, lt(calldatasize, 0x04))\n      shr(0xe0, calldataload(0x00))\n      dup1\n      0x854935f1\n      gt\n      tag_41\n      jumpi\n      dup1\n      0xc5494ffb\n      gt\n      tag_42\n      jumpi\n      dup1\n      0xd547741f\n      gt\n      tag_43\n      jumpi\n      dup1\n      0xd547741f\n      eq\n      tag_36\n      jumpi\n      dup1\n      0xe63ab1e9\n      eq\n      tag_37\n      jumpi\n      dup1\n      0xe74b981b\n      eq\n      tag_38\n      jumpi\n      dup1\n      0xea277eca\n      eq\n      tag_39\n      jumpi\n      dup1\n      0xeda87eff\n      eq\n      tag_40\n      jumpi\n      0x00\n      dup1\n      revert\n    tag_43:\n      dup1\n      0xc5494ffb\n      eq\n      tag_31\n      jumpi\n      dup1\n      0xc6400657\n      eq\n      tag_32\n      jumpi\n      dup1\n      0xc99773ce\n      eq\n      tag_33\n      jumpi\n      dup1\n      0xd19fad37\n      eq\n      tag_34\n      jumpi\n      dup1\n      0xd270e7ab\n      eq\n      tag_35\n      jumpi\n      0x00\n      dup1\n      revert\n    tag_42:\n      dup1\n      0xa217fddf\n      gt\n      tag_44\n      jumpi\n      dup1\n      0xa217fddf\n      eq\n      tag_26\n      jumpi\n      dup1\n      0xa2519ae4\n      eq\n      tag_27\n      jumpi\n      dup1\n      0xa62e1b3e\n      eq\n      tag_28\n      jumpi\n      dup1\n      0xbb93ede0\n      eq\n      tag_29\n      jumpi\n      dup1\n      0xbead8d26\n      eq\n      tag_30\n      jumpi\n      0x00\n      dup1\n      revert\n    tag_44:\n      dup1\n      0x854935f1\n      eq\n      tag_22\n      jumpi\n      dup1\n      0x91d14854\n      eq\n      tag_23\n      jumpi\n      dup1\n      0x973697bd\n      eq\n      tag_24\n      jumpi\n      dup1\n      0x9ea4f3a4\n      eq\n      tag_25\n      jumpi\n      0x00\n      dup1\n      revert\n    tag_41:\n      dup1\n      0x2f92893c\n      gt\n      tag_45\n      jumpi\n      dup1\n      0x46904840\n      gt\n      tag_46\n      jumpi\n      dup1\n      0x46904840\n      eq\n      tag_17\n      jumpi\n      dup1\n      0x5badbe4c\n      eq\n      tag_18\n      jumpi\n      dup1\n      0x5c975abb\n      eq\n      tag_19\n      jumpi\n      dup1\n      0x75b238fc\n      eq\n      tag_20\n      jumpi\n      dup1\n      0x8456cb59\n      eq\n      tag_21\n      jumpi\n      0x00\n      dup1\n      revert\n    tag_46:\n      dup1\n      0x2f92893c\n      eq\n      tag_12\n      jumpi\n      dup1\n      0x34d8c7d5\n      eq\n      tag_13\n      jumpi\n      dup1\n      0x36568abe\n      eq\n      tag_14\n      jumpi\n      dup1\n      0x37174202\n      eq\n      tag_15\n      jumpi\n      dup1\n      0x3f4ba83a\n      eq\n      tag_16\n      jumpi\n      0x00\n      dup1\n      revert\n    tag_45:\n      dup1\n      0x1e7502d7\n      gt\n      tag_47\n      jumpi\n      dup1\n      0x1e7502d7\n      eq\n      tag_7\n      jumpi\n      dup1\n      0x1f224564\n      eq\n      tag_8\n      jumpi\n      dup1\n      0x248a9ca3\n      eq\n      tag_9\n      jumpi\n      dup1\n      0x26757b73\n      eq\n      tag_10\n      jumpi\n      dup1\n      0x2f2ff15d\n      eq\n      tag_11\n      jumpi\n      0x00\n      dup1\n      revert\n    tag_47:\n      dup1\n      0x677016\n      eq\n      tag_3\n      jumpi\n      dup1\n      0x01ffc9a7\n      eq\n      tag_4\n      jumpi\n      dup1\n      0x0bd31a57\n      eq\n      tag_5\n      jumpi\n      dup1\n      0x1008776f\n      eq\n      tag_6\n      jumpi\n    tag_2:\n      0x00\n      dup1\n      revert\n        /* \"weusd/manageusd.sol\":969:1004  uint256 public gasfee = 5*10**(6-1) */\n    tag_3:\n      tag_48\n      sload(0x04)\n      dup2\n      jump\n    tag_48:\n      mload(0x40)\n        /* \"#utility.yul\":160:185   */\n      swap1\n      dup2\n      mstore\n        /* \"#utility.yul\":148:150   */\n      0x20\n        /* \"#utility.yul\":133:151   */\n      add\n        /* \"weusd/manageusd.sol\":969:1004  uint256 public gasfee = 5*10**(6-1) */\n    tag_50:\n      mload(0x40)\n      dup1\n      swap2\n      sub\n      swap1\n      return\n        /* \"@openzeppelin/contracts/access/AccessControl.sol\":2565:2767  function supportsInterface(bytes4 interfaceId) public view virtual override returns (bool) {... */\n    tag_4:\n      tag_52\n      tag_53\n      calldatasize\n      0x04\n      tag_54\n      jump\t// in\n    tag_53:\n      tag_55\n      jump\t// in\n    tag_52:\n      mload(0x40)\n        /* \"#utility.yul\":652:666   */\n      swap1\n      iszero\n        /* \"#utility.yul\":645:667   */\n      iszero\n        /* \"#utility.yul\":627:668   */\n      dup2\n      mstore\n        /* \"#utility.yul\":615:617   */\n      0x20\n        /* \"#utility.yul\":600:618   */\n      add\n        /* \"@openzeppelin/contracts/access/AccessControl.sol\":2565:2767  function supportsInterface(bytes4 interfaceId) public view virtual override returns (bool) {... */\n      tag_50\n        /* \"#utility.yul\":487:674   */\n      jump\n        /* \"weusd/manageusd.sol\":7622:8566  function burnWeUSDCrossChain(uint256 targetChainId, uint256 amount, address targetUser) external whenNotPaused {... */\n    tag_5:\n      tag_58\n      tag_59\n      calldatasize\n      0x04\n      tag_60\n      jump\t// in\n    tag_59:\n      tag_61\n      jump\t// in\n    tag_58:\n      stop\n        /* \"weusd/manageusd.sol\":4459:4640  function deleteStablecoin(address stablecoin) external onlyRole(ADMIN_ROLE) {... */\n    tag_6:\n      tag_58\n      tag_63\n      calldatasize\n      0x04\n      tag_64\n      jump\t// in\n    tag_63:\n      tag_65\n      jump\t// in\n        /* \"weusd/manageusd.sol\":10114:10236  function isRequestIdUsed(uint256 requestId) public view returns (bool) {... */\n    tag_7:\n      tag_52\n      tag_67\n      calldatasize\n      0x04\n      tag_68\n      jump\t// in\n    tag_67:\n        /* \"weusd/manageusd.sol\":10179:10183  bool */\n      0x00\n        /* \"weusd/manageusd.sol\":10203:10228  usedRequestIds[requestId] */\n      swap1\n      dup2\n      mstore\n        /* \"weusd/manageusd.sol\":10203:10217  usedRequestIds */\n      0x09\n        /* \"weusd/manageusd.sol\":10203:10228  usedRequestIds[requestId] */\n      0x20\n      mstore\n      0x40\n      swap1\n      keccak256\n      sload\n      0xff\n      and\n      swap1\n        /* \"weusd/manageusd.sol\":10114:10236  function isRequestIdUsed(uint256 requestId) public view returns (bool) {... */\n      jump\n        /* \"weusd/manageusd.sol\":9413:10106  function mintWeUSDCrossChain(uint256 requestId, uint256 sourceChainId, uint256 amount, address targetUser) external onlyRole(CROSS_CHAIN_MINTER_ROLE) whenNotPaused {... */\n    tag_8:\n      tag_58\n      tag_72\n      calldatasize\n      0x04\n      tag_73\n      jump\t// in\n    tag_72:\n      tag_74\n      jump\t// in\n        /* \"@openzeppelin/contracts/access/AccessControl.sol\":3810:3930  function getRoleAdmin(bytes32 role) public view virtual returns (bytes32) {... */\n    tag_9:\n      tag_48\n      tag_76\n      calldatasize\n      0x04\n      tag_68\n      jump\t// in\n    tag_76:\n        /* \"@openzeppelin/contracts/access/AccessControl.sol\":3875:3882  bytes32 */\n      0x00\n        /* \"@openzeppelin/contracts/access/AccessControl.sol\":3901:3913  _roles[role] */\n      swap1\n      dup2\n      mstore\n      0x20\n      dup2\n      swap1\n      mstore\n      0x40\n      swap1\n      keccak256\n        /* \"@openzeppelin/contracts/access/AccessControl.sol\":3901:3923  _roles[role].adminRole */\n      0x01\n      add\n      sload\n      swap1\n        /* \"@openzeppelin/contracts/access/AccessControl.sol\":3810:3930  function getRoleAdmin(bytes32 role) public view virtual returns (bytes32) {... */\n      jump\n        /* \"weusd/manageusd.sol\":10607:10738  function getRequestById(uint256 _requestId) public view returns (RequestData memory) {... */\n    tag_10:\n      tag_81\n      tag_82\n      calldatasize\n      0x04\n      tag_68\n      jump\t// in\n    tag_82:\n      0x40\n      dup1\n      mload\n      0x80\n      dup1\n      dup3\n      add\n      dup4\n      mstore\n      0x00\n      dup1\n      dup4\n      mstore\n      0x20\n      dup1\n      dup5\n      add\n      dup3\n      swap1\n      mstore\n      dup4\n      dup6\n      add\n      dup3\n      swap1\n      mstore\n      0x60\n      swap4\n      dup5\n      add\n      dup3\n      swap1\n      mstore\n        /* \"weusd/manageusd.sol\":10710:10730  requests[_requestId] */\n      swap5\n      dup2\n      mstore\n        /* \"weusd/manageusd.sol\":10710:10718  requests */\n      0x0a\n        /* \"weusd/manageusd.sol\":10710:10730  requests[_requestId] */\n      dup6\n      mstore\n      dup4\n      swap1\n      keccak256\n        /* \"weusd/manageusd.sol\":10703:10730  return requests[_requestId] */\n      dup4\n      mload\n      swap2\n      dup3\n      add\n      dup5\n      mstore\n      dup1\n      sload\n      dup3\n      mstore\n      0x01\n      dup2\n      add\n      sload\n      sub(shl(0xa0, 0x01), 0x01)\n      and\n      swap5\n      dup3\n      add\n      swap5\n      swap1\n      swap5\n      mstore\n      0x02\n      dup5\n      add\n      sload\n      swap3\n      dup2\n      add\n      swap3\n      swap1\n      swap3\n      mstore\n      0x03\n      swap1\n      swap3\n      add\n      sload\n      0xff\n      and\n      iszero\n      iszero\n      swap2\n      dup2\n      add\n      swap2\n      swap1\n      swap2\n      mstore\n      swap1\n        /* \"weusd/manageusd.sol\":10607:10738  function getRequestById(uint256 _requestId) public view returns (RequestData memory) {... */\n      jump\n    tag_81:\n      mload(0x40)\n      tag_50\n      swap2\n      swap1\n        /* \"#utility.yul\":2886:2899   */\n      dup2\n      mload\n        /* \"#utility.yul\":2868:2900   */\n      dup2\n      mstore\n        /* \"#utility.yul\":2960:2964   */\n      0x20\n        /* \"#utility.yul\":2948:2965   */\n      dup1\n      dup4\n      add\n        /* \"#utility.yul\":2942:2966   */\n      mload\n      sub(shl(0xa0, 0x01), 0x01)\n        /* \"#utility.yul\":2938:2988   */\n      and\n        /* \"#utility.yul\":2916:2936   */\n      swap1\n      dup3\n      add\n        /* \"#utility.yul\":2909:2989   */\n      mstore\n        /* \"#utility.yul\":3045:3049   */\n      0x40\n        /* \"#utility.yul\":3033:3050   */\n      dup1\n      dup4\n      add\n        /* \"#utility.yul\":3027:3051   */\n      mload\n        /* \"#utility.yul\":3005:3025   */\n      swap1\n      dup3\n      add\n        /* \"#utility.yul\":2998:3052   */\n      mstore\n        /* \"#utility.yul\":3122:3126   */\n      0x60\n        /* \"#utility.yul\":3110:3127   */\n      swap2\n      dup3\n      add\n        /* \"#utility.yul\":3104:3128   */\n      mload\n        /* \"#utility.yul\":3097:3129   */\n      iszero\n        /* \"#utility.yul\":3090:3130   */\n      iszero\n        /* \"#utility.yul\":3068:3088   */\n      swap2\n      dup2\n      add\n        /* \"#utility.yul\":3061:3131   */\n      swap2\n      swap1\n      swap2\n      mstore\n        /* \"#utility.yul\":2855:2858   */\n      0x80\n        /* \"#utility.yul\":2840:2859   */\n      add\n      swap1\n        /* \"#utility.yul\":2663:3137   */\n      jump\n        /* \"@openzeppelin/contracts/access/AccessControl.sol\":4226:4362  function grantRole(bytes32 role, address account) public virtual onlyRole(getRoleAdmin(role)) {... */\n    tag_11:\n      tag_58\n      tag_87\n      calldatasize\n      0x04\n      tag_88\n      jump\t// in\n    tag_87:\n      tag_89\n      jump\t// in\n        /* \"weusd/manageusd.sol\":1197:1243  mapping(uint256 => bool) public usedRequestIds */\n    tag_12:\n      tag_52\n      tag_91\n      calldatasize\n      0x04\n      tag_68\n      jump\t// in\n    tag_91:\n      mstore(0x20, 0x09)\n      0x00\n      swap1\n      dup2\n      mstore\n      0x40\n      swap1\n      keccak256\n      sload\n      0xff\n      and\n      dup2\n      jump\n        /* \"weusd/manageusd.sol\":1091:1128  uint256[] public activeTargetRequests */\n    tag_13:\n      tag_48\n      tag_95\n      calldatasize\n      0x04\n      tag_68\n      jump\t// in\n    tag_95:\n      tag_96\n      jump\t// in\n        /* \"@openzeppelin/contracts/access/AccessControl.sol\":5328:5573  function renounceRole(bytes32 role, address callerConfirmation) public virtual {... */\n    tag_14:\n      tag_58\n      tag_99\n      calldatasize\n      0x04\n      tag_88\n      jump\t// in\n    tag_99:\n      tag_100\n      jump\t// in\n        /* \"weusd/manageusd.sol\":766:852  bytes32 public constant CROSS_CHAIN_MINTER_ROLE = keccak256(\"CROSS_CHAIN_MINTER_ROLE\") */\n    tag_15:\n      tag_48\n        /* \"weusd/manageusd.sol\":816:852  keccak256(\"CROSS_CHAIN_MINTER_ROLE\") */\n      0x41de7ae3becaf069074d499ebcbd36df88385ba1e2946870f7e4674aecd43704\n        /* \"weusd/manageusd.sol\":766:852  bytes32 public constant CROSS_CHAIN_MINTER_ROLE = keccak256(\"CROSS_CHAIN_MINTER_ROLE\") */\n      dup2\n      jump\n        /* \"weusd/manageusd.sol\":2730:2807  function unpause() public onlyRole(PAUSER_ROLE) {... */\n    tag_16:\n      tag_58\n      tag_105\n      jump\t// in\n        /* \"weusd/manageusd.sol\":1011:1038  address public feeRecipient */\n    tag_17:\n      sload(0x05)\n      tag_106\n      swap1\n      sub(shl(0xa0, 0x01), 0x01)\n      and\n      dup2\n      jump\n    tag_106:\n      mload(0x40)\n      sub(shl(0xa0, 0x01), 0x01)\n        /* \"#utility.yul\":3611:3643   */\n      swap1\n      swap2\n      and\n        /* \"#utility.yul\":3593:3644   */\n      dup2\n      mstore\n        /* \"#utility.yul\":3581:3583   */\n      0x20\n        /* \"#utility.yul\":3566:3584   */\n      add\n        /* \"weusd/manageusd.sol\":1011:1038  address public feeRecipient */\n      tag_50\n        /* \"#utility.yul\":3447:3650   */\n      jump\n        /* \"weusd/manageusd.sol\":888:915  uint256 public requestCount */\n    tag_18:\n      tag_48\n      sload(0x03)\n      dup2\n      jump\n        /* \"@openzeppelin/contracts/utils/Pausable.sol\":1850:1934  function paused() public view virtual returns (bool) {... */\n    tag_19:\n        /* \"@openzeppelin/contracts/utils/Pausable.sol\":1920:1927  _paused */\n      and(0xff, sload(0x01))\n        /* \"@openzeppelin/contracts/utils/Pausable.sol\":1850:1934  function paused() public view virtual returns (bool) {... */\n      jump(tag_52)\n        /* \"weusd/manageusd.sol\":630:690  bytes32 public constant ADMIN_ROLE = keccak256(\"ADMIN_ROLE\") */\n    tag_20:\n      tag_48\n      0x00\n      dup1\n      mload\n      0x20\n      data_cb864c43dd5d441bb6271f424f11befa622c032dfd374d226e26fbbdb782b8f8\n      dup4\n      codecopy\n      dup2\n      mload\n      swap2\n      mstore\n      dup2\n      jump\n        /* \"weusd/manageusd.sol\":2649:2722  function pause() public onlyRole(PAUSER_ROLE) {... */\n    tag_21:\n      tag_58\n      tag_120\n      jump\t// in\n        /* \"weusd/manageusd.sol\":1047:1084  uint256[] public activeSourceRequests */\n    tag_22:\n      tag_48\n      tag_122\n      calldatasize\n      0x04\n      tag_68\n      jump\t// in\n    tag_122:\n      tag_123\n      jump\t// in\n        /* \"@openzeppelin/contracts/access/AccessControl.sol\":2854:2990  function hasRole(bytes32 role, address account) public view virtual returns (bool) {... */\n    tag_23:\n      tag_52\n      tag_126\n      calldatasize\n      0x04\n      tag_88\n      jump\t// in\n    tag_126:\n      tag_127\n      jump\t// in\n        /* \"weusd/manageusd.sol\":11784:13279  function getUserSourceRequests(address _user, uint256 _page, uint256 _pageSize) public view returns (uint256[] memory, uint256) {... */\n    tag_24:\n      tag_129\n      tag_130\n      calldatasize\n      0x04\n      tag_131\n      jump\t// in\n    tag_130:\n      tag_132\n      jump\t// in\n    tag_129:\n      mload(0x40)\n      tag_50\n      swap3\n      swap2\n      swap1\n      tag_134\n      jump\t// in\n        /* \"weusd/manageusd.sol\":1137:1190  mapping(address => bool) public registeredStablecoins */\n    tag_25:\n      tag_52\n      tag_136\n      calldatasize\n      0x04\n      tag_64\n      jump\t// in\n    tag_136:\n      mstore(0x20, 0x08)\n      0x00\n      swap1\n      dup2\n      mstore\n      0x40\n      swap1\n      keccak256\n      sload\n      0xff\n      and\n      dup2\n      jump\n        /* \"@openzeppelin/contracts/access/AccessControl.sol\":2187:2236  bytes32 public constant DEFAULT_ADMIN_ROLE = 0x00 */\n    tag_26:\n      tag_48\n        /* \"@openzeppelin/contracts/access/AccessControl.sol\":2232:2236  0x00 */\n      0x00\n        /* \"@openzeppelin/contracts/access/AccessControl.sol\":2187:2236  bytes32 public constant DEFAULT_ADMIN_ROLE = 0x00 */\n      dup2\n      jump\n        /* \"weusd/manageusd.sol\":5163:5799  function mintWeUSD(address stablecoin, uint256 stablecoinAmount) external {... */\n    tag_27:\n      tag_58\n      tag_143\n      calldatasize\n      0x04\n      tag_144\n      jump\t// in\n    tag_143:\n      tag_145\n      jump\t// in\n        /* \"weusd/manageusd.sol\":859:881  IPicweUSD public weUSD */\n    tag_28:\n      sload(0x02)\n      tag_106\n      swap1\n      sub(shl(0xa0, 0x01), 0x01)\n      and\n      dup2\n      jump\n        /* \"weusd/manageusd.sol\":13903:15398  function getUserTargetRequests(address _user, uint256 _page, uint256 _pageSize) public view returns (uint256[] memory, uint256) {... */\n    tag_29:\n      tag_129\n      tag_151\n      calldatasize\n      0x04\n      tag_131\n      jump\t// in\n    tag_151:\n      tag_152\n      jump\t// in\n        /* \"weusd/manageusd.sol\":1377:1440  mapping(uint256 => uint256) public requestIdToTargetActiveIndex */\n    tag_30:\n      tag_48\n      tag_155\n      calldatasize\n      0x04\n      tag_68\n      jump\t// in\n    tag_155:\n      mstore(0x20, 0x0c)\n      0x00\n      swap1\n      dup2\n      mstore\n      0x40\n      swap1\n      keccak256\n      sload\n      dup2\n      jump\n        /* \"weusd/manageusd.sol\":3086:3187  function setGasfee(uint256 _gasfee) external onlyRole(ADMIN_ROLE) {... */\n    tag_31:\n      tag_58\n      tag_159\n      calldatasize\n      0x04\n      tag_68\n      jump\t// in\n    tag_159:\n      tag_160\n      jump\t// in\n        /* \"weusd/manageusd.sol\":3954:4139  function registerStablecoin(address stablecoin) external onlyRole(ADMIN_ROLE) {... */\n    tag_32:\n      tag_58\n      tag_162\n      calldatasize\n      0x04\n      tag_64\n      jump\t// in\n    tag_162:\n      tag_163\n      jump\t// in\n        /* \"weusd/manageusd.sol\":1307:1370  mapping(uint256 => uint256) public requestIdToSourceActiveIndex */\n    tag_33:\n      tag_48\n      tag_165\n      calldatasize\n      0x04\n      tag_68\n      jump\t// in\n    tag_165:\n      mstore(0x20, 0x0b)\n      0x00\n      swap1\n      dup2\n      mstore\n      0x40\n      swap1\n      keccak256\n      sload\n      dup2\n      jump\n        /* \"weusd/manageusd.sol\":6314:6905  function burnWeUSD(address stablecoin, uint256 weUSDAmount) external {... */\n    tag_34:\n      tag_58\n      tag_169\n      calldatasize\n      0x04\n      tag_144\n      jump\t// in\n    tag_169:\n      tag_170\n      jump\t// in\n        /* \"weusd/manageusd.sol\":590:623  IMainContract public mainContract */\n    tag_35:\n      sload(0x01)\n      tag_106\n      swap1\n      0x0100\n      swap1\n      div\n      sub(shl(0xa0, 0x01), 0x01)\n      and\n      dup2\n      jump\n        /* \"@openzeppelin/contracts/access/AccessControl.sol\":4642:4780  function revokeRole(bytes32 role, address account) public virtual onlyRole(getRoleAdmin(role)) {... */\n    tag_36:\n      tag_58\n      tag_176\n      calldatasize\n      0x04\n      tag_88\n      jump\t// in\n    tag_176:\n      tag_177\n      jump\t// in\n        /* \"weusd/manageusd.sol\":697:759  bytes32 public constant PAUSER_ROLE = keccak256(\"PAUSER_ROLE\") */\n    tag_37:\n      tag_48\n        /* \"weusd/manageusd.sol\":735:759  keccak256(\"PAUSER_ROLE\") */\n      0x65d7a28e3265b37a6474929f336521b332c1681b933f6cb9f3376673440d862a\n        /* \"weusd/manageusd.sol\":697:759  bytes32 public constant PAUSER_ROLE = keccak256(\"PAUSER_ROLE\") */\n      dup2\n      jump\n        /* \"weusd/manageusd.sol\":3497:3622  function setFeeRecipient(address _feeRecipient) external onlyRole(ADMIN_ROLE) {... */\n    tag_38:\n      tag_58\n      tag_182\n      calldatasize\n      0x04\n      tag_64\n      jump\t// in\n    tag_182:\n      tag_183\n      jump\t// in\n        /* \"weusd/manageusd.sol\":11017:11148  function requestExists(uint256 _requestId) public view returns (bool) {... */\n    tag_39:\n      tag_52\n      tag_185\n      calldatasize\n      0x04\n      tag_68\n      jump\t// in\n    tag_185:\n        /* \"weusd/manageusd.sol\":11081:11085  bool */\n      0x00\n        /* \"weusd/manageusd.sol\":11105:11125  requests[_requestId] */\n      swap1\n      dup2\n      mstore\n        /* \"weusd/manageusd.sol\":11105:11113  requests */\n      0x0a\n        /* \"weusd/manageusd.sol\":11105:11125  requests[_requestId] */\n      0x20\n      mstore\n      0x40\n      swap1\n      keccak256\n        /* \"weusd/manageusd.sol\":11105:11135  requests[_requestId].requestId */\n      sload\n        /* \"weusd/manageusd.sol\":11105:11140  requests[_requestId].requestId != 0 */\n      iszero\n      iszero\n      swap1\n        /* \"weusd/manageusd.sol\":11017:11148  function requestExists(uint256 _requestId) public view returns (bool) {... */\n      jump\n        /* \"weusd/manageusd.sol\":922:962  uint8 public constant WEUSD_DECIMALS = 6 */\n    tag_40:\n      tag_188\n        /* \"weusd/manageusd.sol\":961:962  6 */\n      0x06\n        /* \"weusd/manageusd.sol\":922:962  uint8 public constant WEUSD_DECIMALS = 6 */\n      dup2\n      jump\n    tag_188:\n      mload(0x40)\n        /* \"#utility.yul\":5708:5712   */\n      0xff\n        /* \"#utility.yul\":5696:5713   */\n      swap1\n      swap2\n      and\n        /* \"#utility.yul\":5678:5714   */\n      dup2\n      mstore\n        /* \"#utility.yul\":5666:5668   */\n      0x20\n        /* \"#utility.yul\":5651:5669   */\n      add\n        /* \"weusd/manageusd.sol\":922:962  uint8 public constant WEUSD_DECIMALS = 6 */\n      tag_50\n        /* \"#utility.yul\":5536:5720   */\n      jump\n        /* \"@openzeppelin/contracts/access/AccessControl.sol\":2565:2767  function supportsInterface(bytes4 interfaceId) public view virtual override returns (bool) {... */\n    tag_55:\n        /* \"@openzeppelin/contracts/access/AccessControl.sol\":2650:2654  bool */\n      0x00\n      not(sub(shl(0xe0, 0x01), 0x01))\n        /* \"@openzeppelin/contracts/access/AccessControl.sol\":2673:2720  interfaceId == type(IAccessControl).interfaceId */\n      dup3\n      and\n      shl(0xe0, 0x7965db0b)\n      eq\n      dup1\n        /* \"@openzeppelin/contracts/access/AccessControl.sol\":2673:2760  interfaceId == type(IAccessControl).interfaceId || super.supportsInterface(interfaceId) */\n      tag_194\n      jumpi\n      pop\n      shl(0xe0, 0x01ffc9a7)\n      not(sub(shl(0xe0, 0x01), 0x01))\n        /* \"@openzeppelin/contracts/utils/introspection/ERC165.sol\":861:901  interfaceId == type(IERC165).interfaceId */\n      dup4\n      and\n      eq\n        /* \"@openzeppelin/contracts/access/AccessControl.sol\":2724:2760  super.supportsInterface(interfaceId) */\n    tag_194:\n        /* \"@openzeppelin/contracts/access/AccessControl.sol\":2666:2760  return interfaceId == type(IAccessControl).interfaceId || super.supportsInterface(interfaceId) */\n      swap3\n        /* \"@openzeppelin/contracts/access/AccessControl.sol\":2565:2767  function supportsInterface(bytes4 interfaceId) public view virtual override returns (bool) {... */\n      swap2\n      pop\n      pop\n      jump\t// out\n        /* \"weusd/manageusd.sol\":7622:8566  function burnWeUSDCrossChain(uint256 targetChainId, uint256 amount, address targetUser) external whenNotPaused {... */\n    tag_61:\n        /* \"@openzeppelin/contracts/utils/Pausable.sol\":1474:1493  _requireNotPaused() */\n      tag_197\n        /* \"@openzeppelin/contracts/utils/Pausable.sol\":1474:1491  _requireNotPaused */\n      tag_198\n        /* \"@openzeppelin/contracts/utils/Pausable.sol\":1474:1493  _requireNotPaused() */\n      jump\t// in\n    tag_197:\n        /* \"weusd/manageusd.sol\":7769:7782  block.chainid */\n      chainid\n        /* \"weusd/manageusd.sol\":7752:7765  targetChainId */\n      dup4\n        /* \"weusd/manageusd.sol\":7752:7782  targetChainId != block.chainid */\n      sub\n        /* \"weusd/manageusd.sol\":7744:7835  require(targetChainId != block.chainid, \"Target chain must be different from source chain\") */\n      tag_200\n      jumpi\n      mload(0x40)\n      shl(0xe5, 0x461bcd)\n      dup2\n      mstore\n        /* \"#utility.yul\":5927:5929   */\n      0x20\n        /* \"weusd/manageusd.sol\":7744:7835  require(targetChainId != block.chainid, \"Target chain must be different from source chain\") */\n      0x04\n      dup3\n      add\n        /* \"#utility.yul\":5909:5930   */\n      mstore\n        /* \"#utility.yul\":5966:5968   */\n      0x30\n        /* \"#utility.yul\":5946:5964   */\n      0x24\n      dup3\n      add\n        /* \"#utility.yul\":5939:5969   */\n      mstore\n        /* \"#utility.yul\":6005:6039   */\n      0x54617267657420636861696e206d75737420626520646966666572656e742066\n        /* \"#utility.yul\":5985:6003   */\n      0x44\n      dup3\n      add\n        /* \"#utility.yul\":5978:6040   */\n      mstore\n      shl(0x81, 0x3937b69039b7bab931b29031b430b4b7)\n        /* \"#utility.yul\":6056:6074   */\n      0x64\n      dup3\n      add\n        /* \"#utility.yul\":6049:6095   */\n      mstore\n        /* \"#utility.yul\":6112:6131   */\n      0x84\n      add\n        /* \"weusd/manageusd.sol\":7744:7835  require(targetChainId != block.chainid, \"Target chain must be different from source chain\") */\n    tag_201:\n      mload(0x40)\n      dup1\n      swap2\n      sub\n      swap1\n      revert\n    tag_200:\n        /* \"weusd/manageusd.sol\":7863:7869  gasfee */\n      sload(0x04)\n        /* \"weusd/manageusd.sol\":7854:7860  amount */\n      dup3\n        /* \"weusd/manageusd.sol\":7854:7869  amount > gasfee */\n      gt\n        /* \"weusd/manageusd.sol\":7846:7908  require(amount > gasfee, \"Amount must be greater than gasfee\") */\n      tag_203\n      jumpi\n      mload(0x40)\n      shl(0xe5, 0x461bcd)\n      dup2\n      mstore\n        /* \"#utility.yul\":6344:6346   */\n      0x20\n        /* \"weusd/manageusd.sol\":7846:7908  require(amount > gasfee, \"Amount must be greater than gasfee\") */\n      0x04\n      dup3\n      add\n        /* \"#utility.yul\":6326:6347   */\n      mstore\n        /* \"#utility.yul\":6383:6385   */\n      0x22\n        /* \"#utility.yul\":6363:6381   */\n      0x24\n      dup3\n      add\n        /* \"#utility.yul\":6356:6386   */\n      mstore\n        /* \"#utility.yul\":6422:6456   */\n      0x416d6f756e74206d7573742062652067726561746572207468616e2067617366\n        /* \"#utility.yul\":6402:6420   */\n      0x44\n      dup3\n      add\n        /* \"#utility.yul\":6395:6457   */\n      mstore\n      shl(0xf0, 0x6565)\n        /* \"#utility.yul\":6473:6491   */\n      0x64\n      dup3\n      add\n        /* \"#utility.yul\":6466:6498   */\n      mstore\n        /* \"#utility.yul\":6515:6534   */\n      0x84\n      add\n        /* \"weusd/manageusd.sol\":7846:7908  require(amount > gasfee, \"Amount must be greater than gasfee\") */\n      tag_201\n        /* \"#utility.yul\":6142:6540   */\n      jump\n        /* \"weusd/manageusd.sol\":7846:7908  require(amount > gasfee, \"Amount must be greater than gasfee\") */\n    tag_203:\n      sub(shl(0xa0, 0x01), 0x01)\n        /* \"weusd/manageusd.sol\":7927:7951  targetUser != address(0) */\n      dup2\n      and\n        /* \"weusd/manageusd.sol\":7919:7983  require(targetUser != address(0), \"Invalid target user address\") */\n      tag_206\n      jumpi\n      mload(0x40)\n      shl(0xe5, 0x461bcd)\n      dup2\n      mstore\n        /* \"#utility.yul\":6747:6749   */\n      0x20\n        /* \"weusd/manageusd.sol\":7919:7983  require(targetUser != address(0), \"Invalid target user address\") */\n      0x04\n      dup3\n      add\n        /* \"#utility.yul\":6729:6750   */\n      mstore\n        /* \"#utility.yul\":6786:6788   */\n      0x1b\n        /* \"#utility.yul\":6766:6784   */\n      0x24\n      dup3\n      add\n        /* \"#utility.yul\":6759:6789   */\n      mstore\n        /* \"#utility.yul\":6825:6854   */\n      0x496e76616c696420746172676574207573657220616464726573730000000000\n        /* \"#utility.yul\":6805:6823   */\n      0x44\n      dup3\n      add\n        /* \"#utility.yul\":6798:6855   */\n      mstore\n        /* \"#utility.yul\":6872:6890   */\n      0x64\n      add\n        /* \"weusd/manageusd.sol\":7919:7983  require(targetUser != address(0), \"Invalid target user address\") */\n      tag_201\n        /* \"#utility.yul\":6545:6896   */\n      jump\n        /* \"weusd/manageusd.sol\":7919:7983  require(targetUser != address(0), \"Invalid target user address\") */\n    tag_206:\n        /* \"weusd/manageusd.sol\":7994:8015  uint256 sourceChainId */\n      0x00\n        /* \"weusd/manageusd.sol\":8018:8031  block.chainid */\n      chainid\n        /* \"weusd/manageusd.sol\":7994:8031  uint256 sourceChainId = block.chainid */\n      swap1\n      pop\n        /* \"weusd/manageusd.sol\":8042:8059  uint256 requestId */\n      0x00\n        /* \"weusd/manageusd.sol\":8140:8152  requestCount */\n      0x03\n      0x00\n        /* \"weusd/manageusd.sol\":8138:8152  ++requestCount */\n      dup2\n      sload\n      tag_209\n      swap1\n      tag_210\n      jump\t// in\n    tag_209:\n      swap2\n      dup3\n      swap1\n      sstore\n      pop\n        /* \"weusd/manageusd.sol\":8080:8083  192 */\n      0xc0\n        /* \"weusd/manageusd.sol\":8063:8083  sourceChainId << 192 */\n      dup4\n      swap1\n      shl\n        /* \"weusd/manageusd.sol\":8105:8108  128 */\n      0x80\n        /* \"weusd/manageusd.sol\":8088:8108  targetChainId << 128 */\n      dup8\n      swap1\n      shl\n        /* \"weusd/manageusd.sol\":8062:8109  (sourceChainId << 192) | (targetChainId << 128) */\n      or\n        /* \"weusd/manageusd.sol\":8113:8128  block.timestamp */\n      timestamp\n        /* \"weusd/manageusd.sol\":8132:8134  64 */\n      0x40\n        /* \"weusd/manageusd.sol\":8113:8134  block.timestamp << 64 */\n      shl\n        /* \"weusd/manageusd.sol\":8062:8135  (sourceChainId << 192) | (targetChainId << 128) | (block.timestamp << 64) */\n      or\n        /* \"weusd/manageusd.sol\":8062:8152  (sourceChainId << 192) | (targetChainId << 128) | (block.timestamp << 64) | ++requestCount */\n      or\n      swap1\n      pop\n        /* \"weusd/manageusd.sol\":8172:8196  requestExists(requestId) */\n      tag_211\n        /* \"weusd/manageusd.sol\":8062:8152  (sourceChainId << 192) | (targetChainId << 128) | (block.timestamp << 64) | ++requestCount */\n      dup2\n        /* \"weusd/manageusd.sol\":11081:11085  bool */\n      0x00\n        /* \"weusd/manageusd.sol\":11105:11125  requests[_requestId] */\n      swap1\n      dup2\n      mstore\n        /* \"weusd/manageusd.sol\":11105:11113  requests */\n      0x0a\n        /* \"weusd/manageusd.sol\":11105:11125  requests[_requestId] */\n      0x20\n      mstore\n      0x40\n      swap1\n      keccak256\n        /* \"weusd/manageusd.sol\":11105:11135  requests[_requestId].requestId */\n      sload\n        /* \"weusd/manageusd.sol\":11105:11140  requests[_requestId].requestId != 0 */\n      iszero\n      iszero\n      swap1\n        /* \"weusd/manageusd.sol\":11017:11148  function requestExists(uint256 _requestId) public view returns (bool) {... */\n      jump\n        /* \"weusd/manageusd.sol\":8172:8196  requestExists(requestId) */\n    tag_211:\n        /* \"weusd/manageusd.sol\":8171:8196  !requestExists(requestId) */\n      iszero\n        /* \"weusd/manageusd.sol\":8163:8226  require(!requestExists(requestId), \"Request ID already exists\") */\n      tag_212\n      jumpi\n      mload(0x40)\n      shl(0xe5, 0x461bcd)\n      dup2\n      mstore\n        /* \"#utility.yul\":7375:7377   */\n      0x20\n        /* \"weusd/manageusd.sol\":8163:8226  require(!requestExists(requestId), \"Request ID already exists\") */\n      0x04\n      dup3\n      add\n        /* \"#utility.yul\":7357:7378   */\n      mstore\n        /* \"#utility.yul\":7414:7416   */\n      0x19\n        /* \"#utility.yul\":7394:7412   */\n      0x24\n      dup3\n      add\n        /* \"#utility.yul\":7387:7417   */\n      mstore\n      shl(0x38, 0x5265717565737420494420616c726561647920657869737473)\n        /* \"#utility.yul\":7433:7451   */\n      0x44\n      dup3\n      add\n        /* \"#utility.yul\":7426:7481   */\n      mstore\n        /* \"#utility.yul\":7498:7516   */\n      0x64\n      add\n        /* \"weusd/manageusd.sol\":8163:8226  require(!requestExists(requestId), \"Request ID already exists\") */\n      tag_201\n        /* \"#utility.yul\":7173:7522   */\n      jump\n        /* \"weusd/manageusd.sol\":8163:8226  require(!requestExists(requestId), \"Request ID already exists\") */\n    tag_212:\n        /* \"weusd/manageusd.sol\":8237:8255  uint256 burnAmount */\n      0x00\n        /* \"weusd/manageusd.sol\":8267:8273  gasfee */\n      sload(0x04)\n        /* \"weusd/manageusd.sol\":8258:8264  amount */\n      dup6\n        /* \"weusd/manageusd.sol\":8258:8273  amount - gasfee */\n      tag_215\n      swap2\n      swap1\n      tag_216\n      jump\t// in\n    tag_215:\n        /* \"weusd/manageusd.sol\":8284:8289  weUSD */\n      sload(0x02)\n        /* \"weusd/manageusd.sol\":8315:8327  feeRecipient */\n      sload(0x05)\n        /* \"weusd/manageusd.sol\":8329:8335  gasfee */\n      0x04\n      dup1\n      sload\n        /* \"weusd/manageusd.sol\":8284:8336  weUSD.transferFrom(msg.sender, feeRecipient, gasfee) */\n      mload(0x40)\n      shl(0xe0, 0x23b872dd)\n      dup2\n      mstore\n        /* \"weusd/manageusd.sol\":8303:8313  msg.sender */\n      caller\n        /* \"weusd/manageusd.sol\":8284:8336  weUSD.transferFrom(msg.sender, feeRecipient, gasfee) */\n      swap3\n      dup2\n      add\n        /* \"#utility.yul\":7862:7913   */\n      swap3\n      swap1\n      swap3\n      mstore\n      sub(shl(0xa0, 0x01), 0x01)\n        /* \"weusd/manageusd.sol\":8315:8327  feeRecipient */\n      swap3\n      dup4\n      and\n        /* \"#utility.yul\":7929:7947   */\n      0x24\n      dup4\n      add\n        /* \"#utility.yul\":7922:7982   */\n      mstore\n        /* \"#utility.yul\":7998:8016   */\n      0x44\n      dup3\n      add\n        /* \"#utility.yul\":7991:8025   */\n      mstore\n        /* \"weusd/manageusd.sol\":8237:8273  uint256 burnAmount = amount - gasfee */\n      swap3\n      swap4\n      pop\n        /* \"weusd/manageusd.sol\":8284:8289  weUSD */\n      and\n      swap1\n        /* \"weusd/manageusd.sol\":8284:8302  weUSD.transferFrom */\n      0x23b872dd\n      swap1\n        /* \"#utility.yul\":7835:7853   */\n      0x64\n      add\n        /* \"weusd/manageusd.sol\":8284:8336  weUSD.transferFrom(msg.sender, feeRecipient, gasfee) */\n      0x20\n      mload(0x40)\n      dup1\n      dup4\n      sub\n      dup2\n      0x00\n      dup8\n      gas\n      call\n      iszero\n      dup1\n      iszero\n      tag_220\n      jumpi\n      returndatasize\n      0x00\n      dup1\n      returndatacopy\n      revert(0x00, returndatasize)\n    tag_220:\n      pop\n      pop\n      pop\n      pop\n      mload(0x40)\n      returndatasize\n      not(0x1f)\n      0x1f\n      dup3\n      add\n      and\n      dup3\n      add\n      dup1\n      0x40\n      mstore\n      pop\n      dup2\n      add\n      swap1\n      tag_221\n      swap2\n      swap1\n      tag_222\n      jump\t// in\n    tag_221:\n      pop\n        /* \"weusd/manageusd.sol\":8347:8352  weUSD */\n      sload(0x02)\n        /* \"weusd/manageusd.sol\":8347:8385  weUSD.burnFrom(msg.sender, burnAmount) */\n      mload(0x40)\n      shl(0xe4, 0x079cc679)\n      dup2\n      mstore\n        /* \"weusd/manageusd.sol\":8362:8372  msg.sender */\n      caller\n        /* \"weusd/manageusd.sol\":8347:8385  weUSD.burnFrom(msg.sender, burnAmount) */\n      0x04\n      dup3\n      add\n        /* \"#utility.yul\":8492:8543   */\n      mstore\n        /* \"#utility.yul\":8559:8577   */\n      0x24\n      dup2\n      add\n        /* \"#utility.yul\":8552:8586   */\n      dup4\n      swap1\n      mstore\n      sub(shl(0xa0, 0x01), 0x01)\n        /* \"weusd/manageusd.sol\":8347:8352  weUSD */\n      swap1\n      swap2\n      and\n      swap1\n        /* \"weusd/manageusd.sol\":8347:8361  weUSD.burnFrom */\n      0x79cc6790\n      swap1\n        /* \"#utility.yul\":8465:8483   */\n      0x44\n      add\n        /* \"weusd/manageusd.sol\":8347:8385  weUSD.burnFrom(msg.sender, burnAmount) */\n      0x00\n      mload(0x40)\n      dup1\n      dup4\n      sub\n      dup2\n      0x00\n      dup8\n      dup1\n      extcodesize\n      iszero\n      dup1\n      iszero\n      tag_225\n      jumpi\n      0x00\n      dup1\n      revert\n    tag_225:\n      pop\n      gas\n      call\n      iszero\n      dup1\n      iszero\n      tag_227\n      jumpi\n      returndatasize\n      0x00\n      dup1\n      returndatacopy\n      revert(0x00, returndatasize)\n    tag_227:\n      pop\n      pop\n      pop\n      pop\n        /* \"weusd/manageusd.sol\":8396:8451  _createRequest(requestId, msg.sender, burnAmount, true) */\n      tag_228\n        /* \"weusd/manageusd.sol\":8411:8420  requestId */\n      dup3\n        /* \"weusd/manageusd.sol\":8422:8432  msg.sender */\n      caller\n        /* \"weusd/manageusd.sol\":8434:8444  burnAmount */\n      dup4\n        /* \"weusd/manageusd.sol\":8446:8450  true */\n      0x01\n        /* \"weusd/manageusd.sol\":8396:8410  _createRequest */\n      tag_229\n        /* \"weusd/manageusd.sol\":8396:8451  _createRequest(requestId, msg.sender, burnAmount, true) */\n      jump\t// in\n    tag_228:\n        /* \"weusd/manageusd.sol\":8467:8558  CrossChainBurn(requestId, msg.sender, sourceChainId, targetChainId, burnAmount, targetUser) */\n      0x40\n      dup1\n      mload\n        /* \"#utility.yul\":8828:8853   */\n      dup5\n      dup2\n      mstore\n        /* \"#utility.yul\":8884:8886   */\n      0x20\n        /* \"#utility.yul\":8869:8887   */\n      dup2\n      add\n        /* \"#utility.yul\":8862:8896   */\n      dup9\n      swap1\n      mstore\n        /* \"#utility.yul\":8912:8930   */\n      swap1\n      dup2\n      add\n        /* \"#utility.yul\":8905:8939   */\n      dup3\n      swap1\n      mstore\n      sub(shl(0xa0, 0x01), 0x01)\n        /* \"#utility.yul\":8975:9007   */\n      dup6\n      and\n        /* \"#utility.yul\":8970:8972   */\n      0x60\n        /* \"#utility.yul\":8955:8973   */\n      dup3\n      add\n        /* \"#utility.yul\":8948:9008   */\n      mstore\n        /* \"weusd/manageusd.sol\":8493:8503  msg.sender */\n      caller\n      swap1\n        /* \"weusd/manageusd.sol\":8482:8491  requestId */\n      dup4\n      swap1\n        /* \"weusd/manageusd.sol\":8467:8558  CrossChainBurn(requestId, msg.sender, sourceChainId, targetChainId, burnAmount, targetUser) */\n      0x26c32cc5ff12981b55681844f2fb47d52c5e521c58d5288b1325f3304a7e8852\n      swap1\n        /* \"#utility.yul\":8815:8818   */\n      0x80\n        /* \"#utility.yul\":8800:8819   */\n      add\n        /* \"weusd/manageusd.sol\":8467:8558  CrossChainBurn(requestId, msg.sender, sourceChainId, targetChainId, burnAmount, targetUser) */\n      mload(0x40)\n      dup1\n      swap2\n      sub\n      swap1\n      log3\n        /* \"weusd/manageusd.sol\":7733:8566  {... */\n      pop\n      pop\n      pop\n        /* \"weusd/manageusd.sol\":7622:8566  function burnWeUSDCrossChain(uint256 targetChainId, uint256 amount, address targetUser) external whenNotPaused {... */\n      pop\n      pop\n      pop\n      jump\t// out\n        /* \"weusd/manageusd.sol\":4459:4640  function deleteStablecoin(address stablecoin) external onlyRole(ADMIN_ROLE) {... */\n    tag_65:\n      0x00\n      dup1\n      mload\n      0x20\n      data_cb864c43dd5d441bb6271f424f11befa622c032dfd374d226e26fbbdb782b8f8\n      dup4\n      codecopy\n      dup2\n      mload\n      swap2\n      mstore\n        /* \"@openzeppelin/contracts/access/AccessControl.sol\":2464:2480  _checkRole(role) */\n      tag_233\n        /* \"@openzeppelin/contracts/access/AccessControl.sol\":2475:2479  role */\n      dup2\n        /* \"@openzeppelin/contracts/access/AccessControl.sol\":2464:2474  _checkRole */\n      tag_234\n        /* \"@openzeppelin/contracts/access/AccessControl.sol\":2464:2480  _checkRole(role) */\n      jump\t// in\n    tag_233:\n      sub(shl(0xa0, 0x01), 0x01)\n        /* \"weusd/manageusd.sol\":4546:4579  registeredStablecoins[stablecoin] */\n      dup3\n      and\n        /* \"weusd/manageusd.sol\":4582:4587  false */\n      0x00\n        /* \"weusd/manageusd.sol\":4546:4579  registeredStablecoins[stablecoin] */\n      dup2\n      dup2\n      mstore\n        /* \"weusd/manageusd.sol\":4546:4567  registeredStablecoins */\n      0x08\n        /* \"weusd/manageusd.sol\":4546:4579  registeredStablecoins[stablecoin] */\n      0x20\n      mstore\n      0x40\n      dup1\n      dup3\n      keccak256\n        /* \"weusd/manageusd.sol\":4546:4587  registeredStablecoins[stablecoin] = false */\n      dup1\n      sload\n      not(0xff)\n      and\n      swap1\n      sstore\n        /* \"weusd/manageusd.sol\":4603:4632  StablecoinDeleted(stablecoin) */\n      mload\n      0x0fa63555fe68cad70e08233633567493a3c74afdc8c7fb9f0c03a8e74f1a137a\n      swap2\n        /* \"weusd/manageusd.sol\":4582:4587  false */\n      swap1\n        /* \"weusd/manageusd.sol\":4603:4632  StablecoinDeleted(stablecoin) */\n      log2\n        /* \"weusd/manageusd.sol\":4459:4640  function deleteStablecoin(address stablecoin) external onlyRole(ADMIN_ROLE) {... */\n      pop\n      pop\n      jump\t// out\n        /* \"weusd/manageusd.sol\":9413:10106  function mintWeUSDCrossChain(uint256 requestId, uint256 sourceChainId, uint256 amount, address targetUser) external onlyRole(CROSS_CHAIN_MINTER_ROLE) whenNotPaused {... */\n    tag_74:\n        /* \"weusd/manageusd.sol\":816:852  keccak256(\"CROSS_CHAIN_MINTER_ROLE\") */\n      0x41de7ae3becaf069074d499ebcbd36df88385ba1e2946870f7e4674aecd43704\n        /* \"@openzeppelin/contracts/access/AccessControl.sol\":2464:2480  _checkRole(role) */\n      tag_238\n        /* \"@openzeppelin/contracts/access/AccessControl.sol\":2475:2479  role */\n      dup2\n        /* \"@openzeppelin/contracts/access/AccessControl.sol\":2464:2474  _checkRole */\n      tag_234\n        /* \"@openzeppelin/contracts/access/AccessControl.sol\":2464:2480  _checkRole(role) */\n      jump\t// in\n    tag_238:\n        /* \"@openzeppelin/contracts/utils/Pausable.sol\":1474:1493  _requireNotPaused() */\n      tag_240\n        /* \"@openzeppelin/contracts/utils/Pausable.sol\":1474:1491  _requireNotPaused */\n      tag_198\n        /* \"@openzeppelin/contracts/utils/Pausable.sol\":1474:1493  _requireNotPaused() */\n      jump\t// in\n    tag_240:\n        /* \"weusd/manageusd.sol\":9613:9626  block.chainid */\n      chainid\n        /* \"weusd/manageusd.sol\":9596:9609  sourceChainId */\n      dup5\n        /* \"weusd/manageusd.sol\":9596:9626  sourceChainId != block.chainid */\n      sub\n        /* \"weusd/manageusd.sol\":9588:9679  require(sourceChainId != block.chainid, \"Source chain must be different from target chain\") */\n      tag_242\n      jumpi\n      mload(0x40)\n      shl(0xe5, 0x461bcd)\n      dup2\n      mstore\n        /* \"#utility.yul\":9221:9223   */\n      0x20\n        /* \"weusd/manageusd.sol\":9588:9679  require(sourceChainId != block.chainid, \"Source chain must be different from target chain\") */\n      0x04\n      dup3\n      add\n        /* \"#utility.yul\":9203:9224   */\n      mstore\n        /* \"#utility.yul\":9260:9262   */\n      0x30\n        /* \"#utility.yul\":9240:9258   */\n      0x24\n      dup3\n      add\n        /* \"#utility.yul\":9233:9263   */\n      mstore\n        /* \"#utility.yul\":9299:9333   */\n      0x536f7572636520636861696e206d75737420626520646966666572656e742066\n        /* \"#utility.yul\":9279:9297   */\n      0x44\n      dup3\n      add\n        /* \"#utility.yul\":9272:9334   */\n      mstore\n      shl(0x81, 0x3937b6903a30b933b2ba1031b430b4b7)\n        /* \"#utility.yul\":9350:9368   */\n      0x64\n      dup3\n      add\n        /* \"#utility.yul\":9343:9389   */\n      mstore\n        /* \"#utility.yul\":9406:9425   */\n      0x84\n      add\n        /* \"weusd/manageusd.sol\":9588:9679  require(sourceChainId != block.chainid, \"Source chain must be different from target chain\") */\n      tag_201\n        /* \"#utility.yul\":9019:9431   */\n      jump\n        /* \"weusd/manageusd.sol\":9588:9679  require(sourceChainId != block.chainid, \"Source chain must be different from target chain\") */\n    tag_242:\n        /* \"weusd/manageusd.sol\":9707:9708  0 */\n      0x00\n        /* \"weusd/manageusd.sol\":9698:9704  amount */\n      dup4\n        /* \"weusd/manageusd.sol\":9698:9708  amount > 0 */\n      gt\n        /* \"weusd/manageusd.sol\":9690:9742  require(amount > 0, \"Amount must be greater than 0\") */\n      tag_245\n      jumpi\n      mload(0x40)\n      shl(0xe5, 0x461bcd)\n      dup2\n      mstore\n        /* \"#utility.yul\":9638:9640   */\n      0x20\n        /* \"weusd/manageusd.sol\":9690:9742  require(amount > 0, \"Amount must be greater than 0\") */\n      0x04\n      dup3\n      add\n        /* \"#utility.yul\":9620:9641   */\n      mstore\n        /* \"#utility.yul\":9677:9679   */\n      0x1d\n        /* \"#utility.yul\":9657:9675   */\n      0x24\n      dup3\n      add\n        /* \"#utility.yul\":9650:9680   */\n      mstore\n        /* \"#utility.yul\":9716:9747   */\n      0x416d6f756e74206d7573742062652067726561746572207468616e2030000000\n        /* \"#utility.yul\":9696:9714   */\n      0x44\n      dup3\n      add\n        /* \"#utility.yul\":9689:9748   */\n      mstore\n        /* \"#utility.yul\":9765:9783   */\n      0x64\n      add\n        /* \"weusd/manageusd.sol\":9690:9742  require(amount > 0, \"Amount must be greater than 0\") */\n      tag_201\n        /* \"#utility.yul\":9436:9789   */\n      jump\n        /* \"weusd/manageusd.sol\":9690:9742  require(amount > 0, \"Amount must be greater than 0\") */\n    tag_245:\n      sub(shl(0xa0, 0x01), 0x01)\n        /* \"weusd/manageusd.sol\":9761:9785  targetUser != address(0) */\n      dup3\n      and\n        /* \"weusd/manageusd.sol\":9753:9817  require(targetUser != address(0), \"Invalid target user address\") */\n      tag_248\n      jumpi\n      mload(0x40)\n      shl(0xe5, 0x461bcd)\n      dup2\n      mstore\n        /* \"#utility.yul\":6747:6749   */\n      0x20\n        /* \"weusd/manageusd.sol\":9753:9817  require(targetUser != address(0), \"Invalid target user address\") */\n      0x04\n      dup3\n      add\n        /* \"#utility.yul\":6729:6750   */\n      mstore\n        /* \"#utility.yul\":6786:6788   */\n      0x1b\n        /* \"#utility.yul\":6766:6784   */\n      0x24\n      dup3\n      add\n        /* \"#utility.yul\":6759:6789   */\n      mstore\n        /* \"#utility.yul\":6825:6854   */\n      0x496e76616c696420746172676574207573657220616464726573730000000000\n        /* \"#utility.yul\":6805:6823   */\n      0x44\n      dup3\n      add\n        /* \"#utility.yul\":6798:6855   */\n      mstore\n        /* \"#utility.yul\":6872:6890   */\n      0x64\n      add\n        /* \"weusd/manageusd.sol\":9753:9817  require(targetUser != address(0), \"Invalid target user address\") */\n      tag_201\n        /* \"#utility.yul\":6545:6896   */\n      jump\n        /* \"weusd/manageusd.sol\":9753:9817  require(targetUser != address(0), \"Invalid target user address\") */\n    tag_248:\n        /* \"weusd/manageusd.sol\":11081:11085  bool */\n      0x00\n        /* \"weusd/manageusd.sol\":11105:11125  requests[_requestId] */\n      dup6\n      dup2\n      mstore\n        /* \"weusd/manageusd.sol\":11105:11113  requests */\n      0x0a\n        /* \"weusd/manageusd.sol\":11105:11125  requests[_requestId] */\n      0x20\n      mstore\n      0x40\n      swap1\n      keccak256\n        /* \"weusd/manageusd.sol\":11105:11135  requests[_requestId].requestId */\n      sload\n        /* \"weusd/manageusd.sol\":11105:11140  requests[_requestId].requestId != 0 */\n      iszero\n        /* \"weusd/manageusd.sol\":9828:9891  require(!requestExists(requestId), \"Request ID already exists\") */\n      tag_251\n      jumpi\n      mload(0x40)\n      shl(0xe5, 0x461bcd)\n      dup2\n      mstore\n        /* \"#utility.yul\":7375:7377   */\n      0x20\n        /* \"weusd/manageusd.sol\":9828:9891  require(!requestExists(requestId), \"Request ID already exists\") */\n      0x04\n      dup3\n      add\n        /* \"#utility.yul\":7357:7378   */\n      mstore\n        /* \"#utility.yul\":7414:7416   */\n      0x19\n        /* \"#utility.yul\":7394:7412   */\n      0x24\n      dup3\n      add\n        /* \"#utility.yul\":7387:7417   */\n      mstore\n      shl(0x38, 0x5265717565737420494420616c726561647920657869737473)\n        /* \"#utility.yul\":7433:7451   */\n      0x44\n      dup3\n      add\n        /* \"#utility.yul\":7426:7481   */\n      mstore\n        /* \"#utility.yul\":7498:7516   */\n      0x64\n      add\n        /* \"weusd/manageusd.sol\":9828:9891  require(!requestExists(requestId), \"Request ID already exists\") */\n      tag_201\n        /* \"#utility.yul\":7173:7522   */\n      jump\n        /* \"weusd/manageusd.sol\":9828:9891  require(!requestExists(requestId), \"Request ID already exists\") */\n    tag_251:\n        /* \"weusd/manageusd.sol\":9902:9907  weUSD */\n      sload(0x02)\n        /* \"weusd/manageusd.sol\":9902:9932  weUSD.mint(targetUser, amount) */\n      mload(0x40)\n      shl(0xe0, 0x40c10f19)\n      dup2\n      mstore\n      sub(shl(0xa0, 0x01), 0x01)\n        /* \"#utility.yul\":8510:8542   */\n      dup5\n      dup2\n      and\n        /* \"weusd/manageusd.sol\":9902:9932  weUSD.mint(targetUser, amount) */\n      0x04\n      dup4\n      add\n        /* \"#utility.yul\":8492:8543   */\n      mstore\n        /* \"#utility.yul\":8559:8577   */\n      0x24\n      dup3\n      add\n        /* \"#utility.yul\":8552:8586   */\n      dup7\n      swap1\n      mstore\n        /* \"weusd/manageusd.sol\":9902:9907  weUSD */\n      swap1\n      swap2\n      and\n      swap1\n        /* \"weusd/manageusd.sol\":9902:9912  weUSD.mint */\n      0x40c10f19\n      swap1\n        /* \"#utility.yul\":8465:8483   */\n      0x44\n      add\n        /* \"weusd/manageusd.sol\":9902:9932  weUSD.mint(targetUser, amount) */\n      0x00\n      mload(0x40)\n      dup1\n      dup4\n      sub\n      dup2\n      0x00\n      dup8\n      dup1\n      extcodesize\n      iszero\n      dup1\n      iszero\n      tag_254\n      jumpi\n      0x00\n      dup1\n      revert\n    tag_254:\n      pop\n      gas\n      call\n      iszero\n      dup1\n      iszero\n      tag_256\n      jumpi\n      returndatasize\n      0x00\n      dup1\n      returndatacopy\n      revert(0x00, returndatasize)\n    tag_256:\n      pop\n      pop\n      pop\n      pop\n        /* \"weusd/manageusd.sol\":9943:9995  _createRequest(requestId, targetUser, amount, false) */\n      tag_257\n        /* \"weusd/manageusd.sol\":9958:9967  requestId */\n      dup6\n        /* \"weusd/manageusd.sol\":9969:9979  targetUser */\n      dup4\n        /* \"weusd/manageusd.sol\":9981:9987  amount */\n      dup6\n        /* \"weusd/manageusd.sol\":9989:9994  false */\n      0x00\n        /* \"weusd/manageusd.sol\":9943:9957  _createRequest */\n      tag_229\n        /* \"weusd/manageusd.sol\":9943:9995  _createRequest(requestId, targetUser, amount, false) */\n      jump\t// in\n    tag_257:\n        /* \"weusd/manageusd.sol\":10011:10098  CrossChainMint(requestId, msg.sender, sourceChainId, block.chainid, amount, targetUser) */\n      0x40\n      dup1\n      mload\n        /* \"#utility.yul\":8828:8853   */\n      dup6\n      dup2\n      mstore\n        /* \"weusd/manageusd.sol\":10064:10077  block.chainid */\n      chainid\n        /* \"#utility.yul\":8884:8886   */\n      0x20\n        /* \"#utility.yul\":8869:8887   */\n      dup3\n      add\n        /* \"#utility.yul\":8862:8896   */\n      mstore\n        /* \"#utility.yul\":8912:8930   */\n      swap1\n      dup2\n      add\n        /* \"#utility.yul\":8905:8939   */\n      dup5\n      swap1\n      mstore\n      sub(shl(0xa0, 0x01), 0x01)\n        /* \"#utility.yul\":8975:9007   */\n      dup4\n      and\n        /* \"#utility.yul\":8970:8972   */\n      0x60\n        /* \"#utility.yul\":8955:8973   */\n      dup3\n      add\n        /* \"#utility.yul\":8948:9008   */\n      mstore\n        /* \"weusd/manageusd.sol\":10037:10047  msg.sender */\n      caller\n      swap1\n        /* \"weusd/manageusd.sol\":10026:10035  requestId */\n      dup7\n      swap1\n        /* \"weusd/manageusd.sol\":10011:10098  CrossChainMint(requestId, msg.sender, sourceChainId, block.chainid, amount, targetUser) */\n      0x7690d9cedf96f067bda7114c24bba31be184ae045d199979a0a373862e70d46b\n      swap1\n        /* \"#utility.yul\":8815:8818   */\n      0x80\n        /* \"#utility.yul\":8800:8819   */\n      add\n        /* \"weusd/manageusd.sol\":10011:10098  CrossChainMint(requestId, msg.sender, sourceChainId, block.chainid, amount, targetUser) */\n      mload(0x40)\n      dup1\n      swap2\n      sub\n      swap1\n      log3\n        /* \"weusd/manageusd.sol\":9413:10106  function mintWeUSDCrossChain(uint256 requestId, uint256 sourceChainId, uint256 amount, address targetUser) external onlyRole(CROSS_CHAIN_MINTER_ROLE) whenNotPaused {... */\n      pop\n      pop\n      pop\n      pop\n      pop\n      jump\t// out\n        /* \"@openzeppelin/contracts/access/AccessControl.sol\":4226:4362  function grantRole(bytes32 role, address account) public virtual onlyRole(getRoleAdmin(role)) {... */\n    tag_89:\n        /* \"@openzeppelin/contracts/access/AccessControl.sol\":3875:3882  bytes32 */\n      0x00\n        /* \"@openzeppelin/contracts/access/AccessControl.sol\":3901:3913  _roles[role] */\n      dup3\n      dup2\n      mstore\n      0x20\n      dup2\n      swap1\n      mstore\n      0x40\n      swap1\n      keccak256\n        /* \"@openzeppelin/contracts/access/AccessControl.sol\":3901:3923  _roles[role].adminRole */\n      0x01\n      add\n      sload\n        /* \"@openzeppelin/contracts/access/AccessControl.sol\":2464:2480  _checkRole(role) */\n      tag_265\n        /* \"@openzeppelin/contracts/access/AccessControl.sol\":2475:2479  role */\n      dup2\n        /* \"@openzeppelin/contracts/access/AccessControl.sol\":2464:2474  _checkRole */\n      tag_234\n        /* \"@openzeppelin/contracts/access/AccessControl.sol\":2464:2480  _checkRole(role) */\n      jump\t// in\n    tag_265:\n        /* \"@openzeppelin/contracts/access/AccessControl.sol\":4330:4355  _grantRole(role, account) */\n      tag_267\n        /* \"@openzeppelin/contracts/access/AccessControl.sol\":4341:4345  role */\n      dup4\n        /* \"@openzeppelin/contracts/access/AccessControl.sol\":4347:4354  account */\n      dup4\n        /* \"@openzeppelin/contracts/access/AccessControl.sol\":4330:4340  _grantRole */\n      tag_268\n        /* \"@openzeppelin/contracts/access/AccessControl.sol\":4330:4355  _grantRole(role, account) */\n      jump\t// in\n    tag_267:\n      pop\n        /* \"@openzeppelin/contracts/access/AccessControl.sol\":4226:4362  function grantRole(bytes32 role, address account) public virtual onlyRole(getRoleAdmin(role)) {... */\n      pop\n      pop\n      pop\n      jump\t// out\n        /* \"weusd/manageusd.sol\":1091:1128  uint256[] public activeTargetRequests */\n    tag_96:\n      0x07\n      dup2\n      dup2\n      sload\n      dup2\n      lt\n      tag_269\n      jumpi\n      0x00\n      dup1\n      revert\n    tag_269:\n      0x00\n      swap2\n      dup3\n      mstore\n      0x20\n      swap1\n      swap2\n      keccak256\n      add\n      sload\n      swap1\n      pop\n      dup2\n      jump\t// out\n        /* \"@openzeppelin/contracts/access/AccessControl.sol\":5328:5573  function renounceRole(bytes32 role, address callerConfirmation) public virtual {... */\n    tag_100:\n      sub(shl(0xa0, 0x01), 0x01)\n        /* \"@openzeppelin/contracts/access/AccessControl.sol\":5421:5455  callerConfirmation != _msgSender() */\n      dup2\n      and\n        /* \"@openzeppelin/contracts/utils/Context.sol\":735:745  msg.sender */\n      caller\n        /* \"@openzeppelin/contracts/access/AccessControl.sol\":5421:5455  callerConfirmation != _msgSender() */\n      eq\n        /* \"@openzeppelin/contracts/access/AccessControl.sol\":5417:5519  if (callerConfirmation != _msgSender()) {... */\n      tag_274\n      jumpi\n        /* \"@openzeppelin/contracts/access/AccessControl.sol\":5478:5508  AccessControlBadConfirmation() */\n      mload(0x40)\n      shl(0xe1, 0x334bd919)\n      dup2\n      mstore\n      0x04\n      add\n      mload(0x40)\n      dup1\n      swap2\n      sub\n      swap1\n      revert\n        /* \"@openzeppelin/contracts/access/AccessControl.sol\":5417:5519  if (callerConfirmation != _msgSender()) {... */\n    tag_274:\n        /* \"@openzeppelin/contracts/access/AccessControl.sol\":5529:5566  _revokeRole(role, callerConfirmation) */\n      tag_275\n        /* \"@openzeppelin/contracts/access/AccessControl.sol\":5541:5545  role */\n      dup3\n        /* \"@openzeppelin/contracts/access/AccessControl.sol\":5547:5565  callerConfirmation */\n      dup3\n        /* \"@openzeppelin/contracts/access/AccessControl.sol\":5529:5540  _revokeRole */\n      tag_276\n        /* \"@openzeppelin/contracts/access/AccessControl.sol\":5529:5566  _revokeRole(role, callerConfirmation) */\n      jump\t// in\n    tag_275:\n      pop\n        /* \"@openzeppelin/contracts/access/AccessControl.sol\":5328:5573  function renounceRole(bytes32 role, address callerConfirmation) public virtual {... */\n      pop\n      pop\n      jump\t// out\n        /* \"weusd/manageusd.sol\":2730:2807  function unpause() public onlyRole(PAUSER_ROLE) {... */\n    tag_105:\n        /* \"weusd/manageusd.sol\":735:759  keccak256(\"PAUSER_ROLE\") */\n      0x65d7a28e3265b37a6474929f336521b332c1681b933f6cb9f3376673440d862a\n        /* \"@openzeppelin/contracts/access/AccessControl.sol\":2464:2480  _checkRole(role) */\n      tag_278\n        /* \"@openzeppelin/contracts/access/AccessControl.sol\":2475:2479  role */\n      dup2\n        /* \"@openzeppelin/contracts/access/AccessControl.sol\":2464:2474  _checkRole */\n      tag_234\n        /* \"@openzeppelin/contracts/access/AccessControl.sol\":2464:2480  _checkRole(role) */\n      jump\t// in\n    tag_278:\n        /* \"weusd/manageusd.sol\":2789:2799  _unpause() */\n      tag_280\n        /* \"weusd/manageusd.sol\":2789:2797  _unpause */\n      tag_281\n        /* \"weusd/manageusd.sol\":2789:2799  _unpause() */\n      jump\t// in\n    tag_280:\n        /* \"weusd/manageusd.sol\":2730:2807  function unpause() public onlyRole(PAUSER_ROLE) {... */\n      pop\n      jump\t// out\n        /* \"weusd/manageusd.sol\":2649:2722  function pause() public onlyRole(PAUSER_ROLE) {... */\n    tag_120:\n        /* \"weusd/manageusd.sol\":735:759  keccak256(\"PAUSER_ROLE\") */\n      0x65d7a28e3265b37a6474929f336521b332c1681b933f6cb9f3376673440d862a\n        /* \"@openzeppelin/contracts/access/AccessControl.sol\":2464:2480  _checkRole(role) */\n      tag_284\n        /* \"@openzeppelin/contracts/access/AccessControl.sol\":2475:2479  role */\n      dup2\n        /* \"@openzeppelin/contracts/access/AccessControl.sol\":2464:2474  _checkRole */\n      tag_234\n        /* \"@openzeppelin/contracts/access/AccessControl.sol\":2464:2480  _checkRole(role) */\n      jump\t// in\n    tag_284:\n        /* \"weusd/manageusd.sol\":2706:2714  _pause() */\n      tag_280\n        /* \"weusd/manageusd.sol\":2706:2712  _pause */\n      tag_287\n        /* \"weusd/manageusd.sol\":2706:2714  _pause() */\n      jump\t// in\n        /* \"weusd/manageusd.sol\":1047:1084  uint256[] public activeSourceRequests */\n    tag_123:\n      0x06\n      dup2\n      dup2\n      sload\n      dup2\n      lt\n      tag_269\n      jumpi\n      0x00\n      dup1\n      revert\n        /* \"@openzeppelin/contracts/access/AccessControl.sol\":2854:2990  function hasRole(bytes32 role, address account) public view virtual returns (bool) {... */\n    tag_127:\n        /* \"@openzeppelin/contracts/access/AccessControl.sol\":2931:2935  bool */\n      0x00\n        /* \"@openzeppelin/contracts/access/AccessControl.sol\":2954:2966  _roles[role] */\n      swap2\n      dup3\n      mstore\n      0x20\n      dup3\n      dup2\n      mstore\n      0x40\n      dup1\n      dup5\n      keccak256\n      sub(shl(0xa0, 0x01), 0x01)\n        /* \"@openzeppelin/contracts/access/AccessControl.sol\":2954:2983  _roles[role].hasRole[account] */\n      swap4\n      swap1\n      swap4\n      and\n      dup5\n      mstore\n      swap2\n      swap1\n      mstore\n      swap1\n      keccak256\n      sload\n      0xff\n      and\n      swap1\n        /* \"@openzeppelin/contracts/access/AccessControl.sol\":2854:2990  function hasRole(bytes32 role, address account) public view virtual returns (bool) {... */\n      jump\t// out\n        /* \"weusd/manageusd.sol\":11784:13279  function getUserSourceRequests(address _user, uint256 _page, uint256 _pageSize) public view returns (uint256[] memory, uint256) {... */\n    tag_132:\n        /* \"weusd/manageusd.sol\":11885:11901  uint256[] memory */\n      0x60\n        /* \"weusd/manageusd.sol\":11903:11910  uint256 */\n      0x00\n        /* \"weusd/manageusd.sol\":11931:11941  _page == 0 */\n      dup4\n      iszero\n      dup1\n        /* \"weusd/manageusd.sol\":11931:11959  _page == 0 || _pageSize == 0 */\n      tag_292\n      jumpi\n      pop\n        /* \"weusd/manageusd.sol\":11945:11959  _pageSize == 0 */\n      dup3\n      iszero\n        /* \"weusd/manageusd.sol\":11931:11959  _page == 0 || _pageSize == 0 */\n    tag_292:\n        /* \"weusd/manageusd.sol\":11931:11991  _page == 0 || _pageSize == 0 || (_page > 0 && _pageSize > 0) */\n      dup1\n      tag_294\n      jumpi\n      pop\n        /* \"weusd/manageusd.sol\":11972:11973  0 */\n      0x00\n        /* \"weusd/manageusd.sol\":11964:11969  _page */\n      dup5\n        /* \"weusd/manageusd.sol\":11964:11973  _page > 0 */\n      gt\n        /* \"weusd/manageusd.sol\":11964:11990  _page > 0 && _pageSize > 0 */\n      dup1\n      iszero\n      tag_294\n      jumpi\n      pop\n        /* \"weusd/manageusd.sol\":11989:11990  0 */\n      0x00\n        /* \"weusd/manageusd.sol\":11977:11986  _pageSize */\n      dup4\n        /* \"weusd/manageusd.sol\":11977:11990  _pageSize > 0 */\n      gt\n        /* \"weusd/manageusd.sol\":11964:11990  _page > 0 && _pageSize > 0 */\n    tag_294:\n        /* \"weusd/manageusd.sol\":11923:12021  require(_page == 0 || _pageSize == 0 || (_page > 0 && _pageSize > 0), \"Invalid page or page size\") */\n      tag_295\n      jumpi\n      mload(0x40)\n      shl(0xe5, 0x461bcd)\n      dup2\n      mstore\n        /* \"#utility.yul\":9996:9998   */\n      0x20\n        /* \"weusd/manageusd.sol\":11923:12021  require(_page == 0 || _pageSize == 0 || (_page > 0 && _pageSize > 0), \"Invalid page or page size\") */\n      0x04\n      dup3\n      add\n        /* \"#utility.yul\":9978:9999   */\n      mstore\n        /* \"#utility.yul\":10035:10037   */\n      0x19\n        /* \"#utility.yul\":10015:10033   */\n      0x24\n      dup3\n      add\n        /* \"#utility.yul\":10008:10038   */\n      mstore\n      shl(0x38, 0x496e76616c69642070616765206f7220706167652073697a65)\n        /* \"#utility.yul\":10054:10072   */\n      0x44\n      dup3\n      add\n        /* \"#utility.yul\":10047:10102   */\n      mstore\n        /* \"#utility.yul\":10119:10137   */\n      0x64\n      add\n        /* \"weusd/manageusd.sol\":11923:12021  require(_page == 0 || _pageSize == 0 || (_page > 0 && _pageSize > 0), \"Invalid page or page size\") */\n      tag_201\n        /* \"#utility.yul\":9794:10143   */\n      jump\n        /* \"weusd/manageusd.sol\":11923:12021  require(_page == 0 || _pageSize == 0 || (_page > 0 && _pageSize > 0), \"Invalid page or page size\") */\n    tag_295:\n        /* \"weusd/manageusd.sol\":12034:12055  uint256 totalRequests */\n      0x00\n        /* \"weusd/manageusd.sol\":12075:12084  uint256 i */\n      dup1\n        /* \"weusd/manageusd.sol\":12070:12257  for (uint256 i = 0; i < activeSourceRequests.length; i++) {... */\n    tag_298:\n        /* \"weusd/manageusd.sol\":12094:12114  activeSourceRequests */\n      0x06\n        /* \"weusd/manageusd.sol\":12094:12121  activeSourceRequests.length */\n      sload\n        /* \"weusd/manageusd.sol\":12090:12121  i < activeSourceRequests.length */\n      dup2\n      lt\n        /* \"weusd/manageusd.sol\":12070:12257  for (uint256 i = 0; i < activeSourceRequests.length; i++) {... */\n      iszero\n      tag_299\n      jumpi\n        /* \"weusd/manageusd.sol\":12189:12194  _user */\n      dup7\n      sub(shl(0xa0, 0x01), 0x01)\n        /* \"weusd/manageusd.sol\":12147:12194  requests[activeSourceRequests[i]].user == _user */\n      and\n        /* \"weusd/manageusd.sol\":12147:12155  requests */\n      0x0a\n        /* \"weusd/manageusd.sol\":12147:12180  requests[activeSourceRequests[i]] */\n      0x00\n        /* \"weusd/manageusd.sol\":12156:12176  activeSourceRequests */\n      0x06\n        /* \"weusd/manageusd.sol\":12177:12178  i */\n      dup5\n        /* \"weusd/manageusd.sol\":12156:12179  activeSourceRequests[i] */\n      dup2\n      sload\n      dup2\n      lt\n      tag_302\n      jumpi\n      tag_302\n      tag_303\n      jump\t// in\n    tag_302:\n      0x00\n      swap2\n      dup3\n      mstore\n      0x20\n      dup1\n      dup4\n      keccak256\n      swap1\n      swap2\n      add\n      sload\n        /* \"weusd/manageusd.sol\":12147:12180  requests[activeSourceRequests[i]] */\n      dup4\n      mstore\n      dup3\n      add\n      swap3\n      swap1\n      swap3\n      mstore\n      0x40\n      add\n      swap1\n      keccak256\n        /* \"weusd/manageusd.sol\":12147:12185  requests[activeSourceRequests[i]].user */\n      0x01\n      add\n      sload\n      sub(shl(0xa0, 0x01), 0x01)\n      and\n        /* \"weusd/manageusd.sol\":12147:12194  requests[activeSourceRequests[i]].user == _user */\n      sub\n        /* \"weusd/manageusd.sol\":12143:12246  if (requests[activeSourceRequests[i]].user == _user) {... */\n      tag_305\n      jumpi\n        /* \"weusd/manageusd.sol\":12215:12230  totalRequests++ */\n      dup2\n      tag_306\n      dup2\n      tag_210\n      jump\t// in\n    tag_306:\n      swap3\n      pop\n      pop\n        /* \"weusd/manageusd.sol\":12143:12246  if (requests[activeSourceRequests[i]].user == _user) {... */\n    tag_305:\n        /* \"weusd/manageusd.sol\":12123:12126  i++ */\n      0x01\n      add\n        /* \"weusd/manageusd.sol\":12070:12257  for (uint256 i = 0; i < activeSourceRequests.length; i++) {... */\n      jump(tag_298)\n    tag_299:\n      pop\n        /* \"weusd/manageusd.sol\":12269:12287  uint256 startIndex */\n      0x00\n        /* \"weusd/manageusd.sol\":12321:12334  totalRequests */\n      dup2\n        /* \"weusd/manageusd.sol\":12351:12360  _page > 0 */\n      dup7\n      iszero\n      dup1\n      iszero\n      swap1\n        /* \"weusd/manageusd.sol\":12351:12377  _page > 0 && _pageSize > 0 */\n      tag_307\n      jumpi\n      pop\n        /* \"weusd/manageusd.sol\":12376:12377  0 */\n      0x00\n        /* \"weusd/manageusd.sol\":12364:12373  _pageSize */\n      dup7\n        /* \"weusd/manageusd.sol\":12364:12377  _pageSize > 0 */\n      gt\n        /* \"weusd/manageusd.sol\":12351:12377  _page > 0 && _pageSize > 0 */\n    tag_307:\n        /* \"weusd/manageusd.sol\":12347:12632  if (_page > 0 && _pageSize > 0) {... */\n      iszero\n      tag_315\n      jumpi\n        /* \"weusd/manageusd.sol\":12424:12441  _page * _pageSize */\n      tag_309\n        /* \"weusd/manageusd.sol\":12432:12441  _pageSize */\n      dup7\n        /* \"weusd/manageusd.sol\":12424:12429  _page */\n      dup9\n        /* \"weusd/manageusd.sol\":12424:12441  _page * _pageSize */\n      tag_310\n      jump\t// in\n    tag_309:\n        /* \"weusd/manageusd.sol\":12407:12442  totalRequests - (_page * _pageSize) */\n      tag_311\n      swap1\n        /* \"weusd/manageusd.sol\":12407:12420  totalRequests */\n      dup5\n        /* \"weusd/manageusd.sol\":12407:12442  totalRequests - (_page * _pageSize) */\n      tag_216\n      jump\t// in\n    tag_311:\n        /* \"weusd/manageusd.sol\":12394:12442  startIndex = totalRequests - (_page * _pageSize) */\n      swap2\n      pop\n        /* \"weusd/manageusd.sol\":12474:12487  totalRequests */\n      dup3\n        /* \"weusd/manageusd.sol\":12461:12471  startIndex */\n      dup3\n        /* \"weusd/manageusd.sol\":12461:12487  startIndex > totalRequests */\n      gt\n        /* \"weusd/manageusd.sol\":12457:12503  if (startIndex > totalRequests) startIndex = 0 */\n      iszero\n      tag_312\n      jumpi\n        /* \"weusd/manageusd.sol\":12502:12503  0 */\n      0x00\n        /* \"weusd/manageusd.sol\":12489:12503  startIndex = 0 */\n      swap2\n      pop\n        /* \"weusd/manageusd.sol\":12457:12503  if (startIndex > totalRequests) startIndex = 0 */\n    tag_312:\n        /* \"weusd/manageusd.sol\":12529:12551  startIndex + _pageSize */\n      tag_313\n        /* \"weusd/manageusd.sol\":12542:12551  _pageSize */\n      dup7\n        /* \"weusd/manageusd.sol\":12529:12539  startIndex */\n      dup4\n        /* \"weusd/manageusd.sol\":12529:12551  startIndex + _pageSize */\n      tag_314\n      jump\t// in\n    tag_313:\n        /* \"weusd/manageusd.sol\":12518:12551  endIndex = startIndex + _pageSize */\n      swap1\n      pop\n        /* \"weusd/manageusd.sol\":12581:12594  totalRequests */\n      dup3\n        /* \"weusd/manageusd.sol\":12570:12578  endIndex */\n      dup2\n        /* \"weusd/manageusd.sol\":12570:12594  endIndex > totalRequests */\n      gt\n        /* \"weusd/manageusd.sol\":12566:12620  if (endIndex > totalRequests) endIndex = totalRequests */\n      iszero\n      tag_315\n      jumpi\n      pop\n        /* \"weusd/manageusd.sol\":12607:12620  totalRequests */\n      dup2\n        /* \"weusd/manageusd.sol\":12566:12620  if (endIndex > totalRequests) endIndex = totalRequests */\n    tag_315:\n        /* \"weusd/manageusd.sol\":12644:12679  uint256[] memory userSourceRequests */\n      0x00\n        /* \"weusd/manageusd.sol\":12696:12717  endIndex - startIndex */\n      tag_316\n        /* \"weusd/manageusd.sol\":12707:12717  startIndex */\n      dup4\n        /* \"weusd/manageusd.sol\":12696:12704  endIndex */\n      dup4\n        /* \"weusd/manageusd.sol\":12696:12717  endIndex - startIndex */\n      tag_216\n      jump\t// in\n    tag_316:\n        /* \"weusd/manageusd.sol\":12682:12718  new uint256[](endIndex - startIndex) */\n      0xffffffffffffffff\n      dup2\n      gt\n      iszero\n      tag_318\n      jumpi\n      tag_318\n      tag_319\n      jump\t// in\n    tag_318:\n      mload(0x40)\n      swap1\n      dup1\n      dup3\n      mstore\n      dup1\n      0x20\n      mul\n      0x20\n      add\n      dup3\n      add\n      0x40\n      mstore\n      dup1\n      iszero\n      tag_320\n      jumpi\n      dup2\n      0x20\n      add\n      0x20\n      dup3\n      mul\n      dup1\n      calldatasize\n      dup4\n      calldatacopy\n      add\n      swap1\n      pop\n    tag_320:\n      pop\n        /* \"weusd/manageusd.sol\":12776:12796  activeSourceRequests */\n      0x06\n        /* \"weusd/manageusd.sol\":12776:12803  activeSourceRequests.length */\n      sload\n        /* \"weusd/manageusd.sol\":12644:12718  uint256[] memory userSourceRequests = new uint256[](endIndex - startIndex) */\n      swap1\n      swap2\n      pop\n        /* \"weusd/manageusd.sol\":12729:12742  uint256 count */\n      0x00\n      swap1\n        /* \"weusd/manageusd.sol\":12759:13217  for (uint256 i = activeSourceRequests.length; i > 0 && count < userSourceRequests.length; i--) {... */\n    tag_321:\n        /* \"weusd/manageusd.sol\":12809:12810  0 */\n      0x00\n        /* \"weusd/manageusd.sol\":12805:12806  i */\n      dup2\n        /* \"weusd/manageusd.sol\":12805:12810  i > 0 */\n      gt\n        /* \"weusd/manageusd.sol\":12805:12847  i > 0 && count < userSourceRequests.length */\n      dup1\n      iszero\n      tag_324\n      jumpi\n      pop\n        /* \"weusd/manageusd.sol\":12822:12840  userSourceRequests */\n      dup3\n        /* \"weusd/manageusd.sol\":12822:12847  userSourceRequests.length */\n      mload\n        /* \"weusd/manageusd.sol\":12814:12819  count */\n      dup3\n        /* \"weusd/manageusd.sol\":12814:12847  count < userSourceRequests.length */\n      lt\n        /* \"weusd/manageusd.sol\":12805:12847  i > 0 && count < userSourceRequests.length */\n    tag_324:\n        /* \"weusd/manageusd.sol\":12759:13217  for (uint256 i = activeSourceRequests.length; i > 0 && count < userSourceRequests.length; i--) {... */\n      iszero\n      tag_322\n      jumpi\n        /* \"weusd/manageusd.sol\":12869:12886  uint256 requestId */\n      0x00\n        /* \"weusd/manageusd.sol\":12889:12909  activeSourceRequests */\n      0x06\n        /* \"weusd/manageusd.sol\":12910:12913  i-1 */\n      tag_325\n        /* \"weusd/manageusd.sol\":12912:12913  1 */\n      0x01\n        /* \"weusd/manageusd.sol\":12910:12911  i */\n      dup5\n        /* \"weusd/manageusd.sol\":12910:12913  i-1 */\n      tag_216\n      jump\t// in\n    tag_325:\n        /* \"weusd/manageusd.sol\":12889:12914  activeSourceRequests[i-1] */\n      dup2\n      sload\n      dup2\n      lt\n      tag_327\n      jumpi\n      tag_327\n      tag_303\n      jump\t// in\n    tag_327:\n      0x00\n      swap2\n      dup3\n      mstore\n      0x20\n      dup1\n      dup4\n      keccak256\n      swap1\n      swap2\n      add\n      sload\n        /* \"weusd/manageusd.sol\":12933:12952  requests[requestId] */\n      dup1\n      dup4\n      mstore\n        /* \"weusd/manageusd.sol\":12933:12941  requests */\n      0x0a\n        /* \"weusd/manageusd.sol\":12933:12952  requests[requestId] */\n      swap1\n      swap2\n      mstore\n      0x40\n      swap1\n      swap2\n      keccak256\n        /* \"weusd/manageusd.sol\":12933:12957  requests[requestId].user */\n      0x01\n      add\n      sload\n        /* \"weusd/manageusd.sol\":12889:12914  activeSourceRequests[i-1] */\n      swap1\n      swap2\n      pop\n      sub(shl(0xa0, 0x01), 0x01)\n        /* \"weusd/manageusd.sol\":12933:12966  requests[requestId].user == _user */\n      dup1\n      dup15\n      and\n        /* \"weusd/manageusd.sol\":12933:12957  requests[requestId].user */\n      swap2\n      and\n        /* \"weusd/manageusd.sol\":12933:12966  requests[requestId].user == _user */\n      sub\n        /* \"weusd/manageusd.sol\":12929:13206  if (requests[requestId].user == _user) {... */\n      tag_335\n      jumpi\n        /* \"weusd/manageusd.sol\":13015:13025  startIndex */\n      dup6\n        /* \"weusd/manageusd.sol\":12991:13012  totalRequests - count */\n      tag_330\n        /* \"weusd/manageusd.sol\":13007:13012  count */\n      dup5\n        /* \"weusd/manageusd.sol\":12991:13004  totalRequests */\n      dup10\n        /* \"weusd/manageusd.sol\":12991:13012  totalRequests - count */\n      tag_216\n      jump\t// in\n    tag_330:\n        /* \"weusd/manageusd.sol\":12991:13025  totalRequests - count > startIndex */\n      gt\n        /* \"weusd/manageusd.sol\":12987:13191  if (totalRequests - count > startIndex) {... */\n      iszero\n      tag_331\n      jumpi\n        /* \"weusd/manageusd.sol\":13078:13087  requestId */\n      dup1\n        /* \"weusd/manageusd.sol\":13050:13068  userSourceRequests */\n      dup5\n        /* \"weusd/manageusd.sol\":13069:13074  count */\n      dup5\n        /* \"weusd/manageusd.sol\":13050:13075  userSourceRequests[count] */\n      dup2\n      mload\n      dup2\n      lt\n      tag_333\n      jumpi\n      tag_333\n      tag_303\n      jump\t// in\n    tag_333:\n      0x20\n      swap1\n      dup2\n      mul\n      swap2\n      swap1\n      swap2\n      add\n      add\n        /* \"weusd/manageusd.sol\":13050:13087  userSourceRequests[count] = requestId */\n      mstore\n        /* \"weusd/manageusd.sol\":13110:13117  count++ */\n      dup3\n      tag_334\n      dup2\n      tag_210\n      jump\t// in\n    tag_334:\n      swap4\n      pop\n      pop\n        /* \"weusd/manageusd.sol\":12987:13191  if (totalRequests - count > startIndex) {... */\n      jump(tag_335)\n    tag_331:\n        /* \"weusd/manageusd.sol\":13166:13171  break */\n      pop\n      jump(tag_322)\n        /* \"weusd/manageusd.sol\":12987:13191  if (totalRequests - count > startIndex) {... */\n    tag_335:\n      pop\n        /* \"weusd/manageusd.sol\":12849:12852  i-- */\n      dup1\n      tag_336\n      dup2\n      tag_337\n      jump\t// in\n    tag_336:\n      swap2\n      pop\n      pop\n        /* \"weusd/manageusd.sol\":12759:13217  for (uint256 i = activeSourceRequests.length; i > 0 && count < userSourceRequests.length; i--) {... */\n      jump(tag_321)\n    tag_322:\n      pop\n        /* \"weusd/manageusd.sol\":13237:13255  userSourceRequests */\n      swap1\n      swap6\n      pop\n        /* \"weusd/manageusd.sol\":13257:13270  totalRequests */\n      swap3\n      swap4\n      pop\n      pop\n      pop\n      pop\n        /* \"weusd/manageusd.sol\":11784:13279  function getUserSourceRequests(address _user, uint256 _page, uint256 _pageSize) public view returns (uint256[] memory, uint256) {... */\n    tag_291:\n      swap4\n      pop\n      swap4\n      swap2\n      pop\n      pop\n      jump\t// out\n        /* \"weusd/manageusd.sol\":5163:5799  function mintWeUSD(address stablecoin, uint256 stablecoinAmount) external {... */\n    tag_145:\n      sub(shl(0xa0, 0x01), 0x01)\n        /* \"weusd/manageusd.sol\":5256:5289  registeredStablecoins[stablecoin] */\n      dup3\n      and\n      0x00\n      swap1\n      dup2\n      mstore\n        /* \"weusd/manageusd.sol\":5256:5277  registeredStablecoins */\n      0x08\n        /* \"weusd/manageusd.sol\":5256:5289  registeredStablecoins[stablecoin] */\n      0x20\n      mstore\n      0x40\n      swap1\n      keccak256\n      sload\n      0xff\n      and\n        /* \"weusd/manageusd.sol\":5248:5319  require(registeredStablecoins[stablecoin], \"Stablecoin not registered\") */\n      tag_339\n      jumpi\n      mload(0x40)\n      shl(0xe5, 0x461bcd)\n      dup2\n      mstore\n        /* \"#utility.yul\":11058:11060   */\n      0x20\n        /* \"weusd/manageusd.sol\":5248:5319  require(registeredStablecoins[stablecoin], \"Stablecoin not registered\") */\n      0x04\n      dup3\n      add\n        /* \"#utility.yul\":11040:11061   */\n      mstore\n        /* \"#utility.yul\":11097:11099   */\n      0x19\n        /* \"#utility.yul\":11077:11095   */\n      0x24\n      dup3\n      add\n        /* \"#utility.yul\":11070:11100   */\n      mstore\n      shl(0x3a, 0x14dd18589b1958dbda5b881b9bdd081c9959da5cdd195c9959)\n        /* \"#utility.yul\":11116:11134   */\n      0x44\n      dup3\n      add\n        /* \"#utility.yul\":11109:11164   */\n      mstore\n        /* \"#utility.yul\":11181:11199   */\n      0x64\n      add\n        /* \"weusd/manageusd.sol\":5248:5319  require(registeredStablecoins[stablecoin], \"Stablecoin not registered\") */\n      tag_201\n        /* \"#utility.yul\":10856:11205   */\n      jump\n        /* \"weusd/manageusd.sol\":5248:5319  require(registeredStablecoins[stablecoin], \"Stablecoin not registered\") */\n    tag_339:\n        /* \"weusd/manageusd.sol\":5330:5354  uint8 stablecoinDecimals */\n      0x00\n        /* \"weusd/manageusd.sol\":5372:5382  stablecoin */\n      dup3\n      sub(shl(0xa0, 0x01), 0x01)\n        /* \"weusd/manageusd.sol\":5357:5392  IERC20Metadata(stablecoin).decimals */\n      and\n      0x313ce567\n        /* \"weusd/manageusd.sol\":5357:5394  IERC20Metadata(stablecoin).decimals() */\n      mload(0x40)\n      dup2\n      0xffffffff\n      and\n      0xe0\n      shl\n      dup2\n      mstore\n      0x04\n      add\n      0x20\n      mload(0x40)\n      dup1\n      dup4\n      sub\n      dup2\n      dup7\n      gas\n      staticcall\n      iszero\n      dup1\n      iszero\n      tag_343\n      jumpi\n      returndatasize\n      0x00\n      dup1\n      returndatacopy\n      revert(0x00, returndatasize)\n    tag_343:\n      pop\n      pop\n      pop\n      pop\n      mload(0x40)\n      returndatasize\n      not(0x1f)\n      0x1f\n      dup3\n      add\n      and\n      dup3\n      add\n      dup1\n      0x40\n      mstore\n      pop\n      dup2\n      add\n      swap1\n      tag_344\n      swap2\n      swap1\n      tag_345\n      jump\t// in\n    tag_344:\n        /* \"weusd/manageusd.sol\":5330:5394  uint8 stablecoinDecimals = IERC20Metadata(stablecoin).decimals() */\n      swap1\n      pop\n        /* \"weusd/manageusd.sol\":5405:5424  uint256 weUSDAmount */\n      0x00\n        /* \"weusd/manageusd.sol\":5427:5496  convertDecimals(stablecoinAmount, stablecoinDecimals, WEUSD_DECIMALS) */\n      tag_346\n        /* \"weusd/manageusd.sol\":5443:5459  stablecoinAmount */\n      dup4\n        /* \"weusd/manageusd.sol\":5461:5479  stablecoinDecimals */\n      dup4\n        /* \"weusd/manageusd.sol\":961:962  6 */\n      0x06\n        /* \"weusd/manageusd.sol\":5427:5442  convertDecimals */\n      tag_347\n        /* \"weusd/manageusd.sol\":5427:5496  convertDecimals(stablecoinAmount, stablecoinDecimals, WEUSD_DECIMALS) */\n      jump\t// in\n    tag_346:\n        /* \"weusd/manageusd.sol\":5600:5612  mainContract */\n      sload(0x01)\n        /* \"weusd/manageusd.sol\":5548:5632  IERC20(stablecoin).transferFrom(msg.sender, address(mainContract), stablecoinAmount) */\n      mload(0x40)\n      shl(0xe0, 0x23b872dd)\n      dup2\n      mstore\n        /* \"weusd/manageusd.sol\":5580:5590  msg.sender */\n      caller\n        /* \"weusd/manageusd.sol\":5548:5632  IERC20(stablecoin).transferFrom(msg.sender, address(mainContract), stablecoinAmount) */\n      0x04\n      dup3\n      add\n        /* \"#utility.yul\":7862:7913   */\n      mstore\n      sub(shl(0xa0, 0x01), 0x01)\n        /* \"weusd/manageusd.sol\":5600:5612  mainContract */\n      0x0100\n      swap1\n      swap3\n      div\n      dup3\n      and\n        /* \"#utility.yul\":7929:7947   */\n      0x24\n      dup3\n      add\n        /* \"#utility.yul\":7922:7982   */\n      mstore\n        /* \"#utility.yul\":7998:8016   */\n      0x44\n      dup2\n      add\n        /* \"#utility.yul\":7991:8025   */\n      dup7\n      swap1\n      mstore\n        /* \"weusd/manageusd.sol\":5405:5496  uint256 weUSDAmount = convertDecimals(stablecoinAmount, stablecoinDecimals, WEUSD_DECIMALS) */\n      swap2\n      swap3\n      pop\n        /* \"weusd/manageusd.sol\":5548:5579  IERC20(stablecoin).transferFrom */\n      dup6\n      and\n      swap1\n      0x23b872dd\n      swap1\n        /* \"#utility.yul\":7835:7853   */\n      0x64\n      add\n        /* \"weusd/manageusd.sol\":5548:5632  IERC20(stablecoin).transferFrom(msg.sender, address(mainContract), stablecoinAmount) */\n      0x20\n      mload(0x40)\n      dup1\n      dup4\n      sub\n      dup2\n      0x00\n      dup8\n      gas\n      call\n      iszero\n      dup1\n      iszero\n      tag_350\n      jumpi\n      returndatasize\n      0x00\n      dup1\n      returndatacopy\n      revert(0x00, returndatasize)\n    tag_350:\n      pop\n      pop\n      pop\n      pop\n      mload(0x40)\n      returndatasize\n      not(0x1f)\n      0x1f\n      dup3\n      add\n      and\n      dup3\n      add\n      dup1\n      0x40\n      mstore\n      pop\n      dup2\n      add\n      swap1\n      tag_351\n      swap2\n      swap1\n      tag_222\n      jump\t// in\n    tag_351:\n        /* \"weusd/manageusd.sol\":5540:5663  require(IERC20(stablecoin).transferFrom(msg.sender, address(mainContract), stablecoinAmount), \"Stablecoin transfer failed\") */\n      tag_352\n      jumpi\n      mload(0x40)\n      shl(0xe5, 0x461bcd)\n      dup2\n      mstore\n        /* \"#utility.yul\":11690:11692   */\n      0x20\n        /* \"weusd/manageusd.sol\":5540:5663  require(IERC20(stablecoin).transferFrom(msg.sender, address(mainContract), stablecoinAmount), \"Stablecoin transfer failed\") */\n      0x04\n      dup3\n      add\n        /* \"#utility.yul\":11672:11693   */\n      mstore\n        /* \"#utility.yul\":11729:11731   */\n      0x1a\n        /* \"#utility.yul\":11709:11727   */\n      0x24\n      dup3\n      add\n        /* \"#utility.yul\":11702:11732   */\n      mstore\n        /* \"#utility.yul\":11768:11796   */\n      0x537461626c65636f696e207472616e73666572206661696c6564000000000000\n        /* \"#utility.yul\":11748:11766   */\n      0x44\n      dup3\n      add\n        /* \"#utility.yul\":11741:11797   */\n      mstore\n        /* \"#utility.yul\":11814:11832   */\n      0x64\n      add\n        /* \"weusd/manageusd.sol\":5540:5663  require(IERC20(stablecoin).transferFrom(msg.sender, address(mainContract), stablecoinAmount), \"Stablecoin transfer failed\") */\n      tag_201\n        /* \"#utility.yul\":11488:11838   */\n      jump\n        /* \"weusd/manageusd.sol\":5540:5663  require(IERC20(stablecoin).transferFrom(msg.sender, address(mainContract), stablecoinAmount), \"Stablecoin transfer failed\") */\n    tag_352:\n        /* \"weusd/manageusd.sol\":5674:5679  weUSD */\n      sload(0x02)\n        /* \"weusd/manageusd.sol\":5674:5709  weUSD.mint(msg.sender, weUSDAmount) */\n      mload(0x40)\n      shl(0xe0, 0x40c10f19)\n      dup2\n      mstore\n        /* \"weusd/manageusd.sol\":5685:5695  msg.sender */\n      caller\n        /* \"weusd/manageusd.sol\":5674:5709  weUSD.mint(msg.sender, weUSDAmount) */\n      0x04\n      dup3\n      add\n        /* \"#utility.yul\":8492:8543   */\n      mstore\n        /* \"#utility.yul\":8559:8577   */\n      0x24\n      dup2\n      add\n        /* \"#utility.yul\":8552:8586   */\n      dup4\n      swap1\n      mstore\n      sub(shl(0xa0, 0x01), 0x01)\n        /* \"weusd/manageusd.sol\":5674:5679  weUSD */\n      swap1\n      swap2\n      and\n      swap1\n        /* \"weusd/manageusd.sol\":5674:5684  weUSD.mint */\n      0x40c10f19\n      swap1\n        /* \"#utility.yul\":8465:8483   */\n      0x44\n      add\n        /* \"weusd/manageusd.sol\":5674:5709  weUSD.mint(msg.sender, weUSDAmount) */\n      0x00\n      mload(0x40)\n      dup1\n      dup4\n      sub\n      dup2\n      0x00\n      dup8\n      dup1\n      extcodesize\n      iszero\n      dup1\n      iszero\n      tag_356\n      jumpi\n      0x00\n      dup1\n      revert\n    tag_356:\n      pop\n      gas\n      call\n      iszero\n      dup1\n      iszero\n      tag_358\n      jumpi\n      returndatasize\n      0x00\n      dup1\n      returndatacopy\n      revert(0x00, returndatasize)\n    tag_358:\n      pop\n      pop\n        /* \"weusd/manageusd.sol\":5725:5791  MintedWeUSD(msg.sender, stablecoin, stablecoinAmount, weUSDAmount) */\n      0x40\n      dup1\n      mload\n        /* \"#utility.yul\":12017:12042   */\n      dup7\n      dup2\n      mstore\n        /* \"#utility.yul\":12073:12075   */\n      0x20\n        /* \"#utility.yul\":12058:12076   */\n      dup2\n      add\n        /* \"#utility.yul\":12051:12085   */\n      dup6\n      swap1\n      mstore\n      sub(shl(0xa0, 0x01), 0x01)\n        /* \"weusd/manageusd.sol\":5725:5791  MintedWeUSD(msg.sender, stablecoin, stablecoinAmount, weUSDAmount) */\n      dup9\n      and\n      swap4\n      pop\n        /* \"weusd/manageusd.sol\":5737:5747  msg.sender */\n      caller\n      swap3\n      pop\n        /* \"weusd/manageusd.sol\":5725:5791  MintedWeUSD(msg.sender, stablecoin, stablecoinAmount, weUSDAmount) */\n      0x66c62f0863782653c5c44e10bf21d9def60984ce20d9f75549575a8910896587\n      swap2\n        /* \"#utility.yul\":11990:12008   */\n      add\n        /* \"weusd/manageusd.sol\":5725:5791  MintedWeUSD(msg.sender, stablecoin, stablecoinAmount, weUSDAmount) */\n    tag_359:\n      mload(0x40)\n      dup1\n      swap2\n      sub\n      swap1\n      log3\n        /* \"weusd/manageusd.sol\":5237:5799  {... */\n      pop\n      pop\n        /* \"weusd/manageusd.sol\":5163:5799  function mintWeUSD(address stablecoin, uint256 stablecoinAmount) external {... */\n      pop\n      pop\n      jump\t// out\n        /* \"weusd/manageusd.sol\":13903:15398  function getUserTargetRequests(address _user, uint256 _page, uint256 _pageSize) public view returns (uint256[] memory, uint256) {... */\n    tag_152:\n        /* \"weusd/manageusd.sol\":14004:14020  uint256[] memory */\n      0x60\n        /* \"weusd/manageusd.sol\":14022:14029  uint256 */\n      0x00\n        /* \"weusd/manageusd.sol\":14050:14060  _page == 0 */\n      dup4\n      iszero\n      dup1\n        /* \"weusd/manageusd.sol\":14050:14078  _page == 0 || _pageSize == 0 */\n      tag_362\n      jumpi\n      pop\n        /* \"weusd/manageusd.sol\":14064:14078  _pageSize == 0 */\n      dup3\n      iszero\n        /* \"weusd/manageusd.sol\":14050:14078  _page == 0 || _pageSize == 0 */\n    tag_362:\n        /* \"weusd/manageusd.sol\":14050:14110  _page == 0 || _pageSize == 0 || (_page > 0 && _pageSize > 0) */\n      dup1\n      tag_364\n      jumpi\n      pop\n        /* \"weusd/manageusd.sol\":14091:14092  0 */\n      0x00\n        /* \"weusd/manageusd.sol\":14083:14088  _page */\n      dup5\n        /* \"weusd/manageusd.sol\":14083:14092  _page > 0 */\n      gt\n        /* \"weusd/manageusd.sol\":14083:14109  _page > 0 && _pageSize > 0 */\n      dup1\n      iszero\n      tag_364\n      jumpi\n      pop\n        /* \"weusd/manageusd.sol\":14108:14109  0 */\n      0x00\n        /* \"weusd/manageusd.sol\":14096:14105  _pageSize */\n      dup4\n        /* \"weusd/manageusd.sol\":14096:14109  _pageSize > 0 */\n      gt\n        /* \"weusd/manageusd.sol\":14083:14109  _page > 0 && _pageSize > 0 */\n    tag_364:\n        /* \"weusd/manageusd.sol\":14042:14140  require(_page == 0 || _pageSize == 0 || (_page > 0 && _pageSize > 0), \"Invalid page or page size\") */\n      tag_365\n      jumpi\n      mload(0x40)\n      shl(0xe5, 0x461bcd)\n      dup2\n      mstore\n        /* \"#utility.yul\":9996:9998   */\n      0x20\n        /* \"weusd/manageusd.sol\":14042:14140  require(_page == 0 || _pageSize == 0 || (_page > 0 && _pageSize > 0), \"Invalid page or page size\") */\n      0x04\n      dup3\n      add\n        /* \"#utility.yul\":9978:9999   */\n      mstore\n        /* \"#utility.yul\":10035:10037   */\n      0x19\n        /* \"#utility.yul\":10015:10033   */\n      0x24\n      dup3\n      add\n        /* \"#utility.yul\":10008:10038   */\n      mstore\n      shl(0x38, 0x496e76616c69642070616765206f7220706167652073697a65)\n        /* \"#utility.yul\":10054:10072   */\n      0x44\n      dup3\n      add\n        /* \"#utility.yul\":10047:10102   */\n      mstore\n        /* \"#utility.yul\":10119:10137   */\n      0x64\n      add\n        /* \"weusd/manageusd.sol\":14042:14140  require(_page == 0 || _pageSize == 0 || (_page > 0 && _pageSize > 0), \"Invalid page or page size\") */\n      tag_201\n        /* \"#utility.yul\":9794:10143   */\n      jump\n        /* \"weusd/manageusd.sol\":14042:14140  require(_page == 0 || _pageSize == 0 || (_page > 0 && _pageSize > 0), \"Invalid page or page size\") */\n    tag_365:\n        /* \"weusd/manageusd.sol\":14153:14174  uint256 totalRequests */\n      0x00\n        /* \"weusd/manageusd.sol\":14194:14203  uint256 i */\n      dup1\n        /* \"weusd/manageusd.sol\":14189:14376  for (uint256 i = 0; i < activeTargetRequests.length; i++) {... */\n    tag_367:\n        /* \"weusd/manageusd.sol\":14213:14233  activeTargetRequests */\n      0x07\n        /* \"weusd/manageusd.sol\":14213:14240  activeTargetRequests.length */\n      sload\n        /* \"weusd/manageusd.sol\":14209:14240  i < activeTargetRequests.length */\n      dup2\n      lt\n        /* \"weusd/manageusd.sol\":14189:14376  for (uint256 i = 0; i < activeTargetRequests.length; i++) {... */\n      iszero\n      tag_368\n      jumpi\n        /* \"weusd/manageusd.sol\":14308:14313  _user */\n      dup7\n      sub(shl(0xa0, 0x01), 0x01)\n        /* \"weusd/manageusd.sol\":14266:14313  requests[activeTargetRequests[i]].user == _user */\n      and\n        /* \"weusd/manageusd.sol\":14266:14274  requests */\n      0x0a\n        /* \"weusd/manageusd.sol\":14266:14299  requests[activeTargetRequests[i]] */\n      0x00\n        /* \"weusd/manageusd.sol\":14275:14295  activeTargetRequests */\n      0x07\n        /* \"weusd/manageusd.sol\":14296:14297  i */\n      dup5\n        /* \"weusd/manageusd.sol\":14275:14298  activeTargetRequests[i] */\n      dup2\n      sload\n      dup2\n      lt\n      tag_371\n      jumpi\n      tag_371\n      tag_303\n      jump\t// in\n    tag_371:\n      0x00\n      swap2\n      dup3\n      mstore\n      0x20\n      dup1\n      dup4\n      keccak256\n      swap1\n      swap2\n      add\n      sload\n        /* \"weusd/manageusd.sol\":14266:14299  requests[activeTargetRequests[i]] */\n      dup4\n      mstore\n      dup3\n      add\n      swap3\n      swap1\n      swap3\n      mstore\n      0x40\n      add\n      swap1\n      keccak256\n        /* \"weusd/manageusd.sol\":14266:14304  requests[activeTargetRequests[i]].user */\n      0x01\n      add\n      sload\n      sub(shl(0xa0, 0x01), 0x01)\n      and\n        /* \"weusd/manageusd.sol\":14266:14313  requests[activeTargetRequests[i]].user == _user */\n      sub\n        /* \"weusd/manageusd.sol\":14262:14365  if (requests[activeTargetRequests[i]].user == _user) {... */\n      tag_373\n      jumpi\n        /* \"weusd/manageusd.sol\":14334:14349  totalRequests++ */\n      dup2\n      tag_374\n      dup2\n      tag_210\n      jump\t// in\n    tag_374:\n      swap3\n      pop\n      pop\n        /* \"weusd/manageusd.sol\":14262:14365  if (requests[activeTargetRequests[i]].user == _user) {... */\n    tag_373:\n        /* \"weusd/manageusd.sol\":14242:14245  i++ */\n      0x01\n      add\n        /* \"weusd/manageusd.sol\":14189:14376  for (uint256 i = 0; i < activeTargetRequests.length; i++) {... */\n      jump(tag_367)\n    tag_368:\n      pop\n        /* \"weusd/manageusd.sol\":14388:14406  uint256 startIndex */\n      0x00\n        /* \"weusd/manageusd.sol\":14440:14453  totalRequests */\n      dup2\n        /* \"weusd/manageusd.sol\":14470:14479  _page > 0 */\n      dup7\n      iszero\n      dup1\n      iszero\n      swap1\n        /* \"weusd/manageusd.sol\":14470:14496  _page > 0 && _pageSize > 0 */\n      tag_375\n      jumpi\n      pop\n        /* \"weusd/manageusd.sol\":14495:14496  0 */\n      0x00\n        /* \"weusd/manageusd.sol\":14483:14492  _pageSize */\n      dup7\n        /* \"weusd/manageusd.sol\":14483:14496  _pageSize > 0 */\n      gt\n        /* \"weusd/manageusd.sol\":14470:14496  _page > 0 && _pageSize > 0 */\n    tag_375:\n        /* \"weusd/manageusd.sol\":14466:14751  if (_page > 0 && _pageSize > 0) {... */\n      iszero\n      tag_381\n      jumpi\n        /* \"weusd/manageusd.sol\":14543:14560  _page * _pageSize */\n      tag_377\n        /* \"weusd/manageusd.sol\":14551:14560  _pageSize */\n      dup7\n        /* \"weusd/manageusd.sol\":14543:14548  _page */\n      dup9\n        /* \"weusd/manageusd.sol\":14543:14560  _page * _pageSize */\n      tag_310\n      jump\t// in\n    tag_377:\n        /* \"weusd/manageusd.sol\":14526:14561  totalRequests - (_page * _pageSize) */\n      tag_378\n      swap1\n        /* \"weusd/manageusd.sol\":14526:14539  totalRequests */\n      dup5\n        /* \"weusd/manageusd.sol\":14526:14561  totalRequests - (_page * _pageSize) */\n      tag_216\n      jump\t// in\n    tag_378:\n        /* \"weusd/manageusd.sol\":14513:14561  startIndex = totalRequests - (_page * _pageSize) */\n      swap2\n      pop\n        /* \"weusd/manageusd.sol\":14593:14606  totalRequests */\n      dup3\n        /* \"weusd/manageusd.sol\":14580:14590  startIndex */\n      dup3\n        /* \"weusd/manageusd.sol\":14580:14606  startIndex > totalRequests */\n      gt\n        /* \"weusd/manageusd.sol\":14576:14622  if (startIndex > totalRequests) startIndex = 0 */\n      iszero\n      tag_379\n      jumpi\n        /* \"weusd/manageusd.sol\":14621:14622  0 */\n      0x00\n        /* \"weusd/manageusd.sol\":14608:14622  startIndex = 0 */\n      swap2\n      pop\n        /* \"weusd/manageusd.sol\":14576:14622  if (startIndex > totalRequests) startIndex = 0 */\n    tag_379:\n        /* \"weusd/manageusd.sol\":14648:14670  startIndex + _pageSize */\n      tag_380\n        /* \"weusd/manageusd.sol\":14661:14670  _pageSize */\n      dup7\n        /* \"weusd/manageusd.sol\":14648:14658  startIndex */\n      dup4\n        /* \"weusd/manageusd.sol\":14648:14670  startIndex + _pageSize */\n      tag_314\n      jump\t// in\n    tag_380:\n        /* \"weusd/manageusd.sol\":14637:14670  endIndex = startIndex + _pageSize */\n      swap1\n      pop\n        /* \"weusd/manageusd.sol\":14700:14713  totalRequests */\n      dup3\n        /* \"weusd/manageusd.sol\":14689:14697  endIndex */\n      dup2\n        /* \"weusd/manageusd.sol\":14689:14713  endIndex > totalRequests */\n      gt\n        /* \"weusd/manageusd.sol\":14685:14739  if (endIndex > totalRequests) endIndex = totalRequests */\n      iszero\n      tag_381\n      jumpi\n      pop\n        /* \"weusd/manageusd.sol\":14726:14739  totalRequests */\n      dup2\n        /* \"weusd/manageusd.sol\":14685:14739  if (endIndex > totalRequests) endIndex = totalRequests */\n    tag_381:\n        /* \"weusd/manageusd.sol\":14763:14798  uint256[] memory userTargetRequests */\n      0x00\n        /* \"weusd/manageusd.sol\":14815:14836  endIndex - startIndex */\n      tag_382\n        /* \"weusd/manageusd.sol\":14826:14836  startIndex */\n      dup4\n        /* \"weusd/manageusd.sol\":14815:14823  endIndex */\n      dup4\n        /* \"weusd/manageusd.sol\":14815:14836  endIndex - startIndex */\n      tag_216\n      jump\t// in\n    tag_382:\n        /* \"weusd/manageusd.sol\":14801:14837  new uint256[](endIndex - startIndex) */\n      0xffffffffffffffff\n      dup2\n      gt\n      iszero\n      tag_384\n      jumpi\n      tag_384\n      tag_319\n      jump\t// in\n    tag_384:\n      mload(0x40)\n      swap1\n      dup1\n      dup3\n      mstore\n      dup1\n      0x20\n      mul\n      0x20\n      add\n      dup3\n      add\n      0x40\n      mstore\n      dup1\n      iszero\n      tag_385\n      jumpi\n      dup2\n      0x20\n      add\n      0x20\n      dup3\n      mul\n      dup1\n      calldatasize\n      dup4\n      calldatacopy\n      add\n      swap1\n      pop\n    tag_385:\n      pop\n        /* \"weusd/manageusd.sol\":14895:14915  activeTargetRequests */\n      0x07\n        /* \"weusd/manageusd.sol\":14895:14922  activeTargetRequests.length */\n      sload\n        /* \"weusd/manageusd.sol\":14763:14837  uint256[] memory userTargetRequests = new uint256[](endIndex - startIndex) */\n      swap1\n      swap2\n      pop\n        /* \"weusd/manageusd.sol\":14848:14861  uint256 count */\n      0x00\n      swap1\n        /* \"weusd/manageusd.sol\":14878:15336  for (uint256 i = activeTargetRequests.length; i > 0 && count < userTargetRequests.length; i--) {... */\n    tag_386:\n        /* \"weusd/manageusd.sol\":14928:14929  0 */\n      0x00\n        /* \"weusd/manageusd.sol\":14924:14925  i */\n      dup2\n        /* \"weusd/manageusd.sol\":14924:14929  i > 0 */\n      gt\n        /* \"weusd/manageusd.sol\":14924:14966  i > 0 && count < userTargetRequests.length */\n      dup1\n      iszero\n      tag_389\n      jumpi\n      pop\n        /* \"weusd/manageusd.sol\":14941:14959  userTargetRequests */\n      dup3\n        /* \"weusd/manageusd.sol\":14941:14966  userTargetRequests.length */\n      mload\n        /* \"weusd/manageusd.sol\":14933:14938  count */\n      dup3\n        /* \"weusd/manageusd.sol\":14933:14966  count < userTargetRequests.length */\n      lt\n        /* \"weusd/manageusd.sol\":14924:14966  i > 0 && count < userTargetRequests.length */\n    tag_389:\n        /* \"weusd/manageusd.sol\":14878:15336  for (uint256 i = activeTargetRequests.length; i > 0 && count < userTargetRequests.length; i--) {... */\n      iszero\n      tag_322\n      jumpi\n        /* \"weusd/manageusd.sol\":14988:15005  uint256 requestId */\n      0x00\n        /* \"weusd/manageusd.sol\":15008:15028  activeTargetRequests */\n      0x07\n        /* \"weusd/manageusd.sol\":15029:15032  i-1 */\n      tag_390\n        /* \"weusd/manageusd.sol\":15031:15032  1 */\n      0x01\n        /* \"weusd/manageusd.sol\":15029:15030  i */\n      dup5\n        /* \"weusd/manageusd.sol\":15029:15032  i-1 */\n      tag_216\n      jump\t// in\n    tag_390:\n        /* \"weusd/manageusd.sol\":15008:15033  activeTargetRequests[i-1] */\n      dup2\n      sload\n      dup2\n      lt\n      tag_392\n      jumpi\n      tag_392\n      tag_303\n      jump\t// in\n    tag_392:\n      0x00\n      swap2\n      dup3\n      mstore\n      0x20\n      dup1\n      dup4\n      keccak256\n      swap1\n      swap2\n      add\n      sload\n        /* \"weusd/manageusd.sol\":15052:15071  requests[requestId] */\n      dup1\n      dup4\n      mstore\n        /* \"weusd/manageusd.sol\":15052:15060  requests */\n      0x0a\n        /* \"weusd/manageusd.sol\":15052:15071  requests[requestId] */\n      swap1\n      swap2\n      mstore\n      0x40\n      swap1\n      swap2\n      keccak256\n        /* \"weusd/manageusd.sol\":15052:15076  requests[requestId].user */\n      0x01\n      add\n      sload\n        /* \"weusd/manageusd.sol\":15008:15033  activeTargetRequests[i-1] */\n      swap1\n      swap2\n      pop\n      sub(shl(0xa0, 0x01), 0x01)\n        /* \"weusd/manageusd.sol\":15052:15085  requests[requestId].user == _user */\n      dup1\n      dup15\n      and\n        /* \"weusd/manageusd.sol\":15052:15076  requests[requestId].user */\n      swap2\n      and\n        /* \"weusd/manageusd.sol\":15052:15085  requests[requestId].user == _user */\n      sub\n        /* \"weusd/manageusd.sol\":15048:15325  if (requests[requestId].user == _user) {... */\n      tag_400\n      jumpi\n        /* \"weusd/manageusd.sol\":15134:15144  startIndex */\n      dup6\n        /* \"weusd/manageusd.sol\":15110:15131  totalRequests - count */\n      tag_395\n        /* \"weusd/manageusd.sol\":15126:15131  count */\n      dup5\n        /* \"weusd/manageusd.sol\":15110:15123  totalRequests */\n      dup10\n        /* \"weusd/manageusd.sol\":15110:15131  totalRequests - count */\n      tag_216\n      jump\t// in\n    tag_395:\n        /* \"weusd/manageusd.sol\":15110:15144  totalRequests - count > startIndex */\n      gt\n        /* \"weusd/manageusd.sol\":15106:15310  if (totalRequests - count > startIndex) {... */\n      iszero\n      tag_331\n      jumpi\n        /* \"weusd/manageusd.sol\":15197:15206  requestId */\n      dup1\n        /* \"weusd/manageusd.sol\":15169:15187  userTargetRequests */\n      dup5\n        /* \"weusd/manageusd.sol\":15188:15193  count */\n      dup5\n        /* \"weusd/manageusd.sol\":15169:15194  userTargetRequests[count] */\n      dup2\n      mload\n      dup2\n      lt\n      tag_398\n      jumpi\n      tag_398\n      tag_303\n      jump\t// in\n    tag_398:\n      0x20\n      swap1\n      dup2\n      mul\n      swap2\n      swap1\n      swap2\n      add\n      add\n        /* \"weusd/manageusd.sol\":15169:15206  userTargetRequests[count] = requestId */\n      mstore\n        /* \"weusd/manageusd.sol\":15229:15236  count++ */\n      dup3\n      tag_399\n      dup2\n      tag_210\n      jump\t// in\n    tag_399:\n      swap4\n      pop\n      pop\n        /* \"weusd/manageusd.sol\":15106:15310  if (totalRequests - count > startIndex) {... */\n    tag_400:\n      pop\n        /* \"weusd/manageusd.sol\":14968:14971  i-- */\n      dup1\n      tag_401\n      dup2\n      tag_337\n      jump\t// in\n    tag_401:\n      swap2\n      pop\n      pop\n        /* \"weusd/manageusd.sol\":14878:15336  for (uint256 i = activeTargetRequests.length; i > 0 && count < userTargetRequests.length; i--) {... */\n      jump(tag_386)\n        /* \"weusd/manageusd.sol\":3086:3187  function setGasfee(uint256 _gasfee) external onlyRole(ADMIN_ROLE) {... */\n    tag_160:\n      0x00\n      dup1\n      mload\n      0x20\n      data_cb864c43dd5d441bb6271f424f11befa622c032dfd374d226e26fbbdb782b8f8\n      dup4\n      codecopy\n      dup2\n      mload\n      swap2\n      mstore\n        /* \"@openzeppelin/contracts/access/AccessControl.sol\":2464:2480  _checkRole(role) */\n      tag_403\n        /* \"@openzeppelin/contracts/access/AccessControl.sol\":2475:2479  role */\n      dup2\n        /* \"@openzeppelin/contracts/access/AccessControl.sol\":2464:2474  _checkRole */\n      tag_234\n        /* \"@openzeppelin/contracts/access/AccessControl.sol\":2464:2480  _checkRole(role) */\n      jump\t// in\n    tag_403:\n      pop\n        /* \"weusd/manageusd.sol\":3163:3169  gasfee */\n      0x04\n        /* \"weusd/manageusd.sol\":3163:3179  gasfee = _gasfee */\n      sstore\n        /* \"weusd/manageusd.sol\":3086:3187  function setGasfee(uint256 _gasfee) external onlyRole(ADMIN_ROLE) {... */\n      jump\t// out\n        /* \"weusd/manageusd.sol\":3954:4139  function registerStablecoin(address stablecoin) external onlyRole(ADMIN_ROLE) {... */\n    tag_163:\n      0x00\n      dup1\n      mload\n      0x20\n      data_cb864c43dd5d441bb6271f424f11befa622c032dfd374d226e26fbbdb782b8f8\n      dup4\n      codecopy\n      dup2\n      mload\n      swap2\n      mstore\n        /* \"@openzeppelin/contracts/access/AccessControl.sol\":2464:2480  _checkRole(role) */\n      tag_406\n        /* \"@openzeppelin/contracts/access/AccessControl.sol\":2475:2479  role */\n      dup2\n        /* \"@openzeppelin/contracts/access/AccessControl.sol\":2464:2474  _checkRole */\n      tag_234\n        /* \"@openzeppelin/contracts/access/AccessControl.sol\":2464:2480  _checkRole(role) */\n      jump\t// in\n    tag_406:\n      sub(shl(0xa0, 0x01), 0x01)\n        /* \"weusd/manageusd.sol\":4043:4076  registeredStablecoins[stablecoin] */\n      dup3\n      and\n      0x00\n      dup2\n      dup2\n      mstore\n        /* \"weusd/manageusd.sol\":4043:4064  registeredStablecoins */\n      0x08\n        /* \"weusd/manageusd.sol\":4043:4076  registeredStablecoins[stablecoin] */\n      0x20\n      mstore\n      0x40\n      dup1\n      dup3\n      keccak256\n        /* \"weusd/manageusd.sol\":4043:4083  registeredStablecoins[stablecoin] = true */\n      dup1\n      sload\n      not(0xff)\n      and\n        /* \"weusd/manageusd.sol\":4079:4083  true */\n      0x01\n        /* \"weusd/manageusd.sol\":4043:4083  registeredStablecoins[stablecoin] = true */\n      or\n      swap1\n      sstore\n        /* \"weusd/manageusd.sol\":4099:4131  StablecoinRegistered(stablecoin) */\n      mload\n      0xd8b2dc62b787ec8afbc8a664cf2fd7c1e7851721acc9e0069132cece3c529c2e\n      swap2\n        /* \"weusd/manageusd.sol\":4043:4076  registeredStablecoins[stablecoin] */\n      swap1\n        /* \"weusd/manageusd.sol\":4099:4131  StablecoinRegistered(stablecoin) */\n      log2\n        /* \"weusd/manageusd.sol\":3954:4139  function registerStablecoin(address stablecoin) external onlyRole(ADMIN_ROLE) {... */\n      pop\n      pop\n      jump\t// out\n        /* \"weusd/manageusd.sol\":6314:6905  function burnWeUSD(address stablecoin, uint256 weUSDAmount) external {... */\n    tag_170:\n      sub(shl(0xa0, 0x01), 0x01)\n        /* \"weusd/manageusd.sol\":6402:6435  registeredStablecoins[stablecoin] */\n      dup3\n      and\n      0x00\n      swap1\n      dup2\n      mstore\n        /* \"weusd/manageusd.sol\":6402:6423  registeredStablecoins */\n      0x08\n        /* \"weusd/manageusd.sol\":6402:6435  registeredStablecoins[stablecoin] */\n      0x20\n      mstore\n      0x40\n      swap1\n      keccak256\n      sload\n      0xff\n      and\n        /* \"weusd/manageusd.sol\":6394:6465  require(registeredStablecoins[stablecoin], \"Stablecoin not registered\") */\n      tag_409\n      jumpi\n      mload(0x40)\n      shl(0xe5, 0x461bcd)\n      dup2\n      mstore\n        /* \"#utility.yul\":11058:11060   */\n      0x20\n        /* \"weusd/manageusd.sol\":6394:6465  require(registeredStablecoins[stablecoin], \"Stablecoin not registered\") */\n      0x04\n      dup3\n      add\n        /* \"#utility.yul\":11040:11061   */\n      mstore\n        /* \"#utility.yul\":11097:11099   */\n      0x19\n        /* \"#utility.yul\":11077:11095   */\n      0x24\n      dup3\n      add\n        /* \"#utility.yul\":11070:11100   */\n      mstore\n      shl(0x3a, 0x14dd18589b1958dbda5b881b9bdd081c9959da5cdd195c9959)\n        /* \"#utility.yul\":11116:11134   */\n      0x44\n      dup3\n      add\n        /* \"#utility.yul\":11109:11164   */\n      mstore\n        /* \"#utility.yul\":11181:11199   */\n      0x64\n      add\n        /* \"weusd/manageusd.sol\":6394:6465  require(registeredStablecoins[stablecoin], \"Stablecoin not registered\") */\n      tag_201\n        /* \"#utility.yul\":10856:11205   */\n      jump\n        /* \"weusd/manageusd.sol\":6394:6465  require(registeredStablecoins[stablecoin], \"Stablecoin not registered\") */\n    tag_409:\n        /* \"weusd/manageusd.sol\":6476:6500  uint8 stablecoinDecimals */\n      0x00\n        /* \"weusd/manageusd.sol\":6518:6528  stablecoin */\n      dup3\n      sub(shl(0xa0, 0x01), 0x01)\n        /* \"weusd/manageusd.sol\":6503:6538  IERC20Metadata(stablecoin).decimals */\n      and\n      0x313ce567\n        /* \"weusd/manageusd.sol\":6503:6540  IERC20Metadata(stablecoin).decimals() */\n      mload(0x40)\n      dup2\n      0xffffffff\n      and\n      0xe0\n      shl\n      dup2\n      mstore\n      0x04\n      add\n      0x20\n      mload(0x40)\n      dup1\n      dup4\n      sub\n      dup2\n      dup7\n      gas\n      staticcall\n      iszero\n      dup1\n      iszero\n      tag_412\n      jumpi\n      returndatasize\n      0x00\n      dup1\n      returndatacopy\n      revert(0x00, returndatasize)\n    tag_412:\n      pop\n      pop\n      pop\n      pop\n      mload(0x40)\n      returndatasize\n      not(0x1f)\n      0x1f\n      dup3\n      add\n      and\n      dup3\n      add\n      dup1\n      0x40\n      mstore\n      pop\n      dup2\n      add\n      swap1\n      tag_413\n      swap2\n      swap1\n      tag_345\n      jump\t// in\n    tag_413:\n        /* \"weusd/manageusd.sol\":6476:6540  uint8 stablecoinDecimals = IERC20Metadata(stablecoin).decimals() */\n      swap1\n      pop\n        /* \"weusd/manageusd.sol\":6551:6575  uint256 stablecoinAmount */\n      0x00\n        /* \"weusd/manageusd.sol\":6578:6646  convertDecimalsCeil(weUSDAmount, WEUSD_DECIMALS, stablecoinDecimals) */\n      tag_414\n        /* \"weusd/manageusd.sol\":6598:6609  weUSDAmount */\n      dup4\n        /* \"weusd/manageusd.sol\":961:962  6 */\n      0x06\n        /* \"weusd/manageusd.sol\":6627:6645  stablecoinDecimals */\n      dup5\n        /* \"weusd/manageusd.sol\":6578:6597  convertDecimalsCeil */\n      tag_415\n        /* \"weusd/manageusd.sol\":6578:6646  convertDecimalsCeil(weUSDAmount, WEUSD_DECIMALS, stablecoinDecimals) */\n      jump\t// in\n    tag_414:\n        /* \"weusd/manageusd.sol\":6692:6704  mainContract */\n      sload(0x01)\n        /* \"weusd/manageusd.sol\":6692:6765  mainContract.transferStableCoin(stablecoin, msg.sender, stablecoinAmount) */\n      mload(0x40)\n      shl(0xe2, 0x1795588d)\n      dup2\n      mstore\n      sub(shl(0xa0, 0x01), 0x01)\n        /* \"#utility.yul\":7880:7912   */\n      dup8\n      dup2\n      and\n        /* \"weusd/manageusd.sol\":6692:6765  mainContract.transferStableCoin(stablecoin, msg.sender, stablecoinAmount) */\n      0x04\n      dup4\n      add\n        /* \"#utility.yul\":7862:7913   */\n      mstore\n        /* \"weusd/manageusd.sol\":6736:6746  msg.sender */\n      caller\n        /* \"#utility.yul\":7929:7947   */\n      0x24\n      dup4\n      add\n        /* \"#utility.yul\":7922:7982   */\n      mstore\n        /* \"#utility.yul\":7998:8016   */\n      0x44\n      dup3\n      add\n        /* \"#utility.yul\":7991:8025   */\n      dup5\n      swap1\n      mstore\n        /* \"weusd/manageusd.sol\":6551:6646  uint256 stablecoinAmount = convertDecimalsCeil(weUSDAmount, WEUSD_DECIMALS, stablecoinDecimals) */\n      swap3\n      swap4\n      pop\n        /* \"weusd/manageusd.sol\":6692:6704  mainContract */\n      0x0100\n      swap1\n      swap2\n      div\n      swap1\n      swap2\n      and\n      swap1\n        /* \"weusd/manageusd.sol\":6692:6723  mainContract.transferStableCoin */\n      0x5e556234\n      swap1\n        /* \"#utility.yul\":7835:7853   */\n      0x64\n      add\n        /* \"weusd/manageusd.sol\":6692:6765  mainContract.transferStableCoin(stablecoin, msg.sender, stablecoinAmount) */\n      0x00\n      mload(0x40)\n      dup1\n      dup4\n      sub\n      dup2\n      0x00\n      dup8\n      dup1\n      extcodesize\n      iszero\n      dup1\n      iszero\n      tag_417\n      jumpi\n      0x00\n      dup1\n      revert\n    tag_417:\n      pop\n      gas\n      call\n      iszero\n      dup1\n      iszero\n      tag_419\n      jumpi\n      returndatasize\n      0x00\n      dup1\n      returndatacopy\n      revert(0x00, returndatasize)\n    tag_419:\n      pop\n      pop\n        /* \"weusd/manageusd.sol\":6776:6781  weUSD */\n      sload(0x02)\n        /* \"weusd/manageusd.sol\":6776:6815  weUSD.burnFrom(msg.sender, weUSDAmount) */\n      mload(0x40)\n      shl(0xe4, 0x079cc679)\n      dup2\n      mstore\n        /* \"weusd/manageusd.sol\":6791:6801  msg.sender */\n      caller\n        /* \"weusd/manageusd.sol\":6776:6815  weUSD.burnFrom(msg.sender, weUSDAmount) */\n      0x04\n      dup3\n      add\n        /* \"#utility.yul\":8492:8543   */\n      mstore\n        /* \"#utility.yul\":8559:8577   */\n      0x24\n      dup2\n      add\n        /* \"#utility.yul\":8552:8586   */\n      dup8\n      swap1\n      mstore\n      sub(shl(0xa0, 0x01), 0x01)\n        /* \"weusd/manageusd.sol\":6776:6781  weUSD */\n      swap1\n      swap2\n      and\n      swap3\n      pop\n        /* \"weusd/manageusd.sol\":6776:6790  weUSD.burnFrom */\n      0x79cc6790\n      swap2\n      pop\n        /* \"#utility.yul\":8465:8483   */\n      0x44\n      add\n        /* \"weusd/manageusd.sol\":6776:6815  weUSD.burnFrom(msg.sender, weUSDAmount) */\n      0x00\n      mload(0x40)\n      dup1\n      dup4\n      sub\n      dup2\n      0x00\n      dup8\n      dup1\n      extcodesize\n      iszero\n      dup1\n      iszero\n      tag_421\n      jumpi\n      0x00\n      dup1\n      revert\n    tag_421:\n      pop\n      gas\n      call\n      iszero\n      dup1\n      iszero\n      tag_423\n      jumpi\n      returndatasize\n      0x00\n      dup1\n      returndatacopy\n      revert(0x00, returndatasize)\n    tag_423:\n      pop\n      pop\n        /* \"weusd/manageusd.sol\":6831:6897  BurnedWeUSD(msg.sender, stablecoin, weUSDAmount, stablecoinAmount) */\n      0x40\n      dup1\n      mload\n        /* \"#utility.yul\":12017:12042   */\n      dup7\n      dup2\n      mstore\n        /* \"#utility.yul\":12073:12075   */\n      0x20\n        /* \"#utility.yul\":12058:12076   */\n      dup2\n      add\n        /* \"#utility.yul\":12051:12085   */\n      dup6\n      swap1\n      mstore\n      sub(shl(0xa0, 0x01), 0x01)\n        /* \"weusd/manageusd.sol\":6831:6897  BurnedWeUSD(msg.sender, stablecoin, weUSDAmount, stablecoinAmount) */\n      dup9\n      and\n      swap4\n      pop\n        /* \"weusd/manageusd.sol\":6843:6853  msg.sender */\n      caller\n      swap3\n      pop\n        /* \"weusd/manageusd.sol\":6831:6897  BurnedWeUSD(msg.sender, stablecoin, weUSDAmount, stablecoinAmount) */\n      0x3d9842cbdfa603ab9534d6e362bf28b3061318f57fed5e7087dfc956a9d74442\n      swap2\n        /* \"#utility.yul\":11990:12008   */\n      add\n        /* \"weusd/manageusd.sol\":6831:6897  BurnedWeUSD(msg.sender, stablecoin, weUSDAmount, stablecoinAmount) */\n      tag_359\n        /* \"#utility.yul\":11843:12091   */\n      jump\n        /* \"@openzeppelin/contracts/access/AccessControl.sol\":4642:4780  function revokeRole(bytes32 role, address account) public virtual onlyRole(getRoleAdmin(role)) {... */\n    tag_177:\n        /* \"@openzeppelin/contracts/access/AccessControl.sol\":3875:3882  bytes32 */\n      0x00\n        /* \"@openzeppelin/contracts/access/AccessControl.sol\":3901:3913  _roles[role] */\n      dup3\n      dup2\n      mstore\n      0x20\n      dup2\n      swap1\n      mstore\n      0x40\n      swap1\n      keccak256\n        /* \"@openzeppelin/contracts/access/AccessControl.sol\":3901:3923  _roles[role].adminRole */\n      0x01\n      add\n      sload\n        /* \"@openzeppelin/contracts/access/AccessControl.sol\":2464:2480  _checkRole(role) */\n      tag_427\n        /* \"@openzeppelin/contracts/access/AccessControl.sol\":2475:2479  role */\n      dup2\n        /* \"@openzeppelin/contracts/access/AccessControl.sol\":2464:2474  _checkRole */\n      tag_234\n        /* \"@openzeppelin/contracts/access/AccessControl.sol\":2464:2480  _checkRole(role) */\n      jump\t// in\n    tag_427:\n        /* \"@openzeppelin/contracts/access/AccessControl.sol\":4747:4773  _revokeRole(role, account) */\n      tag_267\n        /* \"@openzeppelin/contracts/access/AccessControl.sol\":4759:4763  role */\n      dup4\n        /* \"@openzeppelin/contracts/access/AccessControl.sol\":4765:4772  account */\n      dup4\n        /* \"@openzeppelin/contracts/access/AccessControl.sol\":4747:4758  _revokeRole */\n      tag_276\n        /* \"@openzeppelin/contracts/access/AccessControl.sol\":4747:4773  _revokeRole(role, account) */\n      jump\t// in\n        /* \"weusd/manageusd.sol\":3497:3622  function setFeeRecipient(address _feeRecipient) external onlyRole(ADMIN_ROLE) {... */\n    tag_183:\n      0x00\n      dup1\n      mload\n      0x20\n      data_cb864c43dd5d441bb6271f424f11befa622c032dfd374d226e26fbbdb782b8f8\n      dup4\n      codecopy\n      dup2\n      mload\n      swap2\n      mstore\n        /* \"@openzeppelin/contracts/access/AccessControl.sol\":2464:2480  _checkRole(role) */\n      tag_431\n        /* \"@openzeppelin/contracts/access/AccessControl.sol\":2475:2479  role */\n      dup2\n        /* \"@openzeppelin/contracts/access/AccessControl.sol\":2464:2474  _checkRole */\n      tag_234\n        /* \"@openzeppelin/contracts/access/AccessControl.sol\":2464:2480  _checkRole(role) */\n      jump\t// in\n    tag_431:\n      pop\n        /* \"weusd/manageusd.sol\":3586:3598  feeRecipient */\n      0x05\n        /* \"weusd/manageusd.sol\":3586:3614  feeRecipient = _feeRecipient */\n      dup1\n      sload\n      not(sub(shl(0xa0, 0x01), 0x01))\n      and\n      sub(shl(0xa0, 0x01), 0x01)\n      swap3\n      swap1\n      swap3\n      and\n      swap2\n      swap1\n      swap2\n      or\n      swap1\n      sstore\n        /* \"weusd/manageusd.sol\":3497:3622  function setFeeRecipient(address _feeRecipient) external onlyRole(ADMIN_ROLE) {... */\n      jump\t// out\n        /* \"@openzeppelin/contracts/utils/Pausable.sol\":2002:2130  function _requireNotPaused() internal view virtual {... */\n    tag_198:\n        /* \"@openzeppelin/contracts/utils/Pausable.sol\":1920:1927  _paused */\n      and(0xff, sload(0x01))\n        /* \"@openzeppelin/contracts/utils/Pausable.sol\":2063:2124  if (paused()) {... */\n      iszero\n      tag_437\n      jumpi\n        /* \"@openzeppelin/contracts/utils/Pausable.sol\":2098:2113  EnforcedPause() */\n      mload(0x40)\n      shl(0xe0, 0xd93c0665)\n      dup2\n      mstore\n      0x04\n      add\n      mload(0x40)\n      dup1\n      swap2\n      sub\n      swap1\n      revert\n        /* \"@openzeppelin/contracts/utils/Pausable.sol\":2063:2124  if (paused()) {... */\n    tag_437:\n        /* \"@openzeppelin/contracts/utils/Pausable.sol\":2002:2130  function _requireNotPaused() internal view virtual {... */\n      jump\t// out\n        /* \"weusd/manageusd.sol\":15666:16401  function _createRequest(uint256 _requestId, address _user, uint256 _amount, bool _isburn) internal {... */\n    tag_229:\n        /* \"weusd/manageusd.sol\":15813:15959  RequestData({... */\n      0x40\n      dup1\n      mload\n      0x80\n      dup2\n      add\n      dup3\n      mstore\n      dup6\n      dup2\n      mstore\n      sub(shl(0xa0, 0x01), 0x01)\n      dup6\n      dup2\n      and\n      0x20\n      dup1\n      dup5\n      add\n      swap2\n      dup3\n      mstore\n      dup4\n      dup6\n      add\n      dup8\n      dup2\n      mstore\n      dup7\n      iszero\n      dup1\n      iszero\n      0x60\n      dup8\n      add\n      swap1\n      dup2\n      mstore\n      0x00\n        /* \"weusd/manageusd.sol\":15980:16000  requests[_requestId] */\n      dup13\n      dup2\n      mstore\n        /* \"weusd/manageusd.sol\":15980:15988  requests */\n      0x0a\n        /* \"weusd/manageusd.sol\":15980:16000  requests[_requestId] */\n      swap1\n      swap5\n      mstore\n      swap7\n      swap1\n      swap3\n      keccak256\n        /* \"weusd/manageusd.sol\":15980:16013  requests[_requestId] = newRequest */\n      dup6\n      mload\n      dup2\n      sstore\n      swap3\n      mload\n      0x01\n      dup5\n      add\n      dup1\n      sload\n      not(sub(shl(0xa0, 0x01), 0x01))\n      and\n      swap2\n      swap1\n      swap6\n      and\n      or\n      swap1\n      swap4\n      sstore\n      swap2\n      mload\n      0x02\n      dup3\n      add\n      sstore\n      swap3\n      mload\n      0x03\n      swap1\n      swap4\n      add\n      dup1\n      sload\n      not(0xff)\n      and\n      swap4\n      iszero\n      iszero\n      swap4\n      swap1\n      swap4\n      or\n      swap1\n      swap3\n      sstore\n        /* \"weusd/manageusd.sol\":15813:15959  RequestData({... */\n      swap1\n        /* \"weusd/manageusd.sol\":16024:16167  if(_isburn){... */\n      tag_439\n      jumpi\n        /* \"weusd/manageusd.sol\":16050:16070  activeSourceRequests */\n      0x06\n        /* \"weusd/manageusd.sol\":16050:16087  activeSourceRequests.push(_requestId) */\n      dup1\n      sload\n      0x01\n      dup2\n      add\n      dup3\n      sstore\n      0x00\n      swap2\n      swap1\n      swap2\n      mstore\n      0xf652222313e28459528d920b65115c16c04f3efc82aaedc97be59f3f377c0d3f\n      add\n      dup6\n      swap1\n      sstore\n        /* \"weusd/manageusd.sol\":16024:16167  if(_isburn){... */\n      jump(tag_441)\n    tag_439:\n        /* \"weusd/manageusd.sol\":16118:16138  activeTargetRequests */\n      0x07\n        /* \"weusd/manageusd.sol\":16118:16155  activeTargetRequests.push(_requestId) */\n      dup1\n      sload\n      0x01\n      dup2\n      add\n      dup3\n      sstore\n      0x00\n      swap2\n      swap1\n      swap2\n      mstore\n      0xa66cc928b5edb82af9bd49922954155ab7b0942694bea4ce44661d9a8736c688\n      add\n      dup6\n      swap1\n      sstore\n        /* \"weusd/manageusd.sol\":16024:16167  if(_isburn){... */\n    tag_441:\n        /* \"weusd/manageusd.sol\":16180:16187  _isburn */\n      dup2\n        /* \"weusd/manageusd.sol\":16177:16394  if(_isburn){... */\n      iszero\n      tag_443\n      jumpi\n        /* \"weusd/manageusd.sol\":16246:16266  activeSourceRequests */\n      0x06\n        /* \"weusd/manageusd.sol\":16246:16273  activeSourceRequests.length */\n      sload\n        /* \"weusd/manageusd.sol\":16246:16277  activeSourceRequests.length - 1 */\n      tag_444\n      swap1\n        /* \"weusd/manageusd.sol\":16276:16277  1 */\n      0x01\n      swap1\n        /* \"weusd/manageusd.sol\":16246:16277  activeSourceRequests.length - 1 */\n      tag_216\n      jump\t// in\n    tag_444:\n        /* \"weusd/manageusd.sol\":16203:16243  requestIdToSourceActiveIndex[_requestId] */\n      0x00\n      dup7\n      dup2\n      mstore\n        /* \"weusd/manageusd.sol\":16203:16231  requestIdToSourceActiveIndex */\n      0x0b\n        /* \"weusd/manageusd.sol\":16203:16243  requestIdToSourceActiveIndex[_requestId] */\n      0x20\n      mstore\n      0x40\n      swap1\n      keccak256\n        /* \"weusd/manageusd.sol\":16203:16277  requestIdToSourceActiveIndex[_requestId] = activeSourceRequests.length - 1 */\n      sstore\n        /* \"weusd/manageusd.sol\":16177:16394  if(_isburn){... */\n      jump(tag_445)\n    tag_443:\n        /* \"weusd/manageusd.sol\":16351:16371  activeTargetRequests */\n      0x07\n        /* \"weusd/manageusd.sol\":16351:16378  activeTargetRequests.length */\n      sload\n        /* \"weusd/manageusd.sol\":16351:16382  activeTargetRequests.length - 1 */\n      tag_446\n      swap1\n        /* \"weusd/manageusd.sol\":16381:16382  1 */\n      0x01\n      swap1\n        /* \"weusd/manageusd.sol\":16351:16382  activeTargetRequests.length - 1 */\n      tag_216\n      jump\t// in\n    tag_446:\n        /* \"weusd/manageusd.sol\":16308:16348  requestIdToTargetActiveIndex[_requestId] */\n      0x00\n      dup7\n      dup2\n      mstore\n        /* \"weusd/manageusd.sol\":16308:16336  requestIdToTargetActiveIndex */\n      0x0c\n        /* \"weusd/manageusd.sol\":16308:16348  requestIdToTargetActiveIndex[_requestId] */\n      0x20\n      mstore\n      0x40\n      swap1\n      keccak256\n        /* \"weusd/manageusd.sol\":16308:16382  requestIdToTargetActiveIndex[_requestId] = activeTargetRequests.length - 1 */\n      sstore\n        /* \"weusd/manageusd.sol\":16177:16394  if(_isburn){... */\n    tag_445:\n        /* \"weusd/manageusd.sol\":15765:16401  {... */\n      pop\n        /* \"weusd/manageusd.sol\":15666:16401  function _createRequest(uint256 _requestId, address _user, uint256 _amount, bool _isburn) internal {... */\n      pop\n      pop\n      pop\n      pop\n      jump\t// out\n        /* \"@openzeppelin/contracts/access/AccessControl.sol\":3199:3302  function _checkRole(bytes32 role) internal view virtual {... */\n    tag_234:\n        /* \"@openzeppelin/contracts/access/AccessControl.sol\":3265:3295  _checkRole(role, _msgSender()) */\n      tag_280\n        /* \"@openzeppelin/contracts/access/AccessControl.sol\":3276:3280  role */\n      dup2\n        /* \"@openzeppelin/contracts/utils/Context.sol\":735:745  msg.sender */\n      caller\n        /* \"@openzeppelin/contracts/access/AccessControl.sol\":3265:3275  _checkRole */\n      tag_450\n        /* \"@openzeppelin/contracts/access/AccessControl.sol\":3265:3295  _checkRole(role, _msgSender()) */\n      jump\t// in\n        /* \"@openzeppelin/contracts/access/AccessControl.sol\":6179:6495  function _grantRole(bytes32 role, address account) internal virtual returns (bool) {... */\n    tag_268:\n        /* \"@openzeppelin/contracts/access/AccessControl.sol\":6256:6260  bool */\n      0x00\n        /* \"@openzeppelin/contracts/access/AccessControl.sol\":6277:6299  hasRole(role, account) */\n      tag_452\n        /* \"@openzeppelin/contracts/access/AccessControl.sol\":6285:6289  role */\n      dup4\n        /* \"@openzeppelin/contracts/access/AccessControl.sol\":6291:6298  account */\n      dup4\n        /* \"@openzeppelin/contracts/access/AccessControl.sol\":6277:6284  hasRole */\n      tag_127\n        /* \"@openzeppelin/contracts/access/AccessControl.sol\":6277:6299  hasRole(role, account) */\n      jump\t// in\n    tag_452:\n        /* \"@openzeppelin/contracts/access/AccessControl.sol\":6272:6489  if (!hasRole(role, account)) {... */\n      tag_453\n      jumpi\n        /* \"@openzeppelin/contracts/access/AccessControl.sol\":6315:6321  _roles */\n      0x00\n        /* \"@openzeppelin/contracts/access/AccessControl.sol\":6315:6327  _roles[role] */\n      dup4\n      dup2\n      mstore\n      0x20\n      dup2\n      dup2\n      mstore\n      0x40\n      dup1\n      dup4\n      keccak256\n      sub(shl(0xa0, 0x01), 0x01)\n        /* \"@openzeppelin/contracts/access/AccessControl.sol\":6315:6344  _roles[role].hasRole[account] */\n      dup7\n      and\n      dup5\n      mstore\n      swap1\n      swap2\n      mstore\n      swap1\n      keccak256\n        /* \"@openzeppelin/contracts/access/AccessControl.sol\":6315:6351  _roles[role].hasRole[account] = true */\n      dup1\n      sload\n      not(0xff)\n      and\n        /* \"@openzeppelin/contracts/access/AccessControl.sol\":6347:6351  true */\n      0x01\n        /* \"@openzeppelin/contracts/access/AccessControl.sol\":6315:6351  _roles[role].hasRole[account] = true */\n      or\n      swap1\n      sstore\n        /* \"@openzeppelin/contracts/access/AccessControl.sol\":6397:6409  _msgSender() */\n      tag_454\n        /* \"@openzeppelin/contracts/utils/Context.sol\":735:745  msg.sender */\n      caller\n      swap1\n        /* \"@openzeppelin/contracts/utils/Context.sol\":656:752  function _msgSender() internal view virtual returns (address) {... */\n      jump\n        /* \"@openzeppelin/contracts/access/AccessControl.sol\":6397:6409  _msgSender() */\n    tag_454:\n      sub(shl(0xa0, 0x01), 0x01)\n        /* \"@openzeppelin/contracts/access/AccessControl.sol\":6370:6410  RoleGranted(role, account, _msgSender()) */\n      and\n        /* \"@openzeppelin/contracts/access/AccessControl.sol\":6388:6395  account */\n      dup3\n      sub(shl(0xa0, 0x01), 0x01)\n        /* \"@openzeppelin/contracts/access/AccessControl.sol\":6370:6410  RoleGranted(role, account, _msgSender()) */\n      and\n        /* \"@openzeppelin/contracts/access/AccessControl.sol\":6382:6386  role */\n      dup5\n        /* \"@openzeppelin/contracts/access/AccessControl.sol\":6370:6410  RoleGranted(role, account, _msgSender()) */\n      0x2f8788117e7eff1d82e926ec794901d17c78024a50270940304540a733656f0d\n      mload(0x40)\n      mload(0x40)\n      dup1\n      swap2\n      sub\n      swap1\n      log4\n      pop\n        /* \"@openzeppelin/contracts/access/AccessControl.sol\":6431:6435  true */\n      0x01\n        /* \"@openzeppelin/contracts/access/AccessControl.sol\":6424:6435  return true */\n      jump(tag_194)\n        /* \"@openzeppelin/contracts/access/AccessControl.sol\":6272:6489  if (!hasRole(role, account)) {... */\n    tag_453:\n      pop\n        /* \"@openzeppelin/contracts/access/AccessControl.sol\":6473:6478  false */\n      0x00\n        /* \"@openzeppelin/contracts/access/AccessControl.sol\":6466:6478  return false */\n      jump(tag_194)\n        /* \"@openzeppelin/contracts/access/AccessControl.sol\":6730:7047  function _revokeRole(bytes32 role, address account) internal virtual returns (bool) {... */\n    tag_276:\n        /* \"@openzeppelin/contracts/access/AccessControl.sol\":6808:6812  bool */\n      0x00\n        /* \"@openzeppelin/contracts/access/AccessControl.sol\":6828:6850  hasRole(role, account) */\n      tag_458\n        /* \"@openzeppelin/contracts/access/AccessControl.sol\":6836:6840  role */\n      dup4\n        /* \"@openzeppelin/contracts/access/AccessControl.sol\":6842:6849  account */\n      dup4\n        /* \"@openzeppelin/contracts/access/AccessControl.sol\":6828:6835  hasRole */\n      tag_127\n        /* \"@openzeppelin/contracts/access/AccessControl.sol\":6828:6850  hasRole(role, account) */\n      jump\t// in\n    tag_458:\n        /* \"@openzeppelin/contracts/access/AccessControl.sol\":6824:7041  if (hasRole(role, account)) {... */\n      iszero\n      tag_453\n      jumpi\n        /* \"@openzeppelin/contracts/access/AccessControl.sol\":6898:6903  false */\n      0x00\n        /* \"@openzeppelin/contracts/access/AccessControl.sol\":6866:6878  _roles[role] */\n      dup4\n      dup2\n      mstore\n      0x20\n      dup2\n      dup2\n      mstore\n      0x40\n      dup1\n      dup4\n      keccak256\n      sub(shl(0xa0, 0x01), 0x01)\n        /* \"@openzeppelin/contracts/access/AccessControl.sol\":6866:6895  _roles[role].hasRole[account] */\n      dup7\n      and\n      dup1\n      dup6\n      mstore\n      swap3\n      mstore\n      dup1\n      dup4\n      keccak256\n        /* \"@openzeppelin/contracts/access/AccessControl.sol\":6866:6903  _roles[role].hasRole[account] = false */\n      dup1\n      sload\n      not(0xff)\n      and\n      swap1\n      sstore\n        /* \"@openzeppelin/contracts/access/AccessControl.sol\":6922:6962  RoleRevoked(role, account, _msgSender()) */\n      mload\n        /* \"@openzeppelin/contracts/utils/Context.sol\":735:745  msg.sender */\n      caller\n      swap3\n        /* \"@openzeppelin/contracts/access/AccessControl.sol\":6866:6878  _roles[role] */\n      dup7\n      swap2\n        /* \"@openzeppelin/contracts/access/AccessControl.sol\":6922:6962  RoleRevoked(role, account, _msgSender()) */\n      0xf6391f5c32d9c69d2a47ea670b442974b53935d1edc7fd64eb21e047a839171b\n      swap2\n        /* \"@openzeppelin/contracts/access/AccessControl.sol\":6898:6903  false */\n      swap1\n        /* \"@openzeppelin/contracts/access/AccessControl.sol\":6922:6962  RoleRevoked(role, account, _msgSender()) */\n      log4\n      pop\n        /* \"@openzeppelin/contracts/access/AccessControl.sol\":6983:6987  true */\n      0x01\n        /* \"@openzeppelin/contracts/access/AccessControl.sol\":6976:6987  return true */\n      jump(tag_194)\n        /* \"@openzeppelin/contracts/utils/Pausable.sol\":2710:2827  function _unpause() internal virtual whenPaused {... */\n    tag_281:\n        /* \"@openzeppelin/contracts/utils/Pausable.sol\":1721:1737  _requirePaused() */\n      tag_463\n        /* \"@openzeppelin/contracts/utils/Pausable.sol\":1721:1735  _requirePaused */\n      tag_464\n        /* \"@openzeppelin/contracts/utils/Pausable.sol\":1721:1737  _requirePaused() */\n      jump\t// in\n    tag_463:\n        /* \"@openzeppelin/contracts/utils/Pausable.sol\":2768:2775  _paused */\n      0x01\n        /* \"@openzeppelin/contracts/utils/Pausable.sol\":2768:2783  _paused = false */\n      dup1\n      sload\n      not(0xff)\n      and\n      swap1\n      sstore\n        /* \"@openzeppelin/contracts/utils/Pausable.sol\":2798:2820  Unpaused(_msgSender()) */\n      0x5db9ee0a495bf2e6ff9c91a7834c1ba4fdd244a5e8aa4e537bd38aeae4b073aa\n        /* \"@openzeppelin/contracts/utils/Context.sol\":735:745  msg.sender */\n      caller\n        /* \"@openzeppelin/contracts/utils/Pausable.sol\":2807:2819  _msgSender() */\n    tag_466:\n        /* \"@openzeppelin/contracts/utils/Pausable.sol\":2798:2820  Unpaused(_msgSender()) */\n      mload(0x40)\n      sub(shl(0xa0, 0x01), 0x01)\n        /* \"#utility.yul\":3611:3643   */\n      swap1\n      swap2\n      and\n        /* \"#utility.yul\":3593:3644   */\n      dup2\n      mstore\n        /* \"#utility.yul\":3581:3583   */\n      0x20\n        /* \"#utility.yul\":3566:3584   */\n      add\n        /* \"@openzeppelin/contracts/utils/Pausable.sol\":2798:2820  Unpaused(_msgSender()) */\n      mload(0x40)\n      dup1\n      swap2\n      sub\n      swap1\n      log1\n        /* \"@openzeppelin/contracts/utils/Pausable.sol\":2710:2827  function _unpause() internal virtual whenPaused {... */\n      jump\t// out\n        /* \"@openzeppelin/contracts/utils/Pausable.sol\":2463:2578  function _pause() internal virtual whenNotPaused {... */\n    tag_287:\n        /* \"@openzeppelin/contracts/utils/Pausable.sol\":1474:1493  _requireNotPaused() */\n      tag_469\n        /* \"@openzeppelin/contracts/utils/Pausable.sol\":1474:1491  _requireNotPaused */\n      tag_198\n        /* \"@openzeppelin/contracts/utils/Pausable.sol\":1474:1493  _requireNotPaused() */\n      jump\t// in\n    tag_469:\n        /* \"@openzeppelin/contracts/utils/Pausable.sol\":2532:2536  true */\n      0x01\n        /* \"@openzeppelin/contracts/utils/Pausable.sol\":2522:2536  _paused = true */\n      dup1\n      sload\n      not(0xff)\n      and\n      dup2\n      or\n      swap1\n      sstore\n        /* \"@openzeppelin/contracts/utils/Pausable.sol\":2551:2571  Paused(_msgSender()) */\n      0x62e78cea01bee320cd4e420270b5ea74000d11b0c9f74754ebdbfc544b05a258\n        /* \"@openzeppelin/contracts/utils/Context.sol\":735:745  msg.sender */\n      caller\n        /* \"@openzeppelin/contracts/utils/Pausable.sol\":2558:2570  _msgSender() */\n      tag_466\n        /* \"@openzeppelin/contracts/utils/Context.sol\":656:752  function _msgSender() internal view virtual returns (address) {... */\n      jump\n        /* \"weusd/manageusd.sol\":16411:16880  function convertDecimals(... */\n    tag_347:\n        /* \"weusd/manageusd.sol\":16552:16566  uint256 result */\n      0x00\n        /* \"weusd/manageusd.sol\":16601:16615  targetDecimals */\n      dup2\n        /* \"weusd/manageusd.sol\":16583:16615  sourceDecimals == targetDecimals */\n      0xff\n      and\n        /* \"weusd/manageusd.sol\":16583:16597  sourceDecimals */\n      dup4\n        /* \"weusd/manageusd.sol\":16583:16615  sourceDecimals == targetDecimals */\n      0xff\n      and\n      sub\n        /* \"weusd/manageusd.sol\":16579:16873  if (sourceDecimals == targetDecimals) {... */\n      tag_474\n      jumpi\n      pop\n        /* \"weusd/manageusd.sol\":16641:16646  value */\n      dup3\n        /* \"weusd/manageusd.sol\":16579:16873  if (sourceDecimals == targetDecimals) {... */\n      jump(tag_482)\n    tag_474:\n        /* \"weusd/manageusd.sol\":16685:16699  targetDecimals */\n      dup2\n        /* \"weusd/manageusd.sol\":16668:16699  sourceDecimals < targetDecimals */\n      0xff\n      and\n        /* \"weusd/manageusd.sol\":16668:16682  sourceDecimals */\n      dup4\n        /* \"weusd/manageusd.sol\":16668:16699  sourceDecimals < targetDecimals */\n      0xff\n      and\n      lt\n        /* \"weusd/manageusd.sol\":16664:16873  if (sourceDecimals < targetDecimals) {... */\n      iszero\n      tag_476\n      jumpi\n        /* \"weusd/manageusd.sol\":16739:16770  targetDecimals - sourceDecimals */\n      tag_477\n        /* \"weusd/manageusd.sol\":16756:16770  sourceDecimals */\n      dup4\n        /* \"weusd/manageusd.sol\":16739:16753  targetDecimals */\n      dup4\n        /* \"weusd/manageusd.sol\":16739:16770  targetDecimals - sourceDecimals */\n      tag_478\n      jump\t// in\n    tag_477:\n        /* \"weusd/manageusd.sol\":16734:16771  10**(targetDecimals - sourceDecimals) */\n      tag_479\n      swap1\n        /* \"weusd/manageusd.sol\":16734:16736  10 */\n      0x0a\n        /* \"weusd/manageusd.sol\":16734:16771  10**(targetDecimals - sourceDecimals) */\n      tag_480\n      jump\t// in\n    tag_479:\n        /* \"weusd/manageusd.sol\":16725:16772  value * (10**(targetDecimals - sourceDecimals)) */\n      tag_481\n      swap1\n        /* \"weusd/manageusd.sol\":16725:16730  value */\n      dup6\n        /* \"weusd/manageusd.sol\":16725:16772  value * (10**(targetDecimals - sourceDecimals)) */\n      tag_310\n      jump\t// in\n    tag_481:\n        /* \"weusd/manageusd.sol\":16716:16772  result = value * (10**(targetDecimals - sourceDecimals)) */\n      swap1\n      pop\n        /* \"weusd/manageusd.sol\":16664:16873  if (sourceDecimals < targetDecimals) {... */\n      jump(tag_482)\n    tag_476:\n        /* \"weusd/manageusd.sol\":16828:16859  sourceDecimals - targetDecimals */\n      tag_483\n        /* \"weusd/manageusd.sol\":16845:16859  targetDecimals */\n      dup3\n        /* \"weusd/manageusd.sol\":16828:16842  sourceDecimals */\n      dup5\n        /* \"weusd/manageusd.sol\":16828:16859  sourceDecimals - targetDecimals */\n      tag_478\n      jump\t// in\n    tag_483:\n        /* \"weusd/manageusd.sol\":16823:16860  10**(sourceDecimals - targetDecimals) */\n      tag_484\n      swap1\n        /* \"weusd/manageusd.sol\":16823:16825  10 */\n      0x0a\n        /* \"weusd/manageusd.sol\":16823:16860  10**(sourceDecimals - targetDecimals) */\n      tag_480\n      jump\t// in\n    tag_484:\n        /* \"weusd/manageusd.sol\":16814:16861  value / (10**(sourceDecimals - targetDecimals)) */\n      tag_485\n      swap1\n        /* \"weusd/manageusd.sol\":16814:16819  value */\n      dup6\n        /* \"weusd/manageusd.sol\":16814:16861  value / (10**(sourceDecimals - targetDecimals)) */\n      tag_486\n      jump\t// in\n    tag_485:\n        /* \"weusd/manageusd.sol\":16805:16861  result = value / (10**(sourceDecimals - targetDecimals)) */\n      swap1\n      pop\n        /* \"weusd/manageusd.sol\":16664:16873  if (sourceDecimals < targetDecimals) {... */\n    tag_482:\n        /* \"weusd/manageusd.sol\":16411:16880  function convertDecimals(... */\n      swap4\n      swap3\n      pop\n      pop\n      pop\n      jump\t// out\n        /* \"weusd/manageusd.sol\":16888:17476  function convertDecimalsCeil(... */\n    tag_415:\n        /* \"weusd/manageusd.sol\":17033:17047  uint256 result */\n      0x00\n        /* \"weusd/manageusd.sol\":17082:17096  targetDecimals */\n      dup2\n        /* \"weusd/manageusd.sol\":17064:17096  sourceDecimals == targetDecimals */\n      0xff\n      and\n        /* \"weusd/manageusd.sol\":17064:17078  sourceDecimals */\n      dup4\n        /* \"weusd/manageusd.sol\":17064:17096  sourceDecimals == targetDecimals */\n      0xff\n      and\n      sub\n        /* \"weusd/manageusd.sol\":17060:17469  if (sourceDecimals == targetDecimals) {... */\n      tag_488\n      jumpi\n      pop\n        /* \"weusd/manageusd.sol\":17122:17127  value */\n      dup3\n        /* \"weusd/manageusd.sol\":17060:17469  if (sourceDecimals == targetDecimals) {... */\n      jump(tag_482)\n    tag_488:\n        /* \"weusd/manageusd.sol\":17166:17180  targetDecimals */\n      dup2\n        /* \"weusd/manageusd.sol\":17149:17180  sourceDecimals < targetDecimals */\n      0xff\n      and\n        /* \"weusd/manageusd.sol\":17149:17163  sourceDecimals */\n      dup4\n        /* \"weusd/manageusd.sol\":17149:17180  sourceDecimals < targetDecimals */\n      0xff\n      and\n      lt\n        /* \"weusd/manageusd.sol\":17145:17469  if (sourceDecimals < targetDecimals) {... */\n      iszero\n      tag_490\n      jumpi\n        /* \"weusd/manageusd.sol\":17220:17251  targetDecimals - sourceDecimals */\n      tag_477\n        /* \"weusd/manageusd.sol\":17237:17251  sourceDecimals */\n      dup4\n        /* \"weusd/manageusd.sol\":17220:17234  targetDecimals */\n      dup4\n        /* \"weusd/manageusd.sol\":17220:17251  targetDecimals - sourceDecimals */\n      tag_478\n      jump\t// in\n        /* \"weusd/manageusd.sol\":17145:17469  if (sourceDecimals < targetDecimals) {... */\n    tag_490:\n        /* \"weusd/manageusd.sol\":17286:17298  uint256 temp */\n      0x00\n        /* \"weusd/manageusd.sol\":17306:17337  sourceDecimals - targetDecimals */\n      tag_495\n        /* \"weusd/manageusd.sol\":17323:17337  targetDecimals */\n      dup4\n        /* \"weusd/manageusd.sol\":17306:17320  sourceDecimals */\n      dup6\n        /* \"weusd/manageusd.sol\":17306:17337  sourceDecimals - targetDecimals */\n      tag_478\n      jump\t// in\n    tag_495:\n        /* \"weusd/manageusd.sol\":17301:17338  10**(sourceDecimals - targetDecimals) */\n      tag_496\n      swap1\n        /* \"weusd/manageusd.sol\":17301:17303  10 */\n      0x0a\n        /* \"weusd/manageusd.sol\":17301:17338  10**(sourceDecimals - targetDecimals) */\n      tag_480\n      jump\t// in\n    tag_496:\n        /* \"weusd/manageusd.sol\":17286:17338  uint256 temp = 10**(sourceDecimals - targetDecimals) */\n      swap1\n      pop\n        /* \"weusd/manageusd.sol\":17362:17374  value / temp */\n      tag_497\n        /* \"weusd/manageusd.sol\":17286:17338  uint256 temp = 10**(sourceDecimals - targetDecimals) */\n      dup2\n        /* \"weusd/manageusd.sol\":17362:17367  value */\n      dup7\n        /* \"weusd/manageusd.sol\":17362:17374  value / temp */\n      tag_486\n      jump\t// in\n    tag_497:\n        /* \"weusd/manageusd.sol\":17353:17374  result = value / temp */\n      swap2\n      pop\n        /* \"weusd/manageusd.sol\":17393:17405  value % temp */\n      tag_498\n        /* \"weusd/manageusd.sol\":17401:17405  temp */\n      dup2\n        /* \"weusd/manageusd.sol\":17393:17398  value */\n      dup7\n        /* \"weusd/manageusd.sol\":17393:17405  value % temp */\n      tag_499\n      jump\t// in\n    tag_498:\n        /* \"weusd/manageusd.sol\":17393:17410  value % temp != 0 */\n      iszero\n        /* \"weusd/manageusd.sol\":17389:17458  if (value % temp != 0) {... */\n      tag_500\n      jumpi\n        /* \"weusd/manageusd.sol\":17431:17442  result += 1 */\n      tag_501\n        /* \"weusd/manageusd.sol\":17441:17442  1 */\n      0x01\n        /* \"weusd/manageusd.sol\":17431:17442  result += 1 */\n      dup4\n      tag_314\n      jump\t// in\n    tag_501:\n      swap2\n      pop\n        /* \"weusd/manageusd.sol\":17389:17458  if (value % temp != 0) {... */\n    tag_500:\n        /* \"weusd/manageusd.sol\":17271:17469  {... */\n      pop\n        /* \"weusd/manageusd.sol\":16888:17476  function convertDecimalsCeil(... */\n      swap4\n      swap3\n      pop\n      pop\n      pop\n      jump\t// out\n        /* \"@openzeppelin/contracts/access/AccessControl.sol\":3432:3629  function _checkRole(bytes32 role, address account) internal view virtual {... */\n    tag_450:\n        /* \"@openzeppelin/contracts/access/AccessControl.sol\":3520:3542  hasRole(role, account) */\n      tag_503\n        /* \"@openzeppelin/contracts/access/AccessControl.sol\":3528:3532  role */\n      dup3\n        /* \"@openzeppelin/contracts/access/AccessControl.sol\":3534:3541  account */\n      dup3\n        /* \"@openzeppelin/contracts/access/AccessControl.sol\":3520:3527  hasRole */\n      tag_127\n        /* \"@openzeppelin/contracts/access/AccessControl.sol\":3520:3542  hasRole(role, account) */\n      jump\t// in\n    tag_503:\n        /* \"@openzeppelin/contracts/access/AccessControl.sol\":3515:3623  if (!hasRole(role, account)) {... */\n      tag_504\n      jumpi\n        /* \"@openzeppelin/contracts/access/AccessControl.sol\":3565:3612  AccessControlUnauthorizedAccount(account, role) */\n      mload(0x40)\n      shl(0xe0, 0xe2517d3f)\n      dup2\n      mstore\n      sub(shl(0xa0, 0x01), 0x01)\n        /* \"#utility.yul\":8510:8542   */\n      dup3\n      and\n        /* \"@openzeppelin/contracts/access/AccessControl.sol\":3565:3612  AccessControlUnauthorizedAccount(account, role) */\n      0x04\n      dup3\n      add\n        /* \"#utility.yul\":8492:8543   */\n      mstore\n        /* \"#utility.yul\":8559:8577   */\n      0x24\n      dup2\n      add\n        /* \"#utility.yul\":8552:8586   */\n      dup4\n      swap1\n      mstore\n        /* \"#utility.yul\":8465:8483   */\n      0x44\n      add\n        /* \"@openzeppelin/contracts/access/AccessControl.sol\":3565:3612  AccessControlUnauthorizedAccount(account, role) */\n      tag_201\n        /* \"#utility.yul\":8318:8592   */\n      jump\n        /* \"@openzeppelin/contracts/access/AccessControl.sol\":3515:3623  if (!hasRole(role, account)) {... */\n    tag_504:\n        /* \"@openzeppelin/contracts/access/AccessControl.sol\":3432:3629  function _checkRole(bytes32 role, address account) internal view virtual {... */\n      pop\n      pop\n      jump\t// out\n        /* \"@openzeppelin/contracts/utils/Pausable.sol\":2202:2328  function _requirePaused() internal view virtual {... */\n    tag_464:\n        /* \"@openzeppelin/contracts/utils/Pausable.sol\":1920:1927  _paused */\n      and(0xff, sload(0x01))\n        /* \"@openzeppelin/contracts/utils/Pausable.sol\":2260:2322  if (!paused()) {... */\n      tag_437\n      jumpi\n        /* \"@openzeppelin/contracts/utils/Pausable.sol\":2296:2311  ExpectedPause() */\n      mload(0x40)\n      shl(0xe0, 0x8dfc202b)\n      dup2\n      mstore\n      0x04\n      add\n      mload(0x40)\n      dup1\n      swap2\n      sub\n      swap1\n      revert\n        /* \"#utility.yul\":196:482   */\n    tag_54:\n        /* \"#utility.yul\":254:260   */\n      0x00\n        /* \"#utility.yul\":307:309   */\n      0x20\n        /* \"#utility.yul\":295:304   */\n      dup3\n        /* \"#utility.yul\":286:293   */\n      dup5\n        /* \"#utility.yul\":282:305   */\n      sub\n        /* \"#utility.yul\":278:310   */\n      slt\n        /* \"#utility.yul\":275:327   */\n      iszero\n      tag_518\n      jumpi\n        /* \"#utility.yul\":323:324   */\n      0x00\n        /* \"#utility.yul\":320:321   */\n      dup1\n        /* \"#utility.yul\":313:325   */\n      revert\n        /* \"#utility.yul\":275:327   */\n    tag_518:\n        /* \"#utility.yul\":349:372   */\n      dup2\n      calldataload\n      not(sub(shl(0xe0, 0x01), 0x01))\n        /* \"#utility.yul\":401:433   */\n      dup2\n      and\n        /* \"#utility.yul\":391:434   */\n      dup2\n      eq\n        /* \"#utility.yul\":381:452   */\n      tag_482\n      jumpi\n        /* \"#utility.yul\":448:449   */\n      0x00\n        /* \"#utility.yul\":445:446   */\n      dup1\n        /* \"#utility.yul\":438:450   */\n      revert\n        /* \"#utility.yul\":679:852   */\n    tag_510:\n        /* \"#utility.yul\":747:767   */\n      dup1\n      calldataload\n      sub(shl(0xa0, 0x01), 0x01)\n        /* \"#utility.yul\":796:827   */\n      dup2\n      and\n        /* \"#utility.yul\":786:828   */\n      dup2\n      eq\n        /* \"#utility.yul\":776:846   */\n      tag_522\n      jumpi\n        /* \"#utility.yul\":842:843   */\n      0x00\n        /* \"#utility.yul\":839:840   */\n      dup1\n        /* \"#utility.yul\":832:844   */\n      revert\n        /* \"#utility.yul\":776:846   */\n    tag_522:\n        /* \"#utility.yul\":679:852   */\n      swap2\n      swap1\n      pop\n      jump\t// out\n        /* \"#utility.yul\":857:1277   */\n    tag_60:\n        /* \"#utility.yul\":934:940   */\n      0x00\n        /* \"#utility.yul\":942:948   */\n      dup1\n        /* \"#utility.yul\":950:956   */\n      0x00\n        /* \"#utility.yul\":1003:1005   */\n      0x60\n        /* \"#utility.yul\":991:1000   */\n      dup5\n        /* \"#utility.yul\":982:989   */\n      dup7\n        /* \"#utility.yul\":978:1001   */\n      sub\n        /* \"#utility.yul\":974:1006   */\n      slt\n        /* \"#utility.yul\":971:1023   */\n      iszero\n      tag_524\n      jumpi\n        /* \"#utility.yul\":1019:1020   */\n      0x00\n        /* \"#utility.yul\":1016:1017   */\n      dup1\n        /* \"#utility.yul\":1009:1021   */\n      revert\n        /* \"#utility.yul\":971:1023   */\n    tag_524:\n        /* \"#utility.yul\":1064:1087   */\n      dup4\n      calldataload\n      swap3\n      pop\n        /* \"#utility.yul\":1184:1186   */\n      0x20\n        /* \"#utility.yul\":1169:1187   */\n      dup5\n      add\n        /* \"#utility.yul\":1156:1188   */\n      calldataload\n      swap2\n      pop\n        /* \"#utility.yul\":1233:1271   */\n      tag_525\n        /* \"#utility.yul\":1267:1269   */\n      0x40\n        /* \"#utility.yul\":1252:1270   */\n      dup6\n      add\n        /* \"#utility.yul\":1233:1271   */\n      tag_510\n      jump\t// in\n    tag_525:\n        /* \"#utility.yul\":1223:1271   */\n      swap1\n      pop\n        /* \"#utility.yul\":857:1277   */\n      swap3\n      pop\n      swap3\n      pop\n      swap3\n      jump\t// out\n        /* \"#utility.yul\":1282:1468   */\n    tag_64:\n        /* \"#utility.yul\":1341:1347   */\n      0x00\n        /* \"#utility.yul\":1394:1396   */\n      0x20\n        /* \"#utility.yul\":1382:1391   */\n      dup3\n        /* \"#utility.yul\":1373:1380   */\n      dup5\n        /* \"#utility.yul\":1369:1392   */\n      sub\n        /* \"#utility.yul\":1365:1397   */\n      slt\n        /* \"#utility.yul\":1362:1414   */\n      iszero\n      tag_527\n      jumpi\n        /* \"#utility.yul\":1410:1411   */\n      0x00\n        /* \"#utility.yul\":1407:1408   */\n      dup1\n        /* \"#utility.yul\":1400:1412   */\n      revert\n        /* \"#utility.yul\":1362:1414   */\n    tag_527:\n        /* \"#utility.yul\":1433:1462   */\n      tag_482\n        /* \"#utility.yul\":1452:1461   */\n      dup3\n        /* \"#utility.yul\":1433:1462   */\n      tag_510\n      jump\t// in\n        /* \"#utility.yul\":1473:1699   */\n    tag_68:\n        /* \"#utility.yul\":1532:1538   */\n      0x00\n        /* \"#utility.yul\":1585:1587   */\n      0x20\n        /* \"#utility.yul\":1573:1582   */\n      dup3\n        /* \"#utility.yul\":1564:1571   */\n      dup5\n        /* \"#utility.yul\":1560:1583   */\n      sub\n        /* \"#utility.yul\":1556:1588   */\n      slt\n        /* \"#utility.yul\":1553:1605   */\n      iszero\n      tag_530\n      jumpi\n        /* \"#utility.yul\":1601:1602   */\n      0x00\n        /* \"#utility.yul\":1598:1599   */\n      dup1\n        /* \"#utility.yul\":1591:1603   */\n      revert\n        /* \"#utility.yul\":1553:1605   */\n    tag_530:\n      pop\n        /* \"#utility.yul\":1646:1669   */\n      calldataload\n      swap2\n        /* \"#utility.yul\":1473:1699   */\n      swap1\n      pop\n      jump\t// out\n        /* \"#utility.yul\":1704:2245   */\n    tag_73:\n        /* \"#utility.yul\":1790:1796   */\n      0x00\n        /* \"#utility.yul\":1798:1804   */\n      dup1\n        /* \"#utility.yul\":1806:1812   */\n      0x00\n        /* \"#utility.yul\":1814:1820   */\n      dup1\n        /* \"#utility.yul\":1867:1870   */\n      0x80\n        /* \"#utility.yul\":1855:1864   */\n      dup6\n        /* \"#utility.yul\":1846:1853   */\n      dup8\n        /* \"#utility.yul\":1842:1865   */\n      sub\n        /* \"#utility.yul\":1838:1871   */\n      slt\n        /* \"#utility.yul\":1835:1888   */\n      iszero\n      tag_532\n      jumpi\n        /* \"#utility.yul\":1884:1885   */\n      0x00\n        /* \"#utility.yul\":1881:1882   */\n      dup1\n        /* \"#utility.yul\":1874:1886   */\n      revert\n        /* \"#utility.yul\":1835:1888   */\n    tag_532:\n        /* \"#utility.yul\":1929:1952   */\n      dup5\n      calldataload\n      swap4\n      pop\n        /* \"#utility.yul\":2049:2051   */\n      0x20\n        /* \"#utility.yul\":2034:2052   */\n      dup6\n      add\n        /* \"#utility.yul\":2021:2053   */\n      calldataload\n      swap3\n      pop\n        /* \"#utility.yul\":2152:2154   */\n      0x40\n        /* \"#utility.yul\":2137:2155   */\n      dup6\n      add\n        /* \"#utility.yul\":2124:2156   */\n      calldataload\n      swap2\n      pop\n        /* \"#utility.yul\":2201:2239   */\n      tag_533\n        /* \"#utility.yul\":2235:2237   */\n      0x60\n        /* \"#utility.yul\":2220:2238   */\n      dup7\n      add\n        /* \"#utility.yul\":2201:2239   */\n      tag_510\n      jump\t// in\n    tag_533:\n        /* \"#utility.yul\":2191:2239   */\n      swap1\n      pop\n        /* \"#utility.yul\":1704:2245   */\n      swap3\n      swap6\n      swap2\n      swap5\n      pop\n      swap3\n      pop\n      jump\t// out\n        /* \"#utility.yul\":3142:3442   */\n    tag_88:\n        /* \"#utility.yul\":3210:3216   */\n      0x00\n        /* \"#utility.yul\":3218:3224   */\n      dup1\n        /* \"#utility.yul\":3271:3273   */\n      0x40\n        /* \"#utility.yul\":3259:3268   */\n      dup4\n        /* \"#utility.yul\":3250:3257   */\n      dup6\n        /* \"#utility.yul\":3246:3269   */\n      sub\n        /* \"#utility.yul\":3242:3274   */\n      slt\n        /* \"#utility.yul\":3239:3291   */\n      iszero\n      tag_539\n      jumpi\n        /* \"#utility.yul\":3287:3288   */\n      0x00\n        /* \"#utility.yul\":3284:3285   */\n      dup1\n        /* \"#utility.yul\":3277:3289   */\n      revert\n        /* \"#utility.yul\":3239:3291   */\n    tag_539:\n        /* \"#utility.yul\":3332:3355   */\n      dup3\n      calldataload\n      swap2\n      pop\n        /* \"#utility.yul\":3398:3436   */\n      tag_540\n        /* \"#utility.yul\":3432:3434   */\n      0x20\n        /* \"#utility.yul\":3417:3435   */\n      dup5\n      add\n        /* \"#utility.yul\":3398:3436   */\n      tag_510\n      jump\t// in\n    tag_540:\n        /* \"#utility.yul\":3388:3436   */\n      swap1\n      pop\n        /* \"#utility.yul\":3142:3442   */\n      swap3\n      pop\n      swap3\n      swap1\n      pop\n      jump\t// out\n        /* \"#utility.yul\":3655:4075   */\n    tag_131:\n        /* \"#utility.yul\":3732:3738   */\n      0x00\n        /* \"#utility.yul\":3740:3746   */\n      dup1\n        /* \"#utility.yul\":3748:3754   */\n      0x00\n        /* \"#utility.yul\":3801:3803   */\n      0x60\n        /* \"#utility.yul\":3789:3798   */\n      dup5\n        /* \"#utility.yul\":3780:3787   */\n      dup7\n        /* \"#utility.yul\":3776:3799   */\n      sub\n        /* \"#utility.yul\":3772:3804   */\n      slt\n        /* \"#utility.yul\":3769:3821   */\n      iszero\n      tag_543\n      jumpi\n        /* \"#utility.yul\":3817:3818   */\n      0x00\n        /* \"#utility.yul\":3814:3815   */\n      dup1\n        /* \"#utility.yul\":3807:3819   */\n      revert\n        /* \"#utility.yul\":3769:3821   */\n    tag_543:\n        /* \"#utility.yul\":3840:3869   */\n      tag_544\n        /* \"#utility.yul\":3859:3868   */\n      dup5\n        /* \"#utility.yul\":3840:3869   */\n      tag_510\n      jump\t// in\n    tag_544:\n        /* \"#utility.yul\":3830:3869   */\n      swap6\n        /* \"#utility.yul\":3938:3940   */\n      0x20\n        /* \"#utility.yul\":3923:3941   */\n      dup6\n      add\n        /* \"#utility.yul\":3910:3942   */\n      calldataload\n      swap6\n      pop\n        /* \"#utility.yul\":4039:4041   */\n      0x40\n        /* \"#utility.yul\":4024:4042   */\n      swap1\n      swap5\n      add\n        /* \"#utility.yul\":4011:4043   */\n      calldataload\n      swap4\n        /* \"#utility.yul\":3655:4075   */\n      swap3\n      pop\n      pop\n      pop\n      jump\t// out\n        /* \"#utility.yul\":4080:4770   */\n    tag_134:\n        /* \"#utility.yul\":4298:4300   */\n      0x40\n        /* \"#utility.yul\":4310:4331   */\n      dup1\n      dup3\n      mstore\n        /* \"#utility.yul\":4380:4393   */\n      dup4\n      mload\n        /* \"#utility.yul\":4283:4301   */\n      swap1\n      dup3\n      add\n        /* \"#utility.yul\":4402:4424   */\n      dup2\n      swap1\n      mstore\n        /* \"#utility.yul\":4250:4254   */\n      0x00\n      swap1\n        /* \"#utility.yul\":4493:4497   */\n      0x20\n        /* \"#utility.yul\":4481:4498   */\n      dup6\n      add\n      swap1\n        /* \"#utility.yul\":4455:4457   */\n      0x60\n        /* \"#utility.yul\":4440:4458   */\n      dup5\n      add\n      swap1\n        /* \"#utility.yul\":4250:4254   */\n      dup4\n        /* \"#utility.yul\":4526:4699   */\n    tag_546:\n        /* \"#utility.yul\":4540:4546   */\n      dup2\n        /* \"#utility.yul\":4537:4538   */\n      dup2\n        /* \"#utility.yul\":4534:4547   */\n      lt\n        /* \"#utility.yul\":4526:4699   */\n      iszero\n      tag_548\n      jumpi\n        /* \"#utility.yul\":4601:4614   */\n      dup4\n      mload\n        /* \"#utility.yul\":4589:4615   */\n      dup4\n      mstore\n        /* \"#utility.yul\":4644:4648   */\n      0x20\n        /* \"#utility.yul\":4672:4689   */\n      swap4\n      dup5\n      add\n      swap4\n        /* \"#utility.yul\":4635:4649   */\n      swap1\n      swap3\n      add\n      swap2\n        /* \"#utility.yul\":4562:4563   */\n      0x01\n        /* \"#utility.yul\":4555:4564   */\n      add\n        /* \"#utility.yul\":4526:4699   */\n      jump(tag_546)\n    tag_548:\n      pop\n      pop\n        /* \"#utility.yul\":4750:4754   */\n      0x20\n        /* \"#utility.yul\":4735:4755   */\n      swap4\n      swap1\n      swap4\n      add\n        /* \"#utility.yul\":4728:4764   */\n      swap4\n      swap1\n      swap4\n      mstore\n      pop\n        /* \"#utility.yul\":4716:4719   */\n      swap3\n        /* \"#utility.yul\":4080:4770   */\n      swap2\n      pop\n      pop\n      jump\t// out\n        /* \"#utility.yul\":4775:5075   */\n    tag_144:\n        /* \"#utility.yul\":4843:4849   */\n      0x00\n        /* \"#utility.yul\":4851:4857   */\n      dup1\n        /* \"#utility.yul\":4904:4906   */\n      0x40\n        /* \"#utility.yul\":4892:4901   */\n      dup4\n        /* \"#utility.yul\":4883:4890   */\n      dup6\n        /* \"#utility.yul\":4879:4902   */\n      sub\n        /* \"#utility.yul\":4875:4907   */\n      slt\n        /* \"#utility.yul\":4872:4924   */\n      iszero\n      tag_550\n      jumpi\n        /* \"#utility.yul\":4920:4921   */\n      0x00\n        /* \"#utility.yul\":4917:4918   */\n      dup1\n        /* \"#utility.yul\":4910:4922   */\n      revert\n        /* \"#utility.yul\":4872:4924   */\n    tag_550:\n        /* \"#utility.yul\":4943:4972   */\n      tag_551\n        /* \"#utility.yul\":4962:4971   */\n      dup4\n        /* \"#utility.yul\":4943:4972   */\n      tag_510\n      jump\t// in\n    tag_551:\n        /* \"#utility.yul\":4933:4972   */\n      swap5\n        /* \"#utility.yul\":5041:5043   */\n      0x20\n        /* \"#utility.yul\":5026:5044   */\n      swap4\n      swap1\n      swap4\n      add\n        /* \"#utility.yul\":5013:5045   */\n      calldataload\n      swap4\n      pop\n      pop\n      pop\n        /* \"#utility.yul\":4775:5075   */\n      jump\t// out\n        /* \"#utility.yul\":6901:7028   */\n    tag_511:\n        /* \"#utility.yul\":6962:6972   */\n      0x4e487b71\n        /* \"#utility.yul\":6957:6960   */\n      0xe0\n        /* \"#utility.yul\":6953:6973   */\n      shl\n        /* \"#utility.yul\":6950:6951   */\n      0x00\n        /* \"#utility.yul\":6943:6974   */\n      mstore\n        /* \"#utility.yul\":6993:6997   */\n      0x11\n        /* \"#utility.yul\":6990:6991   */\n      0x04\n        /* \"#utility.yul\":6983:6998   */\n      mstore\n        /* \"#utility.yul\":7017:7021   */\n      0x24\n        /* \"#utility.yul\":7014:7015   */\n      0x00\n        /* \"#utility.yul\":7007:7022   */\n      revert\n        /* \"#utility.yul\":7033:7168   */\n    tag_210:\n        /* \"#utility.yul\":7072:7075   */\n      0x00\n        /* \"#utility.yul\":7093:7110   */\n      0x01\n      dup3\n      add\n        /* \"#utility.yul\":7090:7133   */\n      tag_561\n      jumpi\n        /* \"#utility.yul\":7113:7131   */\n      tag_561\n      tag_511\n      jump\t// in\n    tag_561:\n      pop\n        /* \"#utility.yul\":7160:7161   */\n      0x01\n        /* \"#utility.yul\":7149:7162   */\n      add\n      swap1\n        /* \"#utility.yul\":7033:7168   */\n      jump\t// out\n        /* \"#utility.yul\":7527:7655   */\n    tag_216:\n        /* \"#utility.yul\":7594:7603   */\n      dup2\n      dup2\n      sub\n        /* \"#utility.yul\":7615:7626   */\n      dup2\n      dup2\n      gt\n        /* \"#utility.yul\":7612:7649   */\n      iszero\n      tag_194\n      jumpi\n        /* \"#utility.yul\":7629:7647   */\n      tag_194\n      tag_511\n      jump\t// in\n        /* \"#utility.yul\":8036:8313   */\n    tag_222:\n        /* \"#utility.yul\":8103:8109   */\n      0x00\n        /* \"#utility.yul\":8156:8158   */\n      0x20\n        /* \"#utility.yul\":8144:8153   */\n      dup3\n        /* \"#utility.yul\":8135:8142   */\n      dup5\n        /* \"#utility.yul\":8131:8154   */\n      sub\n        /* \"#utility.yul\":8127:8159   */\n      slt\n        /* \"#utility.yul\":8124:8176   */\n      iszero\n      tag_568\n      jumpi\n        /* \"#utility.yul\":8172:8173   */\n      0x00\n        /* \"#utility.yul\":8169:8170   */\n      dup1\n        /* \"#utility.yul\":8162:8174   */\n      revert\n        /* \"#utility.yul\":8124:8176   */\n    tag_568:\n        /* \"#utility.yul\":8204:8213   */\n      dup2\n        /* \"#utility.yul\":8198:8214   */\n      mload\n        /* \"#utility.yul\":8257:8262   */\n      dup1\n        /* \"#utility.yul\":8250:8263   */\n      iszero\n        /* \"#utility.yul\":8243:8264   */\n      iszero\n        /* \"#utility.yul\":8236:8241   */\n      dup2\n        /* \"#utility.yul\":8233:8265   */\n      eq\n        /* \"#utility.yul\":8223:8283   */\n      tag_482\n      jumpi\n        /* \"#utility.yul\":8279:8280   */\n      0x00\n        /* \"#utility.yul\":8276:8277   */\n      dup1\n        /* \"#utility.yul\":8269:8281   */\n      revert\n        /* \"#utility.yul\":10148:10275   */\n    tag_303:\n        /* \"#utility.yul\":10209:10219   */\n      0x4e487b71\n        /* \"#utility.yul\":10204:10207   */\n      0xe0\n        /* \"#utility.yul\":10200:10220   */\n      shl\n        /* \"#utility.yul\":10197:10198   */\n      0x00\n        /* \"#utility.yul\":10190:10221   */\n      mstore\n        /* \"#utility.yul\":10240:10244   */\n      0x32\n        /* \"#utility.yul\":10237:10238   */\n      0x04\n        /* \"#utility.yul\":10230:10245   */\n      mstore\n        /* \"#utility.yul\":10264:10268   */\n      0x24\n        /* \"#utility.yul\":10261:10262   */\n      0x00\n        /* \"#utility.yul\":10254:10269   */\n      revert\n        /* \"#utility.yul\":10280:10448   */\n    tag_310:\n        /* \"#utility.yul\":10353:10362   */\n      dup1\n      dup3\n      mul\n        /* \"#utility.yul\":10384:10393   */\n      dup2\n      iszero\n        /* \"#utility.yul\":10401:10416   */\n      dup3\n      dup3\n      div\n        /* \"#utility.yul\":10395:10417   */\n      dup5\n      eq\n        /* \"#utility.yul\":10381:10418   */\n      or\n        /* \"#utility.yul\":10371:10442   */\n      tag_194\n      jumpi\n        /* \"#utility.yul\":10422:10440   */\n      tag_194\n      tag_511\n      jump\t// in\n        /* \"#utility.yul\":10453:10578   */\n    tag_314:\n        /* \"#utility.yul\":10518:10527   */\n      dup1\n      dup3\n      add\n        /* \"#utility.yul\":10539:10549   */\n      dup1\n      dup3\n      gt\n        /* \"#utility.yul\":10536:10572   */\n      iszero\n      tag_194\n      jumpi\n        /* \"#utility.yul\":10552:10570   */\n      tag_194\n      tag_511\n      jump\t// in\n        /* \"#utility.yul\":10583:10710   */\n    tag_319:\n        /* \"#utility.yul\":10644:10654   */\n      0x4e487b71\n        /* \"#utility.yul\":10639:10642   */\n      0xe0\n        /* \"#utility.yul\":10635:10655   */\n      shl\n        /* \"#utility.yul\":10632:10633   */\n      0x00\n        /* \"#utility.yul\":10625:10656   */\n      mstore\n        /* \"#utility.yul\":10675:10679   */\n      0x41\n        /* \"#utility.yul\":10672:10673   */\n      0x04\n        /* \"#utility.yul\":10665:10680   */\n      mstore\n        /* \"#utility.yul\":10699:10703   */\n      0x24\n        /* \"#utility.yul\":10696:10697   */\n      0x00\n        /* \"#utility.yul\":10689:10704   */\n      revert\n        /* \"#utility.yul\":10715:10851   */\n    tag_337:\n        /* \"#utility.yul\":10754:10757   */\n      0x00\n        /* \"#utility.yul\":10782:10787   */\n      dup2\n        /* \"#utility.yul\":10772:10811   */\n      tag_585\n      jumpi\n        /* \"#utility.yul\":10791:10809   */\n      tag_585\n      tag_511\n      jump\t// in\n    tag_585:\n      pop\n      not(0x00)\n        /* \"#utility.yul\":10827:10845   */\n      add\n      swap1\n        /* \"#utility.yul\":10715:10851   */\n      jump\t// out\n        /* \"#utility.yul\":11210:11483   */\n    tag_345:\n        /* \"#utility.yul\":11278:11284   */\n      0x00\n        /* \"#utility.yul\":11331:11333   */\n      0x20\n        /* \"#utility.yul\":11319:11328   */\n      dup3\n        /* \"#utility.yul\":11310:11317   */\n      dup5\n        /* \"#utility.yul\":11306:11329   */\n      sub\n        /* \"#utility.yul\":11302:11334   */\n      slt\n        /* \"#utility.yul\":11299:11351   */\n      iszero\n      tag_588\n      jumpi\n        /* \"#utility.yul\":11347:11348   */\n      0x00\n        /* \"#utility.yul\":11344:11345   */\n      dup1\n        /* \"#utility.yul\":11337:11349   */\n      revert\n        /* \"#utility.yul\":11299:11351   */\n    tag_588:\n        /* \"#utility.yul\":11379:11388   */\n      dup2\n        /* \"#utility.yul\":11373:11389   */\n      mload\n        /* \"#utility.yul\":11429:11433   */\n      0xff\n        /* \"#utility.yul\":11422:11427   */\n      dup2\n        /* \"#utility.yul\":11418:11434   */\n      and\n        /* \"#utility.yul\":11411:11416   */\n      dup2\n        /* \"#utility.yul\":11408:11435   */\n      eq\n        /* \"#utility.yul\":11398:11453   */\n      tag_482\n      jumpi\n        /* \"#utility.yul\":11449:11450   */\n      0x00\n        /* \"#utility.yul\":11446:11447   */\n      dup1\n        /* \"#utility.yul\":11439:11451   */\n      revert\n        /* \"#utility.yul\":12096:12247   */\n    tag_478:\n        /* \"#utility.yul\":12186:12190   */\n      0xff\n        /* \"#utility.yul\":12179:12191   */\n      dup3\n      dup2\n      and\n        /* \"#utility.yul\":12165:12177   */\n      dup3\n      dup3\n      and\n        /* \"#utility.yul\":12161:12192   */\n      sub\n      swap1\n        /* \"#utility.yul\":12204:12218   */\n      dup2\n      gt\n        /* \"#utility.yul\":12201:12241   */\n      iszero\n      tag_194\n      jumpi\n        /* \"#utility.yul\":12221:12239   */\n      tag_194\n      tag_511\n      jump\t// in\n        /* \"#utility.yul\":12252:12627   */\n    tag_512:\n        /* \"#utility.yul\":12340:12341   */\n      0x01\n        /* \"#utility.yul\":12358:12363   */\n      dup2\n        /* \"#utility.yul\":12372:12621   */\n    tag_596:\n        /* \"#utility.yul\":12393:12394   */\n      0x01\n        /* \"#utility.yul\":12383:12391   */\n      dup5\n        /* \"#utility.yul\":12380:12395   */\n      gt\n        /* \"#utility.yul\":12372:12621   */\n      iszero\n      tag_291\n      jumpi\n        /* \"#utility.yul\":12443:12447   */\n      dup1\n        /* \"#utility.yul\":12438:12441   */\n      dup6\n        /* \"#utility.yul\":12434:12448   */\n      div\n        /* \"#utility.yul\":12428:12432   */\n      dup2\n        /* \"#utility.yul\":12425:12449   */\n      gt\n        /* \"#utility.yul\":12422:12472   */\n      iszero\n      tag_600\n      jumpi\n        /* \"#utility.yul\":12452:12470   */\n      tag_600\n      tag_511\n      jump\t// in\n    tag_600:\n        /* \"#utility.yul\":12502:12503   */\n      0x01\n        /* \"#utility.yul\":12492:12500   */\n      dup5\n        /* \"#utility.yul\":12488:12504   */\n      and\n        /* \"#utility.yul\":12485:12534   */\n      iszero\n      tag_601\n      jumpi\n        /* \"#utility.yul\":12516:12532   */\n      swap1\n      dup2\n      mul\n      swap1\n        /* \"#utility.yul\":12485:12534   */\n    tag_601:\n        /* \"#utility.yul\":12599:12600   */\n      0x01\n        /* \"#utility.yul\":12595:12611   */\n      swap4\n      swap1\n      swap4\n      shr\n      swap3\n        /* \"#utility.yul\":12555:12570   */\n      dup1\n      mul\n        /* \"#utility.yul\":12372:12621   */\n      jump(tag_596)\n        /* \"#utility.yul\":12632:13534   */\n    tag_513:\n        /* \"#utility.yul\":12681:12686   */\n      0x00\n        /* \"#utility.yul\":12711:12719   */\n      dup3\n        /* \"#utility.yul\":12701:12781   */\n      tag_603\n      jumpi\n      pop\n        /* \"#utility.yul\":12752:12753   */\n      0x01\n        /* \"#utility.yul\":12766:12771   */\n      jump(tag_194)\n        /* \"#utility.yul\":12701:12781   */\n    tag_603:\n        /* \"#utility.yul\":12800:12804   */\n      dup2\n        /* \"#utility.yul\":12790:12866   */\n      tag_604\n      jumpi\n      pop\n        /* \"#utility.yul\":12837:12838   */\n      0x00\n        /* \"#utility.yul\":12851:12856   */\n      jump(tag_194)\n        /* \"#utility.yul\":12790:12866   */\n    tag_604:\n        /* \"#utility.yul\":12882:12886   */\n      dup2\n        /* \"#utility.yul\":12900:12901   */\n      0x01\n        /* \"#utility.yul\":12895:12954   */\n      dup2\n      eq\n      tag_606\n      jumpi\n        /* \"#utility.yul\":12968:12969   */\n      0x02\n        /* \"#utility.yul\":12963:13137   */\n      dup2\n      eq\n      tag_607\n      jumpi\n        /* \"#utility.yul\":12875:13137   */\n      jump(tag_605)\n        /* \"#utility.yul\":12895:12954   */\n    tag_606:\n        /* \"#utility.yul\":12925:12926   */\n      0x01\n        /* \"#utility.yul\":12916:12926   */\n      swap2\n      pop\n        /* \"#utility.yul\":12939:12944   */\n      pop\n      jump(tag_194)\n        /* \"#utility.yul\":12963:13137   */\n    tag_607:\n        /* \"#utility.yul\":13000:13003   */\n      0xff\n        /* \"#utility.yul\":12990:12998   */\n      dup5\n        /* \"#utility.yul\":12987:13004   */\n      gt\n        /* \"#utility.yul\":12984:13027   */\n      iszero\n      tag_609\n      jumpi\n        /* \"#utility.yul\":13007:13025   */\n      tag_609\n      tag_511\n      jump\t// in\n    tag_609:\n      pop\n      pop\n        /* \"#utility.yul\":13063:13064   */\n      0x01\n        /* \"#utility.yul\":13049:13065   */\n      dup3\n      shl\n        /* \"#utility.yul\":13122:13127   */\n      jump(tag_194)\n        /* \"#utility.yul\":12875:13137   */\n    tag_605:\n      pop\n        /* \"#utility.yul\":13221:13223   */\n      0x20\n        /* \"#utility.yul\":13211:13219   */\n      dup4\n        /* \"#utility.yul\":13208:13224   */\n      lt\n        /* \"#utility.yul\":13202:13205   */\n      0x0133\n        /* \"#utility.yul\":13196:13200   */\n      dup4\n        /* \"#utility.yul\":13193:13206   */\n      lt\n        /* \"#utility.yul\":13189:13225   */\n      and\n        /* \"#utility.yul\":13183:13185   */\n      0x4e\n        /* \"#utility.yul\":13173:13181   */\n      dup5\n        /* \"#utility.yul\":13170:13186   */\n      lt\n        /* \"#utility.yul\":13165:13167   */\n      0x0b\n        /* \"#utility.yul\":13159:13163   */\n      dup5\n        /* \"#utility.yul\":13156:13168   */\n      lt\n        /* \"#utility.yul\":13152:13187   */\n      and\n        /* \"#utility.yul\":13149:13226   */\n      or\n        /* \"#utility.yul\":13146:13349   */\n      iszero\n      tag_610\n      jumpi\n      pop\n        /* \"#utility.yul\":13258:13277   */\n      dup2\n      dup2\n      exp\n        /* \"#utility.yul\":13334:13339   */\n      jump(tag_194)\n        /* \"#utility.yul\":13146:13349   */\n    tag_610:\n        /* \"#utility.yul\":13381:13423   */\n      tag_611\n      not(0x00)\n        /* \"#utility.yul\":13406:13414   */\n      dup5\n        /* \"#utility.yul\":13400:13404   */\n      dup5\n        /* \"#utility.yul\":13381:13423   */\n      tag_512\n      jump\t// in\n    tag_611:\n        /* \"#utility.yul\":13459:13465   */\n      dup1\n        /* \"#utility.yul\":13455:13456   */\n      0x00\n        /* \"#utility.yul\":13451:13457   */\n      not\n        /* \"#utility.yul\":13447:13466   */\n      div\n        /* \"#utility.yul\":13438:13445   */\n      dup3\n        /* \"#utility.yul\":13435:13467   */\n      gt\n        /* \"#utility.yul\":13432:13490   */\n      iszero\n      tag_613\n      jumpi\n        /* \"#utility.yul\":13470:13488   */\n      tag_613\n      tag_511\n      jump\t// in\n    tag_613:\n        /* \"#utility.yul\":13508:13528   */\n      mul\n      swap4\n        /* \"#utility.yul\":12632:13534   */\n      swap3\n      pop\n      pop\n      pop\n      jump\t// out\n        /* \"#utility.yul\":13539:13679   */\n    tag_480:\n        /* \"#utility.yul\":13597:13602   */\n      0x00\n        /* \"#utility.yul\":13626:13673   */\n      tag_482\n        /* \"#utility.yul\":13667:13671   */\n      0xff\n        /* \"#utility.yul\":13657:13665   */\n      dup5\n        /* \"#utility.yul\":13653:13672   */\n      and\n        /* \"#utility.yul\":13647:13651   */\n      dup4\n        /* \"#utility.yul\":13626:13673   */\n      tag_513\n      jump\t// in\n        /* \"#utility.yul\":13684:13811   */\n    tag_514:\n        /* \"#utility.yul\":13745:13755   */\n      0x4e487b71\n        /* \"#utility.yul\":13740:13743   */\n      0xe0\n        /* \"#utility.yul\":13736:13756   */\n      shl\n        /* \"#utility.yul\":13733:13734   */\n      0x00\n        /* \"#utility.yul\":13726:13757   */\n      mstore\n        /* \"#utility.yul\":13776:13780   */\n      0x12\n        /* \"#utility.yul\":13773:13774   */\n      0x04\n        /* \"#utility.yul\":13766:13781   */\n      mstore\n        /* \"#utility.yul\":13800:13804   */\n      0x24\n        /* \"#utility.yul\":13797:13798   */\n      0x00\n        /* \"#utility.yul\":13790:13805   */\n      revert\n        /* \"#utility.yul\":13816:13936   */\n    tag_486:\n        /* \"#utility.yul\":13856:13857   */\n      0x00\n        /* \"#utility.yul\":13882:13883   */\n      dup3\n        /* \"#utility.yul\":13872:13907   */\n      tag_619\n      jumpi\n        /* \"#utility.yul\":13887:13905   */\n      tag_619\n      tag_514\n      jump\t// in\n    tag_619:\n      pop\n        /* \"#utility.yul\":13921:13930   */\n      div\n      swap1\n        /* \"#utility.yul\":13816:13936   */\n      jump\t// out\n        /* \"#utility.yul\":13941:14053   */\n    tag_499:\n        /* \"#utility.yul\":13973:13974   */\n      0x00\n        /* \"#utility.yul\":13999:14000   */\n      dup3\n        /* \"#utility.yul\":13989:14024   */\n      tag_622\n      jumpi\n        /* \"#utility.yul\":14004:14022   */\n      tag_622\n      tag_514\n      jump\t// in\n    tag_622:\n      pop\n        /* \"#utility.yul\":14038:14047   */\n      mod\n      swap1\n        /* \"#utility.yul\":13941:14053   */\n      jump\t// out\n    stop\n    data_cb864c43dd5d441bb6271f424f11befa622c032dfd374d226e26fbbdb782b8f8 a49807205ce4d355092ef5a8a18f56e8913cf4a201fbe287825b095693c21775\n\n    auxdata: 0xa264697066735822122043c091aa4a94152f4445b337be5de9e6b3d6fa063bc9244af3e6de28840319be64736f6c634300081a0033\n}\n",
				"bytecode": {
					"linkReferences": {},
					"object": "60806040526207a120600455348015610016575f80fd5b506040516121c93803806121c983398101604081905261003591610204565b60018054600280546001600160a01b03808a166001600160a01b0319909216919091179091558416610100026001600160a81b031990911617905561007a5f33610140565b506100a57fa49807205ce4d355092ef5a8a18f56e8913cf4a201fbe287825b095693c2177533610140565b506100d07f41de7ae3becaf069074d499ebcbd36df88385ba1e2946870f7e4674aecd4370484610140565b506100fb7f65d7a28e3265b37a6474929f336521b332c1681b933f6cb9f3376673440d862a84610140565b506001600160a01b039384165f908152600860205260409020805460ff1916600117905560058054919094166001600160a01b03199091161790925550610265915050565b5f828152602081815260408083206001600160a01b038516845290915281205460ff166101e0575f838152602081815260408083206001600160a01b03861684529091529020805460ff191660011790556101983390565b6001600160a01b0316826001600160a01b0316847f2f8788117e7eff1d82e926ec794901d17c78024a50270940304540a733656f0d60405160405180910390a45060016101e3565b505f5b92915050565b80516001600160a01b03811681146101ff575f80fd5b919050565b5f805f805f60a08688031215610218575f80fd5b610221866101e9565b945061022f602087016101e9565b935061023d604087016101e9565b925061024b606087016101e9565b9150610259608087016101e9565b90509295509295909350565b611f57806102725f395ff3fe608060405234801561000f575f80fd5b5060043610610228575f3560e01c8063854935f11161012a578063c5494ffb116100b4578063d547741f11610079578063d547741f146105c3578063e63ab1e9146105d6578063e74b981b146105fd578063ea277eca14610610578063eda87eff14610631575f80fd5b8063c5494ffb14610553578063c640065714610566578063c99773ce14610579578063d19fad3714610598578063d270e7ab146105ab575f80fd5b8063a217fddf116100fa578063a217fddf146104f4578063a2519ae4146104fb578063a62e1b3e1461050e578063bb93ede014610521578063bead8d2614610534575f80fd5b8063854935f11461048b57806391d148541461049e578063973697bd146104b15780639ea4f3a4146104d2575f80fd5b80632f92893c116101b6578063469048401161017b57806346904840146104305780635badbe4c1461045b5780635c975abb1461046457806375b238fc1461046f5780638456cb5914610483575f80fd5b80632f92893c146103b957806334d8c7d5146103db57806336568abe146103ee57806337174202146104015780633f4ba83a14610428575f80fd5b80631e7502d7116101fc5780631e7502d7146102935780631f224564146102b5578063248a9ca3146102c857806326757b73146102ea5780632f2ff15d146103a6575f80fd5b80626770161461022c57806301ffc9a7146102485780630bd31a571461026b5780631008776f14610280575b5f80fd5b61023560045481565b6040519081526020015b60405180910390f35b61025b610256366004611b32565b61064b565b604051901515815260200161023f565b61027e610279366004611b74565b610681565b005b61027e61028e366004611ba6565b61098d565b61025b6102a1366004611bbf565b5f9081526009602052604090205460ff1690565b61027e6102c3366004611bd6565b6109ed565b6102356102d6366004611bbf565b5f9081526020819052604090206001015490565b6103686102f8366004611bbf565b60408051608080820183525f80835260208084018290528385018290526060938401829052948152600a8552839020835191820184528054825260018101546001600160a01b03169482019490945260028401549281019290925260039092015460ff1615159181019190915290565b60405161023f9190815181526020808301516001600160a01b0316908201526040808301519082015260609182015115159181019190915260800190565b61027e6103b4366004611c12565b610c4a565b61025b6103c7366004611bbf565b60096020525f908152604090205460ff1681565b6102356103e9366004611bbf565b610c74565b61027e6103fc366004611c12565b610c93565b6102357f41de7ae3becaf069074d499ebcbd36df88385ba1e2946870f7e4674aecd4370481565b61027e610ccb565b600554610443906001600160a01b031681565b6040516001600160a01b03909116815260200161023f565b61023560035481565b60015460ff1661025b565b6102355f80516020611f0283398151915281565b61027e610d00565b610235610499366004611bbf565b610d32565b61025b6104ac366004611c12565b610d41565b6104c46104bf366004611c3c565b610d69565b60405161023f929190611c6c565b61025b6104e0366004611ba6565b60086020525f908152604090205460ff1681565b6102355f81565b61027e610509366004611cb8565b610fb9565b600254610443906001600160a01b031681565b6104c461052f366004611c3c565b611205565b610235610542366004611bbf565b600c6020525f908152604090205481565b61027e610561366004611bbf565b611438565b61027e610574366004611ba6565b611455565b610235610587366004611bbf565b600b6020525f908152604090205481565b61027e6105a6366004611cb8565b6114b8565b6001546104439061010090046001600160a01b031681565b61027e6105d1366004611c12565b61169d565b6102357f65d7a28e3265b37a6474929f336521b332c1681b933f6cb9f3376673440d862a81565b61027e61060b366004611ba6565b6116c1565b61025b61061e366004611bbf565b5f908152600a6020526040902054151590565b610639600681565b60405160ff909116815260200161023f565b5f6001600160e01b03198216637965db0b60e01b148061067b57506301ffc9a760e01b6001600160e01b03198316145b92915050565b6106896116fb565b4683036106f65760405162461bcd60e51b815260206004820152603060248201527f54617267657420636861696e206d75737420626520646966666572656e74206660448201526f3937b69039b7bab931b29031b430b4b760811b60648201526084015b60405180910390fd5b60045482116107525760405162461bcd60e51b815260206004820152602260248201527f416d6f756e74206d7573742062652067726561746572207468616e2067617366604482015261656560f01b60648201526084016106ed565b6001600160a01b0381166107a85760405162461bcd60e51b815260206004820152601b60248201527f496e76616c69642074617267657420757365722061646472657373000000000060448201526064016106ed565b5f4690505f60035f81546107bb90611cf4565b918290555060c083901b608087901b174260401b171790506107ea815f908152600a6020526040902054151590565b156108335760405162461bcd60e51b81526020600482015260196024820152785265717565737420494420616c72656164792065786973747360381b60448201526064016106ed565b5f600454856108429190611d0c565b600254600554600480546040516323b872dd60e01b815233928101929092526001600160a01b039283166024830152604482015292935016906323b872dd906064016020604051808303815f875af11580156108a0573d5f803e3d5ffd5b505050506040513d601f19601f820116820180604052508101906108c49190611d1f565b5060025460405163079cc67960e41b8152336004820152602481018390526001600160a01b03909116906379cc6790906044015f604051808303815f87803b15801561090e575f80fd5b505af1158015610920573d5f803e3d5ffd5b505050506109318233836001611721565b60408051848152602081018890529081018290526001600160a01b0385166060820152339083907f26c32cc5ff12981b55681844f2fb47d52c5e521c58d5288b1325f3304a7e88529060800160405180910390a3505050505050565b5f80516020611f028339815191526109a48161185b565b6001600160a01b0382165f81815260086020526040808220805460ff19169055517f0fa63555fe68cad70e08233633567493a3c74afdc8c7fb9f0c03a8e74f1a137a9190a25050565b7f41de7ae3becaf069074d499ebcbd36df88385ba1e2946870f7e4674aecd43704610a178161185b565b610a1f6116fb565b468403610a875760405162461bcd60e51b815260206004820152603060248201527f536f7572636520636861696e206d75737420626520646966666572656e74206660448201526f3937b6903a30b933b2ba1031b430b4b760811b60648201526084016106ed565b5f8311610ad65760405162461bcd60e51b815260206004820152601d60248201527f416d6f756e74206d7573742062652067726561746572207468616e203000000060448201526064016106ed565b6001600160a01b038216610b2c5760405162461bcd60e51b815260206004820152601b60248201527f496e76616c69642074617267657420757365722061646472657373000000000060448201526064016106ed565b5f858152600a602052604090205415610b835760405162461bcd60e51b81526020600482015260196024820152785265717565737420494420616c72656164792065786973747360381b60448201526064016106ed565b6002546040516340c10f1960e01b81526001600160a01b03848116600483015260248201869052909116906340c10f19906044015f604051808303815f87803b158015610bce575f80fd5b505af1158015610be0573d5f803e3d5ffd5b50505050610bf08583855f611721565b604080518581524660208201529081018490526001600160a01b0383166060820152339086907f7690d9cedf96f067bda7114c24bba31be184ae045d199979a0a373862e70d46b9060800160405180910390a35050505050565b5f82815260208190526040902060010154610c648161185b565b610c6e8383611865565b50505050565b60078181548110610c83575f80fd5b5f91825260209091200154905081565b6001600160a01b0381163314610cbc5760405163334bd91960e11b815260040160405180910390fd5b610cc682826118f4565b505050565b7f65d7a28e3265b37a6474929f336521b332c1681b933f6cb9f3376673440d862a610cf58161185b565b610cfd61195d565b50565b7f65d7a28e3265b37a6474929f336521b332c1681b933f6cb9f3376673440d862a610d2a8161185b565b610cfd6119af565b60068181548110610c83575f80fd5b5f918252602082815260408084206001600160a01b0393909316845291905290205460ff1690565b60605f831580610d77575082155b80610d8b57505f84118015610d8b57505f83115b610dd35760405162461bcd60e51b8152602060048201526019602482015278496e76616c69642070616765206f7220706167652073697a6560381b60448201526064016106ed565b5f805b600654811015610e4257866001600160a01b0316600a5f60068481548110610e0057610e00611d3e565b5f91825260208083209091015483528201929092526040019020600101546001600160a01b031603610e3a5781610e3681611cf4565b9250505b600101610dd6565b505f818615801590610e5357505f86115b15610e9157610e628688611d52565b610e6c9084611d0c565b915082821115610e7a575f91505b610e848683611d69565b905082811115610e915750815b5f610e9c8383611d0c565b67ffffffffffffffff811115610eb457610eb4611d7c565b604051908082528060200260200182016040528015610edd578160200160208202803683370190505b506006549091505f905b5f81118015610ef65750825182105b15610fa6575f6006610f09600184611d0c565b81548110610f1957610f19611d3e565b5f918252602080832090910154808352600a9091526040909120600101549091506001600160a01b03808e16911603610f935785610f578489611d0c565b1115610f8d5780848481518110610f7057610f70611d3e565b602090810291909101015282610f8581611cf4565b935050610f93565b50610fa6565b5080610f9e81611d90565b915050610ee7565b509095509293505050505b935093915050565b6001600160a01b0382165f9081526008602052604090205460ff1661101c5760405162461bcd60e51b815260206004820152601960248201527814dd18589b1958dbda5b881b9bdd081c9959da5cdd195c9959603a1b60448201526064016106ed565b5f826001600160a01b031663313ce5676040518163ffffffff1660e01b8152600401602060405180830381865afa158015611059573d5f803e3d5ffd5b505050506040513d601f19601f8201168201806040525081019061107d9190611da5565b90505f61108c838360066119ea565b6001546040516323b872dd60e01b81523360048201526001600160a01b0361010090920482166024820152604481018690529192508516906323b872dd906064016020604051808303815f875af11580156110e9573d5f803e3d5ffd5b505050506040513d601f19601f8201168201806040525081019061110d9190611d1f565b6111595760405162461bcd60e51b815260206004820152601a60248201527f537461626c65636f696e207472616e73666572206661696c656400000000000060448201526064016106ed565b6002546040516340c10f1960e01b8152336004820152602481018390526001600160a01b03909116906340c10f19906044015f604051808303815f87803b1580156111a2575f80fd5b505af11580156111b4573d5f803e3d5ffd5b505060408051868152602081018590526001600160a01b03881693503392507f66c62f0863782653c5c44e10bf21d9def60984ce20d9f75549575a891089658791015b60405180910390a350505050565b60605f831580611213575082155b8061122757505f8411801561122757505f83115b61126f5760405162461bcd60e51b8152602060048201526019602482015278496e76616c69642070616765206f7220706167652073697a6560381b60448201526064016106ed565b5f805b6007548110156112de57866001600160a01b0316600a5f6007848154811061129c5761129c611d3e565b5f91825260208083209091015483528201929092526040019020600101546001600160a01b0316036112d657816112d281611cf4565b9250505b600101611272565b505f8186158015906112ef57505f86115b1561132d576112fe8688611d52565b6113089084611d0c565b915082821115611316575f91505b6113208683611d69565b90508281111561132d5750815b5f6113388383611d0c565b67ffffffffffffffff81111561135057611350611d7c565b604051908082528060200260200182016040528015611379578160200160208202803683370190505b506007549091505f905b5f811180156113925750825182105b15610fa6575f60076113a5600184611d0c565b815481106113b5576113b5611d3e565b5f918252602080832090910154808352600a9091526040909120600101549091506001600160a01b03808e1691160361142557856113f38489611d0c565b1115610f8d578084848151811061140c5761140c611d3e565b60209081029190910101528261142181611cf4565b9350505b508061143081611d90565b915050611383565b5f80516020611f0283398151915261144f8161185b565b50600455565b5f80516020611f0283398151915261146c8161185b565b6001600160a01b0382165f81815260086020526040808220805460ff19166001179055517fd8b2dc62b787ec8afbc8a664cf2fd7c1e7851721acc9e0069132cece3c529c2e9190a25050565b6001600160a01b0382165f9081526008602052604090205460ff1661151b5760405162461bcd60e51b815260206004820152601960248201527814dd18589b1958dbda5b881b9bdd081c9959da5cdd195c9959603a1b60448201526064016106ed565b5f826001600160a01b031663313ce5676040518163ffffffff1660e01b8152600401602060405180830381865afa158015611558573d5f803e3d5ffd5b505050506040513d601f19601f8201168201806040525081019061157c9190611da5565b90505f61158b83600684611a5c565b600154604051631795588d60e21b81526001600160a01b0387811660048301523360248301526044820184905292935061010090910490911690635e556234906064015f604051808303815f87803b1580156115e5575f80fd5b505af11580156115f7573d5f803e3d5ffd5b505060025460405163079cc67960e41b8152336004820152602481018790526001600160a01b0390911692506379cc679091506044015f604051808303815f87803b158015611644575f80fd5b505af1158015611656573d5f803e3d5ffd5b505060408051868152602081018590526001600160a01b03881693503392507f3d9842cbdfa603ab9534d6e362bf28b3061318f57fed5e7087dfc956a9d7444291016111f7565b5f828152602081905260409020600101546116b78161185b565b610c6e83836118f4565b5f80516020611f028339815191526116d88161185b565b50600580546001600160a01b0319166001600160a01b0392909216919091179055565b60015460ff161561171f5760405163d93c066560e01b815260040160405180910390fd5b565b604080516080810182528581526001600160a01b03858116602080840191825283850187815286158015606087019081525f8c8152600a909452969092208551815592516001840180546001600160a01b03191691909516179093559151600282015592516003909301805460ff191693151593909317909255906117d957600680546001810182555f919091527ff652222313e28459528d920b65115c16c04f3efc82aaedc97be59f3f377c0d3f0185905561180e565b600780546001810182555f919091527fa66cc928b5edb82af9bd49922954155ab7b0942694bea4ce44661d9a8736c688018590555b81156118365760065461182390600190611d0c565b5f868152600b6020526040902055611854565b60075461184590600190611d0c565b5f868152600c60205260409020555b5050505050565b610cfd8133611ad2565b5f6118708383610d41565b6118ed575f838152602081815260408083206001600160a01b03861684529091529020805460ff191660011790556118a53390565b6001600160a01b0316826001600160a01b0316847f2f8788117e7eff1d82e926ec794901d17c78024a50270940304540a733656f0d60405160405180910390a450600161067b565b505f61067b565b5f6118ff8383610d41565b156118ed575f838152602081815260408083206001600160a01b0386168085529252808320805460ff1916905551339286917ff6391f5c32d9c69d2a47ea670b442974b53935d1edc7fd64eb21e047a839171b9190a450600161067b565b611965611b0f565b6001805460ff191690557f5db9ee0a495bf2e6ff9c91a7834c1ba4fdd244a5e8aa4e537bd38aeae4b073aa335b6040516001600160a01b03909116815260200160405180910390a1565b6119b76116fb565b6001805460ff1916811790557f62e78cea01bee320cd4e420270b5ea74000d11b0c9f74754ebdbfc544b05a25833611992565b5f8160ff168360ff16036119ff575082611a55565b8160ff168360ff161015611a3357611a178383611dc5565b611a2290600a611eb9565b611a2c9085611d52565b9050611a55565b611a3d8284611dc5565b611a4890600a611eb9565b611a529085611edb565b90505b9392505050565b5f8160ff168360ff1603611a71575082611a55565b8160ff168360ff161015611a8957611a178383611dc5565b5f611a948385611dc5565b611a9f90600a611eb9565b9050611aab8186611edb565b9150611ab78186611eee565b15611aca57611ac7600183611d69565b91505b509392505050565b611adc8282610d41565b611b0b5760405163e2517d3f60e01b81526001600160a01b0382166004820152602481018390526044016106ed565b5050565b60015460ff1661171f57604051638dfc202b60e01b815260040160405180910390fd5b5f60208284031215611b42575f80fd5b81356001600160e01b031981168114611a55575f80fd5b80356001600160a01b0381168114611b6f575f80fd5b919050565b5f805f60608486031215611b86575f80fd5b8335925060208401359150611b9d60408501611b59565b90509250925092565b5f60208284031215611bb6575f80fd5b611a5582611b59565b5f60208284031215611bcf575f80fd5b5035919050565b5f805f8060808587031215611be9575f80fd5b843593506020850135925060408501359150611c0760608601611b59565b905092959194509250565b5f8060408385031215611c23575f80fd5b82359150611c3360208401611b59565b90509250929050565b5f805f60608486031215611c4e575f80fd5b611c5784611b59565b95602085013595506040909401359392505050565b604080825283519082018190525f9060208501906060840190835b81811015611ca5578351835260209384019390920191600101611c87565b5050602093909301939093525092915050565b5f8060408385031215611cc9575f80fd5b611cd283611b59565b946020939093013593505050565b634e487b7160e01b5f52601160045260245ffd5b5f60018201611d0557611d05611ce0565b5060010190565b8181038181111561067b5761067b611ce0565b5f60208284031215611d2f575f80fd5b81518015158114611a55575f80fd5b634e487b7160e01b5f52603260045260245ffd5b808202811582820484141761067b5761067b611ce0565b8082018082111561067b5761067b611ce0565b634e487b7160e01b5f52604160045260245ffd5b5f81611d9e57611d9e611ce0565b505f190190565b5f60208284031215611db5575f80fd5b815160ff81168114611a55575f80fd5b60ff828116828216039081111561067b5761067b611ce0565b6001815b6001841115610fb157808504811115611dfd57611dfd611ce0565b6001841615611e0b57908102905b60019390931c928002611de2565b5f82611e275750600161067b565b81611e3357505f61067b565b8160018114611e495760028114611e5357611e6f565b600191505061067b565b60ff841115611e6457611e64611ce0565b50506001821b61067b565b5060208310610133831016604e8410600b8410161715611e92575081810a61067b565b611e9e5f198484611dde565b805f1904821115611eb157611eb1611ce0565b029392505050565b5f611a5560ff841683611e19565b634e487b7160e01b5f52601260045260245ffd5b5f82611ee957611ee9611ec7565b500490565b5f82611efc57611efc611ec7565b50069056fea49807205ce4d355092ef5a8a18f56e8913cf4a201fbe287825b095693c21775a264697066735822122043c091aa4a94152f4445b337be5de9e6b3d6fa063bc9244af3e6de28840319be64736f6c634300081a0033",
					"opcodes": "PUSH1 0x80 PUSH1 0x40 MSTORE PUSH3 0x7A120 PUSH1 0x4 SSTORE CALLVALUE DUP1 ISZERO PUSH2 0x16 JUMPI PUSH0 DUP1 REVERT JUMPDEST POP PUSH1 0x40 MLOAD PUSH2 0x21C9 CODESIZE SUB DUP1 PUSH2 0x21C9 DUP4 CODECOPY DUP2 ADD PUSH1 0x40 DUP2 SWAP1 MSTORE PUSH2 0x35 SWAP2 PUSH2 0x204 JUMP JUMPDEST PUSH1 0x1 DUP1 SLOAD PUSH1 0x2 DUP1 SLOAD PUSH1 0x1 PUSH1 0x1 PUSH1 0xA0 SHL SUB DUP1 DUP11 AND PUSH1 0x1 PUSH1 0x1 PUSH1 0xA0 SHL SUB NOT SWAP1 SWAP3 AND SWAP2 SWAP1 SWAP2 OR SWAP1 SWAP2 SSTORE DUP5 AND PUSH2 0x100 MUL PUSH1 0x1 PUSH1 0x1 PUSH1 0xA8 SHL SUB NOT SWAP1 SWAP2 AND OR SWAP1 SSTORE PUSH2 0x7A PUSH0 CALLER PUSH2 0x140 JUMP JUMPDEST POP PUSH2 0xA5 PUSH32 0xA49807205CE4D355092EF5A8A18F56E8913CF4A201FBE287825B095693C21775 CALLER PUSH2 0x140 JUMP JUMPDEST POP PUSH2 0xD0 PUSH32 0x41DE7AE3BECAF069074D499EBCBD36DF88385BA1E2946870F7E4674AECD43704 DUP5 PUSH2 0x140 JUMP JUMPDEST POP PUSH2 0xFB PUSH32 0x65D7A28E3265B37A6474929F336521B332C1681B933F6CB9F3376673440D862A DUP5 PUSH2 0x140 JUMP JUMPDEST POP PUSH1 0x1 PUSH1 0x1 PUSH1 0xA0 SHL SUB SWAP4 DUP5 AND PUSH0 SWAP1 DUP2 MSTORE PUSH1 0x8 PUSH1 0x20 MSTORE PUSH1 0x40 SWAP1 KECCAK256 DUP1 SLOAD PUSH1 0xFF NOT AND PUSH1 0x1 OR SWAP1 SSTORE PUSH1 0x5 DUP1 SLOAD SWAP2 SWAP1 SWAP5 AND PUSH1 0x1 PUSH1 0x1 PUSH1 0xA0 SHL SUB NOT SWAP1 SWAP2 AND OR SWAP1 SWAP3 SSTORE POP PUSH2 0x265 SWAP2 POP POP JUMP JUMPDEST PUSH0 DUP3 DUP2 MSTORE PUSH1 0x20 DUP2 DUP2 MSTORE PUSH1 0x40 DUP1 DUP4 KECCAK256 PUSH1 0x1 PUSH1 0x1 PUSH1 0xA0 SHL SUB DUP6 AND DUP5 MSTORE SWAP1 SWAP2 MSTORE DUP2 KECCAK256 SLOAD PUSH1 0xFF AND PUSH2 0x1E0 JUMPI PUSH0 DUP4 DUP2 MSTORE PUSH1 0x20 DUP2 DUP2 MSTORE PUSH1 0x40 DUP1 DUP4 KECCAK256 PUSH1 0x1 PUSH1 0x1 PUSH1 0xA0 SHL SUB DUP7 AND DUP5 MSTORE SWAP1 SWAP2 MSTORE SWAP1 KECCAK256 DUP1 SLOAD PUSH1 0xFF NOT AND PUSH1 0x1 OR SWAP1 SSTORE PUSH2 0x198 CALLER SWAP1 JUMP JUMPDEST PUSH1 0x1 PUSH1 0x1 PUSH1 0xA0 SHL SUB AND DUP3 PUSH1 0x1 PUSH1 0x1 PUSH1 0xA0 SHL SUB AND DUP5 PUSH32 0x2F8788117E7EFF1D82E926EC794901D17C78024A50270940304540A733656F0D PUSH1 0x40 MLOAD PUSH1 0x40 MLOAD DUP1 SWAP2 SUB SWAP1 LOG4 POP PUSH1 0x1 PUSH2 0x1E3 JUMP JUMPDEST POP PUSH0 JUMPDEST SWAP3 SWAP2 POP POP JUMP JUMPDEST DUP1 MLOAD PUSH1 0x1 PUSH1 0x1 PUSH1 0xA0 SHL SUB DUP2 AND DUP2 EQ PUSH2 0x1FF JUMPI PUSH0 DUP1 REVERT JUMPDEST SWAP2 SWAP1 POP JUMP JUMPDEST PUSH0 DUP1 PUSH0 DUP1 PUSH0 PUSH1 0xA0 DUP7 DUP9 SUB SLT ISZERO PUSH2 0x218 JUMPI PUSH0 DUP1 REVERT JUMPDEST PUSH2 0x221 DUP7 PUSH2 0x1E9 JUMP JUMPDEST SWAP5 POP PUSH2 0x22F PUSH1 0x20 DUP8 ADD PUSH2 0x1E9 JUMP JUMPDEST SWAP4 POP PUSH2 0x23D PUSH1 0x40 DUP8 ADD PUSH2 0x1E9 JUMP JUMPDEST SWAP3 POP PUSH2 0x24B PUSH1 0x60 DUP8 ADD PUSH2 0x1E9 JUMP JUMPDEST SWAP2 POP PUSH2 0x259 PUSH1 0x80 DUP8 ADD PUSH2 0x1E9 JUMP JUMPDEST SWAP1 POP SWAP3 SWAP6 POP SWAP3 SWAP6 SWAP1 SWAP4 POP JUMP JUMPDEST PUSH2 0x1F57 DUP1 PUSH2 0x272 PUSH0 CODECOPY PUSH0 RETURN INVALID PUSH1 0x80 PUSH1 0x40 MSTORE CALLVALUE DUP1 ISZERO PUSH2 0xF JUMPI PUSH0 DUP1 REVERT JUMPDEST POP PUSH1 0x4 CALLDATASIZE LT PUSH2 0x228 JUMPI PUSH0 CALLDATALOAD PUSH1 0xE0 SHR DUP1 PUSH4 0x854935F1 GT PUSH2 0x12A JUMPI DUP1 PUSH4 0xC5494FFB GT PUSH2 0xB4 JUMPI DUP1 PUSH4 0xD547741F GT PUSH2 0x79 JUMPI DUP1 PUSH4 0xD547741F EQ PUSH2 0x5C3 JUMPI DUP1 PUSH4 0xE63AB1E9 EQ PUSH2 0x5D6 JUMPI DUP1 PUSH4 0xE74B981B EQ PUSH2 0x5FD JUMPI DUP1 PUSH4 0xEA277ECA EQ PUSH2 0x610 JUMPI DUP1 PUSH4 0xEDA87EFF EQ PUSH2 0x631 JUMPI PUSH0 DUP1 REVERT JUMPDEST DUP1 PUSH4 0xC5494FFB EQ PUSH2 0x553 JUMPI DUP1 PUSH4 0xC6400657 EQ PUSH2 0x566 JUMPI DUP1 PUSH4 0xC99773CE EQ PUSH2 0x579 JUMPI DUP1 PUSH4 0xD19FAD37 EQ PUSH2 0x598 JUMPI DUP1 PUSH4 0xD270E7AB EQ PUSH2 0x5AB JUMPI PUSH0 DUP1 REVERT JUMPDEST DUP1 PUSH4 0xA217FDDF GT PUSH2 0xFA JUMPI DUP1 PUSH4 0xA217FDDF EQ PUSH2 0x4F4 JUMPI DUP1 PUSH4 0xA2519AE4 EQ PUSH2 0x4FB JUMPI DUP1 PUSH4 0xA62E1B3E EQ PUSH2 0x50E JUMPI DUP1 PUSH4 0xBB93EDE0 EQ PUSH2 0x521 JUMPI DUP1 PUSH4 0xBEAD8D26 EQ PUSH2 0x534 JUMPI PUSH0 DUP1 REVERT JUMPDEST DUP1 PUSH4 0x854935F1 EQ PUSH2 0x48B JUMPI DUP1 PUSH4 0x91D14854 EQ PUSH2 0x49E JUMPI DUP1 PUSH4 0x973697BD EQ PUSH2 0x4B1 JUMPI DUP1 PUSH4 0x9EA4F3A4 EQ PUSH2 0x4D2 JUMPI PUSH0 DUP1 REVERT JUMPDEST DUP1 PUSH4 0x2F92893C GT PUSH2 0x1B6 JUMPI DUP1 PUSH4 0x46904840 GT PUSH2 0x17B JUMPI DUP1 PUSH4 0x46904840 EQ PUSH2 0x430 JUMPI DUP1 PUSH4 0x5BADBE4C EQ PUSH2 0x45B JUMPI DUP1 PUSH4 0x5C975ABB EQ PUSH2 0x464 JUMPI DUP1 PUSH4 0x75B238FC EQ PUSH2 0x46F JUMPI DUP1 PUSH4 0x8456CB59 EQ PUSH2 0x483 JUMPI PUSH0 DUP1 REVERT JUMPDEST DUP1 PUSH4 0x2F92893C EQ PUSH2 0x3B9 JUMPI DUP1 PUSH4 0x34D8C7D5 EQ PUSH2 0x3DB JUMPI DUP1 PUSH4 0x36568ABE EQ PUSH2 0x3EE JUMPI DUP1 PUSH4 0x37174202 EQ PUSH2 0x401 JUMPI DUP1 PUSH4 0x3F4BA83A EQ PUSH2 0x428 JUMPI PUSH0 DUP1 REVERT JUMPDEST DUP1 PUSH4 0x1E7502D7 GT PUSH2 0x1FC JUMPI DUP1 PUSH4 0x1E7502D7 EQ PUSH2 0x293 JUMPI DUP1 PUSH4 0x1F224564 EQ PUSH2 0x2B5 JUMPI DUP1 PUSH4 0x248A9CA3 EQ PUSH2 0x2C8 JUMPI DUP1 PUSH4 0x26757B73 EQ PUSH2 0x2EA JUMPI DUP1 PUSH4 0x2F2FF15D EQ PUSH2 0x3A6 JUMPI PUSH0 DUP1 REVERT JUMPDEST DUP1 PUSH3 0x677016 EQ PUSH2 0x22C JUMPI DUP1 PUSH4 0x1FFC9A7 EQ PUSH2 0x248 JUMPI DUP1 PUSH4 0xBD31A57 EQ PUSH2 0x26B JUMPI DUP1 PUSH4 0x1008776F EQ PUSH2 0x280 JUMPI JUMPDEST PUSH0 DUP1 REVERT JUMPDEST PUSH2 0x235 PUSH1 0x4 SLOAD DUP2 JUMP JUMPDEST PUSH1 0x40 MLOAD SWAP1 DUP2 MSTORE PUSH1 0x20 ADD JUMPDEST PUSH1 0x40 MLOAD DUP1 SWAP2 SUB SWAP1 RETURN JUMPDEST PUSH2 0x25B PUSH2 0x256 CALLDATASIZE PUSH1 0x4 PUSH2 0x1B32 JUMP JUMPDEST PUSH2 0x64B JUMP JUMPDEST PUSH1 0x40 MLOAD SWAP1 ISZERO ISZERO DUP2 MSTORE PUSH1 0x20 ADD PUSH2 0x23F JUMP JUMPDEST PUSH2 0x27E PUSH2 0x279 CALLDATASIZE PUSH1 0x4 PUSH2 0x1B74 JUMP JUMPDEST PUSH2 0x681 JUMP JUMPDEST STOP JUMPDEST PUSH2 0x27E PUSH2 0x28E CALLDATASIZE PUSH1 0x4 PUSH2 0x1BA6 JUMP JUMPDEST PUSH2 0x98D JUMP JUMPDEST PUSH2 0x25B PUSH2 0x2A1 CALLDATASIZE PUSH1 0x4 PUSH2 0x1BBF JUMP JUMPDEST PUSH0 SWAP1 DUP2 MSTORE PUSH1 0x9 PUSH1 0x20 MSTORE PUSH1 0x40 SWAP1 KECCAK256 SLOAD PUSH1 0xFF AND SWAP1 JUMP JUMPDEST PUSH2 0x27E PUSH2 0x2C3 CALLDATASIZE PUSH1 0x4 PUSH2 0x1BD6 JUMP JUMPDEST PUSH2 0x9ED JUMP JUMPDEST PUSH2 0x235 PUSH2 0x2D6 CALLDATASIZE PUSH1 0x4 PUSH2 0x1BBF JUMP JUMPDEST PUSH0 SWAP1 DUP2 MSTORE PUSH1 0x20 DUP2 SWAP1 MSTORE PUSH1 0x40 SWAP1 KECCAK256 PUSH1 0x1 ADD SLOAD SWAP1 JUMP JUMPDEST PUSH2 0x368 PUSH2 0x2F8 CALLDATASIZE PUSH1 0x4 PUSH2 0x1BBF JUMP JUMPDEST PUSH1 0x40 DUP1 MLOAD PUSH1 0x80 DUP1 DUP3 ADD DUP4 MSTORE PUSH0 DUP1 DUP4 MSTORE PUSH1 0x20 DUP1 DUP5 ADD DUP3 SWAP1 MSTORE DUP4 DUP6 ADD DUP3 SWAP1 MSTORE PUSH1 0x60 SWAP4 DUP5 ADD DUP3 SWAP1 MSTORE SWAP5 DUP2 MSTORE PUSH1 0xA DUP6 MSTORE DUP4 SWAP1 KECCAK256 DUP4 MLOAD SWAP2 DUP3 ADD DUP5 MSTORE DUP1 SLOAD DUP3 MSTORE PUSH1 0x1 DUP2 ADD SLOAD PUSH1 0x1 PUSH1 0x1 PUSH1 0xA0 SHL SUB AND SWAP5 DUP3 ADD SWAP5 SWAP1 SWAP5 MSTORE PUSH1 0x2 DUP5 ADD SLOAD SWAP3 DUP2 ADD SWAP3 SWAP1 SWAP3 MSTORE PUSH1 0x3 SWAP1 SWAP3 ADD SLOAD PUSH1 0xFF AND ISZERO ISZERO SWAP2 DUP2 ADD SWAP2 SWAP1 SWAP2 MSTORE SWAP1 JUMP JUMPDEST PUSH1 0x40 MLOAD PUSH2 0x23F SWAP2 SWAP1 DUP2 MLOAD DUP2 MSTORE PUSH1 0x20 DUP1 DUP4 ADD MLOAD PUSH1 0x1 PUSH1 0x1 PUSH1 0xA0 SHL SUB AND SWAP1 DUP3 ADD MSTORE PUSH1 0x40 DUP1 DUP4 ADD MLOAD SWAP1 DUP3 ADD MSTORE PUSH1 0x60 SWAP2 DUP3 ADD MLOAD ISZERO ISZERO SWAP2 DUP2 ADD SWAP2 SWAP1 SWAP2 MSTORE PUSH1 0x80 ADD SWAP1 JUMP JUMPDEST PUSH2 0x27E PUSH2 0x3B4 CALLDATASIZE PUSH1 0x4 PUSH2 0x1C12 JUMP JUMPDEST PUSH2 0xC4A JUMP JUMPDEST PUSH2 0x25B PUSH2 0x3C7 CALLDATASIZE PUSH1 0x4 PUSH2 0x1BBF JUMP JUMPDEST PUSH1 0x9 PUSH1 0x20 MSTORE PUSH0 SWAP1 DUP2 MSTORE PUSH1 0x40 SWAP1 KECCAK256 SLOAD PUSH1 0xFF AND DUP2 JUMP JUMPDEST PUSH2 0x235 PUSH2 0x3E9 CALLDATASIZE PUSH1 0x4 PUSH2 0x1BBF JUMP JUMPDEST PUSH2 0xC74 JUMP JUMPDEST PUSH2 0x27E PUSH2 0x3FC CALLDATASIZE PUSH1 0x4 PUSH2 0x1C12 JUMP JUMPDEST PUSH2 0xC93 JUMP JUMPDEST PUSH2 0x235 PUSH32 0x41DE7AE3BECAF069074D499EBCBD36DF88385BA1E2946870F7E4674AECD43704 DUP2 JUMP JUMPDEST PUSH2 0x27E PUSH2 0xCCB JUMP JUMPDEST PUSH1 0x5 SLOAD PUSH2 0x443 SWAP1 PUSH1 0x1 PUSH1 0x1 PUSH1 0xA0 SHL SUB AND DUP2 JUMP JUMPDEST PUSH1 0x40 MLOAD PUSH1 0x1 PUSH1 0x1 PUSH1 0xA0 SHL SUB SWAP1 SWAP2 AND DUP2 MSTORE PUSH1 0x20 ADD PUSH2 0x23F JUMP JUMPDEST PUSH2 0x235 PUSH1 0x3 SLOAD DUP2 JUMP JUMPDEST PUSH1 0x1 SLOAD PUSH1 0xFF AND PUSH2 0x25B JUMP JUMPDEST PUSH2 0x235 PUSH0 DUP1 MLOAD PUSH1 0x20 PUSH2 0x1F02 DUP4 CODECOPY DUP2 MLOAD SWAP2 MSTORE DUP2 JUMP JUMPDEST PUSH2 0x27E PUSH2 0xD00 JUMP JUMPDEST PUSH2 0x235 PUSH2 0x499 CALLDATASIZE PUSH1 0x4 PUSH2 0x1BBF JUMP JUMPDEST PUSH2 0xD32 JUMP JUMPDEST PUSH2 0x25B PUSH2 0x4AC CALLDATASIZE PUSH1 0x4 PUSH2 0x1C12 JUMP JUMPDEST PUSH2 0xD41 JUMP JUMPDEST PUSH2 0x4C4 PUSH2 0x4BF CALLDATASIZE PUSH1 0x4 PUSH2 0x1C3C JUMP JUMPDEST PUSH2 0xD69 JUMP JUMPDEST PUSH1 0x40 MLOAD PUSH2 0x23F SWAP3 SWAP2 SWAP1 PUSH2 0x1C6C JUMP JUMPDEST PUSH2 0x25B PUSH2 0x4E0 CALLDATASIZE PUSH1 0x4 PUSH2 0x1BA6 JUMP JUMPDEST PUSH1 0x8 PUSH1 0x20 MSTORE PUSH0 SWAP1 DUP2 MSTORE PUSH1 0x40 SWAP1 KECCAK256 SLOAD PUSH1 0xFF AND DUP2 JUMP JUMPDEST PUSH2 0x235 PUSH0 DUP2 JUMP JUMPDEST PUSH2 0x27E PUSH2 0x509 CALLDATASIZE PUSH1 0x4 PUSH2 0x1CB8 JUMP JUMPDEST PUSH2 0xFB9 JUMP JUMPDEST PUSH1 0x2 SLOAD PUSH2 0x443 SWAP1 PUSH1 0x1 PUSH1 0x1 PUSH1 0xA0 SHL SUB AND DUP2 JUMP JUMPDEST PUSH2 0x4C4 PUSH2 0x52F CALLDATASIZE PUSH1 0x4 PUSH2 0x1C3C JUMP JUMPDEST PUSH2 0x1205 JUMP JUMPDEST PUSH2 0x235 PUSH2 0x542 CALLDATASIZE PUSH1 0x4 PUSH2 0x1BBF JUMP JUMPDEST PUSH1 0xC PUSH1 0x20 MSTORE PUSH0 SWAP1 DUP2 MSTORE PUSH1 0x40 SWAP1 KECCAK256 SLOAD DUP2 JUMP JUMPDEST PUSH2 0x27E PUSH2 0x561 CALLDATASIZE PUSH1 0x4 PUSH2 0x1BBF JUMP JUMPDEST PUSH2 0x1438 JUMP JUMPDEST PUSH2 0x27E PUSH2 0x574 CALLDATASIZE PUSH1 0x4 PUSH2 0x1BA6 JUMP JUMPDEST PUSH2 0x1455 JUMP JUMPDEST PUSH2 0x235 PUSH2 0x587 CALLDATASIZE PUSH1 0x4 PUSH2 0x1BBF JUMP JUMPDEST PUSH1 0xB PUSH1 0x20 MSTORE PUSH0 SWAP1 DUP2 MSTORE PUSH1 0x40 SWAP1 KECCAK256 SLOAD DUP2 JUMP JUMPDEST PUSH2 0x27E PUSH2 0x5A6 CALLDATASIZE PUSH1 0x4 PUSH2 0x1CB8 JUMP JUMPDEST PUSH2 0x14B8 JUMP JUMPDEST PUSH1 0x1 SLOAD PUSH2 0x443 SWAP1 PUSH2 0x100 SWAP1 DIV PUSH1 0x1 PUSH1 0x1 PUSH1 0xA0 SHL SUB AND DUP2 JUMP JUMPDEST PUSH2 0x27E PUSH2 0x5D1 CALLDATASIZE PUSH1 0x4 PUSH2 0x1C12 JUMP JUMPDEST PUSH2 0x169D JUMP JUMPDEST PUSH2 0x235 PUSH32 0x65D7A28E3265B37A6474929F336521B332C1681B933F6CB9F3376673440D862A DUP2 JUMP JUMPDEST PUSH2 0x27E PUSH2 0x60B CALLDATASIZE PUSH1 0x4 PUSH2 0x1BA6 JUMP JUMPDEST PUSH2 0x16C1 JUMP JUMPDEST PUSH2 0x25B PUSH2 0x61E CALLDATASIZE PUSH1 0x4 PUSH2 0x1BBF JUMP JUMPDEST PUSH0 SWAP1 DUP2 MSTORE PUSH1 0xA PUSH1 0x20 MSTORE PUSH1 0x40 SWAP1 KECCAK256 SLOAD ISZERO ISZERO SWAP1 JUMP JUMPDEST PUSH2 0x639 PUSH1 0x6 DUP2 JUMP JUMPDEST PUSH1 0x40 MLOAD PUSH1 0xFF SWAP1 SWAP2 AND DUP2 MSTORE PUSH1 0x20 ADD PUSH2 0x23F JUMP JUMPDEST PUSH0 PUSH1 0x1 PUSH1 0x1 PUSH1 0xE0 SHL SUB NOT DUP3 AND PUSH4 0x7965DB0B PUSH1 0xE0 SHL EQ DUP1 PUSH2 0x67B JUMPI POP PUSH4 0x1FFC9A7 PUSH1 0xE0 SHL PUSH1 0x1 PUSH1 0x1 PUSH1 0xE0 SHL SUB NOT DUP4 AND EQ JUMPDEST SWAP3 SWAP2 POP POP JUMP JUMPDEST PUSH2 0x689 PUSH2 0x16FB JUMP JUMPDEST CHAINID DUP4 SUB PUSH2 0x6F6 JUMPI PUSH1 0x40 MLOAD PUSH3 0x461BCD PUSH1 0xE5 SHL DUP2 MSTORE PUSH1 0x20 PUSH1 0x4 DUP3 ADD MSTORE PUSH1 0x30 PUSH1 0x24 DUP3 ADD MSTORE PUSH32 0x54617267657420636861696E206D75737420626520646966666572656E742066 PUSH1 0x44 DUP3 ADD MSTORE PUSH16 0x3937B69039B7BAB931B29031B430B4B7 PUSH1 0x81 SHL PUSH1 0x64 DUP3 ADD MSTORE PUSH1 0x84 ADD JUMPDEST PUSH1 0x40 MLOAD DUP1 SWAP2 SUB SWAP1 REVERT JUMPDEST PUSH1 0x4 SLOAD DUP3 GT PUSH2 0x752 JUMPI PUSH1 0x40 MLOAD PUSH3 0x461BCD PUSH1 0xE5 SHL DUP2 MSTORE PUSH1 0x20 PUSH1 0x4 DUP3 ADD MSTORE PUSH1 0x22 PUSH1 0x24 DUP3 ADD MSTORE PUSH32 0x416D6F756E74206D7573742062652067726561746572207468616E2067617366 PUSH1 0x44 DUP3 ADD MSTORE PUSH2 0x6565 PUSH1 0xF0 SHL PUSH1 0x64 DUP3 ADD MSTORE PUSH1 0x84 ADD PUSH2 0x6ED JUMP JUMPDEST PUSH1 0x1 PUSH1 0x1 PUSH1 0xA0 SHL SUB DUP2 AND PUSH2 0x7A8 JUMPI PUSH1 0x40 MLOAD PUSH3 0x461BCD PUSH1 0xE5 SHL DUP2 MSTORE PUSH1 0x20 PUSH1 0x4 DUP3 ADD MSTORE PUSH1 0x1B PUSH1 0x24 DUP3 ADD MSTORE PUSH32 0x496E76616C696420746172676574207573657220616464726573730000000000 PUSH1 0x44 DUP3 ADD MSTORE PUSH1 0x64 ADD PUSH2 0x6ED JUMP JUMPDEST PUSH0 CHAINID SWAP1 POP PUSH0 PUSH1 0x3 PUSH0 DUP2 SLOAD PUSH2 0x7BB SWAP1 PUSH2 0x1CF4 JUMP JUMPDEST SWAP2 DUP3 SWAP1 SSTORE POP PUSH1 0xC0 DUP4 SWAP1 SHL PUSH1 0x80 DUP8 SWAP1 SHL OR TIMESTAMP PUSH1 0x40 SHL OR OR SWAP1 POP PUSH2 0x7EA DUP2 PUSH0 SWAP1 DUP2 MSTORE PUSH1 0xA PUSH1 0x20 MSTORE PUSH1 0x40 SWAP1 KECCAK256 SLOAD ISZERO ISZERO SWAP1 JUMP JUMPDEST ISZERO PUSH2 0x833 JUMPI PUSH1 0x40 MLOAD PUSH3 0x461BCD PUSH1 0xE5 SHL DUP2 MSTORE PUSH1 0x20 PUSH1 0x4 DUP3 ADD MSTORE PUSH1 0x19 PUSH1 0x24 DUP3 ADD MSTORE PUSH25 0x5265717565737420494420616C726561647920657869737473 PUSH1 0x38 SHL PUSH1 0x44 DUP3 ADD MSTORE PUSH1 0x64 ADD PUSH2 0x6ED JUMP JUMPDEST PUSH0 PUSH1 0x4 SLOAD DUP6 PUSH2 0x842 SWAP2 SWAP1 PUSH2 0x1D0C JUMP JUMPDEST PUSH1 0x2 SLOAD PUSH1 0x5 SLOAD PUSH1 0x4 DUP1 SLOAD PUSH1 0x40 MLOAD PUSH4 0x23B872DD PUSH1 0xE0 SHL DUP2 MSTORE CALLER SWAP3 DUP2 ADD SWAP3 SWAP1 SWAP3 MSTORE PUSH1 0x1 PUSH1 0x1 PUSH1 0xA0 SHL SUB SWAP3 DUP4 AND PUSH1 0x24 DUP4 ADD MSTORE PUSH1 0x44 DUP3 ADD MSTORE SWAP3 SWAP4 POP AND SWAP1 PUSH4 0x23B872DD SWAP1 PUSH1 0x64 ADD PUSH1 0x20 PUSH1 0x40 MLOAD DUP1 DUP4 SUB DUP2 PUSH0 DUP8 GAS CALL ISZERO DUP1 ISZERO PUSH2 0x8A0 JUMPI RETURNDATASIZE PUSH0 DUP1 RETURNDATACOPY RETURNDATASIZE PUSH0 REVERT JUMPDEST POP POP POP POP PUSH1 0x40 MLOAD RETURNDATASIZE PUSH1 0x1F NOT PUSH1 0x1F DUP3 ADD AND DUP3 ADD DUP1 PUSH1 0x40 MSTORE POP DUP2 ADD SWAP1 PUSH2 0x8C4 SWAP2 SWAP1 PUSH2 0x1D1F JUMP JUMPDEST POP PUSH1 0x2 SLOAD PUSH1 0x40 MLOAD PUSH4 0x79CC679 PUSH1 0xE4 SHL DUP2 MSTORE CALLER PUSH1 0x4 DUP3 ADD MSTORE PUSH1 0x24 DUP2 ADD DUP4 SWAP1 MSTORE PUSH1 0x1 PUSH1 0x1 PUSH1 0xA0 SHL SUB SWAP1 SWAP2 AND SWAP1 PUSH4 0x79CC6790 SWAP1 PUSH1 0x44 ADD PUSH0 PUSH1 0x40 MLOAD DUP1 DUP4 SUB DUP2 PUSH0 DUP8 DUP1 EXTCODESIZE ISZERO DUP1 ISZERO PUSH2 0x90E JUMPI PUSH0 DUP1 REVERT JUMPDEST POP GAS CALL ISZERO DUP1 ISZERO PUSH2 0x920 JUMPI RETURNDATASIZE PUSH0 DUP1 RETURNDATACOPY RETURNDATASIZE PUSH0 REVERT JUMPDEST POP POP POP POP PUSH2 0x931 DUP3 CALLER DUP4 PUSH1 0x1 PUSH2 0x1721 JUMP JUMPDEST PUSH1 0x40 DUP1 MLOAD DUP5 DUP2 MSTORE PUSH1 0x20 DUP2 ADD DUP9 SWAP1 MSTORE SWAP1 DUP2 ADD DUP3 SWAP1 MSTORE PUSH1 0x1 PUSH1 0x1 PUSH1 0xA0 SHL SUB DUP6 AND PUSH1 0x60 DUP3 ADD MSTORE CALLER SWAP1 DUP4 SWAP1 PUSH32 0x26C32CC5FF12981B55681844F2FB47D52C5E521C58D5288B1325F3304A7E8852 SWAP1 PUSH1 0x80 ADD PUSH1 0x40 MLOAD DUP1 SWAP2 SUB SWAP1 LOG3 POP POP POP POP POP POP JUMP JUMPDEST PUSH0 DUP1 MLOAD PUSH1 0x20 PUSH2 0x1F02 DUP4 CODECOPY DUP2 MLOAD SWAP2 MSTORE PUSH2 0x9A4 DUP2 PUSH2 0x185B JUMP JUMPDEST PUSH1 0x1 PUSH1 0x1 PUSH1 0xA0 SHL SUB DUP3 AND PUSH0 DUP2 DUP2 MSTORE PUSH1 0x8 PUSH1 0x20 MSTORE PUSH1 0x40 DUP1 DUP3 KECCAK256 DUP1 SLOAD PUSH1 0xFF NOT AND SWAP1 SSTORE MLOAD PUSH32 0xFA63555FE68CAD70E08233633567493A3C74AFDC8C7FB9F0C03A8E74F1A137A SWAP2 SWAP1 LOG2 POP POP JUMP JUMPDEST PUSH32 0x41DE7AE3BECAF069074D499EBCBD36DF88385BA1E2946870F7E4674AECD43704 PUSH2 0xA17 DUP2 PUSH2 0x185B JUMP JUMPDEST PUSH2 0xA1F PUSH2 0x16FB JUMP JUMPDEST CHAINID DUP5 SUB PUSH2 0xA87 JUMPI PUSH1 0x40 MLOAD PUSH3 0x461BCD PUSH1 0xE5 SHL DUP2 MSTORE PUSH1 0x20 PUSH1 0x4 DUP3 ADD MSTORE PUSH1 0x30 PUSH1 0x24 DUP3 ADD MSTORE PUSH32 0x536F7572636520636861696E206D75737420626520646966666572656E742066 PUSH1 0x44 DUP3 ADD MSTORE PUSH16 0x3937B6903A30B933B2BA1031B430B4B7 PUSH1 0x81 SHL PUSH1 0x64 DUP3 ADD MSTORE PUSH1 0x84 ADD PUSH2 0x6ED JUMP JUMPDEST PUSH0 DUP4 GT PUSH2 0xAD6 JUMPI PUSH1 0x40 MLOAD PUSH3 0x461BCD PUSH1 0xE5 SHL DUP2 MSTORE PUSH1 0x20 PUSH1 0x4 DUP3 ADD MSTORE PUSH1 0x1D PUSH1 0x24 DUP3 ADD MSTORE PUSH32 0x416D6F756E74206D7573742062652067726561746572207468616E2030000000 PUSH1 0x44 DUP3 ADD MSTORE PUSH1 0x64 ADD PUSH2 0x6ED JUMP JUMPDEST PUSH1 0x1 PUSH1 0x1 PUSH1 0xA0 SHL SUB DUP3 AND PUSH2 0xB2C JUMPI PUSH1 0x40 MLOAD PUSH3 0x461BCD PUSH1 0xE5 SHL DUP2 MSTORE PUSH1 0x20 PUSH1 0x4 DUP3 ADD MSTORE PUSH1 0x1B PUSH1 0x24 DUP3 ADD MSTORE PUSH32 0x496E76616C696420746172676574207573657220616464726573730000000000 PUSH1 0x44 DUP3 ADD MSTORE PUSH1 0x64 ADD PUSH2 0x6ED JUMP JUMPDEST PUSH0 DUP6 DUP2 MSTORE PUSH1 0xA PUSH1 0x20 MSTORE PUSH1 0x40 SWAP1 KECCAK256 SLOAD ISZERO PUSH2 0xB83 JUMPI PUSH1 0x40 MLOAD PUSH3 0x461BCD PUSH1 0xE5 SHL DUP2 MSTORE PUSH1 0x20 PUSH1 0x4 DUP3 ADD MSTORE PUSH1 0x19 PUSH1 0x24 DUP3 ADD MSTORE PUSH25 0x5265717565737420494420616C726561647920657869737473 PUSH1 0x38 SHL PUSH1 0x44 DUP3 ADD MSTORE PUSH1 0x64 ADD PUSH2 0x6ED JUMP JUMPDEST PUSH1 0x2 SLOAD PUSH1 0x40 MLOAD PUSH4 0x40C10F19 PUSH1 0xE0 SHL DUP2 MSTORE PUSH1 0x1 PUSH1 0x1 PUSH1 0xA0 SHL SUB DUP5 DUP2 AND PUSH1 0x4 DUP4 ADD MSTORE PUSH1 0x24 DUP3 ADD DUP7 SWAP1 MSTORE SWAP1 SWAP2 AND SWAP1 PUSH4 0x40C10F19 SWAP1 PUSH1 0x44 ADD PUSH0 PUSH1 0x40 MLOAD DUP1 DUP4 SUB DUP2 PUSH0 DUP8 DUP1 EXTCODESIZE ISZERO DUP1 ISZERO PUSH2 0xBCE JUMPI PUSH0 DUP1 REVERT JUMPDEST POP GAS CALL ISZERO DUP1 ISZERO PUSH2 0xBE0 JUMPI RETURNDATASIZE PUSH0 DUP1 RETURNDATACOPY RETURNDATASIZE PUSH0 REVERT JUMPDEST POP POP POP POP PUSH2 0xBF0 DUP6 DUP4 DUP6 PUSH0 PUSH2 0x1721 JUMP JUMPDEST PUSH1 0x40 DUP1 MLOAD DUP6 DUP2 MSTORE CHAINID PUSH1 0x20 DUP3 ADD MSTORE SWAP1 DUP2 ADD DUP5 SWAP1 MSTORE PUSH1 0x1 PUSH1 0x1 PUSH1 0xA0 SHL SUB DUP4 AND PUSH1 0x60 DUP3 ADD MSTORE CALLER SWAP1 DUP7 SWAP1 PUSH32 0x7690D9CEDF96F067BDA7114C24BBA31BE184AE045D199979A0A373862E70D46B SWAP1 PUSH1 0x80 ADD PUSH1 0x40 MLOAD DUP1 SWAP2 SUB SWAP1 LOG3 POP POP POP POP POP JUMP JUMPDEST PUSH0 DUP3 DUP2 MSTORE PUSH1 0x20 DUP2 SWAP1 MSTORE PUSH1 0x40 SWAP1 KECCAK256 PUSH1 0x1 ADD SLOAD PUSH2 0xC64 DUP2 PUSH2 0x185B JUMP JUMPDEST PUSH2 0xC6E DUP4 DUP4 PUSH2 0x1865 JUMP JUMPDEST POP POP POP POP JUMP JUMPDEST PUSH1 0x7 DUP2 DUP2 SLOAD DUP2 LT PUSH2 0xC83 JUMPI PUSH0 DUP1 REVERT JUMPDEST PUSH0 SWAP2 DUP3 MSTORE PUSH1 0x20 SWAP1 SWAP2 KECCAK256 ADD SLOAD SWAP1 POP DUP2 JUMP JUMPDEST PUSH1 0x1 PUSH1 0x1 PUSH1 0xA0 SHL SUB DUP2 AND CALLER EQ PUSH2 0xCBC JUMPI PUSH1 0x40 MLOAD PUSH4 0x334BD919 PUSH1 0xE1 SHL DUP2 MSTORE PUSH1 0x4 ADD PUSH1 0x40 MLOAD DUP1 SWAP2 SUB SWAP1 REVERT JUMPDEST PUSH2 0xCC6 DUP3 DUP3 PUSH2 0x18F4 JUMP JUMPDEST POP POP POP JUMP JUMPDEST PUSH32 0x65D7A28E3265B37A6474929F336521B332C1681B933F6CB9F3376673440D862A PUSH2 0xCF5 DUP2 PUSH2 0x185B JUMP JUMPDEST PUSH2 0xCFD PUSH2 0x195D JUMP JUMPDEST POP JUMP JUMPDEST PUSH32 0x65D7A28E3265B37A6474929F336521B332C1681B933F6CB9F3376673440D862A PUSH2 0xD2A DUP2 PUSH2 0x185B JUMP JUMPDEST PUSH2 0xCFD PUSH2 0x19AF JUMP JUMPDEST PUSH1 0x6 DUP2 DUP2 SLOAD DUP2 LT PUSH2 0xC83 JUMPI PUSH0 DUP1 REVERT JUMPDEST PUSH0 SWAP2 DUP3 MSTORE PUSH1 0x20 DUP3 DUP2 MSTORE PUSH1 0x40 DUP1 DUP5 KECCAK256 PUSH1 0x1 PUSH1 0x1 PUSH1 0xA0 SHL SUB SWAP4 SWAP1 SWAP4 AND DUP5 MSTORE SWAP2 SWAP1 MSTORE SWAP1 KECCAK256 SLOAD PUSH1 0xFF AND SWAP1 JUMP JUMPDEST PUSH1 0x60 PUSH0 DUP4 ISZERO DUP1 PUSH2 0xD77 JUMPI POP DUP3 ISZERO JUMPDEST DUP1 PUSH2 0xD8B JUMPI POP PUSH0 DUP5 GT DUP1 ISZERO PUSH2 0xD8B JUMPI POP PUSH0 DUP4 GT JUMPDEST PUSH2 0xDD3 JUMPI PUSH1 0x40 MLOAD PUSH3 0x461BCD PUSH1 0xE5 SHL DUP2 MSTORE PUSH1 0x20 PUSH1 0x4 DUP3 ADD MSTORE PUSH1 0x19 PUSH1 0x24 DUP3 ADD MSTORE PUSH25 0x496E76616C69642070616765206F7220706167652073697A65 PUSH1 0x38 SHL PUSH1 0x44 DUP3 ADD MSTORE PUSH1 0x64 ADD PUSH2 0x6ED JUMP JUMPDEST PUSH0 DUP1 JUMPDEST PUSH1 0x6 SLOAD DUP2 LT ISZERO PUSH2 0xE42 JUMPI DUP7 PUSH1 0x1 PUSH1 0x1 PUSH1 0xA0 SHL SUB AND PUSH1 0xA PUSH0 PUSH1 0x6 DUP5 DUP2 SLOAD DUP2 LT PUSH2 0xE00 JUMPI PUSH2 0xE00 PUSH2 0x1D3E JUMP JUMPDEST PUSH0 SWAP2 DUP3 MSTORE PUSH1 0x20 DUP1 DUP4 KECCAK256 SWAP1 SWAP2 ADD SLOAD DUP4 MSTORE DUP3 ADD SWAP3 SWAP1 SWAP3 MSTORE PUSH1 0x40 ADD SWAP1 KECCAK256 PUSH1 0x1 ADD SLOAD PUSH1 0x1 PUSH1 0x1 PUSH1 0xA0 SHL SUB AND SUB PUSH2 0xE3A JUMPI DUP2 PUSH2 0xE36 DUP2 PUSH2 0x1CF4 JUMP JUMPDEST SWAP3 POP POP JUMPDEST PUSH1 0x1 ADD PUSH2 0xDD6 JUMP JUMPDEST POP PUSH0 DUP2 DUP7 ISZERO DUP1 ISZERO SWAP1 PUSH2 0xE53 JUMPI POP PUSH0 DUP7 GT JUMPDEST ISZERO PUSH2 0xE91 JUMPI PUSH2 0xE62 DUP7 DUP9 PUSH2 0x1D52 JUMP JUMPDEST PUSH2 0xE6C SWAP1 DUP5 PUSH2 0x1D0C JUMP JUMPDEST SWAP2 POP DUP3 DUP3 GT ISZERO PUSH2 0xE7A JUMPI PUSH0 SWAP2 POP JUMPDEST PUSH2 0xE84 DUP7 DUP4 PUSH2 0x1D69 JUMP JUMPDEST SWAP1 POP DUP3 DUP2 GT ISZERO PUSH2 0xE91 JUMPI POP DUP2 JUMPDEST PUSH0 PUSH2 0xE9C DUP4 DUP4 PUSH2 0x1D0C JUMP JUMPDEST PUSH8 0xFFFFFFFFFFFFFFFF DUP2 GT ISZERO PUSH2 0xEB4 JUMPI PUSH2 0xEB4 PUSH2 0x1D7C JUMP JUMPDEST PUSH1 0x40 MLOAD SWAP1 DUP1 DUP3 MSTORE DUP1 PUSH1 0x20 MUL PUSH1 0x20 ADD DUP3 ADD PUSH1 0x40 MSTORE DUP1 ISZERO PUSH2 0xEDD JUMPI DUP2 PUSH1 0x20 ADD PUSH1 0x20 DUP3 MUL DUP1 CALLDATASIZE DUP4 CALLDATACOPY ADD SWAP1 POP JUMPDEST POP PUSH1 0x6 SLOAD SWAP1 SWAP2 POP PUSH0 SWAP1 JUMPDEST PUSH0 DUP2 GT DUP1 ISZERO PUSH2 0xEF6 JUMPI POP DUP3 MLOAD DUP3 LT JUMPDEST ISZERO PUSH2 0xFA6 JUMPI PUSH0 PUSH1 0x6 PUSH2 0xF09 PUSH1 0x1 DUP5 PUSH2 0x1D0C JUMP JUMPDEST DUP2 SLOAD DUP2 LT PUSH2 0xF19 JUMPI PUSH2 0xF19 PUSH2 0x1D3E JUMP JUMPDEST PUSH0 SWAP2 DUP3 MSTORE PUSH1 0x20 DUP1 DUP4 KECCAK256 SWAP1 SWAP2 ADD SLOAD DUP1 DUP4 MSTORE PUSH1 0xA SWAP1 SWAP2 MSTORE PUSH1 0x40 SWAP1 SWAP2 KECCAK256 PUSH1 0x1 ADD SLOAD SWAP1 SWAP2 POP PUSH1 0x1 PUSH1 0x1 PUSH1 0xA0 SHL SUB DUP1 DUP15 AND SWAP2 AND SUB PUSH2 0xF93 JUMPI DUP6 PUSH2 0xF57 DUP5 DUP10 PUSH2 0x1D0C JUMP JUMPDEST GT ISZERO PUSH2 0xF8D JUMPI DUP1 DUP5 DUP5 DUP2 MLOAD DUP2 LT PUSH2 0xF70 JUMPI PUSH2 0xF70 PUSH2 0x1D3E JUMP JUMPDEST PUSH1 0x20 SWAP1 DUP2 MUL SWAP2 SWAP1 SWAP2 ADD ADD MSTORE DUP3 PUSH2 0xF85 DUP2 PUSH2 0x1CF4 JUMP JUMPDEST SWAP4 POP POP PUSH2 0xF93 JUMP JUMPDEST POP PUSH2 0xFA6 JUMP JUMPDEST POP DUP1 PUSH2 0xF9E DUP2 PUSH2 0x1D90 JUMP JUMPDEST SWAP2 POP POP PUSH2 0xEE7 JUMP JUMPDEST POP SWAP1 SWAP6 POP SWAP3 SWAP4 POP POP POP POP JUMPDEST SWAP4 POP SWAP4 SWAP2 POP POP JUMP JUMPDEST PUSH1 0x1 PUSH1 0x1 PUSH1 0xA0 SHL SUB DUP3 AND PUSH0 SWAP1 DUP2 MSTORE PUSH1 0x8 PUSH1 0x20 MSTORE PUSH1 0x40 SWAP1 KECCAK256 SLOAD PUSH1 0xFF AND PUSH2 0x101C JUMPI PUSH1 0x40 MLOAD PUSH3 0x461BCD PUSH1 0xE5 SHL DUP2 MSTORE PUSH1 0x20 PUSH1 0x4 DUP3 ADD MSTORE PUSH1 0x19 PUSH1 0x24 DUP3 ADD MSTORE PUSH25 0x14DD18589B1958DBDA5B881B9BDD081C9959DA5CDD195C9959 PUSH1 0x3A SHL PUSH1 0x44 DUP3 ADD MSTORE PUSH1 0x64 ADD PUSH2 0x6ED JUMP JUMPDEST PUSH0 DUP3 PUSH1 0x1 PUSH1 0x1 PUSH1 0xA0 SHL SUB AND PUSH4 0x313CE567 PUSH1 0x40 MLOAD DUP2 PUSH4 0xFFFFFFFF AND PUSH1 0xE0 SHL DUP2 MSTORE PUSH1 0x4 ADD PUSH1 0x20 PUSH1 0x40 MLOAD DUP1 DUP4 SUB DUP2 DUP7 GAS STATICCALL ISZERO DUP1 ISZERO PUSH2 0x1059 JUMPI RETURNDATASIZE PUSH0 DUP1 RETURNDATACOPY RETURNDATASIZE PUSH0 REVERT JUMPDEST POP POP POP POP PUSH1 0x40 MLOAD RETURNDATASIZE PUSH1 0x1F NOT PUSH1 0x1F DUP3 ADD AND DUP3 ADD DUP1 PUSH1 0x40 MSTORE POP DUP2 ADD SWAP1 PUSH2 0x107D SWAP2 SWAP1 PUSH2 0x1DA5 JUMP JUMPDEST SWAP1 POP PUSH0 PUSH2 0x108C DUP4 DUP4 PUSH1 0x6 PUSH2 0x19EA JUMP JUMPDEST PUSH1 0x1 SLOAD PUSH1 0x40 MLOAD PUSH4 0x23B872DD PUSH1 0xE0 SHL DUP2 MSTORE CALLER PUSH1 0x4 DUP3 ADD MSTORE PUSH1 0x1 PUSH1 0x1 PUSH1 0xA0 SHL SUB PUSH2 0x100 SWAP1 SWAP3 DIV DUP3 AND PUSH1 0x24 DUP3 ADD MSTORE PUSH1 0x44 DUP2 ADD DUP7 SWAP1 MSTORE SWAP2 SWAP3 POP DUP6 AND SWAP1 PUSH4 0x23B872DD SWAP1 PUSH1 0x64 ADD PUSH1 0x20 PUSH1 0x40 MLOAD DUP1 DUP4 SUB DUP2 PUSH0 DUP8 GAS CALL ISZERO DUP1 ISZERO PUSH2 0x10E9 JUMPI RETURNDATASIZE PUSH0 DUP1 RETURNDATACOPY RETURNDATASIZE PUSH0 REVERT JUMPDEST POP POP POP POP PUSH1 0x40 MLOAD RETURNDATASIZE PUSH1 0x1F NOT PUSH1 0x1F DUP3 ADD AND DUP3 ADD DUP1 PUSH1 0x40 MSTORE POP DUP2 ADD SWAP1 PUSH2 0x110D SWAP2 SWAP1 PUSH2 0x1D1F JUMP JUMPDEST PUSH2 0x1159 JUMPI PUSH1 0x40 MLOAD PUSH3 0x461BCD PUSH1 0xE5 SHL DUP2 MSTORE PUSH1 0x20 PUSH1 0x4 DUP3 ADD MSTORE PUSH1 0x1A PUSH1 0x24 DUP3 ADD MSTORE PUSH32 0x537461626C65636F696E207472616E73666572206661696C6564000000000000 PUSH1 0x44 DUP3 ADD MSTORE PUSH1 0x64 ADD PUSH2 0x6ED JUMP JUMPDEST PUSH1 0x2 SLOAD PUSH1 0x40 MLOAD PUSH4 0x40C10F19 PUSH1 0xE0 SHL DUP2 MSTORE CALLER PUSH1 0x4 DUP3 ADD MSTORE PUSH1 0x24 DUP2 ADD DUP4 SWAP1 MSTORE PUSH1 0x1 PUSH1 0x1 PUSH1 0xA0 SHL SUB SWAP1 SWAP2 AND SWAP1 PUSH4 0x40C10F19 SWAP1 PUSH1 0x44 ADD PUSH0 PUSH1 0x40 MLOAD DUP1 DUP4 SUB DUP2 PUSH0 DUP8 DUP1 EXTCODESIZE ISZERO DUP1 ISZERO PUSH2 0x11A2 JUMPI PUSH0 DUP1 REVERT JUMPDEST POP GAS CALL ISZERO DUP1 ISZERO PUSH2 0x11B4 JUMPI RETURNDATASIZE PUSH0 DUP1 RETURNDATACOPY RETURNDATASIZE PUSH0 REVERT JUMPDEST POP POP PUSH1 0x40 DUP1 MLOAD DUP7 DUP2 MSTORE PUSH1 0x20 DUP2 ADD DUP6 SWAP1 MSTORE PUSH1 0x1 PUSH1 0x1 PUSH1 0xA0 SHL SUB DUP9 AND SWAP4 POP CALLER SWAP3 POP PUSH32 0x66C62F0863782653C5C44E10BF21D9DEF60984CE20D9F75549575A8910896587 SWAP2 ADD JUMPDEST PUSH1 0x40 MLOAD DUP1 SWAP2 SUB SWAP1 LOG3 POP POP POP POP JUMP JUMPDEST PUSH1 0x60 PUSH0 DUP4 ISZERO DUP1 PUSH2 0x1213 JUMPI POP DUP3 ISZERO JUMPDEST DUP1 PUSH2 0x1227 JUMPI POP PUSH0 DUP5 GT DUP1 ISZERO PUSH2 0x1227 JUMPI POP PUSH0 DUP4 GT JUMPDEST PUSH2 0x126F JUMPI PUSH1 0x40 MLOAD PUSH3 0x461BCD PUSH1 0xE5 SHL DUP2 MSTORE PUSH1 0x20 PUSH1 0x4 DUP3 ADD MSTORE PUSH1 0x19 PUSH1 0x24 DUP3 ADD MSTORE PUSH25 0x496E76616C69642070616765206F7220706167652073697A65 PUSH1 0x38 SHL PUSH1 0x44 DUP3 ADD MSTORE PUSH1 0x64 ADD PUSH2 0x6ED JUMP JUMPDEST PUSH0 DUP1 JUMPDEST PUSH1 0x7 SLOAD DUP2 LT ISZERO PUSH2 0x12DE JUMPI DUP7 PUSH1 0x1 PUSH1 0x1 PUSH1 0xA0 SHL SUB AND PUSH1 0xA PUSH0 PUSH1 0x7 DUP5 DUP2 SLOAD DUP2 LT PUSH2 0x129C JUMPI PUSH2 0x129C PUSH2 0x1D3E JUMP JUMPDEST PUSH0 SWAP2 DUP3 MSTORE PUSH1 0x20 DUP1 DUP4 KECCAK256 SWAP1 SWAP2 ADD SLOAD DUP4 MSTORE DUP3 ADD SWAP3 SWAP1 SWAP3 MSTORE PUSH1 0x40 ADD SWAP1 KECCAK256 PUSH1 0x1 ADD SLOAD PUSH1 0x1 PUSH1 0x1 PUSH1 0xA0 SHL SUB AND SUB PUSH2 0x12D6 JUMPI DUP2 PUSH2 0x12D2 DUP2 PUSH2 0x1CF4 JUMP JUMPDEST SWAP3 POP POP JUMPDEST PUSH1 0x1 ADD PUSH2 0x1272 JUMP JUMPDEST POP PUSH0 DUP2 DUP7 ISZERO DUP1 ISZERO SWAP1 PUSH2 0x12EF JUMPI POP PUSH0 DUP7 GT JUMPDEST ISZERO PUSH2 0x132D JUMPI PUSH2 0x12FE DUP7 DUP9 PUSH2 0x1D52 JUMP JUMPDEST PUSH2 0x1308 SWAP1 DUP5 PUSH2 0x1D0C JUMP JUMPDEST SWAP2 POP DUP3 DUP3 GT ISZERO PUSH2 0x1316 JUMPI PUSH0 SWAP2 POP JUMPDEST PUSH2 0x1320 DUP7 DUP4 PUSH2 0x1D69 JUMP JUMPDEST SWAP1 POP DUP3 DUP2 GT ISZERO PUSH2 0x132D JUMPI POP DUP2 JUMPDEST PUSH0 PUSH2 0x1338 DUP4 DUP4 PUSH2 0x1D0C JUMP JUMPDEST PUSH8 0xFFFFFFFFFFFFFFFF DUP2 GT ISZERO PUSH2 0x1350 JUMPI PUSH2 0x1350 PUSH2 0x1D7C JUMP JUMPDEST PUSH1 0x40 MLOAD SWAP1 DUP1 DUP3 MSTORE DUP1 PUSH1 0x20 MUL PUSH1 0x20 ADD DUP3 ADD PUSH1 0x40 MSTORE DUP1 ISZERO PUSH2 0x1379 JUMPI DUP2 PUSH1 0x20 ADD PUSH1 0x20 DUP3 MUL DUP1 CALLDATASIZE DUP4 CALLDATACOPY ADD SWAP1 POP JUMPDEST POP PUSH1 0x7 SLOAD SWAP1 SWAP2 POP PUSH0 SWAP1 JUMPDEST PUSH0 DUP2 GT DUP1 ISZERO PUSH2 0x1392 JUMPI POP DUP3 MLOAD DUP3 LT JUMPDEST ISZERO PUSH2 0xFA6 JUMPI PUSH0 PUSH1 0x7 PUSH2 0x13A5 PUSH1 0x1 DUP5 PUSH2 0x1D0C JUMP JUMPDEST DUP2 SLOAD DUP2 LT PUSH2 0x13B5 JUMPI PUSH2 0x13B5 PUSH2 0x1D3E JUMP JUMPDEST PUSH0 SWAP2 DUP3 MSTORE PUSH1 0x20 DUP1 DUP4 KECCAK256 SWAP1 SWAP2 ADD SLOAD DUP1 DUP4 MSTORE PUSH1 0xA SWAP1 SWAP2 MSTORE PUSH1 0x40 SWAP1 SWAP2 KECCAK256 PUSH1 0x1 ADD SLOAD SWAP1 SWAP2 POP PUSH1 0x1 PUSH1 0x1 PUSH1 0xA0 SHL SUB DUP1 DUP15 AND SWAP2 AND SUB PUSH2 0x1425 JUMPI DUP6 PUSH2 0x13F3 DUP5 DUP10 PUSH2 0x1D0C JUMP JUMPDEST GT ISZERO PUSH2 0xF8D JUMPI DUP1 DUP5 DUP5 DUP2 MLOAD DUP2 LT PUSH2 0x140C JUMPI PUSH2 0x140C PUSH2 0x1D3E JUMP JUMPDEST PUSH1 0x20 SWAP1 DUP2 MUL SWAP2 SWAP1 SWAP2 ADD ADD MSTORE DUP3 PUSH2 0x1421 DUP2 PUSH2 0x1CF4 JUMP JUMPDEST SWAP4 POP POP JUMPDEST POP DUP1 PUSH2 0x1430 DUP2 PUSH2 0x1D90 JUMP JUMPDEST SWAP2 POP POP PUSH2 0x1383 JUMP JUMPDEST PUSH0 DUP1 MLOAD PUSH1 0x20 PUSH2 0x1F02 DUP4 CODECOPY DUP2 MLOAD SWAP2 MSTORE PUSH2 0x144F DUP2 PUSH2 0x185B JUMP JUMPDEST POP PUSH1 0x4 SSTORE JUMP JUMPDEST PUSH0 DUP1 MLOAD PUSH1 0x20 PUSH2 0x1F02 DUP4 CODECOPY DUP2 MLOAD SWAP2 MSTORE PUSH2 0x146C DUP2 PUSH2 0x185B JUMP JUMPDEST PUSH1 0x1 PUSH1 0x1 PUSH1 0xA0 SHL SUB DUP3 AND PUSH0 DUP2 DUP2 MSTORE PUSH1 0x8 PUSH1 0x20 MSTORE PUSH1 0x40 DUP1 DUP3 KECCAK256 DUP1 SLOAD PUSH1 0xFF NOT AND PUSH1 0x1 OR SWAP1 SSTORE MLOAD PUSH32 0xD8B2DC62B787EC8AFBC8A664CF2FD7C1E7851721ACC9E0069132CECE3C529C2E SWAP2 SWAP1 LOG2 POP POP JUMP JUMPDEST PUSH1 0x1 PUSH1 0x1 PUSH1 0xA0 SHL SUB DUP3 AND PUSH0 SWAP1 DUP2 MSTORE PUSH1 0x8 PUSH1 0x20 MSTORE PUSH1 0x40 SWAP1 KECCAK256 SLOAD PUSH1 0xFF AND PUSH2 0x151B JUMPI PUSH1 0x40 MLOAD PUSH3 0x461BCD PUSH1 0xE5 SHL DUP2 MSTORE PUSH1 0x20 PUSH1 0x4 DUP3 ADD MSTORE PUSH1 0x19 PUSH1 0x24 DUP3 ADD MSTORE PUSH25 0x14DD18589B1958DBDA5B881B9BDD081C9959DA5CDD195C9959 PUSH1 0x3A SHL PUSH1 0x44 DUP3 ADD MSTORE PUSH1 0x64 ADD PUSH2 0x6ED JUMP JUMPDEST PUSH0 DUP3 PUSH1 0x1 PUSH1 0x1 PUSH1 0xA0 SHL SUB AND PUSH4 0x313CE567 PUSH1 0x40 MLOAD DUP2 PUSH4 0xFFFFFFFF AND PUSH1 0xE0 SHL DUP2 MSTORE PUSH1 0x4 ADD PUSH1 0x20 PUSH1 0x40 MLOAD DUP1 DUP4 SUB DUP2 DUP7 GAS STATICCALL ISZERO DUP1 ISZERO PUSH2 0x1558 JUMPI RETURNDATASIZE PUSH0 DUP1 RETURNDATACOPY RETURNDATASIZE PUSH0 REVERT JUMPDEST POP POP POP POP PUSH1 0x40 MLOAD RETURNDATASIZE PUSH1 0x1F NOT PUSH1 0x1F DUP3 ADD AND DUP3 ADD DUP1 PUSH1 0x40 MSTORE POP DUP2 ADD SWAP1 PUSH2 0x157C SWAP2 SWAP1 PUSH2 0x1DA5 JUMP JUMPDEST SWAP1 POP PUSH0 PUSH2 0x158B DUP4 PUSH1 0x6 DUP5 PUSH2 0x1A5C JUMP JUMPDEST PUSH1 0x1 SLOAD PUSH1 0x40 MLOAD PUSH4 0x1795588D PUSH1 0xE2 SHL DUP2 MSTORE PUSH1 0x1 PUSH1 0x1 PUSH1 0xA0 SHL SUB DUP8 DUP2 AND PUSH1 0x4 DUP4 ADD MSTORE CALLER PUSH1 0x24 DUP4 ADD MSTORE PUSH1 0x44 DUP3 ADD DUP5 SWAP1 MSTORE SWAP3 SWAP4 POP PUSH2 0x100 SWAP1 SWAP2 DIV SWAP1 SWAP2 AND SWAP1 PUSH4 0x5E556234 SWAP1 PUSH1 0x64 ADD PUSH0 PUSH1 0x40 MLOAD DUP1 DUP4 SUB DUP2 PUSH0 DUP8 DUP1 EXTCODESIZE ISZERO DUP1 ISZERO PUSH2 0x15E5 JUMPI PUSH0 DUP1 REVERT JUMPDEST POP GAS CALL ISZERO DUP1 ISZERO PUSH2 0x15F7 JUMPI RETURNDATASIZE PUSH0 DUP1 RETURNDATACOPY RETURNDATASIZE PUSH0 REVERT JUMPDEST POP POP PUSH1 0x2 SLOAD PUSH1 0x40 MLOAD PUSH4 0x79CC679 PUSH1 0xE4 SHL DUP2 MSTORE CALLER PUSH1 0x4 DUP3 ADD MSTORE PUSH1 0x24 DUP2 ADD DUP8 SWAP1 MSTORE PUSH1 0x1 PUSH1 0x1 PUSH1 0xA0 SHL SUB SWAP1 SWAP2 AND SWAP3 POP PUSH4 0x79CC6790 SWAP2 POP PUSH1 0x44 ADD PUSH0 PUSH1 0x40 MLOAD DUP1 DUP4 SUB DUP2 PUSH0 DUP8 DUP1 EXTCODESIZE ISZERO DUP1 ISZERO PUSH2 0x1644 JUMPI PUSH0 DUP1 REVERT JUMPDEST POP GAS CALL ISZERO DUP1 ISZERO PUSH2 0x1656 JUMPI RETURNDATASIZE PUSH0 DUP1 RETURNDATACOPY RETURNDATASIZE PUSH0 REVERT JUMPDEST POP POP PUSH1 0x40 DUP1 MLOAD DUP7 DUP2 MSTORE PUSH1 0x20 DUP2 ADD DUP6 SWAP1 MSTORE PUSH1 0x1 PUSH1 0x1 PUSH1 0xA0 SHL SUB DUP9 AND SWAP4 POP CALLER SWAP3 POP PUSH32 0x3D9842CBDFA603AB9534D6E362BF28B3061318F57FED5E7087DFC956A9D74442 SWAP2 ADD PUSH2 0x11F7 JUMP JUMPDEST PUSH0 DUP3 DUP2 MSTORE PUSH1 0x20 DUP2 SWAP1 MSTORE PUSH1 0x40 SWAP1 KECCAK256 PUSH1 0x1 ADD SLOAD PUSH2 0x16B7 DUP2 PUSH2 0x185B JUMP JUMPDEST PUSH2 0xC6E DUP4 DUP4 PUSH2 0x18F4 JUMP JUMPDEST PUSH0 DUP1 MLOAD PUSH1 0x20 PUSH2 0x1F02 DUP4 CODECOPY DUP2 MLOAD SWAP2 MSTORE PUSH2 0x16D8 DUP2 PUSH2 0x185B JUMP JUMPDEST POP PUSH1 0x5 DUP1 SLOAD PUSH1 0x1 PUSH1 0x1 PUSH1 0xA0 SHL SUB NOT AND PUSH1 0x1 PUSH1 0x1 PUSH1 0xA0 SHL SUB SWAP3 SWAP1 SWAP3 AND SWAP2 SWAP1 SWAP2 OR SWAP1 SSTORE JUMP JUMPDEST PUSH1 0x1 SLOAD PUSH1 0xFF AND ISZERO PUSH2 0x171F JUMPI PUSH1 0x40 MLOAD PUSH4 0xD93C0665 PUSH1 0xE0 SHL DUP2 MSTORE PUSH1 0x4 ADD PUSH1 0x40 MLOAD DUP1 SWAP2 SUB SWAP1 REVERT JUMPDEST JUMP JUMPDEST PUSH1 0x40 DUP1 MLOAD PUSH1 0x80 DUP2 ADD DUP3 MSTORE DUP6 DUP2 MSTORE PUSH1 0x1 PUSH1 0x1 PUSH1 0xA0 SHL SUB DUP6 DUP2 AND PUSH1 0x20 DUP1 DUP5 ADD SWAP2 DUP3 MSTORE DUP4 DUP6 ADD DUP8 DUP2 MSTORE DUP7 ISZERO DUP1 ISZERO PUSH1 0x60 DUP8 ADD SWAP1 DUP2 MSTORE PUSH0 DUP13 DUP2 MSTORE PUSH1 0xA SWAP1 SWAP5 MSTORE SWAP7 SWAP1 SWAP3 KECCAK256 DUP6 MLOAD DUP2 SSTORE SWAP3 MLOAD PUSH1 0x1 DUP5 ADD DUP1 SLOAD PUSH1 0x1 PUSH1 0x1 PUSH1 0xA0 SHL SUB NOT AND SWAP2 SWAP1 SWAP6 AND OR SWAP1 SWAP4 SSTORE SWAP2 MLOAD PUSH1 0x2 DUP3 ADD SSTORE SWAP3 MLOAD PUSH1 0x3 SWAP1 SWAP4 ADD DUP1 SLOAD PUSH1 0xFF NOT AND SWAP4 ISZERO ISZERO SWAP4 SWAP1 SWAP4 OR SWAP1 SWAP3 SSTORE SWAP1 PUSH2 0x17D9 JUMPI PUSH1 0x6 DUP1 SLOAD PUSH1 0x1 DUP2 ADD DUP3 SSTORE PUSH0 SWAP2 SWAP1 SWAP2 MSTORE PUSH32 0xF652222313E28459528D920B65115C16C04F3EFC82AAEDC97BE59F3F377C0D3F ADD DUP6 SWAP1 SSTORE PUSH2 0x180E JUMP JUMPDEST PUSH1 0x7 DUP1 SLOAD PUSH1 0x1 DUP2 ADD DUP3 SSTORE PUSH0 SWAP2 SWAP1 SWAP2 MSTORE PUSH32 0xA66CC928B5EDB82AF9BD49922954155AB7B0942694BEA4CE44661D9A8736C688 ADD DUP6 SWAP1 SSTORE JUMPDEST DUP2 ISZERO PUSH2 0x1836 JUMPI PUSH1 0x6 SLOAD PUSH2 0x1823 SWAP1 PUSH1 0x1 SWAP1 PUSH2 0x1D0C JUMP JUMPDEST PUSH0 DUP7 DUP2 MSTORE PUSH1 0xB PUSH1 0x20 MSTORE PUSH1 0x40 SWAP1 KECCAK256 SSTORE PUSH2 0x1854 JUMP JUMPDEST PUSH1 0x7 SLOAD PUSH2 0x1845 SWAP1 PUSH1 0x1 SWAP1 PUSH2 0x1D0C JUMP JUMPDEST PUSH0 DUP7 DUP2 MSTORE PUSH1 0xC PUSH1 0x20 MSTORE PUSH1 0x40 SWAP1 KECCAK256 SSTORE JUMPDEST POP POP POP POP POP JUMP JUMPDEST PUSH2 0xCFD DUP2 CALLER PUSH2 0x1AD2 JUMP JUMPDEST PUSH0 PUSH2 0x1870 DUP4 DUP4 PUSH2 0xD41 JUMP JUMPDEST PUSH2 0x18ED JUMPI PUSH0 DUP4 DUP2 MSTORE PUSH1 0x20 DUP2 DUP2 MSTORE PUSH1 0x40 DUP1 DUP4 KECCAK256 PUSH1 0x1 PUSH1 0x1 PUSH1 0xA0 SHL SUB DUP7 AND DUP5 MSTORE SWAP1 SWAP2 MSTORE SWAP1 KECCAK256 DUP1 SLOAD PUSH1 0xFF NOT AND PUSH1 0x1 OR SWAP1 SSTORE PUSH2 0x18A5 CALLER SWAP1 JUMP JUMPDEST PUSH1 0x1 PUSH1 0x1 PUSH1 0xA0 SHL SUB AND DUP3 PUSH1 0x1 PUSH1 0x1 PUSH1 0xA0 SHL SUB AND DUP5 PUSH32 0x2F8788117E7EFF1D82E926EC794901D17C78024A50270940304540A733656F0D PUSH1 0x40 MLOAD PUSH1 0x40 MLOAD DUP1 SWAP2 SUB SWAP1 LOG4 POP PUSH1 0x1 PUSH2 0x67B JUMP JUMPDEST POP PUSH0 PUSH2 0x67B JUMP JUMPDEST PUSH0 PUSH2 0x18FF DUP4 DUP4 PUSH2 0xD41 JUMP JUMPDEST ISZERO PUSH2 0x18ED JUMPI PUSH0 DUP4 DUP2 MSTORE PUSH1 0x20 DUP2 DUP2 MSTORE PUSH1 0x40 DUP1 DUP4 KECCAK256 PUSH1 0x1 PUSH1 0x1 PUSH1 0xA0 SHL SUB DUP7 AND DUP1 DUP6 MSTORE SWAP3 MSTORE DUP1 DUP4 KECCAK256 DUP1 SLOAD PUSH1 0xFF NOT AND SWAP1 SSTORE MLOAD CALLER SWAP3 DUP7 SWAP2 PUSH32 0xF6391F5C32D9C69D2A47EA670B442974B53935D1EDC7FD64EB21E047A839171B SWAP2 SWAP1 LOG4 POP PUSH1 0x1 PUSH2 0x67B JUMP JUMPDEST PUSH2 0x1965 PUSH2 0x1B0F JUMP JUMPDEST PUSH1 0x1 DUP1 SLOAD PUSH1 0xFF NOT AND SWAP1 SSTORE PUSH32 0x5DB9EE0A495BF2E6FF9C91A7834C1BA4FDD244A5E8AA4E537BD38AEAE4B073AA CALLER JUMPDEST PUSH1 0x40 MLOAD PUSH1 0x1 PUSH1 0x1 PUSH1 0xA0 SHL SUB SWAP1 SWAP2 AND DUP2 MSTORE PUSH1 0x20 ADD PUSH1 0x40 MLOAD DUP1 SWAP2 SUB SWAP1 LOG1 JUMP JUMPDEST PUSH2 0x19B7 PUSH2 0x16FB JUMP JUMPDEST PUSH1 0x1 DUP1 SLOAD PUSH1 0xFF NOT AND DUP2 OR SWAP1 SSTORE PUSH32 0x62E78CEA01BEE320CD4E420270B5EA74000D11B0C9F74754EBDBFC544B05A258 CALLER PUSH2 0x1992 JUMP JUMPDEST PUSH0 DUP2 PUSH1 0xFF AND DUP4 PUSH1 0xFF AND SUB PUSH2 0x19FF JUMPI POP DUP3 PUSH2 0x1A55 JUMP JUMPDEST DUP2 PUSH1 0xFF AND DUP4 PUSH1 0xFF AND LT ISZERO PUSH2 0x1A33 JUMPI PUSH2 0x1A17 DUP4 DUP4 PUSH2 0x1DC5 JUMP JUMPDEST PUSH2 0x1A22 SWAP1 PUSH1 0xA PUSH2 0x1EB9 JUMP JUMPDEST PUSH2 0x1A2C SWAP1 DUP6 PUSH2 0x1D52 JUMP JUMPDEST SWAP1 POP PUSH2 0x1A55 JUMP JUMPDEST PUSH2 0x1A3D DUP3 DUP5 PUSH2 0x1DC5 JUMP JUMPDEST PUSH2 0x1A48 SWAP1 PUSH1 0xA PUSH2 0x1EB9 JUMP JUMPDEST PUSH2 0x1A52 SWAP1 DUP6 PUSH2 0x1EDB JUMP JUMPDEST SWAP1 POP JUMPDEST SWAP4 SWAP3 POP POP POP JUMP JUMPDEST PUSH0 DUP2 PUSH1 0xFF AND DUP4 PUSH1 0xFF AND SUB PUSH2 0x1A71 JUMPI POP DUP3 PUSH2 0x1A55 JUMP JUMPDEST DUP2 PUSH1 0xFF AND DUP4 PUSH1 0xFF AND LT ISZERO PUSH2 0x1A89 JUMPI PUSH2 0x1A17 DUP4 DUP4 PUSH2 0x1DC5 JUMP JUMPDEST PUSH0 PUSH2 0x1A94 DUP4 DUP6 PUSH2 0x1DC5 JUMP JUMPDEST PUSH2 0x1A9F SWAP1 PUSH1 0xA PUSH2 0x1EB9 JUMP JUMPDEST SWAP1 POP PUSH2 0x1AAB DUP2 DUP7 PUSH2 0x1EDB JUMP JUMPDEST SWAP2 POP PUSH2 0x1AB7 DUP2 DUP7 PUSH2 0x1EEE JUMP JUMPDEST ISZERO PUSH2 0x1ACA JUMPI PUSH2 0x1AC7 PUSH1 0x1 DUP4 PUSH2 0x1D69 JUMP JUMPDEST SWAP2 POP JUMPDEST POP SWAP4 SWAP3 POP POP POP JUMP JUMPDEST PUSH2 0x1ADC DUP3 DUP3 PUSH2 0xD41 JUMP JUMPDEST PUSH2 0x1B0B JUMPI PUSH1 0x40 MLOAD PUSH4 0xE2517D3F PUSH1 0xE0 SHL DUP2 MSTORE PUSH1 0x1 PUSH1 0x1 PUSH1 0xA0 SHL SUB DUP3 AND PUSH1 0x4 DUP3 ADD MSTORE PUSH1 0x24 DUP2 ADD DUP4 SWAP1 MSTORE PUSH1 0x44 ADD PUSH2 0x6ED JUMP JUMPDEST POP POP JUMP JUMPDEST PUSH1 0x1 SLOAD PUSH1 0xFF AND PUSH2 0x171F JUMPI PUSH1 0x40 MLOAD PUSH4 0x8DFC202B PUSH1 0xE0 SHL DUP2 MSTORE PUSH1 0x4 ADD PUSH1 0x40 MLOAD DUP1 SWAP2 SUB SWAP1 REVERT JUMPDEST PUSH0 PUSH1 0x20 DUP3 DUP5 SUB SLT ISZERO PUSH2 0x1B42 JUMPI PUSH0 DUP1 REVERT JUMPDEST DUP2 CALLDATALOAD PUSH1 0x1 PUSH1 0x1 PUSH1 0xE0 SHL SUB NOT DUP2 AND DUP2 EQ PUSH2 0x1A55 JUMPI PUSH0 DUP1 REVERT JUMPDEST DUP1 CALLDATALOAD PUSH1 0x1 PUSH1 0x1 PUSH1 0xA0 SHL SUB DUP2 AND DUP2 EQ PUSH2 0x1B6F JUMPI PUSH0 DUP1 REVERT JUMPDEST SWAP2 SWAP1 POP JUMP JUMPDEST PUSH0 DUP1 PUSH0 PUSH1 0x60 DUP5 DUP7 SUB SLT ISZERO PUSH2 0x1B86 JUMPI PUSH0 DUP1 REVERT JUMPDEST DUP4 CALLDATALOAD SWAP3 POP PUSH1 0x20 DUP5 ADD CALLDATALOAD SWAP2 POP PUSH2 0x1B9D PUSH1 0x40 DUP6 ADD PUSH2 0x1B59 JUMP JUMPDEST SWAP1 POP SWAP3 POP SWAP3 POP SWAP3 JUMP JUMPDEST PUSH0 PUSH1 0x20 DUP3 DUP5 SUB SLT ISZERO PUSH2 0x1BB6 JUMPI PUSH0 DUP1 REVERT JUMPDEST PUSH2 0x1A55 DUP3 PUSH2 0x1B59 JUMP JUMPDEST PUSH0 PUSH1 0x20 DUP3 DUP5 SUB SLT ISZERO PUSH2 0x1BCF JUMPI PUSH0 DUP1 REVERT JUMPDEST POP CALLDATALOAD SWAP2 SWAP1 POP JUMP JUMPDEST PUSH0 DUP1 PUSH0 DUP1 PUSH1 0x80 DUP6 DUP8 SUB SLT ISZERO PUSH2 0x1BE9 JUMPI PUSH0 DUP1 REVERT JUMPDEST DUP5 CALLDATALOAD SWAP4 POP PUSH1 0x20 DUP6 ADD CALLDATALOAD SWAP3 POP PUSH1 0x40 DUP6 ADD CALLDATALOAD SWAP2 POP PUSH2 0x1C07 PUSH1 0x60 DUP7 ADD PUSH2 0x1B59 JUMP JUMPDEST SWAP1 POP SWAP3 SWAP6 SWAP2 SWAP5 POP SWAP3 POP JUMP JUMPDEST PUSH0 DUP1 PUSH1 0x40 DUP4 DUP6 SUB SLT ISZERO PUSH2 0x1C23 JUMPI PUSH0 DUP1 REVERT JUMPDEST DUP3 CALLDATALOAD SWAP2 POP PUSH2 0x1C33 PUSH1 0x20 DUP5 ADD PUSH2 0x1B59 JUMP JUMPDEST SWAP1 POP SWAP3 POP SWAP3 SWAP1 POP JUMP JUMPDEST PUSH0 DUP1 PUSH0 PUSH1 0x60 DUP5 DUP7 SUB SLT ISZERO PUSH2 0x1C4E JUMPI PUSH0 DUP1 REVERT JUMPDEST PUSH2 0x1C57 DUP5 PUSH2 0x1B59 JUMP JUMPDEST SWAP6 PUSH1 0x20 DUP6 ADD CALLDATALOAD SWAP6 POP PUSH1 0x40 SWAP1 SWAP5 ADD CALLDATALOAD SWAP4 SWAP3 POP POP POP JUMP JUMPDEST PUSH1 0x40 DUP1 DUP3 MSTORE DUP4 MLOAD SWAP1 DUP3 ADD DUP2 SWAP1 MSTORE PUSH0 SWAP1 PUSH1 0x20 DUP6 ADD SWAP1 PUSH1 0x60 DUP5 ADD SWAP1 DUP4 JUMPDEST DUP2 DUP2 LT ISZERO PUSH2 0x1CA5 JUMPI DUP4 MLOAD DUP4 MSTORE PUSH1 0x20 SWAP4 DUP5 ADD SWAP4 SWAP1 SWAP3 ADD SWAP2 PUSH1 0x1 ADD PUSH2 0x1C87 JUMP JUMPDEST POP POP PUSH1 0x20 SWAP4 SWAP1 SWAP4 ADD SWAP4 SWAP1 SWAP4 MSTORE POP SWAP3 SWAP2 POP POP JUMP JUMPDEST PUSH0 DUP1 PUSH1 0x40 DUP4 DUP6 SUB SLT ISZERO PUSH2 0x1CC9 JUMPI PUSH0 DUP1 REVERT JUMPDEST PUSH2 0x1CD2 DUP4 PUSH2 0x1B59 JUMP JUMPDEST SWAP5 PUSH1 0x20 SWAP4 SWAP1 SWAP4 ADD CALLDATALOAD SWAP4 POP POP POP JUMP JUMPDEST PUSH4 0x4E487B71 PUSH1 0xE0 SHL PUSH0 MSTORE PUSH1 0x11 PUSH1 0x4 MSTORE PUSH1 0x24 PUSH0 REVERT JUMPDEST PUSH0 PUSH1 0x1 DUP3 ADD PUSH2 0x1D05 JUMPI PUSH2 0x1D05 PUSH2 0x1CE0 JUMP JUMPDEST POP PUSH1 0x1 ADD SWAP1 JUMP JUMPDEST DUP2 DUP2 SUB DUP2 DUP2 GT ISZERO PUSH2 0x67B JUMPI PUSH2 0x67B PUSH2 0x1CE0 JUMP JUMPDEST PUSH0 PUSH1 0x20 DUP3 DUP5 SUB SLT ISZERO PUSH2 0x1D2F JUMPI PUSH0 DUP1 REVERT JUMPDEST DUP2 MLOAD DUP1 ISZERO ISZERO DUP2 EQ PUSH2 0x1A55 JUMPI PUSH0 DUP1 REVERT JUMPDEST PUSH4 0x4E487B71 PUSH1 0xE0 SHL PUSH0 MSTORE PUSH1 0x32 PUSH1 0x4 MSTORE PUSH1 0x24 PUSH0 REVERT JUMPDEST DUP1 DUP3 MUL DUP2 ISZERO DUP3 DUP3 DIV DUP5 EQ OR PUSH2 0x67B JUMPI PUSH2 0x67B PUSH2 0x1CE0 JUMP JUMPDEST DUP1 DUP3 ADD DUP1 DUP3 GT ISZERO PUSH2 0x67B JUMPI PUSH2 0x67B PUSH2 0x1CE0 JUMP JUMPDEST PUSH4 0x4E487B71 PUSH1 0xE0 SHL PUSH0 MSTORE PUSH1 0x41 PUSH1 0x4 MSTORE PUSH1 0x24 PUSH0 REVERT JUMPDEST PUSH0 DUP2 PUSH2 0x1D9E JUMPI PUSH2 0x1D9E PUSH2 0x1CE0 JUMP JUMPDEST POP PUSH0 NOT ADD SWAP1 JUMP JUMPDEST PUSH0 PUSH1 0x20 DUP3 DUP5 SUB SLT ISZERO PUSH2 0x1DB5 JUMPI PUSH0 DUP1 REVERT JUMPDEST DUP2 MLOAD PUSH1 0xFF DUP2 AND DUP2 EQ PUSH2 0x1A55 JUMPI PUSH0 DUP1 REVERT JUMPDEST PUSH1 0xFF DUP3 DUP2 AND DUP3 DUP3 AND SUB SWAP1 DUP2 GT ISZERO PUSH2 0x67B JUMPI PUSH2 0x67B PUSH2 0x1CE0 JUMP JUMPDEST PUSH1 0x1 DUP2 JUMPDEST PUSH1 0x1 DUP5 GT ISZERO PUSH2 0xFB1 JUMPI DUP1 DUP6 DIV DUP2 GT ISZERO PUSH2 0x1DFD JUMPI PUSH2 0x1DFD PUSH2 0x1CE0 JUMP JUMPDEST PUSH1 0x1 DUP5 AND ISZERO PUSH2 0x1E0B JUMPI SWAP1 DUP2 MUL SWAP1 JUMPDEST PUSH1 0x1 SWAP4 SWAP1 SWAP4 SHR SWAP3 DUP1 MUL PUSH2 0x1DE2 JUMP JUMPDEST PUSH0 DUP3 PUSH2 0x1E27 JUMPI POP PUSH1 0x1 PUSH2 0x67B JUMP JUMPDEST DUP2 PUSH2 0x1E33 JUMPI POP PUSH0 PUSH2 0x67B JUMP JUMPDEST DUP2 PUSH1 0x1 DUP2 EQ PUSH2 0x1E49 JUMPI PUSH1 0x2 DUP2 EQ PUSH2 0x1E53 JUMPI PUSH2 0x1E6F JUMP JUMPDEST PUSH1 0x1 SWAP2 POP POP PUSH2 0x67B JUMP JUMPDEST PUSH1 0xFF DUP5 GT ISZERO PUSH2 0x1E64 JUMPI PUSH2 0x1E64 PUSH2 0x1CE0 JUMP JUMPDEST POP POP PUSH1 0x1 DUP3 SHL PUSH2 0x67B JUMP JUMPDEST POP PUSH1 0x20 DUP4 LT PUSH2 0x133 DUP4 LT AND PUSH1 0x4E DUP5 LT PUSH1 0xB DUP5 LT AND OR ISZERO PUSH2 0x1E92 JUMPI POP DUP2 DUP2 EXP PUSH2 0x67B JUMP JUMPDEST PUSH2 0x1E9E PUSH0 NOT DUP5 DUP5 PUSH2 0x1DDE JUMP JUMPDEST DUP1 PUSH0 NOT DIV DUP3 GT ISZERO PUSH2 0x1EB1 JUMPI PUSH2 0x1EB1 PUSH2 0x1CE0 JUMP JUMPDEST MUL SWAP4 SWAP3 POP POP POP JUMP JUMPDEST PUSH0 PUSH2 0x1A55 PUSH1 0xFF DUP5 AND DUP4 PUSH2 0x1E19 JUMP JUMPDEST PUSH4 0x4E487B71 PUSH1 0xE0 SHL PUSH0 MSTORE PUSH1 0x12 PUSH1 0x4 MSTORE PUSH1 0x24 PUSH0 REVERT JUMPDEST PUSH0 DUP3 PUSH2 0x1EE9 JUMPI PUSH2 0x1EE9 PUSH2 0x1EC7 JUMP JUMPDEST POP DIV SWAP1 JUMP JUMPDEST PUSH0 DUP3 PUSH2 0x1EFC JUMPI PUSH2 0x1EFC PUSH2 0x1EC7 JUMP JUMPDEST POP MOD SWAP1 JUMP INVALID LOG4 SWAP9 SMOD KECCAK256 TLOAD 0xE4 0xD3 SSTORE MULMOD 0x2E CREATE2 0xA8 LOG1 DUP16 JUMP 0xE8 SWAP2 EXTCODECOPY DELEGATECALL LOG2 ADD 0xFB 0xE2 DUP8 DUP3 JUMPDEST MULMOD JUMP SWAP4 0xC2 OR PUSH22 0xA264697066735822122043C091AA4A94152F4445B337 0xBE TSTORE 0xE9 0xE6 0xB3 0xD6 STATICCALL MOD EXTCODESIZE 0xC9 0x24 BLOBBASEFEE RETURN 0xE6 0xDE 0x28 DUP5 SUB NOT 0xBE PUSH5 0x736F6C6343 STOP ADDMOD BYTE STOP CALLER "
				},
				"gasEstimates": {
					"creation": {
						"codeDepositCost": "1604600",
						"executionCost": "infinite",
						"totalCost": "infinite"
					},
					"external": {
						"ADMIN_ROLE()": "infinite",
						"CROSS_CHAIN_MINTER_ROLE()": "295",
						"DEFAULT_ADMIN_ROLE()": "227",
						"PAUSER_ROLE()": "249",
						"WEUSD_DECIMALS()": "335",
						"activeSourceRequests(uint256)": "4607",
						"activeTargetRequests(uint256)": "4629",
						"burnWeUSD(address,uint256)": "infinite",
						"burnWeUSDCrossChain(uint256,uint256,address)": "infinite",
						"deleteStablecoin(address)": "infinite",
						"feeRecipient()": "2381",
						"gasfee()": "2330",
						"getRequestById(uint256)": "9255",
						"getRoleAdmin(bytes32)": "2523",
						"getUserSourceRequests(address,uint256,uint256)": "infinite",
						"getUserTargetRequests(address,uint256,uint256)": "infinite",
						"grantRole(bytes32,address)": "infinite",
						"hasRole(bytes32,address)": "2727",
						"isRequestIdUsed(uint256)": "2493",
						"mainContract()": "2480",
						"mintWeUSD(address,uint256)": "infinite",
						"mintWeUSDCrossChain(uint256,uint256,uint256,address)": "infinite",
						"pause()": "infinite",
						"paused()": "2392",
						"registerStablecoin(address)": "infinite",
						"registeredStablecoins(address)": "2640",
						"renounceRole(bytes32,address)": "29108",
						"requestCount()": "2350",
						"requestExists(uint256)": "2557",
						"requestIdToSourceActiveIndex(uint256)": "2513",
						"requestIdToTargetActiveIndex(uint256)": "2557",
						"revokeRole(bytes32,address)": "infinite",
						"setFeeRecipient(address)": "infinite",
						"setGasfee(uint256)": "infinite",
						"supportsInterface(bytes4)": "503",
						"unpause()": "infinite",
						"usedRequestIds(uint256)": "2493",
						"weUSD()": "2425"
					},
					"internal": {
						"_createRequest(uint256,address,uint256,bool)": "infinite",
						"convertDecimals(uint256,uint8,uint8)": "infinite",
						"convertDecimalsCeil(uint256,uint8,uint8)": "infinite"
					}
				},
				"methodIdentifiers": {
					"ADMIN_ROLE()": "75b238fc",
					"CROSS_CHAIN_MINTER_ROLE()": "37174202",
					"DEFAULT_ADMIN_ROLE()": "a217fddf",
					"PAUSER_ROLE()": "e63ab1e9",
					"WEUSD_DECIMALS()": "eda87eff",
					"activeSourceRequests(uint256)": "854935f1",
					"activeTargetRequests(uint256)": "34d8c7d5",
					"burnWeUSD(address,uint256)": "d19fad37",
					"burnWeUSDCrossChain(uint256,uint256,address)": "0bd31a57",
					"deleteStablecoin(address)": "1008776f",
					"feeRecipient()": "46904840",
					"gasfee()": "00677016",
					"getRequestById(uint256)": "26757b73",
					"getRoleAdmin(bytes32)": "248a9ca3",
					"getUserSourceRequests(address,uint256,uint256)": "973697bd",
					"getUserTargetRequests(address,uint256,uint256)": "bb93ede0",
					"grantRole(bytes32,address)": "2f2ff15d",
					"hasRole(bytes32,address)": "91d14854",
					"isRequestIdUsed(uint256)": "1e7502d7",
					"mainContract()": "d270e7ab",
					"mintWeUSD(address,uint256)": "a2519ae4",
					"mintWeUSDCrossChain(uint256,uint256,uint256,address)": "1f224564",
					"pause()": "8456cb59",
					"paused()": "5c975abb",
					"registerStablecoin(address)": "c6400657",
					"registeredStablecoins(address)": "9ea4f3a4",
					"renounceRole(bytes32,address)": "36568abe",
					"requestCount()": "5badbe4c",
					"requestExists(uint256)": "ea277eca",
					"requestIdToSourceActiveIndex(uint256)": "c99773ce",
					"requestIdToTargetActiveIndex(uint256)": "bead8d26",
					"revokeRole(bytes32,address)": "d547741f",
					"setFeeRecipient(address)": "e74b981b",
					"setGasfee(uint256)": "c5494ffb",
					"supportsInterface(bytes4)": "01ffc9a7",
					"unpause()": "3f4ba83a",
					"usedRequestIds(uint256)": "2f92893c",
					"weUSD()": "a62e1b3e"
				}
			},
			"storageLayout": {
				"storage": [
					{
						"astId": 26,
						"contract": "weusd/manageusd.sol:weUSD_manager",
						"label": "_roles",
						"offset": 0,
						"slot": "0",
						"type": "t_mapping(t_bytes32,t_struct(RoleData)21_storage)"
					},
					{
						"astId": 521,
						"contract": "weusd/manageusd.sol:weUSD_manager",
						"label": "_paused",
						"offset": 0,
						"slot": "1",
						"type": "t_bool"
					},
					{
						"astId": 1776,
						"contract": "weusd/manageusd.sol:weUSD_manager",
						"label": "mainContract",
						"offset": 1,
						"slot": "1",
						"type": "t_contract(IMainContract)1731"
					},
					{
						"astId": 1794,
						"contract": "weusd/manageusd.sol:weUSD_manager",
						"label": "weUSD",
						"offset": 0,
						"slot": "2",
						"type": "t_contract(IPicweUSD)1751"
					},
					{
						"astId": 1796,
						"contract": "weusd/manageusd.sol:weUSD_manager",
						"label": "requestCount",
						"offset": 0,
						"slot": "3",
						"type": "t_uint256"
					},
					{
						"astId": 1809,
						"contract": "weusd/manageusd.sol:weUSD_manager",
						"label": "gasfee",
						"offset": 0,
						"slot": "4",
						"type": "t_uint256"
					},
					{
						"astId": 1811,
						"contract": "weusd/manageusd.sol:weUSD_manager",
						"label": "feeRecipient",
						"offset": 0,
						"slot": "5",
						"type": "t_address"
					},
					{
						"astId": 1814,
						"contract": "weusd/manageusd.sol:weUSD_manager",
						"label": "activeSourceRequests",
						"offset": 0,
						"slot": "6",
						"type": "t_array(t_uint256)dyn_storage"
					},
					{
						"astId": 1817,
						"contract": "weusd/manageusd.sol:weUSD_manager",
						"label": "activeTargetRequests",
						"offset": 0,
						"slot": "7",
						"type": "t_array(t_uint256)dyn_storage"
					},
					{
						"astId": 1821,
						"contract": "weusd/manageusd.sol:weUSD_manager",
						"label": "registeredStablecoins",
						"offset": 0,
						"slot": "8",
						"type": "t_mapping(t_address,t_bool)"
					},
					{
						"astId": 1825,
						"contract": "weusd/manageusd.sol:weUSD_manager",
						"label": "usedRequestIds",
						"offset": 0,
						"slot": "9",
						"type": "t_mapping(t_uint256,t_bool)"
					},
					{
						"astId": 1830,
						"contract": "weusd/manageusd.sol:weUSD_manager",
						"label": "requests",
						"offset": 0,
						"slot": "10",
						"type": "t_mapping(t_uint256,t_struct(RequestData)1769_storage)"
					},
					{
						"astId": 1834,
						"contract": "weusd/manageusd.sol:weUSD_manager",
						"label": "requestIdToSourceActiveIndex",
						"offset": 0,
						"slot": "11",
						"type": "t_mapping(t_uint256,t_uint256)"
					},
					{
						"astId": 1838,
						"contract": "weusd/manageusd.sol:weUSD_manager",
						"label": "requestIdToTargetActiveIndex",
						"offset": 0,
						"slot": "12",
						"type": "t_mapping(t_uint256,t_uint256)"
					}
				],
				"types": {
					"t_address": {
						"encoding": "inplace",
						"label": "address",
						"numberOfBytes": "20"
					},
					"t_array(t_uint256)dyn_storage": {
						"base": "t_uint256",
						"encoding": "dynamic_array",
						"label": "uint256[]",
						"numberOfBytes": "32"
					},
					"t_bool": {
						"encoding": "inplace",
						"label": "bool",
						"numberOfBytes": "1"
					},
					"t_bytes32": {
						"encoding": "inplace",
						"label": "bytes32",
						"numberOfBytes": "32"
					},
					"t_contract(IMainContract)1731": {
						"encoding": "inplace",
						"label": "contract IMainContract",
						"numberOfBytes": "20"
					},
					"t_contract(IPicweUSD)1751": {
						"encoding": "inplace",
						"label": "contract IPicweUSD",
						"numberOfBytes": "20"
					},
					"t_mapping(t_address,t_bool)": {
						"encoding": "mapping",
						"key": "t_address",
						"label": "mapping(address => bool)",
						"numberOfBytes": "32",
						"value": "t_bool"
					},
					"t_mapping(t_bytes32,t_struct(RoleData)21_storage)": {
						"encoding": "mapping",
						"key": "t_bytes32",
						"label": "mapping(bytes32 => struct AccessControl.RoleData)",
						"numberOfBytes": "32",
						"value": "t_struct(RoleData)21_storage"
					},
					"t_mapping(t_uint256,t_bool)": {
						"encoding": "mapping",
						"key": "t_uint256",
						"label": "mapping(uint256 => bool)",
						"numberOfBytes": "32",
						"value": "t_bool"
					},
					"t_mapping(t_uint256,t_struct(RequestData)1769_storage)": {
						"encoding": "mapping",
						"key": "t_uint256",
						"label": "mapping(uint256 => struct RequestData)",
						"numberOfBytes": "32",
						"value": "t_struct(RequestData)1769_storage"
					},
					"t_mapping(t_uint256,t_uint256)": {
						"encoding": "mapping",
						"key": "t_uint256",
						"label": "mapping(uint256 => uint256)",
						"numberOfBytes": "32",
						"value": "t_uint256"
					},
					"t_struct(RequestData)1769_storage": {
						"encoding": "inplace",
						"label": "struct RequestData",
						"members": [
							{
								"astId": 1762,
								"contract": "weusd/manageusd.sol:weUSD_manager",
								"label": "requestId",
								"offset": 0,
								"slot": "0",
								"type": "t_uint256"
							},
							{
								"astId": 1764,
								"contract": "weusd/manageusd.sol:weUSD_manager",
								"label": "user",
								"offset": 0,
								"slot": "1",
								"type": "t_address"
							},
							{
								"astId": 1766,
								"contract": "weusd/manageusd.sol:weUSD_manager",
								"label": "amount",
								"offset": 0,
								"slot": "2",
								"type": "t_uint256"
							},
							{
								"astId": 1768,
								"contract": "weusd/manageusd.sol:weUSD_manager",
								"label": "isburn",
								"offset": 0,
								"slot": "3",
								"type": "t_bool"
							}
						],
						"numberOfBytes": "128"
					},
					"t_struct(RoleData)21_storage": {
						"encoding": "inplace",
						"label": "struct AccessControl.RoleData",
						"members": [
							{
								"astId": 18,
								"contract": "weusd/manageusd.sol:weUSD_manager",
								"label": "hasRole",
								"offset": 0,
								"slot": "0",
								"type": "t_mapping(t_address,t_bool)"
							},
							{
								"astId": 20,
								"contract": "weusd/manageusd.sol:weUSD_manager",
								"label": "adminRole",
								"offset": 0,
								"slot": "1",
								"type": "t_bytes32"
							}
						],
						"numberOfBytes": "64"
					},
					"t_uint256": {
						"encoding": "inplace",
						"label": "uint256",
						"numberOfBytes": "32"
					}
				}
			},
			"userdoc": {
				"kind": "user",
				"methods": {
					"burnWeUSD(address,uint256)": {
						"notice": "This function can be called by any user.The stablecoin must be registered.The weUSD amount is converted to stablecoin based on the decimal difference.A BurnedWeUSD event will be emitted after successful burning."
					},
					"burnWeUSDCrossChain(uint256,uint256,address)": {
						"notice": "This function can be called by any user when the contract is not paused.A portion of the amount is deducted as gas fee and transferred to the fee recipient.The remaining amount is burned from the sender's balance.A CrossChainBurn event is emitted after successful burning."
					},
					"deleteStablecoin(address)": {
						"notice": "This function can only be called by users with the ADMIN_ROLE.A StablecoinDeleted event will be triggered after successful deletion."
					},
					"getRequestById(uint256)": {
						"notice": "This function can be called by any addressReturns a struct with default values if the request ID doesn't exist"
					},
					"getUserSourceRequests(address,uint256,uint256)": {
						"notice": "This function can be called by any addressIf the user has no source chain requests, an empty array will be returnedIf _page or _pageSize is 0, all requests will be returned"
					},
					"getUserTargetRequests(address,uint256,uint256)": {
						"notice": "Any address can call this functionIf the user has no target chain requests, an empty array will be returnedIf _page or _pageSize is 0, all requests will be returned"
					},
					"mintWeUSD(address,uint256)": {
						"notice": "This function can be called by any user.The stablecoin must be registered.The stablecoin amount is converted to weUSD based on the decimal difference.A MintedWeUSD event will be emitted after successful minting."
					},
					"mintWeUSDCrossChain(uint256,uint256,uint256,address)": {
						"notice": "This function can only be called by addresses with the CROSS_CHAIN_MINTER_ROLE role when the contract is not pausedThe requestId must not have been used beforeThe source chain must be different from the current chainThe minting amount must be greater than 0The target user address cannot be the zero addressA CrossChainMint event will be emitted after successful minting"
					},
					"registerStablecoin(address)": {
						"notice": "This function can only be called by users with the ADMIN_ROLE.A StablecoinRegistered event will be triggered after successful registration."
					},
					"requestExists(uint256)": {
						"notice": "This function can be called by any address"
					},
					"setFeeRecipient(address)": {
						"notice": "This function can only be called by users with the ADMIN_ROLE.A FeeRecipientSet event will be triggered after successful setting."
					},
					"setGasfee(uint256)": {
						"notice": "This function can only be called by users with the ADMIN_ROLE.A GasFeeSet event will be triggered after successful setting."
					}
				},
				"version": 1
			}
		}
	}
}