{
	"weusd/weusd.sol": {
		"picwe_usd": {
			"abi": [
				{
					"inputs": [],
					"stateMutability": "payable",
					"type": "constructor"
				},
				{
					"inputs": [],
					"name": "AccessControlBadConfirmation",
					"type": "error"
				},
				{
					"inputs": [
						{
							"internalType": "address",
							"name": "account",
							"type": "address"
						},
						{
							"internalType": "bytes32",
							"name": "neededRole",
							"type": "bytes32"
						}
					],
					"name": "AccessControlUnauthorizedAccount",
					"type": "error"
				},
				{
					"inputs": [],
					"name": "ECDSAInvalidSignature",
					"type": "error"
				},
				{
					"inputs": [
						{
							"internalType": "uint256",
							"name": "length",
							"type": "uint256"
						}
					],
					"name": "ECDSAInvalidSignatureLength",
					"type": "error"
				},
				{
					"inputs": [
						{
							"internalType": "bytes32",
							"name": "s",
							"type": "bytes32"
						}
					],
					"name": "ECDSAInvalidSignatureS",
					"type": "error"
				},
				{
					"inputs": [
						{
							"internalType": "address",
							"name": "spender",
							"type": "address"
						},
						{
							"internalType": "uint256",
							"name": "allowance",
							"type": "uint256"
						},
						{
							"internalType": "uint256",
							"name": "needed",
							"type": "uint256"
						}
					],
					"name": "ERC20InsufficientAllowance",
					"type": "error"
				},
				{
					"inputs": [
						{
							"internalType": "address",
							"name": "sender",
							"type": "address"
						},
						{
							"internalType": "uint256",
							"name": "balance",
							"type": "uint256"
						},
						{
							"internalType": "uint256",
							"name": "needed",
							"type": "uint256"
						}
					],
					"name": "ERC20InsufficientBalance",
					"type": "error"
				},
				{
					"inputs": [
						{
							"internalType": "address",
							"name": "approver",
							"type": "address"
						}
					],
					"name": "ERC20InvalidApprover",
					"type": "error"
				},
				{
					"inputs": [
						{
							"internalType": "address",
							"name": "receiver",
							"type": "address"
						}
					],
					"name": "ERC20InvalidReceiver",
					"type": "error"
				},
				{
					"inputs": [
						{
							"internalType": "address",
							"name": "sender",
							"type": "address"
						}
					],
					"name": "ERC20InvalidSender",
					"type": "error"
				},
				{
					"inputs": [
						{
							"internalType": "address",
							"name": "spender",
							"type": "address"
						}
					],
					"name": "ERC20InvalidSpender",
					"type": "error"
				},
				{
					"inputs": [
						{
							"internalType": "uint256",
							"name": "deadline",
							"type": "uint256"
						}
					],
					"name": "ERC2612ExpiredSignature",
					"type": "error"
				},
				{
					"inputs": [
						{
							"internalType": "address",
							"name": "signer",
							"type": "address"
						},
						{
							"internalType": "address",
							"name": "owner",
							"type": "address"
						}
					],
					"name": "ERC2612InvalidSigner",
					"type": "error"
				},
				{
					"inputs": [],
					"name": "EnforcedPause",
					"type": "error"
				},
				{
					"inputs": [],
					"name": "ExpectedPause",
					"type": "error"
				},
				{
					"inputs": [
						{
							"internalType": "address",
							"name": "account",
							"type": "address"
						},
						{
							"internalType": "uint256",
							"name": "currentNonce",
							"type": "uint256"
						}
					],
					"name": "InvalidAccountNonce",
					"type": "error"
				},
				{
					"inputs": [],
					"name": "InvalidShortString",
					"type": "error"
				},
				{
					"inputs": [
						{
							"internalType": "string",
							"name": "str",
							"type": "string"
						}
					],
					"name": "StringTooLong",
					"type": "error"
				},
				{
					"anonymous": false,
					"inputs": [
						{
							"indexed": true,
							"internalType": "address",
							"name": "owner",
							"type": "address"
						},
						{
							"indexed": true,
							"internalType": "address",
							"name": "spender",
							"type": "address"
						},
						{
							"indexed": false,
							"internalType": "uint256",
							"name": "value",
							"type": "uint256"
						}
					],
					"name": "Approval",
					"type": "event"
				},
				{
					"anonymous": false,
					"inputs": [],
					"name": "EIP712DomainChanged",
					"type": "event"
				},
				{
					"anonymous": false,
					"inputs": [
						{
							"indexed": false,
							"internalType": "address",
							"name": "account",
							"type": "address"
						}
					],
					"name": "Paused",
					"type": "event"
				},
				{
					"anonymous": false,
					"inputs": [
						{
							"indexed": true,
							"internalType": "bytes32",
							"name": "role",
							"type": "bytes32"
						},
						{
							"indexed": true,
							"internalType": "bytes32",
							"name": "previousAdminRole",
							"type": "bytes32"
						},
						{
							"indexed": true,
							"internalType": "bytes32",
							"name": "newAdminRole",
							"type": "bytes32"
						}
					],
					"name": "RoleAdminChanged",
					"type": "event"
				},
				{
					"anonymous": false,
					"inputs": [
						{
							"indexed": true,
							"internalType": "bytes32",
							"name": "role",
							"type": "bytes32"
						},
						{
							"indexed": true,
							"internalType": "address",
							"name": "account",
							"type": "address"
						},
						{
							"indexed": true,
							"internalType": "address",
							"name": "sender",
							"type": "address"
						}
					],
					"name": "RoleGranted",
					"type": "event"
				},
				{
					"anonymous": false,
					"inputs": [
						{
							"indexed": true,
							"internalType": "bytes32",
							"name": "role",
							"type": "bytes32"
						},
						{
							"indexed": true,
							"internalType": "address",
							"name": "account",
							"type": "address"
						},
						{
							"indexed": true,
							"internalType": "address",
							"name": "sender",
							"type": "address"
						}
					],
					"name": "RoleRevoked",
					"type": "event"
				},
				{
					"anonymous": false,
					"inputs": [
						{
							"indexed": true,
							"internalType": "address",
							"name": "from",
							"type": "address"
						},
						{
							"indexed": true,
							"internalType": "address",
							"name": "to",
							"type": "address"
						},
						{
							"indexed": false,
							"internalType": "uint256",
							"name": "value",
							"type": "uint256"
						}
					],
					"name": "Transfer",
					"type": "event"
				},
				{
					"anonymous": false,
					"inputs": [
						{
							"indexed": false,
							"internalType": "address",
							"name": "account",
							"type": "address"
						}
					],
					"name": "Unpaused",
					"type": "event"
				},
				{
					"inputs": [],
					"name": "DEFAULT_ADMIN_ROLE",
					"outputs": [
						{
							"internalType": "bytes32",
							"name": "",
							"type": "bytes32"
						}
					],
					"stateMutability": "view",
					"type": "function"
				},
				{
					"inputs": [],
					"name": "DOMAIN_SEPARATOR",
					"outputs": [
						{
							"internalType": "bytes32",
							"name": "",
							"type": "bytes32"
						}
					],
					"stateMutability": "view",
					"type": "function"
				},
				{
					"inputs": [],
					"name": "MINTER_ROLE",
					"outputs": [
						{
							"internalType": "bytes32",
							"name": "",
							"type": "bytes32"
						}
					],
					"stateMutability": "view",
					"type": "function"
				},
				{
					"inputs": [],
					"name": "PAUSER_ROLE",
					"outputs": [
						{
							"internalType": "bytes32",
							"name": "",
							"type": "bytes32"
						}
					],
					"stateMutability": "view",
					"type": "function"
				},
				{
					"inputs": [
						{
							"internalType": "address",
							"name": "owner",
							"type": "address"
						},
						{
							"internalType": "address",
							"name": "spender",
							"type": "address"
						}
					],
					"name": "allowance",
					"outputs": [
						{
							"internalType": "uint256",
							"name": "",
							"type": "uint256"
						}
					],
					"stateMutability": "view",
					"type": "function"
				},
				{
					"inputs": [
						{
							"internalType": "address",
							"name": "spender",
							"type": "address"
						},
						{
							"internalType": "uint256",
							"name": "value",
							"type": "uint256"
						}
					],
					"name": "approve",
					"outputs": [
						{
							"internalType": "bool",
							"name": "",
							"type": "bool"
						}
					],
					"stateMutability": "nonpayable",
					"type": "function"
				},
				{
					"inputs": [
						{
							"internalType": "address",
							"name": "account",
							"type": "address"
						}
					],
					"name": "balanceOf",
					"outputs": [
						{
							"internalType": "uint256",
							"name": "",
							"type": "uint256"
						}
					],
					"stateMutability": "view",
					"type": "function"
				},
				{
					"inputs": [
						{
							"internalType": "uint256",
							"name": "value",
							"type": "uint256"
						}
					],
					"name": "burn",
					"outputs": [],
					"stateMutability": "nonpayable",
					"type": "function"
				},
				{
					"inputs": [
						{
							"internalType": "address",
							"name": "account",
							"type": "address"
						},
						{
							"internalType": "uint256",
							"name": "value",
							"type": "uint256"
						}
					],
					"name": "burnFrom",
					"outputs": [],
					"stateMutability": "nonpayable",
					"type": "function"
				},
				{
					"inputs": [],
					"name": "decimals",
					"outputs": [
						{
							"internalType": "uint8",
							"name": "",
							"type": "uint8"
						}
					],
					"stateMutability": "view",
					"type": "function"
				},
				{
					"inputs": [],
					"name": "eip712Domain",
					"outputs": [
						{
							"internalType": "bytes1",
							"name": "fields",
							"type": "bytes1"
						},
						{
							"internalType": "string",
							"name": "name",
							"type": "string"
						},
						{
							"internalType": "string",
							"name": "version",
							"type": "string"
						},
						{
							"internalType": "uint256",
							"name": "chainId",
							"type": "uint256"
						},
						{
							"internalType": "address",
							"name": "verifyingContract",
							"type": "address"
						},
						{
							"internalType": "bytes32",
							"name": "salt",
							"type": "bytes32"
						},
						{
							"internalType": "uint256[]",
							"name": "extensions",
							"type": "uint256[]"
						}
					],
					"stateMutability": "view",
					"type": "function"
				},
				{
					"inputs": [
						{
							"internalType": "bytes32",
							"name": "role",
							"type": "bytes32"
						}
					],
					"name": "getRoleAdmin",
					"outputs": [
						{
							"internalType": "bytes32",
							"name": "",
							"type": "bytes32"
						}
					],
					"stateMutability": "view",
					"type": "function"
				},
				{
					"inputs": [
						{
							"internalType": "bytes32",
							"name": "role",
							"type": "bytes32"
						},
						{
							"internalType": "address",
							"name": "account",
							"type": "address"
						}
					],
					"name": "grantRole",
					"outputs": [],
					"stateMutability": "nonpayable",
					"type": "function"
				},
				{
					"inputs": [
						{
							"internalType": "bytes32",
							"name": "role",
							"type": "bytes32"
						},
						{
							"internalType": "address",
							"name": "account",
							"type": "address"
						}
					],
					"name": "hasRole",
					"outputs": [
						{
							"internalType": "bool",
							"name": "",
							"type": "bool"
						}
					],
					"stateMutability": "view",
					"type": "function"
				},
				{
					"inputs": [
						{
							"internalType": "address",
							"name": "to",
							"type": "address"
						},
						{
							"internalType": "uint256",
							"name": "amount",
							"type": "uint256"
						}
					],
					"name": "mint",
					"outputs": [],
					"stateMutability": "nonpayable",
					"type": "function"
				},
				{
					"inputs": [],
					"name": "name",
					"outputs": [
						{
							"internalType": "string",
							"name": "",
							"type": "string"
						}
					],
					"stateMutability": "view",
					"type": "function"
				},
				{
					"inputs": [
						{
							"internalType": "address",
							"name": "owner",
							"type": "address"
						}
					],
					"name": "nonces",
					"outputs": [
						{
							"internalType": "uint256",
							"name": "",
							"type": "uint256"
						}
					],
					"stateMutability": "view",
					"type": "function"
				},
				{
					"inputs": [],
					"name": "pause",
					"outputs": [],
					"stateMutability": "nonpayable",
					"type": "function"
				},
				{
					"inputs": [],
					"name": "paused",
					"outputs": [
						{
							"internalType": "bool",
							"name": "",
							"type": "bool"
						}
					],
					"stateMutability": "view",
					"type": "function"
				},
				{
					"inputs": [
						{
							"internalType": "address",
							"name": "owner",
							"type": "address"
						},
						{
							"internalType": "address",
							"name": "spender",
							"type": "address"
						},
						{
							"internalType": "uint256",
							"name": "value",
							"type": "uint256"
						},
						{
							"internalType": "uint256",
							"name": "deadline",
							"type": "uint256"
						},
						{
							"internalType": "uint8",
							"name": "v",
							"type": "uint8"
						},
						{
							"internalType": "bytes32",
							"name": "r",
							"type": "bytes32"
						},
						{
							"internalType": "bytes32",
							"name": "s",
							"type": "bytes32"
						}
					],
					"name": "permit",
					"outputs": [],
					"stateMutability": "nonpayable",
					"type": "function"
				},
				{
					"inputs": [
						{
							"internalType": "bytes32",
							"name": "role",
							"type": "bytes32"
						},
						{
							"internalType": "address",
							"name": "callerConfirmation",
							"type": "address"
						}
					],
					"name": "renounceRole",
					"outputs": [],
					"stateMutability": "nonpayable",
					"type": "function"
				},
				{
					"inputs": [
						{
							"internalType": "bytes32",
							"name": "role",
							"type": "bytes32"
						},
						{
							"internalType": "address",
							"name": "account",
							"type": "address"
						}
					],
					"name": "revokeRole",
					"outputs": [],
					"stateMutability": "nonpayable",
					"type": "function"
				},
				{
					"inputs": [
						{
							"internalType": "bytes4",
							"name": "interfaceId",
							"type": "bytes4"
						}
					],
					"name": "supportsInterface",
					"outputs": [
						{
							"internalType": "bool",
							"name": "",
							"type": "bool"
						}
					],
					"stateMutability": "view",
					"type": "function"
				},
				{
					"inputs": [],
					"name": "symbol",
					"outputs": [
						{
							"internalType": "string",
							"name": "",
							"type": "string"
						}
					],
					"stateMutability": "view",
					"type": "function"
				},
				{
					"inputs": [],
					"name": "totalSupply",
					"outputs": [
						{
							"internalType": "uint256",
							"name": "",
							"type": "uint256"
						}
					],
					"stateMutability": "view",
					"type": "function"
				},
				{
					"inputs": [
						{
							"internalType": "address",
							"name": "to",
							"type": "address"
						},
						{
							"internalType": "uint256",
							"name": "value",
							"type": "uint256"
						}
					],
					"name": "transfer",
					"outputs": [
						{
							"internalType": "bool",
							"name": "",
							"type": "bool"
						}
					],
					"stateMutability": "nonpayable",
					"type": "function"
				},
				{
					"inputs": [
						{
							"internalType": "address",
							"name": "from",
							"type": "address"
						},
						{
							"internalType": "address",
							"name": "to",
							"type": "address"
						},
						{
							"internalType": "uint256",
							"name": "value",
							"type": "uint256"
						}
					],
					"name": "transferFrom",
					"outputs": [
						{
							"internalType": "bool",
							"name": "",
							"type": "bool"
						}
					],
					"stateMutability": "nonpayable",
					"type": "function"
				},
				{
					"inputs": [],
					"name": "unpause",
					"outputs": [],
					"stateMutability": "nonpayable",
					"type": "function"
				}
			],
			"devdoc": {
				"errors": {
					"AccessControlBadConfirmation()": [
						{
							"details": "The caller of a function is not the expected one. NOTE: Don't confuse with {AccessControlUnauthorizedAccount}."
						}
					],
					"AccessControlUnauthorizedAccount(address,bytes32)": [
						{
							"details": "The `account` is missing a role."
						}
					],
					"ECDSAInvalidSignature()": [
						{
							"details": "The signature derives the `address(0)`."
						}
					],
					"ECDSAInvalidSignatureLength(uint256)": [
						{
							"details": "The signature has an invalid length."
						}
					],
					"ECDSAInvalidSignatureS(bytes32)": [
						{
							"details": "The signature has an S value that is in the upper half order."
						}
					],
					"ERC20InsufficientAllowance(address,uint256,uint256)": [
						{
							"details": "Indicates a failure with the `spender`’s `allowance`. Used in transfers.",
							"params": {
								"allowance": "Amount of tokens a `spender` is allowed to operate with.",
								"needed": "Minimum amount required to perform a transfer.",
								"spender": "Address that may be allowed to operate on tokens without being their owner."
							}
						}
					],
					"ERC20InsufficientBalance(address,uint256,uint256)": [
						{
							"details": "Indicates an error related to the current `balance` of a `sender`. Used in transfers.",
							"params": {
								"balance": "Current balance for the interacting account.",
								"needed": "Minimum amount required to perform a transfer.",
								"sender": "Address whose tokens are being transferred."
							}
						}
					],
					"ERC20InvalidApprover(address)": [
						{
							"details": "Indicates a failure with the `approver` of a token to be approved. Used in approvals.",
							"params": {
								"approver": "Address initiating an approval operation."
							}
						}
					],
					"ERC20InvalidReceiver(address)": [
						{
							"details": "Indicates a failure with the token `receiver`. Used in transfers.",
							"params": {
								"receiver": "Address to which tokens are being transferred."
							}
						}
					],
					"ERC20InvalidSender(address)": [
						{
							"details": "Indicates a failure with the token `sender`. Used in transfers.",
							"params": {
								"sender": "Address whose tokens are being transferred."
							}
						}
					],
					"ERC20InvalidSpender(address)": [
						{
							"details": "Indicates a failure with the `spender` to be approved. Used in approvals.",
							"params": {
								"spender": "Address that may be allowed to operate on tokens without being their owner."
							}
						}
					],
					"ERC2612ExpiredSignature(uint256)": [
						{
							"details": "Permit deadline has expired."
						}
					],
					"ERC2612InvalidSigner(address,address)": [
						{
							"details": "Mismatched signature."
						}
					],
					"EnforcedPause()": [
						{
							"details": "The operation failed because the contract is paused."
						}
					],
					"ExpectedPause()": [
						{
							"details": "The operation failed because the contract is not paused."
						}
					],
					"InvalidAccountNonce(address,uint256)": [
						{
							"details": "The nonce used for an `account` is not the expected current nonce."
						}
					]
				},
				"events": {
					"Approval(address,address,uint256)": {
						"details": "Emitted when the allowance of a `spender` for an `owner` is set by a call to {approve}. `value` is the new allowance."
					},
					"EIP712DomainChanged()": {
						"details": "MAY be emitted to signal that the domain could have changed."
					},
					"Paused(address)": {
						"details": "Emitted when the pause is triggered by `account`."
					},
					"RoleAdminChanged(bytes32,bytes32,bytes32)": {
						"details": "Emitted when `newAdminRole` is set as ``role``'s admin role, replacing `previousAdminRole` `DEFAULT_ADMIN_ROLE` is the starting admin for all roles, despite {RoleAdminChanged} not being emitted signaling this."
					},
					"RoleGranted(bytes32,address,address)": {
						"details": "Emitted when `account` is granted `role`. `sender` is the account that originated the contract call, an admin role bearer except when using {AccessControl-_setupRole}."
					},
					"RoleRevoked(bytes32,address,address)": {
						"details": "Emitted when `account` is revoked `role`. `sender` is the account that originated the contract call:   - if using `revokeRole`, it is the admin role bearer   - if using `renounceRole`, it is the role bearer (i.e. `account`)"
					},
					"Transfer(address,address,uint256)": {
						"details": "Emitted when `value` tokens are moved from one account (`from`) to another (`to`). Note that `value` may be zero."
					},
					"Unpaused(address)": {
						"details": "Emitted when the pause is lifted by `account`."
					}
				},
				"kind": "dev",
				"methods": {
					"DOMAIN_SEPARATOR()": {
						"details": "Returns the domain separator used in the encoding of the signature for {permit}, as defined by {EIP712}."
					},
					"allowance(address,address)": {
						"details": "See {IERC20-allowance}."
					},
					"approve(address,uint256)": {
						"details": "See {IERC20-approve}. NOTE: If `value` is the maximum `uint256`, the allowance is not updated on `transferFrom`. This is semantically equivalent to an infinite approval. Requirements: - `spender` cannot be the zero address."
					},
					"balanceOf(address)": {
						"details": "See {IERC20-balanceOf}."
					},
					"burn(uint256)": {
						"details": "Destroys a `value` amount of tokens from the caller. See {ERC20-_burn}."
					},
					"burnFrom(address,uint256)": {
						"details": "Destroys a `value` amount of tokens from `account`, deducting from the caller's allowance. See {ERC20-_burn} and {ERC20-allowance}. Requirements: - the caller must have allowance for ``accounts``'s tokens of at least `value`."
					},
					"decimals()": {
						"details": "Returns the number of decimals used to get its user representation. For example, if `decimals` equals `2`, a balance of `505` tokens should be displayed to a user as `5.05` (`505 / 10 ** 2`). Tokens usually opt for a value of 18, imitating the relationship between Ether and Wei. This is the default value returned by this function, unless it's overridden. NOTE: This information is only used for _display_ purposes: it in no way affects any of the arithmetic of the contract, including {IERC20-balanceOf} and {IERC20-transfer}."
					},
					"eip712Domain()": {
						"details": "See {IERC-5267}."
					},
					"getRoleAdmin(bytes32)": {
						"details": "Returns the admin role that controls `role`. See {grantRole} and {revokeRole}. To change a role's admin, use {_setRoleAdmin}."
					},
					"grantRole(bytes32,address)": {
						"details": "Grants `role` to `account`. If `account` had not been already granted `role`, emits a {RoleGranted} event. Requirements: - the caller must have ``role``'s admin role. May emit a {RoleGranted} event."
					},
					"hasRole(bytes32,address)": {
						"details": "Returns `true` if `account` has been granted `role`."
					},
					"name()": {
						"details": "Returns the name of the token."
					},
					"nonces(address)": {
						"details": "Returns the current nonce for `owner`. This value must be included whenever a signature is generated for {permit}. Every successful call to {permit} increases ``owner``'s nonce by one. This prevents a signature from being used multiple times."
					},
					"paused()": {
						"details": "Returns true if the contract is paused, and false otherwise."
					},
					"permit(address,address,uint256,uint256,uint8,bytes32,bytes32)": {
						"details": "Sets `value` as the allowance of `spender` over ``owner``'s tokens, given ``owner``'s signed approval. IMPORTANT: The same issues {IERC20-approve} has related to transaction ordering also apply here. Emits an {Approval} event. Requirements: - `spender` cannot be the zero address. - `deadline` must be a timestamp in the future. - `v`, `r` and `s` must be a valid `secp256k1` signature from `owner` over the EIP712-formatted function arguments. - the signature must use ``owner``'s current nonce (see {nonces}). For more information on the signature format, see the https://eips.ethereum.org/EIPS/eip-2612#specification[relevant EIP section]. CAUTION: See Security Considerations above."
					},
					"renounceRole(bytes32,address)": {
						"details": "Revokes `role` from the calling account. Roles are often managed via {grantRole} and {revokeRole}: this function's purpose is to provide a mechanism for accounts to lose their privileges if they are compromised (such as when a trusted device is misplaced). If the calling account had been revoked `role`, emits a {RoleRevoked} event. Requirements: - the caller must be `callerConfirmation`. May emit a {RoleRevoked} event."
					},
					"revokeRole(bytes32,address)": {
						"details": "Revokes `role` from `account`. If `account` had been granted `role`, emits a {RoleRevoked} event. Requirements: - the caller must have ``role``'s admin role. May emit a {RoleRevoked} event."
					},
					"supportsInterface(bytes4)": {
						"details": "See {IERC165-supportsInterface}."
					},
					"symbol()": {
						"details": "Returns the symbol of the token, usually a shorter version of the name."
					},
					"totalSupply()": {
						"details": "See {IERC20-totalSupply}."
					},
					"transfer(address,uint256)": {
						"details": "See {IERC20-transfer}. Requirements: - `to` cannot be the zero address. - the caller must have a balance of at least `value`."
					},
					"transferFrom(address,address,uint256)": {
						"details": "See {IERC20-transferFrom}. Emits an {Approval} event indicating the updated allowance. This is not required by the EIP. See the note at the beginning of {ERC20}. NOTE: Does not update the allowance if the current allowance is the maximum `uint256`. Requirements: - `from` and `to` cannot be the zero address. - `from` must have a balance of at least `value`. - the caller must have allowance for ``from``'s tokens of at least `value`."
					}
				},
				"version": 1
			},
			"evm": {
				"assembly": "    /* \"@openzeppelin/contracts/token/ERC20/extensions/ERC20Permit.sol\":1574:1626  constructor(string memory name) EIP712(name, \"1\") {} */\n  0x09\n    /* \"weusd/weusd.sol\":406:1589  contract picwe_usd is ERC20, ERC20Burnable, ERC20Pausable, AccessControl, ERC20Permit {... */\n  0x0160\n    /* \"@openzeppelin/contracts/token/ERC20/extensions/ERC20Permit.sol\":1574:1626  constructor(string memory name) EIP712(name, \"1\") {} */\n  dup2\n  dup2\n  mstore\n  shl(0xba, 0x1c1a58ddd957dd5cd9)\n  0x0180\n  dup2\n  swap1\n  mstore\n    /* \"@openzeppelin/contracts/utils/cryptography/EIP712.sol\":3328:3759  constructor(string memory name, string memory version) {... */\n  0x01\n    /* \"@openzeppelin/contracts/token/ERC20/extensions/ERC20Permit.sol\":1574:1626  constructor(string memory name) EIP712(name, \"1\") {} */\n  0x01a0\n    /* \"@openzeppelin/contracts/utils/cryptography/EIP712.sol\":3328:3759  constructor(string memory name, string memory version) {... */\n  swap1\n  dup2\n  mstore\n  mstore(0x01c0, shl(0xf8, 0x31))\n  0x01e0\n    /* \"@openzeppelin/contracts/token/ERC20/ERC20.sol\":1896:2009  constructor(string memory name_, string memory symbol_) {... */\n  swap4\n  dup5\n  mstore\n  0x0200\n  swap2\n  swap1\n  swap2\n  mstore\n  0x0260\n    /* \"weusd/weusd.sol\":406:1589  contract picwe_usd is ERC20, ERC20Burnable, ERC20Pausable, AccessControl, ERC20Permit {... */\n  0x40\n    /* \"@openzeppelin/contracts/token/ERC20/ERC20.sol\":1896:2009  constructor(string memory name_, string memory symbol_) {... */\n  mstore\n  0x05\n  0x0220\n  swap1\n  dup2\n  mstore\n  mstore(0x0240, shl(0xda, 0x1dd95554d1))\n    /* \"weusd/weusd.sol\":406:1589  contract picwe_usd is ERC20, ERC20Burnable, ERC20Pausable, AccessControl, ERC20Permit {... */\n  swap2\n  swap3\n  dup4\n  swap3\n    /* \"@openzeppelin/contracts/token/ERC20/ERC20.sol\":1962:1967  _name */\n  0x03\n    /* \"@openzeppelin/contracts/token/ERC20/ERC20.sol\":1962:1975  _name = name_ */\n  tag_7\n    /* \"@openzeppelin/contracts/utils/cryptography/EIP712.sol\":3328:3759  constructor(string memory name, string memory version) {... */\n  dup4\n    /* \"@openzeppelin/contracts/token/ERC20/ERC20.sol\":1962:1967  _name */\n  dup3\n    /* \"@openzeppelin/contracts/token/ERC20/ERC20.sol\":1962:1975  _name = name_ */\n  tag_8\n  jump\t// in\ntag_7:\n  pop\n    /* \"@openzeppelin/contracts/token/ERC20/ERC20.sol\":1985:1992  _symbol */\n  0x04\n    /* \"@openzeppelin/contracts/token/ERC20/ERC20.sol\":1985:2002  _symbol = symbol_ */\n  tag_9\n    /* \"@openzeppelin/contracts/token/ERC20/ERC20.sol\":1995:2002  symbol_ */\n  dup3\n    /* \"@openzeppelin/contracts/token/ERC20/ERC20.sol\":1985:1992  _symbol */\n  dup3\n    /* \"@openzeppelin/contracts/token/ERC20/ERC20.sol\":1985:2002  _symbol = symbol_ */\n  tag_8\n  jump\t// in\ntag_9:\n  pop\n  pop\n    /* \"@openzeppelin/contracts/utils/Pausable.sol\":1231:1238  _paused */\n  0x05\n    /* \"@openzeppelin/contracts/utils/Pausable.sol\":1231:1246  _paused = false */\n  dup1\n  sload\n  not(0xff)\n  and\n  swap1\n  sstore\n  pop\n    /* \"@openzeppelin/contracts/utils/cryptography/EIP712.sol\":3401:3446  name.toShortStringWithFallback(_nameFallback) */\n  tag_12\n    /* \"@openzeppelin/contracts/utils/cryptography/EIP712.sol\":3401:3405  name */\n  dup3\n    /* \"@openzeppelin/contracts/utils/cryptography/EIP712.sol\":3432:3445  _nameFallback */\n  0x07\n    /* \"@openzeppelin/contracts/utils/cryptography/EIP712.sol\":3401:3431  name.toShortStringWithFallback */\n  tag_13\n    /* \"@openzeppelin/contracts/utils/cryptography/EIP712.sol\":3401:3446  name.toShortStringWithFallback(_nameFallback) */\n  jump\t// in\ntag_12:\n    /* \"@openzeppelin/contracts/utils/cryptography/EIP712.sol\":3393:3446  _name = name.toShortStringWithFallback(_nameFallback) */\n  0x0120\n  mstore\n    /* \"@openzeppelin/contracts/utils/cryptography/EIP712.sol\":3467:3518  version.toShortStringWithFallback(_versionFallback) */\n  tag_14\n    /* \"@openzeppelin/contracts/utils/cryptography/EIP712.sol\":3467:3474  version */\n  dup2\n    /* \"@openzeppelin/contracts/utils/cryptography/EIP712.sol\":3501:3517  _versionFallback */\n  0x08\n    /* \"@openzeppelin/contracts/utils/cryptography/EIP712.sol\":3467:3500  version.toShortStringWithFallback */\n  tag_13\n    /* \"@openzeppelin/contracts/utils/cryptography/EIP712.sol\":3467:3518  version.toShortStringWithFallback(_versionFallback) */\n  jump\t// in\ntag_14:\n    /* \"@openzeppelin/contracts/utils/cryptography/EIP712.sol\":3456:3518  _version = version.toShortStringWithFallback(_versionFallback) */\n  0x0140\n  mstore\n    /* \"@openzeppelin/contracts/utils/cryptography/EIP712.sol\":3542:3564  keccak256(bytes(name)) */\n  dup2\n  mload\n  0x20\n  dup1\n  dup5\n  add\n  swap2\n  swap1\n  swap2\n  keccak256\n    /* \"@openzeppelin/contracts/utils/cryptography/EIP712.sol\":3528:3564  _hashedName = keccak256(bytes(name)) */\n  0xe0\n  mstore\n    /* \"@openzeppelin/contracts/utils/cryptography/EIP712.sol\":3591:3616  keccak256(bytes(version)) */\n  dup2\n  mload\n  swap1\n  dup3\n  add\n  keccak256\n    /* \"@openzeppelin/contracts/utils/cryptography/EIP712.sol\":3574:3616  _hashedVersion = keccak256(bytes(version)) */\n  0x0100\n  mstore\n    /* \"@openzeppelin/contracts/utils/cryptography/EIP712.sol\":3644:3657  block.chainid */\n  chainid\n    /* \"@openzeppelin/contracts/utils/cryptography/EIP712.sol\":3627:3657  _cachedChainId = block.chainid */\n  0xa0\n  mstore\n    /* \"@openzeppelin/contracts/utils/cryptography/EIP712.sol\":3692:3715  _buildDomainSeparator() */\n  tag_15\n    /* \"@openzeppelin/contracts/utils/cryptography/EIP712.sol\":4226:4237  _hashedName */\n  mload(0xe0)\n    /* \"@openzeppelin/contracts/utils/cryptography/EIP712.sol\":4239:4253  _hashedVersion */\n  mload(0x0100)\n    /* \"@openzeppelin/contracts/utils/cryptography/EIP712.sol\":4204:4284  abi.encode(TYPE_HASH, _hashedName, _hashedVersion, block.chainid, address(this)) */\n  0x40\n  dup1\n  mload\n    /* \"@openzeppelin/contracts/utils/cryptography/EIP712.sol\":2079:2174  keccak256(\"EIP712Domain(string name,string version,uint256 chainId,address verifyingContract)\") */\n  0x8b73c3c69bb8fe3d512ecc4cf759cc79239f7b179b0ffacaa9a75d522b39400f\n    /* \"@openzeppelin/contracts/utils/cryptography/EIP712.sol\":4204:4284  abi.encode(TYPE_HASH, _hashedName, _hashedVersion, block.chainid, address(this)) */\n  0x20\n  dup3\n  add\n    /* \"#utility.yul\":2914:2939   */\n  mstore\n    /* \"#utility.yul\":2955:2973   */\n  swap1\n  dup2\n  add\n    /* \"#utility.yul\":2948:2982   */\n  swap3\n  swap1\n  swap3\n  mstore\n    /* \"#utility.yul\":2998:3016   */\n  0x60\n  dup3\n  add\n    /* \"#utility.yul\":2991:3025   */\n  mstore\n    /* \"@openzeppelin/contracts/utils/cryptography/EIP712.sol\":4255:4268  block.chainid */\n  chainid\n    /* \"#utility.yul\":3041:3059   */\n  0x80\n  dup3\n  add\n    /* \"#utility.yul\":3034:3068   */\n  mstore\n    /* \"@openzeppelin/contracts/utils/cryptography/EIP712.sol\":4278:4282  this */\n  address\n    /* \"#utility.yul\":3084:3103   */\n  0xa0\n  dup3\n  add\n    /* \"#utility.yul\":3077:3138   */\n  mstore\n    /* \"@openzeppelin/contracts/utils/cryptography/EIP712.sol\":4168:4175  bytes32 */\n  0x00\n  swap1\n    /* \"#utility.yul\":2886:2905   */\n  0xc0\n  add\n    /* \"@openzeppelin/contracts/utils/cryptography/EIP712.sol\":4204:4284  abi.encode(TYPE_HASH, _hashedName, _hashedVersion, block.chainid, address(this)) */\n  mload(0x40)\n  0x20\n  dup2\n  dup4\n  sub\n  sub\n  dup2\n  mstore\n  swap1\n  0x40\n  mstore\n    /* \"@openzeppelin/contracts/utils/cryptography/EIP712.sol\":4194:4285  keccak256(abi.encode(TYPE_HASH, _hashedName, _hashedVersion, block.chainid, address(this))) */\n  dup1\n  mload\n  swap1\n  0x20\n  add\n  keccak256\n    /* \"@openzeppelin/contracts/utils/cryptography/EIP712.sol\":4187:4285  return keccak256(abi.encode(TYPE_HASH, _hashedName, _hashedVersion, block.chainid, address(this))) */\n  swap1\n  pop\n    /* \"@openzeppelin/contracts/utils/cryptography/EIP712.sol\":4113:4292  function _buildDomainSeparator() private view returns (bytes32) {... */\n  swap1\n  jump\n    /* \"@openzeppelin/contracts/utils/cryptography/EIP712.sol\":3692:3715  _buildDomainSeparator() */\ntag_15:\n    /* \"@openzeppelin/contracts/utils/cryptography/EIP712.sol\":3667:3715  _cachedDomainSeparator = _buildDomainSeparator() */\n  0x80\n  mstore\n  pop\n  pop\n    /* \"@openzeppelin/contracts/utils/cryptography/EIP712.sol\":3747:3751  this */\n  address\n    /* \"@openzeppelin/contracts/utils/cryptography/EIP712.sol\":3725:3752  _cachedThis = address(this) */\n  0xc0\n  mstore\n  pop\n    /* \"weusd/weusd.sol\":748:790  _grantRole(DEFAULT_ADMIN_ROLE, msg.sender) */\n  tag_19\n    /* \"@openzeppelin/contracts/access/AccessControl.sol\":2232:2236  0x00 */\n  0x00\n    /* \"weusd/weusd.sol\":779:789  msg.sender */\n  caller\n    /* \"weusd/weusd.sol\":748:758  _grantRole */\n  tag_20\n    /* \"weusd/weusd.sol\":748:790  _grantRole(DEFAULT_ADMIN_ROLE, msg.sender) */\n  jump\t// in\ntag_19:\n  pop\n    /* \"weusd/weusd.sol\":801:836  _grantRole(PAUSER_ROLE, msg.sender) */\n  tag_21\n    /* \"weusd/weusd.sol\":537:561  keccak256(\"PAUSER_ROLE\") */\n  0x65d7a28e3265b37a6474929f336521b332c1681b933f6cb9f3376673440d862a\n    /* \"weusd/weusd.sol\":825:835  msg.sender */\n  caller\n    /* \"weusd/weusd.sol\":801:811  _grantRole */\n  tag_20\n    /* \"weusd/weusd.sol\":801:836  _grantRole(PAUSER_ROLE, msg.sender) */\n  jump\t// in\ntag_21:\n  pop\n    /* \"weusd/weusd.sol\":847:882  _grantRole(MINTER_ROLE, msg.sender) */\n  tag_22\n    /* \"weusd/weusd.sol\":606:630  keccak256(\"MINTER_ROLE\") */\n  0x9f2df0fed2c77648de5860a4cc508cd0818c85b8b8a1ab4ceeef8d981c8956a6\n    /* \"weusd/weusd.sol\":871:881  msg.sender */\n  caller\n    /* \"weusd/weusd.sol\":847:857  _grantRole */\n  tag_20\n    /* \"weusd/weusd.sol\":847:882  _grantRole(MINTER_ROLE, msg.sender) */\n  jump\t// in\ntag_22:\n  pop\n    /* \"weusd/weusd.sol\":406:1589  contract picwe_usd is ERC20, ERC20Burnable, ERC20Pausable, AccessControl, ERC20Permit {... */\n  jump(tag_56)\n    /* \"@openzeppelin/contracts/utils/ShortStrings.sol\":2914:3254  function toShortStringWithFallback(string memory value, string storage store) internal returns (ShortString) {... */\ntag_13:\n    /* \"@openzeppelin/contracts/utils/ShortStrings.sol\":3010:3021  ShortString */\n  0x00\n    /* \"@openzeppelin/contracts/utils/ShortStrings.sol\":3059:3061  32 */\n  0x20\n    /* \"@openzeppelin/contracts/utils/ShortStrings.sol\":3043:3048  value */\n  dup4\n    /* \"@openzeppelin/contracts/utils/ShortStrings.sol\":3037:3056  bytes(value).length */\n  mload\n    /* \"@openzeppelin/contracts/utils/ShortStrings.sol\":3037:3061  bytes(value).length < 32 */\n  lt\n    /* \"@openzeppelin/contracts/utils/ShortStrings.sol\":3033:3248  if (bytes(value).length < 32) {... */\n  iszero\n  tag_25\n  jumpi\n    /* \"@openzeppelin/contracts/utils/ShortStrings.sol\":3084:3104  toShortString(value) */\n  tag_26\n    /* \"@openzeppelin/contracts/utils/ShortStrings.sol\":3098:3103  value */\n  dup4\n    /* \"@openzeppelin/contracts/utils/ShortStrings.sol\":3084:3097  toShortString */\n  tag_27\n    /* \"@openzeppelin/contracts/utils/ShortStrings.sol\":3084:3104  toShortString(value) */\n  jump\t// in\ntag_26:\n    /* \"@openzeppelin/contracts/utils/ShortStrings.sol\":3077:3104  return toShortString(value) */\n  swap1\n  pop\n  jump(tag_28)\n    /* \"@openzeppelin/contracts/utils/ShortStrings.sol\":3033:3248  if (bytes(value).length < 32) {... */\ntag_25:\n    /* \"@openzeppelin/contracts/utils/ShortStrings.sol\":3161:3166  store */\n  dup2\n    /* \"@openzeppelin/contracts/utils/ShortStrings.sol\":3135:3181  StorageSlot.getStringSlot(store).value = value */\n  tag_31\n    /* \"@openzeppelin/contracts/utils/ShortStrings.sol\":3176:3181  value */\n  dup5\n    /* \"@openzeppelin/contracts/utils/ShortStrings.sol\":3161:3166  store */\n  dup3\n    /* \"@openzeppelin/contracts/utils/ShortStrings.sol\":3135:3181  StorageSlot.getStringSlot(store).value = value */\n  tag_8\n  jump\t// in\ntag_31:\n  pop\n    /* \"@openzeppelin/contracts/utils/ShortStrings.sol\":1390:1456  0x00000000000000000000000000000000000000000000000000000000000000FF */\n  0xff\n  swap1\n  pop\n    /* \"@openzeppelin/contracts/utils/ShortStrings.sol\":3033:3248  if (bytes(value).length < 32) {... */\ntag_28:\n    /* \"@openzeppelin/contracts/utils/ShortStrings.sol\":2914:3254  function toShortStringWithFallback(string memory value, string storage store) internal returns (ShortString) {... */\n  swap3\n  swap2\n  pop\n  pop\n  jump\t// out\n    /* \"@openzeppelin/contracts/access/AccessControl.sol\":6179:6495  function _grantRole(bytes32 role, address account) internal virtual returns (bool) {... */\ntag_20:\n    /* \"@openzeppelin/contracts/access/AccessControl.sol\":6256:6260  bool */\n  0x00\n    /* \"@openzeppelin/contracts/access/AccessControl.sol\":2954:2966  _roles[role] */\n  dup3\n  dup2\n  mstore\n    /* \"@openzeppelin/contracts/access/AccessControl.sol\":2954:2960  _roles */\n  0x06\n    /* \"@openzeppelin/contracts/access/AccessControl.sol\":2954:2966  _roles[role] */\n  0x20\n  swap1\n  dup2\n  mstore\n  0x40\n  dup1\n  dup4\n  keccak256\n  sub(shl(0xa0, 0x01), 0x01)\n    /* \"@openzeppelin/contracts/access/AccessControl.sol\":2954:2983  _roles[role].hasRole[account] */\n  dup6\n  and\n  dup5\n  mstore\n  swap1\n  swap2\n  mstore\n  dup2\n  keccak256\n  sload\n  0xff\n  and\n    /* \"@openzeppelin/contracts/access/AccessControl.sol\":6272:6489  if (!hasRole(role, account)) {... */\n  tag_38\n  jumpi\n    /* \"@openzeppelin/contracts/access/AccessControl.sol\":6315:6327  _roles[role] */\n  0x00\n  dup4\n  dup2\n  mstore\n    /* \"@openzeppelin/contracts/access/AccessControl.sol\":6315:6321  _roles */\n  0x06\n    /* \"@openzeppelin/contracts/access/AccessControl.sol\":6315:6327  _roles[role] */\n  0x20\n  swap1\n  dup2\n  mstore\n  0x40\n  dup1\n  dup4\n  keccak256\n  sub(shl(0xa0, 0x01), 0x01)\n    /* \"@openzeppelin/contracts/access/AccessControl.sol\":6315:6344  _roles[role].hasRole[account] */\n  dup7\n  and\n  dup5\n  mstore\n  swap1\n  swap2\n  mstore\n  swap1\n  keccak256\n    /* \"@openzeppelin/contracts/access/AccessControl.sol\":6315:6351  _roles[role].hasRole[account] = true */\n  dup1\n  sload\n  not(0xff)\n  and\n    /* \"@openzeppelin/contracts/access/AccessControl.sol\":6347:6351  true */\n  0x01\n    /* \"@openzeppelin/contracts/access/AccessControl.sol\":6315:6351  _roles[role].hasRole[account] = true */\n  or\n  swap1\n  sstore\n    /* \"@openzeppelin/contracts/access/AccessControl.sol\":6397:6409  _msgSender() */\n  tag_39\n    /* \"@openzeppelin/contracts/utils/Context.sol\":735:745  msg.sender */\n  caller\n  swap1\n    /* \"@openzeppelin/contracts/utils/Context.sol\":656:752  function _msgSender() internal view virtual returns (address) {... */\n  jump\n    /* \"@openzeppelin/contracts/access/AccessControl.sol\":6397:6409  _msgSender() */\ntag_39:\n  sub(shl(0xa0, 0x01), 0x01)\n    /* \"@openzeppelin/contracts/access/AccessControl.sol\":6370:6410  RoleGranted(role, account, _msgSender()) */\n  and\n    /* \"@openzeppelin/contracts/access/AccessControl.sol\":6388:6395  account */\n  dup3\n  sub(shl(0xa0, 0x01), 0x01)\n    /* \"@openzeppelin/contracts/access/AccessControl.sol\":6370:6410  RoleGranted(role, account, _msgSender()) */\n  and\n    /* \"@openzeppelin/contracts/access/AccessControl.sol\":6382:6386  role */\n  dup5\n    /* \"@openzeppelin/contracts/access/AccessControl.sol\":6370:6410  RoleGranted(role, account, _msgSender()) */\n  0x2f8788117e7eff1d82e926ec794901d17c78024a50270940304540a733656f0d\n  mload(0x40)\n  mload(0x40)\n  dup1\n  swap2\n  sub\n  swap1\n  log4\n  pop\n    /* \"@openzeppelin/contracts/access/AccessControl.sol\":6431:6435  true */\n  0x01\n    /* \"@openzeppelin/contracts/access/AccessControl.sol\":6424:6435  return true */\n  jump(tag_28)\n    /* \"@openzeppelin/contracts/access/AccessControl.sol\":6272:6489  if (!hasRole(role, account)) {... */\ntag_38:\n  pop\n    /* \"@openzeppelin/contracts/access/AccessControl.sol\":6473:6478  false */\n  0x00\n    /* \"@openzeppelin/contracts/access/AccessControl.sol\":6466:6478  return false */\n  jump(tag_28)\n    /* \"@openzeppelin/contracts/utils/ShortStrings.sol\":1708:1994  function toShortString(string memory str) internal pure returns (ShortString) {... */\ntag_27:\n    /* \"@openzeppelin/contracts/utils/ShortStrings.sol\":1773:1784  ShortString */\n  0x00\n    /* \"@openzeppelin/contracts/utils/ShortStrings.sol\":1796:1813  bytes memory bstr */\n  dup1\n    /* \"@openzeppelin/contracts/utils/ShortStrings.sol\":1822:1825  str */\n  dup3\n    /* \"@openzeppelin/contracts/utils/ShortStrings.sol\":1796:1826  bytes memory bstr = bytes(str) */\n  swap1\n  pop\n    /* \"@openzeppelin/contracts/utils/ShortStrings.sol\":1854:1856  31 */\n  0x1f\n    /* \"@openzeppelin/contracts/utils/ShortStrings.sol\":1840:1844  bstr */\n  dup2\n    /* \"@openzeppelin/contracts/utils/ShortStrings.sol\":1840:1851  bstr.length */\n  mload\n    /* \"@openzeppelin/contracts/utils/ShortStrings.sol\":1840:1856  bstr.length > 31 */\n  gt\n    /* \"@openzeppelin/contracts/utils/ShortStrings.sol\":1836:1908  if (bstr.length > 31) {... */\n  iszero\n  tag_43\n  jumpi\n    /* \"@openzeppelin/contracts/utils/ShortStrings.sol\":1893:1896  str */\n  dup3\n    /* \"@openzeppelin/contracts/utils/ShortStrings.sol\":1879:1897  StringTooLong(str) */\n  mload(0x40)\n  shl(0xe0, 0x305a27a9)\n  dup2\n  mstore\n  0x04\n  add\n  tag_44\n  swap2\n  swap1\n  tag_45\n  jump\t// in\ntag_44:\n  mload(0x40)\n  dup1\n  swap2\n  sub\n  swap1\n  revert\n    /* \"@openzeppelin/contracts/utils/ShortStrings.sol\":1836:1908  if (bstr.length > 31) {... */\ntag_43:\n    /* \"@openzeppelin/contracts/utils/ShortStrings.sol\":1974:1985  bstr.length */\n  dup1\n  mload\n    /* \"@openzeppelin/contracts/utils/ShortStrings.sol\":1957:1970  bytes32(bstr) */\n  tag_46\n    /* \"@openzeppelin/contracts/utils/ShortStrings.sol\":1974:1978  bstr */\n  dup3\n    /* \"@openzeppelin/contracts/utils/ShortStrings.sol\":1957:1970  bytes32(bstr) */\n  tag_47\n  jump\t// in\ntag_46:\n    /* \"@openzeppelin/contracts/utils/ShortStrings.sol\":1949:1985  uint256(bytes32(bstr)) | bstr.length */\n  or\n  swap4\n    /* \"@openzeppelin/contracts/utils/ShortStrings.sol\":1708:1994  function toShortString(string memory str) internal pure returns (ShortString) {... */\n  swap3\n  pop\n  pop\n  pop\n  jump\t// out\n    /* \"#utility.yul\":14:141   */\ntag_51:\n    /* \"#utility.yul\":75:85   */\n  0x4e487b71\n    /* \"#utility.yul\":70:73   */\n  0xe0\n    /* \"#utility.yul\":66:86   */\n  shl\n    /* \"#utility.yul\":63:64   */\n  0x00\n    /* \"#utility.yul\":56:87   */\n  mstore\n    /* \"#utility.yul\":106:110   */\n  0x41\n    /* \"#utility.yul\":103:104   */\n  0x04\n    /* \"#utility.yul\":96:111   */\n  mstore\n    /* \"#utility.yul\":130:134   */\n  0x24\n    /* \"#utility.yul\":127:128   */\n  0x00\n    /* \"#utility.yul\":120:135   */\n  revert\n    /* \"#utility.yul\":146:526   */\ntag_52:\n    /* \"#utility.yul\":225:226   */\n  0x01\n    /* \"#utility.yul\":221:233   */\n  dup2\n  dup2\n  shr\n  swap1\n    /* \"#utility.yul\":268:280   */\n  dup3\n  and\n  dup1\n    /* \"#utility.yul\":289:350   */\n  tag_59\n  jumpi\n    /* \"#utility.yul\":343:347   */\n  0x7f\n    /* \"#utility.yul\":335:341   */\n  dup3\n    /* \"#utility.yul\":331:348   */\n  and\n    /* \"#utility.yul\":321:348   */\n  swap2\n  pop\n    /* \"#utility.yul\":289:350   */\ntag_59:\n    /* \"#utility.yul\":396:398   */\n  0x20\n    /* \"#utility.yul\":388:394   */\n  dup3\n    /* \"#utility.yul\":385:399   */\n  lt\n    /* \"#utility.yul\":365:383   */\n  dup2\n    /* \"#utility.yul\":362:400   */\n  sub\n    /* \"#utility.yul\":359:520   */\n  tag_60\n  jumpi\n    /* \"#utility.yul\":442:452   */\n  0x4e487b71\n    /* \"#utility.yul\":437:440   */\n  0xe0\n    /* \"#utility.yul\":433:453   */\n  shl\n    /* \"#utility.yul\":430:431   */\n  0x00\n    /* \"#utility.yul\":423:454   */\n  mstore\n    /* \"#utility.yul\":477:481   */\n  0x22\n    /* \"#utility.yul\":474:475   */\n  0x04\n    /* \"#utility.yul\":467:482   */\n  mstore\n    /* \"#utility.yul\":505:509   */\n  0x24\n    /* \"#utility.yul\":502:503   */\n  0x00\n    /* \"#utility.yul\":495:510   */\n  revert\n    /* \"#utility.yul\":359:520   */\ntag_60:\n  pop\n    /* \"#utility.yul\":146:526   */\n  swap2\n  swap1\n  pop\n  jump\t// out\n    /* \"#utility.yul\":657:1175   */\ntag_54:\n    /* \"#utility.yul\":759:761   */\n  0x1f\n    /* \"#utility.yul\":754:757   */\n  dup3\n    /* \"#utility.yul\":751:762   */\n  gt\n    /* \"#utility.yul\":748:1169   */\n  iszero\n  tag_63\n  jumpi\n    /* \"#utility.yul\":795:800   */\n  dup1\n    /* \"#utility.yul\":792:793   */\n  0x00\n    /* \"#utility.yul\":785:801   */\n  mstore\n    /* \"#utility.yul\":839:843   */\n  0x20\n    /* \"#utility.yul\":836:837   */\n  0x00\n    /* \"#utility.yul\":826:844   */\n  keccak256\n    /* \"#utility.yul\":909:911   */\n  0x1f\n    /* \"#utility.yul\":897:907   */\n  dup5\n    /* \"#utility.yul\":893:912   */\n  add\n    /* \"#utility.yul\":890:891   */\n  0x05\n    /* \"#utility.yul\":886:913   */\n  shr\n    /* \"#utility.yul\":880:884   */\n  dup2\n    /* \"#utility.yul\":876:914   */\n  add\n    /* \"#utility.yul\":945:949   */\n  0x20\n    /* \"#utility.yul\":933:943   */\n  dup6\n    /* \"#utility.yul\":930:950   */\n  lt\n    /* \"#utility.yul\":927:974   */\n  iszero\n  tag_64\n  jumpi\n  pop\n    /* \"#utility.yul\":968:972   */\n  dup1\n    /* \"#utility.yul\":927:974   */\ntag_64:\n    /* \"#utility.yul\":1023:1025   */\n  0x1f\n    /* \"#utility.yul\":1018:1021   */\n  dup5\n    /* \"#utility.yul\":1014:1026   */\n  add\n    /* \"#utility.yul\":1011:1012   */\n  0x05\n    /* \"#utility.yul\":1007:1027   */\n  shr\n    /* \"#utility.yul\":1001:1005   */\n  dup3\n    /* \"#utility.yul\":997:1028   */\n  add\n    /* \"#utility.yul\":987:1028   */\n  swap2\n  pop\n    /* \"#utility.yul\":1078:1159   */\ntag_65:\n    /* \"#utility.yul\":1096:1098   */\n  dup2\n    /* \"#utility.yul\":1089:1094   */\n  dup2\n    /* \"#utility.yul\":1086:1099   */\n  lt\n    /* \"#utility.yul\":1078:1159   */\n  iszero\n  tag_67\n  jumpi\n    /* \"#utility.yul\":1155:1156   */\n  0x00\n    /* \"#utility.yul\":1141:1157   */\n  dup2\n  sstore\n    /* \"#utility.yul\":1122:1123   */\n  0x01\n    /* \"#utility.yul\":1111:1124   */\n  add\n    /* \"#utility.yul\":1078:1159   */\n  jump(tag_65)\ntag_67:\n    /* \"#utility.yul\":1082:1085   */\n  pop\n  pop\n    /* \"#utility.yul\":748:1169   */\ntag_63:\n    /* \"#utility.yul\":657:1175   */\n  pop\n  pop\n  pop\n  jump\t// out\n    /* \"#utility.yul\":1351:2650   */\ntag_8:\n    /* \"#utility.yul\":1471:1481   */\n  dup2\n  mload\n  sub(shl(0x40, 0x01), 0x01)\n    /* \"#utility.yul\":1493:1523   */\n  dup2\n  gt\n    /* \"#utility.yul\":1490:1546   */\n  iszero\n  tag_71\n  jumpi\n    /* \"#utility.yul\":1526:1544   */\n  tag_71\n  tag_51\n  jump\t// in\ntag_71:\n    /* \"#utility.yul\":1555:1652   */\n  tag_72\n    /* \"#utility.yul\":1645:1651   */\n  dup2\n    /* \"#utility.yul\":1605:1643   */\n  tag_73\n    /* \"#utility.yul\":1637:1641   */\n  dup5\n    /* \"#utility.yul\":1631:1642   */\n  sload\n    /* \"#utility.yul\":1605:1643   */\n  tag_52\n  jump\t// in\ntag_73:\n    /* \"#utility.yul\":1599:1603   */\n  dup5\n    /* \"#utility.yul\":1555:1652   */\n  tag_54\n  jump\t// in\ntag_72:\n    /* \"#utility.yul\":1701:1705   */\n  0x20\n    /* \"#utility.yul\":1732:1734   */\n  0x1f\n    /* \"#utility.yul\":1721:1735   */\n  dup3\n  gt\n    /* \"#utility.yul\":1749:1750   */\n  0x01\n    /* \"#utility.yul\":1744:2393   */\n  dup2\n  eq\n  tag_75\n  jumpi\n    /* \"#utility.yul\":2437:2438   */\n  0x00\n    /* \"#utility.yul\":2454:2460   */\n  dup4\n    /* \"#utility.yul\":2451:2540   */\n  iszero\n  tag_76\n  jumpi\n  pop\n    /* \"#utility.yul\":2506:2525   */\n  dup5\n  dup3\n  add\n    /* \"#utility.yul\":2500:2526   */\n  mload\n    /* \"#utility.yul\":2451:2540   */\ntag_76:\n  not(0x00)\n    /* \"#utility.yul\":1308:1309   */\n  0x03\n    /* \"#utility.yul\":1304:1315   */\n  dup6\n  swap1\n  shl\n    /* \"#utility.yul\":1300:1324   */\n  shr\n    /* \"#utility.yul\":1296:1325   */\n  not\n    /* \"#utility.yul\":1286:1326   */\n  and\n    /* \"#utility.yul\":1332:1333   */\n  0x01\n    /* \"#utility.yul\":1328:1339   */\n  dup5\n  swap1\n  shl\n    /* \"#utility.yul\":1283:1340   */\n  or\n    /* \"#utility.yul\":2553:2634   */\n  dup5\n  sstore\n    /* \"#utility.yul\":1714:2644   */\n  jump(tag_67)\n    /* \"#utility.yul\":1744:2393   */\ntag_75:\n    /* \"#utility.yul\":604:605   */\n  0x00\n    /* \"#utility.yul\":597:611   */\n  dup5\n  dup2\n  mstore\n    /* \"#utility.yul\":641:645   */\n  0x20\n    /* \"#utility.yul\":628:646   */\n  dup2\n  keccak256\n  not(0x1f)\n    /* \"#utility.yul\":1780:1800   */\n  dup6\n  and\n  swap2\n    /* \"#utility.yul\":1898:2120   */\ntag_79:\n    /* \"#utility.yul\":1912:1919   */\n  dup3\n    /* \"#utility.yul\":1909:1910   */\n  dup2\n    /* \"#utility.yul\":1906:1920   */\n  lt\n    /* \"#utility.yul\":1898:2120   */\n  iszero\n  tag_81\n  jumpi\n    /* \"#utility.yul\":1994:2013   */\n  dup8\n  dup6\n  add\n    /* \"#utility.yul\":1988:2014   */\n  mload\n    /* \"#utility.yul\":1973:2015   */\n  dup3\n  sstore\n    /* \"#utility.yul\":2101:2105   */\n  0x20\n    /* \"#utility.yul\":2086:2106   */\n  swap5\n  dup6\n  add\n  swap5\n    /* \"#utility.yul\":2054:2055   */\n  0x01\n    /* \"#utility.yul\":2042:2056   */\n  swap1\n  swap3\n  add\n  swap2\n    /* \"#utility.yul\":1928:1940   */\n  add\n    /* \"#utility.yul\":1898:2120   */\n  jump(tag_79)\ntag_81:\n    /* \"#utility.yul\":1902:1905   */\n  pop\n    /* \"#utility.yul\":2148:2154   */\n  dup5\n    /* \"#utility.yul\":2139:2146   */\n  dup3\n    /* \"#utility.yul\":2136:2155   */\n  lt\n    /* \"#utility.yul\":2133:2334   */\n  iszero\n  tag_82\n  jumpi\n    /* \"#utility.yul\":2209:2228   */\n  dup7\n  dup5\n  add\n    /* \"#utility.yul\":2203:2229   */\n  mload\n  not(0x00)\n    /* \"#utility.yul\":2292:2293   */\n  0x03\n    /* \"#utility.yul\":2288:2302   */\n  dup8\n  swap1\n  shl\n    /* \"#utility.yul\":2304:2307   */\n  0xf8\n    /* \"#utility.yul\":2284:2308   */\n  and\n    /* \"#utility.yul\":2280:2317   */\n  shr\n    /* \"#utility.yul\":2276:2318   */\n  not\n    /* \"#utility.yul\":2261:2319   */\n  and\n    /* \"#utility.yul\":2246:2320   */\n  dup2\n  sstore\n    /* \"#utility.yul\":2133:2334   */\ntag_82:\n  pop\n  pop\n  pop\n  pop\n    /* \"#utility.yul\":2380:2381   */\n  0x01\n    /* \"#utility.yul\":2364:2378   */\n  swap1\n  dup2\n  shl\n    /* \"#utility.yul\":2360:2382   */\n  add\n    /* \"#utility.yul\":2347:2383   */\n  swap1\n  sstore\n  pop\n    /* \"#utility.yul\":1351:2650   */\n  jump\t// out\n    /* \"#utility.yul\":3149:3567   */\ntag_45:\n    /* \"#utility.yul\":3298:3300   */\n  0x20\n    /* \"#utility.yul\":3287:3296   */\n  dup2\n    /* \"#utility.yul\":3280:3301   */\n  mstore\n    /* \"#utility.yul\":3261:3265   */\n  0x00\n    /* \"#utility.yul\":3330:3336   */\n  dup3\n    /* \"#utility.yul\":3324:3337   */\n  mload\n    /* \"#utility.yul\":3373:3379   */\n  dup1\n    /* \"#utility.yul\":3368:3370   */\n  0x20\n    /* \"#utility.yul\":3357:3366   */\n  dup5\n    /* \"#utility.yul\":3353:3371   */\n  add\n    /* \"#utility.yul\":3346:3380   */\n  mstore\n    /* \"#utility.yul\":3432:3438   */\n  dup1\n    /* \"#utility.yul\":3427:3429   */\n  0x20\n    /* \"#utility.yul\":3419:3425   */\n  dup6\n    /* \"#utility.yul\":3415:3430   */\n  add\n    /* \"#utility.yul\":3410:3412   */\n  0x40\n    /* \"#utility.yul\":3399:3408   */\n  dup6\n    /* \"#utility.yul\":3395:3413   */\n  add\n    /* \"#utility.yul\":3389:3439   */\n  mcopy\n    /* \"#utility.yul\":3488:3489   */\n  0x00\n    /* \"#utility.yul\":3483:3485   */\n  0x40\n    /* \"#utility.yul\":3474:3480   */\n  dup3\n    /* \"#utility.yul\":3463:3472   */\n  dup6\n    /* \"#utility.yul\":3459:3481   */\n  add\n    /* \"#utility.yul\":3455:3486   */\n  add\n    /* \"#utility.yul\":3448:3490   */\n  mstore\n    /* \"#utility.yul\":3558:3560   */\n  0x40\n    /* \"#utility.yul\":3551:3553   */\n  0x1f\n    /* \"#utility.yul\":3547:3554   */\n  not\n    /* \"#utility.yul\":3542:3544   */\n  0x1f\n    /* \"#utility.yul\":3534:3540   */\n  dup4\n    /* \"#utility.yul\":3530:3545   */\n  add\n    /* \"#utility.yul\":3526:3555   */\n  and\n    /* \"#utility.yul\":3515:3524   */\n  dup5\n    /* \"#utility.yul\":3511:3556   */\n  add\n    /* \"#utility.yul\":3507:3561   */\n  add\n    /* \"#utility.yul\":3499:3561   */\n  swap2\n  pop\n  pop\n    /* \"#utility.yul\":3149:3567   */\n  swap3\n  swap2\n  pop\n  pop\n  jump\t// out\n    /* \"#utility.yul\":3572:3869   */\ntag_47:\n    /* \"#utility.yul\":3690:3702   */\n  dup1\n  mload\n    /* \"#utility.yul\":3737:3741   */\n  0x20\n    /* \"#utility.yul\":3726:3742   */\n  dup1\n  dup4\n  add\n    /* \"#utility.yul\":3720:3743   */\n  mload\n  swap2\n    /* \"#utility.yul\":3690:3702   */\n  swap1\n    /* \"#utility.yul\":3755:3771   */\n  dup2\n  lt\n    /* \"#utility.yul\":3752:3863   */\n  iszero\n  tag_60\n  jumpi\n  not(0x00)\n    /* \"#utility.yul\":3829:3833   */\n  0x20\n    /* \"#utility.yul\":3825:3842   */\n  swap2\n  swap1\n  swap2\n  sub\n    /* \"#utility.yul\":3822:3823   */\n  0x03\n    /* \"#utility.yul\":3818:3843   */\n  shl\n    /* \"#utility.yul\":3814:3852   */\n  shl\n    /* \"#utility.yul\":3803:3853   */\n  and\n  swap2\n    /* \"#utility.yul\":3572:3869   */\n  swap1\n  pop\n  jump\t// out\ntag_56:\n    /* \"weusd/weusd.sol\":406:1589  contract picwe_usd is ERC20, ERC20Burnable, ERC20Pausable, AccessControl, ERC20Permit {... */\n  mload(0x80)\n  mload(0xa0)\n  mload(0xc0)\n  mload(0xe0)\n  mload(0x0100)\n  mload(0x0120)\n  mload(0x0140)\n  codecopy(0x00, dataOffset(sub_0), dataSize(sub_0))\n  0x00\n  assignImmutable(\"0x1ea09617e6de0b79eadbed418fe134a156222db3429ad9931df03270f607d73c\")\n  0x00\n  assignImmutable(\"0x0c83a86b9a421265a361141af722fd63e00869c1c139d31f31f0af421e8327ed\")\n  0x00\n  assignImmutable(\"0xeb612a51673d67072b12f494555769a94fd9bfac176cf26ad4624f7930058329\")\n  0x00\n  assignImmutable(\"0xe0e6e0a7cc974e518ec1bdc5a9728f7516ec34e9edb9d658eb9f0154eba353c8\")\n  0x00\n  assignImmutable(\"0x4800b1842441c160b255ac2245247be9ea43a575d8bea1f956efaca93a2606b8\")\n  0x00\n  assignImmutable(\"0xb48894f9dfc3e68a4746efc800bdf7af2f804119ea096b39a584a168e77eef31\")\n  0x00\n  assignImmutable(\"0x6df163a8a08abdbca6943e7873ed50fae1ac38ee30aaf01a83c488d75171af8f\")\n  return(0x00, dataSize(sub_0))\nstop\n\nsub_0: assembly {\n        /* \"weusd/weusd.sol\":406:1589  contract picwe_usd is ERC20, ERC20Burnable, ERC20Pausable, AccessControl, ERC20Permit {... */\n      mstore(0x40, 0x80)\n      callvalue\n      dup1\n      iszero\n      tag_1\n      jumpi\n      0x00\n      dup1\n      revert\n    tag_1:\n      pop\n      jumpi(tag_2, lt(calldatasize, 0x04))\n      shr(0xe0, calldataload(0x00))\n      dup1\n      0x70a08231\n      gt\n      tag_31\n      jumpi\n      dup1\n      0xa217fddf\n      gt\n      tag_32\n      jumpi\n      dup1\n      0xd5391393\n      gt\n      tag_33\n      jumpi\n      dup1\n      0xd5391393\n      eq\n      tag_27\n      jumpi\n      dup1\n      0xd547741f\n      eq\n      tag_28\n      jumpi\n      dup1\n      0xdd62ed3e\n      eq\n      tag_29\n      jumpi\n      dup1\n      0xe63ab1e9\n      eq\n      tag_30\n      jumpi\n      0x00\n      dup1\n      revert\n    tag_33:\n      dup1\n      0xa217fddf\n      eq\n      tag_24\n      jumpi\n      dup1\n      0xa9059cbb\n      eq\n      tag_25\n      jumpi\n      dup1\n      0xd505accf\n      eq\n      tag_26\n      jumpi\n      0x00\n      dup1\n      revert\n    tag_32:\n      dup1\n      0x8456cb59\n      gt\n      tag_34\n      jumpi\n      dup1\n      0x8456cb59\n      eq\n      tag_20\n      jumpi\n      dup1\n      0x84b0196e\n      eq\n      tag_21\n      jumpi\n      dup1\n      0x91d14854\n      eq\n      tag_22\n      jumpi\n      dup1\n      0x95d89b41\n      eq\n      tag_23\n      jumpi\n      0x00\n      dup1\n      revert\n    tag_34:\n      dup1\n      0x70a08231\n      eq\n      tag_17\n      jumpi\n      dup1\n      0x79cc6790\n      eq\n      tag_18\n      jumpi\n      dup1\n      0x7ecebe00\n      eq\n      tag_19\n      jumpi\n      0x00\n      dup1\n      revert\n    tag_31:\n      dup1\n      0x313ce567\n      gt\n      tag_35\n      jumpi\n      dup1\n      0x3f4ba83a\n      gt\n      tag_36\n      jumpi\n      dup1\n      0x3f4ba83a\n      eq\n      tag_13\n      jumpi\n      dup1\n      0x40c10f19\n      eq\n      tag_14\n      jumpi\n      dup1\n      0x42966c68\n      eq\n      tag_15\n      jumpi\n      dup1\n      0x5c975abb\n      eq\n      tag_16\n      jumpi\n      0x00\n      dup1\n      revert\n    tag_36:\n      dup1\n      0x313ce567\n      eq\n      tag_10\n      jumpi\n      dup1\n      0x3644e515\n      eq\n      tag_11\n      jumpi\n      dup1\n      0x36568abe\n      eq\n      tag_12\n      jumpi\n      0x00\n      dup1\n      revert\n    tag_35:\n      dup1\n      0x18160ddd\n      gt\n      tag_37\n      jumpi\n      dup1\n      0x18160ddd\n      eq\n      tag_6\n      jumpi\n      dup1\n      0x23b872dd\n      eq\n      tag_7\n      jumpi\n      dup1\n      0x248a9ca3\n      eq\n      tag_8\n      jumpi\n      dup1\n      0x2f2ff15d\n      eq\n      tag_9\n      jumpi\n      0x00\n      dup1\n      revert\n    tag_37:\n      dup1\n      0x01ffc9a7\n      eq\n      tag_3\n      jumpi\n      dup1\n      0x06fdde03\n      eq\n      tag_4\n      jumpi\n      dup1\n      0x095ea7b3\n      eq\n      tag_5\n      jumpi\n    tag_2:\n      0x00\n      dup1\n      revert\n        /* \"@openzeppelin/contracts/access/AccessControl.sol\":2565:2767  function supportsInterface(bytes4 interfaceId) public view virtual override returns (bool) {... */\n    tag_3:\n      tag_38\n      tag_39\n      calldatasize\n      0x04\n      tag_40\n      jump\t// in\n    tag_39:\n      tag_41\n      jump\t// in\n    tag_38:\n      mload(0x40)\n        /* \"#utility.yul\":470:484   */\n      swap1\n      iszero\n        /* \"#utility.yul\":463:485   */\n      iszero\n        /* \"#utility.yul\":445:486   */\n      dup2\n      mstore\n        /* \"#utility.yul\":433:435   */\n      0x20\n        /* \"#utility.yul\":418:436   */\n      add\n        /* \"@openzeppelin/contracts/access/AccessControl.sol\":2565:2767  function supportsInterface(bytes4 interfaceId) public view virtual override returns (bool) {... */\n    tag_42:\n      mload(0x40)\n      dup1\n      swap2\n      sub\n      swap1\n      return\n        /* \"@openzeppelin/contracts/token/ERC20/ERC20.sol\":2074:2163  function name() public view virtual returns (string memory) {... */\n    tag_4:\n      tag_44\n      tag_45\n      jump\t// in\n    tag_44:\n      mload(0x40)\n      tag_42\n      swap2\n      swap1\n      tag_47\n      jump\t// in\n        /* \"@openzeppelin/contracts/token/ERC20/ERC20.sol\":4293:4479  function approve(address spender, uint256 value) public virtual returns (bool) {... */\n    tag_5:\n      tag_38\n      tag_49\n      calldatasize\n      0x04\n      tag_50\n      jump\t// in\n    tag_49:\n      tag_51\n      jump\t// in\n        /* \"@openzeppelin/contracts/token/ERC20/ERC20.sol\":3144:3241  function totalSupply() public view virtual returns (uint256) {... */\n    tag_6:\n        /* \"@openzeppelin/contracts/token/ERC20/ERC20.sol\":3222:3234  _totalSupply */\n      sload(0x02)\n        /* \"@openzeppelin/contracts/token/ERC20/ERC20.sol\":3144:3241  function totalSupply() public view virtual returns (uint256) {... */\n    tag_53:\n      mload(0x40)\n        /* \"#utility.yul\":1645:1670   */\n      swap1\n      dup2\n      mstore\n        /* \"#utility.yul\":1633:1635   */\n      0x20\n        /* \"#utility.yul\":1618:1636   */\n      add\n        /* \"@openzeppelin/contracts/token/ERC20/ERC20.sol\":3144:3241  function totalSupply() public view virtual returns (uint256) {... */\n      tag_42\n        /* \"#utility.yul\":1499:1676   */\n      jump\n        /* \"@openzeppelin/contracts/token/ERC20/ERC20.sol\":5039:5283  function transferFrom(address from, address to, uint256 value) public virtual returns (bool) {... */\n    tag_7:\n      tag_38\n      tag_58\n      calldatasize\n      0x04\n      tag_59\n      jump\t// in\n    tag_58:\n      tag_60\n      jump\t// in\n        /* \"@openzeppelin/contracts/access/AccessControl.sol\":3810:3930  function getRoleAdmin(bytes32 role) public view virtual returns (bytes32) {... */\n    tag_8:\n      tag_53\n      tag_63\n      calldatasize\n      0x04\n      tag_64\n      jump\t// in\n    tag_63:\n        /* \"@openzeppelin/contracts/access/AccessControl.sol\":3875:3882  bytes32 */\n      0x00\n        /* \"@openzeppelin/contracts/access/AccessControl.sol\":3901:3913  _roles[role] */\n      swap1\n      dup2\n      mstore\n        /* \"@openzeppelin/contracts/access/AccessControl.sol\":3901:3907  _roles */\n      0x06\n        /* \"@openzeppelin/contracts/access/AccessControl.sol\":3901:3913  _roles[role] */\n      0x20\n      mstore\n      0x40\n      swap1\n      keccak256\n        /* \"@openzeppelin/contracts/access/AccessControl.sol\":3901:3923  _roles[role].adminRole */\n      0x01\n      add\n      sload\n      swap1\n        /* \"@openzeppelin/contracts/access/AccessControl.sol\":3810:3930  function getRoleAdmin(bytes32 role) public view virtual returns (bytes32) {... */\n      jump\n        /* \"@openzeppelin/contracts/access/AccessControl.sol\":4226:4362  function grantRole(bytes32 role, address account) public virtual onlyRole(getRoleAdmin(role)) {... */\n    tag_9:\n      tag_68\n      tag_69\n      calldatasize\n      0x04\n      tag_70\n      jump\t// in\n    tag_69:\n      tag_71\n      jump\t// in\n    tag_68:\n      stop\n        /* \"weusd/weusd.sol\":1494:1586  function decimals() public view virtual override returns (uint8) {... */\n    tag_10:\n      mload(0x40)\n        /* \"weusd/weusd.sol\":1577:1578  6 */\n      0x06\n        /* \"#utility.yul\":2920:2956   */\n      dup2\n      mstore\n        /* \"#utility.yul\":2908:2910   */\n      0x20\n        /* \"#utility.yul\":2893:2911   */\n      add\n        /* \"weusd/weusd.sol\":1494:1586  function decimals() public view virtual override returns (uint8) {... */\n      tag_42\n        /* \"#utility.yul\":2778:2962   */\n      jump\n        /* \"@openzeppelin/contracts/token/ERC20/extensions/ERC20Permit.sol\":2656:2768  function DOMAIN_SEPARATOR() external view virtual returns (bytes32) {... */\n    tag_11:\n      tag_53\n      tag_77\n      jump\t// in\n        /* \"@openzeppelin/contracts/access/AccessControl.sol\":5328:5573  function renounceRole(bytes32 role, address callerConfirmation) public virtual {... */\n    tag_12:\n      tag_68\n      tag_80\n      calldatasize\n      0x04\n      tag_70\n      jump\t// in\n    tag_80:\n      tag_81\n      jump\t// in\n        /* \"weusd/weusd.sol\":981:1058  function unpause() public onlyRole(PAUSER_ROLE) {... */\n    tag_13:\n      tag_68\n      tag_83\n      jump\t// in\n        /* \"weusd/weusd.sol\":1066:1173  function mint(address to, uint256 amount) public onlyRole(MINTER_ROLE) {... */\n    tag_14:\n      tag_68\n      tag_85\n      calldatasize\n      0x04\n      tag_50\n      jump\t// in\n    tag_85:\n      tag_86\n      jump\t// in\n        /* \"@openzeppelin/contracts/token/ERC20/extensions/ERC20Burnable.sol\":618:705  function burn(uint256 value) public virtual {... */\n    tag_15:\n      tag_68\n      tag_88\n      calldatasize\n      0x04\n      tag_64\n      jump\t// in\n    tag_88:\n      tag_90\n      jump\t// in\n        /* \"@openzeppelin/contracts/utils/Pausable.sol\":1850:1934  function paused() public view virtual returns (bool) {... */\n    tag_16:\n        /* \"@openzeppelin/contracts/utils/Pausable.sol\":1920:1927  _paused */\n      and(0xff, sload(0x05))\n        /* \"@openzeppelin/contracts/utils/Pausable.sol\":1850:1934  function paused() public view virtual returns (bool) {... */\n      jump(tag_38)\n        /* \"@openzeppelin/contracts/token/ERC20/ERC20.sol\":3299:3415  function balanceOf(address account) public view virtual returns (uint256) {... */\n    tag_17:\n      tag_53\n      tag_95\n      calldatasize\n      0x04\n      tag_96\n      jump\t// in\n    tag_95:\n      sub(shl(0xa0, 0x01), 0x01)\n        /* \"@openzeppelin/contracts/token/ERC20/ERC20.sol\":3390:3408  _balances[account] */\n      and\n        /* \"@openzeppelin/contracts/token/ERC20/ERC20.sol\":3364:3371  uint256 */\n      0x00\n        /* \"@openzeppelin/contracts/token/ERC20/ERC20.sol\":3390:3408  _balances[account] */\n      swap1\n      dup2\n      mstore\n      0x20\n      dup2\n      swap1\n      mstore\n      0x40\n      swap1\n      keccak256\n      sload\n      swap1\n        /* \"@openzeppelin/contracts/token/ERC20/ERC20.sol\":3299:3415  function balanceOf(address account) public view virtual returns (uint256) {... */\n      jump\n        /* \"@openzeppelin/contracts/token/ERC20/extensions/ERC20Burnable.sol\":1021:1179  function burnFrom(address account, uint256 value) public virtual {... */\n    tag_18:\n      tag_68\n      tag_100\n      calldatasize\n      0x04\n      tag_50\n      jump\t// in\n    tag_100:\n      tag_101\n      jump\t// in\n        /* \"@openzeppelin/contracts/token/ERC20/extensions/ERC20Permit.sol\":2406:2549  function nonces(address owner) public view virtual override(IERC20Permit, Nonces) returns (uint256) {... */\n    tag_19:\n      tag_53\n      tag_103\n      calldatasize\n      0x04\n      tag_96\n      jump\t// in\n    tag_103:\n      tag_104\n      jump\t// in\n        /* \"weusd/weusd.sol\":900:973  function pause() public onlyRole(PAUSER_ROLE) {... */\n    tag_20:\n      tag_68\n      tag_107\n      jump\t// in\n        /* \"@openzeppelin/contracts/utils/cryptography/EIP712.sol\":5144:5701  function eip712Domain()... */\n    tag_21:\n      tag_108\n      tag_109\n      jump\t// in\n    tag_108:\n      mload(0x40)\n      tag_42\n      swap8\n      swap7\n      swap6\n      swap5\n      swap4\n      swap3\n      swap2\n      swap1\n      tag_111\n      jump\t// in\n        /* \"@openzeppelin/contracts/access/AccessControl.sol\":2854:2990  function hasRole(bytes32 role, address account) public view virtual returns (bool) {... */\n    tag_22:\n      tag_38\n      tag_113\n      calldatasize\n      0x04\n      tag_70\n      jump\t// in\n    tag_113:\n      tag_114\n      jump\t// in\n        /* \"@openzeppelin/contracts/token/ERC20/ERC20.sol\":2276:2369  function symbol() public view virtual returns (string memory) {... */\n    tag_23:\n      tag_44\n      tag_117\n      jump\t// in\n        /* \"@openzeppelin/contracts/access/AccessControl.sol\":2187:2236  bytes32 public constant DEFAULT_ADMIN_ROLE = 0x00 */\n    tag_24:\n      tag_53\n        /* \"@openzeppelin/contracts/access/AccessControl.sol\":2232:2236  0x00 */\n      0x00\n        /* \"@openzeppelin/contracts/access/AccessControl.sol\":2187:2236  bytes32 public constant DEFAULT_ADMIN_ROLE = 0x00 */\n      dup2\n      jump\n        /* \"@openzeppelin/contracts/token/ERC20/ERC20.sol\":3610:3788  function transfer(address to, uint256 value) public virtual returns (bool) {... */\n    tag_25:\n      tag_38\n      tag_123\n      calldatasize\n      0x04\n      tag_50\n      jump\t// in\n    tag_123:\n      tag_124\n      jump\t// in\n        /* \"@openzeppelin/contracts/token/ERC20/extensions/ERC20Permit.sol\":1680:2352  function permit(... */\n    tag_26:\n      tag_68\n      tag_127\n      calldatasize\n      0x04\n      tag_128\n      jump\t// in\n    tag_127:\n      tag_129\n      jump\t// in\n        /* \"weusd/weusd.sol\":568:630  bytes32 public constant MINTER_ROLE = keccak256(\"MINTER_ROLE\") */\n    tag_27:\n      tag_53\n        /* \"weusd/weusd.sol\":606:630  keccak256(\"MINTER_ROLE\") */\n      0x9f2df0fed2c77648de5860a4cc508cd0818c85b8b8a1ab4ceeef8d981c8956a6\n        /* \"weusd/weusd.sol\":568:630  bytes32 public constant MINTER_ROLE = keccak256(\"MINTER_ROLE\") */\n      dup2\n      jump\n        /* \"@openzeppelin/contracts/access/AccessControl.sol\":4642:4780  function revokeRole(bytes32 role, address account) public virtual onlyRole(getRoleAdmin(role)) {... */\n    tag_28:\n      tag_68\n      tag_134\n      calldatasize\n      0x04\n      tag_70\n      jump\t// in\n    tag_134:\n      tag_135\n      jump\t// in\n        /* \"@openzeppelin/contracts/token/ERC20/ERC20.sol\":3846:3986  function allowance(address owner, address spender) public view virtual returns (uint256) {... */\n    tag_29:\n      tag_53\n      tag_137\n      calldatasize\n      0x04\n      tag_138\n      jump\t// in\n    tag_137:\n      sub(shl(0xa0, 0x01), 0x01)\n        /* \"@openzeppelin/contracts/token/ERC20/ERC20.sol\":3952:3970  _allowances[owner] */\n      swap2\n      dup3\n      and\n        /* \"@openzeppelin/contracts/token/ERC20/ERC20.sol\":3926:3933  uint256 */\n      0x00\n        /* \"@openzeppelin/contracts/token/ERC20/ERC20.sol\":3952:3970  _allowances[owner] */\n      swap1\n      dup2\n      mstore\n        /* \"@openzeppelin/contracts/token/ERC20/ERC20.sol\":3952:3963  _allowances */\n      0x01\n        /* \"@openzeppelin/contracts/token/ERC20/ERC20.sol\":3952:3970  _allowances[owner] */\n      0x20\n      swap1\n      dup2\n      mstore\n      0x40\n      dup1\n      dup4\n      keccak256\n        /* \"@openzeppelin/contracts/token/ERC20/ERC20.sol\":3952:3979  _allowances[owner][spender] */\n      swap4\n      swap1\n      swap5\n      and\n      dup3\n      mstore\n      swap2\n      swap1\n      swap2\n      mstore\n      keccak256\n      sload\n      swap1\n        /* \"@openzeppelin/contracts/token/ERC20/ERC20.sol\":3846:3986  function allowance(address owner, address spender) public view virtual returns (uint256) {... */\n      jump\n        /* \"weusd/weusd.sol\":499:561  bytes32 public constant PAUSER_ROLE = keccak256(\"PAUSER_ROLE\") */\n    tag_30:\n      tag_53\n        /* \"weusd/weusd.sol\":537:561  keccak256(\"PAUSER_ROLE\") */\n      0x65d7a28e3265b37a6474929f336521b332c1681b933f6cb9f3376673440d862a\n        /* \"weusd/weusd.sol\":499:561  bytes32 public constant PAUSER_ROLE = keccak256(\"PAUSER_ROLE\") */\n      dup2\n      jump\n        /* \"@openzeppelin/contracts/access/AccessControl.sol\":2565:2767  function supportsInterface(bytes4 interfaceId) public view virtual override returns (bool) {... */\n    tag_41:\n        /* \"@openzeppelin/contracts/access/AccessControl.sol\":2650:2654  bool */\n      0x00\n      not(sub(shl(0xe0, 0x01), 0x01))\n        /* \"@openzeppelin/contracts/access/AccessControl.sol\":2673:2720  interfaceId == type(IAccessControl).interfaceId */\n      dup3\n      and\n      shl(0xe0, 0x7965db0b)\n      eq\n      dup1\n        /* \"@openzeppelin/contracts/access/AccessControl.sol\":2673:2760  interfaceId == type(IAccessControl).interfaceId || super.supportsInterface(interfaceId) */\n      tag_146\n      jumpi\n      pop\n      shl(0xe0, 0x01ffc9a7)\n      not(sub(shl(0xe0, 0x01), 0x01))\n        /* \"@openzeppelin/contracts/utils/introspection/ERC165.sol\":861:901  interfaceId == type(IERC165).interfaceId */\n      dup4\n      and\n      eq\n        /* \"@openzeppelin/contracts/access/AccessControl.sol\":2724:2760  super.supportsInterface(interfaceId) */\n    tag_146:\n        /* \"@openzeppelin/contracts/access/AccessControl.sol\":2666:2760  return interfaceId == type(IAccessControl).interfaceId || super.supportsInterface(interfaceId) */\n      swap3\n        /* \"@openzeppelin/contracts/access/AccessControl.sol\":2565:2767  function supportsInterface(bytes4 interfaceId) public view virtual override returns (bool) {... */\n      swap2\n      pop\n      pop\n      jump\t// out\n        /* \"@openzeppelin/contracts/token/ERC20/ERC20.sol\":2074:2163  function name() public view virtual returns (string memory) {... */\n    tag_45:\n        /* \"@openzeppelin/contracts/token/ERC20/ERC20.sol\":2119:2132  string memory */\n      0x60\n        /* \"@openzeppelin/contracts/token/ERC20/ERC20.sol\":2151:2156  _name */\n      0x03\n        /* \"@openzeppelin/contracts/token/ERC20/ERC20.sol\":2144:2156  return _name */\n      dup1\n      sload\n      tag_149\n      swap1\n      tag_150\n      jump\t// in\n    tag_149:\n      dup1\n      0x1f\n      add\n      0x20\n      dup1\n      swap2\n      div\n      mul\n      0x20\n      add\n      mload(0x40)\n      swap1\n      dup2\n      add\n      0x40\n      mstore\n      dup1\n      swap3\n      swap2\n      swap1\n      dup2\n      dup2\n      mstore\n      0x20\n      add\n      dup3\n      dup1\n      sload\n      tag_151\n      swap1\n      tag_150\n      jump\t// in\n    tag_151:\n      dup1\n      iszero\n      tag_152\n      jumpi\n      dup1\n      0x1f\n      lt\n      tag_153\n      jumpi\n      0x0100\n      dup1\n      dup4\n      sload\n      div\n      mul\n      dup4\n      mstore\n      swap2\n      0x20\n      add\n      swap2\n      jump(tag_152)\n    tag_153:\n      dup3\n      add\n      swap2\n      swap1\n      0x00\n      mstore\n      keccak256(0x00, 0x20)\n      swap1\n    tag_154:\n      dup2\n      sload\n      dup2\n      mstore\n      swap1\n      0x01\n      add\n      swap1\n      0x20\n      add\n      dup1\n      dup4\n      gt\n      tag_154\n      jumpi\n      dup3\n      swap1\n      sub\n      0x1f\n      and\n      dup3\n      add\n      swap2\n    tag_152:\n      pop\n      pop\n      pop\n      pop\n      pop\n      swap1\n      pop\n        /* \"@openzeppelin/contracts/token/ERC20/ERC20.sol\":2074:2163  function name() public view virtual returns (string memory) {... */\n      swap1\n      jump\t// out\n        /* \"@openzeppelin/contracts/token/ERC20/ERC20.sol\":4293:4479  function approve(address spender, uint256 value) public virtual returns (bool) {... */\n    tag_51:\n        /* \"@openzeppelin/contracts/token/ERC20/ERC20.sol\":4366:4370  bool */\n      0x00\n        /* \"@openzeppelin/contracts/utils/Context.sol\":735:745  msg.sender */\n      caller\n        /* \"@openzeppelin/contracts/token/ERC20/ERC20.sol\":4420:4451  _approve(owner, spender, value) */\n      tag_158\n        /* \"@openzeppelin/contracts/utils/Context.sol\":735:745  msg.sender */\n      dup2\n        /* \"@openzeppelin/contracts/token/ERC20/ERC20.sol\":4436:4443  spender */\n      dup6\n        /* \"@openzeppelin/contracts/token/ERC20/ERC20.sol\":4445:4450  value */\n      dup6\n        /* \"@openzeppelin/contracts/token/ERC20/ERC20.sol\":4420:4428  _approve */\n      tag_159\n        /* \"@openzeppelin/contracts/token/ERC20/ERC20.sol\":4420:4451  _approve(owner, spender, value) */\n      jump\t// in\n    tag_158:\n      pop\n        /* \"@openzeppelin/contracts/token/ERC20/ERC20.sol\":4468:4472  true */\n      0x01\n      swap4\n        /* \"@openzeppelin/contracts/token/ERC20/ERC20.sol\":4293:4479  function approve(address spender, uint256 value) public virtual returns (bool) {... */\n      swap3\n      pop\n      pop\n      pop\n      jump\t// out\n        /* \"@openzeppelin/contracts/token/ERC20/ERC20.sol\":5039:5283  function transferFrom(address from, address to, uint256 value) public virtual returns (bool) {... */\n    tag_60:\n        /* \"@openzeppelin/contracts/token/ERC20/ERC20.sol\":5126:5130  bool */\n      0x00\n        /* \"@openzeppelin/contracts/utils/Context.sol\":735:745  msg.sender */\n      caller\n        /* \"@openzeppelin/contracts/token/ERC20/ERC20.sol\":5182:5219  _spendAllowance(from, spender, value) */\n      tag_163\n        /* \"@openzeppelin/contracts/token/ERC20/ERC20.sol\":5198:5202  from */\n      dup6\n        /* \"@openzeppelin/contracts/utils/Context.sol\":735:745  msg.sender */\n      dup3\n        /* \"@openzeppelin/contracts/token/ERC20/ERC20.sol\":5213:5218  value */\n      dup6\n        /* \"@openzeppelin/contracts/token/ERC20/ERC20.sol\":5182:5197  _spendAllowance */\n      tag_164\n        /* \"@openzeppelin/contracts/token/ERC20/ERC20.sol\":5182:5219  _spendAllowance(from, spender, value) */\n      jump\t// in\n    tag_163:\n        /* \"@openzeppelin/contracts/token/ERC20/ERC20.sol\":5229:5255  _transfer(from, to, value) */\n      tag_165\n        /* \"@openzeppelin/contracts/token/ERC20/ERC20.sol\":5239:5243  from */\n      dup6\n        /* \"@openzeppelin/contracts/token/ERC20/ERC20.sol\":5245:5247  to */\n      dup6\n        /* \"@openzeppelin/contracts/token/ERC20/ERC20.sol\":5249:5254  value */\n      dup6\n        /* \"@openzeppelin/contracts/token/ERC20/ERC20.sol\":5229:5238  _transfer */\n      tag_166\n        /* \"@openzeppelin/contracts/token/ERC20/ERC20.sol\":5229:5255  _transfer(from, to, value) */\n      jump\t// in\n    tag_165:\n      pop\n        /* \"@openzeppelin/contracts/token/ERC20/ERC20.sol\":5272:5276  true */\n      0x01\n      swap5\n        /* \"@openzeppelin/contracts/token/ERC20/ERC20.sol\":5039:5283  function transferFrom(address from, address to, uint256 value) public virtual returns (bool) {... */\n      swap4\n      pop\n      pop\n      pop\n      pop\n      jump\t// out\n        /* \"@openzeppelin/contracts/access/AccessControl.sol\":4226:4362  function grantRole(bytes32 role, address account) public virtual onlyRole(getRoleAdmin(role)) {... */\n    tag_71:\n        /* \"@openzeppelin/contracts/access/AccessControl.sol\":3875:3882  bytes32 */\n      0x00\n        /* \"@openzeppelin/contracts/access/AccessControl.sol\":3901:3913  _roles[role] */\n      dup3\n      dup2\n      mstore\n        /* \"@openzeppelin/contracts/access/AccessControl.sol\":3901:3907  _roles */\n      0x06\n        /* \"@openzeppelin/contracts/access/AccessControl.sol\":3901:3913  _roles[role] */\n      0x20\n      mstore\n      0x40\n      swap1\n      keccak256\n        /* \"@openzeppelin/contracts/access/AccessControl.sol\":3901:3923  _roles[role].adminRole */\n      0x01\n      add\n      sload\n        /* \"@openzeppelin/contracts/access/AccessControl.sol\":2464:2480  _checkRole(role) */\n      tag_170\n        /* \"@openzeppelin/contracts/access/AccessControl.sol\":2475:2479  role */\n      dup2\n        /* \"@openzeppelin/contracts/access/AccessControl.sol\":2464:2474  _checkRole */\n      tag_171\n        /* \"@openzeppelin/contracts/access/AccessControl.sol\":2464:2480  _checkRole(role) */\n      jump\t// in\n    tag_170:\n        /* \"@openzeppelin/contracts/access/AccessControl.sol\":4330:4355  _grantRole(role, account) */\n      tag_173\n        /* \"@openzeppelin/contracts/access/AccessControl.sol\":4341:4345  role */\n      dup4\n        /* \"@openzeppelin/contracts/access/AccessControl.sol\":4347:4354  account */\n      dup4\n        /* \"@openzeppelin/contracts/access/AccessControl.sol\":4330:4340  _grantRole */\n      tag_174\n        /* \"@openzeppelin/contracts/access/AccessControl.sol\":4330:4355  _grantRole(role, account) */\n      jump\t// in\n    tag_173:\n      pop\n        /* \"@openzeppelin/contracts/access/AccessControl.sol\":4226:4362  function grantRole(bytes32 role, address account) public virtual onlyRole(getRoleAdmin(role)) {... */\n      pop\n      pop\n      pop\n      jump\t// out\n        /* \"@openzeppelin/contracts/token/ERC20/extensions/ERC20Permit.sol\":2656:2768  function DOMAIN_SEPARATOR() external view virtual returns (bytes32) {... */\n    tag_77:\n        /* \"@openzeppelin/contracts/token/ERC20/extensions/ERC20Permit.sol\":2715:2722  bytes32 */\n      0x00\n        /* \"@openzeppelin/contracts/token/ERC20/extensions/ERC20Permit.sol\":2741:2761  _domainSeparatorV4() */\n      tag_177\n        /* \"@openzeppelin/contracts/token/ERC20/extensions/ERC20Permit.sol\":2741:2759  _domainSeparatorV4 */\n      tag_178\n        /* \"@openzeppelin/contracts/token/ERC20/extensions/ERC20Permit.sol\":2741:2761  _domainSeparatorV4() */\n      jump\t// in\n    tag_177:\n        /* \"@openzeppelin/contracts/token/ERC20/extensions/ERC20Permit.sol\":2734:2761  return _domainSeparatorV4() */\n      swap1\n      pop\n        /* \"@openzeppelin/contracts/token/ERC20/extensions/ERC20Permit.sol\":2656:2768  function DOMAIN_SEPARATOR() external view virtual returns (bytes32) {... */\n      swap1\n      jump\t// out\n        /* \"@openzeppelin/contracts/access/AccessControl.sol\":5328:5573  function renounceRole(bytes32 role, address callerConfirmation) public virtual {... */\n    tag_81:\n      sub(shl(0xa0, 0x01), 0x01)\n        /* \"@openzeppelin/contracts/access/AccessControl.sol\":5421:5455  callerConfirmation != _msgSender() */\n      dup2\n      and\n        /* \"@openzeppelin/contracts/utils/Context.sol\":735:745  msg.sender */\n      caller\n        /* \"@openzeppelin/contracts/access/AccessControl.sol\":5421:5455  callerConfirmation != _msgSender() */\n      eq\n        /* \"@openzeppelin/contracts/access/AccessControl.sol\":5417:5519  if (callerConfirmation != _msgSender()) {... */\n      tag_181\n      jumpi\n        /* \"@openzeppelin/contracts/access/AccessControl.sol\":5478:5508  AccessControlBadConfirmation() */\n      mload(0x40)\n      shl(0xe1, 0x334bd919)\n      dup2\n      mstore\n      0x04\n      add\n      mload(0x40)\n      dup1\n      swap2\n      sub\n      swap1\n      revert\n        /* \"@openzeppelin/contracts/access/AccessControl.sol\":5417:5519  if (callerConfirmation != _msgSender()) {... */\n    tag_181:\n        /* \"@openzeppelin/contracts/access/AccessControl.sol\":5529:5566  _revokeRole(role, callerConfirmation) */\n      tag_182\n        /* \"@openzeppelin/contracts/access/AccessControl.sol\":5541:5545  role */\n      dup3\n        /* \"@openzeppelin/contracts/access/AccessControl.sol\":5547:5565  callerConfirmation */\n      dup3\n        /* \"@openzeppelin/contracts/access/AccessControl.sol\":5529:5540  _revokeRole */\n      tag_183\n        /* \"@openzeppelin/contracts/access/AccessControl.sol\":5529:5566  _revokeRole(role, callerConfirmation) */\n      jump\t// in\n    tag_182:\n      pop\n        /* \"@openzeppelin/contracts/access/AccessControl.sol\":5328:5573  function renounceRole(bytes32 role, address callerConfirmation) public virtual {... */\n      pop\n      pop\n      jump\t// out\n        /* \"weusd/weusd.sol\":981:1058  function unpause() public onlyRole(PAUSER_ROLE) {... */\n    tag_83:\n        /* \"weusd/weusd.sol\":537:561  keccak256(\"PAUSER_ROLE\") */\n      0x65d7a28e3265b37a6474929f336521b332c1681b933f6cb9f3376673440d862a\n        /* \"@openzeppelin/contracts/access/AccessControl.sol\":2464:2480  _checkRole(role) */\n      tag_185\n        /* \"@openzeppelin/contracts/access/AccessControl.sol\":2475:2479  role */\n      dup2\n        /* \"@openzeppelin/contracts/access/AccessControl.sol\":2464:2474  _checkRole */\n      tag_171\n        /* \"@openzeppelin/contracts/access/AccessControl.sol\":2464:2480  _checkRole(role) */\n      jump\t// in\n    tag_185:\n        /* \"weusd/weusd.sol\":1040:1050  _unpause() */\n      tag_187\n        /* \"weusd/weusd.sol\":1040:1048  _unpause */\n      tag_188\n        /* \"weusd/weusd.sol\":1040:1050  _unpause() */\n      jump\t// in\n    tag_187:\n        /* \"weusd/weusd.sol\":981:1058  function unpause() public onlyRole(PAUSER_ROLE) {... */\n      pop\n      jump\t// out\n        /* \"weusd/weusd.sol\":1066:1173  function mint(address to, uint256 amount) public onlyRole(MINTER_ROLE) {... */\n    tag_86:\n        /* \"weusd/weusd.sol\":606:630  keccak256(\"MINTER_ROLE\") */\n      0x9f2df0fed2c77648de5860a4cc508cd0818c85b8b8a1ab4ceeef8d981c8956a6\n        /* \"@openzeppelin/contracts/access/AccessControl.sol\":2464:2480  _checkRole(role) */\n      tag_190\n        /* \"@openzeppelin/contracts/access/AccessControl.sol\":2475:2479  role */\n      dup2\n        /* \"@openzeppelin/contracts/access/AccessControl.sol\":2464:2474  _checkRole */\n      tag_171\n        /* \"@openzeppelin/contracts/access/AccessControl.sol\":2464:2480  _checkRole(role) */\n      jump\t// in\n    tag_190:\n        /* \"weusd/weusd.sol\":1148:1165  _mint(to, amount) */\n      tag_182\n        /* \"weusd/weusd.sol\":1154:1156  to */\n      dup4\n        /* \"weusd/weusd.sol\":1158:1164  amount */\n      dup4\n        /* \"weusd/weusd.sol\":1148:1153  _mint */\n      tag_193\n        /* \"weusd/weusd.sol\":1148:1165  _mint(to, amount) */\n      jump\t// in\n        /* \"@openzeppelin/contracts/token/ERC20/extensions/ERC20Burnable.sol\":618:705  function burn(uint256 value) public virtual {... */\n    tag_90:\n        /* \"@openzeppelin/contracts/token/ERC20/extensions/ERC20Burnable.sol\":672:698  _burn(_msgSender(), value) */\n      tag_187\n        /* \"@openzeppelin/contracts/utils/Context.sol\":735:745  msg.sender */\n      caller\n        /* \"@openzeppelin/contracts/token/ERC20/extensions/ERC20Burnable.sol\":692:697  value */\n      dup3\n        /* \"@openzeppelin/contracts/token/ERC20/extensions/ERC20Burnable.sol\":672:677  _burn */\n      tag_197\n        /* \"@openzeppelin/contracts/token/ERC20/extensions/ERC20Burnable.sol\":672:698  _burn(_msgSender(), value) */\n      jump\t// in\n        /* \"@openzeppelin/contracts/token/ERC20/extensions/ERC20Burnable.sol\":1021:1179  function burnFrom(address account, uint256 value) public virtual {... */\n    tag_101:\n        /* \"@openzeppelin/contracts/token/ERC20/extensions/ERC20Burnable.sol\":1096:1141  _spendAllowance(account, _msgSender(), value) */\n      tag_201\n        /* \"@openzeppelin/contracts/token/ERC20/extensions/ERC20Burnable.sol\":1112:1119  account */\n      dup3\n        /* \"@openzeppelin/contracts/utils/Context.sol\":735:745  msg.sender */\n      caller\n        /* \"@openzeppelin/contracts/token/ERC20/extensions/ERC20Burnable.sol\":1135:1140  value */\n      dup4\n        /* \"@openzeppelin/contracts/token/ERC20/extensions/ERC20Burnable.sol\":1096:1111  _spendAllowance */\n      tag_164\n        /* \"@openzeppelin/contracts/token/ERC20/extensions/ERC20Burnable.sol\":1096:1141  _spendAllowance(account, _msgSender(), value) */\n      jump\t// in\n    tag_201:\n        /* \"@openzeppelin/contracts/token/ERC20/extensions/ERC20Burnable.sol\":1151:1172  _burn(account, value) */\n      tag_203\n        /* \"@openzeppelin/contracts/token/ERC20/extensions/ERC20Burnable.sol\":1157:1164  account */\n      dup3\n        /* \"@openzeppelin/contracts/token/ERC20/extensions/ERC20Burnable.sol\":1166:1171  value */\n      dup3\n        /* \"@openzeppelin/contracts/token/ERC20/extensions/ERC20Burnable.sol\":1151:1156  _burn */\n      tag_197\n        /* \"@openzeppelin/contracts/token/ERC20/extensions/ERC20Burnable.sol\":1151:1172  _burn(account, value) */\n      jump\t// in\n    tag_203:\n        /* \"@openzeppelin/contracts/token/ERC20/extensions/ERC20Burnable.sol\":1021:1179  function burnFrom(address account, uint256 value) public virtual {... */\n      pop\n      pop\n      jump\t// out\n        /* \"@openzeppelin/contracts/token/ERC20/extensions/ERC20Permit.sol\":2406:2549  function nonces(address owner) public view virtual override(IERC20Permit, Nonces) returns (uint256) {... */\n    tag_104:\n      sub(shl(0xa0, 0x01), 0x01)\n        /* \"@openzeppelin/contracts/utils/Nonces.sol\":624:638  _nonces[owner] */\n      dup2\n      and\n        /* \"@openzeppelin/contracts/token/ERC20/extensions/ERC20Permit.sol\":2497:2504  uint256 */\n      0x00\n        /* \"@openzeppelin/contracts/utils/Nonces.sol\":624:638  _nonces[owner] */\n      swap1\n      dup2\n      mstore\n        /* \"@openzeppelin/contracts/utils/Nonces.sol\":624:631  _nonces */\n      0x09\n        /* \"@openzeppelin/contracts/utils/Nonces.sol\":624:638  _nonces[owner] */\n      0x20\n      mstore\n      0x40\n      dup2\n      keccak256\n      sload\n        /* \"@openzeppelin/contracts/token/ERC20/extensions/ERC20Permit.sol\":2523:2542  super.nonces(owner) */\n      tag_146\n        /* \"@openzeppelin/contracts/utils/Nonces.sol\":538:645  function nonces(address owner) public view virtual returns (uint256) {... */\n      jump\n        /* \"weusd/weusd.sol\":900:973  function pause() public onlyRole(PAUSER_ROLE) {... */\n    tag_107:\n        /* \"weusd/weusd.sol\":537:561  keccak256(\"PAUSER_ROLE\") */\n      0x65d7a28e3265b37a6474929f336521b332c1681b933f6cb9f3376673440d862a\n        /* \"@openzeppelin/contracts/access/AccessControl.sol\":2464:2480  _checkRole(role) */\n      tag_208\n        /* \"@openzeppelin/contracts/access/AccessControl.sol\":2475:2479  role */\n      dup2\n        /* \"@openzeppelin/contracts/access/AccessControl.sol\":2464:2474  _checkRole */\n      tag_171\n        /* \"@openzeppelin/contracts/access/AccessControl.sol\":2464:2480  _checkRole(role) */\n      jump\t// in\n    tag_208:\n        /* \"weusd/weusd.sol\":957:965  _pause() */\n      tag_187\n        /* \"weusd/weusd.sol\":957:963  _pause */\n      tag_211\n        /* \"weusd/weusd.sol\":957:965  _pause() */\n      jump\t// in\n        /* \"@openzeppelin/contracts/utils/cryptography/EIP712.sol\":5144:5701  function eip712Domain()... */\n    tag_109:\n        /* \"@openzeppelin/contracts/utils/cryptography/EIP712.sol\":5242:5255  bytes1 fields */\n      0x00\n        /* \"@openzeppelin/contracts/utils/cryptography/EIP712.sol\":5269:5287  string memory name */\n      0x60\n        /* \"@openzeppelin/contracts/utils/cryptography/EIP712.sol\":5301:5322  string memory version */\n      dup1\n        /* \"@openzeppelin/contracts/utils/cryptography/EIP712.sol\":5336:5351  uint256 chainId */\n      0x00\n        /* \"@openzeppelin/contracts/utils/cryptography/EIP712.sol\":5365:5390  address verifyingContract */\n      dup1\n        /* \"@openzeppelin/contracts/utils/cryptography/EIP712.sol\":5404:5416  bytes32 salt */\n      0x00\n        /* \"@openzeppelin/contracts/utils/cryptography/EIP712.sol\":5430:5457  uint256[] memory extensions */\n      0x60\n        /* \"@openzeppelin/contracts/utils/cryptography/EIP712.sol\":5533:5546  _EIP712Name() */\n      tag_213\n        /* \"@openzeppelin/contracts/utils/cryptography/EIP712.sol\":5533:5544  _EIP712Name */\n      tag_214\n        /* \"@openzeppelin/contracts/utils/cryptography/EIP712.sol\":5533:5546  _EIP712Name() */\n      jump\t// in\n    tag_213:\n        /* \"@openzeppelin/contracts/utils/cryptography/EIP712.sol\":5560:5576  _EIP712Version() */\n      tag_215\n        /* \"@openzeppelin/contracts/utils/cryptography/EIP712.sol\":5560:5574  _EIP712Version */\n      tag_216\n        /* \"@openzeppelin/contracts/utils/cryptography/EIP712.sol\":5560:5576  _EIP712Version() */\n      jump\t// in\n    tag_215:\n        /* \"@openzeppelin/contracts/utils/cryptography/EIP712.sol\":5668:5684  new uint256[](0) */\n      0x40\n      dup1\n      mload\n        /* \"@openzeppelin/contracts/utils/cryptography/EIP712.sol\":5652:5653  0 */\n      0x00\n        /* \"@openzeppelin/contracts/utils/cryptography/EIP712.sol\":5668:5684  new uint256[](0) */\n      dup1\n      dup3\n      mstore\n      0x20\n      dup3\n      add\n      swap1\n      swap3\n      mstore\n      shl(0xf8, 0x0f)\n        /* \"@openzeppelin/contracts/utils/cryptography/EIP712.sol\":5482:5694  return (... */\n      swap12\n      swap4\n      swap11\n      pop\n      swap2\n      swap9\n      pop\n        /* \"@openzeppelin/contracts/utils/cryptography/EIP712.sol\":5590:5603  block.chainid */\n      chainid\n      swap8\n      pop\n        /* \"@openzeppelin/contracts/utils/cryptography/EIP712.sol\":5625:5629  this */\n      address\n      swap7\n      pop\n        /* \"@openzeppelin/contracts/utils/cryptography/EIP712.sol\":5652:5653  0 */\n      swap5\n      pop\n        /* \"@openzeppelin/contracts/utils/cryptography/EIP712.sol\":5668:5684  new uint256[](0) */\n      swap3\n      pop\n        /* \"@openzeppelin/contracts/utils/cryptography/EIP712.sol\":5482:5694  return (... */\n      swap1\n      pop\n        /* \"@openzeppelin/contracts/utils/cryptography/EIP712.sol\":5144:5701  function eip712Domain()... */\n      jump\t// out\n        /* \"@openzeppelin/contracts/access/AccessControl.sol\":2854:2990  function hasRole(bytes32 role, address account) public view virtual returns (bool) {... */\n    tag_114:\n        /* \"@openzeppelin/contracts/access/AccessControl.sol\":2931:2935  bool */\n      0x00\n        /* \"@openzeppelin/contracts/access/AccessControl.sol\":2954:2966  _roles[role] */\n      swap2\n      dup3\n      mstore\n        /* \"@openzeppelin/contracts/access/AccessControl.sol\":2954:2960  _roles */\n      0x06\n        /* \"@openzeppelin/contracts/access/AccessControl.sol\":2954:2966  _roles[role] */\n      0x20\n      swap1\n      dup2\n      mstore\n      0x40\n      dup1\n      dup5\n      keccak256\n      sub(shl(0xa0, 0x01), 0x01)\n        /* \"@openzeppelin/contracts/access/AccessControl.sol\":2954:2983  _roles[role].hasRole[account] */\n      swap4\n      swap1\n      swap4\n      and\n      dup5\n      mstore\n      swap2\n      swap1\n      mstore\n      swap1\n      keccak256\n      sload\n      0xff\n      and\n      swap1\n        /* \"@openzeppelin/contracts/access/AccessControl.sol\":2854:2990  function hasRole(bytes32 role, address account) public view virtual returns (bool) {... */\n      jump\t// out\n        /* \"@openzeppelin/contracts/token/ERC20/ERC20.sol\":2276:2369  function symbol() public view virtual returns (string memory) {... */\n    tag_117:\n        /* \"@openzeppelin/contracts/token/ERC20/ERC20.sol\":2323:2336  string memory */\n      0x60\n        /* \"@openzeppelin/contracts/token/ERC20/ERC20.sol\":2355:2362  _symbol */\n      0x04\n        /* \"@openzeppelin/contracts/token/ERC20/ERC20.sol\":2348:2362  return _symbol */\n      dup1\n      sload\n      tag_149\n      swap1\n      tag_150\n      jump\t// in\n        /* \"@openzeppelin/contracts/token/ERC20/ERC20.sol\":3610:3788  function transfer(address to, uint256 value) public virtual returns (bool) {... */\n    tag_124:\n        /* \"@openzeppelin/contracts/token/ERC20/ERC20.sol\":3679:3683  bool */\n      0x00\n        /* \"@openzeppelin/contracts/utils/Context.sol\":735:745  msg.sender */\n      caller\n        /* \"@openzeppelin/contracts/token/ERC20/ERC20.sol\":3733:3760  _transfer(owner, to, value) */\n      tag_158\n        /* \"@openzeppelin/contracts/utils/Context.sol\":735:745  msg.sender */\n      dup2\n        /* \"@openzeppelin/contracts/token/ERC20/ERC20.sol\":3750:3752  to */\n      dup6\n        /* \"@openzeppelin/contracts/token/ERC20/ERC20.sol\":3754:3759  value */\n      dup6\n        /* \"@openzeppelin/contracts/token/ERC20/ERC20.sol\":3733:3742  _transfer */\n      tag_166\n        /* \"@openzeppelin/contracts/token/ERC20/ERC20.sol\":3733:3760  _transfer(owner, to, value) */\n      jump\t// in\n        /* \"@openzeppelin/contracts/token/ERC20/extensions/ERC20Permit.sol\":1680:2352  function permit(... */\n    tag_129:\n        /* \"@openzeppelin/contracts/token/ERC20/extensions/ERC20Permit.sol\":1901:1909  deadline */\n      dup4\n        /* \"@openzeppelin/contracts/token/ERC20/extensions/ERC20Permit.sol\":1883:1898  block.timestamp */\n      timestamp\n        /* \"@openzeppelin/contracts/token/ERC20/extensions/ERC20Permit.sol\":1883:1909  block.timestamp > deadline */\n      gt\n        /* \"@openzeppelin/contracts/token/ERC20/extensions/ERC20Permit.sol\":1879:1976  if (block.timestamp > deadline) {... */\n      iszero\n      tag_232\n      jumpi\n        /* \"@openzeppelin/contracts/token/ERC20/extensions/ERC20Permit.sol\":1932:1965  ERC2612ExpiredSignature(deadline) */\n      mload(0x40)\n      shl(0xe1, 0x313c8981)\n      dup2\n      mstore\n      0x04\n      dup2\n      add\n        /* \"#utility.yul\":1645:1670   */\n      dup6\n      swap1\n      mstore\n        /* \"#utility.yul\":1618:1636   */\n      0x24\n      add\n        /* \"@openzeppelin/contracts/token/ERC20/extensions/ERC20Permit.sol\":1932:1965  ERC2612ExpiredSignature(deadline) */\n    tag_233:\n      mload(0x40)\n      dup1\n      swap2\n      sub\n      swap1\n      revert\n        /* \"@openzeppelin/contracts/token/ERC20/extensions/ERC20Permit.sol\":1879:1976  if (block.timestamp > deadline) {... */\n    tag_232:\n        /* \"@openzeppelin/contracts/token/ERC20/extensions/ERC20Permit.sol\":1986:2004  bytes32 structHash */\n      0x00\n        /* \"@openzeppelin/contracts/token/ERC20/extensions/ERC20Permit.sol\":1022:1117  keccak256(\"Permit(address owner,address spender,uint256 value,uint256 nonce,uint256 deadline)\") */\n      0x6e71edae12b1b97f4d1f60370fef10105fa2faae0126114a169c64845d6126c9\n        /* \"@openzeppelin/contracts/token/ERC20/extensions/ERC20Permit.sol\":2045:2050  owner */\n      dup9\n        /* \"@openzeppelin/contracts/token/ERC20/extensions/ERC20Permit.sol\":2052:2059  spender */\n      dup9\n        /* \"@openzeppelin/contracts/token/ERC20/extensions/ERC20Permit.sol\":2061:2066  value */\n      dup9\n        /* \"@openzeppelin/contracts/token/ERC20/extensions/ERC20Permit.sol\":2068:2084  _useNonce(owner) */\n      tag_234\n        /* \"@openzeppelin/contracts/token/ERC20/extensions/ERC20Permit.sol\":2078:2083  owner */\n      dup13\n      sub(shl(0xa0, 0x01), 0x01)\n        /* \"@openzeppelin/contracts/utils/Nonces.sol\":1121:1135  _nonces[owner] */\n      and\n        /* \"@openzeppelin/contracts/utils/Nonces.sol\":819:826  uint256 */\n      0x00\n        /* \"@openzeppelin/contracts/utils/Nonces.sol\":1121:1135  _nonces[owner] */\n      swap1\n      dup2\n      mstore\n        /* \"@openzeppelin/contracts/utils/Nonces.sol\":1121:1128  _nonces */\n      0x09\n        /* \"@openzeppelin/contracts/utils/Nonces.sol\":1121:1135  _nonces[owner] */\n      0x20\n      mstore\n      0x40\n      swap1\n      keccak256\n        /* \"@openzeppelin/contracts/utils/Nonces.sol\":1121:1137  _nonces[owner]++ */\n      dup1\n      sload\n      0x01\n      dup2\n      add\n      swap1\n      swap2\n      sstore\n      swap1\n        /* \"@openzeppelin/contracts/utils/Nonces.sol\":759:1154  function _useNonce(address owner) internal virtual returns (uint256) {... */\n      jump\n        /* \"@openzeppelin/contracts/token/ERC20/extensions/ERC20Permit.sol\":2068:2084  _useNonce(owner) */\n    tag_234:\n        /* \"@openzeppelin/contracts/token/ERC20/extensions/ERC20Permit.sol\":2017:2095  abi.encode(PERMIT_TYPEHASH, owner, spender, value, _useNonce(owner), deadline) */\n      0x40\n      dup1\n      mload\n      0x20\n      dup2\n      add\n        /* \"#utility.yul\":6609:6634   */\n      swap7\n      swap1\n      swap7\n      mstore\n      sub(shl(0xa0, 0x01), 0x01)\n        /* \"#utility.yul\":6670:6702   */\n      swap5\n      dup6\n      and\n        /* \"#utility.yul\":6650:6668   */\n      swap1\n      dup7\n      add\n        /* \"#utility.yul\":6643:6703   */\n      mstore\n        /* \"#utility.yul\":6739:6771   */\n      swap3\n      swap1\n      swap2\n      and\n        /* \"#utility.yul\":6719:6737   */\n      0x60\n      dup5\n      add\n        /* \"#utility.yul\":6712:6772   */\n      mstore\n        /* \"#utility.yul\":6788:6806   */\n      0x80\n      dup4\n      add\n        /* \"#utility.yul\":6781:6815   */\n      mstore\n        /* \"#utility.yul\":6831:6850   */\n      0xa0\n      dup3\n      add\n        /* \"#utility.yul\":6824:6859   */\n      mstore\n        /* \"#utility.yul\":6875:6894   */\n      0xc0\n      dup2\n      add\n        /* \"#utility.yul\":6868:6903   */\n      dup7\n      swap1\n      mstore\n        /* \"#utility.yul\":6581:6600   */\n      0xe0\n      add\n        /* \"@openzeppelin/contracts/token/ERC20/extensions/ERC20Permit.sol\":2017:2095  abi.encode(PERMIT_TYPEHASH, owner, spender, value, _useNonce(owner), deadline) */\n      mload(0x40)\n      0x20\n      dup2\n      dup4\n      sub\n      sub\n      dup2\n      mstore\n      swap1\n      0x40\n      mstore\n        /* \"@openzeppelin/contracts/token/ERC20/extensions/ERC20Permit.sol\":2007:2096  keccak256(abi.encode(PERMIT_TYPEHASH, owner, spender, value, _useNonce(owner), deadline)) */\n      dup1\n      mload\n      swap1\n      0x20\n      add\n      keccak256\n        /* \"@openzeppelin/contracts/token/ERC20/extensions/ERC20Permit.sol\":1986:2096  bytes32 structHash = keccak256(abi.encode(PERMIT_TYPEHASH, owner, spender, value, _useNonce(owner), deadline)) */\n      swap1\n      pop\n        /* \"@openzeppelin/contracts/token/ERC20/extensions/ERC20Permit.sol\":2107:2119  bytes32 hash */\n      0x00\n        /* \"@openzeppelin/contracts/token/ERC20/extensions/ERC20Permit.sol\":2122:2150  _hashTypedDataV4(structHash) */\n      tag_238\n        /* \"@openzeppelin/contracts/token/ERC20/extensions/ERC20Permit.sol\":2139:2149  structHash */\n      dup3\n        /* \"@openzeppelin/contracts/token/ERC20/extensions/ERC20Permit.sol\":2122:2138  _hashTypedDataV4 */\n      tag_239\n        /* \"@openzeppelin/contracts/token/ERC20/extensions/ERC20Permit.sol\":2122:2150  _hashTypedDataV4(structHash) */\n      jump\t// in\n    tag_238:\n        /* \"@openzeppelin/contracts/token/ERC20/extensions/ERC20Permit.sol\":2107:2150  bytes32 hash = _hashTypedDataV4(structHash) */\n      swap1\n      pop\n        /* \"@openzeppelin/contracts/token/ERC20/extensions/ERC20Permit.sol\":2161:2175  address signer */\n      0x00\n        /* \"@openzeppelin/contracts/token/ERC20/extensions/ERC20Permit.sol\":2178:2206  ECDSA.recover(hash, v, r, s) */\n      tag_240\n        /* \"@openzeppelin/contracts/token/ERC20/extensions/ERC20Permit.sol\":2192:2196  hash */\n      dup3\n        /* \"@openzeppelin/contracts/token/ERC20/extensions/ERC20Permit.sol\":2198:2199  v */\n      dup8\n        /* \"@openzeppelin/contracts/token/ERC20/extensions/ERC20Permit.sol\":2201:2202  r */\n      dup8\n        /* \"@openzeppelin/contracts/token/ERC20/extensions/ERC20Permit.sol\":2204:2205  s */\n      dup8\n        /* \"@openzeppelin/contracts/token/ERC20/extensions/ERC20Permit.sol\":2178:2191  ECDSA.recover */\n      tag_241\n        /* \"@openzeppelin/contracts/token/ERC20/extensions/ERC20Permit.sol\":2178:2206  ECDSA.recover(hash, v, r, s) */\n      jump\t// in\n    tag_240:\n        /* \"@openzeppelin/contracts/token/ERC20/extensions/ERC20Permit.sol\":2161:2206  address signer = ECDSA.recover(hash, v, r, s) */\n      swap1\n      pop\n        /* \"@openzeppelin/contracts/token/ERC20/extensions/ERC20Permit.sol\":2230:2235  owner */\n      dup10\n      sub(shl(0xa0, 0x01), 0x01)\n        /* \"@openzeppelin/contracts/token/ERC20/extensions/ERC20Permit.sol\":2220:2235  signer != owner */\n      and\n        /* \"@openzeppelin/contracts/token/ERC20/extensions/ERC20Permit.sol\":2220:2226  signer */\n      dup2\n      sub(shl(0xa0, 0x01), 0x01)\n        /* \"@openzeppelin/contracts/token/ERC20/extensions/ERC20Permit.sol\":2220:2235  signer != owner */\n      and\n      eq\n        /* \"@openzeppelin/contracts/token/ERC20/extensions/ERC20Permit.sol\":2216:2304  if (signer != owner) {... */\n      tag_242\n      jumpi\n        /* \"@openzeppelin/contracts/token/ERC20/extensions/ERC20Permit.sol\":2258:2293  ERC2612InvalidSigner(signer, owner) */\n      mload(0x40)\n      shl(0xe1, 0x25c00723)\n      dup2\n      mstore\n      sub(shl(0xa0, 0x01), 0x01)\n        /* \"#utility.yul\":7106:7138   */\n      dup1\n      dup4\n      and\n        /* \"@openzeppelin/contracts/token/ERC20/extensions/ERC20Permit.sol\":2258:2293  ERC2612InvalidSigner(signer, owner) */\n      0x04\n      dup4\n      add\n        /* \"#utility.yul\":7088:7139   */\n      mstore\n        /* \"#utility.yul\":7175:7207   */\n      dup12\n      and\n        /* \"#utility.yul\":7155:7173   */\n      0x24\n      dup3\n      add\n        /* \"#utility.yul\":7148:7208   */\n      mstore\n        /* \"#utility.yul\":7061:7079   */\n      0x44\n      add\n        /* \"@openzeppelin/contracts/token/ERC20/extensions/ERC20Permit.sol\":2258:2293  ERC2612InvalidSigner(signer, owner) */\n      tag_233\n        /* \"#utility.yul\":6914:7214   */\n      jump\n        /* \"@openzeppelin/contracts/token/ERC20/extensions/ERC20Permit.sol\":2216:2304  if (signer != owner) {... */\n    tag_242:\n        /* \"@openzeppelin/contracts/token/ERC20/extensions/ERC20Permit.sol\":2314:2345  _approve(owner, spender, value) */\n      tag_245\n        /* \"@openzeppelin/contracts/token/ERC20/extensions/ERC20Permit.sol\":2323:2328  owner */\n      dup11\n        /* \"@openzeppelin/contracts/token/ERC20/extensions/ERC20Permit.sol\":2330:2337  spender */\n      dup11\n        /* \"@openzeppelin/contracts/token/ERC20/extensions/ERC20Permit.sol\":2339:2344  value */\n      dup11\n        /* \"@openzeppelin/contracts/token/ERC20/extensions/ERC20Permit.sol\":2314:2322  _approve */\n      tag_159\n        /* \"@openzeppelin/contracts/token/ERC20/extensions/ERC20Permit.sol\":2314:2345  _approve(owner, spender, value) */\n      jump\t// in\n    tag_245:\n        /* \"@openzeppelin/contracts/token/ERC20/extensions/ERC20Permit.sol\":1869:2352  {... */\n      pop\n      pop\n      pop\n        /* \"@openzeppelin/contracts/token/ERC20/extensions/ERC20Permit.sol\":1680:2352  function permit(... */\n      pop\n      pop\n      pop\n      pop\n      pop\n      pop\n      pop\n      jump\t// out\n        /* \"@openzeppelin/contracts/access/AccessControl.sol\":4642:4780  function revokeRole(bytes32 role, address account) public virtual onlyRole(getRoleAdmin(role)) {... */\n    tag_135:\n        /* \"@openzeppelin/contracts/access/AccessControl.sol\":3875:3882  bytes32 */\n      0x00\n        /* \"@openzeppelin/contracts/access/AccessControl.sol\":3901:3913  _roles[role] */\n      dup3\n      dup2\n      mstore\n        /* \"@openzeppelin/contracts/access/AccessControl.sol\":3901:3907  _roles */\n      0x06\n        /* \"@openzeppelin/contracts/access/AccessControl.sol\":3901:3913  _roles[role] */\n      0x20\n      mstore\n      0x40\n      swap1\n      keccak256\n        /* \"@openzeppelin/contracts/access/AccessControl.sol\":3901:3923  _roles[role].adminRole */\n      0x01\n      add\n      sload\n        /* \"@openzeppelin/contracts/access/AccessControl.sol\":2464:2480  _checkRole(role) */\n      tag_248\n        /* \"@openzeppelin/contracts/access/AccessControl.sol\":2475:2479  role */\n      dup2\n        /* \"@openzeppelin/contracts/access/AccessControl.sol\":2464:2474  _checkRole */\n      tag_171\n        /* \"@openzeppelin/contracts/access/AccessControl.sol\":2464:2480  _checkRole(role) */\n      jump\t// in\n    tag_248:\n        /* \"@openzeppelin/contracts/access/AccessControl.sol\":4747:4773  _revokeRole(role, account) */\n      tag_173\n        /* \"@openzeppelin/contracts/access/AccessControl.sol\":4759:4763  role */\n      dup4\n        /* \"@openzeppelin/contracts/access/AccessControl.sol\":4765:4772  account */\n      dup4\n        /* \"@openzeppelin/contracts/access/AccessControl.sol\":4747:4758  _revokeRole */\n      tag_183\n        /* \"@openzeppelin/contracts/access/AccessControl.sol\":4747:4773  _revokeRole(role, account) */\n      jump\t// in\n        /* \"@openzeppelin/contracts/token/ERC20/ERC20.sol\":8989:9117  function _approve(address owner, address spender, uint256 value) internal {... */\n    tag_159:\n        /* \"@openzeppelin/contracts/token/ERC20/ERC20.sol\":9073:9110  _approve(owner, spender, value, true) */\n      tag_182\n        /* \"@openzeppelin/contracts/token/ERC20/ERC20.sol\":9082:9087  owner */\n      dup4\n        /* \"@openzeppelin/contracts/token/ERC20/ERC20.sol\":9089:9096  spender */\n      dup4\n        /* \"@openzeppelin/contracts/token/ERC20/ERC20.sol\":9098:9103  value */\n      dup4\n        /* \"@openzeppelin/contracts/token/ERC20/ERC20.sol\":9105:9109  true */\n      0x01\n        /* \"@openzeppelin/contracts/token/ERC20/ERC20.sol\":9073:9081  _approve */\n      tag_256\n        /* \"@openzeppelin/contracts/token/ERC20/ERC20.sol\":9073:9110  _approve(owner, spender, value, true) */\n      jump\t// in\n        /* \"@openzeppelin/contracts/token/ERC20/ERC20.sol\":10663:11140  function _spendAllowance(address owner, address spender, uint256 value) internal virtual {... */\n    tag_164:\n      sub(shl(0xa0, 0x01), 0x01)\n        /* \"@openzeppelin/contracts/token/ERC20/ERC20.sol\":3952:3970  _allowances[owner] */\n      dup4\n      dup2\n      and\n        /* \"@openzeppelin/contracts/token/ERC20/ERC20.sol\":10762:10786  uint256 currentAllowance */\n      0x00\n        /* \"@openzeppelin/contracts/token/ERC20/ERC20.sol\":3952:3970  _allowances[owner] */\n      swap1\n      dup2\n      mstore\n        /* \"@openzeppelin/contracts/token/ERC20/ERC20.sol\":3952:3963  _allowances */\n      0x01\n        /* \"@openzeppelin/contracts/token/ERC20/ERC20.sol\":3952:3970  _allowances[owner] */\n      0x20\n      swap1\n      dup2\n      mstore\n      0x40\n      dup1\n      dup4\n      keccak256\n        /* \"@openzeppelin/contracts/token/ERC20/ERC20.sol\":3952:3979  _allowances[owner][spender] */\n      swap4\n      dup7\n      and\n      dup4\n      mstore\n      swap3\n      swap1\n      mstore\n      keccak256\n      sload\n      not(0x00)\n        /* \"@openzeppelin/contracts/token/ERC20/ERC20.sol\":10828:10865  currentAllowance != type(uint256).max */\n      dup2\n      eq\n        /* \"@openzeppelin/contracts/token/ERC20/ERC20.sol\":10824:11134  if (currentAllowance != type(uint256).max) {... */\n      tag_173\n      jumpi\n        /* \"@openzeppelin/contracts/token/ERC20/ERC20.sol\":10904:10909  value */\n      dup2\n        /* \"@openzeppelin/contracts/token/ERC20/ERC20.sol\":10885:10901  currentAllowance */\n      dup2\n        /* \"@openzeppelin/contracts/token/ERC20/ERC20.sol\":10885:10909  currentAllowance < value */\n      lt\n        /* \"@openzeppelin/contracts/token/ERC20/ERC20.sol\":10881:11011  if (currentAllowance < value) {... */\n      iszero\n      tag_260\n      jumpi\n        /* \"@openzeppelin/contracts/token/ERC20/ERC20.sol\":10936:10996  ERC20InsufficientAllowance(spender, currentAllowance, value) */\n      mload(0x40)\n      shl(0xe1, 0x7dc7a0d9)\n      dup2\n      mstore\n      sub(shl(0xa0, 0x01), 0x01)\n        /* \"#utility.yul\":7439:7471   */\n      dup5\n      and\n        /* \"@openzeppelin/contracts/token/ERC20/ERC20.sol\":10936:10996  ERC20InsufficientAllowance(spender, currentAllowance, value) */\n      0x04\n      dup3\n      add\n        /* \"#utility.yul\":7421:7472   */\n      mstore\n        /* \"#utility.yul\":7488:7506   */\n      0x24\n      dup2\n      add\n        /* \"#utility.yul\":7481:7515   */\n      dup3\n      swap1\n      mstore\n        /* \"#utility.yul\":7531:7549   */\n      0x44\n      dup2\n      add\n        /* \"#utility.yul\":7524:7558   */\n      dup4\n      swap1\n      mstore\n        /* \"#utility.yul\":7394:7412   */\n      0x64\n      add\n        /* \"@openzeppelin/contracts/token/ERC20/ERC20.sol\":10936:10996  ERC20InsufficientAllowance(spender, currentAllowance, value) */\n      tag_233\n        /* \"#utility.yul\":7219:7564   */\n      jump\n        /* \"@openzeppelin/contracts/token/ERC20/ERC20.sol\":10881:11011  if (currentAllowance < value) {... */\n    tag_260:\n        /* \"@openzeppelin/contracts/token/ERC20/ERC20.sol\":11052:11109  _approve(owner, spender, currentAllowance - value, false) */\n      tag_173\n        /* \"@openzeppelin/contracts/token/ERC20/ERC20.sol\":11061:11066  owner */\n      dup5\n        /* \"@openzeppelin/contracts/token/ERC20/ERC20.sol\":11068:11075  spender */\n      dup5\n        /* \"@openzeppelin/contracts/token/ERC20/ERC20.sol\":11096:11101  value */\n      dup5\n        /* \"@openzeppelin/contracts/token/ERC20/ERC20.sol\":11077:11093  currentAllowance */\n      dup5\n        /* \"@openzeppelin/contracts/token/ERC20/ERC20.sol\":11077:11101  currentAllowance - value */\n      sub\n        /* \"@openzeppelin/contracts/token/ERC20/ERC20.sol\":11103:11108  false */\n      0x00\n        /* \"@openzeppelin/contracts/token/ERC20/ERC20.sol\":11052:11060  _approve */\n      tag_256\n        /* \"@openzeppelin/contracts/token/ERC20/ERC20.sol\":11052:11109  _approve(owner, spender, currentAllowance - value, false) */\n      jump\t// in\n        /* \"@openzeppelin/contracts/token/ERC20/ERC20.sol\":5656:5956  function _transfer(address from, address to, uint256 value) internal {... */\n    tag_166:\n      sub(shl(0xa0, 0x01), 0x01)\n        /* \"@openzeppelin/contracts/token/ERC20/ERC20.sol\":5739:5757  from == address(0) */\n      dup4\n      and\n        /* \"@openzeppelin/contracts/token/ERC20/ERC20.sol\":5735:5821  if (from == address(0)) {... */\n      tag_265\n      jumpi\n        /* \"@openzeppelin/contracts/token/ERC20/ERC20.sol\":5780:5810  ERC20InvalidSender(address(0)) */\n      mload(0x40)\n      shl(0xe1, 0x4b637e8f)\n      dup2\n      mstore\n        /* \"@openzeppelin/contracts/token/ERC20/ERC20.sol\":5807:5808  0 */\n      0x00\n        /* \"@openzeppelin/contracts/token/ERC20/ERC20.sol\":5780:5810  ERC20InvalidSender(address(0)) */\n      0x04\n      dup3\n      add\n        /* \"#utility.yul\":7715:7766   */\n      mstore\n        /* \"#utility.yul\":7688:7706   */\n      0x24\n      add\n        /* \"@openzeppelin/contracts/token/ERC20/ERC20.sol\":5780:5810  ERC20InvalidSender(address(0)) */\n      tag_233\n        /* \"#utility.yul\":7569:7772   */\n      jump\n        /* \"@openzeppelin/contracts/token/ERC20/ERC20.sol\":5735:5821  if (from == address(0)) {... */\n    tag_265:\n      sub(shl(0xa0, 0x01), 0x01)\n        /* \"@openzeppelin/contracts/token/ERC20/ERC20.sol\":5834:5850  to == address(0) */\n      dup3\n      and\n        /* \"@openzeppelin/contracts/token/ERC20/ERC20.sol\":5830:5916  if (to == address(0)) {... */\n      tag_268\n      jumpi\n        /* \"@openzeppelin/contracts/token/ERC20/ERC20.sol\":5873:5905  ERC20InvalidReceiver(address(0)) */\n      mload(0x40)\n      shl(0xe0, 0xec442f05)\n      dup2\n      mstore\n        /* \"@openzeppelin/contracts/token/ERC20/ERC20.sol\":5902:5903  0 */\n      0x00\n        /* \"@openzeppelin/contracts/token/ERC20/ERC20.sol\":5873:5905  ERC20InvalidReceiver(address(0)) */\n      0x04\n      dup3\n      add\n        /* \"#utility.yul\":7715:7766   */\n      mstore\n        /* \"#utility.yul\":7688:7706   */\n      0x24\n      add\n        /* \"@openzeppelin/contracts/token/ERC20/ERC20.sol\":5873:5905  ERC20InvalidReceiver(address(0)) */\n      tag_233\n        /* \"#utility.yul\":7569:7772   */\n      jump\n        /* \"@openzeppelin/contracts/token/ERC20/ERC20.sol\":5830:5916  if (to == address(0)) {... */\n    tag_268:\n        /* \"@openzeppelin/contracts/token/ERC20/ERC20.sol\":5925:5949  _update(from, to, value) */\n      tag_182\n        /* \"@openzeppelin/contracts/token/ERC20/ERC20.sol\":5933:5937  from */\n      dup4\n        /* \"@openzeppelin/contracts/token/ERC20/ERC20.sol\":5939:5941  to */\n      dup4\n        /* \"@openzeppelin/contracts/token/ERC20/ERC20.sol\":5943:5948  value */\n      dup4\n        /* \"@openzeppelin/contracts/token/ERC20/ERC20.sol\":5925:5932  _update */\n      tag_271\n        /* \"@openzeppelin/contracts/token/ERC20/ERC20.sol\":5925:5949  _update(from, to, value) */\n      jump\t// in\n        /* \"@openzeppelin/contracts/access/AccessControl.sol\":3199:3302  function _checkRole(bytes32 role) internal view virtual {... */\n    tag_171:\n        /* \"@openzeppelin/contracts/access/AccessControl.sol\":3265:3295  _checkRole(role, _msgSender()) */\n      tag_187\n        /* \"@openzeppelin/contracts/access/AccessControl.sol\":3276:3280  role */\n      dup2\n        /* \"@openzeppelin/contracts/utils/Context.sol\":735:745  msg.sender */\n      caller\n        /* \"@openzeppelin/contracts/access/AccessControl.sol\":3265:3275  _checkRole */\n      tag_275\n        /* \"@openzeppelin/contracts/access/AccessControl.sol\":3265:3295  _checkRole(role, _msgSender()) */\n      jump\t// in\n        /* \"@openzeppelin/contracts/access/AccessControl.sol\":6179:6495  function _grantRole(bytes32 role, address account) internal virtual returns (bool) {... */\n    tag_174:\n        /* \"@openzeppelin/contracts/access/AccessControl.sol\":6256:6260  bool */\n      0x00\n        /* \"@openzeppelin/contracts/access/AccessControl.sol\":6277:6299  hasRole(role, account) */\n      tag_277\n        /* \"@openzeppelin/contracts/access/AccessControl.sol\":6285:6289  role */\n      dup4\n        /* \"@openzeppelin/contracts/access/AccessControl.sol\":6291:6298  account */\n      dup4\n        /* \"@openzeppelin/contracts/access/AccessControl.sol\":6277:6284  hasRole */\n      tag_114\n        /* \"@openzeppelin/contracts/access/AccessControl.sol\":6277:6299  hasRole(role, account) */\n      jump\t// in\n    tag_277:\n        /* \"@openzeppelin/contracts/access/AccessControl.sol\":6272:6489  if (!hasRole(role, account)) {... */\n      tag_278\n      jumpi\n        /* \"@openzeppelin/contracts/access/AccessControl.sol\":6315:6327  _roles[role] */\n      0x00\n      dup4\n      dup2\n      mstore\n        /* \"@openzeppelin/contracts/access/AccessControl.sol\":6315:6321  _roles */\n      0x06\n        /* \"@openzeppelin/contracts/access/AccessControl.sol\":6315:6327  _roles[role] */\n      0x20\n      swap1\n      dup2\n      mstore\n      0x40\n      dup1\n      dup4\n      keccak256\n      sub(shl(0xa0, 0x01), 0x01)\n        /* \"@openzeppelin/contracts/access/AccessControl.sol\":6315:6344  _roles[role].hasRole[account] */\n      dup7\n      and\n      dup5\n      mstore\n      swap1\n      swap2\n      mstore\n      swap1\n      keccak256\n        /* \"@openzeppelin/contracts/access/AccessControl.sol\":6315:6351  _roles[role].hasRole[account] = true */\n      dup1\n      sload\n      not(0xff)\n      and\n        /* \"@openzeppelin/contracts/access/AccessControl.sol\":6347:6351  true */\n      0x01\n        /* \"@openzeppelin/contracts/access/AccessControl.sol\":6315:6351  _roles[role].hasRole[account] = true */\n      or\n      swap1\n      sstore\n        /* \"@openzeppelin/contracts/access/AccessControl.sol\":6397:6409  _msgSender() */\n      tag_279\n        /* \"@openzeppelin/contracts/utils/Context.sol\":735:745  msg.sender */\n      caller\n      swap1\n        /* \"@openzeppelin/contracts/utils/Context.sol\":656:752  function _msgSender() internal view virtual returns (address) {... */\n      jump\n        /* \"@openzeppelin/contracts/access/AccessControl.sol\":6397:6409  _msgSender() */\n    tag_279:\n      sub(shl(0xa0, 0x01), 0x01)\n        /* \"@openzeppelin/contracts/access/AccessControl.sol\":6370:6410  RoleGranted(role, account, _msgSender()) */\n      and\n        /* \"@openzeppelin/contracts/access/AccessControl.sol\":6388:6395  account */\n      dup3\n      sub(shl(0xa0, 0x01), 0x01)\n        /* \"@openzeppelin/contracts/access/AccessControl.sol\":6370:6410  RoleGranted(role, account, _msgSender()) */\n      and\n        /* \"@openzeppelin/contracts/access/AccessControl.sol\":6382:6386  role */\n      dup5\n        /* \"@openzeppelin/contracts/access/AccessControl.sol\":6370:6410  RoleGranted(role, account, _msgSender()) */\n      0x2f8788117e7eff1d82e926ec794901d17c78024a50270940304540a733656f0d\n      mload(0x40)\n      mload(0x40)\n      dup1\n      swap2\n      sub\n      swap1\n      log4\n      pop\n        /* \"@openzeppelin/contracts/access/AccessControl.sol\":6431:6435  true */\n      0x01\n        /* \"@openzeppelin/contracts/access/AccessControl.sol\":6424:6435  return true */\n      jump(tag_146)\n        /* \"@openzeppelin/contracts/access/AccessControl.sol\":6272:6489  if (!hasRole(role, account)) {... */\n    tag_278:\n      pop\n        /* \"@openzeppelin/contracts/access/AccessControl.sol\":6473:6478  false */\n      0x00\n        /* \"@openzeppelin/contracts/access/AccessControl.sol\":6466:6478  return false */\n      jump(tag_146)\n        /* \"@openzeppelin/contracts/utils/cryptography/EIP712.sol\":3845:4107  function _domainSeparatorV4() internal view returns (bytes32) {... */\n    tag_178:\n        /* \"@openzeppelin/contracts/utils/cryptography/EIP712.sol\":3898:3905  bytes32 */\n      0x00\n        /* \"@openzeppelin/contracts/utils/cryptography/EIP712.sol\":3929:3933  this */\n      address\n      sub(shl(0xa0, 0x01), 0x01)\n        /* \"@openzeppelin/contracts/utils/cryptography/EIP712.sol\":3938:3949  _cachedThis */\n      immutable(\"0x4800b1842441c160b255ac2245247be9ea43a575d8bea1f956efaca93a2606b8\")\n        /* \"@openzeppelin/contracts/utils/cryptography/EIP712.sol\":3921:3949  address(this) == _cachedThis */\n      and\n      eq\n        /* \"@openzeppelin/contracts/utils/cryptography/EIP712.sol\":3921:3984  address(this) == _cachedThis && block.chainid == _cachedChainId */\n      dup1\n      iszero\n      tag_282\n      jumpi\n      pop\n        /* \"@openzeppelin/contracts/utils/cryptography/EIP712.sol\":3970:3984  _cachedChainId */\n      immutable(\"0xb48894f9dfc3e68a4746efc800bdf7af2f804119ea096b39a584a168e77eef31\")\n        /* \"@openzeppelin/contracts/utils/cryptography/EIP712.sol\":3953:3966  block.chainid */\n      chainid\n        /* \"@openzeppelin/contracts/utils/cryptography/EIP712.sol\":3953:3984  block.chainid == _cachedChainId */\n      eq\n        /* \"@openzeppelin/contracts/utils/cryptography/EIP712.sol\":3921:3984  address(this) == _cachedThis && block.chainid == _cachedChainId */\n    tag_282:\n        /* \"@openzeppelin/contracts/utils/cryptography/EIP712.sol\":3917:4101  if (address(this) == _cachedThis && block.chainid == _cachedChainId) {... */\n      iszero\n      tag_283\n      jumpi\n      pop\n        /* \"@openzeppelin/contracts/utils/cryptography/EIP712.sol\":4007:4029  _cachedDomainSeparator */\n      immutable(\"0x6df163a8a08abdbca6943e7873ed50fae1ac38ee30aaf01a83c488d75171af8f\")\n      swap1\n        /* \"@openzeppelin/contracts/utils/cryptography/EIP712.sol\":3845:4107  function _domainSeparatorV4() internal view returns (bytes32) {... */\n      jump\t// out\n        /* \"@openzeppelin/contracts/utils/cryptography/EIP712.sol\":3917:4101  if (address(this) == _cachedThis && block.chainid == _cachedChainId) {... */\n    tag_283:\n        /* \"@openzeppelin/contracts/utils/cryptography/EIP712.sol\":4067:4090  _buildDomainSeparator() */\n      tag_177\n        /* \"@openzeppelin/contracts/utils/cryptography/EIP712.sol\":4204:4284  abi.encode(TYPE_HASH, _hashedName, _hashedVersion, block.chainid, address(this)) */\n      0x40\n      dup1\n      mload\n        /* \"@openzeppelin/contracts/utils/cryptography/EIP712.sol\":2079:2174  keccak256(\"EIP712Domain(string name,string version,uint256 chainId,address verifyingContract)\") */\n      0x8b73c3c69bb8fe3d512ecc4cf759cc79239f7b179b0ffacaa9a75d522b39400f\n        /* \"@openzeppelin/contracts/utils/cryptography/EIP712.sol\":4204:4284  abi.encode(TYPE_HASH, _hashedName, _hashedVersion, block.chainid, address(this)) */\n      0x20\n      dup3\n      add\n        /* \"#utility.yul\":8315:8340   */\n      mstore\n        /* \"@openzeppelin/contracts/utils/cryptography/EIP712.sol\":4226:4237  _hashedName */\n      immutable(\"0xe0e6e0a7cc974e518ec1bdc5a9728f7516ec34e9edb9d658eb9f0154eba353c8\")\n        /* \"#utility.yul\":8356:8374   */\n      swap2\n      dup2\n      add\n        /* \"#utility.yul\":8349:8383   */\n      swap2\n      swap1\n      swap2\n      mstore\n        /* \"@openzeppelin/contracts/utils/cryptography/EIP712.sol\":4239:4253  _hashedVersion */\n      immutable(\"0xeb612a51673d67072b12f494555769a94fd9bfac176cf26ad4624f7930058329\")\n        /* \"#utility.yul\":8399:8417   */\n      0x60\n      dup3\n      add\n        /* \"#utility.yul\":8392:8426   */\n      mstore\n        /* \"@openzeppelin/contracts/utils/cryptography/EIP712.sol\":4255:4268  block.chainid */\n      chainid\n        /* \"#utility.yul\":8442:8460   */\n      0x80\n      dup3\n      add\n        /* \"#utility.yul\":8435:8469   */\n      mstore\n        /* \"@openzeppelin/contracts/utils/cryptography/EIP712.sol\":4278:4282  this */\n      address\n        /* \"#utility.yul\":8485:8504   */\n      0xa0\n      dup3\n      add\n        /* \"#utility.yul\":8478:8539   */\n      mstore\n        /* \"@openzeppelin/contracts/utils/cryptography/EIP712.sol\":4168:4175  bytes32 */\n      0x00\n      swap1\n        /* \"#utility.yul\":8287:8306   */\n      0xc0\n      add\n        /* \"@openzeppelin/contracts/utils/cryptography/EIP712.sol\":4204:4284  abi.encode(TYPE_HASH, _hashedName, _hashedVersion, block.chainid, address(this)) */\n      mload(0x40)\n      0x20\n      dup2\n      dup4\n      sub\n      sub\n      dup2\n      mstore\n      swap1\n      0x40\n      mstore\n        /* \"@openzeppelin/contracts/utils/cryptography/EIP712.sol\":4194:4285  keccak256(abi.encode(TYPE_HASH, _hashedName, _hashedVersion, block.chainid, address(this))) */\n      dup1\n      mload\n      swap1\n      0x20\n      add\n      keccak256\n        /* \"@openzeppelin/contracts/utils/cryptography/EIP712.sol\":4187:4285  return keccak256(abi.encode(TYPE_HASH, _hashedName, _hashedVersion, block.chainid, address(this))) */\n      swap1\n      pop\n        /* \"@openzeppelin/contracts/utils/cryptography/EIP712.sol\":4113:4292  function _buildDomainSeparator() private view returns (bytes32) {... */\n      swap1\n      jump\n        /* \"@openzeppelin/contracts/access/AccessControl.sol\":6730:7047  function _revokeRole(bytes32 role, address account) internal virtual returns (bool) {... */\n    tag_183:\n        /* \"@openzeppelin/contracts/access/AccessControl.sol\":6808:6812  bool */\n      0x00\n        /* \"@openzeppelin/contracts/access/AccessControl.sol\":6828:6850  hasRole(role, account) */\n      tag_288\n        /* \"@openzeppelin/contracts/access/AccessControl.sol\":6836:6840  role */\n      dup4\n        /* \"@openzeppelin/contracts/access/AccessControl.sol\":6842:6849  account */\n      dup4\n        /* \"@openzeppelin/contracts/access/AccessControl.sol\":6828:6835  hasRole */\n      tag_114\n        /* \"@openzeppelin/contracts/access/AccessControl.sol\":6828:6850  hasRole(role, account) */\n      jump\t// in\n    tag_288:\n        /* \"@openzeppelin/contracts/access/AccessControl.sol\":6824:7041  if (hasRole(role, account)) {... */\n      iszero\n      tag_278\n      jumpi\n        /* \"@openzeppelin/contracts/access/AccessControl.sol\":6898:6903  false */\n      0x00\n        /* \"@openzeppelin/contracts/access/AccessControl.sol\":6866:6878  _roles[role] */\n      dup4\n      dup2\n      mstore\n        /* \"@openzeppelin/contracts/access/AccessControl.sol\":6866:6872  _roles */\n      0x06\n        /* \"@openzeppelin/contracts/access/AccessControl.sol\":6866:6878  _roles[role] */\n      0x20\n      swap1\n      dup2\n      mstore\n      0x40\n      dup1\n      dup4\n      keccak256\n      sub(shl(0xa0, 0x01), 0x01)\n        /* \"@openzeppelin/contracts/access/AccessControl.sol\":6866:6895  _roles[role].hasRole[account] */\n      dup7\n      and\n      dup1\n      dup6\n      mstore\n      swap3\n      mstore\n      dup1\n      dup4\n      keccak256\n        /* \"@openzeppelin/contracts/access/AccessControl.sol\":6866:6903  _roles[role].hasRole[account] = false */\n      dup1\n      sload\n      not(0xff)\n      and\n      swap1\n      sstore\n        /* \"@openzeppelin/contracts/access/AccessControl.sol\":6922:6962  RoleRevoked(role, account, _msgSender()) */\n      mload\n        /* \"@openzeppelin/contracts/utils/Context.sol\":735:745  msg.sender */\n      caller\n      swap3\n        /* \"@openzeppelin/contracts/access/AccessControl.sol\":6866:6878  _roles[role] */\n      dup7\n      swap2\n        /* \"@openzeppelin/contracts/access/AccessControl.sol\":6922:6962  RoleRevoked(role, account, _msgSender()) */\n      0xf6391f5c32d9c69d2a47ea670b442974b53935d1edc7fd64eb21e047a839171b\n      swap2\n        /* \"@openzeppelin/contracts/access/AccessControl.sol\":6898:6903  false */\n      swap1\n        /* \"@openzeppelin/contracts/access/AccessControl.sol\":6922:6962  RoleRevoked(role, account, _msgSender()) */\n      log4\n      pop\n        /* \"@openzeppelin/contracts/access/AccessControl.sol\":6983:6987  true */\n      0x01\n        /* \"@openzeppelin/contracts/access/AccessControl.sol\":6976:6987  return true */\n      jump(tag_146)\n        /* \"@openzeppelin/contracts/utils/Pausable.sol\":2710:2827  function _unpause() internal virtual whenPaused {... */\n    tag_188:\n        /* \"@openzeppelin/contracts/utils/Pausable.sol\":1721:1737  _requirePaused() */\n      tag_293\n        /* \"@openzeppelin/contracts/utils/Pausable.sol\":1721:1735  _requirePaused */\n      tag_294\n        /* \"@openzeppelin/contracts/utils/Pausable.sol\":1721:1737  _requirePaused() */\n      jump\t// in\n    tag_293:\n        /* \"@openzeppelin/contracts/utils/Pausable.sol\":2768:2775  _paused */\n      0x05\n        /* \"@openzeppelin/contracts/utils/Pausable.sol\":2768:2783  _paused = false */\n      dup1\n      sload\n      not(0xff)\n      and\n      swap1\n      sstore\n        /* \"@openzeppelin/contracts/utils/Pausable.sol\":2798:2820  Unpaused(_msgSender()) */\n      0x5db9ee0a495bf2e6ff9c91a7834c1ba4fdd244a5e8aa4e537bd38aeae4b073aa\n        /* \"@openzeppelin/contracts/utils/Context.sol\":735:745  msg.sender */\n      caller\n        /* \"@openzeppelin/contracts/utils/Pausable.sol\":2807:2819  _msgSender() */\n    tag_296:\n        /* \"@openzeppelin/contracts/utils/Pausable.sol\":2798:2820  Unpaused(_msgSender()) */\n      mload(0x40)\n      sub(shl(0xa0, 0x01), 0x01)\n        /* \"#utility.yul\":7733:7765   */\n      swap1\n      swap2\n      and\n        /* \"#utility.yul\":7715:7766   */\n      dup2\n      mstore\n        /* \"#utility.yul\":7703:7705   */\n      0x20\n        /* \"#utility.yul\":7688:7706   */\n      add\n        /* \"@openzeppelin/contracts/utils/Pausable.sol\":2798:2820  Unpaused(_msgSender()) */\n      mload(0x40)\n      dup1\n      swap2\n      sub\n      swap1\n      log1\n        /* \"@openzeppelin/contracts/utils/Pausable.sol\":2710:2827  function _unpause() internal virtual whenPaused {... */\n      jump\t// out\n        /* \"@openzeppelin/contracts/token/ERC20/ERC20.sol\":7721:7929  function _mint(address account, uint256 value) internal {... */\n    tag_193:\n      sub(shl(0xa0, 0x01), 0x01)\n        /* \"@openzeppelin/contracts/token/ERC20/ERC20.sol\":7791:7812  account == address(0) */\n      dup3\n      and\n        /* \"@openzeppelin/contracts/token/ERC20/ERC20.sol\":7787:7878  if (account == address(0)) {... */\n      tag_299\n      jumpi\n        /* \"@openzeppelin/contracts/token/ERC20/ERC20.sol\":7835:7867  ERC20InvalidReceiver(address(0)) */\n      mload(0x40)\n      shl(0xe0, 0xec442f05)\n      dup2\n      mstore\n        /* \"@openzeppelin/contracts/token/ERC20/ERC20.sol\":7864:7865  0 */\n      0x00\n        /* \"@openzeppelin/contracts/token/ERC20/ERC20.sol\":7835:7867  ERC20InvalidReceiver(address(0)) */\n      0x04\n      dup3\n      add\n        /* \"#utility.yul\":7715:7766   */\n      mstore\n        /* \"#utility.yul\":7688:7706   */\n      0x24\n      add\n        /* \"@openzeppelin/contracts/token/ERC20/ERC20.sol\":7835:7867  ERC20InvalidReceiver(address(0)) */\n      tag_233\n        /* \"#utility.yul\":7569:7772   */\n      jump\n        /* \"@openzeppelin/contracts/token/ERC20/ERC20.sol\":7787:7878  if (account == address(0)) {... */\n    tag_299:\n        /* \"@openzeppelin/contracts/token/ERC20/ERC20.sol\":7887:7922  _update(address(0), account, value) */\n      tag_203\n        /* \"@openzeppelin/contracts/token/ERC20/ERC20.sol\":7903:7904  0 */\n      0x00\n        /* \"@openzeppelin/contracts/token/ERC20/ERC20.sol\":7907:7914  account */\n      dup4\n        /* \"@openzeppelin/contracts/token/ERC20/ERC20.sol\":7916:7921  value */\n      dup4\n        /* \"@openzeppelin/contracts/token/ERC20/ERC20.sol\":7887:7894  _update */\n      tag_271\n        /* \"@openzeppelin/contracts/token/ERC20/ERC20.sol\":7887:7922  _update(address(0), account, value) */\n      jump\t// in\n        /* \"@openzeppelin/contracts/token/ERC20/ERC20.sol\":8247:8453  function _burn(address account, uint256 value) internal {... */\n    tag_197:\n      sub(shl(0xa0, 0x01), 0x01)\n        /* \"@openzeppelin/contracts/token/ERC20/ERC20.sol\":8317:8338  account == address(0) */\n      dup3\n      and\n        /* \"@openzeppelin/contracts/token/ERC20/ERC20.sol\":8313:8402  if (account == address(0)) {... */\n      tag_303\n      jumpi\n        /* \"@openzeppelin/contracts/token/ERC20/ERC20.sol\":8361:8391  ERC20InvalidSender(address(0)) */\n      mload(0x40)\n      shl(0xe1, 0x4b637e8f)\n      dup2\n      mstore\n        /* \"@openzeppelin/contracts/token/ERC20/ERC20.sol\":8388:8389  0 */\n      0x00\n        /* \"@openzeppelin/contracts/token/ERC20/ERC20.sol\":8361:8391  ERC20InvalidSender(address(0)) */\n      0x04\n      dup3\n      add\n        /* \"#utility.yul\":7715:7766   */\n      mstore\n        /* \"#utility.yul\":7688:7706   */\n      0x24\n      add\n        /* \"@openzeppelin/contracts/token/ERC20/ERC20.sol\":8361:8391  ERC20InvalidSender(address(0)) */\n      tag_233\n        /* \"#utility.yul\":7569:7772   */\n      jump\n        /* \"@openzeppelin/contracts/token/ERC20/ERC20.sol\":8313:8402  if (account == address(0)) {... */\n    tag_303:\n        /* \"@openzeppelin/contracts/token/ERC20/ERC20.sol\":8411:8446  _update(account, address(0), value) */\n      tag_203\n        /* \"@openzeppelin/contracts/token/ERC20/ERC20.sol\":8419:8426  account */\n      dup3\n        /* \"@openzeppelin/contracts/token/ERC20/ERC20.sol\":8436:8437  0 */\n      0x00\n        /* \"@openzeppelin/contracts/token/ERC20/ERC20.sol\":8440:8445  value */\n      dup4\n        /* \"@openzeppelin/contracts/token/ERC20/ERC20.sol\":8411:8418  _update */\n      tag_271\n        /* \"@openzeppelin/contracts/token/ERC20/ERC20.sol\":8411:8446  _update(account, address(0), value) */\n      jump\t// in\n        /* \"@openzeppelin/contracts/utils/Pausable.sol\":2463:2578  function _pause() internal virtual whenNotPaused {... */\n    tag_211:\n        /* \"@openzeppelin/contracts/utils/Pausable.sol\":1474:1493  _requireNotPaused() */\n      tag_308\n        /* \"@openzeppelin/contracts/utils/Pausable.sol\":1474:1491  _requireNotPaused */\n      tag_309\n        /* \"@openzeppelin/contracts/utils/Pausable.sol\":1474:1493  _requireNotPaused() */\n      jump\t// in\n    tag_308:\n        /* \"@openzeppelin/contracts/utils/Pausable.sol\":2522:2529  _paused */\n      0x05\n        /* \"@openzeppelin/contracts/utils/Pausable.sol\":2522:2536  _paused = true */\n      dup1\n      sload\n      not(0xff)\n      and\n        /* \"@openzeppelin/contracts/utils/Pausable.sol\":2532:2536  true */\n      0x01\n        /* \"@openzeppelin/contracts/utils/Pausable.sol\":2522:2536  _paused = true */\n      or\n      swap1\n      sstore\n        /* \"@openzeppelin/contracts/utils/Pausable.sol\":2551:2571  Paused(_msgSender()) */\n      0x62e78cea01bee320cd4e420270b5ea74000d11b0c9f74754ebdbfc544b05a258\n        /* \"@openzeppelin/contracts/utils/Pausable.sol\":2558:2570  _msgSender() */\n      tag_296\n        /* \"@openzeppelin/contracts/utils/Context.sol\":735:745  msg.sender */\n      caller\n      swap1\n        /* \"@openzeppelin/contracts/utils/Context.sol\":656:752  function _msgSender() internal view virtual returns (address) {... */\n      jump\n        /* \"@openzeppelin/contracts/utils/cryptography/EIP712.sol\":6021:6147  function _EIP712Name() internal view returns (string memory) {... */\n    tag_214:\n        /* \"@openzeppelin/contracts/utils/cryptography/EIP712.sol\":6067:6080  string memory */\n      0x60\n        /* \"@openzeppelin/contracts/utils/cryptography/EIP712.sol\":6099:6140  _name.toStringWithFallback(_nameFallback) */\n      tag_177\n        /* \"@openzeppelin/contracts/utils/cryptography/EIP712.sol\":6099:6104  _name */\n      immutable(\"0x0c83a86b9a421265a361141af722fd63e00869c1c139d31f31f0af421e8327ed\")\n        /* \"@openzeppelin/contracts/utils/cryptography/EIP712.sol\":6126:6139  _nameFallback */\n      0x07\n        /* \"@openzeppelin/contracts/utils/cryptography/EIP712.sol\":6099:6125  _name.toStringWithFallback */\n      tag_315\n        /* \"@openzeppelin/contracts/utils/cryptography/EIP712.sol\":6099:6140  _name.toStringWithFallback(_nameFallback) */\n      jump\t// in\n        /* \"@openzeppelin/contracts/utils/cryptography/EIP712.sol\":6473:6608  function _EIP712Version() internal view returns (string memory) {... */\n    tag_216:\n        /* \"@openzeppelin/contracts/utils/cryptography/EIP712.sol\":6522:6535  string memory */\n      0x60\n        /* \"@openzeppelin/contracts/utils/cryptography/EIP712.sol\":6554:6601  _version.toStringWithFallback(_versionFallback) */\n      tag_177\n        /* \"@openzeppelin/contracts/utils/cryptography/EIP712.sol\":6554:6562  _version */\n      immutable(\"0x1ea09617e6de0b79eadbed418fe134a156222db3429ad9931df03270f607d73c\")\n        /* \"@openzeppelin/contracts/utils/cryptography/EIP712.sol\":6584:6600  _versionFallback */\n      0x08\n        /* \"@openzeppelin/contracts/utils/cryptography/EIP712.sol\":6554:6583  _version.toStringWithFallback */\n      tag_315\n        /* \"@openzeppelin/contracts/utils/cryptography/EIP712.sol\":6554:6601  _version.toStringWithFallback(_versionFallback) */\n      jump\t// in\n        /* \"@openzeppelin/contracts/utils/cryptography/EIP712.sol\":4917:5093  function _hashTypedDataV4(bytes32 structHash) internal view virtual returns (bytes32) {... */\n    tag_239:\n        /* \"@openzeppelin/contracts/utils/cryptography/EIP712.sol\":4994:5001  bytes32 */\n      0x00\n        /* \"@openzeppelin/contracts/utils/cryptography/EIP712.sol\":5020:5086  MessageHashUtils.toTypedDataHash(_domainSeparatorV4(), structHash) */\n      tag_146\n        /* \"@openzeppelin/contracts/utils/cryptography/EIP712.sol\":5053:5073  _domainSeparatorV4() */\n      tag_321\n        /* \"@openzeppelin/contracts/utils/cryptography/EIP712.sol\":5053:5071  _domainSeparatorV4 */\n      tag_178\n        /* \"@openzeppelin/contracts/utils/cryptography/EIP712.sol\":5053:5073  _domainSeparatorV4() */\n      jump\t// in\n    tag_321:\n        /* \"@openzeppelin/contracts/utils/cryptography/EIP712.sol\":5075:5085  structHash */\n      dup4\n        /* \"@openzeppelin/contracts/utils/cryptography/MessageHashUtils.sol\":3555:3559  0x40 */\n      0x40\n        /* \"@openzeppelin/contracts/utils/cryptography/MessageHashUtils.sol\":3549:3560  mload(0x40) */\n      mload\n      shl(0xf0, 0x1901)\n        /* \"@openzeppelin/contracts/utils/cryptography/MessageHashUtils.sol\":3573:3596  mstore(ptr, hex\"19_01\") */\n      dup2\n      mstore\n        /* \"@openzeppelin/contracts/utils/cryptography/MessageHashUtils.sol\":3625:3629  0x02 */\n      0x02\n        /* \"@openzeppelin/contracts/utils/cryptography/MessageHashUtils.sol\":3616:3630  add(ptr, 0x02) */\n      dup2\n      add\n        /* \"@openzeppelin/contracts/utils/cryptography/MessageHashUtils.sol\":3609:3648  mstore(add(ptr, 0x02), domainSeparator) */\n      swap3\n      swap1\n      swap3\n      mstore\n        /* \"@openzeppelin/contracts/utils/cryptography/MessageHashUtils.sol\":3677:3681  0x22 */\n      0x22\n        /* \"@openzeppelin/contracts/utils/cryptography/MessageHashUtils.sol\":3668:3682  add(ptr, 0x22) */\n      dup3\n      add\n        /* \"@openzeppelin/contracts/utils/cryptography/MessageHashUtils.sol\":3661:3695  mstore(add(ptr, 0x22), structHash) */\n      mstore\n        /* \"@openzeppelin/contracts/utils/cryptography/MessageHashUtils.sol\":3733:3737  0x42 */\n      0x42\n        /* \"@openzeppelin/contracts/utils/cryptography/MessageHashUtils.sol\":3718:3738  keccak256(ptr, 0x42) */\n      swap1\n      keccak256\n      swap1\n        /* \"@openzeppelin/contracts/utils/cryptography/MessageHashUtils.sol\":3353:3754  function toTypedDataHash(bytes32 domainSeparator, bytes32 structHash) internal pure returns (bytes32 digest) {... */\n      jump\n        /* \"@openzeppelin/contracts/utils/cryptography/ECDSA.sol\":6803:7063  function recover(bytes32 hash, uint8 v, bytes32 r, bytes32 s) internal pure returns (address) {... */\n    tag_241:\n        /* \"@openzeppelin/contracts/utils/cryptography/ECDSA.sol\":6888:6895  address */\n      0x00\n        /* \"@openzeppelin/contracts/utils/cryptography/ECDSA.sol\":6908:6925  address recovered */\n      dup1\n        /* \"@openzeppelin/contracts/utils/cryptography/ECDSA.sol\":6927:6945  RecoverError error */\n      0x00\n        /* \"@openzeppelin/contracts/utils/cryptography/ECDSA.sol\":6947:6963  bytes32 errorArg */\n      dup1\n        /* \"@openzeppelin/contracts/utils/cryptography/ECDSA.sol\":6967:6992  tryRecover(hash, v, r, s) */\n      tag_324\n        /* \"@openzeppelin/contracts/utils/cryptography/ECDSA.sol\":6978:6982  hash */\n      dup9\n        /* \"@openzeppelin/contracts/utils/cryptography/ECDSA.sol\":6984:6985  v */\n      dup9\n        /* \"@openzeppelin/contracts/utils/cryptography/ECDSA.sol\":6987:6988  r */\n      dup9\n        /* \"@openzeppelin/contracts/utils/cryptography/ECDSA.sol\":6990:6991  s */\n      dup9\n        /* \"@openzeppelin/contracts/utils/cryptography/ECDSA.sol\":6967:6977  tryRecover */\n      tag_325\n        /* \"@openzeppelin/contracts/utils/cryptography/ECDSA.sol\":6967:6992  tryRecover(hash, v, r, s) */\n      jump\t// in\n    tag_324:\n        /* \"@openzeppelin/contracts/utils/cryptography/ECDSA.sol\":6907:6992  (address recovered, RecoverError error, bytes32 errorArg) = tryRecover(hash, v, r, s) */\n      swap3\n      pop\n      swap3\n      pop\n      swap3\n      pop\n        /* \"@openzeppelin/contracts/utils/cryptography/ECDSA.sol\":7002:7030  _throwError(error, errorArg) */\n      tag_326\n        /* \"@openzeppelin/contracts/utils/cryptography/ECDSA.sol\":7014:7019  error */\n      dup3\n        /* \"@openzeppelin/contracts/utils/cryptography/ECDSA.sol\":7021:7029  errorArg */\n      dup3\n        /* \"@openzeppelin/contracts/utils/cryptography/ECDSA.sol\":7002:7013  _throwError */\n      tag_327\n        /* \"@openzeppelin/contracts/utils/cryptography/ECDSA.sol\":7002:7030  _throwError(error, errorArg) */\n      jump\t// in\n    tag_326:\n      pop\n        /* \"@openzeppelin/contracts/utils/cryptography/ECDSA.sol\":7047:7056  recovered */\n      swap1\n      swap7\n        /* \"@openzeppelin/contracts/utils/cryptography/ECDSA.sol\":6803:7063  function recover(bytes32 hash, uint8 v, bytes32 r, bytes32 s) internal pure returns (address) {... */\n      swap6\n      pop\n      pop\n      pop\n      pop\n      pop\n      pop\n      jump\t// out\n        /* \"@openzeppelin/contracts/token/ERC20/ERC20.sol\":9949:10381  function _approve(address owner, address spender, uint256 value, bool emitEvent) internal virtual {... */\n    tag_256:\n      sub(shl(0xa0, 0x01), 0x01)\n        /* \"@openzeppelin/contracts/token/ERC20/ERC20.sol\":10061:10080  owner == address(0) */\n      dup5\n      and\n        /* \"@openzeppelin/contracts/token/ERC20/ERC20.sol\":10057:10146  if (owner == address(0)) {... */\n      tag_329\n      jumpi\n        /* \"@openzeppelin/contracts/token/ERC20/ERC20.sol\":10103:10135  ERC20InvalidApprover(address(0)) */\n      mload(0x40)\n      shl(0xe0, 0xe602df05)\n      dup2\n      mstore\n        /* \"@openzeppelin/contracts/token/ERC20/ERC20.sol\":10132:10133  0 */\n      0x00\n        /* \"@openzeppelin/contracts/token/ERC20/ERC20.sol\":10103:10135  ERC20InvalidApprover(address(0)) */\n      0x04\n      dup3\n      add\n        /* \"#utility.yul\":7715:7766   */\n      mstore\n        /* \"#utility.yul\":7688:7706   */\n      0x24\n      add\n        /* \"@openzeppelin/contracts/token/ERC20/ERC20.sol\":10103:10135  ERC20InvalidApprover(address(0)) */\n      tag_233\n        /* \"#utility.yul\":7569:7772   */\n      jump\n        /* \"@openzeppelin/contracts/token/ERC20/ERC20.sol\":10057:10146  if (owner == address(0)) {... */\n    tag_329:\n      sub(shl(0xa0, 0x01), 0x01)\n        /* \"@openzeppelin/contracts/token/ERC20/ERC20.sol\":10159:10180  spender == address(0) */\n      dup4\n      and\n        /* \"@openzeppelin/contracts/token/ERC20/ERC20.sol\":10155:10245  if (spender == address(0)) {... */\n      tag_331\n      jumpi\n        /* \"@openzeppelin/contracts/token/ERC20/ERC20.sol\":10203:10234  ERC20InvalidSpender(address(0)) */\n      mload(0x40)\n      shl(0xe1, 0x4a1406b1)\n      dup2\n      mstore\n        /* \"@openzeppelin/contracts/token/ERC20/ERC20.sol\":10231:10232  0 */\n      0x00\n        /* \"@openzeppelin/contracts/token/ERC20/ERC20.sol\":10203:10234  ERC20InvalidSpender(address(0)) */\n      0x04\n      dup3\n      add\n        /* \"#utility.yul\":7715:7766   */\n      mstore\n        /* \"#utility.yul\":7688:7706   */\n      0x24\n      add\n        /* \"@openzeppelin/contracts/token/ERC20/ERC20.sol\":10203:10234  ERC20InvalidSpender(address(0)) */\n      tag_233\n        /* \"#utility.yul\":7569:7772   */\n      jump\n        /* \"@openzeppelin/contracts/token/ERC20/ERC20.sol\":10155:10245  if (spender == address(0)) {... */\n    tag_331:\n      sub(shl(0xa0, 0x01), 0x01)\n        /* \"@openzeppelin/contracts/token/ERC20/ERC20.sol\":10254:10272  _allowances[owner] */\n      dup1\n      dup6\n      and\n      0x00\n      swap1\n      dup2\n      mstore\n        /* \"@openzeppelin/contracts/token/ERC20/ERC20.sol\":10254:10265  _allowances */\n      0x01\n        /* \"@openzeppelin/contracts/token/ERC20/ERC20.sol\":10254:10272  _allowances[owner] */\n      0x20\n      swap1\n      dup2\n      mstore\n      0x40\n      dup1\n      dup4\n      keccak256\n        /* \"@openzeppelin/contracts/token/ERC20/ERC20.sol\":10254:10281  _allowances[owner][spender] */\n      swap4\n      dup8\n      and\n      dup4\n      mstore\n      swap3\n      swap1\n      mstore\n      keccak256\n        /* \"@openzeppelin/contracts/token/ERC20/ERC20.sol\":10254:10289  _allowances[owner][spender] = value */\n      dup3\n      swap1\n      sstore\n        /* \"@openzeppelin/contracts/token/ERC20/ERC20.sol\":10299:10375  if (emitEvent) {... */\n      dup1\n      iszero\n      tag_173\n      jumpi\n        /* \"@openzeppelin/contracts/token/ERC20/ERC20.sol\":10349:10356  spender */\n      dup3\n      sub(shl(0xa0, 0x01), 0x01)\n        /* \"@openzeppelin/contracts/token/ERC20/ERC20.sol\":10333:10364  Approval(owner, spender, value) */\n      and\n        /* \"@openzeppelin/contracts/token/ERC20/ERC20.sol\":10342:10347  owner */\n      dup5\n      sub(shl(0xa0, 0x01), 0x01)\n        /* \"@openzeppelin/contracts/token/ERC20/ERC20.sol\":10333:10364  Approval(owner, spender, value) */\n      and\n      0x8c5be1e5ebec7d5bd14f71427d1e84f3dd0314c0f7b2291e5b200ac8c7c3b925\n        /* \"@openzeppelin/contracts/token/ERC20/ERC20.sol\":10358:10363  value */\n      dup5\n        /* \"@openzeppelin/contracts/token/ERC20/ERC20.sol\":10333:10364  Approval(owner, spender, value) */\n      mload(0x40)\n      tag_334\n      swap2\n        /* \"#utility.yul\":1645:1670   */\n      dup2\n      mstore\n        /* \"#utility.yul\":1633:1635   */\n      0x20\n        /* \"#utility.yul\":1618:1636   */\n      add\n      swap1\n        /* \"#utility.yul\":1499:1676   */\n      jump\n        /* \"@openzeppelin/contracts/token/ERC20/ERC20.sol\":10333:10364  Approval(owner, spender, value) */\n    tag_334:\n      mload(0x40)\n      dup1\n      swap2\n      sub\n      swap1\n      log3\n        /* \"@openzeppelin/contracts/token/ERC20/ERC20.sol\":9949:10381  function _approve(address owner, address spender, uint256 value, bool emitEvent) internal virtual {... */\n      pop\n      pop\n      pop\n      pop\n      jump\t// out\n        /* \"weusd/weusd.sol\":1251:1421  function _update(address from, address to, uint256 value)... */\n    tag_271:\n        /* \"weusd/weusd.sol\":1383:1413  super._update(from, to, value) */\n      tag_182\n        /* \"weusd/weusd.sol\":1397:1401  from */\n      dup4\n        /* \"weusd/weusd.sol\":1403:1405  to */\n      dup4\n        /* \"weusd/weusd.sol\":1407:1412  value */\n      dup4\n        /* \"weusd/weusd.sol\":1383:1396  super._update */\n      tag_337\n        /* \"weusd/weusd.sol\":1383:1413  super._update(from, to, value) */\n      jump\t// in\n        /* \"@openzeppelin/contracts/access/AccessControl.sol\":3432:3629  function _checkRole(bytes32 role, address account) internal view virtual {... */\n    tag_275:\n        /* \"@openzeppelin/contracts/access/AccessControl.sol\":3520:3542  hasRole(role, account) */\n      tag_339\n        /* \"@openzeppelin/contracts/access/AccessControl.sol\":3528:3532  role */\n      dup3\n        /* \"@openzeppelin/contracts/access/AccessControl.sol\":3534:3541  account */\n      dup3\n        /* \"@openzeppelin/contracts/access/AccessControl.sol\":3520:3527  hasRole */\n      tag_114\n        /* \"@openzeppelin/contracts/access/AccessControl.sol\":3520:3542  hasRole(role, account) */\n      jump\t// in\n    tag_339:\n        /* \"@openzeppelin/contracts/access/AccessControl.sol\":3515:3623  if (!hasRole(role, account)) {... */\n      tag_203\n      jumpi\n        /* \"@openzeppelin/contracts/access/AccessControl.sol\":3565:3612  AccessControlUnauthorizedAccount(account, role) */\n      mload(0x40)\n      shl(0xe0, 0xe2517d3f)\n      dup2\n      mstore\n      sub(shl(0xa0, 0x01), 0x01)\n        /* \"#utility.yul\":7969:8001   */\n      dup3\n      and\n        /* \"@openzeppelin/contracts/access/AccessControl.sol\":3565:3612  AccessControlUnauthorizedAccount(account, role) */\n      0x04\n      dup3\n      add\n        /* \"#utility.yul\":7951:8002   */\n      mstore\n        /* \"#utility.yul\":8018:8036   */\n      0x24\n      dup2\n      add\n        /* \"#utility.yul\":8011:8045   */\n      dup4\n      swap1\n      mstore\n        /* \"#utility.yul\":7924:7942   */\n      0x44\n      add\n        /* \"@openzeppelin/contracts/access/AccessControl.sol\":3565:3612  AccessControlUnauthorizedAccount(account, role) */\n      tag_233\n        /* \"#utility.yul\":7777:8051   */\n      jump\n        /* \"@openzeppelin/contracts/utils/Pausable.sol\":2202:2328  function _requirePaused() internal view virtual {... */\n    tag_294:\n        /* \"@openzeppelin/contracts/utils/Pausable.sol\":1920:1927  _paused */\n      and(0xff, sload(0x05))\n        /* \"@openzeppelin/contracts/utils/Pausable.sol\":2260:2322  if (!paused()) {... */\n      tag_348\n      jumpi\n        /* \"@openzeppelin/contracts/utils/Pausable.sol\":2296:2311  ExpectedPause() */\n      mload(0x40)\n      shl(0xe0, 0x8dfc202b)\n      dup2\n      mstore\n      0x04\n      add\n      mload(0x40)\n      dup1\n      swap2\n      sub\n      swap1\n      revert\n        /* \"@openzeppelin/contracts/utils/Pausable.sol\":2260:2322  if (!paused()) {... */\n    tag_348:\n        /* \"@openzeppelin/contracts/utils/Pausable.sol\":2202:2328  function _requirePaused() internal view virtual {... */\n      jump\t// out\n        /* \"@openzeppelin/contracts/utils/Pausable.sol\":2002:2130  function _requireNotPaused() internal view virtual {... */\n    tag_309:\n        /* \"@openzeppelin/contracts/utils/Pausable.sol\":1920:1927  _paused */\n      and(0xff, sload(0x05))\n        /* \"@openzeppelin/contracts/utils/Pausable.sol\":2063:2124  if (paused()) {... */\n      iszero\n      tag_348\n      jumpi\n        /* \"@openzeppelin/contracts/utils/Pausable.sol\":2098:2113  EnforcedPause() */\n      mload(0x40)\n      shl(0xe0, 0xd93c0665)\n      dup2\n      mstore\n      0x04\n      add\n      mload(0x40)\n      dup1\n      swap2\n      sub\n      swap1\n      revert\n        /* \"@openzeppelin/contracts/utils/ShortStrings.sol\":3385:3652  function toStringWithFallback(ShortString value, string storage store) internal pure returns (string memory) {... */\n    tag_315:\n        /* \"@openzeppelin/contracts/utils/ShortStrings.sol\":3479:3492  string memory */\n      0x60\n        /* \"@openzeppelin/contracts/utils/ShortStrings.sol\":1390:1456  0x00000000000000000000000000000000000000000000000000000000000000FF */\n      0xff\n        /* \"@openzeppelin/contracts/utils/ShortStrings.sol\":3508:3554  ShortString.unwrap(value) != FALLBACK_SENTINEL */\n      dup4\n      eq\n        /* \"@openzeppelin/contracts/utils/ShortStrings.sol\":3504:3646  if (ShortString.unwrap(value) != FALLBACK_SENTINEL) {... */\n      tag_353\n      jumpi\n        /* \"@openzeppelin/contracts/utils/ShortStrings.sol\":3577:3592  toString(value) */\n      tag_354\n        /* \"@openzeppelin/contracts/utils/ShortStrings.sol\":3586:3591  value */\n      dup4\n        /* \"@openzeppelin/contracts/utils/ShortStrings.sol\":3577:3585  toString */\n      tag_355\n        /* \"@openzeppelin/contracts/utils/ShortStrings.sol\":3577:3592  toString(value) */\n      jump\t// in\n    tag_354:\n        /* \"@openzeppelin/contracts/utils/ShortStrings.sol\":3570:3592  return toString(value) */\n      swap1\n      pop\n      jump(tag_146)\n        /* \"@openzeppelin/contracts/utils/ShortStrings.sol\":3504:3646  if (ShortString.unwrap(value) != FALLBACK_SENTINEL) {... */\n    tag_353:\n        /* \"@openzeppelin/contracts/utils/ShortStrings.sol\":3630:3635  store */\n      dup2\n        /* \"@openzeppelin/contracts/utils/ShortStrings.sol\":3623:3635  return store */\n      dup1\n      sload\n      tag_357\n      swap1\n      tag_150\n      jump\t// in\n    tag_357:\n      dup1\n      0x1f\n      add\n      0x20\n      dup1\n      swap2\n      div\n      mul\n      0x20\n      add\n      mload(0x40)\n      swap1\n      dup2\n      add\n      0x40\n      mstore\n      dup1\n      swap3\n      swap2\n      swap1\n      dup2\n      dup2\n      mstore\n      0x20\n      add\n      dup3\n      dup1\n      sload\n      tag_358\n      swap1\n      tag_150\n      jump\t// in\n    tag_358:\n      dup1\n      iszero\n      tag_359\n      jumpi\n      dup1\n      0x1f\n      lt\n      tag_360\n      jumpi\n      0x0100\n      dup1\n      dup4\n      sload\n      div\n      mul\n      dup4\n      mstore\n      swap2\n      0x20\n      add\n      swap2\n      jump(tag_359)\n    tag_360:\n      dup3\n      add\n      swap2\n      swap1\n      0x00\n      mstore\n      keccak256(0x00, 0x20)\n      swap1\n    tag_361:\n      dup2\n      sload\n      dup2\n      mstore\n      swap1\n      0x01\n      add\n      swap1\n      0x20\n      add\n      dup1\n      dup4\n      gt\n      tag_361\n      jumpi\n      dup3\n      swap1\n      sub\n      0x1f\n      and\n      dup3\n      add\n      swap2\n    tag_359:\n      pop\n      pop\n      pop\n      pop\n      pop\n      swap1\n      pop\n      jump(tag_146)\n        /* \"@openzeppelin/contracts/utils/cryptography/ECDSA.sol\":5140:6670  function tryRecover(... */\n    tag_325:\n        /* \"@openzeppelin/contracts/utils/cryptography/ECDSA.sol\":5266:5273  address */\n      0x00\n      dup1\n      dup1\n        /* \"@openzeppelin/contracts/utils/cryptography/ECDSA.sol\":6199:6265  0x7FFFFFFFFFFFFFFFFFFFFFFFFFFFFFFF5D576E7357A4501DDFE92F46681B20A0 */\n      0x7fffffffffffffffffffffffffffffff5d576e7357a4501ddfe92f46681b20a0\n        /* \"@openzeppelin/contracts/utils/cryptography/ECDSA.sol\":6186:6265  uint256(s) > 0x7FFFFFFFFFFFFFFFFFFFFFFFFFFFFFFF5D576E7357A4501DDFE92F46681B20A0 */\n      dup5\n      gt\n        /* \"@openzeppelin/contracts/utils/cryptography/ECDSA.sol\":6182:6346  if (uint256(s) > 0x7FFFFFFFFFFFFFFFFFFFFFFFFFFFFFFF5D576E7357A4501DDFE92F46681B20A0) {... */\n      iszero\n      tag_364\n      jumpi\n      pop\n        /* \"@openzeppelin/contracts/utils/cryptography/ECDSA.sol\":6297:6298  0 */\n      0x00\n      swap2\n      pop\n        /* \"@openzeppelin/contracts/utils/cryptography/ECDSA.sol\":6301:6331  RecoverError.InvalidSignatureS */\n      0x03\n      swap1\n      pop\n        /* \"@openzeppelin/contracts/utils/cryptography/ECDSA.sol\":6333:6334  s */\n      dup3\n        /* \"@openzeppelin/contracts/utils/cryptography/ECDSA.sol\":6281:6335  return (address(0), RecoverError.InvalidSignatureS, s) */\n      jump(tag_363)\n        /* \"@openzeppelin/contracts/utils/cryptography/ECDSA.sol\":6182:6346  if (uint256(s) > 0x7FFFFFFFFFFFFFFFFFFFFFFFFFFFFFFF5D576E7357A4501DDFE92F46681B20A0) {... */\n    tag_364:\n        /* \"@openzeppelin/contracts/utils/cryptography/ECDSA.sol\":6457:6481  ecrecover(hash, v, r, s) */\n      0x40\n      dup1\n      mload\n        /* \"@openzeppelin/contracts/utils/cryptography/ECDSA.sol\":6440:6454  address signer */\n      0x00\n        /* \"@openzeppelin/contracts/utils/cryptography/ECDSA.sol\":6457:6481  ecrecover(hash, v, r, s) */\n      dup1\n      dup3\n      mstore\n      0x20\n      dup3\n      add\n      dup1\n      dup5\n      mstore\n        /* \"#utility.yul\":8777:8802   */\n      dup11\n      swap1\n      mstore\n        /* \"#utility.yul\":8850:8854   */\n      0xff\n        /* \"#utility.yul\":8838:8855   */\n      dup10\n      and\n        /* \"#utility.yul\":8818:8836   */\n      swap3\n      dup3\n      add\n        /* \"#utility.yul\":8811:8856   */\n      swap3\n      swap1\n      swap3\n      mstore\n        /* \"#utility.yul\":8872:8890   */\n      0x60\n      dup2\n      add\n        /* \"#utility.yul\":8865:8899   */\n      dup8\n      swap1\n      mstore\n        /* \"#utility.yul\":8915:8933   */\n      0x80\n      dup2\n      add\n        /* \"#utility.yul\":8908:8942   */\n      dup7\n      swap1\n      mstore\n        /* \"@openzeppelin/contracts/utils/cryptography/ECDSA.sol\":6457:6481  ecrecover(hash, v, r, s) */\n      0x01\n      swap1\n        /* \"#utility.yul\":8749:8768   */\n      0xa0\n      add\n        /* \"@openzeppelin/contracts/utils/cryptography/ECDSA.sol\":6457:6481  ecrecover(hash, v, r, s) */\n      0x20\n      mload(0x40)\n      0x20\n      dup2\n      sub\n      swap1\n      dup1\n      dup5\n      sub\n      swap1\n      dup6\n      gas\n      staticcall\n      iszero\n      dup1\n      iszero\n      tag_368\n      jumpi\n      returndatasize\n      0x00\n      dup1\n      returndatacopy\n      revert(0x00, returndatasize)\n    tag_368:\n      pop\n      pop\n      mload(add(not(0x1f), mload(0x40)))\n      swap2\n      pop\n      pop\n      sub(shl(0xa0, 0x01), 0x01)\n        /* \"@openzeppelin/contracts/utils/cryptography/ECDSA.sol\":6495:6515  signer == address(0) */\n      dup2\n      and\n        /* \"@openzeppelin/contracts/utils/cryptography/ECDSA.sol\":6491:6604  if (signer == address(0)) {... */\n      tag_369\n      jumpi\n      pop\n        /* \"@openzeppelin/contracts/utils/cryptography/ECDSA.sol\":6547:6548  0 */\n      0x00\n      swap3\n      pop\n        /* \"@openzeppelin/contracts/utils/cryptography/ECDSA.sol\":6551:6580  RecoverError.InvalidSignature */\n      0x01\n      swap2\n      pop\n        /* \"@openzeppelin/contracts/utils/cryptography/ECDSA.sol\":6547:6548  0 */\n      dup3\n      swap1\n      pop\n        /* \"@openzeppelin/contracts/utils/cryptography/ECDSA.sol\":6531:6593  return (address(0), RecoverError.InvalidSignature, bytes32(0)) */\n      jump(tag_363)\n        /* \"@openzeppelin/contracts/utils/cryptography/ECDSA.sol\":6491:6604  if (signer == address(0)) {... */\n    tag_369:\n        /* \"@openzeppelin/contracts/utils/cryptography/ECDSA.sol\":6622:6628  signer */\n      swap3\n      pop\n        /* \"@openzeppelin/contracts/utils/cryptography/ECDSA.sol\":6630:6650  RecoverError.NoError */\n      0x00\n      swap2\n      pop\n      dup2\n      swap1\n      pop\n        /* \"@openzeppelin/contracts/utils/cryptography/ECDSA.sol\":5140:6670  function tryRecover(... */\n    tag_363:\n      swap5\n      pop\n      swap5\n      pop\n      swap5\n      swap2\n      pop\n      pop\n      jump\t// out\n        /* \"@openzeppelin/contracts/utils/cryptography/ECDSA.sol\":7196:7728  function _throwError(RecoverError error, bytes32 errorArg) private pure {... */\n    tag_327:\n        /* \"@openzeppelin/contracts/utils/cryptography/ECDSA.sol\":7291:7311  RecoverError.NoError */\n      0x00\n        /* \"@openzeppelin/contracts/utils/cryptography/ECDSA.sol\":7282:7287  error */\n      dup3\n        /* \"@openzeppelin/contracts/utils/cryptography/ECDSA.sol\":7282:7311  error == RecoverError.NoError */\n      0x03\n      dup2\n      gt\n      iszero\n      tag_375\n      jumpi\n      tag_375\n      tag_373\n      jump\t// in\n    tag_375:\n      sub\n        /* \"@openzeppelin/contracts/utils/cryptography/ECDSA.sol\":7278:7722  if (error == RecoverError.NoError) {... */\n      tag_376\n      jumpi\n        /* \"@openzeppelin/contracts/utils/cryptography/ECDSA.sol\":7196:7728  function _throwError(RecoverError error, bytes32 errorArg) private pure {... */\n      pop\n      pop\n      jump\t// out\n        /* \"@openzeppelin/contracts/utils/cryptography/ECDSA.sol\":7278:7722  if (error == RecoverError.NoError) {... */\n    tag_376:\n        /* \"@openzeppelin/contracts/utils/cryptography/ECDSA.sol\":7387:7416  RecoverError.InvalidSignature */\n      0x01\n        /* \"@openzeppelin/contracts/utils/cryptography/ECDSA.sol\":7378:7383  error */\n      dup3\n        /* \"@openzeppelin/contracts/utils/cryptography/ECDSA.sol\":7378:7416  error == RecoverError.InvalidSignature */\n      0x03\n      dup2\n      gt\n      iszero\n      tag_381\n      jumpi\n      tag_381\n      tag_373\n      jump\t// in\n    tag_381:\n      sub\n        /* \"@openzeppelin/contracts/utils/cryptography/ECDSA.sol\":7374:7722  if (error == RecoverError.InvalidSignature) {... */\n      tag_382\n      jumpi\n        /* \"@openzeppelin/contracts/utils/cryptography/ECDSA.sol\":7439:7462  ECDSAInvalidSignature() */\n      mload(0x40)\n      shl(0xe0, 0xf645eedf)\n      dup2\n      mstore\n      0x04\n      add\n      mload(0x40)\n      dup1\n      swap2\n      sub\n      swap1\n      revert\n        /* \"@openzeppelin/contracts/utils/cryptography/ECDSA.sol\":7374:7722  if (error == RecoverError.InvalidSignature) {... */\n    tag_382:\n        /* \"@openzeppelin/contracts/utils/cryptography/ECDSA.sol\":7492:7527  RecoverError.InvalidSignatureLength */\n      0x02\n        /* \"@openzeppelin/contracts/utils/cryptography/ECDSA.sol\":7483:7488  error */\n      dup3\n        /* \"@openzeppelin/contracts/utils/cryptography/ECDSA.sol\":7483:7527  error == RecoverError.InvalidSignatureLength */\n      0x03\n      dup2\n      gt\n      iszero\n      tag_387\n      jumpi\n      tag_387\n      tag_373\n      jump\t// in\n    tag_387:\n      sub\n        /* \"@openzeppelin/contracts/utils/cryptography/ECDSA.sol\":7479:7722  if (error == RecoverError.InvalidSignatureLength) {... */\n      tag_388\n      jumpi\n        /* \"@openzeppelin/contracts/utils/cryptography/ECDSA.sol\":7550:7596  ECDSAInvalidSignatureLength(uint256(errorArg)) */\n      mload(0x40)\n      shl(0xe0, 0xfce698f7)\n      dup2\n      mstore\n      0x04\n      dup2\n      add\n        /* \"#utility.yul\":1645:1670   */\n      dup3\n      swap1\n      mstore\n        /* \"#utility.yul\":1618:1636   */\n      0x24\n      add\n        /* \"@openzeppelin/contracts/utils/cryptography/ECDSA.sol\":7550:7596  ECDSAInvalidSignatureLength(uint256(errorArg)) */\n      tag_233\n        /* \"#utility.yul\":1499:1676   */\n      jump\n        /* \"@openzeppelin/contracts/utils/cryptography/ECDSA.sol\":7479:7722  if (error == RecoverError.InvalidSignatureLength) {... */\n    tag_388:\n        /* \"@openzeppelin/contracts/utils/cryptography/ECDSA.sol\":7626:7656  RecoverError.InvalidSignatureS */\n      0x03\n        /* \"@openzeppelin/contracts/utils/cryptography/ECDSA.sol\":7617:7622  error */\n      dup3\n        /* \"@openzeppelin/contracts/utils/cryptography/ECDSA.sol\":7617:7656  error == RecoverError.InvalidSignatureS */\n      0x03\n      dup2\n      gt\n      iszero\n      tag_394\n      jumpi\n      tag_394\n      tag_373\n      jump\t// in\n    tag_394:\n      sub\n        /* \"@openzeppelin/contracts/utils/cryptography/ECDSA.sol\":7613:7722  if (error == RecoverError.InvalidSignatureS) {... */\n      tag_203\n      jumpi\n        /* \"@openzeppelin/contracts/utils/cryptography/ECDSA.sol\":7679:7711  ECDSAInvalidSignatureS(errorArg) */\n      mload(0x40)\n      shl(0xe2, 0x35e2f383)\n      dup2\n      mstore\n      0x04\n      dup2\n      add\n        /* \"#utility.yul\":1645:1670   */\n      dup3\n      swap1\n      mstore\n        /* \"#utility.yul\":1618:1636   */\n      0x24\n      add\n        /* \"@openzeppelin/contracts/utils/cryptography/ECDSA.sol\":7679:7711  ECDSAInvalidSignatureS(errorArg) */\n      tag_233\n        /* \"#utility.yul\":1499:1676   */\n      jump\n        /* \"@openzeppelin/contracts/token/ERC20/extensions/ERC20Pausable.sol\":1112:1257  function _update(address from, address to, uint256 value) internal virtual override whenNotPaused {... */\n    tag_337:\n        /* \"@openzeppelin/contracts/utils/Pausable.sol\":1474:1493  _requireNotPaused() */\n      tag_398\n        /* \"@openzeppelin/contracts/utils/Pausable.sol\":1474:1491  _requireNotPaused */\n      tag_309\n        /* \"@openzeppelin/contracts/utils/Pausable.sol\":1474:1493  _requireNotPaused() */\n      jump\t// in\n    tag_398:\n        /* \"@openzeppelin/contracts/token/ERC20/extensions/ERC20Pausable.sol\":1220:1250  super._update(from, to, value) */\n      tag_182\n        /* \"@openzeppelin/contracts/token/ERC20/extensions/ERC20Pausable.sol\":1234:1238  from */\n      dup4\n        /* \"@openzeppelin/contracts/token/ERC20/extensions/ERC20Pausable.sol\":1240:1242  to */\n      dup4\n        /* \"@openzeppelin/contracts/token/ERC20/extensions/ERC20Pausable.sol\":1244:1249  value */\n      dup4\n        /* \"@openzeppelin/contracts/token/ERC20/extensions/ERC20Pausable.sol\":1220:1233  super._update */\n      tag_401\n        /* \"@openzeppelin/contracts/token/ERC20/extensions/ERC20Pausable.sol\":1220:1250  super._update(from, to, value) */\n      jump\t// in\n        /* \"@openzeppelin/contracts/utils/ShortStrings.sol\":2078:2483  function toString(ShortString sstr) internal pure returns (string memory) {... */\n    tag_355:\n        /* \"@openzeppelin/contracts/utils/ShortStrings.sol\":2137:2150  string memory */\n      0x60\n        /* \"@openzeppelin/contracts/utils/ShortStrings.sol\":2162:2173  uint256 len */\n      0x00\n        /* \"@openzeppelin/contracts/utils/ShortStrings.sol\":2176:2192  byteLength(sstr) */\n      tag_403\n        /* \"@openzeppelin/contracts/utils/ShortStrings.sol\":2187:2191  sstr */\n      dup4\n        /* \"@openzeppelin/contracts/utils/ShortStrings.sol\":2176:2186  byteLength */\n      tag_404\n        /* \"@openzeppelin/contracts/utils/ShortStrings.sol\":2176:2192  byteLength(sstr) */\n      jump\t// in\n    tag_403:\n        /* \"@openzeppelin/contracts/utils/ShortStrings.sol\":2300:2314  new string(32) */\n      0x40\n      dup1\n      mload\n        /* \"@openzeppelin/contracts/utils/ShortStrings.sol\":2311:2313  32 */\n      0x20\n        /* \"@openzeppelin/contracts/utils/ShortStrings.sol\":2300:2314  new string(32) */\n      dup1\n      dup3\n      mstore\n      dup2\n      dup4\n      add\n      swap1\n      swap3\n      mstore\n        /* \"@openzeppelin/contracts/utils/ShortStrings.sol\":2162:2192  uint256 len = byteLength(sstr) */\n      swap2\n      swap3\n      pop\n        /* \"@openzeppelin/contracts/utils/ShortStrings.sol\":2280:2297  string memory str */\n      0x00\n      swap2\n        /* \"@openzeppelin/contracts/utils/ShortStrings.sol\":2300:2314  new string(32) */\n      swap1\n      0x20\n      dup3\n      add\n      dup2\n      dup1\n      calldatasize\n      dup4\n      calldatacopy\n      pop\n      pop\n      pop\n        /* \"@openzeppelin/contracts/utils/ShortStrings.sol\":2390:2406  mstore(str, len) */\n      swap2\n      dup3\n      mstore\n      pop\n        /* \"@openzeppelin/contracts/utils/ShortStrings.sol\":2435:2439  0x20 */\n      0x20\n        /* \"@openzeppelin/contracts/utils/ShortStrings.sol\":2426:2440  add(str, 0x20) */\n      dup2\n      add\n        /* \"@openzeppelin/contracts/utils/ShortStrings.sol\":2419:2447  mstore(add(str, 0x20), sstr) */\n      swap3\n      swap1\n      swap3\n      mstore\n      pop\n        /* \"@openzeppelin/contracts/utils/ShortStrings.sol\":2390:2406  mstore(str, len) */\n      swap1\n        /* \"@openzeppelin/contracts/utils/ShortStrings.sol\":2078:2483  function toString(ShortString sstr) internal pure returns (string memory) {... */\n      jump\t// out\n        /* \"@openzeppelin/contracts/token/ERC20/ERC20.sol\":6271:7378  function _update(address from, address to, uint256 value) internal virtual {... */\n    tag_401:\n      sub(shl(0xa0, 0x01), 0x01)\n        /* \"@openzeppelin/contracts/token/ERC20/ERC20.sol\":6360:6378  from == address(0) */\n      dup4\n      and\n        /* \"@openzeppelin/contracts/token/ERC20/ERC20.sol\":6356:6896  if (from == address(0)) {... */\n      tag_409\n      jumpi\n        /* \"@openzeppelin/contracts/token/ERC20/ERC20.sol\":6512:6517  value */\n      dup1\n        /* \"@openzeppelin/contracts/token/ERC20/ERC20.sol\":6496:6508  _totalSupply */\n      0x02\n      0x00\n        /* \"@openzeppelin/contracts/token/ERC20/ERC20.sol\":6496:6517  _totalSupply += value */\n      dup3\n      dup3\n      sload\n      tag_410\n      swap2\n      swap1\n      tag_411\n      jump\t// in\n    tag_410:\n      swap1\n      swap2\n      sstore\n      pop\n        /* \"@openzeppelin/contracts/token/ERC20/ERC20.sol\":6356:6896  if (from == address(0)) {... */\n      tag_412\n      swap1\n      pop\n      jump\n    tag_409:\n      sub(shl(0xa0, 0x01), 0x01)\n        /* \"@openzeppelin/contracts/token/ERC20/ERC20.sol\":6570:6585  _balances[from] */\n      dup4\n      and\n        /* \"@openzeppelin/contracts/token/ERC20/ERC20.sol\":6548:6567  uint256 fromBalance */\n      0x00\n        /* \"@openzeppelin/contracts/token/ERC20/ERC20.sol\":6570:6585  _balances[from] */\n      swap1\n      dup2\n      mstore\n      0x20\n      dup2\n      swap1\n      mstore\n      0x40\n      swap1\n      keccak256\n      sload\n        /* \"@openzeppelin/contracts/token/ERC20/ERC20.sol\":6603:6622  fromBalance < value */\n      dup2\n      dup2\n      lt\n        /* \"@openzeppelin/contracts/token/ERC20/ERC20.sol\":6599:6714  if (fromBalance < value) {... */\n      iszero\n      tag_413\n      jumpi\n        /* \"@openzeppelin/contracts/token/ERC20/ERC20.sol\":6649:6699  ERC20InsufficientBalance(from, fromBalance, value) */\n      mload(0x40)\n      shl(0xe2, 0x391434e3)\n      dup2\n      mstore\n      sub(shl(0xa0, 0x01), 0x01)\n        /* \"#utility.yul\":7439:7471   */\n      dup6\n      and\n        /* \"@openzeppelin/contracts/token/ERC20/ERC20.sol\":6649:6699  ERC20InsufficientBalance(from, fromBalance, value) */\n      0x04\n      dup3\n      add\n        /* \"#utility.yul\":7421:7472   */\n      mstore\n        /* \"#utility.yul\":7488:7506   */\n      0x24\n      dup2\n      add\n        /* \"#utility.yul\":7481:7515   */\n      dup3\n      swap1\n      mstore\n        /* \"#utility.yul\":7531:7549   */\n      0x44\n      dup2\n      add\n        /* \"#utility.yul\":7524:7558   */\n      dup4\n      swap1\n      mstore\n        /* \"#utility.yul\":7394:7412   */\n      0x64\n      add\n        /* \"@openzeppelin/contracts/token/ERC20/ERC20.sol\":6649:6699  ERC20InsufficientBalance(from, fromBalance, value) */\n      tag_233\n        /* \"#utility.yul\":7219:7564   */\n      jump\n        /* \"@openzeppelin/contracts/token/ERC20/ERC20.sol\":6599:6714  if (fromBalance < value) {... */\n    tag_413:\n      sub(shl(0xa0, 0x01), 0x01)\n        /* \"@openzeppelin/contracts/token/ERC20/ERC20.sol\":6834:6849  _balances[from] */\n      dup5\n      and\n        /* \"@openzeppelin/contracts/token/ERC20/ERC20.sol\":6834:6843  _balances */\n      0x00\n        /* \"@openzeppelin/contracts/token/ERC20/ERC20.sol\":6834:6849  _balances[from] */\n      swap1\n      dup2\n      mstore\n      0x20\n      dup2\n      swap1\n      mstore\n      0x40\n      swap1\n      keccak256\n        /* \"@openzeppelin/contracts/token/ERC20/ERC20.sol\":6852:6871  fromBalance - value */\n      swap1\n      dup3\n      swap1\n      sub\n        /* \"@openzeppelin/contracts/token/ERC20/ERC20.sol\":6834:6871  _balances[from] = fromBalance - value */\n      swap1\n      sstore\n        /* \"@openzeppelin/contracts/token/ERC20/ERC20.sol\":6356:6896  if (from == address(0)) {... */\n    tag_412:\n      sub(shl(0xa0, 0x01), 0x01)\n        /* \"@openzeppelin/contracts/token/ERC20/ERC20.sol\":6910:6926  to == address(0) */\n      dup3\n      and\n        /* \"@openzeppelin/contracts/token/ERC20/ERC20.sol\":6906:7331  if (to == address(0)) {... */\n      tag_415\n      jumpi\n        /* \"@openzeppelin/contracts/token/ERC20/ERC20.sol\":7073:7085  _totalSupply */\n      0x02\n        /* \"@openzeppelin/contracts/token/ERC20/ERC20.sol\":7073:7094  _totalSupply -= value */\n      dup1\n      sload\n      dup3\n      swap1\n      sub\n      swap1\n      sstore\n        /* \"@openzeppelin/contracts/token/ERC20/ERC20.sol\":6906:7331  if (to == address(0)) {... */\n      jump(tag_416)\n    tag_415:\n      sub(shl(0xa0, 0x01), 0x01)\n        /* \"@openzeppelin/contracts/token/ERC20/ERC20.sol\":7284:7297  _balances[to] */\n      dup3\n      and\n        /* \"@openzeppelin/contracts/token/ERC20/ERC20.sol\":7284:7293  _balances */\n      0x00\n        /* \"@openzeppelin/contracts/token/ERC20/ERC20.sol\":7284:7297  _balances[to] */\n      swap1\n      dup2\n      mstore\n      0x20\n      dup2\n      swap1\n      mstore\n      0x40\n      swap1\n      keccak256\n        /* \"@openzeppelin/contracts/token/ERC20/ERC20.sol\":7284:7306  _balances[to] += value */\n      dup1\n      sload\n      dup3\n      add\n      swap1\n      sstore\n        /* \"@openzeppelin/contracts/token/ERC20/ERC20.sol\":6906:7331  if (to == address(0)) {... */\n    tag_416:\n        /* \"@openzeppelin/contracts/token/ERC20/ERC20.sol\":7361:7363  to */\n      dup2\n      sub(shl(0xa0, 0x01), 0x01)\n        /* \"@openzeppelin/contracts/token/ERC20/ERC20.sol\":7346:7371  Transfer(from, to, value) */\n      and\n        /* \"@openzeppelin/contracts/token/ERC20/ERC20.sol\":7355:7359  from */\n      dup4\n      sub(shl(0xa0, 0x01), 0x01)\n        /* \"@openzeppelin/contracts/token/ERC20/ERC20.sol\":7346:7371  Transfer(from, to, value) */\n      and\n      0xddf252ad1be2c89b69c2b068fc378daa952ba7f163c4a11628f55a4df523b3ef\n        /* \"@openzeppelin/contracts/token/ERC20/ERC20.sol\":7365:7370  value */\n      dup4\n        /* \"@openzeppelin/contracts/token/ERC20/ERC20.sol\":7346:7371  Transfer(from, to, value) */\n      mload(0x40)\n      tag_417\n      swap2\n        /* \"#utility.yul\":1645:1670   */\n      dup2\n      mstore\n        /* \"#utility.yul\":1633:1635   */\n      0x20\n        /* \"#utility.yul\":1618:1636   */\n      add\n      swap1\n        /* \"#utility.yul\":1499:1676   */\n      jump\n        /* \"@openzeppelin/contracts/token/ERC20/ERC20.sol\":7346:7371  Transfer(from, to, value) */\n    tag_417:\n      mload(0x40)\n      dup1\n      swap2\n      sub\n      swap1\n      log3\n        /* \"@openzeppelin/contracts/token/ERC20/ERC20.sol\":6271:7378  function _update(address from, address to, uint256 value) internal virtual {... */\n      pop\n      pop\n      pop\n      jump\t// out\n        /* \"@openzeppelin/contracts/utils/ShortStrings.sol\":2555:2800  function byteLength(ShortString sstr) internal pure returns (uint256) {... */\n    tag_404:\n        /* \"@openzeppelin/contracts/utils/ShortStrings.sol\":2616:2623  uint256 */\n      0x00\n        /* \"@openzeppelin/contracts/utils/ShortStrings.sol\":2688:2692  0xFF */\n      0xff\n        /* \"@openzeppelin/contracts/utils/ShortStrings.sol\":2652:2692  uint256(ShortString.unwrap(sstr)) & 0xFF */\n      dup3\n      and\n        /* \"@openzeppelin/contracts/utils/ShortStrings.sol\":2715:2717  31 */\n      0x1f\n        /* \"@openzeppelin/contracts/utils/ShortStrings.sol\":2706:2717  result > 31 */\n      dup2\n      gt\n        /* \"@openzeppelin/contracts/utils/ShortStrings.sol\":2702:2771  if (result > 31) {... */\n      iszero\n      tag_146\n      jumpi\n        /* \"@openzeppelin/contracts/utils/ShortStrings.sol\":2740:2760  InvalidShortString() */\n      mload(0x40)\n      shl(0xe2, 0x2cd44ac3)\n      dup2\n      mstore\n      0x04\n      add\n      mload(0x40)\n      dup1\n      swap2\n      sub\n      swap1\n      revert\n        /* \"#utility.yul\":14:300   */\n    tag_40:\n        /* \"#utility.yul\":72:78   */\n      0x00\n        /* \"#utility.yul\":125:127   */\n      0x20\n        /* \"#utility.yul\":113:122   */\n      dup3\n        /* \"#utility.yul\":104:111   */\n      dup5\n        /* \"#utility.yul\":100:123   */\n      sub\n        /* \"#utility.yul\":96:128   */\n      slt\n        /* \"#utility.yul\":93:145   */\n      iszero\n      tag_424\n      jumpi\n        /* \"#utility.yul\":141:142   */\n      0x00\n        /* \"#utility.yul\":138:139   */\n      dup1\n        /* \"#utility.yul\":131:143   */\n      revert\n        /* \"#utility.yul\":93:145   */\n    tag_424:\n        /* \"#utility.yul\":167:190   */\n      dup2\n      calldataload\n      not(sub(shl(0xe0, 0x01), 0x01))\n        /* \"#utility.yul\":219:251   */\n      dup2\n      and\n        /* \"#utility.yul\":209:252   */\n      dup2\n      eq\n        /* \"#utility.yul\":199:270   */\n      tag_425\n      jumpi\n        /* \"#utility.yul\":266:267   */\n      0x00\n        /* \"#utility.yul\":263:264   */\n      dup1\n        /* \"#utility.yul\":256:268   */\n      revert\n        /* \"#utility.yul\":199:270   */\n    tag_425:\n        /* \"#utility.yul\":289:294   */\n      swap4\n        /* \"#utility.yul\":14:300   */\n      swap3\n      pop\n      pop\n      pop\n      jump\t// out\n        /* \"#utility.yul\":497:786   */\n    tag_420:\n        /* \"#utility.yul\":539:542   */\n      0x00\n        /* \"#utility.yul\":577:582   */\n      dup2\n        /* \"#utility.yul\":571:583   */\n      mload\n        /* \"#utility.yul\":604:610   */\n      dup1\n        /* \"#utility.yul\":599:602   */\n      dup5\n        /* \"#utility.yul\":592:611   */\n      mstore\n        /* \"#utility.yul\":660:666   */\n      dup1\n        /* \"#utility.yul\":653:657   */\n      0x20\n        /* \"#utility.yul\":646:651   */\n      dup5\n        /* \"#utility.yul\":642:658   */\n      add\n        /* \"#utility.yul\":635:639   */\n      0x20\n        /* \"#utility.yul\":630:633   */\n      dup7\n        /* \"#utility.yul\":626:640   */\n      add\n        /* \"#utility.yul\":620:667   */\n      mcopy\n        /* \"#utility.yul\":712:713   */\n      0x00\n        /* \"#utility.yul\":705:709   */\n      0x20\n        /* \"#utility.yul\":696:702   */\n      dup3\n        /* \"#utility.yul\":691:694   */\n      dup7\n        /* \"#utility.yul\":687:703   */\n      add\n        /* \"#utility.yul\":683:710   */\n      add\n        /* \"#utility.yul\":676:714   */\n      mstore\n        /* \"#utility.yul\":775:779   */\n      0x20\n        /* \"#utility.yul\":768:770   */\n      0x1f\n        /* \"#utility.yul\":764:771   */\n      not\n        /* \"#utility.yul\":759:761   */\n      0x1f\n        /* \"#utility.yul\":751:757   */\n      dup4\n        /* \"#utility.yul\":747:762   */\n      add\n        /* \"#utility.yul\":743:772   */\n      and\n        /* \"#utility.yul\":738:741   */\n      dup6\n        /* \"#utility.yul\":734:773   */\n      add\n        /* \"#utility.yul\":730:780   */\n      add\n        /* \"#utility.yul\":723:780   */\n      swap2\n      pop\n      pop\n        /* \"#utility.yul\":497:786   */\n      swap3\n      swap2\n      pop\n      pop\n      jump\t// out\n        /* \"#utility.yul\":791:1011   */\n    tag_47:\n        /* \"#utility.yul\":940:942   */\n      0x20\n        /* \"#utility.yul\":929:938   */\n      dup2\n        /* \"#utility.yul\":922:943   */\n      mstore\n        /* \"#utility.yul\":903:907   */\n      0x00\n        /* \"#utility.yul\":960:1005   */\n      tag_425\n        /* \"#utility.yul\":1001:1003   */\n      0x20\n        /* \"#utility.yul\":990:999   */\n      dup4\n        /* \"#utility.yul\":986:1004   */\n      add\n        /* \"#utility.yul\":978:984   */\n      dup5\n        /* \"#utility.yul\":960:1005   */\n      tag_420\n      jump\t// in\n        /* \"#utility.yul\":1016:1189   */\n    tag_421:\n        /* \"#utility.yul\":1084:1104   */\n      dup1\n      calldataload\n      sub(shl(0xa0, 0x01), 0x01)\n        /* \"#utility.yul\":1133:1164   */\n      dup2\n      and\n        /* \"#utility.yul\":1123:1165   */\n      dup2\n      eq\n        /* \"#utility.yul\":1113:1183   */\n      tag_431\n      jumpi\n        /* \"#utility.yul\":1179:1180   */\n      0x00\n        /* \"#utility.yul\":1176:1177   */\n      dup1\n        /* \"#utility.yul\":1169:1181   */\n      revert\n        /* \"#utility.yul\":1113:1183   */\n    tag_431:\n        /* \"#utility.yul\":1016:1189   */\n      swap2\n      swap1\n      pop\n      jump\t// out\n        /* \"#utility.yul\":1194:1494   */\n    tag_50:\n        /* \"#utility.yul\":1262:1268   */\n      0x00\n        /* \"#utility.yul\":1270:1276   */\n      dup1\n        /* \"#utility.yul\":1323:1325   */\n      0x40\n        /* \"#utility.yul\":1311:1320   */\n      dup4\n        /* \"#utility.yul\":1302:1309   */\n      dup6\n        /* \"#utility.yul\":1298:1321   */\n      sub\n        /* \"#utility.yul\":1294:1326   */\n      slt\n        /* \"#utility.yul\":1291:1343   */\n      iszero\n      tag_433\n      jumpi\n        /* \"#utility.yul\":1339:1340   */\n      0x00\n        /* \"#utility.yul\":1336:1337   */\n      dup1\n        /* \"#utility.yul\":1329:1341   */\n      revert\n        /* \"#utility.yul\":1291:1343   */\n    tag_433:\n        /* \"#utility.yul\":1362:1391   */\n      tag_434\n        /* \"#utility.yul\":1381:1390   */\n      dup4\n        /* \"#utility.yul\":1362:1391   */\n      tag_421\n      jump\t// in\n    tag_434:\n        /* \"#utility.yul\":1352:1391   */\n      swap5\n        /* \"#utility.yul\":1460:1462   */\n      0x20\n        /* \"#utility.yul\":1445:1463   */\n      swap4\n      swap1\n      swap4\n      add\n        /* \"#utility.yul\":1432:1464   */\n      calldataload\n      swap4\n      pop\n      pop\n      pop\n        /* \"#utility.yul\":1194:1494   */\n      jump\t// out\n        /* \"#utility.yul\":1681:2055   */\n    tag_59:\n        /* \"#utility.yul\":1758:1764   */\n      0x00\n        /* \"#utility.yul\":1766:1772   */\n      dup1\n        /* \"#utility.yul\":1774:1780   */\n      0x00\n        /* \"#utility.yul\":1827:1829   */\n      0x60\n        /* \"#utility.yul\":1815:1824   */\n      dup5\n        /* \"#utility.yul\":1806:1813   */\n      dup7\n        /* \"#utility.yul\":1802:1825   */\n      sub\n        /* \"#utility.yul\":1798:1830   */\n      slt\n        /* \"#utility.yul\":1795:1847   */\n      iszero\n      tag_437\n      jumpi\n        /* \"#utility.yul\":1843:1844   */\n      0x00\n        /* \"#utility.yul\":1840:1841   */\n      dup1\n        /* \"#utility.yul\":1833:1845   */\n      revert\n        /* \"#utility.yul\":1795:1847   */\n    tag_437:\n        /* \"#utility.yul\":1866:1895   */\n      tag_438\n        /* \"#utility.yul\":1885:1894   */\n      dup5\n        /* \"#utility.yul\":1866:1895   */\n      tag_421\n      jump\t// in\n    tag_438:\n        /* \"#utility.yul\":1856:1895   */\n      swap3\n      pop\n        /* \"#utility.yul\":1914:1952   */\n      tag_439\n        /* \"#utility.yul\":1948:1950   */\n      0x20\n        /* \"#utility.yul\":1937:1946   */\n      dup6\n        /* \"#utility.yul\":1933:1951   */\n      add\n        /* \"#utility.yul\":1914:1952   */\n      tag_421\n      jump\t// in\n    tag_439:\n        /* \"#utility.yul\":1681:2055   */\n      swap3\n      swap6\n        /* \"#utility.yul\":1904:1952   */\n      swap3\n      swap5\n      pop\n      pop\n      pop\n        /* \"#utility.yul\":2021:2023   */\n      0x40\n        /* \"#utility.yul\":2006:2024   */\n      swap2\n      swap1\n      swap2\n      add\n        /* \"#utility.yul\":1993:2025   */\n      calldataload\n      swap1\n        /* \"#utility.yul\":1681:2055   */\n      jump\t// out\n        /* \"#utility.yul\":2060:2286   */\n    tag_64:\n        /* \"#utility.yul\":2119:2125   */\n      0x00\n        /* \"#utility.yul\":2172:2174   */\n      0x20\n        /* \"#utility.yul\":2160:2169   */\n      dup3\n        /* \"#utility.yul\":2151:2158   */\n      dup5\n        /* \"#utility.yul\":2147:2170   */\n      sub\n        /* \"#utility.yul\":2143:2175   */\n      slt\n        /* \"#utility.yul\":2140:2192   */\n      iszero\n      tag_441\n      jumpi\n        /* \"#utility.yul\":2188:2189   */\n      0x00\n        /* \"#utility.yul\":2185:2186   */\n      dup1\n        /* \"#utility.yul\":2178:2190   */\n      revert\n        /* \"#utility.yul\":2140:2192   */\n    tag_441:\n      pop\n        /* \"#utility.yul\":2233:2256   */\n      calldataload\n      swap2\n        /* \"#utility.yul\":2060:2286   */\n      swap1\n      pop\n      jump\t// out\n        /* \"#utility.yul\":2473:2773   */\n    tag_70:\n        /* \"#utility.yul\":2541:2547   */\n      0x00\n        /* \"#utility.yul\":2549:2555   */\n      dup1\n        /* \"#utility.yul\":2602:2604   */\n      0x40\n        /* \"#utility.yul\":2590:2599   */\n      dup4\n        /* \"#utility.yul\":2581:2588   */\n      dup6\n        /* \"#utility.yul\":2577:2600   */\n      sub\n        /* \"#utility.yul\":2573:2605   */\n      slt\n        /* \"#utility.yul\":2570:2622   */\n      iszero\n      tag_444\n      jumpi\n        /* \"#utility.yul\":2618:2619   */\n      0x00\n        /* \"#utility.yul\":2615:2616   */\n      dup1\n        /* \"#utility.yul\":2608:2620   */\n      revert\n        /* \"#utility.yul\":2570:2622   */\n    tag_444:\n        /* \"#utility.yul\":2663:2686   */\n      dup3\n      calldataload\n      swap2\n      pop\n        /* \"#utility.yul\":2729:2767   */\n      tag_445\n        /* \"#utility.yul\":2763:2765   */\n      0x20\n        /* \"#utility.yul\":2748:2766   */\n      dup5\n      add\n        /* \"#utility.yul\":2729:2767   */\n      tag_421\n      jump\t// in\n    tag_445:\n        /* \"#utility.yul\":2719:2767   */\n      swap1\n      pop\n        /* \"#utility.yul\":2473:2773   */\n      swap3\n      pop\n      swap3\n      swap1\n      pop\n      jump\t// out\n        /* \"#utility.yul\":3198:3384   */\n    tag_96:\n        /* \"#utility.yul\":3257:3263   */\n      0x00\n        /* \"#utility.yul\":3310:3312   */\n      0x20\n        /* \"#utility.yul\":3298:3307   */\n      dup3\n        /* \"#utility.yul\":3289:3296   */\n      dup5\n        /* \"#utility.yul\":3285:3308   */\n      sub\n        /* \"#utility.yul\":3281:3313   */\n      slt\n        /* \"#utility.yul\":3278:3330   */\n      iszero\n      tag_450\n      jumpi\n        /* \"#utility.yul\":3326:3327   */\n      0x00\n        /* \"#utility.yul\":3323:3324   */\n      dup1\n        /* \"#utility.yul\":3316:3328   */\n      revert\n        /* \"#utility.yul\":3278:3330   */\n    tag_450:\n        /* \"#utility.yul\":3349:3378   */\n      tag_425\n        /* \"#utility.yul\":3368:3377   */\n      dup3\n        /* \"#utility.yul\":3349:3378   */\n      tag_421\n      jump\t// in\n        /* \"#utility.yul\":3389:4627   */\n    tag_111:\n        /* \"#utility.yul\":3795:3798   */\n      0xff\n        /* \"#utility.yul\":3790:3793   */\n      0xf8\n        /* \"#utility.yul\":3786:3799   */\n      shl\n        /* \"#utility.yul\":3778:3784   */\n      dup9\n        /* \"#utility.yul\":3774:3800   */\n      and\n        /* \"#utility.yul\":3763:3772   */\n      dup2\n        /* \"#utility.yul\":3756:3801   */\n      mstore\n        /* \"#utility.yul\":3837:3840   */\n      0xe0\n        /* \"#utility.yul\":3832:3834   */\n      0x20\n        /* \"#utility.yul\":3821:3830   */\n      dup3\n        /* \"#utility.yul\":3817:3835   */\n      add\n        /* \"#utility.yul\":3810:3841   */\n      mstore\n        /* \"#utility.yul\":3737:3741   */\n      0x00\n        /* \"#utility.yul\":3864:3910   */\n      tag_453\n        /* \"#utility.yul\":3905:3908   */\n      0xe0\n        /* \"#utility.yul\":3894:3903   */\n      dup4\n        /* \"#utility.yul\":3890:3909   */\n      add\n        /* \"#utility.yul\":3882:3888   */\n      dup10\n        /* \"#utility.yul\":3864:3910   */\n      tag_420\n      jump\t// in\n    tag_453:\n        /* \"#utility.yul\":3958:3967   */\n      dup3\n        /* \"#utility.yul\":3950:3956   */\n      dup2\n        /* \"#utility.yul\":3946:3968   */\n      sub\n        /* \"#utility.yul\":3941:3943   */\n      0x40\n        /* \"#utility.yul\":3930:3939   */\n      dup5\n        /* \"#utility.yul\":3926:3944   */\n      add\n        /* \"#utility.yul\":3919:3969   */\n      mstore\n        /* \"#utility.yul\":3992:4025   */\n      tag_454\n        /* \"#utility.yul\":4018:4024   */\n      dup2\n        /* \"#utility.yul\":4010:4016   */\n      dup10\n        /* \"#utility.yul\":3992:4025   */\n      tag_420\n      jump\t// in\n    tag_454:\n        /* \"#utility.yul\":4056:4058   */\n      0x60\n        /* \"#utility.yul\":4041:4059   */\n      dup5\n      add\n        /* \"#utility.yul\":4034:4068   */\n      dup9\n      swap1\n      mstore\n      sub(shl(0xa0, 0x01), 0x01)\n        /* \"#utility.yul\":4105:4137   */\n      dup8\n      and\n        /* \"#utility.yul\":4099:4102   */\n      0x80\n        /* \"#utility.yul\":4084:4103   */\n      dup6\n      add\n        /* \"#utility.yul\":4077:4138   */\n      mstore\n        /* \"#utility.yul\":4125:4128   */\n      0xa0\n        /* \"#utility.yul\":4154:4173   */\n      dup5\n      add\n        /* \"#utility.yul\":4147:4182   */\n      dup7\n      swap1\n      mstore\n        /* \"#utility.yul\":4219:4241   */\n      dup4\n      dup2\n      sub\n        /* \"#utility.yul\":4213:4216   */\n      0xc0\n        /* \"#utility.yul\":4198:4217   */\n      dup6\n      add\n        /* \"#utility.yul\":4191:4242   */\n      mstore\n        /* \"#utility.yul\":4291:4304   */\n      dup5\n      mload\n        /* \"#utility.yul\":4313:4335   */\n      dup1\n      dup3\n      mstore\n        /* \"#utility.yul\":4363:4365   */\n      0x20\n        /* \"#utility.yul\":4389:4404   */\n      dup1\n      dup8\n      add\n      swap4\n      pop\n        /* \"#utility.yul\":4351:4366   */\n      swap1\n      swap2\n      add\n      swap1\n      0x00\n        /* \"#utility.yul\":4432:4601   */\n    tag_455:\n        /* \"#utility.yul\":4446:4452   */\n      dup2\n        /* \"#utility.yul\":4443:4444   */\n      dup2\n        /* \"#utility.yul\":4440:4453   */\n      lt\n        /* \"#utility.yul\":4432:4601   */\n      iszero\n      tag_457\n      jumpi\n        /* \"#utility.yul\":4507:4520   */\n      dup4\n      mload\n        /* \"#utility.yul\":4495:4521   */\n      dup4\n      mstore\n        /* \"#utility.yul\":4550:4552   */\n      0x20\n        /* \"#utility.yul\":4576:4591   */\n      swap4\n      dup5\n      add\n      swap4\n        /* \"#utility.yul\":4541:4553   */\n      swap1\n      swap3\n      add\n      swap2\n        /* \"#utility.yul\":4468:4469   */\n      0x01\n        /* \"#utility.yul\":4461:4470   */\n      add\n        /* \"#utility.yul\":4432:4601   */\n      jump(tag_455)\n    tag_457:\n      pop\n        /* \"#utility.yul\":4618:4621   */\n      swap1\n      swap12\n        /* \"#utility.yul\":3389:4627   */\n      swap11\n      pop\n      pop\n      pop\n      pop\n      pop\n      pop\n      pop\n      pop\n      pop\n      pop\n      pop\n      jump\t// out\n        /* \"#utility.yul\":4632:5535   */\n    tag_128:\n        /* \"#utility.yul\":4743:4749   */\n      0x00\n        /* \"#utility.yul\":4751:4757   */\n      dup1\n        /* \"#utility.yul\":4759:4765   */\n      0x00\n        /* \"#utility.yul\":4767:4773   */\n      dup1\n        /* \"#utility.yul\":4775:4781   */\n      0x00\n        /* \"#utility.yul\":4783:4789   */\n      dup1\n        /* \"#utility.yul\":4791:4797   */\n      0x00\n        /* \"#utility.yul\":4844:4847   */\n      0xe0\n        /* \"#utility.yul\":4832:4841   */\n      dup9\n        /* \"#utility.yul\":4823:4830   */\n      dup11\n        /* \"#utility.yul\":4819:4842   */\n      sub\n        /* \"#utility.yul\":4815:4848   */\n      slt\n        /* \"#utility.yul\":4812:4865   */\n      iszero\n      tag_459\n      jumpi\n        /* \"#utility.yul\":4861:4862   */\n      0x00\n        /* \"#utility.yul\":4858:4859   */\n      dup1\n        /* \"#utility.yul\":4851:4863   */\n      revert\n        /* \"#utility.yul\":4812:4865   */\n    tag_459:\n        /* \"#utility.yul\":4884:4913   */\n      tag_460\n        /* \"#utility.yul\":4903:4912   */\n      dup9\n        /* \"#utility.yul\":4884:4913   */\n      tag_421\n      jump\t// in\n    tag_460:\n        /* \"#utility.yul\":4874:4913   */\n      swap7\n      pop\n        /* \"#utility.yul\":4932:4970   */\n      tag_461\n        /* \"#utility.yul\":4966:4968   */\n      0x20\n        /* \"#utility.yul\":4955:4964   */\n      dup10\n        /* \"#utility.yul\":4951:4969   */\n      add\n        /* \"#utility.yul\":4932:4970   */\n      tag_421\n      jump\t// in\n    tag_461:\n        /* \"#utility.yul\":4922:4970   */\n      swap6\n      pop\n        /* \"#utility.yul\":5039:5041   */\n      0x40\n        /* \"#utility.yul\":5024:5042   */\n      dup9\n      add\n        /* \"#utility.yul\":5011:5043   */\n      calldataload\n      swap5\n      pop\n        /* \"#utility.yul\":5140:5142   */\n      0x60\n        /* \"#utility.yul\":5125:5143   */\n      dup9\n      add\n        /* \"#utility.yul\":5112:5144   */\n      calldataload\n      swap4\n      pop\n        /* \"#utility.yul\":5222:5225   */\n      0x80\n        /* \"#utility.yul\":5207:5226   */\n      dup9\n      add\n        /* \"#utility.yul\":5194:5227   */\n      calldataload\n        /* \"#utility.yul\":5271:5275   */\n      0xff\n        /* \"#utility.yul\":5258:5276   */\n      dup2\n      and\n        /* \"#utility.yul\":5246:5277   */\n      dup2\n      eq\n        /* \"#utility.yul\":5236:5295   */\n      tag_462\n      jumpi\n        /* \"#utility.yul\":5291:5292   */\n      0x00\n        /* \"#utility.yul\":5288:5289   */\n      dup1\n        /* \"#utility.yul\":5281:5293   */\n      revert\n        /* \"#utility.yul\":5236:5295   */\n    tag_462:\n        /* \"#utility.yul\":4632:5535   */\n      swap7\n      swap10\n      swap6\n      swap9\n      pop\n      swap4\n      swap7\n      swap3\n      swap6\n        /* \"#utility.yul\":5314:5321   */\n      swap5\n        /* \"#utility.yul\":5394:5397   */\n      0xa0\n        /* \"#utility.yul\":5379:5398   */\n      dup5\n      add\n        /* \"#utility.yul\":5366:5399   */\n      calldataload\n      swap5\n      pop\n        /* \"#utility.yul\":5498:5501   */\n      0xc0\n        /* \"#utility.yul\":5483:5502   */\n      swap1\n      swap4\n      add\n        /* \"#utility.yul\":5470:5503   */\n      calldataload\n      swap3\n        /* \"#utility.yul\":4632:5535   */\n      swap2\n      pop\n      pop\n      jump\t// out\n        /* \"#utility.yul\":5540:5800   */\n    tag_138:\n        /* \"#utility.yul\":5608:5614   */\n      0x00\n        /* \"#utility.yul\":5616:5622   */\n      dup1\n        /* \"#utility.yul\":5669:5671   */\n      0x40\n        /* \"#utility.yul\":5657:5666   */\n      dup4\n        /* \"#utility.yul\":5648:5655   */\n      dup6\n        /* \"#utility.yul\":5644:5667   */\n      sub\n        /* \"#utility.yul\":5640:5672   */\n      slt\n        /* \"#utility.yul\":5637:5689   */\n      iszero\n      tag_464\n      jumpi\n        /* \"#utility.yul\":5685:5686   */\n      0x00\n        /* \"#utility.yul\":5682:5683   */\n      dup1\n        /* \"#utility.yul\":5675:5687   */\n      revert\n        /* \"#utility.yul\":5637:5689   */\n    tag_464:\n        /* \"#utility.yul\":5708:5737   */\n      tag_465\n        /* \"#utility.yul\":5727:5736   */\n      dup4\n        /* \"#utility.yul\":5708:5737   */\n      tag_421\n      jump\t// in\n    tag_465:\n        /* \"#utility.yul\":5698:5737   */\n      swap2\n      pop\n        /* \"#utility.yul\":5756:5794   */\n      tag_445\n        /* \"#utility.yul\":5790:5792   */\n      0x20\n        /* \"#utility.yul\":5779:5788   */\n      dup5\n        /* \"#utility.yul\":5775:5793   */\n      add\n        /* \"#utility.yul\":5756:5794   */\n      tag_421\n      jump\t// in\n        /* \"#utility.yul\":5805:6185   */\n    tag_150:\n        /* \"#utility.yul\":5884:5885   */\n      0x01\n        /* \"#utility.yul\":5880:5892   */\n      dup2\n      dup2\n      shr\n      swap1\n        /* \"#utility.yul\":5927:5939   */\n      dup3\n      and\n      dup1\n        /* \"#utility.yul\":5948:6009   */\n      tag_468\n      jumpi\n        /* \"#utility.yul\":6002:6006   */\n      0x7f\n        /* \"#utility.yul\":5994:6000   */\n      dup3\n        /* \"#utility.yul\":5990:6007   */\n      and\n        /* \"#utility.yul\":5980:6007   */\n      swap2\n      pop\n        /* \"#utility.yul\":5948:6009   */\n    tag_468:\n        /* \"#utility.yul\":6055:6057   */\n      0x20\n        /* \"#utility.yul\":6047:6053   */\n      dup3\n        /* \"#utility.yul\":6044:6058   */\n      lt\n        /* \"#utility.yul\":6024:6042   */\n      dup2\n        /* \"#utility.yul\":6021:6059   */\n      sub\n        /* \"#utility.yul\":6018:6179   */\n      tag_469\n      jumpi\n        /* \"#utility.yul\":6101:6111   */\n      0x4e487b71\n        /* \"#utility.yul\":6096:6099   */\n      0xe0\n        /* \"#utility.yul\":6092:6112   */\n      shl\n        /* \"#utility.yul\":6089:6090   */\n      0x00\n        /* \"#utility.yul\":6082:6113   */\n      mstore\n        /* \"#utility.yul\":6136:6140   */\n      0x22\n        /* \"#utility.yul\":6133:6134   */\n      0x04\n        /* \"#utility.yul\":6126:6141   */\n      mstore\n        /* \"#utility.yul\":6164:6168   */\n      0x24\n        /* \"#utility.yul\":6161:6162   */\n      0x00\n        /* \"#utility.yul\":6154:6169   */\n      revert\n        /* \"#utility.yul\":6018:6179   */\n    tag_469:\n      pop\n        /* \"#utility.yul\":5805:6185   */\n      swap2\n      swap1\n      pop\n      jump\t// out\n        /* \"#utility.yul\":8953:9080   */\n    tag_373:\n        /* \"#utility.yul\":9014:9024   */\n      0x4e487b71\n        /* \"#utility.yul\":9009:9012   */\n      0xe0\n        /* \"#utility.yul\":9005:9025   */\n      shl\n        /* \"#utility.yul\":9002:9003   */\n      0x00\n        /* \"#utility.yul\":8995:9026   */\n      mstore\n        /* \"#utility.yul\":9045:9049   */\n      0x21\n        /* \"#utility.yul\":9042:9043   */\n      0x04\n        /* \"#utility.yul\":9035:9050   */\n      mstore\n        /* \"#utility.yul\":9069:9073   */\n      0x24\n        /* \"#utility.yul\":9066:9067   */\n      0x00\n        /* \"#utility.yul\":9059:9074   */\n      revert\n        /* \"#utility.yul\":9085:9307   */\n    tag_411:\n        /* \"#utility.yul\":9150:9159   */\n      dup1\n      dup3\n      add\n        /* \"#utility.yul\":9171:9181   */\n      dup1\n      dup3\n      gt\n        /* \"#utility.yul\":9168:9301   */\n      iszero\n      tag_146\n      jumpi\n        /* \"#utility.yul\":9223:9233   */\n      0x4e487b71\n        /* \"#utility.yul\":9218:9221   */\n      0xe0\n        /* \"#utility.yul\":9214:9234   */\n      shl\n        /* \"#utility.yul\":9211:9212   */\n      0x00\n        /* \"#utility.yul\":9204:9235   */\n      mstore\n        /* \"#utility.yul\":9258:9262   */\n      0x11\n        /* \"#utility.yul\":9255:9256   */\n      0x04\n        /* \"#utility.yul\":9248:9263   */\n      mstore\n        /* \"#utility.yul\":9286:9290   */\n      0x24\n        /* \"#utility.yul\":9283:9284   */\n      0x00\n        /* \"#utility.yul\":9276:9291   */\n      revert\n\n    auxdata: 0xa2646970667358221220325da3877b1d1d6e46b771416d5469e07bfa3dc1b3a5f0f554127a9484970b7a64736f6c634300081a0033\n}\n",
				"bytecode": {
					"linkReferences": {},
					"object": "6009610160818152681c1a58ddd957dd5cd960ba1b61018081905260016101a0908152603160f81b6101c0526101e0938452610200919091526102606040526005610220908152641dd95554d160da1b61024052919283926003610063838261034e565b506004610070828261034e565b50506005805460ff1916905550610088826007610193565b61012052610097816008610193565b61014052815160208084019190912060e052815190820120610100524660a05261012360e05161010051604080517f8b73c3c69bb8fe3d512ecc4cf759cc79239f7b179b0ffacaa9a75d522b39400f60208201529081019290925260608201524660808201523060a08201525f9060c00160405160208183030381529060405280519060200120905090565b60805250503060c052506101375f336101c5565b506101627f65d7a28e3265b37a6474929f336521b332c1681b933f6cb9f3376673440d862a336101c5565b5061018d7f9f2df0fed2c77648de5860a4cc508cd0818c85b8b8a1ab4ceeef8d981c8956a6336101c5565b50610460565b5f6020835110156101ae576101a783610270565b90506101bf565b816101b9848261034e565b5060ff90505b92915050565b5f8281526006602090815260408083206001600160a01b038516845290915281205460ff16610269575f8381526006602090815260408083206001600160a01b03861684529091529020805460ff191660011790556102213390565b6001600160a01b0316826001600160a01b0316847f2f8788117e7eff1d82e926ec794901d17c78024a50270940304540a733656f0d60405160405180910390a45060016101bf565b505f6101bf565b5f80829050601f815111156102a3578260405163305a27a960e01b815260040161029a9190610408565b60405180910390fd5b80516102ae8261043d565b179392505050565b634e487b7160e01b5f52604160045260245ffd5b600181811c908216806102de57607f821691505b6020821081036102fc57634e487b7160e01b5f52602260045260245ffd5b50919050565b601f82111561034957805f5260205f20601f840160051c810160208510156103275750805b601f840160051c820191505b81811015610346575f8155600101610333565b50505b505050565b81516001600160401b03811115610367576103676102b6565b61037b8161037584546102ca565b84610302565b6020601f8211600181146103ad575f83156103965750848201515b5f19600385901b1c1916600184901b178455610346565b5f84815260208120601f198516915b828110156103dc57878501518255602094850194600190920191016103bc565b50848210156103f957868401515f19600387901b60f8161c191681555b50505050600190811b01905550565b602081525f82518060208401528060208501604085015e5f604082850101526040601f19601f83011684010191505092915050565b805160208083015191908110156102fc575f1960209190910360031b1b16919050565b60805160a05160c05160e05161010051610120516101405161153f6104b15f395f610c8b01525f610c5e01525f610aa501525f610a7d01525f6109d801525f610a0201525f610a2c015261153f5ff3fe608060405234801561000f575f80fd5b50600436106101bb575f3560e01c806370a08231116100f3578063a217fddf11610093578063d53913931161006e578063d539139314610387578063d547741f146103ae578063dd62ed3e146103c1578063e63ab1e9146103f9575f80fd5b8063a217fddf1461035a578063a9059cbb14610361578063d505accf14610374575f80fd5b80638456cb59116100ce5780638456cb591461031c57806384b0196e1461032457806391d148541461033f57806395d89b4114610352575f80fd5b806370a08231146102ce57806379cc6790146102f65780637ecebe0014610309575f80fd5b8063313ce5671161015e5780633f4ba83a116101395780633f4ba83a1461029557806340c10f191461029d57806342966c68146102b05780635c975abb146102c3575f80fd5b8063313ce5671461026b5780633644e5151461027a57806336568abe14610282575f80fd5b806318160ddd1161019957806318160ddd1461020f57806323b872dd14610221578063248a9ca3146102345780632f2ff15d14610256575f80fd5b806301ffc9a7146101bf57806306fdde03146101e7578063095ea7b3146101fc575b5f80fd5b6101d26101cd36600461122e565b610420565b60405190151581526020015b60405180910390f35b6101ef610456565b6040516101de919061128a565b6101d261020a3660046112b7565b6104e6565b6002545b6040519081526020016101de565b6101d261022f3660046112df565b6104fd565b610213610242366004611319565b5f9081526006602052604090206001015490565b610269610264366004611330565b610520565b005b604051600681526020016101de565b61021361054a565b610269610290366004611330565b610558565b610269610590565b6102696102ab3660046112b7565b6105c5565b6102696102be366004611319565b6105f9565b60055460ff166101d2565b6102136102dc36600461135a565b6001600160a01b03165f9081526020819052604090205490565b6102696103043660046112b7565b610603565b61021361031736600461135a565b61061c565b610269610639565b61032c61066b565b6040516101de9796959493929190611373565b6101d261034d366004611330565b6106ad565b6101ef6106d7565b6102135f81565b6101d261036f3660046112b7565b6106e6565b610269610382366004611409565b6106f3565b6102137f9f2df0fed2c77648de5860a4cc508cd0818c85b8b8a1ab4ceeef8d981c8956a681565b6102696103bc366004611330565b61082e565b6102136103cf366004611476565b6001600160a01b039182165f90815260016020908152604080832093909416825291909152205490565b6102137f65d7a28e3265b37a6474929f336521b332c1681b933f6cb9f3376673440d862a81565b5f6001600160e01b03198216637965db0b60e01b148061045057506301ffc9a760e01b6001600160e01b03198316145b92915050565b6060600380546104659061149e565b80601f01602080910402602001604051908101604052809291908181526020018280546104919061149e565b80156104dc5780601f106104b3576101008083540402835291602001916104dc565b820191905f5260205f20905b8154815290600101906020018083116104bf57829003601f168201915b5050505050905090565b5f336104f3818585610852565b5060019392505050565b5f3361050a85828561085f565b6105158585856108d4565b506001949350505050565b5f8281526006602052604090206001015461053a81610931565b610544838361093b565b50505050565b5f6105536109cc565b905090565b6001600160a01b03811633146105815760405163334bd91960e11b815260040160405180910390fd5b61058b8282610af5565b505050565b7f65d7a28e3265b37a6474929f336521b332c1681b933f6cb9f3376673440d862a6105ba81610931565b6105c2610b60565b50565b7f9f2df0fed2c77648de5860a4cc508cd0818c85b8b8a1ab4ceeef8d981c8956a66105ef81610931565b61058b8383610bb2565b6105c23382610be6565b61060e82338361085f565b6106188282610be6565b5050565b6001600160a01b0381165f90815260096020526040812054610450565b7f65d7a28e3265b37a6474929f336521b332c1681b933f6cb9f3376673440d862a61066381610931565b6105c2610c1a565b5f6060805f805f606061067c610c57565b610684610c84565b604080515f80825260208201909252600f60f81b9b939a50919850469750309650945092509050565b5f9182526006602090815260408084206001600160a01b0393909316845291905290205460ff1690565b6060600480546104659061149e565b5f336104f38185856108d4565b8342111561071c5760405163313c898160e11b8152600481018590526024015b60405180910390fd5b5f7f6e71edae12b1b97f4d1f60370fef10105fa2faae0126114a169c64845d6126c98888886107678c6001600160a01b03165f90815260096020526040902080546001810190915590565b6040805160208101969096526001600160a01b0394851690860152929091166060840152608083015260a082015260c0810186905260e0016040516020818303038152906040528051906020012090505f6107c182610cb1565b90505f6107d082878787610cdd565b9050896001600160a01b0316816001600160a01b031614610817576040516325c0072360e11b81526001600160a01b0380831660048301528b166024820152604401610713565b6108228a8a8a610852565b50505050505050505050565b5f8281526006602052604090206001015461084881610931565b6105448383610af5565b61058b8383836001610d09565b6001600160a01b038381165f908152600160209081526040808320938616835292905220545f19811461054457818110156108c657604051637dc7a0d960e11b81526001600160a01b03841660048201526024810182905260448101839052606401610713565b61054484848484035f610d09565b6001600160a01b0383166108fd57604051634b637e8f60e11b81525f6004820152602401610713565b6001600160a01b0382166109265760405163ec442f0560e01b81525f6004820152602401610713565b61058b838383610ddb565b6105c28133610de6565b5f61094683836106ad565b6109c5575f8381526006602090815260408083206001600160a01b03861684529091529020805460ff1916600117905561097d3390565b6001600160a01b0316826001600160a01b0316847f2f8788117e7eff1d82e926ec794901d17c78024a50270940304540a733656f0d60405160405180910390a4506001610450565b505f610450565b5f306001600160a01b037f000000000000000000000000000000000000000000000000000000000000000016148015610a2457507f000000000000000000000000000000000000000000000000000000000000000046145b15610a4e57507f000000000000000000000000000000000000000000000000000000000000000090565b610553604080517f8b73c3c69bb8fe3d512ecc4cf759cc79239f7b179b0ffacaa9a75d522b39400f60208201527f0000000000000000000000000000000000000000000000000000000000000000918101919091527f000000000000000000000000000000000000000000000000000000000000000060608201524660808201523060a08201525f9060c00160405160208183030381529060405280519060200120905090565b5f610b0083836106ad565b156109c5575f8381526006602090815260408083206001600160a01b0386168085529252808320805460ff1916905551339286917ff6391f5c32d9c69d2a47ea670b442974b53935d1edc7fd64eb21e047a839171b9190a4506001610450565b610b68610e1f565b6005805460ff191690557f5db9ee0a495bf2e6ff9c91a7834c1ba4fdd244a5e8aa4e537bd38aeae4b073aa335b6040516001600160a01b03909116815260200160405180910390a1565b6001600160a01b038216610bdb5760405163ec442f0560e01b81525f6004820152602401610713565b6106185f8383610ddb565b6001600160a01b038216610c0f57604051634b637e8f60e11b81525f6004820152602401610713565b610618825f83610ddb565b610c22610e44565b6005805460ff191660011790557f62e78cea01bee320cd4e420270b5ea74000d11b0c9f74754ebdbfc544b05a258610b953390565b60606105537f00000000000000000000000000000000000000000000000000000000000000006007610e68565b60606105537f00000000000000000000000000000000000000000000000000000000000000006008610e68565b5f610450610cbd6109cc565b8360405161190160f01b8152600281019290925260228201526042902090565b5f805f80610ced88888888610f11565b925092509250610cfd8282610fd9565b50909695505050505050565b6001600160a01b038416610d325760405163e602df0560e01b81525f6004820152602401610713565b6001600160a01b038316610d5b57604051634a1406b160e11b81525f6004820152602401610713565b6001600160a01b038085165f908152600160209081526040808320938716835292905220829055801561054457826001600160a01b0316846001600160a01b03167f8c5be1e5ebec7d5bd14f71427d1e84f3dd0314c0f7b2291e5b200ac8c7c3b92584604051610dcd91815260200190565b60405180910390a350505050565b61058b838383611091565b610df082826106ad565b6106185760405163e2517d3f60e01b81526001600160a01b038216600482015260248101839052604401610713565b60055460ff16610e4257604051638dfc202b60e01b815260040160405180910390fd5b565b60055460ff1615610e425760405163d93c066560e01b815260040160405180910390fd5b606060ff8314610e8257610e7b836110a4565b9050610450565b818054610e8e9061149e565b80601f0160208091040260200160405190810160405280929190818152602001828054610eba9061149e565b8015610f055780601f10610edc57610100808354040283529160200191610f05565b820191905f5260205f20905b815481529060010190602001808311610ee857829003601f168201915b50505050509050610450565b5f80807f7fffffffffffffffffffffffffffffff5d576e7357a4501ddfe92f46681b20a0841115610f4a57505f91506003905082610fcf565b604080515f808252602082018084528a905260ff891692820192909252606081018790526080810186905260019060a0016020604051602081039080840390855afa158015610f9b573d5f803e3d5ffd5b5050604051601f1901519150506001600160a01b038116610fc657505f925060019150829050610fcf565b92505f91508190505b9450945094915050565b5f826003811115610fec57610fec6114d6565b03610ff5575050565b6001826003811115611009576110096114d6565b036110275760405163f645eedf60e01b815260040160405180910390fd5b600282600381111561103b5761103b6114d6565b0361105c5760405163fce698f760e01b815260048101829052602401610713565b6003826003811115611070576110706114d6565b03610618576040516335e2f38360e21b815260048101829052602401610713565b611099610e44565b61058b8383836110e1565b60605f6110b083611207565b6040805160208082528183019092529192505f91906020820181803683375050509182525060208101929092525090565b6001600160a01b03831661110b578060025f82825461110091906114ea565b9091555061117b9050565b6001600160a01b0383165f908152602081905260409020548181101561115d5760405163391434e360e21b81526001600160a01b03851660048201526024810182905260448101839052606401610713565b6001600160a01b0384165f9081526020819052604090209082900390555b6001600160a01b038216611197576002805482900390556111b5565b6001600160a01b0382165f9081526020819052604090208054820190555b816001600160a01b0316836001600160a01b03167fddf252ad1be2c89b69c2b068fc378daa952ba7f163c4a11628f55a4df523b3ef836040516111fa91815260200190565b60405180910390a3505050565b5f60ff8216601f81111561045057604051632cd44ac360e21b815260040160405180910390fd5b5f6020828403121561123e575f80fd5b81356001600160e01b031981168114611255575f80fd5b9392505050565b5f81518084528060208401602086015e5f602082860101526020601f19601f83011685010191505092915050565b602081525f611255602083018461125c565b80356001600160a01b03811681146112b2575f80fd5b919050565b5f80604083850312156112c8575f80fd5b6112d18361129c565b946020939093013593505050565b5f805f606084860312156112f1575f80fd5b6112fa8461129c565b92506113086020850161129c565b929592945050506040919091013590565b5f60208284031215611329575f80fd5b5035919050565b5f8060408385031215611341575f80fd5b823591506113516020840161129c565b90509250929050565b5f6020828403121561136a575f80fd5b6112558261129c565b60ff60f81b8816815260e060208201525f61139160e083018961125c565b82810360408401526113a3818961125c565b606084018890526001600160a01b038716608085015260a0840186905283810360c0850152845180825260208087019350909101905f5b818110156113f85783518352602093840193909201916001016113da565b50909b9a5050505050505050505050565b5f805f805f805f60e0888a03121561141f575f80fd5b6114288861129c565b96506114366020890161129c565b95506040880135945060608801359350608088013560ff81168114611459575f80fd5b9699959850939692959460a0840135945060c09093013592915050565b5f8060408385031215611487575f80fd5b6114908361129c565b91506113516020840161129c565b600181811c908216806114b257607f821691505b6020821081036114d057634e487b7160e01b5f52602260045260245ffd5b50919050565b634e487b7160e01b5f52602160045260245ffd5b8082018082111561045057634e487b7160e01b5f52601160045260245ffdfea2646970667358221220325da3877b1d1d6e46b771416d5469e07bfa3dc1b3a5f0f554127a9484970b7a64736f6c634300081a0033",
					"opcodes": "PUSH1 0x9 PUSH2 0x160 DUP2 DUP2 MSTORE PUSH9 0x1C1A58DDD957DD5CD9 PUSH1 0xBA SHL PUSH2 0x180 DUP2 SWAP1 MSTORE PUSH1 0x1 PUSH2 0x1A0 SWAP1 DUP2 MSTORE PUSH1 0x31 PUSH1 0xF8 SHL PUSH2 0x1C0 MSTORE PUSH2 0x1E0 SWAP4 DUP5 MSTORE PUSH2 0x200 SWAP2 SWAP1 SWAP2 MSTORE PUSH2 0x260 PUSH1 0x40 MSTORE PUSH1 0x5 PUSH2 0x220 SWAP1 DUP2 MSTORE PUSH5 0x1DD95554D1 PUSH1 0xDA SHL PUSH2 0x240 MSTORE SWAP2 SWAP3 DUP4 SWAP3 PUSH1 0x3 PUSH2 0x63 DUP4 DUP3 PUSH2 0x34E JUMP JUMPDEST POP PUSH1 0x4 PUSH2 0x70 DUP3 DUP3 PUSH2 0x34E JUMP JUMPDEST POP POP PUSH1 0x5 DUP1 SLOAD PUSH1 0xFF NOT AND SWAP1 SSTORE POP PUSH2 0x88 DUP3 PUSH1 0x7 PUSH2 0x193 JUMP JUMPDEST PUSH2 0x120 MSTORE PUSH2 0x97 DUP2 PUSH1 0x8 PUSH2 0x193 JUMP JUMPDEST PUSH2 0x140 MSTORE DUP2 MLOAD PUSH1 0x20 DUP1 DUP5 ADD SWAP2 SWAP1 SWAP2 KECCAK256 PUSH1 0xE0 MSTORE DUP2 MLOAD SWAP1 DUP3 ADD KECCAK256 PUSH2 0x100 MSTORE CHAINID PUSH1 0xA0 MSTORE PUSH2 0x123 PUSH1 0xE0 MLOAD PUSH2 0x100 MLOAD PUSH1 0x40 DUP1 MLOAD PUSH32 0x8B73C3C69BB8FE3D512ECC4CF759CC79239F7B179B0FFACAA9A75D522B39400F PUSH1 0x20 DUP3 ADD MSTORE SWAP1 DUP2 ADD SWAP3 SWAP1 SWAP3 MSTORE PUSH1 0x60 DUP3 ADD MSTORE CHAINID PUSH1 0x80 DUP3 ADD MSTORE ADDRESS PUSH1 0xA0 DUP3 ADD MSTORE PUSH0 SWAP1 PUSH1 0xC0 ADD PUSH1 0x40 MLOAD PUSH1 0x20 DUP2 DUP4 SUB SUB DUP2 MSTORE SWAP1 PUSH1 0x40 MSTORE DUP1 MLOAD SWAP1 PUSH1 0x20 ADD KECCAK256 SWAP1 POP SWAP1 JUMP JUMPDEST PUSH1 0x80 MSTORE POP POP ADDRESS PUSH1 0xC0 MSTORE POP PUSH2 0x137 PUSH0 CALLER PUSH2 0x1C5 JUMP JUMPDEST POP PUSH2 0x162 PUSH32 0x65D7A28E3265B37A6474929F336521B332C1681B933F6CB9F3376673440D862A CALLER PUSH2 0x1C5 JUMP JUMPDEST POP PUSH2 0x18D PUSH32 0x9F2DF0FED2C77648DE5860A4CC508CD0818C85B8B8A1AB4CEEEF8D981C8956A6 CALLER PUSH2 0x1C5 JUMP JUMPDEST POP PUSH2 0x460 JUMP JUMPDEST PUSH0 PUSH1 0x20 DUP4 MLOAD LT ISZERO PUSH2 0x1AE JUMPI PUSH2 0x1A7 DUP4 PUSH2 0x270 JUMP JUMPDEST SWAP1 POP PUSH2 0x1BF JUMP JUMPDEST DUP2 PUSH2 0x1B9 DUP5 DUP3 PUSH2 0x34E JUMP JUMPDEST POP PUSH1 0xFF SWAP1 POP JUMPDEST SWAP3 SWAP2 POP POP JUMP JUMPDEST PUSH0 DUP3 DUP2 MSTORE PUSH1 0x6 PUSH1 0x20 SWAP1 DUP2 MSTORE PUSH1 0x40 DUP1 DUP4 KECCAK256 PUSH1 0x1 PUSH1 0x1 PUSH1 0xA0 SHL SUB DUP6 AND DUP5 MSTORE SWAP1 SWAP2 MSTORE DUP2 KECCAK256 SLOAD PUSH1 0xFF AND PUSH2 0x269 JUMPI PUSH0 DUP4 DUP2 MSTORE PUSH1 0x6 PUSH1 0x20 SWAP1 DUP2 MSTORE PUSH1 0x40 DUP1 DUP4 KECCAK256 PUSH1 0x1 PUSH1 0x1 PUSH1 0xA0 SHL SUB DUP7 AND DUP5 MSTORE SWAP1 SWAP2 MSTORE SWAP1 KECCAK256 DUP1 SLOAD PUSH1 0xFF NOT AND PUSH1 0x1 OR SWAP1 SSTORE PUSH2 0x221 CALLER SWAP1 JUMP JUMPDEST PUSH1 0x1 PUSH1 0x1 PUSH1 0xA0 SHL SUB AND DUP3 PUSH1 0x1 PUSH1 0x1 PUSH1 0xA0 SHL SUB AND DUP5 PUSH32 0x2F8788117E7EFF1D82E926EC794901D17C78024A50270940304540A733656F0D PUSH1 0x40 MLOAD PUSH1 0x40 MLOAD DUP1 SWAP2 SUB SWAP1 LOG4 POP PUSH1 0x1 PUSH2 0x1BF JUMP JUMPDEST POP PUSH0 PUSH2 0x1BF JUMP JUMPDEST PUSH0 DUP1 DUP3 SWAP1 POP PUSH1 0x1F DUP2 MLOAD GT ISZERO PUSH2 0x2A3 JUMPI DUP3 PUSH1 0x40 MLOAD PUSH4 0x305A27A9 PUSH1 0xE0 SHL DUP2 MSTORE PUSH1 0x4 ADD PUSH2 0x29A SWAP2 SWAP1 PUSH2 0x408 JUMP JUMPDEST PUSH1 0x40 MLOAD DUP1 SWAP2 SUB SWAP1 REVERT JUMPDEST DUP1 MLOAD PUSH2 0x2AE DUP3 PUSH2 0x43D JUMP JUMPDEST OR SWAP4 SWAP3 POP POP POP JUMP JUMPDEST PUSH4 0x4E487B71 PUSH1 0xE0 SHL PUSH0 MSTORE PUSH1 0x41 PUSH1 0x4 MSTORE PUSH1 0x24 PUSH0 REVERT JUMPDEST PUSH1 0x1 DUP2 DUP2 SHR SWAP1 DUP3 AND DUP1 PUSH2 0x2DE JUMPI PUSH1 0x7F DUP3 AND SWAP2 POP JUMPDEST PUSH1 0x20 DUP3 LT DUP2 SUB PUSH2 0x2FC JUMPI PUSH4 0x4E487B71 PUSH1 0xE0 SHL PUSH0 MSTORE PUSH1 0x22 PUSH1 0x4 MSTORE PUSH1 0x24 PUSH0 REVERT JUMPDEST POP SWAP2 SWAP1 POP JUMP JUMPDEST PUSH1 0x1F DUP3 GT ISZERO PUSH2 0x349 JUMPI DUP1 PUSH0 MSTORE PUSH1 0x20 PUSH0 KECCAK256 PUSH1 0x1F DUP5 ADD PUSH1 0x5 SHR DUP2 ADD PUSH1 0x20 DUP6 LT ISZERO PUSH2 0x327 JUMPI POP DUP1 JUMPDEST PUSH1 0x1F DUP5 ADD PUSH1 0x5 SHR DUP3 ADD SWAP2 POP JUMPDEST DUP2 DUP2 LT ISZERO PUSH2 0x346 JUMPI PUSH0 DUP2 SSTORE PUSH1 0x1 ADD PUSH2 0x333 JUMP JUMPDEST POP POP JUMPDEST POP POP POP JUMP JUMPDEST DUP2 MLOAD PUSH1 0x1 PUSH1 0x1 PUSH1 0x40 SHL SUB DUP2 GT ISZERO PUSH2 0x367 JUMPI PUSH2 0x367 PUSH2 0x2B6 JUMP JUMPDEST PUSH2 0x37B DUP2 PUSH2 0x375 DUP5 SLOAD PUSH2 0x2CA JUMP JUMPDEST DUP5 PUSH2 0x302 JUMP JUMPDEST PUSH1 0x20 PUSH1 0x1F DUP3 GT PUSH1 0x1 DUP2 EQ PUSH2 0x3AD JUMPI PUSH0 DUP4 ISZERO PUSH2 0x396 JUMPI POP DUP5 DUP3 ADD MLOAD JUMPDEST PUSH0 NOT PUSH1 0x3 DUP6 SWAP1 SHL SHR NOT AND PUSH1 0x1 DUP5 SWAP1 SHL OR DUP5 SSTORE PUSH2 0x346 JUMP JUMPDEST PUSH0 DUP5 DUP2 MSTORE PUSH1 0x20 DUP2 KECCAK256 PUSH1 0x1F NOT DUP6 AND SWAP2 JUMPDEST DUP3 DUP2 LT ISZERO PUSH2 0x3DC JUMPI DUP8 DUP6 ADD MLOAD DUP3 SSTORE PUSH1 0x20 SWAP5 DUP6 ADD SWAP5 PUSH1 0x1 SWAP1 SWAP3 ADD SWAP2 ADD PUSH2 0x3BC JUMP JUMPDEST POP DUP5 DUP3 LT ISZERO PUSH2 0x3F9 JUMPI DUP7 DUP5 ADD MLOAD PUSH0 NOT PUSH1 0x3 DUP8 SWAP1 SHL PUSH1 0xF8 AND SHR NOT AND DUP2 SSTORE JUMPDEST POP POP POP POP PUSH1 0x1 SWAP1 DUP2 SHL ADD SWAP1 SSTORE POP JUMP JUMPDEST PUSH1 0x20 DUP2 MSTORE PUSH0 DUP3 MLOAD DUP1 PUSH1 0x20 DUP5 ADD MSTORE DUP1 PUSH1 0x20 DUP6 ADD PUSH1 0x40 DUP6 ADD MCOPY PUSH0 PUSH1 0x40 DUP3 DUP6 ADD ADD MSTORE PUSH1 0x40 PUSH1 0x1F NOT PUSH1 0x1F DUP4 ADD AND DUP5 ADD ADD SWAP2 POP POP SWAP3 SWAP2 POP POP JUMP JUMPDEST DUP1 MLOAD PUSH1 0x20 DUP1 DUP4 ADD MLOAD SWAP2 SWAP1 DUP2 LT ISZERO PUSH2 0x2FC JUMPI PUSH0 NOT PUSH1 0x20 SWAP2 SWAP1 SWAP2 SUB PUSH1 0x3 SHL SHL AND SWAP2 SWAP1 POP JUMP JUMPDEST PUSH1 0x80 MLOAD PUSH1 0xA0 MLOAD PUSH1 0xC0 MLOAD PUSH1 0xE0 MLOAD PUSH2 0x100 MLOAD PUSH2 0x120 MLOAD PUSH2 0x140 MLOAD PUSH2 0x153F PUSH2 0x4B1 PUSH0 CODECOPY PUSH0 PUSH2 0xC8B ADD MSTORE PUSH0 PUSH2 0xC5E ADD MSTORE PUSH0 PUSH2 0xAA5 ADD MSTORE PUSH0 PUSH2 0xA7D ADD MSTORE PUSH0 PUSH2 0x9D8 ADD MSTORE PUSH0 PUSH2 0xA02 ADD MSTORE PUSH0 PUSH2 0xA2C ADD MSTORE PUSH2 0x153F PUSH0 RETURN INVALID PUSH1 0x80 PUSH1 0x40 MSTORE CALLVALUE DUP1 ISZERO PUSH2 0xF JUMPI PUSH0 DUP1 REVERT JUMPDEST POP PUSH1 0x4 CALLDATASIZE LT PUSH2 0x1BB JUMPI PUSH0 CALLDATALOAD PUSH1 0xE0 SHR DUP1 PUSH4 0x70A08231 GT PUSH2 0xF3 JUMPI DUP1 PUSH4 0xA217FDDF GT PUSH2 0x93 JUMPI DUP1 PUSH4 0xD5391393 GT PUSH2 0x6E JUMPI DUP1 PUSH4 0xD5391393 EQ PUSH2 0x387 JUMPI DUP1 PUSH4 0xD547741F EQ PUSH2 0x3AE JUMPI DUP1 PUSH4 0xDD62ED3E EQ PUSH2 0x3C1 JUMPI DUP1 PUSH4 0xE63AB1E9 EQ PUSH2 0x3F9 JUMPI PUSH0 DUP1 REVERT JUMPDEST DUP1 PUSH4 0xA217FDDF EQ PUSH2 0x35A JUMPI DUP1 PUSH4 0xA9059CBB EQ PUSH2 0x361 JUMPI DUP1 PUSH4 0xD505ACCF EQ PUSH2 0x374 JUMPI PUSH0 DUP1 REVERT JUMPDEST DUP1 PUSH4 0x8456CB59 GT PUSH2 0xCE JUMPI DUP1 PUSH4 0x8456CB59 EQ PUSH2 0x31C JUMPI DUP1 PUSH4 0x84B0196E EQ PUSH2 0x324 JUMPI DUP1 PUSH4 0x91D14854 EQ PUSH2 0x33F JUMPI DUP1 PUSH4 0x95D89B41 EQ PUSH2 0x352 JUMPI PUSH0 DUP1 REVERT JUMPDEST DUP1 PUSH4 0x70A08231 EQ PUSH2 0x2CE JUMPI DUP1 PUSH4 0x79CC6790 EQ PUSH2 0x2F6 JUMPI DUP1 PUSH4 0x7ECEBE00 EQ PUSH2 0x309 JUMPI PUSH0 DUP1 REVERT JUMPDEST DUP1 PUSH4 0x313CE567 GT PUSH2 0x15E JUMPI DUP1 PUSH4 0x3F4BA83A GT PUSH2 0x139 JUMPI DUP1 PUSH4 0x3F4BA83A EQ PUSH2 0x295 JUMPI DUP1 PUSH4 0x40C10F19 EQ PUSH2 0x29D JUMPI DUP1 PUSH4 0x42966C68 EQ PUSH2 0x2B0 JUMPI DUP1 PUSH4 0x5C975ABB EQ PUSH2 0x2C3 JUMPI PUSH0 DUP1 REVERT JUMPDEST DUP1 PUSH4 0x313CE567 EQ PUSH2 0x26B JUMPI DUP1 PUSH4 0x3644E515 EQ PUSH2 0x27A JUMPI DUP1 PUSH4 0x36568ABE EQ PUSH2 0x282 JUMPI PUSH0 DUP1 REVERT JUMPDEST DUP1 PUSH4 0x18160DDD GT PUSH2 0x199 JUMPI DUP1 PUSH4 0x18160DDD EQ PUSH2 0x20F JUMPI DUP1 PUSH4 0x23B872DD EQ PUSH2 0x221 JUMPI DUP1 PUSH4 0x248A9CA3 EQ PUSH2 0x234 JUMPI DUP1 PUSH4 0x2F2FF15D EQ PUSH2 0x256 JUMPI PUSH0 DUP1 REVERT JUMPDEST DUP1 PUSH4 0x1FFC9A7 EQ PUSH2 0x1BF JUMPI DUP1 PUSH4 0x6FDDE03 EQ PUSH2 0x1E7 JUMPI DUP1 PUSH4 0x95EA7B3 EQ PUSH2 0x1FC JUMPI JUMPDEST PUSH0 DUP1 REVERT JUMPDEST PUSH2 0x1D2 PUSH2 0x1CD CALLDATASIZE PUSH1 0x4 PUSH2 0x122E JUMP JUMPDEST PUSH2 0x420 JUMP JUMPDEST PUSH1 0x40 MLOAD SWAP1 ISZERO ISZERO DUP2 MSTORE PUSH1 0x20 ADD JUMPDEST PUSH1 0x40 MLOAD DUP1 SWAP2 SUB SWAP1 RETURN JUMPDEST PUSH2 0x1EF PUSH2 0x456 JUMP JUMPDEST PUSH1 0x40 MLOAD PUSH2 0x1DE SWAP2 SWAP1 PUSH2 0x128A JUMP JUMPDEST PUSH2 0x1D2 PUSH2 0x20A CALLDATASIZE PUSH1 0x4 PUSH2 0x12B7 JUMP JUMPDEST PUSH2 0x4E6 JUMP JUMPDEST PUSH1 0x2 SLOAD JUMPDEST PUSH1 0x40 MLOAD SWAP1 DUP2 MSTORE PUSH1 0x20 ADD PUSH2 0x1DE JUMP JUMPDEST PUSH2 0x1D2 PUSH2 0x22F CALLDATASIZE PUSH1 0x4 PUSH2 0x12DF JUMP JUMPDEST PUSH2 0x4FD JUMP JUMPDEST PUSH2 0x213 PUSH2 0x242 CALLDATASIZE PUSH1 0x4 PUSH2 0x1319 JUMP JUMPDEST PUSH0 SWAP1 DUP2 MSTORE PUSH1 0x6 PUSH1 0x20 MSTORE PUSH1 0x40 SWAP1 KECCAK256 PUSH1 0x1 ADD SLOAD SWAP1 JUMP JUMPDEST PUSH2 0x269 PUSH2 0x264 CALLDATASIZE PUSH1 0x4 PUSH2 0x1330 JUMP JUMPDEST PUSH2 0x520 JUMP JUMPDEST STOP JUMPDEST PUSH1 0x40 MLOAD PUSH1 0x6 DUP2 MSTORE PUSH1 0x20 ADD PUSH2 0x1DE JUMP JUMPDEST PUSH2 0x213 PUSH2 0x54A JUMP JUMPDEST PUSH2 0x269 PUSH2 0x290 CALLDATASIZE PUSH1 0x4 PUSH2 0x1330 JUMP JUMPDEST PUSH2 0x558 JUMP JUMPDEST PUSH2 0x269 PUSH2 0x590 JUMP JUMPDEST PUSH2 0x269 PUSH2 0x2AB CALLDATASIZE PUSH1 0x4 PUSH2 0x12B7 JUMP JUMPDEST PUSH2 0x5C5 JUMP JUMPDEST PUSH2 0x269 PUSH2 0x2BE CALLDATASIZE PUSH1 0x4 PUSH2 0x1319 JUMP JUMPDEST PUSH2 0x5F9 JUMP JUMPDEST PUSH1 0x5 SLOAD PUSH1 0xFF AND PUSH2 0x1D2 JUMP JUMPDEST PUSH2 0x213 PUSH2 0x2DC CALLDATASIZE PUSH1 0x4 PUSH2 0x135A JUMP JUMPDEST PUSH1 0x1 PUSH1 0x1 PUSH1 0xA0 SHL SUB AND PUSH0 SWAP1 DUP2 MSTORE PUSH1 0x20 DUP2 SWAP1 MSTORE PUSH1 0x40 SWAP1 KECCAK256 SLOAD SWAP1 JUMP JUMPDEST PUSH2 0x269 PUSH2 0x304 CALLDATASIZE PUSH1 0x4 PUSH2 0x12B7 JUMP JUMPDEST PUSH2 0x603 JUMP JUMPDEST PUSH2 0x213 PUSH2 0x317 CALLDATASIZE PUSH1 0x4 PUSH2 0x135A JUMP JUMPDEST PUSH2 0x61C JUMP JUMPDEST PUSH2 0x269 PUSH2 0x639 JUMP JUMPDEST PUSH2 0x32C PUSH2 0x66B JUMP JUMPDEST PUSH1 0x40 MLOAD PUSH2 0x1DE SWAP8 SWAP7 SWAP6 SWAP5 SWAP4 SWAP3 SWAP2 SWAP1 PUSH2 0x1373 JUMP JUMPDEST PUSH2 0x1D2 PUSH2 0x34D CALLDATASIZE PUSH1 0x4 PUSH2 0x1330 JUMP JUMPDEST PUSH2 0x6AD JUMP JUMPDEST PUSH2 0x1EF PUSH2 0x6D7 JUMP JUMPDEST PUSH2 0x213 PUSH0 DUP2 JUMP JUMPDEST PUSH2 0x1D2 PUSH2 0x36F CALLDATASIZE PUSH1 0x4 PUSH2 0x12B7 JUMP JUMPDEST PUSH2 0x6E6 JUMP JUMPDEST PUSH2 0x269 PUSH2 0x382 CALLDATASIZE PUSH1 0x4 PUSH2 0x1409 JUMP JUMPDEST PUSH2 0x6F3 JUMP JUMPDEST PUSH2 0x213 PUSH32 0x9F2DF0FED2C77648DE5860A4CC508CD0818C85B8B8A1AB4CEEEF8D981C8956A6 DUP2 JUMP JUMPDEST PUSH2 0x269 PUSH2 0x3BC CALLDATASIZE PUSH1 0x4 PUSH2 0x1330 JUMP JUMPDEST PUSH2 0x82E JUMP JUMPDEST PUSH2 0x213 PUSH2 0x3CF CALLDATASIZE PUSH1 0x4 PUSH2 0x1476 JUMP JUMPDEST PUSH1 0x1 PUSH1 0x1 PUSH1 0xA0 SHL SUB SWAP2 DUP3 AND PUSH0 SWAP1 DUP2 MSTORE PUSH1 0x1 PUSH1 0x20 SWAP1 DUP2 MSTORE PUSH1 0x40 DUP1 DUP4 KECCAK256 SWAP4 SWAP1 SWAP5 AND DUP3 MSTORE SWAP2 SWAP1 SWAP2 MSTORE KECCAK256 SLOAD SWAP1 JUMP JUMPDEST PUSH2 0x213 PUSH32 0x65D7A28E3265B37A6474929F336521B332C1681B933F6CB9F3376673440D862A DUP2 JUMP JUMPDEST PUSH0 PUSH1 0x1 PUSH1 0x1 PUSH1 0xE0 SHL SUB NOT DUP3 AND PUSH4 0x7965DB0B PUSH1 0xE0 SHL EQ DUP1 PUSH2 0x450 JUMPI POP PUSH4 0x1FFC9A7 PUSH1 0xE0 SHL PUSH1 0x1 PUSH1 0x1 PUSH1 0xE0 SHL SUB NOT DUP4 AND EQ JUMPDEST SWAP3 SWAP2 POP POP JUMP JUMPDEST PUSH1 0x60 PUSH1 0x3 DUP1 SLOAD PUSH2 0x465 SWAP1 PUSH2 0x149E JUMP JUMPDEST DUP1 PUSH1 0x1F ADD PUSH1 0x20 DUP1 SWAP2 DIV MUL PUSH1 0x20 ADD PUSH1 0x40 MLOAD SWAP1 DUP2 ADD PUSH1 0x40 MSTORE DUP1 SWAP3 SWAP2 SWAP1 DUP2 DUP2 MSTORE PUSH1 0x20 ADD DUP3 DUP1 SLOAD PUSH2 0x491 SWAP1 PUSH2 0x149E JUMP JUMPDEST DUP1 ISZERO PUSH2 0x4DC JUMPI DUP1 PUSH1 0x1F LT PUSH2 0x4B3 JUMPI PUSH2 0x100 DUP1 DUP4 SLOAD DIV MUL DUP4 MSTORE SWAP2 PUSH1 0x20 ADD SWAP2 PUSH2 0x4DC JUMP JUMPDEST DUP3 ADD SWAP2 SWAP1 PUSH0 MSTORE PUSH1 0x20 PUSH0 KECCAK256 SWAP1 JUMPDEST DUP2 SLOAD DUP2 MSTORE SWAP1 PUSH1 0x1 ADD SWAP1 PUSH1 0x20 ADD DUP1 DUP4 GT PUSH2 0x4BF JUMPI DUP3 SWAP1 SUB PUSH1 0x1F AND DUP3 ADD SWAP2 JUMPDEST POP POP POP POP POP SWAP1 POP SWAP1 JUMP JUMPDEST PUSH0 CALLER PUSH2 0x4F3 DUP2 DUP6 DUP6 PUSH2 0x852 JUMP JUMPDEST POP PUSH1 0x1 SWAP4 SWAP3 POP POP POP JUMP JUMPDEST PUSH0 CALLER PUSH2 0x50A DUP6 DUP3 DUP6 PUSH2 0x85F JUMP JUMPDEST PUSH2 0x515 DUP6 DUP6 DUP6 PUSH2 0x8D4 JUMP JUMPDEST POP PUSH1 0x1 SWAP5 SWAP4 POP POP POP POP JUMP JUMPDEST PUSH0 DUP3 DUP2 MSTORE PUSH1 0x6 PUSH1 0x20 MSTORE PUSH1 0x40 SWAP1 KECCAK256 PUSH1 0x1 ADD SLOAD PUSH2 0x53A DUP2 PUSH2 0x931 JUMP JUMPDEST PUSH2 0x544 DUP4 DUP4 PUSH2 0x93B JUMP JUMPDEST POP POP POP POP JUMP JUMPDEST PUSH0 PUSH2 0x553 PUSH2 0x9CC JUMP JUMPDEST SWAP1 POP SWAP1 JUMP JUMPDEST PUSH1 0x1 PUSH1 0x1 PUSH1 0xA0 SHL SUB DUP2 AND CALLER EQ PUSH2 0x581 JUMPI PUSH1 0x40 MLOAD PUSH4 0x334BD919 PUSH1 0xE1 SHL DUP2 MSTORE PUSH1 0x4 ADD PUSH1 0x40 MLOAD DUP1 SWAP2 SUB SWAP1 REVERT JUMPDEST PUSH2 0x58B DUP3 DUP3 PUSH2 0xAF5 JUMP JUMPDEST POP POP POP JUMP JUMPDEST PUSH32 0x65D7A28E3265B37A6474929F336521B332C1681B933F6CB9F3376673440D862A PUSH2 0x5BA DUP2 PUSH2 0x931 JUMP JUMPDEST PUSH2 0x5C2 PUSH2 0xB60 JUMP JUMPDEST POP JUMP JUMPDEST PUSH32 0x9F2DF0FED2C77648DE5860A4CC508CD0818C85B8B8A1AB4CEEEF8D981C8956A6 PUSH2 0x5EF DUP2 PUSH2 0x931 JUMP JUMPDEST PUSH2 0x58B DUP4 DUP4 PUSH2 0xBB2 JUMP JUMPDEST PUSH2 0x5C2 CALLER DUP3 PUSH2 0xBE6 JUMP JUMPDEST PUSH2 0x60E DUP3 CALLER DUP4 PUSH2 0x85F JUMP JUMPDEST PUSH2 0x618 DUP3 DUP3 PUSH2 0xBE6 JUMP JUMPDEST POP POP JUMP JUMPDEST PUSH1 0x1 PUSH1 0x1 PUSH1 0xA0 SHL SUB DUP2 AND PUSH0 SWAP1 DUP2 MSTORE PUSH1 0x9 PUSH1 0x20 MSTORE PUSH1 0x40 DUP2 KECCAK256 SLOAD PUSH2 0x450 JUMP JUMPDEST PUSH32 0x65D7A28E3265B37A6474929F336521B332C1681B933F6CB9F3376673440D862A PUSH2 0x663 DUP2 PUSH2 0x931 JUMP JUMPDEST PUSH2 0x5C2 PUSH2 0xC1A JUMP JUMPDEST PUSH0 PUSH1 0x60 DUP1 PUSH0 DUP1 PUSH0 PUSH1 0x60 PUSH2 0x67C PUSH2 0xC57 JUMP JUMPDEST PUSH2 0x684 PUSH2 0xC84 JUMP JUMPDEST PUSH1 0x40 DUP1 MLOAD PUSH0 DUP1 DUP3 MSTORE PUSH1 0x20 DUP3 ADD SWAP1 SWAP3 MSTORE PUSH1 0xF PUSH1 0xF8 SHL SWAP12 SWAP4 SWAP11 POP SWAP2 SWAP9 POP CHAINID SWAP8 POP ADDRESS SWAP7 POP SWAP5 POP SWAP3 POP SWAP1 POP JUMP JUMPDEST PUSH0 SWAP2 DUP3 MSTORE PUSH1 0x6 PUSH1 0x20 SWAP1 DUP2 MSTORE PUSH1 0x40 DUP1 DUP5 KECCAK256 PUSH1 0x1 PUSH1 0x1 PUSH1 0xA0 SHL SUB SWAP4 SWAP1 SWAP4 AND DUP5 MSTORE SWAP2 SWAP1 MSTORE SWAP1 KECCAK256 SLOAD PUSH1 0xFF AND SWAP1 JUMP JUMPDEST PUSH1 0x60 PUSH1 0x4 DUP1 SLOAD PUSH2 0x465 SWAP1 PUSH2 0x149E JUMP JUMPDEST PUSH0 CALLER PUSH2 0x4F3 DUP2 DUP6 DUP6 PUSH2 0x8D4 JUMP JUMPDEST DUP4 TIMESTAMP GT ISZERO PUSH2 0x71C JUMPI PUSH1 0x40 MLOAD PUSH4 0x313C8981 PUSH1 0xE1 SHL DUP2 MSTORE PUSH1 0x4 DUP2 ADD DUP6 SWAP1 MSTORE PUSH1 0x24 ADD JUMPDEST PUSH1 0x40 MLOAD DUP1 SWAP2 SUB SWAP1 REVERT JUMPDEST PUSH0 PUSH32 0x6E71EDAE12B1B97F4D1F60370FEF10105FA2FAAE0126114A169C64845D6126C9 DUP9 DUP9 DUP9 PUSH2 0x767 DUP13 PUSH1 0x1 PUSH1 0x1 PUSH1 0xA0 SHL SUB AND PUSH0 SWAP1 DUP2 MSTORE PUSH1 0x9 PUSH1 0x20 MSTORE PUSH1 0x40 SWAP1 KECCAK256 DUP1 SLOAD PUSH1 0x1 DUP2 ADD SWAP1 SWAP2 SSTORE SWAP1 JUMP JUMPDEST PUSH1 0x40 DUP1 MLOAD PUSH1 0x20 DUP2 ADD SWAP7 SWAP1 SWAP7 MSTORE PUSH1 0x1 PUSH1 0x1 PUSH1 0xA0 SHL SUB SWAP5 DUP6 AND SWAP1 DUP7 ADD MSTORE SWAP3 SWAP1 SWAP2 AND PUSH1 0x60 DUP5 ADD MSTORE PUSH1 0x80 DUP4 ADD MSTORE PUSH1 0xA0 DUP3 ADD MSTORE PUSH1 0xC0 DUP2 ADD DUP7 SWAP1 MSTORE PUSH1 0xE0 ADD PUSH1 0x40 MLOAD PUSH1 0x20 DUP2 DUP4 SUB SUB DUP2 MSTORE SWAP1 PUSH1 0x40 MSTORE DUP1 MLOAD SWAP1 PUSH1 0x20 ADD KECCAK256 SWAP1 POP PUSH0 PUSH2 0x7C1 DUP3 PUSH2 0xCB1 JUMP JUMPDEST SWAP1 POP PUSH0 PUSH2 0x7D0 DUP3 DUP8 DUP8 DUP8 PUSH2 0xCDD JUMP JUMPDEST SWAP1 POP DUP10 PUSH1 0x1 PUSH1 0x1 PUSH1 0xA0 SHL SUB AND DUP2 PUSH1 0x1 PUSH1 0x1 PUSH1 0xA0 SHL SUB AND EQ PUSH2 0x817 JUMPI PUSH1 0x40 MLOAD PUSH4 0x25C00723 PUSH1 0xE1 SHL DUP2 MSTORE PUSH1 0x1 PUSH1 0x1 PUSH1 0xA0 SHL SUB DUP1 DUP4 AND PUSH1 0x4 DUP4 ADD MSTORE DUP12 AND PUSH1 0x24 DUP3 ADD MSTORE PUSH1 0x44 ADD PUSH2 0x713 JUMP JUMPDEST PUSH2 0x822 DUP11 DUP11 DUP11 PUSH2 0x852 JUMP JUMPDEST POP POP POP POP POP POP POP POP POP POP JUMP JUMPDEST PUSH0 DUP3 DUP2 MSTORE PUSH1 0x6 PUSH1 0x20 MSTORE PUSH1 0x40 SWAP1 KECCAK256 PUSH1 0x1 ADD SLOAD PUSH2 0x848 DUP2 PUSH2 0x931 JUMP JUMPDEST PUSH2 0x544 DUP4 DUP4 PUSH2 0xAF5 JUMP JUMPDEST PUSH2 0x58B DUP4 DUP4 DUP4 PUSH1 0x1 PUSH2 0xD09 JUMP JUMPDEST PUSH1 0x1 PUSH1 0x1 PUSH1 0xA0 SHL SUB DUP4 DUP2 AND PUSH0 SWAP1 DUP2 MSTORE PUSH1 0x1 PUSH1 0x20 SWAP1 DUP2 MSTORE PUSH1 0x40 DUP1 DUP4 KECCAK256 SWAP4 DUP7 AND DUP4 MSTORE SWAP3 SWAP1 MSTORE KECCAK256 SLOAD PUSH0 NOT DUP2 EQ PUSH2 0x544 JUMPI DUP2 DUP2 LT ISZERO PUSH2 0x8C6 JUMPI PUSH1 0x40 MLOAD PUSH4 0x7DC7A0D9 PUSH1 0xE1 SHL DUP2 MSTORE PUSH1 0x1 PUSH1 0x1 PUSH1 0xA0 SHL SUB DUP5 AND PUSH1 0x4 DUP3 ADD MSTORE PUSH1 0x24 DUP2 ADD DUP3 SWAP1 MSTORE PUSH1 0x44 DUP2 ADD DUP4 SWAP1 MSTORE PUSH1 0x64 ADD PUSH2 0x713 JUMP JUMPDEST PUSH2 0x544 DUP5 DUP5 DUP5 DUP5 SUB PUSH0 PUSH2 0xD09 JUMP JUMPDEST PUSH1 0x1 PUSH1 0x1 PUSH1 0xA0 SHL SUB DUP4 AND PUSH2 0x8FD JUMPI PUSH1 0x40 MLOAD PUSH4 0x4B637E8F PUSH1 0xE1 SHL DUP2 MSTORE PUSH0 PUSH1 0x4 DUP3 ADD MSTORE PUSH1 0x24 ADD PUSH2 0x713 JUMP JUMPDEST PUSH1 0x1 PUSH1 0x1 PUSH1 0xA0 SHL SUB DUP3 AND PUSH2 0x926 JUMPI PUSH1 0x40 MLOAD PUSH4 0xEC442F05 PUSH1 0xE0 SHL DUP2 MSTORE PUSH0 PUSH1 0x4 DUP3 ADD MSTORE PUSH1 0x24 ADD PUSH2 0x713 JUMP JUMPDEST PUSH2 0x58B DUP4 DUP4 DUP4 PUSH2 0xDDB JUMP JUMPDEST PUSH2 0x5C2 DUP2 CALLER PUSH2 0xDE6 JUMP JUMPDEST PUSH0 PUSH2 0x946 DUP4 DUP4 PUSH2 0x6AD JUMP JUMPDEST PUSH2 0x9C5 JUMPI PUSH0 DUP4 DUP2 MSTORE PUSH1 0x6 PUSH1 0x20 SWAP1 DUP2 MSTORE PUSH1 0x40 DUP1 DUP4 KECCAK256 PUSH1 0x1 PUSH1 0x1 PUSH1 0xA0 SHL SUB DUP7 AND DUP5 MSTORE SWAP1 SWAP2 MSTORE SWAP1 KECCAK256 DUP1 SLOAD PUSH1 0xFF NOT AND PUSH1 0x1 OR SWAP1 SSTORE PUSH2 0x97D CALLER SWAP1 JUMP JUMPDEST PUSH1 0x1 PUSH1 0x1 PUSH1 0xA0 SHL SUB AND DUP3 PUSH1 0x1 PUSH1 0x1 PUSH1 0xA0 SHL SUB AND DUP5 PUSH32 0x2F8788117E7EFF1D82E926EC794901D17C78024A50270940304540A733656F0D PUSH1 0x40 MLOAD PUSH1 0x40 MLOAD DUP1 SWAP2 SUB SWAP1 LOG4 POP PUSH1 0x1 PUSH2 0x450 JUMP JUMPDEST POP PUSH0 PUSH2 0x450 JUMP JUMPDEST PUSH0 ADDRESS PUSH1 0x1 PUSH1 0x1 PUSH1 0xA0 SHL SUB PUSH32 0x0 AND EQ DUP1 ISZERO PUSH2 0xA24 JUMPI POP PUSH32 0x0 CHAINID EQ JUMPDEST ISZERO PUSH2 0xA4E JUMPI POP PUSH32 0x0 SWAP1 JUMP JUMPDEST PUSH2 0x553 PUSH1 0x40 DUP1 MLOAD PUSH32 0x8B73C3C69BB8FE3D512ECC4CF759CC79239F7B179B0FFACAA9A75D522B39400F PUSH1 0x20 DUP3 ADD MSTORE PUSH32 0x0 SWAP2 DUP2 ADD SWAP2 SWAP1 SWAP2 MSTORE PUSH32 0x0 PUSH1 0x60 DUP3 ADD MSTORE CHAINID PUSH1 0x80 DUP3 ADD MSTORE ADDRESS PUSH1 0xA0 DUP3 ADD MSTORE PUSH0 SWAP1 PUSH1 0xC0 ADD PUSH1 0x40 MLOAD PUSH1 0x20 DUP2 DUP4 SUB SUB DUP2 MSTORE SWAP1 PUSH1 0x40 MSTORE DUP1 MLOAD SWAP1 PUSH1 0x20 ADD KECCAK256 SWAP1 POP SWAP1 JUMP JUMPDEST PUSH0 PUSH2 0xB00 DUP4 DUP4 PUSH2 0x6AD JUMP JUMPDEST ISZERO PUSH2 0x9C5 JUMPI PUSH0 DUP4 DUP2 MSTORE PUSH1 0x6 PUSH1 0x20 SWAP1 DUP2 MSTORE PUSH1 0x40 DUP1 DUP4 KECCAK256 PUSH1 0x1 PUSH1 0x1 PUSH1 0xA0 SHL SUB DUP7 AND DUP1 DUP6 MSTORE SWAP3 MSTORE DUP1 DUP4 KECCAK256 DUP1 SLOAD PUSH1 0xFF NOT AND SWAP1 SSTORE MLOAD CALLER SWAP3 DUP7 SWAP2 PUSH32 0xF6391F5C32D9C69D2A47EA670B442974B53935D1EDC7FD64EB21E047A839171B SWAP2 SWAP1 LOG4 POP PUSH1 0x1 PUSH2 0x450 JUMP JUMPDEST PUSH2 0xB68 PUSH2 0xE1F JUMP JUMPDEST PUSH1 0x5 DUP1 SLOAD PUSH1 0xFF NOT AND SWAP1 SSTORE PUSH32 0x5DB9EE0A495BF2E6FF9C91A7834C1BA4FDD244A5E8AA4E537BD38AEAE4B073AA CALLER JUMPDEST PUSH1 0x40 MLOAD PUSH1 0x1 PUSH1 0x1 PUSH1 0xA0 SHL SUB SWAP1 SWAP2 AND DUP2 MSTORE PUSH1 0x20 ADD PUSH1 0x40 MLOAD DUP1 SWAP2 SUB SWAP1 LOG1 JUMP JUMPDEST PUSH1 0x1 PUSH1 0x1 PUSH1 0xA0 SHL SUB DUP3 AND PUSH2 0xBDB JUMPI PUSH1 0x40 MLOAD PUSH4 0xEC442F05 PUSH1 0xE0 SHL DUP2 MSTORE PUSH0 PUSH1 0x4 DUP3 ADD MSTORE PUSH1 0x24 ADD PUSH2 0x713 JUMP JUMPDEST PUSH2 0x618 PUSH0 DUP4 DUP4 PUSH2 0xDDB JUMP JUMPDEST PUSH1 0x1 PUSH1 0x1 PUSH1 0xA0 SHL SUB DUP3 AND PUSH2 0xC0F JUMPI PUSH1 0x40 MLOAD PUSH4 0x4B637E8F PUSH1 0xE1 SHL DUP2 MSTORE PUSH0 PUSH1 0x4 DUP3 ADD MSTORE PUSH1 0x24 ADD PUSH2 0x713 JUMP JUMPDEST PUSH2 0x618 DUP3 PUSH0 DUP4 PUSH2 0xDDB JUMP JUMPDEST PUSH2 0xC22 PUSH2 0xE44 JUMP JUMPDEST PUSH1 0x5 DUP1 SLOAD PUSH1 0xFF NOT AND PUSH1 0x1 OR SWAP1 SSTORE PUSH32 0x62E78CEA01BEE320CD4E420270B5EA74000D11B0C9F74754EBDBFC544B05A258 PUSH2 0xB95 CALLER SWAP1 JUMP JUMPDEST PUSH1 0x60 PUSH2 0x553 PUSH32 0x0 PUSH1 0x7 PUSH2 0xE68 JUMP JUMPDEST PUSH1 0x60 PUSH2 0x553 PUSH32 0x0 PUSH1 0x8 PUSH2 0xE68 JUMP JUMPDEST PUSH0 PUSH2 0x450 PUSH2 0xCBD PUSH2 0x9CC JUMP JUMPDEST DUP4 PUSH1 0x40 MLOAD PUSH2 0x1901 PUSH1 0xF0 SHL DUP2 MSTORE PUSH1 0x2 DUP2 ADD SWAP3 SWAP1 SWAP3 MSTORE PUSH1 0x22 DUP3 ADD MSTORE PUSH1 0x42 SWAP1 KECCAK256 SWAP1 JUMP JUMPDEST PUSH0 DUP1 PUSH0 DUP1 PUSH2 0xCED DUP9 DUP9 DUP9 DUP9 PUSH2 0xF11 JUMP JUMPDEST SWAP3 POP SWAP3 POP SWAP3 POP PUSH2 0xCFD DUP3 DUP3 PUSH2 0xFD9 JUMP JUMPDEST POP SWAP1 SWAP7 SWAP6 POP POP POP POP POP POP JUMP JUMPDEST PUSH1 0x1 PUSH1 0x1 PUSH1 0xA0 SHL SUB DUP5 AND PUSH2 0xD32 JUMPI PUSH1 0x40 MLOAD PUSH4 0xE602DF05 PUSH1 0xE0 SHL DUP2 MSTORE PUSH0 PUSH1 0x4 DUP3 ADD MSTORE PUSH1 0x24 ADD PUSH2 0x713 JUMP JUMPDEST PUSH1 0x1 PUSH1 0x1 PUSH1 0xA0 SHL SUB DUP4 AND PUSH2 0xD5B JUMPI PUSH1 0x40 MLOAD PUSH4 0x4A1406B1 PUSH1 0xE1 SHL DUP2 MSTORE PUSH0 PUSH1 0x4 DUP3 ADD MSTORE PUSH1 0x24 ADD PUSH2 0x713 JUMP JUMPDEST PUSH1 0x1 PUSH1 0x1 PUSH1 0xA0 SHL SUB DUP1 DUP6 AND PUSH0 SWAP1 DUP2 MSTORE PUSH1 0x1 PUSH1 0x20 SWAP1 DUP2 MSTORE PUSH1 0x40 DUP1 DUP4 KECCAK256 SWAP4 DUP8 AND DUP4 MSTORE SWAP3 SWAP1 MSTORE KECCAK256 DUP3 SWAP1 SSTORE DUP1 ISZERO PUSH2 0x544 JUMPI DUP3 PUSH1 0x1 PUSH1 0x1 PUSH1 0xA0 SHL SUB AND DUP5 PUSH1 0x1 PUSH1 0x1 PUSH1 0xA0 SHL SUB AND PUSH32 0x8C5BE1E5EBEC7D5BD14F71427D1E84F3DD0314C0F7B2291E5B200AC8C7C3B925 DUP5 PUSH1 0x40 MLOAD PUSH2 0xDCD SWAP2 DUP2 MSTORE PUSH1 0x20 ADD SWAP1 JUMP JUMPDEST PUSH1 0x40 MLOAD DUP1 SWAP2 SUB SWAP1 LOG3 POP POP POP POP JUMP JUMPDEST PUSH2 0x58B DUP4 DUP4 DUP4 PUSH2 0x1091 JUMP JUMPDEST PUSH2 0xDF0 DUP3 DUP3 PUSH2 0x6AD JUMP JUMPDEST PUSH2 0x618 JUMPI PUSH1 0x40 MLOAD PUSH4 0xE2517D3F PUSH1 0xE0 SHL DUP2 MSTORE PUSH1 0x1 PUSH1 0x1 PUSH1 0xA0 SHL SUB DUP3 AND PUSH1 0x4 DUP3 ADD MSTORE PUSH1 0x24 DUP2 ADD DUP4 SWAP1 MSTORE PUSH1 0x44 ADD PUSH2 0x713 JUMP JUMPDEST PUSH1 0x5 SLOAD PUSH1 0xFF AND PUSH2 0xE42 JUMPI PUSH1 0x40 MLOAD PUSH4 0x8DFC202B PUSH1 0xE0 SHL DUP2 MSTORE PUSH1 0x4 ADD PUSH1 0x40 MLOAD DUP1 SWAP2 SUB SWAP1 REVERT JUMPDEST JUMP JUMPDEST PUSH1 0x5 SLOAD PUSH1 0xFF AND ISZERO PUSH2 0xE42 JUMPI PUSH1 0x40 MLOAD PUSH4 0xD93C0665 PUSH1 0xE0 SHL DUP2 MSTORE PUSH1 0x4 ADD PUSH1 0x40 MLOAD DUP1 SWAP2 SUB SWAP1 REVERT JUMPDEST PUSH1 0x60 PUSH1 0xFF DUP4 EQ PUSH2 0xE82 JUMPI PUSH2 0xE7B DUP4 PUSH2 0x10A4 JUMP JUMPDEST SWAP1 POP PUSH2 0x450 JUMP JUMPDEST DUP2 DUP1 SLOAD PUSH2 0xE8E SWAP1 PUSH2 0x149E JUMP JUMPDEST DUP1 PUSH1 0x1F ADD PUSH1 0x20 DUP1 SWAP2 DIV MUL PUSH1 0x20 ADD PUSH1 0x40 MLOAD SWAP1 DUP2 ADD PUSH1 0x40 MSTORE DUP1 SWAP3 SWAP2 SWAP1 DUP2 DUP2 MSTORE PUSH1 0x20 ADD DUP3 DUP1 SLOAD PUSH2 0xEBA SWAP1 PUSH2 0x149E JUMP JUMPDEST DUP1 ISZERO PUSH2 0xF05 JUMPI DUP1 PUSH1 0x1F LT PUSH2 0xEDC JUMPI PUSH2 0x100 DUP1 DUP4 SLOAD DIV MUL DUP4 MSTORE SWAP2 PUSH1 0x20 ADD SWAP2 PUSH2 0xF05 JUMP JUMPDEST DUP3 ADD SWAP2 SWAP1 PUSH0 MSTORE PUSH1 0x20 PUSH0 KECCAK256 SWAP1 JUMPDEST DUP2 SLOAD DUP2 MSTORE SWAP1 PUSH1 0x1 ADD SWAP1 PUSH1 0x20 ADD DUP1 DUP4 GT PUSH2 0xEE8 JUMPI DUP3 SWAP1 SUB PUSH1 0x1F AND DUP3 ADD SWAP2 JUMPDEST POP POP POP POP POP SWAP1 POP PUSH2 0x450 JUMP JUMPDEST PUSH0 DUP1 DUP1 PUSH32 0x7FFFFFFFFFFFFFFFFFFFFFFFFFFFFFFF5D576E7357A4501DDFE92F46681B20A0 DUP5 GT ISZERO PUSH2 0xF4A JUMPI POP PUSH0 SWAP2 POP PUSH1 0x3 SWAP1 POP DUP3 PUSH2 0xFCF JUMP JUMPDEST PUSH1 0x40 DUP1 MLOAD PUSH0 DUP1 DUP3 MSTORE PUSH1 0x20 DUP3 ADD DUP1 DUP5 MSTORE DUP11 SWAP1 MSTORE PUSH1 0xFF DUP10 AND SWAP3 DUP3 ADD SWAP3 SWAP1 SWAP3 MSTORE PUSH1 0x60 DUP2 ADD DUP8 SWAP1 MSTORE PUSH1 0x80 DUP2 ADD DUP7 SWAP1 MSTORE PUSH1 0x1 SWAP1 PUSH1 0xA0 ADD PUSH1 0x20 PUSH1 0x40 MLOAD PUSH1 0x20 DUP2 SUB SWAP1 DUP1 DUP5 SUB SWAP1 DUP6 GAS STATICCALL ISZERO DUP1 ISZERO PUSH2 0xF9B JUMPI RETURNDATASIZE PUSH0 DUP1 RETURNDATACOPY RETURNDATASIZE PUSH0 REVERT JUMPDEST POP POP PUSH1 0x40 MLOAD PUSH1 0x1F NOT ADD MLOAD SWAP2 POP POP PUSH1 0x1 PUSH1 0x1 PUSH1 0xA0 SHL SUB DUP2 AND PUSH2 0xFC6 JUMPI POP PUSH0 SWAP3 POP PUSH1 0x1 SWAP2 POP DUP3 SWAP1 POP PUSH2 0xFCF JUMP JUMPDEST SWAP3 POP PUSH0 SWAP2 POP DUP2 SWAP1 POP JUMPDEST SWAP5 POP SWAP5 POP SWAP5 SWAP2 POP POP JUMP JUMPDEST PUSH0 DUP3 PUSH1 0x3 DUP2 GT ISZERO PUSH2 0xFEC JUMPI PUSH2 0xFEC PUSH2 0x14D6 JUMP JUMPDEST SUB PUSH2 0xFF5 JUMPI POP POP JUMP JUMPDEST PUSH1 0x1 DUP3 PUSH1 0x3 DUP2 GT ISZERO PUSH2 0x1009 JUMPI PUSH2 0x1009 PUSH2 0x14D6 JUMP JUMPDEST SUB PUSH2 0x1027 JUMPI PUSH1 0x40 MLOAD PUSH4 0xF645EEDF PUSH1 0xE0 SHL DUP2 MSTORE PUSH1 0x4 ADD PUSH1 0x40 MLOAD DUP1 SWAP2 SUB SWAP1 REVERT JUMPDEST PUSH1 0x2 DUP3 PUSH1 0x3 DUP2 GT ISZERO PUSH2 0x103B JUMPI PUSH2 0x103B PUSH2 0x14D6 JUMP JUMPDEST SUB PUSH2 0x105C JUMPI PUSH1 0x40 MLOAD PUSH4 0xFCE698F7 PUSH1 0xE0 SHL DUP2 MSTORE PUSH1 0x4 DUP2 ADD DUP3 SWAP1 MSTORE PUSH1 0x24 ADD PUSH2 0x713 JUMP JUMPDEST PUSH1 0x3 DUP3 PUSH1 0x3 DUP2 GT ISZERO PUSH2 0x1070 JUMPI PUSH2 0x1070 PUSH2 0x14D6 JUMP JUMPDEST SUB PUSH2 0x618 JUMPI PUSH1 0x40 MLOAD PUSH4 0x35E2F383 PUSH1 0xE2 SHL DUP2 MSTORE PUSH1 0x4 DUP2 ADD DUP3 SWAP1 MSTORE PUSH1 0x24 ADD PUSH2 0x713 JUMP JUMPDEST PUSH2 0x1099 PUSH2 0xE44 JUMP JUMPDEST PUSH2 0x58B DUP4 DUP4 DUP4 PUSH2 0x10E1 JUMP JUMPDEST PUSH1 0x60 PUSH0 PUSH2 0x10B0 DUP4 PUSH2 0x1207 JUMP JUMPDEST PUSH1 0x40 DUP1 MLOAD PUSH1 0x20 DUP1 DUP3 MSTORE DUP2 DUP4 ADD SWAP1 SWAP3 MSTORE SWAP2 SWAP3 POP PUSH0 SWAP2 SWAP1 PUSH1 0x20 DUP3 ADD DUP2 DUP1 CALLDATASIZE DUP4 CALLDATACOPY POP POP POP SWAP2 DUP3 MSTORE POP PUSH1 0x20 DUP2 ADD SWAP3 SWAP1 SWAP3 MSTORE POP SWAP1 JUMP JUMPDEST PUSH1 0x1 PUSH1 0x1 PUSH1 0xA0 SHL SUB DUP4 AND PUSH2 0x110B JUMPI DUP1 PUSH1 0x2 PUSH0 DUP3 DUP3 SLOAD PUSH2 0x1100 SWAP2 SWAP1 PUSH2 0x14EA JUMP JUMPDEST SWAP1 SWAP2 SSTORE POP PUSH2 0x117B SWAP1 POP JUMP JUMPDEST PUSH1 0x1 PUSH1 0x1 PUSH1 0xA0 SHL SUB DUP4 AND PUSH0 SWAP1 DUP2 MSTORE PUSH1 0x20 DUP2 SWAP1 MSTORE PUSH1 0x40 SWAP1 KECCAK256 SLOAD DUP2 DUP2 LT ISZERO PUSH2 0x115D JUMPI PUSH1 0x40 MLOAD PUSH4 0x391434E3 PUSH1 0xE2 SHL DUP2 MSTORE PUSH1 0x1 PUSH1 0x1 PUSH1 0xA0 SHL SUB DUP6 AND PUSH1 0x4 DUP3 ADD MSTORE PUSH1 0x24 DUP2 ADD DUP3 SWAP1 MSTORE PUSH1 0x44 DUP2 ADD DUP4 SWAP1 MSTORE PUSH1 0x64 ADD PUSH2 0x713 JUMP JUMPDEST PUSH1 0x1 PUSH1 0x1 PUSH1 0xA0 SHL SUB DUP5 AND PUSH0 SWAP1 DUP2 MSTORE PUSH1 0x20 DUP2 SWAP1 MSTORE PUSH1 0x40 SWAP1 KECCAK256 SWAP1 DUP3 SWAP1 SUB SWAP1 SSTORE JUMPDEST PUSH1 0x1 PUSH1 0x1 PUSH1 0xA0 SHL SUB DUP3 AND PUSH2 0x1197 JUMPI PUSH1 0x2 DUP1 SLOAD DUP3 SWAP1 SUB SWAP1 SSTORE PUSH2 0x11B5 JUMP JUMPDEST PUSH1 0x1 PUSH1 0x1 PUSH1 0xA0 SHL SUB DUP3 AND PUSH0 SWAP1 DUP2 MSTORE PUSH1 0x20 DUP2 SWAP1 MSTORE PUSH1 0x40 SWAP1 KECCAK256 DUP1 SLOAD DUP3 ADD SWAP1 SSTORE JUMPDEST DUP2 PUSH1 0x1 PUSH1 0x1 PUSH1 0xA0 SHL SUB AND DUP4 PUSH1 0x1 PUSH1 0x1 PUSH1 0xA0 SHL SUB AND PUSH32 0xDDF252AD1BE2C89B69C2B068FC378DAA952BA7F163C4A11628F55A4DF523B3EF DUP4 PUSH1 0x40 MLOAD PUSH2 0x11FA SWAP2 DUP2 MSTORE PUSH1 0x20 ADD SWAP1 JUMP JUMPDEST PUSH1 0x40 MLOAD DUP1 SWAP2 SUB SWAP1 LOG3 POP POP POP JUMP JUMPDEST PUSH0 PUSH1 0xFF DUP3 AND PUSH1 0x1F DUP2 GT ISZERO PUSH2 0x450 JUMPI PUSH1 0x40 MLOAD PUSH4 0x2CD44AC3 PUSH1 0xE2 SHL DUP2 MSTORE PUSH1 0x4 ADD PUSH1 0x40 MLOAD DUP1 SWAP2 SUB SWAP1 REVERT JUMPDEST PUSH0 PUSH1 0x20 DUP3 DUP5 SUB SLT ISZERO PUSH2 0x123E JUMPI PUSH0 DUP1 REVERT JUMPDEST DUP2 CALLDATALOAD PUSH1 0x1 PUSH1 0x1 PUSH1 0xE0 SHL SUB NOT DUP2 AND DUP2 EQ PUSH2 0x1255 JUMPI PUSH0 DUP1 REVERT JUMPDEST SWAP4 SWAP3 POP POP POP JUMP JUMPDEST PUSH0 DUP2 MLOAD DUP1 DUP5 MSTORE DUP1 PUSH1 0x20 DUP5 ADD PUSH1 0x20 DUP7 ADD MCOPY PUSH0 PUSH1 0x20 DUP3 DUP7 ADD ADD MSTORE PUSH1 0x20 PUSH1 0x1F NOT PUSH1 0x1F DUP4 ADD AND DUP6 ADD ADD SWAP2 POP POP SWAP3 SWAP2 POP POP JUMP JUMPDEST PUSH1 0x20 DUP2 MSTORE PUSH0 PUSH2 0x1255 PUSH1 0x20 DUP4 ADD DUP5 PUSH2 0x125C JUMP JUMPDEST DUP1 CALLDATALOAD PUSH1 0x1 PUSH1 0x1 PUSH1 0xA0 SHL SUB DUP2 AND DUP2 EQ PUSH2 0x12B2 JUMPI PUSH0 DUP1 REVERT JUMPDEST SWAP2 SWAP1 POP JUMP JUMPDEST PUSH0 DUP1 PUSH1 0x40 DUP4 DUP6 SUB SLT ISZERO PUSH2 0x12C8 JUMPI PUSH0 DUP1 REVERT JUMPDEST PUSH2 0x12D1 DUP4 PUSH2 0x129C JUMP JUMPDEST SWAP5 PUSH1 0x20 SWAP4 SWAP1 SWAP4 ADD CALLDATALOAD SWAP4 POP POP POP JUMP JUMPDEST PUSH0 DUP1 PUSH0 PUSH1 0x60 DUP5 DUP7 SUB SLT ISZERO PUSH2 0x12F1 JUMPI PUSH0 DUP1 REVERT JUMPDEST PUSH2 0x12FA DUP5 PUSH2 0x129C JUMP JUMPDEST SWAP3 POP PUSH2 0x1308 PUSH1 0x20 DUP6 ADD PUSH2 0x129C JUMP JUMPDEST SWAP3 SWAP6 SWAP3 SWAP5 POP POP POP PUSH1 0x40 SWAP2 SWAP1 SWAP2 ADD CALLDATALOAD SWAP1 JUMP JUMPDEST PUSH0 PUSH1 0x20 DUP3 DUP5 SUB SLT ISZERO PUSH2 0x1329 JUMPI PUSH0 DUP1 REVERT JUMPDEST POP CALLDATALOAD SWAP2 SWAP1 POP JUMP JUMPDEST PUSH0 DUP1 PUSH1 0x40 DUP4 DUP6 SUB SLT ISZERO PUSH2 0x1341 JUMPI PUSH0 DUP1 REVERT JUMPDEST DUP3 CALLDATALOAD SWAP2 POP PUSH2 0x1351 PUSH1 0x20 DUP5 ADD PUSH2 0x129C JUMP JUMPDEST SWAP1 POP SWAP3 POP SWAP3 SWAP1 POP JUMP JUMPDEST PUSH0 PUSH1 0x20 DUP3 DUP5 SUB SLT ISZERO PUSH2 0x136A JUMPI PUSH0 DUP1 REVERT JUMPDEST PUSH2 0x1255 DUP3 PUSH2 0x129C JUMP JUMPDEST PUSH1 0xFF PUSH1 0xF8 SHL DUP9 AND DUP2 MSTORE PUSH1 0xE0 PUSH1 0x20 DUP3 ADD MSTORE PUSH0 PUSH2 0x1391 PUSH1 0xE0 DUP4 ADD DUP10 PUSH2 0x125C JUMP JUMPDEST DUP3 DUP2 SUB PUSH1 0x40 DUP5 ADD MSTORE PUSH2 0x13A3 DUP2 DUP10 PUSH2 0x125C JUMP JUMPDEST PUSH1 0x60 DUP5 ADD DUP9 SWAP1 MSTORE PUSH1 0x1 PUSH1 0x1 PUSH1 0xA0 SHL SUB DUP8 AND PUSH1 0x80 DUP6 ADD MSTORE PUSH1 0xA0 DUP5 ADD DUP7 SWAP1 MSTORE DUP4 DUP2 SUB PUSH1 0xC0 DUP6 ADD MSTORE DUP5 MLOAD DUP1 DUP3 MSTORE PUSH1 0x20 DUP1 DUP8 ADD SWAP4 POP SWAP1 SWAP2 ADD SWAP1 PUSH0 JUMPDEST DUP2 DUP2 LT ISZERO PUSH2 0x13F8 JUMPI DUP4 MLOAD DUP4 MSTORE PUSH1 0x20 SWAP4 DUP5 ADD SWAP4 SWAP1 SWAP3 ADD SWAP2 PUSH1 0x1 ADD PUSH2 0x13DA JUMP JUMPDEST POP SWAP1 SWAP12 SWAP11 POP POP POP POP POP POP POP POP POP POP POP JUMP JUMPDEST PUSH0 DUP1 PUSH0 DUP1 PUSH0 DUP1 PUSH0 PUSH1 0xE0 DUP9 DUP11 SUB SLT ISZERO PUSH2 0x141F JUMPI PUSH0 DUP1 REVERT JUMPDEST PUSH2 0x1428 DUP9 PUSH2 0x129C JUMP JUMPDEST SWAP7 POP PUSH2 0x1436 PUSH1 0x20 DUP10 ADD PUSH2 0x129C JUMP JUMPDEST SWAP6 POP PUSH1 0x40 DUP9 ADD CALLDATALOAD SWAP5 POP PUSH1 0x60 DUP9 ADD CALLDATALOAD SWAP4 POP PUSH1 0x80 DUP9 ADD CALLDATALOAD PUSH1 0xFF DUP2 AND DUP2 EQ PUSH2 0x1459 JUMPI PUSH0 DUP1 REVERT JUMPDEST SWAP7 SWAP10 SWAP6 SWAP9 POP SWAP4 SWAP7 SWAP3 SWAP6 SWAP5 PUSH1 0xA0 DUP5 ADD CALLDATALOAD SWAP5 POP PUSH1 0xC0 SWAP1 SWAP4 ADD CALLDATALOAD SWAP3 SWAP2 POP POP JUMP JUMPDEST PUSH0 DUP1 PUSH1 0x40 DUP4 DUP6 SUB SLT ISZERO PUSH2 0x1487 JUMPI PUSH0 DUP1 REVERT JUMPDEST PUSH2 0x1490 DUP4 PUSH2 0x129C JUMP JUMPDEST SWAP2 POP PUSH2 0x1351 PUSH1 0x20 DUP5 ADD PUSH2 0x129C JUMP JUMPDEST PUSH1 0x1 DUP2 DUP2 SHR SWAP1 DUP3 AND DUP1 PUSH2 0x14B2 JUMPI PUSH1 0x7F DUP3 AND SWAP2 POP JUMPDEST PUSH1 0x20 DUP3 LT DUP2 SUB PUSH2 0x14D0 JUMPI PUSH4 0x4E487B71 PUSH1 0xE0 SHL PUSH0 MSTORE PUSH1 0x22 PUSH1 0x4 MSTORE PUSH1 0x24 PUSH0 REVERT JUMPDEST POP SWAP2 SWAP1 POP JUMP JUMPDEST PUSH4 0x4E487B71 PUSH1 0xE0 SHL PUSH0 MSTORE PUSH1 0x21 PUSH1 0x4 MSTORE PUSH1 0x24 PUSH0 REVERT JUMPDEST DUP1 DUP3 ADD DUP1 DUP3 GT ISZERO PUSH2 0x450 JUMPI PUSH4 0x4E487B71 PUSH1 0xE0 SHL PUSH0 MSTORE PUSH1 0x11 PUSH1 0x4 MSTORE PUSH1 0x24 PUSH0 REVERT INVALID LOG2 PUSH5 0x6970667358 0x22 SLT KECCAK256 ORIGIN TSTORE LOG3 DUP8 PUSH28 0x1D1D6E46B771416D5469E07BFA3DC1B3A5F0F554127A9484970B7A64 PUSH20 0x6F6C634300081A00330000000000000000000000 "
				},
				"gasEstimates": {
					"creation": {
						"codeDepositCost": "1087800",
						"executionCost": "infinite",
						"totalCost": "infinite"
					},
					"external": {
						"DEFAULT_ADMIN_ROLE()": "238",
						"DOMAIN_SEPARATOR()": "infinite",
						"MINTER_ROLE()": "238",
						"PAUSER_ROLE()": "304",
						"allowance(address,address)": "infinite",
						"approve(address,uint256)": "24788",
						"balanceOf(address)": "2583",
						"burn(uint256)": "infinite",
						"burnFrom(address,uint256)": "infinite",
						"decimals()": "222",
						"eip712Domain()": "infinite",
						"getRoleAdmin(bytes32)": "2531",
						"grantRole(bytes32,address)": "infinite",
						"hasRole(bytes32,address)": "2740",
						"mint(address,uint256)": "infinite",
						"name()": "infinite",
						"nonces(address)": "2658",
						"pause()": "infinite",
						"paused()": "2403",
						"permit(address,address,uint256,uint256,uint8,bytes32,bytes32)": "infinite",
						"renounceRole(bytes32,address)": "29114",
						"revokeRole(bytes32,address)": "infinite",
						"supportsInterface(bytes4)": "470",
						"symbol()": "infinite",
						"totalSupply()": "2326",
						"transfer(address,uint256)": "infinite",
						"transferFrom(address,address,uint256)": "infinite",
						"unpause()": "infinite"
					},
					"internal": {
						"_update(address,address,uint256)": "infinite"
					}
				},
				"methodIdentifiers": {
					"DEFAULT_ADMIN_ROLE()": "a217fddf",
					"DOMAIN_SEPARATOR()": "3644e515",
					"MINTER_ROLE()": "d5391393",
					"PAUSER_ROLE()": "e63ab1e9",
					"allowance(address,address)": "dd62ed3e",
					"approve(address,uint256)": "095ea7b3",
					"balanceOf(address)": "70a08231",
					"burn(uint256)": "42966c68",
					"burnFrom(address,uint256)": "79cc6790",
					"decimals()": "313ce567",
					"eip712Domain()": "84b0196e",
					"getRoleAdmin(bytes32)": "248a9ca3",
					"grantRole(bytes32,address)": "2f2ff15d",
					"hasRole(bytes32,address)": "91d14854",
					"mint(address,uint256)": "40c10f19",
					"name()": "06fdde03",
					"nonces(address)": "7ecebe00",
					"pause()": "8456cb59",
					"paused()": "5c975abb",
					"permit(address,address,uint256,uint256,uint8,bytes32,bytes32)": "d505accf",
					"renounceRole(bytes32,address)": "36568abe",
					"revokeRole(bytes32,address)": "d547741f",
					"supportsInterface(bytes4)": "01ffc9a7",
					"symbol()": "95d89b41",
					"totalSupply()": "18160ddd",
					"transfer(address,uint256)": "a9059cbb",
					"transferFrom(address,address,uint256)": "23b872dd",
					"unpause()": "3f4ba83a"
				}
			},
			"storageLayout": {
				"storage": [
					{
						"astId": 563,
						"contract": "weusd/weusd.sol:picwe_usd",
						"label": "_balances",
						"offset": 0,
						"slot": "0",
						"type": "t_mapping(t_address,t_uint256)"
					},
					{
						"astId": 569,
						"contract": "weusd/weusd.sol:picwe_usd",
						"label": "_allowances",
						"offset": 0,
						"slot": "1",
						"type": "t_mapping(t_address,t_mapping(t_address,t_uint256))"
					},
					{
						"astId": 571,
						"contract": "weusd/weusd.sol:picwe_usd",
						"label": "_totalSupply",
						"offset": 0,
						"slot": "2",
						"type": "t_uint256"
					},
					{
						"astId": 573,
						"contract": "weusd/weusd.sol:picwe_usd",
						"label": "_name",
						"offset": 0,
						"slot": "3",
						"type": "t_string_storage"
					},
					{
						"astId": 575,
						"contract": "weusd/weusd.sol:picwe_usd",
						"label": "_symbol",
						"offset": 0,
						"slot": "4",
						"type": "t_string_storage"
					},
					{
						"astId": 1536,
						"contract": "weusd/weusd.sol:picwe_usd",
						"label": "_paused",
						"offset": 0,
						"slot": "5",
						"type": "t_bool"
					},
					{
						"astId": 26,
						"contract": "weusd/weusd.sol:picwe_usd",
						"label": "_roles",
						"offset": 0,
						"slot": "6",
						"type": "t_mapping(t_bytes32,t_struct(RoleData)21_storage)"
					},
					{
						"astId": 2611,
						"contract": "weusd/weusd.sol:picwe_usd",
						"label": "_nameFallback",
						"offset": 0,
						"slot": "7",
						"type": "t_string_storage"
					},
					{
						"astId": 2613,
						"contract": "weusd/weusd.sol:picwe_usd",
						"label": "_versionFallback",
						"offset": 0,
						"slot": "8",
						"type": "t_string_storage"
					},
					{
						"astId": 1473,
						"contract": "weusd/weusd.sol:picwe_usd",
						"label": "_nonces",
						"offset": 0,
						"slot": "9",
						"type": "t_mapping(t_address,t_uint256)"
					}
				],
				"types": {
					"t_address": {
						"encoding": "inplace",
						"label": "address",
						"numberOfBytes": "20"
					},
					"t_bool": {
						"encoding": "inplace",
						"label": "bool",
						"numberOfBytes": "1"
					},
					"t_bytes32": {
						"encoding": "inplace",
						"label": "bytes32",
						"numberOfBytes": "32"
					},
					"t_mapping(t_address,t_bool)": {
						"encoding": "mapping",
						"key": "t_address",
						"label": "mapping(address => bool)",
						"numberOfBytes": "32",
						"value": "t_bool"
					},
					"t_mapping(t_address,t_mapping(t_address,t_uint256))": {
						"encoding": "mapping",
						"key": "t_address",
						"label": "mapping(address => mapping(address => uint256))",
						"numberOfBytes": "32",
						"value": "t_mapping(t_address,t_uint256)"
					},
					"t_mapping(t_address,t_uint256)": {
						"encoding": "mapping",
						"key": "t_address",
						"label": "mapping(address => uint256)",
						"numberOfBytes": "32",
						"value": "t_uint256"
					},
					"t_mapping(t_bytes32,t_struct(RoleData)21_storage)": {
						"encoding": "mapping",
						"key": "t_bytes32",
						"label": "mapping(bytes32 => struct AccessControl.RoleData)",
						"numberOfBytes": "32",
						"value": "t_struct(RoleData)21_storage"
					},
					"t_string_storage": {
						"encoding": "bytes",
						"label": "string",
						"numberOfBytes": "32"
					},
					"t_struct(RoleData)21_storage": {
						"encoding": "inplace",
						"label": "struct AccessControl.RoleData",
						"members": [
							{
								"astId": 18,
								"contract": "weusd/weusd.sol:picwe_usd",
								"label": "hasRole",
								"offset": 0,
								"slot": "0",
								"type": "t_mapping(t_address,t_bool)"
							},
							{
								"astId": 20,
								"contract": "weusd/weusd.sol:picwe_usd",
								"label": "adminRole",
								"offset": 0,
								"slot": "1",
								"type": "t_bytes32"
							}
						],
						"numberOfBytes": "64"
					},
					"t_uint256": {
						"encoding": "inplace",
						"label": "uint256",
						"numberOfBytes": "32"
					}
				}
			},
			"userdoc": {
				"kind": "user",
				"methods": {},
				"version": 1
			}
		}
	}
}