{
	"contracts/weusd/manageusd.sol": {
		"weUSD_manager": {
			"abi": [
				{
					"inputs": [
						{
							"internalType": "address",
							"name": "_weUSD",
							"type": "address"
						},
						{
							"internalType": "address",
							"name": "_stablecoin",
							"type": "address"
						},
						{
							"internalType": "address",
							"name": "_crossChainMinter",
							"type": "address"
						},
						{
							"internalType": "address",
							"name": "_main",
							"type": "address"
						},
						{
							"internalType": "address",
							"name": "_feeRecipient",
							"type": "address"
						}
					],
					"stateMutability": "nonpayable",
					"type": "constructor"
				},
				{
					"inputs": [],
					"name": "AccessControlBadConfirmation",
					"type": "error"
				},
				{
					"inputs": [
						{
							"internalType": "address",
							"name": "account",
							"type": "address"
						},
						{
							"internalType": "bytes32",
							"name": "neededRole",
							"type": "bytes32"
						}
					],
					"name": "AccessControlUnauthorizedAccount",
					"type": "error"
				},
				{
					"inputs": [],
					"name": "EnforcedPause",
					"type": "error"
				},
				{
					"inputs": [],
					"name": "ExpectedPause",
					"type": "error"
				},
				{
					"anonymous": false,
					"inputs": [
						{
							"indexed": true,
							"internalType": "address",
							"name": "user",
							"type": "address"
						},
						{
							"indexed": true,
							"internalType": "address",
							"name": "stablecoin",
							"type": "address"
						},
						{
							"indexed": false,
							"internalType": "uint256",
							"name": "weUSDAmount",
							"type": "uint256"
						},
						{
							"indexed": false,
							"internalType": "uint256",
							"name": "stablecoinAmount",
							"type": "uint256"
						}
					],
					"name": "BurnedWeUSD",
					"type": "event"
				},
				{
					"anonymous": false,
					"inputs": [
						{
							"indexed": true,
							"internalType": "uint256",
							"name": "requestId",
							"type": "uint256"
						},
						{
							"indexed": true,
							"internalType": "address",
							"name": "user",
							"type": "address"
						},
						{
							"indexed": false,
							"internalType": "uint256",
							"name": "sourceChainId",
							"type": "uint256"
						},
						{
							"indexed": false,
							"internalType": "uint256",
							"name": "targetChainId",
							"type": "uint256"
						},
						{
							"indexed": false,
							"internalType": "uint256",
							"name": "amount",
							"type": "uint256"
						},
						{
							"indexed": false,
							"internalType": "address",
							"name": "targetUser",
							"type": "address"
						}
					],
					"name": "CrossChainBurn",
					"type": "event"
				},
				{
					"anonymous": false,
					"inputs": [
						{
							"indexed": true,
							"internalType": "uint256",
							"name": "requestId",
							"type": "uint256"
						},
						{
							"indexed": true,
							"internalType": "address",
							"name": "minter",
							"type": "address"
						},
						{
							"indexed": false,
							"internalType": "uint256",
							"name": "sourceChainId",
							"type": "uint256"
						},
						{
							"indexed": false,
							"internalType": "uint256",
							"name": "targetChainId",
							"type": "uint256"
						},
						{
							"indexed": false,
							"internalType": "uint256",
							"name": "amount",
							"type": "uint256"
						},
						{
							"indexed": false,
							"internalType": "address",
							"name": "targetUser",
							"type": "address"
						}
					],
					"name": "CrossChainMint",
					"type": "event"
				},
				{
					"anonymous": false,
					"inputs": [
						{
							"indexed": true,
							"internalType": "address",
							"name": "user",
							"type": "address"
						},
						{
							"indexed": true,
							"internalType": "address",
							"name": "stablecoin",
							"type": "address"
						},
						{
							"indexed": false,
							"internalType": "uint256",
							"name": "stablecoinAmount",
							"type": "uint256"
						},
						{
							"indexed": false,
							"internalType": "uint256",
							"name": "weUSDAmount",
							"type": "uint256"
						}
					],
					"name": "MintedWeUSD",
					"type": "event"
				},
				{
					"anonymous": false,
					"inputs": [
						{
							"indexed": false,
							"internalType": "address",
							"name": "account",
							"type": "address"
						}
					],
					"name": "Paused",
					"type": "event"
				},
				{
					"anonymous": false,
					"inputs": [
						{
							"indexed": true,
							"internalType": "bytes32",
							"name": "role",
							"type": "bytes32"
						},
						{
							"indexed": true,
							"internalType": "bytes32",
							"name": "previousAdminRole",
							"type": "bytes32"
						},
						{
							"indexed": true,
							"internalType": "bytes32",
							"name": "newAdminRole",
							"type": "bytes32"
						}
					],
					"name": "RoleAdminChanged",
					"type": "event"
				},
				{
					"anonymous": false,
					"inputs": [
						{
							"indexed": true,
							"internalType": "bytes32",
							"name": "role",
							"type": "bytes32"
						},
						{
							"indexed": true,
							"internalType": "address",
							"name": "account",
							"type": "address"
						},
						{
							"indexed": true,
							"internalType": "address",
							"name": "sender",
							"type": "address"
						}
					],
					"name": "RoleGranted",
					"type": "event"
				},
				{
					"anonymous": false,
					"inputs": [
						{
							"indexed": true,
							"internalType": "bytes32",
							"name": "role",
							"type": "bytes32"
						},
						{
							"indexed": true,
							"internalType": "address",
							"name": "account",
							"type": "address"
						},
						{
							"indexed": true,
							"internalType": "address",
							"name": "sender",
							"type": "address"
						}
					],
					"name": "RoleRevoked",
					"type": "event"
				},
				{
					"anonymous": false,
					"inputs": [
						{
							"indexed": true,
							"internalType": "address",
							"name": "stablecoin",
							"type": "address"
						}
					],
					"name": "StablecoinDeleted",
					"type": "event"
				},
				{
					"anonymous": false,
					"inputs": [
						{
							"indexed": true,
							"internalType": "address",
							"name": "stablecoin",
							"type": "address"
						}
					],
					"name": "StablecoinRegistered",
					"type": "event"
				},
				{
					"anonymous": false,
					"inputs": [
						{
							"indexed": false,
							"internalType": "address",
							"name": "account",
							"type": "address"
						}
					],
					"name": "Unpaused",
					"type": "event"
				},
				{
					"inputs": [],
					"name": "ADMIN_ROLE",
					"outputs": [
						{
							"internalType": "bytes32",
							"name": "",
							"type": "bytes32"
						}
					],
					"stateMutability": "view",
					"type": "function"
				},
				{
					"inputs": [],
					"name": "CROSS_CHAIN_MINTER_ROLE",
					"outputs": [
						{
							"internalType": "bytes32",
							"name": "",
							"type": "bytes32"
						}
					],
					"stateMutability": "view",
					"type": "function"
				},
				{
					"inputs": [],
					"name": "DEFAULT_ADMIN_ROLE",
					"outputs": [
						{
							"internalType": "bytes32",
							"name": "",
							"type": "bytes32"
						}
					],
					"stateMutability": "view",
					"type": "function"
				},
				{
					"inputs": [],
					"name": "PAUSER_ROLE",
					"outputs": [
						{
							"internalType": "bytes32",
							"name": "",
							"type": "bytes32"
						}
					],
					"stateMutability": "view",
					"type": "function"
				},
				{
					"inputs": [
						{
							"internalType": "address",
							"name": "stablecoin",
							"type": "address"
						},
						{
							"internalType": "uint256",
							"name": "weUSDAmount",
							"type": "uint256"
						}
					],
					"name": "burnWeUSD",
					"outputs": [],
					"stateMutability": "nonpayable",
					"type": "function"
				},
				{
					"inputs": [
						{
							"internalType": "uint256",
							"name": "targetChainId",
							"type": "uint256"
						},
						{
							"internalType": "uint256",
							"name": "amount",
							"type": "uint256"
						},
						{
							"internalType": "address",
							"name": "targetUser",
							"type": "address"
						}
					],
					"name": "burnWeUSDCrossChain",
					"outputs": [],
					"stateMutability": "nonpayable",
					"type": "function"
				},
				{
					"inputs": [
						{
							"internalType": "address",
							"name": "stablecoin",
							"type": "address"
						}
					],
					"name": "deleteStablecoin",
					"outputs": [],
					"stateMutability": "nonpayable",
					"type": "function"
				},
				{
					"inputs": [],
					"name": "feeRecipient",
					"outputs": [
						{
							"internalType": "address",
							"name": "",
							"type": "address"
						}
					],
					"stateMutability": "view",
					"type": "function"
				},
				{
					"inputs": [],
					"name": "gasfee",
					"outputs": [
						{
							"internalType": "uint256",
							"name": "",
							"type": "uint256"
						}
					],
					"stateMutability": "view",
					"type": "function"
				},
				{
					"inputs": [],
					"name": "getLatestRequestId",
					"outputs": [
						{
							"internalType": "uint256",
							"name": "",
							"type": "uint256"
						}
					],
					"stateMutability": "view",
					"type": "function"
				},
				{
					"inputs": [
						{
							"internalType": "bytes32",
							"name": "role",
							"type": "bytes32"
						}
					],
					"name": "getRoleAdmin",
					"outputs": [
						{
							"internalType": "bytes32",
							"name": "",
							"type": "bytes32"
						}
					],
					"stateMutability": "view",
					"type": "function"
				},
				{
					"inputs": [
						{
							"internalType": "bytes32",
							"name": "role",
							"type": "bytes32"
						},
						{
							"internalType": "address",
							"name": "account",
							"type": "address"
						}
					],
					"name": "grantRole",
					"outputs": [],
					"stateMutability": "nonpayable",
					"type": "function"
				},
				{
					"inputs": [
						{
							"internalType": "bytes32",
							"name": "role",
							"type": "bytes32"
						},
						{
							"internalType": "address",
							"name": "account",
							"type": "address"
						}
					],
					"name": "hasRole",
					"outputs": [
						{
							"internalType": "bool",
							"name": "",
							"type": "bool"
						}
					],
					"stateMutability": "view",
					"type": "function"
				},
				{
					"inputs": [
						{
							"internalType": "uint256",
							"name": "requestId",
							"type": "uint256"
						}
					],
					"name": "isRequestIdUsed",
					"outputs": [
						{
							"internalType": "bool",
							"name": "",
							"type": "bool"
						}
					],
					"stateMutability": "view",
					"type": "function"
				},
				{
					"inputs": [],
					"name": "mainContract",
					"outputs": [
						{
							"internalType": "contract IMainContract",
							"name": "",
							"type": "address"
						}
					],
					"stateMutability": "view",
					"type": "function"
				},
				{
					"inputs": [
						{
							"internalType": "address",
							"name": "stablecoin",
							"type": "address"
						},
						{
							"internalType": "uint256",
							"name": "stablecoinAmount",
							"type": "uint256"
						}
					],
					"name": "mintWeUSD",
					"outputs": [],
					"stateMutability": "nonpayable",
					"type": "function"
				},
				{
					"inputs": [
						{
							"internalType": "uint256",
							"name": "requestId",
							"type": "uint256"
						},
						{
							"internalType": "uint256",
							"name": "sourceChainId",
							"type": "uint256"
						},
						{
							"internalType": "uint256",
							"name": "amount",
							"type": "uint256"
						},
						{
							"internalType": "address",
							"name": "targetUser",
							"type": "address"
						}
					],
					"name": "mintWeUSDCrossChain",
					"outputs": [],
					"stateMutability": "nonpayable",
					"type": "function"
				},
				{
					"inputs": [],
					"name": "pause",
					"outputs": [],
					"stateMutability": "nonpayable",
					"type": "function"
				},
				{
					"inputs": [],
					"name": "paused",
					"outputs": [
						{
							"internalType": "bool",
							"name": "",
							"type": "bool"
						}
					],
					"stateMutability": "view",
					"type": "function"
				},
				{
					"inputs": [
						{
							"internalType": "address",
							"name": "stablecoin",
							"type": "address"
						}
					],
					"name": "registerStablecoin",
					"outputs": [],
					"stateMutability": "nonpayable",
					"type": "function"
				},
				{
					"inputs": [
						{
							"internalType": "address",
							"name": "",
							"type": "address"
						}
					],
					"name": "registeredStablecoins",
					"outputs": [
						{
							"internalType": "bool",
							"name": "",
							"type": "bool"
						}
					],
					"stateMutability": "view",
					"type": "function"
				},
				{
					"inputs": [
						{
							"internalType": "bytes32",
							"name": "role",
							"type": "bytes32"
						},
						{
							"internalType": "address",
							"name": "callerConfirmation",
							"type": "address"
						}
					],
					"name": "renounceRole",
					"outputs": [],
					"stateMutability": "nonpayable",
					"type": "function"
				},
				{
					"inputs": [],
					"name": "requestCount",
					"outputs": [
						{
							"internalType": "uint256",
							"name": "",
							"type": "uint256"
						}
					],
					"stateMutability": "view",
					"type": "function"
				},
				{
					"inputs": [
						{
							"internalType": "bytes32",
							"name": "role",
							"type": "bytes32"
						},
						{
							"internalType": "address",
							"name": "account",
							"type": "address"
						}
					],
					"name": "revokeRole",
					"outputs": [],
					"stateMutability": "nonpayable",
					"type": "function"
				},
				{
					"inputs": [
						{
							"internalType": "address",
							"name": "_feeRecipient",
							"type": "address"
						}
					],
					"name": "setFeeRecipient",
					"outputs": [],
					"stateMutability": "nonpayable",
					"type": "function"
				},
				{
					"inputs": [
						{
							"internalType": "uint256",
							"name": "_gasfee",
							"type": "uint256"
						}
					],
					"name": "setGasfee",
					"outputs": [],
					"stateMutability": "nonpayable",
					"type": "function"
				},
				{
					"inputs": [
						{
							"internalType": "bytes4",
							"name": "interfaceId",
							"type": "bytes4"
						}
					],
					"name": "supportsInterface",
					"outputs": [
						{
							"internalType": "bool",
							"name": "",
							"type": "bool"
						}
					],
					"stateMutability": "view",
					"type": "function"
				},
				{
					"inputs": [],
					"name": "unpause",
					"outputs": [],
					"stateMutability": "nonpayable",
					"type": "function"
				},
				{
					"inputs": [
						{
							"internalType": "uint256",
							"name": "",
							"type": "uint256"
						}
					],
					"name": "usedRequestIds",
					"outputs": [
						{
							"internalType": "bool",
							"name": "",
							"type": "bool"
						}
					],
					"stateMutability": "view",
					"type": "function"
				},
				{
					"inputs": [],
					"name": "weUSD",
					"outputs": [
						{
							"internalType": "contract IPicweUSD",
							"name": "",
							"type": "address"
						}
					],
					"stateMutability": "view",
					"type": "function"
				}
			],
			"devdoc": {
				"errors": {
					"AccessControlBadConfirmation()": [
						{
							"details": "The caller of a function is not the expected one. NOTE: Don't confuse with {AccessControlUnauthorizedAccount}."
						}
					],
					"AccessControlUnauthorizedAccount(address,bytes32)": [
						{
							"details": "The `account` is missing a role."
						}
					],
					"EnforcedPause()": [
						{
							"details": "The operation failed because the contract is paused."
						}
					],
					"ExpectedPause()": [
						{
							"details": "The operation failed because the contract is not paused."
						}
					]
				},
				"events": {
					"Paused(address)": {
						"details": "Emitted when the pause is triggered by `account`."
					},
					"RoleAdminChanged(bytes32,bytes32,bytes32)": {
						"details": "Emitted when `newAdminRole` is set as ``role``'s admin role, replacing `previousAdminRole` `DEFAULT_ADMIN_ROLE` is the starting admin for all roles, despite {RoleAdminChanged} not being emitted signaling this."
					},
					"RoleGranted(bytes32,address,address)": {
						"details": "Emitted when `account` is granted `role`. `sender` is the account that originated the contract call, an admin role bearer except when using {AccessControl-_setupRole}."
					},
					"RoleRevoked(bytes32,address,address)": {
						"details": "Emitted when `account` is revoked `role`. `sender` is the account that originated the contract call:   - if using `revokeRole`, it is the admin role bearer   - if using `renounceRole`, it is the role bearer (i.e. `account`)"
					},
					"Unpaused(address)": {
						"details": "Emitted when the pause is lifted by `account`."
					}
				},
				"kind": "dev",
				"methods": {
					"getRoleAdmin(bytes32)": {
						"details": "Returns the admin role that controls `role`. See {grantRole} and {revokeRole}. To change a role's admin, use {_setRoleAdmin}."
					},
					"grantRole(bytes32,address)": {
						"details": "Grants `role` to `account`. If `account` had not been already granted `role`, emits a {RoleGranted} event. Requirements: - the caller must have ``role``'s admin role. May emit a {RoleGranted} event."
					},
					"hasRole(bytes32,address)": {
						"details": "Returns `true` if `account` has been granted `role`."
					},
					"paused()": {
						"details": "Returns true if the contract is paused, and false otherwise."
					},
					"renounceRole(bytes32,address)": {
						"details": "Revokes `role` from the calling account. Roles are often managed via {grantRole} and {revokeRole}: this function's purpose is to provide a mechanism for accounts to lose their privileges if they are compromised (such as when a trusted device is misplaced). If the calling account had been revoked `role`, emits a {RoleRevoked} event. Requirements: - the caller must be `callerConfirmation`. May emit a {RoleRevoked} event."
					},
					"revokeRole(bytes32,address)": {
						"details": "Revokes `role` from `account`. If `account` had been granted `role`, emits a {RoleRevoked} event. Requirements: - the caller must have ``role``'s admin role. May emit a {RoleRevoked} event."
					},
					"supportsInterface(bytes4)": {
						"details": "See {IERC165-supportsInterface}."
					}
				},
				"version": 1
			},
			"evm": {
				"assembly": "    /* \"contracts/weusd/manageusd.sol\":370:7067  contract weUSD_manager is AccessControl, Pausable{... */\n  mstore(0x40, 0x80)\n    /* \"contracts/weusd/manageusd.sol\":782:792  5/10*10**6 */\n  0x07a120\n    /* \"contracts/weusd/manageusd.sol\":758:792  uint256 public gasfee = 5/10*10**6 */\n  0x04\n  sstore\n    /* \"contracts/weusd/manageusd.sol\":1629:2140  constructor(address _weUSD, address _stablecoin, address _crossChainMinter, address _main, address _feeRecipient) {... */\n  callvalue\n  dup1\n  iszero\n  tag_1\n  jumpi\n  0x00\n  dup1\n  revert\ntag_1:\n  pop\n  mload(0x40)\n  sub(codesize, bytecodeSize)\n  dup1\n  bytecodeSize\n  dup4\n  codecopy\n  dup2\n  add\n  0x40\n  dup2\n  swap1\n  mstore\n  tag_2\n  swap2\n  tag_3\n  jump\t// in\ntag_2:\n    /* \"@openzeppelin/contracts/utils/Pausable.sol\":1231:1238  _paused */\n  0x01\n    /* \"@openzeppelin/contracts/utils/Pausable.sol\":1231:1246  _paused = false */\n  dup1\n  sload\n    /* \"contracts/weusd/manageusd.sol\":1754:1759  weUSD */\n  0x02\n    /* \"contracts/weusd/manageusd.sol\":1754:1779  weUSD = IPicweUSD(_weUSD) */\n  dup1\n  sload\n  sub(shl(0xa0, 0x01), 0x01)\n  dup1\n  dup11\n  and\n  not(sub(shl(0xa0, 0x01), 0x01))\n  swap1\n  swap3\n  and\n  swap2\n  swap1\n  swap2\n  or\n  swap1\n  swap2\n  sstore\n    /* \"contracts/weusd/manageusd.sol\":1790:1825  mainContract = IMainContract(_main) */\n  dup5\n  and\n    /* \"@openzeppelin/contracts/utils/Pausable.sol\":1231:1246  _paused = false */\n  0x0100\n    /* \"contracts/weusd/manageusd.sol\":1790:1825  mainContract = IMainContract(_main) */\n  mul\n  not(sub(shl(0xa8, 0x01), 0x01))\n  swap1\n  swap2\n  and\n  or\n  swap1\n  sstore\n    /* \"contracts/weusd/manageusd.sol\":1836:1878  _grantRole(DEFAULT_ADMIN_ROLE, msg.sender) */\n  tag_8\n    /* \"@openzeppelin/contracts/utils/Pausable.sol\":1241:1246  false */\n  0x00\n    /* \"contracts/weusd/manageusd.sol\":1867:1877  msg.sender */\n  caller\n    /* \"contracts/weusd/manageusd.sol\":1836:1846  _grantRole */\n  tag_9\n    /* \"contracts/weusd/manageusd.sol\":1836:1878  _grantRole(DEFAULT_ADMIN_ROLE, msg.sender) */\n  jump\t// in\ntag_8:\n  pop\n    /* \"contracts/weusd/manageusd.sol\":1889:1923  _grantRole(ADMIN_ROLE, msg.sender) */\n  tag_10\n    /* \"contracts/weusd/manageusd.sol\":503:526  keccak256(\"ADMIN_ROLE\") */\n  0xa49807205ce4d355092ef5a8a18f56e8913cf4a201fbe287825b095693c21775\n    /* \"contracts/weusd/manageusd.sol\":1912:1922  msg.sender */\n  caller\n    /* \"contracts/weusd/manageusd.sol\":1889:1899  _grantRole */\n  tag_9\n    /* \"contracts/weusd/manageusd.sol\":1889:1923  _grantRole(ADMIN_ROLE, msg.sender) */\n  jump\t// in\ntag_10:\n  pop\n    /* \"contracts/weusd/manageusd.sol\":1934:1988  _grantRole(CROSS_CHAIN_MINTER_ROLE, _crossChainMinter) */\n  tag_11\n    /* \"contracts/weusd/manageusd.sol\":652:688  keccak256(\"CROSS_CHAIN_MINTER_ROLE\") */\n  0x41de7ae3becaf069074d499ebcbd36df88385ba1e2946870f7e4674aecd43704\n    /* \"contracts/weusd/manageusd.sol\":1970:1987  _crossChainMinter */\n  dup5\n    /* \"contracts/weusd/manageusd.sol\":1934:1944  _grantRole */\n  tag_9\n    /* \"contracts/weusd/manageusd.sol\":1934:1988  _grantRole(CROSS_CHAIN_MINTER_ROLE, _crossChainMinter) */\n  jump\t// in\ntag_11:\n  pop\n    /* \"contracts/weusd/manageusd.sol\":1999:2041  _grantRole(PAUSER_ROLE, _crossChainMinter) */\n  tag_12\n    /* \"contracts/weusd/manageusd.sol\":571:595  keccak256(\"PAUSER_ROLE\") */\n  0x65d7a28e3265b37a6474929f336521b332c1681b933f6cb9f3376673440d862a\n    /* \"contracts/weusd/manageusd.sol\":2023:2040  _crossChainMinter */\n  dup5\n    /* \"contracts/weusd/manageusd.sol\":1999:2009  _grantRole */\n  tag_9\n    /* \"contracts/weusd/manageusd.sol\":1999:2041  _grantRole(PAUSER_ROLE, _crossChainMinter) */\n  jump\t// in\ntag_12:\n  pop\n  sub(shl(0xa0, 0x01), 0x01)\n    /* \"contracts/weusd/manageusd.sol\":2052:2086  registeredStablecoins[_stablecoin] */\n  swap4\n  dup5\n  and\n  0x00\n  swap1\n  dup2\n  mstore\n    /* \"contracts/weusd/manageusd.sol\":2052:2073  registeredStablecoins */\n  0x06\n    /* \"contracts/weusd/manageusd.sol\":2052:2086  registeredStablecoins[_stablecoin] */\n  0x20\n  mstore\n  0x40\n  swap1\n  keccak256\n    /* \"contracts/weusd/manageusd.sol\":2052:2093  registeredStablecoins[_stablecoin] = true */\n  dup1\n  sload\n  not(0xff)\n  and\n    /* \"contracts/weusd/manageusd.sol\":2089:2093  true */\n  0x01\n    /* \"contracts/weusd/manageusd.sol\":2052:2093  registeredStablecoins[_stablecoin] = true */\n  or\n  swap1\n  sstore\n    /* \"contracts/weusd/manageusd.sol\":2104:2116  feeRecipient */\n  0x05\n    /* \"contracts/weusd/manageusd.sol\":2104:2132  feeRecipient = _feeRecipient */\n  dup1\n  sload\n  swap2\n  swap1\n  swap5\n  and\n  not(sub(shl(0xa0, 0x01), 0x01))\n  swap1\n  swap2\n  and\n  or\n  swap1\n  swap3\n  sstore\n  pop\n    /* \"contracts/weusd/manageusd.sol\":370:7067  contract weUSD_manager is AccessControl, Pausable{... */\n  tag_24\n  swap2\n  pop\n  pop\n  jump\n    /* \"@openzeppelin/contracts/access/AccessControl.sol\":6179:6495  function _grantRole(bytes32 role, address account) internal virtual returns (bool) {... */\ntag_9:\n    /* \"@openzeppelin/contracts/access/AccessControl.sol\":6256:6260  bool */\n  0x00\n    /* \"@openzeppelin/contracts/access/AccessControl.sol\":2954:2966  _roles[role] */\n  dup3\n  dup2\n  mstore\n  0x20\n  dup2\n  dup2\n  mstore\n  0x40\n  dup1\n  dup4\n  keccak256\n  sub(shl(0xa0, 0x01), 0x01)\n    /* \"@openzeppelin/contracts/access/AccessControl.sol\":2954:2983  _roles[role].hasRole[account] */\n  dup6\n  and\n  dup5\n  mstore\n  swap1\n  swap2\n  mstore\n  dup2\n  keccak256\n  sload\n  0xff\n  and\n    /* \"@openzeppelin/contracts/access/AccessControl.sol\":6272:6489  if (!hasRole(role, account)) {... */\n  tag_17\n  jumpi\n    /* \"@openzeppelin/contracts/access/AccessControl.sol\":6315:6321  _roles */\n  0x00\n    /* \"@openzeppelin/contracts/access/AccessControl.sol\":6315:6327  _roles[role] */\n  dup4\n  dup2\n  mstore\n  0x20\n  dup2\n  dup2\n  mstore\n  0x40\n  dup1\n  dup4\n  keccak256\n  sub(shl(0xa0, 0x01), 0x01)\n    /* \"@openzeppelin/contracts/access/AccessControl.sol\":6315:6344  _roles[role].hasRole[account] */\n  dup7\n  and\n  dup5\n  mstore\n  swap1\n  swap2\n  mstore\n  swap1\n  keccak256\n    /* \"@openzeppelin/contracts/access/AccessControl.sol\":6315:6351  _roles[role].hasRole[account] = true */\n  dup1\n  sload\n  not(0xff)\n  and\n    /* \"@openzeppelin/contracts/access/AccessControl.sol\":6347:6351  true */\n  0x01\n    /* \"@openzeppelin/contracts/access/AccessControl.sol\":6315:6351  _roles[role].hasRole[account] = true */\n  or\n  swap1\n  sstore\n    /* \"@openzeppelin/contracts/access/AccessControl.sol\":6397:6409  _msgSender() */\n  tag_18\n    /* \"@openzeppelin/contracts/utils/Context.sol\":735:745  msg.sender */\n  caller\n  swap1\n    /* \"@openzeppelin/contracts/utils/Context.sol\":656:752  function _msgSender() internal view virtual returns (address) {... */\n  jump\n    /* \"@openzeppelin/contracts/access/AccessControl.sol\":6397:6409  _msgSender() */\ntag_18:\n  sub(shl(0xa0, 0x01), 0x01)\n    /* \"@openzeppelin/contracts/access/AccessControl.sol\":6370:6410  RoleGranted(role, account, _msgSender()) */\n  and\n    /* \"@openzeppelin/contracts/access/AccessControl.sol\":6388:6395  account */\n  dup3\n  sub(shl(0xa0, 0x01), 0x01)\n    /* \"@openzeppelin/contracts/access/AccessControl.sol\":6370:6410  RoleGranted(role, account, _msgSender()) */\n  and\n    /* \"@openzeppelin/contracts/access/AccessControl.sol\":6382:6386  role */\n  dup5\n    /* \"@openzeppelin/contracts/access/AccessControl.sol\":6370:6410  RoleGranted(role, account, _msgSender()) */\n  0x2f8788117e7eff1d82e926ec794901d17c78024a50270940304540a733656f0d\n  mload(0x40)\n  mload(0x40)\n  dup1\n  swap2\n  sub\n  swap1\n  log4\n  pop\n    /* \"@openzeppelin/contracts/access/AccessControl.sol\":6431:6435  true */\n  0x01\n    /* \"@openzeppelin/contracts/access/AccessControl.sol\":6424:6435  return true */\n  jump(tag_20)\n    /* \"@openzeppelin/contracts/access/AccessControl.sol\":6272:6489  if (!hasRole(role, account)) {... */\ntag_17:\n  pop\n    /* \"@openzeppelin/contracts/access/AccessControl.sol\":6473:6478  false */\n  0x00\n    /* \"@openzeppelin/contracts/access/AccessControl.sol\":6272:6489  if (!hasRole(role, account)) {... */\ntag_20:\n    /* \"@openzeppelin/contracts/access/AccessControl.sol\":6179:6495  function _grantRole(bytes32 role, address account) internal virtual returns (bool) {... */\n  swap3\n  swap2\n  pop\n  pop\n  jump\t// out\n    /* \"#utility.yul\":14:191   */\ntag_23:\n    /* \"#utility.yul\":93:106   */\n  dup1\n  mload\n  sub(shl(0xa0, 0x01), 0x01)\n    /* \"#utility.yul\":135:166   */\n  dup2\n  and\n    /* \"#utility.yul\":125:167   */\n  dup2\n  eq\n    /* \"#utility.yul\":115:185   */\n  tag_26\n  jumpi\n    /* \"#utility.yul\":181:182   */\n  0x00\n    /* \"#utility.yul\":178:179   */\n  dup1\n    /* \"#utility.yul\":171:183   */\n  revert\n    /* \"#utility.yul\":115:185   */\ntag_26:\n    /* \"#utility.yul\":14:191   */\n  swap2\n  swap1\n  pop\n  jump\t// out\n    /* \"#utility.yul\":196:746   */\ntag_3:\n    /* \"#utility.yul\":302:308   */\n  0x00\n    /* \"#utility.yul\":310:316   */\n  dup1\n    /* \"#utility.yul\":318:324   */\n  0x00\n    /* \"#utility.yul\":326:332   */\n  dup1\n    /* \"#utility.yul\":334:340   */\n  0x00\n    /* \"#utility.yul\":387:390   */\n  0xa0\n    /* \"#utility.yul\":375:384   */\n  dup7\n    /* \"#utility.yul\":366:373   */\n  dup9\n    /* \"#utility.yul\":362:385   */\n  sub\n    /* \"#utility.yul\":358:391   */\n  slt\n    /* \"#utility.yul\":355:408   */\n  iszero\n  tag_28\n  jumpi\n    /* \"#utility.yul\":404:405   */\n  0x00\n    /* \"#utility.yul\":401:402   */\n  dup1\n    /* \"#utility.yul\":394:406   */\n  revert\n    /* \"#utility.yul\":355:408   */\ntag_28:\n    /* \"#utility.yul\":427:467   */\n  tag_29\n    /* \"#utility.yul\":457:466   */\n  dup7\n    /* \"#utility.yul\":427:467   */\n  tag_23\n  jump\t// in\ntag_29:\n    /* \"#utility.yul\":417:467   */\n  swap5\n  pop\n    /* \"#utility.yul\":486:535   */\n  tag_30\n    /* \"#utility.yul\":531:533   */\n  0x20\n    /* \"#utility.yul\":520:529   */\n  dup8\n    /* \"#utility.yul\":516:534   */\n  add\n    /* \"#utility.yul\":486:535   */\n  tag_23\n  jump\t// in\ntag_30:\n    /* \"#utility.yul\":476:535   */\n  swap4\n  pop\n    /* \"#utility.yul\":554:603   */\n  tag_31\n    /* \"#utility.yul\":599:601   */\n  0x40\n    /* \"#utility.yul\":588:597   */\n  dup8\n    /* \"#utility.yul\":584:602   */\n  add\n    /* \"#utility.yul\":554:603   */\n  tag_23\n  jump\t// in\ntag_31:\n    /* \"#utility.yul\":544:603   */\n  swap3\n  pop\n    /* \"#utility.yul\":622:671   */\n  tag_32\n    /* \"#utility.yul\":667:669   */\n  0x60\n    /* \"#utility.yul\":656:665   */\n  dup8\n    /* \"#utility.yul\":652:670   */\n  add\n    /* \"#utility.yul\":622:671   */\n  tag_23\n  jump\t// in\ntag_32:\n    /* \"#utility.yul\":612:671   */\n  swap2\n  pop\n    /* \"#utility.yul\":690:740   */\n  tag_33\n    /* \"#utility.yul\":735:738   */\n  0x80\n    /* \"#utility.yul\":724:733   */\n  dup8\n    /* \"#utility.yul\":720:739   */\n  add\n    /* \"#utility.yul\":690:740   */\n  tag_23\n  jump\t// in\ntag_33:\n    /* \"#utility.yul\":680:740   */\n  swap1\n  pop\n    /* \"#utility.yul\":196:746   */\n  swap3\n  swap6\n  pop\n  swap3\n  swap6\n  swap1\n  swap4\n  pop\n  jump\t// out\ntag_24:\n    /* \"contracts/weusd/manageusd.sol\":370:7067  contract weUSD_manager is AccessControl, Pausable{... */\n  dataSize(sub_0)\n  dup1\n  dataOffset(sub_0)\n  0x00\n  codecopy\n  0x00\n  return\nstop\n\nsub_0: assembly {\n        /* \"contracts/weusd/manageusd.sol\":370:7067  contract weUSD_manager is AccessControl, Pausable{... */\n      mstore(0x40, 0x80)\n      callvalue\n      dup1\n      iszero\n      tag_1\n      jumpi\n      0x00\n      dup1\n      revert\n    tag_1:\n      pop\n      jumpi(tag_2, lt(calldatasize, 0x04))\n      shr(0xe0, calldataload(0x00))\n      dup1\n      0x75b238fc\n      gt\n      tag_33\n      jumpi\n      dup1\n      0xb190d8a3\n      gt\n      tag_34\n      jumpi\n      dup1\n      0xd270e7ab\n      gt\n      tag_35\n      jumpi\n      dup1\n      0xd270e7ab\n      eq\n      tag_29\n      jumpi\n      dup1\n      0xd547741f\n      eq\n      tag_30\n      jumpi\n      dup1\n      0xe63ab1e9\n      eq\n      tag_31\n      jumpi\n      dup1\n      0xe74b981b\n      eq\n      tag_32\n      jumpi\n      0x00\n      dup1\n      revert\n    tag_35:\n      dup1\n      0xb190d8a3\n      eq\n      tag_25\n      jumpi\n      dup1\n      0xc5494ffb\n      eq\n      tag_26\n      jumpi\n      dup1\n      0xc6400657\n      eq\n      tag_27\n      jumpi\n      dup1\n      0xd19fad37\n      eq\n      tag_28\n      jumpi\n      0x00\n      dup1\n      revert\n    tag_34:\n      dup1\n      0x9ea4f3a4\n      gt\n      tag_36\n      jumpi\n      dup1\n      0x9ea4f3a4\n      eq\n      tag_21\n      jumpi\n      dup1\n      0xa217fddf\n      eq\n      tag_22\n      jumpi\n      dup1\n      0xa2519ae4\n      eq\n      tag_23\n      jumpi\n      dup1\n      0xa62e1b3e\n      eq\n      tag_24\n      jumpi\n      0x00\n      dup1\n      revert\n    tag_36:\n      dup1\n      0x75b238fc\n      eq\n      tag_18\n      jumpi\n      dup1\n      0x8456cb59\n      eq\n      tag_19\n      jumpi\n      dup1\n      0x91d14854\n      eq\n      tag_20\n      jumpi\n      0x00\n      dup1\n      revert\n    tag_33:\n      dup1\n      0x2f2ff15d\n      gt\n      tag_37\n      jumpi\n      dup1\n      0x3f4ba83a\n      gt\n      tag_38\n      jumpi\n      dup1\n      0x3f4ba83a\n      eq\n      tag_14\n      jumpi\n      dup1\n      0x46904840\n      eq\n      tag_15\n      jumpi\n      dup1\n      0x5badbe4c\n      eq\n      tag_16\n      jumpi\n      dup1\n      0x5c975abb\n      eq\n      tag_17\n      jumpi\n      0x00\n      dup1\n      revert\n    tag_38:\n      dup1\n      0x2f2ff15d\n      eq\n      tag_10\n      jumpi\n      dup1\n      0x2f92893c\n      eq\n      tag_11\n      jumpi\n      dup1\n      0x36568abe\n      eq\n      tag_12\n      jumpi\n      dup1\n      0x37174202\n      eq\n      tag_13\n      jumpi\n      0x00\n      dup1\n      revert\n    tag_37:\n      dup1\n      0x1008776f\n      gt\n      tag_39\n      jumpi\n      dup1\n      0x1008776f\n      eq\n      tag_6\n      jumpi\n      dup1\n      0x1e7502d7\n      eq\n      tag_7\n      jumpi\n      dup1\n      0x1f224564\n      eq\n      tag_8\n      jumpi\n      dup1\n      0x248a9ca3\n      eq\n      tag_9\n      jumpi\n      0x00\n      dup1\n      revert\n    tag_39:\n      dup1\n      0x677016\n      eq\n      tag_3\n      jumpi\n      dup1\n      0x01ffc9a7\n      eq\n      tag_4\n      jumpi\n      dup1\n      0x0bd31a57\n      eq\n      tag_5\n      jumpi\n    tag_2:\n      0x00\n      dup1\n      revert\n        /* \"contracts/weusd/manageusd.sol\":758:792  uint256 public gasfee = 5/10*10**6 */\n    tag_3:\n      tag_40\n      sload(0x04)\n      dup2\n      jump\n    tag_40:\n      mload(0x40)\n        /* \"#utility.yul\":160:185   */\n      swap1\n      dup2\n      mstore\n        /* \"#utility.yul\":148:150   */\n      0x20\n        /* \"#utility.yul\":133:151   */\n      add\n        /* \"contracts/weusd/manageusd.sol\":758:792  uint256 public gasfee = 5/10*10**6 */\n    tag_42:\n      mload(0x40)\n      dup1\n      swap2\n      sub\n      swap1\n      return\n        /* \"@openzeppelin/contracts/access/AccessControl.sol\":2565:2767  function supportsInterface(bytes4 interfaceId) public view virtual override returns (bool) {... */\n    tag_4:\n      tag_44\n      tag_45\n      calldatasize\n      0x04\n      tag_46\n      jump\t// in\n    tag_45:\n      tag_47\n      jump\t// in\n    tag_44:\n      mload(0x40)\n        /* \"#utility.yul\":652:666   */\n      swap1\n      iszero\n        /* \"#utility.yul\":645:667   */\n      iszero\n        /* \"#utility.yul\":627:668   */\n      dup2\n      mstore\n        /* \"#utility.yul\":615:617   */\n      0x20\n        /* \"#utility.yul\":600:618   */\n      add\n        /* \"@openzeppelin/contracts/access/AccessControl.sol\":2565:2767  function supportsInterface(bytes4 interfaceId) public view virtual override returns (bool) {... */\n      tag_42\n        /* \"#utility.yul\":487:674   */\n      jump\n        /* \"contracts/weusd/manageusd.sol\":4155:5036  function burnWeUSDCrossChain(uint256 targetChainId, uint256 amount, address targetUser) external {... */\n    tag_5:\n      tag_50\n      tag_51\n      calldatasize\n      0x04\n      tag_52\n      jump\t// in\n    tag_51:\n      tag_53\n      jump\t// in\n    tag_50:\n      stop\n        /* \"contracts/weusd/manageusd.sol\":2749:2930  function deleteStablecoin(address stablecoin) external onlyRole(ADMIN_ROLE) {... */\n    tag_6:\n      tag_50\n      tag_55\n      calldatasize\n      0x04\n      tag_56\n      jump\t// in\n    tag_55:\n      tag_57\n      jump\t// in\n        /* \"contracts/weusd/manageusd.sol\":5712:5834  function isRequestIdUsed(uint256 requestId) public view returns (bool) {... */\n    tag_7:\n      tag_44\n      tag_59\n      calldatasize\n      0x04\n      tag_60\n      jump\t// in\n    tag_59:\n        /* \"contracts/weusd/manageusd.sol\":5777:5781  bool */\n      0x00\n        /* \"contracts/weusd/manageusd.sol\":5801:5826  usedRequestIds[requestId] */\n      swap1\n      dup2\n      mstore\n        /* \"contracts/weusd/manageusd.sol\":5801:5815  usedRequestIds */\n      0x07\n        /* \"contracts/weusd/manageusd.sol\":5801:5826  usedRequestIds[requestId] */\n      0x20\n      mstore\n      0x40\n      swap1\n      keccak256\n      sload\n      0xff\n      and\n      swap1\n        /* \"contracts/weusd/manageusd.sol\":5712:5834  function isRequestIdUsed(uint256 requestId) public view returns (bool) {... */\n      jump\n        /* \"contracts/weusd/manageusd.sol\":5044:5704  function mintWeUSDCrossChain(uint256 requestId, uint256 sourceChainId, uint256 amount, address targetUser) external onlyRole(CROSS_CHAIN_MINTER_ROLE) {... */\n    tag_8:\n      tag_50\n      tag_64\n      calldatasize\n      0x04\n      tag_65\n      jump\t// in\n    tag_64:\n      tag_66\n      jump\t// in\n        /* \"@openzeppelin/contracts/access/AccessControl.sol\":3810:3930  function getRoleAdmin(bytes32 role) public view virtual returns (bytes32) {... */\n    tag_9:\n      tag_40\n      tag_68\n      calldatasize\n      0x04\n      tag_60\n      jump\t// in\n    tag_68:\n        /* \"@openzeppelin/contracts/access/AccessControl.sol\":3875:3882  bytes32 */\n      0x00\n        /* \"@openzeppelin/contracts/access/AccessControl.sol\":3901:3913  _roles[role] */\n      swap1\n      dup2\n      mstore\n      0x20\n      dup2\n      swap1\n      mstore\n      0x40\n      swap1\n      keccak256\n        /* \"@openzeppelin/contracts/access/AccessControl.sol\":3901:3923  _roles[role].adminRole */\n      0x01\n      add\n      sload\n      swap1\n        /* \"@openzeppelin/contracts/access/AccessControl.sol\":3810:3930  function getRoleAdmin(bytes32 role) public view virtual returns (bytes32) {... */\n      jump\n        /* \"@openzeppelin/contracts/access/AccessControl.sol\":4226:4362  function grantRole(bytes32 role, address account) public virtual onlyRole(getRoleAdmin(role)) {... */\n    tag_10:\n      tag_50\n      tag_74\n      calldatasize\n      0x04\n      tag_75\n      jump\t// in\n    tag_74:\n      tag_76\n      jump\t// in\n        /* \"contracts/weusd/manageusd.sol\":893:939  mapping(uint256 => bool) public usedRequestIds */\n    tag_11:\n      tag_44\n      tag_78\n      calldatasize\n      0x04\n      tag_60\n      jump\t// in\n    tag_78:\n      mstore(0x20, 0x07)\n      0x00\n      swap1\n      dup2\n      mstore\n      0x40\n      swap1\n      keccak256\n      sload\n      0xff\n      and\n      dup2\n      jump\n        /* \"@openzeppelin/contracts/access/AccessControl.sol\":5328:5573  function renounceRole(bytes32 role, address callerConfirmation) public virtual {... */\n    tag_12:\n      tag_50\n      tag_82\n      calldatasize\n      0x04\n      tag_75\n      jump\t// in\n    tag_82:\n      tag_83\n      jump\t// in\n        /* \"contracts/weusd/manageusd.sol\":602:688  bytes32 public constant CROSS_CHAIN_MINTER_ROLE = keccak256(\"CROSS_CHAIN_MINTER_ROLE\") */\n    tag_13:\n      tag_40\n        /* \"contracts/weusd/manageusd.sol\":652:688  keccak256(\"CROSS_CHAIN_MINTER_ROLE\") */\n      0x41de7ae3becaf069074d499ebcbd36df88385ba1e2946870f7e4674aecd43704\n        /* \"contracts/weusd/manageusd.sol\":602:688  bytes32 public constant CROSS_CHAIN_MINTER_ROLE = keccak256(\"CROSS_CHAIN_MINTER_ROLE\") */\n      dup2\n      jump\n        /* \"contracts/weusd/manageusd.sol\":2229:2306  function unpause() public onlyRole(PAUSER_ROLE) {... */\n    tag_14:\n      tag_50\n      tag_88\n      jump\t// in\n        /* \"contracts/weusd/manageusd.sol\":799:826  address public feeRecipient */\n    tag_15:\n      sload(0x05)\n      tag_89\n      swap1\n      sub(shl(0xa0, 0x01), 0x01)\n      and\n      dup2\n      jump\n    tag_89:\n      mload(0x40)\n      sub(shl(0xa0, 0x01), 0x01)\n        /* \"#utility.yul\":3132:3164   */\n      swap1\n      swap2\n      and\n        /* \"#utility.yul\":3114:3165   */\n      dup2\n      mstore\n        /* \"#utility.yul\":3102:3104   */\n      0x20\n        /* \"#utility.yul\":3087:3105   */\n      add\n        /* \"contracts/weusd/manageusd.sol\":799:826  address public feeRecipient */\n      tag_42\n        /* \"#utility.yul\":2968:3171   */\n      jump\n        /* \"contracts/weusd/manageusd.sol\":724:751  uint256 public requestCount */\n    tag_16:\n      tag_40\n      sload(0x03)\n      dup2\n      jump\n        /* \"@openzeppelin/contracts/utils/Pausable.sol\":1850:1934  function paused() public view virtual returns (bool) {... */\n    tag_17:\n        /* \"@openzeppelin/contracts/utils/Pausable.sol\":1920:1927  _paused */\n      and(0xff, sload(0x01))\n        /* \"@openzeppelin/contracts/utils/Pausable.sol\":1850:1934  function paused() public view virtual returns (bool) {... */\n      jump(tag_44)\n        /* \"contracts/weusd/manageusd.sol\":466:526  bytes32 public constant ADMIN_ROLE = keccak256(\"ADMIN_ROLE\") */\n    tag_18:\n      tag_40\n      0x00\n      dup1\n      mload\n      0x20\n      data_cb864c43dd5d441bb6271f424f11befa622c032dfd374d226e26fbbdb782b8f8\n      dup4\n      codecopy\n      dup2\n      mload\n      swap2\n      mstore\n      dup2\n      jump\n        /* \"contracts/weusd/manageusd.sol\":2148:2221  function pause() public onlyRole(PAUSER_ROLE) {... */\n    tag_19:\n      tag_50\n      tag_103\n      jump\t// in\n        /* \"@openzeppelin/contracts/access/AccessControl.sol\":2854:2990  function hasRole(bytes32 role, address account) public view virtual returns (bool) {... */\n    tag_20:\n      tag_44\n      tag_105\n      calldatasize\n      0x04\n      tag_75\n      jump\t// in\n    tag_105:\n      tag_106\n      jump\t// in\n        /* \"contracts/weusd/manageusd.sol\":833:886  mapping(address => bool) public registeredStablecoins */\n    tag_21:\n      tag_44\n      tag_109\n      calldatasize\n      0x04\n      tag_56\n      jump\t// in\n    tag_109:\n      mstore(0x20, 0x06)\n      0x00\n      swap1\n      dup2\n      mstore\n      0x40\n      swap1\n      keccak256\n      sload\n      0xff\n      and\n      dup2\n      jump\n        /* \"@openzeppelin/contracts/access/AccessControl.sol\":2187:2236  bytes32 public constant DEFAULT_ADMIN_ROLE = 0x00 */\n    tag_22:\n      tag_40\n        /* \"@openzeppelin/contracts/access/AccessControl.sol\":2232:2236  0x00 */\n      0x00\n        /* \"@openzeppelin/contracts/access/AccessControl.sol\":2187:2236  bytes32 public constant DEFAULT_ADMIN_ROLE = 0x00 */\n      dup2\n      jump\n        /* \"contracts/weusd/manageusd.sol\":2938:3561  function mintWeUSD(address stablecoin, uint256 stablecoinAmount) external {... */\n    tag_23:\n      tag_50\n      tag_116\n      calldatasize\n      0x04\n      tag_117\n      jump\t// in\n    tag_116:\n      tag_118\n      jump\t// in\n        /* \"contracts/weusd/manageusd.sol\":695:717  IPicweUSD public weUSD */\n    tag_24:\n      sload(0x02)\n      tag_89\n      swap1\n      sub(shl(0xa0, 0x01), 0x01)\n      and\n      dup2\n      jump\n        /* \"contracts/weusd/manageusd.sol\":5842:5991  function getLatestRequestId() public view returns (uint256) {... */\n    tag_25:\n        /* \"contracts/weusd/manageusd.sol\":5971:5983  requestCount */\n      sload(0x03)\n        /* \"contracts/weusd/manageusd.sol\":5946:5961  block.timestamp */\n      timestamp\n        /* \"contracts/weusd/manageusd.sol\":5965:5967  64 */\n      0x40\n        /* \"contracts/weusd/manageusd.sol\":5946:5967  block.timestamp << 64 */\n      shl\n        /* \"contracts/weusd/manageusd.sol\":5921:5934  block.chainid */\n      chainid\n        /* \"contracts/weusd/manageusd.sol\":5938:5941  128 */\n      0x80\n        /* \"contracts/weusd/manageusd.sol\":5921:5941  block.chainid << 128 */\n      shl\n        /* \"contracts/weusd/manageusd.sol\":5920:5968  (block.chainid << 128) | (block.timestamp << 64) */\n      or\n        /* \"contracts/weusd/manageusd.sol\":5920:5983  (block.chainid << 128) | (block.timestamp << 64) | requestCount */\n      or\n        /* \"contracts/weusd/manageusd.sol\":5842:5991  function getLatestRequestId() public view returns (uint256) {... */\n      jump(tag_40)\n        /* \"contracts/weusd/manageusd.sol\":2314:2415  function setGasfee(uint256 _gasfee) external onlyRole(ADMIN_ROLE) {... */\n    tag_26:\n      tag_50\n      tag_127\n      calldatasize\n      0x04\n      tag_60\n      jump\t// in\n    tag_127:\n      tag_128\n      jump\t// in\n        /* \"contracts/weusd/manageusd.sol\":2556:2741  function registerStablecoin(address stablecoin) external onlyRole(ADMIN_ROLE) {... */\n    tag_27:\n      tag_50\n      tag_130\n      calldatasize\n      0x04\n      tag_56\n      jump\t// in\n    tag_130:\n      tag_131\n      jump\t// in\n        /* \"contracts/weusd/manageusd.sol\":3569:4147  function burnWeUSD(address stablecoin, uint256 weUSDAmount) external {... */\n    tag_28:\n      tag_50\n      tag_133\n      calldatasize\n      0x04\n      tag_117\n      jump\t// in\n    tag_133:\n      tag_134\n      jump\t// in\n        /* \"contracts/weusd/manageusd.sol\":426:459  IMainContract public mainContract */\n    tag_29:\n      sload(0x01)\n      tag_89\n      swap1\n      0x0100\n      swap1\n      div\n      sub(shl(0xa0, 0x01), 0x01)\n      and\n      dup2\n      jump\n        /* \"@openzeppelin/contracts/access/AccessControl.sol\":4642:4780  function revokeRole(bytes32 role, address account) public virtual onlyRole(getRoleAdmin(role)) {... */\n    tag_30:\n      tag_50\n      tag_140\n      calldatasize\n      0x04\n      tag_75\n      jump\t// in\n    tag_140:\n      tag_141\n      jump\t// in\n        /* \"contracts/weusd/manageusd.sol\":533:595  bytes32 public constant PAUSER_ROLE = keccak256(\"PAUSER_ROLE\") */\n    tag_31:\n      tag_40\n        /* \"contracts/weusd/manageusd.sol\":571:595  keccak256(\"PAUSER_ROLE\") */\n      0x65d7a28e3265b37a6474929f336521b332c1681b933f6cb9f3376673440d862a\n        /* \"contracts/weusd/manageusd.sol\":533:595  bytes32 public constant PAUSER_ROLE = keccak256(\"PAUSER_ROLE\") */\n      dup2\n      jump\n        /* \"contracts/weusd/manageusd.sol\":2423:2548  function setFeeRecipient(address _feeRecipient) external onlyRole(ADMIN_ROLE) {... */\n    tag_32:\n      tag_50\n      tag_146\n      calldatasize\n      0x04\n      tag_56\n      jump\t// in\n    tag_146:\n      tag_147\n      jump\t// in\n        /* \"@openzeppelin/contracts/access/AccessControl.sol\":2565:2767  function supportsInterface(bytes4 interfaceId) public view virtual override returns (bool) {... */\n    tag_47:\n        /* \"@openzeppelin/contracts/access/AccessControl.sol\":2650:2654  bool */\n      0x00\n      not(sub(shl(0xe0, 0x01), 0x01))\n        /* \"@openzeppelin/contracts/access/AccessControl.sol\":2673:2720  interfaceId == type(IAccessControl).interfaceId */\n      dup3\n      and\n      shl(0xe0, 0x7965db0b)\n      eq\n      dup1\n        /* \"@openzeppelin/contracts/access/AccessControl.sol\":2673:2760  interfaceId == type(IAccessControl).interfaceId || super.supportsInterface(interfaceId) */\n      tag_150\n      jumpi\n      pop\n      shl(0xe0, 0x01ffc9a7)\n      not(sub(shl(0xe0, 0x01), 0x01))\n        /* \"@openzeppelin/contracts/utils/introspection/ERC165.sol\":861:901  interfaceId == type(IERC165).interfaceId */\n      dup4\n      and\n      eq\n        /* \"@openzeppelin/contracts/access/AccessControl.sol\":2724:2760  super.supportsInterface(interfaceId) */\n    tag_150:\n        /* \"@openzeppelin/contracts/access/AccessControl.sol\":2666:2760  return interfaceId == type(IAccessControl).interfaceId || super.supportsInterface(interfaceId) */\n      swap3\n        /* \"@openzeppelin/contracts/access/AccessControl.sol\":2565:2767  function supportsInterface(bytes4 interfaceId) public view virtual override returns (bool) {... */\n      swap2\n      pop\n      pop\n      jump\t// out\n        /* \"contracts/weusd/manageusd.sol\":4155:5036  function burnWeUSDCrossChain(uint256 targetChainId, uint256 amount, address targetUser) external {... */\n    tag_53:\n        /* \"contracts/weusd/manageusd.sol\":4288:4301  block.chainid */\n      chainid\n        /* \"contracts/weusd/manageusd.sol\":4271:4284  targetChainId */\n      dup4\n        /* \"contracts/weusd/manageusd.sol\":4271:4301  targetChainId != block.chainid */\n      sub\n        /* \"contracts/weusd/manageusd.sol\":4263:4354  require(targetChainId != block.chainid, \"Target chain must be different from source chain\") */\n      tag_153\n      jumpi\n      mload(0x40)\n      shl(0xe5, 0x461bcd)\n      dup2\n      mstore\n        /* \"#utility.yul\":4137:4139   */\n      0x20\n        /* \"contracts/weusd/manageusd.sol\":4263:4354  require(targetChainId != block.chainid, \"Target chain must be different from source chain\") */\n      0x04\n      dup3\n      add\n        /* \"#utility.yul\":4119:4140   */\n      mstore\n        /* \"#utility.yul\":4176:4178   */\n      0x30\n        /* \"#utility.yul\":4156:4174   */\n      0x24\n      dup3\n      add\n        /* \"#utility.yul\":4149:4179   */\n      mstore\n        /* \"#utility.yul\":4215:4249   */\n      0x54617267657420636861696e206d75737420626520646966666572656e742066\n        /* \"#utility.yul\":4195:4213   */\n      0x44\n      dup3\n      add\n        /* \"#utility.yul\":4188:4250   */\n      mstore\n      shl(0x81, 0x3937b69039b7bab931b29031b430b4b7)\n        /* \"#utility.yul\":4266:4284   */\n      0x64\n      dup3\n      add\n        /* \"#utility.yul\":4259:4305   */\n      mstore\n        /* \"#utility.yul\":4322:4341   */\n      0x84\n      add\n        /* \"contracts/weusd/manageusd.sol\":4263:4354  require(targetChainId != block.chainid, \"Target chain must be different from source chain\") */\n    tag_154:\n      mload(0x40)\n      dup1\n      swap2\n      sub\n      swap1\n      revert\n    tag_153:\n        /* \"contracts/weusd/manageusd.sol\":4382:4388  gasfee */\n      sload(0x04)\n        /* \"contracts/weusd/manageusd.sol\":4373:4379  amount */\n      dup3\n        /* \"contracts/weusd/manageusd.sol\":4373:4388  amount > gasfee */\n      gt\n        /* \"contracts/weusd/manageusd.sol\":4365:4427  require(amount > gasfee, \"Amount must be greater than gasfee\") */\n      tag_156\n      jumpi\n      mload(0x40)\n      shl(0xe5, 0x461bcd)\n      dup2\n      mstore\n        /* \"#utility.yul\":4554:4556   */\n      0x20\n        /* \"contracts/weusd/manageusd.sol\":4365:4427  require(amount > gasfee, \"Amount must be greater than gasfee\") */\n      0x04\n      dup3\n      add\n        /* \"#utility.yul\":4536:4557   */\n      mstore\n        /* \"#utility.yul\":4593:4595   */\n      0x22\n        /* \"#utility.yul\":4573:4591   */\n      0x24\n      dup3\n      add\n        /* \"#utility.yul\":4566:4596   */\n      mstore\n        /* \"#utility.yul\":4632:4666   */\n      0x416d6f756e74206d7573742062652067726561746572207468616e2067617366\n        /* \"#utility.yul\":4612:4630   */\n      0x44\n      dup3\n      add\n        /* \"#utility.yul\":4605:4667   */\n      mstore\n      shl(0xf0, 0x6565)\n        /* \"#utility.yul\":4683:4701   */\n      0x64\n      dup3\n      add\n        /* \"#utility.yul\":4676:4708   */\n      mstore\n        /* \"#utility.yul\":4725:4744   */\n      0x84\n      add\n        /* \"contracts/weusd/manageusd.sol\":4365:4427  require(amount > gasfee, \"Amount must be greater than gasfee\") */\n      tag_154\n        /* \"#utility.yul\":4352:4750   */\n      jump\n        /* \"contracts/weusd/manageusd.sol\":4365:4427  require(amount > gasfee, \"Amount must be greater than gasfee\") */\n    tag_156:\n      sub(shl(0xa0, 0x01), 0x01)\n        /* \"contracts/weusd/manageusd.sol\":4446:4470  targetUser != address(0) */\n      dup2\n      and\n        /* \"contracts/weusd/manageusd.sol\":4438:4502  require(targetUser != address(0), \"Invalid target user address\") */\n      tag_159\n      jumpi\n      mload(0x40)\n      shl(0xe5, 0x461bcd)\n      dup2\n      mstore\n        /* \"#utility.yul\":4957:4959   */\n      0x20\n        /* \"contracts/weusd/manageusd.sol\":4438:4502  require(targetUser != address(0), \"Invalid target user address\") */\n      0x04\n      dup3\n      add\n        /* \"#utility.yul\":4939:4960   */\n      mstore\n        /* \"#utility.yul\":4996:4998   */\n      0x1b\n        /* \"#utility.yul\":4976:4994   */\n      0x24\n      dup3\n      add\n        /* \"#utility.yul\":4969:4999   */\n      mstore\n        /* \"#utility.yul\":5035:5064   */\n      0x496e76616c696420746172676574207573657220616464726573730000000000\n        /* \"#utility.yul\":5015:5033   */\n      0x44\n      dup3\n      add\n        /* \"#utility.yul\":5008:5065   */\n      mstore\n        /* \"#utility.yul\":5082:5100   */\n      0x64\n      add\n        /* \"contracts/weusd/manageusd.sol\":4438:4502  require(targetUser != address(0), \"Invalid target user address\") */\n      tag_154\n        /* \"#utility.yul\":4755:5106   */\n      jump\n        /* \"contracts/weusd/manageusd.sol\":4438:4502  require(targetUser != address(0), \"Invalid target user address\") */\n    tag_159:\n        /* \"contracts/weusd/manageusd.sol\":4513:4534  uint256 sourceChainId */\n      0x00\n        /* \"contracts/weusd/manageusd.sol\":4537:4550  block.chainid */\n      chainid\n        /* \"contracts/weusd/manageusd.sol\":4513:4550  uint256 sourceChainId = block.chainid */\n      swap1\n      pop\n        /* \"contracts/weusd/manageusd.sol\":4561:4578  uint256 requestId */\n      0x00\n        /* \"contracts/weusd/manageusd.sol\":4634:4646  requestCount */\n      0x03\n      0x00\n        /* \"contracts/weusd/manageusd.sol\":4632:4646  ++requestCount */\n      dup2\n      sload\n      tag_162\n      swap1\n      tag_163\n      jump\t// in\n    tag_162:\n      swap2\n      dup3\n      swap1\n      sstore\n      pop\n        /* \"contracts/weusd/manageusd.sol\":4607:4622  block.timestamp */\n      timestamp\n        /* \"contracts/weusd/manageusd.sol\":4626:4628  64 */\n      0x40\n        /* \"contracts/weusd/manageusd.sol\":4607:4628  block.timestamp << 64 */\n      swap1\n      dup2\n      shl\n        /* \"contracts/weusd/manageusd.sol\":4599:4602  128 */\n      0x80\n        /* \"contracts/weusd/manageusd.sol\":4582:4602  sourceChainId << 128 */\n      dup6\n      swap1\n      shl\n        /* \"contracts/weusd/manageusd.sol\":4581:4629  (sourceChainId << 128) | (block.timestamp << 64) */\n      or\n        /* \"contracts/weusd/manageusd.sol\":4581:4646  (sourceChainId << 128) | (block.timestamp << 64) | ++requestCount */\n      swap1\n      swap2\n      or\n        /* \"contracts/weusd/manageusd.sol\":4666:4691  usedRequestIds[requestId] */\n      0x00\n      dup2\n      dup2\n      mstore\n        /* \"contracts/weusd/manageusd.sol\":4666:4680  usedRequestIds */\n      0x07\n        /* \"contracts/weusd/manageusd.sol\":4666:4691  usedRequestIds[requestId] */\n      0x20\n      mstore\n      swap2\n      swap1\n      swap2\n      keccak256\n      sload\n        /* \"contracts/weusd/manageusd.sol\":4581:4646  (sourceChainId << 128) | (block.timestamp << 64) | ++requestCount */\n      swap1\n      swap2\n      pop\n        /* \"contracts/weusd/manageusd.sol\":4666:4691  usedRequestIds[requestId] */\n      0xff\n      and\n        /* \"contracts/weusd/manageusd.sol\":4665:4691  !usedRequestIds[requestId] */\n      iszero\n        /* \"contracts/weusd/manageusd.sol\":4657:4719  require(!usedRequestIds[requestId], \"Request ID already used\") */\n      tag_164\n      jumpi\n      mload(0x40)\n      shl(0xe5, 0x461bcd)\n      dup2\n      mstore\n        /* \"#utility.yul\":5585:5587   */\n      0x20\n        /* \"contracts/weusd/manageusd.sol\":4657:4719  require(!usedRequestIds[requestId], \"Request ID already used\") */\n      0x04\n      dup3\n      add\n        /* \"#utility.yul\":5567:5588   */\n      mstore\n        /* \"#utility.yul\":5624:5626   */\n      0x17\n        /* \"#utility.yul\":5604:5622   */\n      0x24\n      dup3\n      add\n        /* \"#utility.yul\":5597:5627   */\n      mstore\n      shl(0x4a, 0x14995c5d595cdd08125108185b1c9958591e481d5cd959)\n        /* \"#utility.yul\":5643:5661   */\n      0x44\n      dup3\n      add\n        /* \"#utility.yul\":5636:5689   */\n      mstore\n        /* \"#utility.yul\":5706:5724   */\n      0x64\n      add\n        /* \"contracts/weusd/manageusd.sol\":4657:4719  require(!usedRequestIds[requestId], \"Request ID already used\") */\n      tag_154\n        /* \"#utility.yul\":5383:5730   */\n      jump\n        /* \"contracts/weusd/manageusd.sol\":4657:4719  require(!usedRequestIds[requestId], \"Request ID already used\") */\n    tag_164:\n        /* \"contracts/weusd/manageusd.sol\":4730:4755  usedRequestIds[requestId] */\n      0x00\n      dup2\n      dup2\n      mstore\n        /* \"contracts/weusd/manageusd.sol\":4730:4744  usedRequestIds */\n      0x07\n        /* \"contracts/weusd/manageusd.sol\":4730:4755  usedRequestIds[requestId] */\n      0x20\n      mstore\n      0x40\n      dup2\n      keccak256\n        /* \"contracts/weusd/manageusd.sol\":4730:4762  usedRequestIds[requestId] = true */\n      dup1\n      sload\n      not(0xff)\n      and\n        /* \"contracts/weusd/manageusd.sol\":4758:4762  true */\n      0x01\n        /* \"contracts/weusd/manageusd.sol\":4730:4762  usedRequestIds[requestId] = true */\n      or\n      swap1\n      sstore\n        /* \"contracts/weusd/manageusd.sol\":4803:4809  gasfee */\n      sload(0x04)\n        /* \"contracts/weusd/manageusd.sol\":4794:4809  amount - gasfee */\n      tag_167\n      swap1\n        /* \"contracts/weusd/manageusd.sol\":4794:4800  amount */\n      dup7\n        /* \"contracts/weusd/manageusd.sol\":4794:4809  amount - gasfee */\n      tag_168\n      jump\t// in\n    tag_167:\n        /* \"contracts/weusd/manageusd.sol\":4820:4825  weUSD */\n      sload(0x02)\n        /* \"contracts/weusd/manageusd.sol\":4851:4863  feeRecipient */\n      sload(0x05)\n        /* \"contracts/weusd/manageusd.sol\":4865:4871  gasfee */\n      0x04\n      dup1\n      sload\n        /* \"contracts/weusd/manageusd.sol\":4820:4872  weUSD.transferFrom(msg.sender, feeRecipient, gasfee) */\n      mload(0x40)\n      shl(0xe0, 0x23b872dd)\n      dup2\n      mstore\n        /* \"contracts/weusd/manageusd.sol\":4839:4849  msg.sender */\n      caller\n        /* \"contracts/weusd/manageusd.sol\":4820:4872  weUSD.transferFrom(msg.sender, feeRecipient, gasfee) */\n      swap3\n      dup2\n      add\n        /* \"#utility.yul\":6070:6121   */\n      swap3\n      swap1\n      swap3\n      mstore\n      sub(shl(0xa0, 0x01), 0x01)\n        /* \"contracts/weusd/manageusd.sol\":4851:4863  feeRecipient */\n      swap3\n      dup4\n      and\n        /* \"#utility.yul\":6137:6155   */\n      0x24\n      dup4\n      add\n        /* \"#utility.yul\":6130:6190   */\n      mstore\n        /* \"#utility.yul\":6206:6224   */\n      0x44\n      dup3\n      add\n        /* \"#utility.yul\":6199:6233   */\n      mstore\n        /* \"contracts/weusd/manageusd.sol\":4773:4809  uint256 burnAmount = amount - gasfee */\n      swap3\n      swap4\n      pop\n        /* \"contracts/weusd/manageusd.sol\":4820:4825  weUSD */\n      and\n      swap1\n        /* \"contracts/weusd/manageusd.sol\":4820:4838  weUSD.transferFrom */\n      0x23b872dd\n      swap1\n        /* \"#utility.yul\":6043:6061   */\n      0x64\n      add\n        /* \"contracts/weusd/manageusd.sol\":4820:4872  weUSD.transferFrom(msg.sender, feeRecipient, gasfee) */\n      0x20\n      mload(0x40)\n      dup1\n      dup4\n      sub\n      dup2\n      0x00\n      dup8\n      gas\n      call\n      iszero\n      dup1\n      iszero\n      tag_172\n      jumpi\n      returndatasize\n      0x00\n      dup1\n      returndatacopy\n      revert(0x00, returndatasize)\n    tag_172:\n      pop\n      pop\n      pop\n      pop\n      mload(0x40)\n      returndatasize\n      not(0x1f)\n      0x1f\n      dup3\n      add\n      and\n      dup3\n      add\n      dup1\n      0x40\n      mstore\n      pop\n      dup2\n      add\n      swap1\n      tag_173\n      swap2\n      swap1\n      tag_174\n      jump\t// in\n    tag_173:\n      pop\n        /* \"contracts/weusd/manageusd.sol\":4883:4888  weUSD */\n      sload(0x02)\n        /* \"contracts/weusd/manageusd.sol\":4883:4921  weUSD.burnFrom(msg.sender, burnAmount) */\n      mload(0x40)\n      shl(0xe4, 0x079cc679)\n      dup2\n      mstore\n        /* \"contracts/weusd/manageusd.sol\":4898:4908  msg.sender */\n      caller\n        /* \"contracts/weusd/manageusd.sol\":4883:4921  weUSD.burnFrom(msg.sender, burnAmount) */\n      0x04\n      dup3\n      add\n        /* \"#utility.yul\":6700:6751   */\n      mstore\n        /* \"#utility.yul\":6767:6785   */\n      0x24\n      dup2\n      add\n        /* \"#utility.yul\":6760:6794   */\n      dup4\n      swap1\n      mstore\n      sub(shl(0xa0, 0x01), 0x01)\n        /* \"contracts/weusd/manageusd.sol\":4883:4888  weUSD */\n      swap1\n      swap2\n      and\n      swap1\n        /* \"contracts/weusd/manageusd.sol\":4883:4897  weUSD.burnFrom */\n      0x79cc6790\n      swap1\n        /* \"#utility.yul\":6673:6691   */\n      0x44\n      add\n        /* \"contracts/weusd/manageusd.sol\":4883:4921  weUSD.burnFrom(msg.sender, burnAmount) */\n      0x00\n      mload(0x40)\n      dup1\n      dup4\n      sub\n      dup2\n      0x00\n      dup8\n      dup1\n      extcodesize\n      iszero\n      dup1\n      iszero\n      tag_177\n      jumpi\n      0x00\n      dup1\n      revert\n    tag_177:\n      pop\n      gas\n      call\n      iszero\n      dup1\n      iszero\n      tag_179\n      jumpi\n      returndatasize\n      0x00\n      dup1\n      returndatacopy\n      revert(0x00, returndatasize)\n    tag_179:\n      pop\n      pop\n        /* \"contracts/weusd/manageusd.sol\":4937:5028  CrossChainBurn(requestId, msg.sender, sourceChainId, targetChainId, burnAmount, targetUser) */\n      0x40\n      dup1\n      mload\n        /* \"#utility.yul\":7036:7061   */\n      dup7\n      dup2\n      mstore\n        /* \"#utility.yul\":7092:7094   */\n      0x20\n        /* \"#utility.yul\":7077:7095   */\n      dup2\n      add\n        /* \"#utility.yul\":7070:7104   */\n      dup11\n      swap1\n      mstore\n        /* \"#utility.yul\":7120:7138   */\n      swap1\n      dup2\n      add\n        /* \"#utility.yul\":7113:7147   */\n      dup5\n      swap1\n      mstore\n      sub(shl(0xa0, 0x01), 0x01)\n        /* \"#utility.yul\":7183:7215   */\n      dup8\n      and\n        /* \"#utility.yul\":7178:7180   */\n      0x60\n        /* \"#utility.yul\":7163:7181   */\n      dup3\n      add\n        /* \"#utility.yul\":7156:7216   */\n      mstore\n        /* \"contracts/weusd/manageusd.sol\":4963:4973  msg.sender */\n      caller\n      swap3\n      pop\n        /* \"contracts/weusd/manageusd.sol\":4952:4961  requestId */\n      dup5\n      swap2\n      pop\n        /* \"contracts/weusd/manageusd.sol\":4937:5028  CrossChainBurn(requestId, msg.sender, sourceChainId, targetChainId, burnAmount, targetUser) */\n      0x26c32cc5ff12981b55681844f2fb47d52c5e521c58d5288b1325f3304a7e8852\n      swap1\n        /* \"#utility.yul\":7023:7026   */\n      0x80\n        /* \"#utility.yul\":7008:7027   */\n      add\n        /* \"contracts/weusd/manageusd.sol\":4937:5028  CrossChainBurn(requestId, msg.sender, sourceChainId, targetChainId, burnAmount, targetUser) */\n      mload(0x40)\n      dup1\n      swap2\n      sub\n      swap1\n      log3\n        /* \"contracts/weusd/manageusd.sol\":4252:5036  {... */\n      pop\n      pop\n      pop\n        /* \"contracts/weusd/manageusd.sol\":4155:5036  function burnWeUSDCrossChain(uint256 targetChainId, uint256 amount, address targetUser) external {... */\n      pop\n      pop\n      pop\n      jump\t// out\n        /* \"contracts/weusd/manageusd.sol\":2749:2930  function deleteStablecoin(address stablecoin) external onlyRole(ADMIN_ROLE) {... */\n    tag_57:\n      0x00\n      dup1\n      mload\n      0x20\n      data_cb864c43dd5d441bb6271f424f11befa622c032dfd374d226e26fbbdb782b8f8\n      dup4\n      codecopy\n      dup2\n      mload\n      swap2\n      mstore\n        /* \"@openzeppelin/contracts/access/AccessControl.sol\":2464:2480  _checkRole(role) */\n      tag_183\n        /* \"@openzeppelin/contracts/access/AccessControl.sol\":2475:2479  role */\n      dup2\n        /* \"@openzeppelin/contracts/access/AccessControl.sol\":2464:2474  _checkRole */\n      tag_184\n        /* \"@openzeppelin/contracts/access/AccessControl.sol\":2464:2480  _checkRole(role) */\n      jump\t// in\n    tag_183:\n      sub(shl(0xa0, 0x01), 0x01)\n        /* \"contracts/weusd/manageusd.sol\":2836:2869  registeredStablecoins[stablecoin] */\n      dup3\n      and\n        /* \"contracts/weusd/manageusd.sol\":2872:2877  false */\n      0x00\n        /* \"contracts/weusd/manageusd.sol\":2836:2869  registeredStablecoins[stablecoin] */\n      dup2\n      dup2\n      mstore\n        /* \"contracts/weusd/manageusd.sol\":2836:2857  registeredStablecoins */\n      0x06\n        /* \"contracts/weusd/manageusd.sol\":2836:2869  registeredStablecoins[stablecoin] */\n      0x20\n      mstore\n      0x40\n      dup1\n      dup3\n      keccak256\n        /* \"contracts/weusd/manageusd.sol\":2836:2877  registeredStablecoins[stablecoin] = false */\n      dup1\n      sload\n      not(0xff)\n      and\n      swap1\n      sstore\n        /* \"contracts/weusd/manageusd.sol\":2893:2922  StablecoinDeleted(stablecoin) */\n      mload\n      0x0fa63555fe68cad70e08233633567493a3c74afdc8c7fb9f0c03a8e74f1a137a\n      swap2\n        /* \"contracts/weusd/manageusd.sol\":2872:2877  false */\n      swap1\n        /* \"contracts/weusd/manageusd.sol\":2893:2922  StablecoinDeleted(stablecoin) */\n      log2\n        /* \"contracts/weusd/manageusd.sol\":2749:2930  function deleteStablecoin(address stablecoin) external onlyRole(ADMIN_ROLE) {... */\n      pop\n      pop\n      jump\t// out\n        /* \"contracts/weusd/manageusd.sol\":5044:5704  function mintWeUSDCrossChain(uint256 requestId, uint256 sourceChainId, uint256 amount, address targetUser) external onlyRole(CROSS_CHAIN_MINTER_ROLE) {... */\n    tag_66:\n        /* \"contracts/weusd/manageusd.sol\":652:688  keccak256(\"CROSS_CHAIN_MINTER_ROLE\") */\n      0x41de7ae3becaf069074d499ebcbd36df88385ba1e2946870f7e4674aecd43704\n        /* \"@openzeppelin/contracts/access/AccessControl.sol\":2464:2480  _checkRole(role) */\n      tag_188\n        /* \"@openzeppelin/contracts/access/AccessControl.sol\":2475:2479  role */\n      dup2\n        /* \"@openzeppelin/contracts/access/AccessControl.sol\":2464:2474  _checkRole */\n      tag_184\n        /* \"@openzeppelin/contracts/access/AccessControl.sol\":2464:2480  _checkRole(role) */\n      jump\t// in\n    tag_188:\n        /* \"contracts/weusd/manageusd.sol\":5214:5239  usedRequestIds[requestId] */\n      0x00\n      dup6\n      dup2\n      mstore\n        /* \"contracts/weusd/manageusd.sol\":5214:5228  usedRequestIds */\n      0x07\n        /* \"contracts/weusd/manageusd.sol\":5214:5239  usedRequestIds[requestId] */\n      0x20\n      mstore\n      0x40\n      swap1\n      keccak256\n      sload\n      0xff\n      and\n        /* \"contracts/weusd/manageusd.sol\":5213:5239  !usedRequestIds[requestId] */\n      iszero\n        /* \"contracts/weusd/manageusd.sol\":5205:5267  require(!usedRequestIds[requestId], \"Request ID already used\") */\n      tag_190\n      jumpi\n      mload(0x40)\n      shl(0xe5, 0x461bcd)\n      dup2\n      mstore\n        /* \"#utility.yul\":5585:5587   */\n      0x20\n        /* \"contracts/weusd/manageusd.sol\":5205:5267  require(!usedRequestIds[requestId], \"Request ID already used\") */\n      0x04\n      dup3\n      add\n        /* \"#utility.yul\":5567:5588   */\n      mstore\n        /* \"#utility.yul\":5624:5626   */\n      0x17\n        /* \"#utility.yul\":5604:5622   */\n      0x24\n      dup3\n      add\n        /* \"#utility.yul\":5597:5627   */\n      mstore\n      shl(0x4a, 0x14995c5d595cdd08125108185b1c9958591e481d5cd959)\n        /* \"#utility.yul\":5643:5661   */\n      0x44\n      dup3\n      add\n        /* \"#utility.yul\":5636:5689   */\n      mstore\n        /* \"#utility.yul\":5706:5724   */\n      0x64\n      add\n        /* \"contracts/weusd/manageusd.sol\":5205:5267  require(!usedRequestIds[requestId], \"Request ID already used\") */\n      tag_154\n        /* \"#utility.yul\":5383:5730   */\n      jump\n        /* \"contracts/weusd/manageusd.sol\":5205:5267  require(!usedRequestIds[requestId], \"Request ID already used\") */\n    tag_190:\n        /* \"contracts/weusd/manageusd.sol\":5303:5316  block.chainid */\n      chainid\n        /* \"contracts/weusd/manageusd.sol\":5286:5299  sourceChainId */\n      dup5\n        /* \"contracts/weusd/manageusd.sol\":5286:5316  sourceChainId != block.chainid */\n      sub\n        /* \"contracts/weusd/manageusd.sol\":5278:5369  require(sourceChainId != block.chainid, \"Source chain must be different from target chain\") */\n      tag_192\n      jumpi\n      mload(0x40)\n      shl(0xe5, 0x461bcd)\n      dup2\n      mstore\n        /* \"#utility.yul\":7429:7431   */\n      0x20\n        /* \"contracts/weusd/manageusd.sol\":5278:5369  require(sourceChainId != block.chainid, \"Source chain must be different from target chain\") */\n      0x04\n      dup3\n      add\n        /* \"#utility.yul\":7411:7432   */\n      mstore\n        /* \"#utility.yul\":7468:7470   */\n      0x30\n        /* \"#utility.yul\":7448:7466   */\n      0x24\n      dup3\n      add\n        /* \"#utility.yul\":7441:7471   */\n      mstore\n        /* \"#utility.yul\":7507:7541   */\n      0x536f7572636520636861696e206d75737420626520646966666572656e742066\n        /* \"#utility.yul\":7487:7505   */\n      0x44\n      dup3\n      add\n        /* \"#utility.yul\":7480:7542   */\n      mstore\n      shl(0x81, 0x3937b6903a30b933b2ba1031b430b4b7)\n        /* \"#utility.yul\":7558:7576   */\n      0x64\n      dup3\n      add\n        /* \"#utility.yul\":7551:7597   */\n      mstore\n        /* \"#utility.yul\":7614:7633   */\n      0x84\n      add\n        /* \"contracts/weusd/manageusd.sol\":5278:5369  require(sourceChainId != block.chainid, \"Source chain must be different from target chain\") */\n      tag_154\n        /* \"#utility.yul\":7227:7639   */\n      jump\n        /* \"contracts/weusd/manageusd.sol\":5278:5369  require(sourceChainId != block.chainid, \"Source chain must be different from target chain\") */\n    tag_192:\n        /* \"contracts/weusd/manageusd.sol\":5397:5398  0 */\n      0x00\n        /* \"contracts/weusd/manageusd.sol\":5388:5394  amount */\n      dup4\n        /* \"contracts/weusd/manageusd.sol\":5388:5398  amount > 0 */\n      gt\n        /* \"contracts/weusd/manageusd.sol\":5380:5432  require(amount > 0, \"Amount must be greater than 0\") */\n      tag_195\n      jumpi\n      mload(0x40)\n      shl(0xe5, 0x461bcd)\n      dup2\n      mstore\n        /* \"#utility.yul\":7846:7848   */\n      0x20\n        /* \"contracts/weusd/manageusd.sol\":5380:5432  require(amount > 0, \"Amount must be greater than 0\") */\n      0x04\n      dup3\n      add\n        /* \"#utility.yul\":7828:7849   */\n      mstore\n        /* \"#utility.yul\":7885:7887   */\n      0x1d\n        /* \"#utility.yul\":7865:7883   */\n      0x24\n      dup3\n      add\n        /* \"#utility.yul\":7858:7888   */\n      mstore\n        /* \"#utility.yul\":7924:7955   */\n      0x416d6f756e74206d7573742062652067726561746572207468616e2030000000\n        /* \"#utility.yul\":7904:7922   */\n      0x44\n      dup3\n      add\n        /* \"#utility.yul\":7897:7956   */\n      mstore\n        /* \"#utility.yul\":7973:7991   */\n      0x64\n      add\n        /* \"contracts/weusd/manageusd.sol\":5380:5432  require(amount > 0, \"Amount must be greater than 0\") */\n      tag_154\n        /* \"#utility.yul\":7644:7997   */\n      jump\n        /* \"contracts/weusd/manageusd.sol\":5380:5432  require(amount > 0, \"Amount must be greater than 0\") */\n    tag_195:\n      sub(shl(0xa0, 0x01), 0x01)\n        /* \"contracts/weusd/manageusd.sol\":5451:5475  targetUser != address(0) */\n      dup3\n      and\n        /* \"contracts/weusd/manageusd.sol\":5443:5507  require(targetUser != address(0), \"Invalid target user address\") */\n      tag_198\n      jumpi\n      mload(0x40)\n      shl(0xe5, 0x461bcd)\n      dup2\n      mstore\n        /* \"#utility.yul\":4957:4959   */\n      0x20\n        /* \"contracts/weusd/manageusd.sol\":5443:5507  require(targetUser != address(0), \"Invalid target user address\") */\n      0x04\n      dup3\n      add\n        /* \"#utility.yul\":4939:4960   */\n      mstore\n        /* \"#utility.yul\":4996:4998   */\n      0x1b\n        /* \"#utility.yul\":4976:4994   */\n      0x24\n      dup3\n      add\n        /* \"#utility.yul\":4969:4999   */\n      mstore\n        /* \"#utility.yul\":5035:5064   */\n      0x496e76616c696420746172676574207573657220616464726573730000000000\n        /* \"#utility.yul\":5015:5033   */\n      0x44\n      dup3\n      add\n        /* \"#utility.yul\":5008:5065   */\n      mstore\n        /* \"#utility.yul\":5082:5100   */\n      0x64\n      add\n        /* \"contracts/weusd/manageusd.sol\":5443:5507  require(targetUser != address(0), \"Invalid target user address\") */\n      tag_154\n        /* \"#utility.yul\":4755:5106   */\n      jump\n        /* \"contracts/weusd/manageusd.sol\":5443:5507  require(targetUser != address(0), \"Invalid target user address\") */\n    tag_198:\n        /* \"contracts/weusd/manageusd.sol\":5518:5543  usedRequestIds[requestId] */\n      0x00\n      dup6\n      dup2\n      mstore\n        /* \"contracts/weusd/manageusd.sol\":5518:5532  usedRequestIds */\n      0x07\n        /* \"contracts/weusd/manageusd.sol\":5518:5543  usedRequestIds[requestId] */\n      0x20\n      mstore\n      0x40\n      swap1\n      dup2\n      swap1\n      keccak256\n        /* \"contracts/weusd/manageusd.sol\":5518:5550  usedRequestIds[requestId] = true */\n      dup1\n      sload\n      not(0xff)\n      and\n        /* \"contracts/weusd/manageusd.sol\":5546:5550  true */\n      0x01\n        /* \"contracts/weusd/manageusd.sol\":5518:5550  usedRequestIds[requestId] = true */\n      or\n      swap1\n      sstore\n        /* \"contracts/weusd/manageusd.sol\":5561:5566  weUSD */\n      sload(0x02)\n        /* \"contracts/weusd/manageusd.sol\":5561:5591  weUSD.mint(targetUser, amount) */\n      swap1\n      mload\n      shl(0xe0, 0x40c10f19)\n      dup2\n      mstore\n      sub(shl(0xa0, 0x01), 0x01)\n        /* \"#utility.yul\":6718:6750   */\n      dup5\n      dup2\n      and\n        /* \"contracts/weusd/manageusd.sol\":5561:5591  weUSD.mint(targetUser, amount) */\n      0x04\n      dup4\n      add\n        /* \"#utility.yul\":6700:6751   */\n      mstore\n        /* \"#utility.yul\":6767:6785   */\n      0x24\n      dup3\n      add\n        /* \"#utility.yul\":6760:6794   */\n      dup7\n      swap1\n      mstore\n        /* \"contracts/weusd/manageusd.sol\":5561:5566  weUSD */\n      swap1\n      swap2\n      and\n      swap1\n        /* \"contracts/weusd/manageusd.sol\":5561:5571  weUSD.mint */\n      0x40c10f19\n      swap1\n        /* \"#utility.yul\":6673:6691   */\n      0x44\n      add\n        /* \"contracts/weusd/manageusd.sol\":5561:5591  weUSD.mint(targetUser, amount) */\n      0x00\n      mload(0x40)\n      dup1\n      dup4\n      sub\n      dup2\n      0x00\n      dup8\n      dup1\n      extcodesize\n      iszero\n      dup1\n      iszero\n      tag_201\n      jumpi\n      0x00\n      dup1\n      revert\n    tag_201:\n      pop\n      gas\n      call\n      iszero\n      dup1\n      iszero\n      tag_203\n      jumpi\n      returndatasize\n      0x00\n      dup1\n      returndatacopy\n      revert(0x00, returndatasize)\n    tag_203:\n      pop\n      pop\n        /* \"contracts/weusd/manageusd.sol\":5609:5696  CrossChainMint(requestId, msg.sender, sourceChainId, block.chainid, amount, targetUser) */\n      0x40\n      dup1\n      mload\n        /* \"#utility.yul\":7036:7061   */\n      dup8\n      dup2\n      mstore\n        /* \"contracts/weusd/manageusd.sol\":5662:5675  block.chainid */\n      chainid\n        /* \"#utility.yul\":7092:7094   */\n      0x20\n        /* \"#utility.yul\":7077:7095   */\n      dup3\n      add\n        /* \"#utility.yul\":7070:7104   */\n      mstore\n        /* \"#utility.yul\":7120:7138   */\n      swap1\n      dup2\n      add\n        /* \"#utility.yul\":7113:7147   */\n      dup7\n      swap1\n      mstore\n      sub(shl(0xa0, 0x01), 0x01)\n        /* \"#utility.yul\":7183:7215   */\n      dup6\n      and\n        /* \"#utility.yul\":7178:7180   */\n      0x60\n        /* \"#utility.yul\":7163:7181   */\n      dup3\n      add\n        /* \"#utility.yul\":7156:7216   */\n      mstore\n        /* \"contracts/weusd/manageusd.sol\":5635:5645  msg.sender */\n      caller\n      swap3\n      pop\n        /* \"contracts/weusd/manageusd.sol\":5624:5633  requestId */\n      dup8\n      swap2\n      pop\n        /* \"contracts/weusd/manageusd.sol\":5609:5696  CrossChainMint(requestId, msg.sender, sourceChainId, block.chainid, amount, targetUser) */\n      0x7690d9cedf96f067bda7114c24bba31be184ae045d199979a0a373862e70d46b\n      swap1\n        /* \"#utility.yul\":7023:7026   */\n      0x80\n        /* \"#utility.yul\":7008:7027   */\n      add\n        /* \"contracts/weusd/manageusd.sol\":5609:5696  CrossChainMint(requestId, msg.sender, sourceChainId, block.chainid, amount, targetUser) */\n      mload(0x40)\n      dup1\n      swap2\n      sub\n      swap1\n      log3\n        /* \"contracts/weusd/manageusd.sol\":5044:5704  function mintWeUSDCrossChain(uint256 requestId, uint256 sourceChainId, uint256 amount, address targetUser) external onlyRole(CROSS_CHAIN_MINTER_ROLE) {... */\n      pop\n      pop\n      pop\n      pop\n      pop\n      jump\t// out\n        /* \"@openzeppelin/contracts/access/AccessControl.sol\":4226:4362  function grantRole(bytes32 role, address account) public virtual onlyRole(getRoleAdmin(role)) {... */\n    tag_76:\n        /* \"@openzeppelin/contracts/access/AccessControl.sol\":3875:3882  bytes32 */\n      0x00\n        /* \"@openzeppelin/contracts/access/AccessControl.sol\":3901:3913  _roles[role] */\n      dup3\n      dup2\n      mstore\n      0x20\n      dup2\n      swap1\n      mstore\n      0x40\n      swap1\n      keccak256\n        /* \"@openzeppelin/contracts/access/AccessControl.sol\":3901:3923  _roles[role].adminRole */\n      0x01\n      add\n      sload\n        /* \"@openzeppelin/contracts/access/AccessControl.sol\":2464:2480  _checkRole(role) */\n      tag_208\n        /* \"@openzeppelin/contracts/access/AccessControl.sol\":2475:2479  role */\n      dup2\n        /* \"@openzeppelin/contracts/access/AccessControl.sol\":2464:2474  _checkRole */\n      tag_184\n        /* \"@openzeppelin/contracts/access/AccessControl.sol\":2464:2480  _checkRole(role) */\n      jump\t// in\n    tag_208:\n        /* \"@openzeppelin/contracts/access/AccessControl.sol\":4330:4355  _grantRole(role, account) */\n      tag_210\n        /* \"@openzeppelin/contracts/access/AccessControl.sol\":4341:4345  role */\n      dup4\n        /* \"@openzeppelin/contracts/access/AccessControl.sol\":4347:4354  account */\n      dup4\n        /* \"@openzeppelin/contracts/access/AccessControl.sol\":4330:4340  _grantRole */\n      tag_211\n        /* \"@openzeppelin/contracts/access/AccessControl.sol\":4330:4355  _grantRole(role, account) */\n      jump\t// in\n    tag_210:\n      pop\n        /* \"@openzeppelin/contracts/access/AccessControl.sol\":4226:4362  function grantRole(bytes32 role, address account) public virtual onlyRole(getRoleAdmin(role)) {... */\n      pop\n      pop\n      pop\n      jump\t// out\n        /* \"@openzeppelin/contracts/access/AccessControl.sol\":5328:5573  function renounceRole(bytes32 role, address callerConfirmation) public virtual {... */\n    tag_83:\n      sub(shl(0xa0, 0x01), 0x01)\n        /* \"@openzeppelin/contracts/access/AccessControl.sol\":5421:5455  callerConfirmation != _msgSender() */\n      dup2\n      and\n        /* \"@openzeppelin/contracts/utils/Context.sol\":735:745  msg.sender */\n      caller\n        /* \"@openzeppelin/contracts/access/AccessControl.sol\":5421:5455  callerConfirmation != _msgSender() */\n      eq\n        /* \"@openzeppelin/contracts/access/AccessControl.sol\":5417:5519  if (callerConfirmation != _msgSender()) {... */\n      tag_215\n      jumpi\n        /* \"@openzeppelin/contracts/access/AccessControl.sol\":5478:5508  AccessControlBadConfirmation() */\n      mload(0x40)\n      shl(0xe1, 0x334bd919)\n      dup2\n      mstore\n      0x04\n      add\n      mload(0x40)\n      dup1\n      swap2\n      sub\n      swap1\n      revert\n        /* \"@openzeppelin/contracts/access/AccessControl.sol\":5417:5519  if (callerConfirmation != _msgSender()) {... */\n    tag_215:\n        /* \"@openzeppelin/contracts/access/AccessControl.sol\":5529:5566  _revokeRole(role, callerConfirmation) */\n      tag_216\n        /* \"@openzeppelin/contracts/access/AccessControl.sol\":5541:5545  role */\n      dup3\n        /* \"@openzeppelin/contracts/access/AccessControl.sol\":5547:5565  callerConfirmation */\n      dup3\n        /* \"@openzeppelin/contracts/access/AccessControl.sol\":5529:5540  _revokeRole */\n      tag_217\n        /* \"@openzeppelin/contracts/access/AccessControl.sol\":5529:5566  _revokeRole(role, callerConfirmation) */\n      jump\t// in\n    tag_216:\n      pop\n        /* \"@openzeppelin/contracts/access/AccessControl.sol\":5328:5573  function renounceRole(bytes32 role, address callerConfirmation) public virtual {... */\n      pop\n      pop\n      jump\t// out\n        /* \"contracts/weusd/manageusd.sol\":2229:2306  function unpause() public onlyRole(PAUSER_ROLE) {... */\n    tag_88:\n        /* \"contracts/weusd/manageusd.sol\":571:595  keccak256(\"PAUSER_ROLE\") */\n      0x65d7a28e3265b37a6474929f336521b332c1681b933f6cb9f3376673440d862a\n        /* \"@openzeppelin/contracts/access/AccessControl.sol\":2464:2480  _checkRole(role) */\n      tag_219\n        /* \"@openzeppelin/contracts/access/AccessControl.sol\":2475:2479  role */\n      dup2\n        /* \"@openzeppelin/contracts/access/AccessControl.sol\":2464:2474  _checkRole */\n      tag_184\n        /* \"@openzeppelin/contracts/access/AccessControl.sol\":2464:2480  _checkRole(role) */\n      jump\t// in\n    tag_219:\n        /* \"contracts/weusd/manageusd.sol\":2288:2298  _unpause() */\n      tag_221\n        /* \"contracts/weusd/manageusd.sol\":2288:2296  _unpause */\n      tag_222\n        /* \"contracts/weusd/manageusd.sol\":2288:2298  _unpause() */\n      jump\t// in\n    tag_221:\n        /* \"contracts/weusd/manageusd.sol\":2229:2306  function unpause() public onlyRole(PAUSER_ROLE) {... */\n      pop\n      jump\t// out\n        /* \"contracts/weusd/manageusd.sol\":2148:2221  function pause() public onlyRole(PAUSER_ROLE) {... */\n    tag_103:\n        /* \"contracts/weusd/manageusd.sol\":571:595  keccak256(\"PAUSER_ROLE\") */\n      0x65d7a28e3265b37a6474929f336521b332c1681b933f6cb9f3376673440d862a\n        /* \"@openzeppelin/contracts/access/AccessControl.sol\":2464:2480  _checkRole(role) */\n      tag_225\n        /* \"@openzeppelin/contracts/access/AccessControl.sol\":2475:2479  role */\n      dup2\n        /* \"@openzeppelin/contracts/access/AccessControl.sol\":2464:2474  _checkRole */\n      tag_184\n        /* \"@openzeppelin/contracts/access/AccessControl.sol\":2464:2480  _checkRole(role) */\n      jump\t// in\n    tag_225:\n        /* \"contracts/weusd/manageusd.sol\":2205:2213  _pause() */\n      tag_221\n        /* \"contracts/weusd/manageusd.sol\":2205:2211  _pause */\n      tag_228\n        /* \"contracts/weusd/manageusd.sol\":2205:2213  _pause() */\n      jump\t// in\n        /* \"@openzeppelin/contracts/access/AccessControl.sol\":2854:2990  function hasRole(bytes32 role, address account) public view virtual returns (bool) {... */\n    tag_106:\n        /* \"@openzeppelin/contracts/access/AccessControl.sol\":2931:2935  bool */\n      0x00\n        /* \"@openzeppelin/contracts/access/AccessControl.sol\":2954:2966  _roles[role] */\n      swap2\n      dup3\n      mstore\n      0x20\n      dup3\n      dup2\n      mstore\n      0x40\n      dup1\n      dup5\n      keccak256\n      sub(shl(0xa0, 0x01), 0x01)\n        /* \"@openzeppelin/contracts/access/AccessControl.sol\":2954:2983  _roles[role].hasRole[account] */\n      swap4\n      swap1\n      swap4\n      and\n      dup5\n      mstore\n      swap2\n      swap1\n      mstore\n      swap1\n      keccak256\n      sload\n      0xff\n      and\n      swap1\n        /* \"@openzeppelin/contracts/access/AccessControl.sol\":2854:2990  function hasRole(bytes32 role, address account) public view virtual returns (bool) {... */\n      jump\t// out\n        /* \"contracts/weusd/manageusd.sol\":2938:3561  function mintWeUSD(address stablecoin, uint256 stablecoinAmount) external {... */\n    tag_118:\n      sub(shl(0xa0, 0x01), 0x01)\n        /* \"contracts/weusd/manageusd.sol\":3031:3064  registeredStablecoins[stablecoin] */\n      dup3\n      and\n      0x00\n      swap1\n      dup2\n      mstore\n        /* \"contracts/weusd/manageusd.sol\":3031:3052  registeredStablecoins */\n      0x06\n        /* \"contracts/weusd/manageusd.sol\":3031:3064  registeredStablecoins[stablecoin] */\n      0x20\n      mstore\n      0x40\n      swap1\n      keccak256\n      sload\n      0xff\n      and\n        /* \"contracts/weusd/manageusd.sol\":3023:3094  require(registeredStablecoins[stablecoin], \"Stablecoin not registered\") */\n      tag_231\n      jumpi\n      mload(0x40)\n      shl(0xe5, 0x461bcd)\n      dup2\n      mstore\n        /* \"#utility.yul\":8204:8206   */\n      0x20\n        /* \"contracts/weusd/manageusd.sol\":3023:3094  require(registeredStablecoins[stablecoin], \"Stablecoin not registered\") */\n      0x04\n      dup3\n      add\n        /* \"#utility.yul\":8186:8207   */\n      mstore\n        /* \"#utility.yul\":8243:8245   */\n      0x19\n        /* \"#utility.yul\":8223:8241   */\n      0x24\n      dup3\n      add\n        /* \"#utility.yul\":8216:8246   */\n      mstore\n      shl(0x3a, 0x14dd18589b1958dbda5b881b9bdd081c9959da5cdd195c9959)\n        /* \"#utility.yul\":8262:8280   */\n      0x44\n      dup3\n      add\n        /* \"#utility.yul\":8255:8310   */\n      mstore\n        /* \"#utility.yul\":8327:8345   */\n      0x64\n      add\n        /* \"contracts/weusd/manageusd.sol\":3023:3094  require(registeredStablecoins[stablecoin], \"Stablecoin not registered\") */\n      tag_154\n        /* \"#utility.yul\":8002:8351   */\n      jump\n        /* \"contracts/weusd/manageusd.sol\":3023:3094  require(registeredStablecoins[stablecoin], \"Stablecoin not registered\") */\n    tag_231:\n        /* \"contracts/weusd/manageusd.sol\":3105:3129  uint8 stablecoinDecimals */\n      0x00\n        /* \"contracts/weusd/manageusd.sol\":3147:3157  stablecoin */\n      dup3\n      sub(shl(0xa0, 0x01), 0x01)\n        /* \"contracts/weusd/manageusd.sol\":3132:3167  IERC20Metadata(stablecoin).decimals */\n      and\n      0x313ce567\n        /* \"contracts/weusd/manageusd.sol\":3132:3169  IERC20Metadata(stablecoin).decimals() */\n      mload(0x40)\n      dup2\n      0xffffffff\n      and\n      0xe0\n      shl\n      dup2\n      mstore\n      0x04\n      add\n      0x20\n      mload(0x40)\n      dup1\n      dup4\n      sub\n      dup2\n      dup7\n      gas\n      staticcall\n      iszero\n      dup1\n      iszero\n      tag_235\n      jumpi\n      returndatasize\n      0x00\n      dup1\n      returndatacopy\n      revert(0x00, returndatasize)\n    tag_235:\n      pop\n      pop\n      pop\n      pop\n      mload(0x40)\n      returndatasize\n      not(0x1f)\n      0x1f\n      dup3\n      add\n      and\n      dup3\n      add\n      dup1\n      0x40\n      mstore\n      pop\n      dup2\n      add\n      swap1\n      tag_236\n      swap2\n      swap1\n      tag_237\n      jump\t// in\n    tag_236:\n        /* \"contracts/weusd/manageusd.sol\":3105:3169  uint8 stablecoinDecimals = IERC20Metadata(stablecoin).decimals() */\n      swap1\n      pop\n        /* \"contracts/weusd/manageusd.sol\":3180:3199  uint256 weUSDAmount */\n      0x00\n        /* \"contracts/weusd/manageusd.sol\":3202:3258  convertDecimals(stablecoinAmount, stablecoinDecimals, 6) */\n      tag_238\n        /* \"contracts/weusd/manageusd.sol\":3218:3234  stablecoinAmount */\n      dup4\n        /* \"contracts/weusd/manageusd.sol\":3236:3254  stablecoinDecimals */\n      dup4\n        /* \"contracts/weusd/manageusd.sol\":3256:3257  6 */\n      0x06\n        /* \"contracts/weusd/manageusd.sol\":3202:3217  convertDecimals */\n      tag_239\n        /* \"contracts/weusd/manageusd.sol\":3202:3258  convertDecimals(stablecoinAmount, stablecoinDecimals, 6) */\n      jump\t// in\n    tag_238:\n        /* \"contracts/weusd/manageusd.sol\":3362:3374  mainContract */\n      sload(0x01)\n        /* \"contracts/weusd/manageusd.sol\":3310:3394  IERC20(stablecoin).transferFrom(msg.sender, address(mainContract), stablecoinAmount) */\n      mload(0x40)\n      shl(0xe0, 0x23b872dd)\n      dup2\n      mstore\n        /* \"contracts/weusd/manageusd.sol\":3342:3352  msg.sender */\n      caller\n        /* \"contracts/weusd/manageusd.sol\":3310:3394  IERC20(stablecoin).transferFrom(msg.sender, address(mainContract), stablecoinAmount) */\n      0x04\n      dup3\n      add\n        /* \"#utility.yul\":6070:6121   */\n      mstore\n      sub(shl(0xa0, 0x01), 0x01)\n        /* \"contracts/weusd/manageusd.sol\":3362:3374  mainContract */\n      0x0100\n      swap1\n      swap3\n      div\n      dup3\n      and\n        /* \"#utility.yul\":6137:6155   */\n      0x24\n      dup3\n      add\n        /* \"#utility.yul\":6130:6190   */\n      mstore\n        /* \"#utility.yul\":6206:6224   */\n      0x44\n      dup2\n      add\n        /* \"#utility.yul\":6199:6233   */\n      dup7\n      swap1\n      mstore\n        /* \"contracts/weusd/manageusd.sol\":3180:3258  uint256 weUSDAmount = convertDecimals(stablecoinAmount, stablecoinDecimals, 6) */\n      swap2\n      swap3\n      pop\n        /* \"contracts/weusd/manageusd.sol\":3310:3341  IERC20(stablecoin).transferFrom */\n      dup6\n      and\n      swap1\n      0x23b872dd\n      swap1\n        /* \"#utility.yul\":6043:6061   */\n      0x64\n      add\n        /* \"contracts/weusd/manageusd.sol\":3310:3394  IERC20(stablecoin).transferFrom(msg.sender, address(mainContract), stablecoinAmount) */\n      0x20\n      mload(0x40)\n      dup1\n      dup4\n      sub\n      dup2\n      0x00\n      dup8\n      gas\n      call\n      iszero\n      dup1\n      iszero\n      tag_242\n      jumpi\n      returndatasize\n      0x00\n      dup1\n      returndatacopy\n      revert(0x00, returndatasize)\n    tag_242:\n      pop\n      pop\n      pop\n      pop\n      mload(0x40)\n      returndatasize\n      not(0x1f)\n      0x1f\n      dup3\n      add\n      and\n      dup3\n      add\n      dup1\n      0x40\n      mstore\n      pop\n      dup2\n      add\n      swap1\n      tag_243\n      swap2\n      swap1\n      tag_174\n      jump\t// in\n    tag_243:\n        /* \"contracts/weusd/manageusd.sol\":3302:3425  require(IERC20(stablecoin).transferFrom(msg.sender, address(mainContract), stablecoinAmount), \"Stablecoin transfer failed\") */\n      tag_244\n      jumpi\n      mload(0x40)\n      shl(0xe5, 0x461bcd)\n      dup2\n      mstore\n        /* \"#utility.yul\":8836:8838   */\n      0x20\n        /* \"contracts/weusd/manageusd.sol\":3302:3425  require(IERC20(stablecoin).transferFrom(msg.sender, address(mainContract), stablecoinAmount), \"Stablecoin transfer failed\") */\n      0x04\n      dup3\n      add\n        /* \"#utility.yul\":8818:8839   */\n      mstore\n        /* \"#utility.yul\":8875:8877   */\n      0x1a\n        /* \"#utility.yul\":8855:8873   */\n      0x24\n      dup3\n      add\n        /* \"#utility.yul\":8848:8878   */\n      mstore\n        /* \"#utility.yul\":8914:8942   */\n      0x537461626c65636f696e207472616e73666572206661696c6564000000000000\n        /* \"#utility.yul\":8894:8912   */\n      0x44\n      dup3\n      add\n        /* \"#utility.yul\":8887:8943   */\n      mstore\n        /* \"#utility.yul\":8960:8978   */\n      0x64\n      add\n        /* \"contracts/weusd/manageusd.sol\":3302:3425  require(IERC20(stablecoin).transferFrom(msg.sender, address(mainContract), stablecoinAmount), \"Stablecoin transfer failed\") */\n      tag_154\n        /* \"#utility.yul\":8634:8984   */\n      jump\n        /* \"contracts/weusd/manageusd.sol\":3302:3425  require(IERC20(stablecoin).transferFrom(msg.sender, address(mainContract), stablecoinAmount), \"Stablecoin transfer failed\") */\n    tag_244:\n        /* \"contracts/weusd/manageusd.sol\":3436:3441  weUSD */\n      sload(0x02)\n        /* \"contracts/weusd/manageusd.sol\":3436:3471  weUSD.mint(msg.sender, weUSDAmount) */\n      mload(0x40)\n      shl(0xe0, 0x40c10f19)\n      dup2\n      mstore\n        /* \"contracts/weusd/manageusd.sol\":3447:3457  msg.sender */\n      caller\n        /* \"contracts/weusd/manageusd.sol\":3436:3471  weUSD.mint(msg.sender, weUSDAmount) */\n      0x04\n      dup3\n      add\n        /* \"#utility.yul\":6700:6751   */\n      mstore\n        /* \"#utility.yul\":6767:6785   */\n      0x24\n      dup2\n      add\n        /* \"#utility.yul\":6760:6794   */\n      dup4\n      swap1\n      mstore\n      sub(shl(0xa0, 0x01), 0x01)\n        /* \"contracts/weusd/manageusd.sol\":3436:3441  weUSD */\n      swap1\n      swap2\n      and\n      swap1\n        /* \"contracts/weusd/manageusd.sol\":3436:3446  weUSD.mint */\n      0x40c10f19\n      swap1\n        /* \"#utility.yul\":6673:6691   */\n      0x44\n      add\n        /* \"contracts/weusd/manageusd.sol\":3436:3471  weUSD.mint(msg.sender, weUSDAmount) */\n      0x00\n      mload(0x40)\n      dup1\n      dup4\n      sub\n      dup2\n      0x00\n      dup8\n      dup1\n      extcodesize\n      iszero\n      dup1\n      iszero\n      tag_248\n      jumpi\n      0x00\n      dup1\n      revert\n    tag_248:\n      pop\n      gas\n      call\n      iszero\n      dup1\n      iszero\n      tag_250\n      jumpi\n      returndatasize\n      0x00\n      dup1\n      returndatacopy\n      revert(0x00, returndatasize)\n    tag_250:\n      pop\n      pop\n        /* \"contracts/weusd/manageusd.sol\":3487:3553  MintedWeUSD(msg.sender, stablecoin, stablecoinAmount, weUSDAmount) */\n      0x40\n      dup1\n      mload\n        /* \"#utility.yul\":9163:9188   */\n      dup7\n      dup2\n      mstore\n        /* \"#utility.yul\":9219:9221   */\n      0x20\n        /* \"#utility.yul\":9204:9222   */\n      dup2\n      add\n        /* \"#utility.yul\":9197:9231   */\n      dup6\n      swap1\n      mstore\n      sub(shl(0xa0, 0x01), 0x01)\n        /* \"contracts/weusd/manageusd.sol\":3487:3553  MintedWeUSD(msg.sender, stablecoin, stablecoinAmount, weUSDAmount) */\n      dup9\n      and\n      swap4\n      pop\n        /* \"contracts/weusd/manageusd.sol\":3499:3509  msg.sender */\n      caller\n      swap3\n      pop\n        /* \"contracts/weusd/manageusd.sol\":3487:3553  MintedWeUSD(msg.sender, stablecoin, stablecoinAmount, weUSDAmount) */\n      0x66c62f0863782653c5c44e10bf21d9def60984ce20d9f75549575a8910896587\n      swap2\n        /* \"#utility.yul\":9136:9154   */\n      add\n        /* \"contracts/weusd/manageusd.sol\":3487:3553  MintedWeUSD(msg.sender, stablecoin, stablecoinAmount, weUSDAmount) */\n    tag_251:\n      mload(0x40)\n      dup1\n      swap2\n      sub\n      swap1\n      log3\n        /* \"contracts/weusd/manageusd.sol\":3012:3561  {... */\n      pop\n      pop\n        /* \"contracts/weusd/manageusd.sol\":2938:3561  function mintWeUSD(address stablecoin, uint256 stablecoinAmount) external {... */\n      pop\n      pop\n      jump\t// out\n        /* \"contracts/weusd/manageusd.sol\":2314:2415  function setGasfee(uint256 _gasfee) external onlyRole(ADMIN_ROLE) {... */\n    tag_128:\n      0x00\n      dup1\n      mload\n      0x20\n      data_cb864c43dd5d441bb6271f424f11befa622c032dfd374d226e26fbbdb782b8f8\n      dup4\n      codecopy\n      dup2\n      mload\n      swap2\n      mstore\n        /* \"@openzeppelin/contracts/access/AccessControl.sol\":2464:2480  _checkRole(role) */\n      tag_255\n        /* \"@openzeppelin/contracts/access/AccessControl.sol\":2475:2479  role */\n      dup2\n        /* \"@openzeppelin/contracts/access/AccessControl.sol\":2464:2474  _checkRole */\n      tag_184\n        /* \"@openzeppelin/contracts/access/AccessControl.sol\":2464:2480  _checkRole(role) */\n      jump\t// in\n    tag_255:\n      pop\n        /* \"contracts/weusd/manageusd.sol\":2391:2397  gasfee */\n      0x04\n        /* \"contracts/weusd/manageusd.sol\":2391:2407  gasfee = _gasfee */\n      sstore\n        /* \"contracts/weusd/manageusd.sol\":2314:2415  function setGasfee(uint256 _gasfee) external onlyRole(ADMIN_ROLE) {... */\n      jump\t// out\n        /* \"contracts/weusd/manageusd.sol\":2556:2741  function registerStablecoin(address stablecoin) external onlyRole(ADMIN_ROLE) {... */\n    tag_131:\n      0x00\n      dup1\n      mload\n      0x20\n      data_cb864c43dd5d441bb6271f424f11befa622c032dfd374d226e26fbbdb782b8f8\n      dup4\n      codecopy\n      dup2\n      mload\n      swap2\n      mstore\n        /* \"@openzeppelin/contracts/access/AccessControl.sol\":2464:2480  _checkRole(role) */\n      tag_258\n        /* \"@openzeppelin/contracts/access/AccessControl.sol\":2475:2479  role */\n      dup2\n        /* \"@openzeppelin/contracts/access/AccessControl.sol\":2464:2474  _checkRole */\n      tag_184\n        /* \"@openzeppelin/contracts/access/AccessControl.sol\":2464:2480  _checkRole(role) */\n      jump\t// in\n    tag_258:\n      sub(shl(0xa0, 0x01), 0x01)\n        /* \"contracts/weusd/manageusd.sol\":2645:2678  registeredStablecoins[stablecoin] */\n      dup3\n      and\n      0x00\n      dup2\n      dup2\n      mstore\n        /* \"contracts/weusd/manageusd.sol\":2645:2666  registeredStablecoins */\n      0x06\n        /* \"contracts/weusd/manageusd.sol\":2645:2678  registeredStablecoins[stablecoin] */\n      0x20\n      mstore\n      0x40\n      dup1\n      dup3\n      keccak256\n        /* \"contracts/weusd/manageusd.sol\":2645:2685  registeredStablecoins[stablecoin] = true */\n      dup1\n      sload\n      not(0xff)\n      and\n        /* \"contracts/weusd/manageusd.sol\":2681:2685  true */\n      0x01\n        /* \"contracts/weusd/manageusd.sol\":2645:2685  registeredStablecoins[stablecoin] = true */\n      or\n      swap1\n      sstore\n        /* \"contracts/weusd/manageusd.sol\":2701:2733  StablecoinRegistered(stablecoin) */\n      mload\n      0xd8b2dc62b787ec8afbc8a664cf2fd7c1e7851721acc9e0069132cece3c529c2e\n      swap2\n        /* \"contracts/weusd/manageusd.sol\":2645:2678  registeredStablecoins[stablecoin] */\n      swap1\n        /* \"contracts/weusd/manageusd.sol\":2701:2733  StablecoinRegistered(stablecoin) */\n      log2\n        /* \"contracts/weusd/manageusd.sol\":2556:2741  function registerStablecoin(address stablecoin) external onlyRole(ADMIN_ROLE) {... */\n      pop\n      pop\n      jump\t// out\n        /* \"contracts/weusd/manageusd.sol\":3569:4147  function burnWeUSD(address stablecoin, uint256 weUSDAmount) external {... */\n    tag_134:\n      sub(shl(0xa0, 0x01), 0x01)\n        /* \"contracts/weusd/manageusd.sol\":3657:3690  registeredStablecoins[stablecoin] */\n      dup3\n      and\n      0x00\n      swap1\n      dup2\n      mstore\n        /* \"contracts/weusd/manageusd.sol\":3657:3678  registeredStablecoins */\n      0x06\n        /* \"contracts/weusd/manageusd.sol\":3657:3690  registeredStablecoins[stablecoin] */\n      0x20\n      mstore\n      0x40\n      swap1\n      keccak256\n      sload\n      0xff\n      and\n        /* \"contracts/weusd/manageusd.sol\":3649:3720  require(registeredStablecoins[stablecoin], \"Stablecoin not registered\") */\n      tag_261\n      jumpi\n      mload(0x40)\n      shl(0xe5, 0x461bcd)\n      dup2\n      mstore\n        /* \"#utility.yul\":8204:8206   */\n      0x20\n        /* \"contracts/weusd/manageusd.sol\":3649:3720  require(registeredStablecoins[stablecoin], \"Stablecoin not registered\") */\n      0x04\n      dup3\n      add\n        /* \"#utility.yul\":8186:8207   */\n      mstore\n        /* \"#utility.yul\":8243:8245   */\n      0x19\n        /* \"#utility.yul\":8223:8241   */\n      0x24\n      dup3\n      add\n        /* \"#utility.yul\":8216:8246   */\n      mstore\n      shl(0x3a, 0x14dd18589b1958dbda5b881b9bdd081c9959da5cdd195c9959)\n        /* \"#utility.yul\":8262:8280   */\n      0x44\n      dup3\n      add\n        /* \"#utility.yul\":8255:8310   */\n      mstore\n        /* \"#utility.yul\":8327:8345   */\n      0x64\n      add\n        /* \"contracts/weusd/manageusd.sol\":3649:3720  require(registeredStablecoins[stablecoin], \"Stablecoin not registered\") */\n      tag_154\n        /* \"#utility.yul\":8002:8351   */\n      jump\n        /* \"contracts/weusd/manageusd.sol\":3649:3720  require(registeredStablecoins[stablecoin], \"Stablecoin not registered\") */\n    tag_261:\n        /* \"contracts/weusd/manageusd.sol\":3731:3755  uint8 stablecoinDecimals */\n      0x00\n        /* \"contracts/weusd/manageusd.sol\":3773:3783  stablecoin */\n      dup3\n      sub(shl(0xa0, 0x01), 0x01)\n        /* \"contracts/weusd/manageusd.sol\":3758:3793  IERC20Metadata(stablecoin).decimals */\n      and\n      0x313ce567\n        /* \"contracts/weusd/manageusd.sol\":3758:3795  IERC20Metadata(stablecoin).decimals() */\n      mload(0x40)\n      dup2\n      0xffffffff\n      and\n      0xe0\n      shl\n      dup2\n      mstore\n      0x04\n      add\n      0x20\n      mload(0x40)\n      dup1\n      dup4\n      sub\n      dup2\n      dup7\n      gas\n      staticcall\n      iszero\n      dup1\n      iszero\n      tag_264\n      jumpi\n      returndatasize\n      0x00\n      dup1\n      returndatacopy\n      revert(0x00, returndatasize)\n    tag_264:\n      pop\n      pop\n      pop\n      pop\n      mload(0x40)\n      returndatasize\n      not(0x1f)\n      0x1f\n      dup3\n      add\n      and\n      dup3\n      add\n      dup1\n      0x40\n      mstore\n      pop\n      dup2\n      add\n      swap1\n      tag_265\n      swap2\n      swap1\n      tag_237\n      jump\t// in\n    tag_265:\n        /* \"contracts/weusd/manageusd.sol\":3731:3795  uint8 stablecoinDecimals = IERC20Metadata(stablecoin).decimals() */\n      swap1\n      pop\n        /* \"contracts/weusd/manageusd.sol\":3806:3830  uint256 stablecoinAmount */\n      0x00\n        /* \"contracts/weusd/manageusd.sol\":3833:3888  convertDecimalsCeil(weUSDAmount, 6, stablecoinDecimals) */\n      tag_266\n        /* \"contracts/weusd/manageusd.sol\":3853:3864  weUSDAmount */\n      dup4\n        /* \"contracts/weusd/manageusd.sol\":3866:3867  6 */\n      0x06\n        /* \"contracts/weusd/manageusd.sol\":3869:3887  stablecoinDecimals */\n      dup5\n        /* \"contracts/weusd/manageusd.sol\":3833:3852  convertDecimalsCeil */\n      tag_267\n        /* \"contracts/weusd/manageusd.sol\":3833:3888  convertDecimalsCeil(weUSDAmount, 6, stablecoinDecimals) */\n      jump\t// in\n    tag_266:\n        /* \"contracts/weusd/manageusd.sol\":3934:3946  mainContract */\n      sload(0x01)\n        /* \"contracts/weusd/manageusd.sol\":3934:4007  mainContract.transferStableCoin(stablecoin, msg.sender, stablecoinAmount) */\n      mload(0x40)\n      shl(0xe2, 0x1795588d)\n      dup2\n      mstore\n      sub(shl(0xa0, 0x01), 0x01)\n        /* \"#utility.yul\":6088:6120   */\n      dup8\n      dup2\n      and\n        /* \"contracts/weusd/manageusd.sol\":3934:4007  mainContract.transferStableCoin(stablecoin, msg.sender, stablecoinAmount) */\n      0x04\n      dup4\n      add\n        /* \"#utility.yul\":6070:6121   */\n      mstore\n        /* \"contracts/weusd/manageusd.sol\":3978:3988  msg.sender */\n      caller\n        /* \"#utility.yul\":6137:6155   */\n      0x24\n      dup4\n      add\n        /* \"#utility.yul\":6130:6190   */\n      mstore\n        /* \"#utility.yul\":6206:6224   */\n      0x44\n      dup3\n      add\n        /* \"#utility.yul\":6199:6233   */\n      dup5\n      swap1\n      mstore\n        /* \"contracts/weusd/manageusd.sol\":3806:3888  uint256 stablecoinAmount = convertDecimalsCeil(weUSDAmount, 6, stablecoinDecimals) */\n      swap3\n      swap4\n      pop\n        /* \"contracts/weusd/manageusd.sol\":3934:3946  mainContract */\n      0x0100\n      swap1\n      swap2\n      div\n      swap1\n      swap2\n      and\n      swap1\n        /* \"contracts/weusd/manageusd.sol\":3934:3965  mainContract.transferStableCoin */\n      0x5e556234\n      swap1\n        /* \"#utility.yul\":6043:6061   */\n      0x64\n      add\n        /* \"contracts/weusd/manageusd.sol\":3934:4007  mainContract.transferStableCoin(stablecoin, msg.sender, stablecoinAmount) */\n      0x00\n      mload(0x40)\n      dup1\n      dup4\n      sub\n      dup2\n      0x00\n      dup8\n      dup1\n      extcodesize\n      iszero\n      dup1\n      iszero\n      tag_269\n      jumpi\n      0x00\n      dup1\n      revert\n    tag_269:\n      pop\n      gas\n      call\n      iszero\n      dup1\n      iszero\n      tag_271\n      jumpi\n      returndatasize\n      0x00\n      dup1\n      returndatacopy\n      revert(0x00, returndatasize)\n    tag_271:\n      pop\n      pop\n        /* \"contracts/weusd/manageusd.sol\":4018:4023  weUSD */\n      sload(0x02)\n        /* \"contracts/weusd/manageusd.sol\":4018:4057  weUSD.burnFrom(msg.sender, weUSDAmount) */\n      mload(0x40)\n      shl(0xe4, 0x079cc679)\n      dup2\n      mstore\n        /* \"contracts/weusd/manageusd.sol\":4033:4043  msg.sender */\n      caller\n        /* \"contracts/weusd/manageusd.sol\":4018:4057  weUSD.burnFrom(msg.sender, weUSDAmount) */\n      0x04\n      dup3\n      add\n        /* \"#utility.yul\":6700:6751   */\n      mstore\n        /* \"#utility.yul\":6767:6785   */\n      0x24\n      dup2\n      add\n        /* \"#utility.yul\":6760:6794   */\n      dup8\n      swap1\n      mstore\n      sub(shl(0xa0, 0x01), 0x01)\n        /* \"contracts/weusd/manageusd.sol\":4018:4023  weUSD */\n      swap1\n      swap2\n      and\n      swap3\n      pop\n        /* \"contracts/weusd/manageusd.sol\":4018:4032  weUSD.burnFrom */\n      0x79cc6790\n      swap2\n      pop\n        /* \"#utility.yul\":6673:6691   */\n      0x44\n      add\n        /* \"contracts/weusd/manageusd.sol\":4018:4057  weUSD.burnFrom(msg.sender, weUSDAmount) */\n      0x00\n      mload(0x40)\n      dup1\n      dup4\n      sub\n      dup2\n      0x00\n      dup8\n      dup1\n      extcodesize\n      iszero\n      dup1\n      iszero\n      tag_273\n      jumpi\n      0x00\n      dup1\n      revert\n    tag_273:\n      pop\n      gas\n      call\n      iszero\n      dup1\n      iszero\n      tag_275\n      jumpi\n      returndatasize\n      0x00\n      dup1\n      returndatacopy\n      revert(0x00, returndatasize)\n    tag_275:\n      pop\n      pop\n        /* \"contracts/weusd/manageusd.sol\":4073:4139  BurnedWeUSD(msg.sender, stablecoin, weUSDAmount, stablecoinAmount) */\n      0x40\n      dup1\n      mload\n        /* \"#utility.yul\":9163:9188   */\n      dup7\n      dup2\n      mstore\n        /* \"#utility.yul\":9219:9221   */\n      0x20\n        /* \"#utility.yul\":9204:9222   */\n      dup2\n      add\n        /* \"#utility.yul\":9197:9231   */\n      dup6\n      swap1\n      mstore\n      sub(shl(0xa0, 0x01), 0x01)\n        /* \"contracts/weusd/manageusd.sol\":4073:4139  BurnedWeUSD(msg.sender, stablecoin, weUSDAmount, stablecoinAmount) */\n      dup9\n      and\n      swap4\n      pop\n        /* \"contracts/weusd/manageusd.sol\":4085:4095  msg.sender */\n      caller\n      swap3\n      pop\n        /* \"contracts/weusd/manageusd.sol\":4073:4139  BurnedWeUSD(msg.sender, stablecoin, weUSDAmount, stablecoinAmount) */\n      0x3d9842cbdfa603ab9534d6e362bf28b3061318f57fed5e7087dfc956a9d74442\n      swap2\n        /* \"#utility.yul\":9136:9154   */\n      add\n        /* \"contracts/weusd/manageusd.sol\":4073:4139  BurnedWeUSD(msg.sender, stablecoin, weUSDAmount, stablecoinAmount) */\n      tag_251\n        /* \"#utility.yul\":8989:9237   */\n      jump\n        /* \"@openzeppelin/contracts/access/AccessControl.sol\":4642:4780  function revokeRole(bytes32 role, address account) public virtual onlyRole(getRoleAdmin(role)) {... */\n    tag_141:\n        /* \"@openzeppelin/contracts/access/AccessControl.sol\":3875:3882  bytes32 */\n      0x00\n        /* \"@openzeppelin/contracts/access/AccessControl.sol\":3901:3913  _roles[role] */\n      dup3\n      dup2\n      mstore\n      0x20\n      dup2\n      swap1\n      mstore\n      0x40\n      swap1\n      keccak256\n        /* \"@openzeppelin/contracts/access/AccessControl.sol\":3901:3923  _roles[role].adminRole */\n      0x01\n      add\n      sload\n        /* \"@openzeppelin/contracts/access/AccessControl.sol\":2464:2480  _checkRole(role) */\n      tag_279\n        /* \"@openzeppelin/contracts/access/AccessControl.sol\":2475:2479  role */\n      dup2\n        /* \"@openzeppelin/contracts/access/AccessControl.sol\":2464:2474  _checkRole */\n      tag_184\n        /* \"@openzeppelin/contracts/access/AccessControl.sol\":2464:2480  _checkRole(role) */\n      jump\t// in\n    tag_279:\n        /* \"@openzeppelin/contracts/access/AccessControl.sol\":4747:4773  _revokeRole(role, account) */\n      tag_210\n        /* \"@openzeppelin/contracts/access/AccessControl.sol\":4759:4763  role */\n      dup4\n        /* \"@openzeppelin/contracts/access/AccessControl.sol\":4765:4772  account */\n      dup4\n        /* \"@openzeppelin/contracts/access/AccessControl.sol\":4747:4758  _revokeRole */\n      tag_217\n        /* \"@openzeppelin/contracts/access/AccessControl.sol\":4747:4773  _revokeRole(role, account) */\n      jump\t// in\n        /* \"contracts/weusd/manageusd.sol\":2423:2548  function setFeeRecipient(address _feeRecipient) external onlyRole(ADMIN_ROLE) {... */\n    tag_147:\n      0x00\n      dup1\n      mload\n      0x20\n      data_cb864c43dd5d441bb6271f424f11befa622c032dfd374d226e26fbbdb782b8f8\n      dup4\n      codecopy\n      dup2\n      mload\n      swap2\n      mstore\n        /* \"@openzeppelin/contracts/access/AccessControl.sol\":2464:2480  _checkRole(role) */\n      tag_283\n        /* \"@openzeppelin/contracts/access/AccessControl.sol\":2475:2479  role */\n      dup2\n        /* \"@openzeppelin/contracts/access/AccessControl.sol\":2464:2474  _checkRole */\n      tag_184\n        /* \"@openzeppelin/contracts/access/AccessControl.sol\":2464:2480  _checkRole(role) */\n      jump\t// in\n    tag_283:\n      pop\n        /* \"contracts/weusd/manageusd.sol\":2512:2524  feeRecipient */\n      0x05\n        /* \"contracts/weusd/manageusd.sol\":2512:2540  feeRecipient = _feeRecipient */\n      dup1\n      sload\n      not(sub(shl(0xa0, 0x01), 0x01))\n      and\n      sub(shl(0xa0, 0x01), 0x01)\n      swap3\n      swap1\n      swap3\n      and\n      swap2\n      swap1\n      swap2\n      or\n      swap1\n      sstore\n        /* \"contracts/weusd/manageusd.sol\":2423:2548  function setFeeRecipient(address _feeRecipient) external onlyRole(ADMIN_ROLE) {... */\n      jump\t// out\n        /* \"@openzeppelin/contracts/access/AccessControl.sol\":3199:3302  function _checkRole(bytes32 role) internal view virtual {... */\n    tag_184:\n        /* \"@openzeppelin/contracts/access/AccessControl.sol\":3265:3295  _checkRole(role, _msgSender()) */\n      tag_221\n        /* \"@openzeppelin/contracts/access/AccessControl.sol\":3276:3280  role */\n      dup2\n        /* \"@openzeppelin/contracts/utils/Context.sol\":735:745  msg.sender */\n      caller\n        /* \"@openzeppelin/contracts/access/AccessControl.sol\":3265:3275  _checkRole */\n      tag_289\n        /* \"@openzeppelin/contracts/access/AccessControl.sol\":3265:3295  _checkRole(role, _msgSender()) */\n      jump\t// in\n        /* \"@openzeppelin/contracts/access/AccessControl.sol\":6179:6495  function _grantRole(bytes32 role, address account) internal virtual returns (bool) {... */\n    tag_211:\n        /* \"@openzeppelin/contracts/access/AccessControl.sol\":6256:6260  bool */\n      0x00\n        /* \"@openzeppelin/contracts/access/AccessControl.sol\":6277:6299  hasRole(role, account) */\n      tag_291\n        /* \"@openzeppelin/contracts/access/AccessControl.sol\":6285:6289  role */\n      dup4\n        /* \"@openzeppelin/contracts/access/AccessControl.sol\":6291:6298  account */\n      dup4\n        /* \"@openzeppelin/contracts/access/AccessControl.sol\":6277:6284  hasRole */\n      tag_106\n        /* \"@openzeppelin/contracts/access/AccessControl.sol\":6277:6299  hasRole(role, account) */\n      jump\t// in\n    tag_291:\n        /* \"@openzeppelin/contracts/access/AccessControl.sol\":6272:6489  if (!hasRole(role, account)) {... */\n      tag_292\n      jumpi\n        /* \"@openzeppelin/contracts/access/AccessControl.sol\":6315:6321  _roles */\n      0x00\n        /* \"@openzeppelin/contracts/access/AccessControl.sol\":6315:6327  _roles[role] */\n      dup4\n      dup2\n      mstore\n      0x20\n      dup2\n      dup2\n      mstore\n      0x40\n      dup1\n      dup4\n      keccak256\n      sub(shl(0xa0, 0x01), 0x01)\n        /* \"@openzeppelin/contracts/access/AccessControl.sol\":6315:6344  _roles[role].hasRole[account] */\n      dup7\n      and\n      dup5\n      mstore\n      swap1\n      swap2\n      mstore\n      swap1\n      keccak256\n        /* \"@openzeppelin/contracts/access/AccessControl.sol\":6315:6351  _roles[role].hasRole[account] = true */\n      dup1\n      sload\n      not(0xff)\n      and\n        /* \"@openzeppelin/contracts/access/AccessControl.sol\":6347:6351  true */\n      0x01\n        /* \"@openzeppelin/contracts/access/AccessControl.sol\":6315:6351  _roles[role].hasRole[account] = true */\n      or\n      swap1\n      sstore\n        /* \"@openzeppelin/contracts/access/AccessControl.sol\":6397:6409  _msgSender() */\n      tag_293\n        /* \"@openzeppelin/contracts/utils/Context.sol\":735:745  msg.sender */\n      caller\n      swap1\n        /* \"@openzeppelin/contracts/utils/Context.sol\":656:752  function _msgSender() internal view virtual returns (address) {... */\n      jump\n        /* \"@openzeppelin/contracts/access/AccessControl.sol\":6397:6409  _msgSender() */\n    tag_293:\n      sub(shl(0xa0, 0x01), 0x01)\n        /* \"@openzeppelin/contracts/access/AccessControl.sol\":6370:6410  RoleGranted(role, account, _msgSender()) */\n      and\n        /* \"@openzeppelin/contracts/access/AccessControl.sol\":6388:6395  account */\n      dup3\n      sub(shl(0xa0, 0x01), 0x01)\n        /* \"@openzeppelin/contracts/access/AccessControl.sol\":6370:6410  RoleGranted(role, account, _msgSender()) */\n      and\n        /* \"@openzeppelin/contracts/access/AccessControl.sol\":6382:6386  role */\n      dup5\n        /* \"@openzeppelin/contracts/access/AccessControl.sol\":6370:6410  RoleGranted(role, account, _msgSender()) */\n      0x2f8788117e7eff1d82e926ec794901d17c78024a50270940304540a733656f0d\n      mload(0x40)\n      mload(0x40)\n      dup1\n      swap2\n      sub\n      swap1\n      log4\n      pop\n        /* \"@openzeppelin/contracts/access/AccessControl.sol\":6431:6435  true */\n      0x01\n        /* \"@openzeppelin/contracts/access/AccessControl.sol\":6424:6435  return true */\n      jump(tag_150)\n        /* \"@openzeppelin/contracts/access/AccessControl.sol\":6272:6489  if (!hasRole(role, account)) {... */\n    tag_292:\n      pop\n        /* \"@openzeppelin/contracts/access/AccessControl.sol\":6473:6478  false */\n      0x00\n        /* \"@openzeppelin/contracts/access/AccessControl.sol\":6466:6478  return false */\n      jump(tag_150)\n        /* \"@openzeppelin/contracts/access/AccessControl.sol\":6730:7047  function _revokeRole(bytes32 role, address account) internal virtual returns (bool) {... */\n    tag_217:\n        /* \"@openzeppelin/contracts/access/AccessControl.sol\":6808:6812  bool */\n      0x00\n        /* \"@openzeppelin/contracts/access/AccessControl.sol\":6828:6850  hasRole(role, account) */\n      tag_297\n        /* \"@openzeppelin/contracts/access/AccessControl.sol\":6836:6840  role */\n      dup4\n        /* \"@openzeppelin/contracts/access/AccessControl.sol\":6842:6849  account */\n      dup4\n        /* \"@openzeppelin/contracts/access/AccessControl.sol\":6828:6835  hasRole */\n      tag_106\n        /* \"@openzeppelin/contracts/access/AccessControl.sol\":6828:6850  hasRole(role, account) */\n      jump\t// in\n    tag_297:\n        /* \"@openzeppelin/contracts/access/AccessControl.sol\":6824:7041  if (hasRole(role, account)) {... */\n      iszero\n      tag_292\n      jumpi\n        /* \"@openzeppelin/contracts/access/AccessControl.sol\":6898:6903  false */\n      0x00\n        /* \"@openzeppelin/contracts/access/AccessControl.sol\":6866:6878  _roles[role] */\n      dup4\n      dup2\n      mstore\n      0x20\n      dup2\n      dup2\n      mstore\n      0x40\n      dup1\n      dup4\n      keccak256\n      sub(shl(0xa0, 0x01), 0x01)\n        /* \"@openzeppelin/contracts/access/AccessControl.sol\":6866:6895  _roles[role].hasRole[account] */\n      dup7\n      and\n      dup1\n      dup6\n      mstore\n      swap3\n      mstore\n      dup1\n      dup4\n      keccak256\n        /* \"@openzeppelin/contracts/access/AccessControl.sol\":6866:6903  _roles[role].hasRole[account] = false */\n      dup1\n      sload\n      not(0xff)\n      and\n      swap1\n      sstore\n        /* \"@openzeppelin/contracts/access/AccessControl.sol\":6922:6962  RoleRevoked(role, account, _msgSender()) */\n      mload\n        /* \"@openzeppelin/contracts/utils/Context.sol\":735:745  msg.sender */\n      caller\n      swap3\n        /* \"@openzeppelin/contracts/access/AccessControl.sol\":6866:6878  _roles[role] */\n      dup7\n      swap2\n        /* \"@openzeppelin/contracts/access/AccessControl.sol\":6922:6962  RoleRevoked(role, account, _msgSender()) */\n      0xf6391f5c32d9c69d2a47ea670b442974b53935d1edc7fd64eb21e047a839171b\n      swap2\n        /* \"@openzeppelin/contracts/access/AccessControl.sol\":6898:6903  false */\n      swap1\n        /* \"@openzeppelin/contracts/access/AccessControl.sol\":6922:6962  RoleRevoked(role, account, _msgSender()) */\n      log4\n      pop\n        /* \"@openzeppelin/contracts/access/AccessControl.sol\":6983:6987  true */\n      0x01\n        /* \"@openzeppelin/contracts/access/AccessControl.sol\":6976:6987  return true */\n      jump(tag_150)\n        /* \"@openzeppelin/contracts/utils/Pausable.sol\":2710:2827  function _unpause() internal virtual whenPaused {... */\n    tag_222:\n        /* \"@openzeppelin/contracts/utils/Pausable.sol\":1721:1737  _requirePaused() */\n      tag_302\n        /* \"@openzeppelin/contracts/utils/Pausable.sol\":1721:1735  _requirePaused */\n      tag_303\n        /* \"@openzeppelin/contracts/utils/Pausable.sol\":1721:1737  _requirePaused() */\n      jump\t// in\n    tag_302:\n        /* \"@openzeppelin/contracts/utils/Pausable.sol\":2768:2775  _paused */\n      0x01\n        /* \"@openzeppelin/contracts/utils/Pausable.sol\":2768:2783  _paused = false */\n      dup1\n      sload\n      not(0xff)\n      and\n      swap1\n      sstore\n        /* \"@openzeppelin/contracts/utils/Pausable.sol\":2798:2820  Unpaused(_msgSender()) */\n      0x5db9ee0a495bf2e6ff9c91a7834c1ba4fdd244a5e8aa4e537bd38aeae4b073aa\n        /* \"@openzeppelin/contracts/utils/Context.sol\":735:745  msg.sender */\n      caller\n        /* \"@openzeppelin/contracts/utils/Pausable.sol\":2807:2819  _msgSender() */\n    tag_305:\n        /* \"@openzeppelin/contracts/utils/Pausable.sol\":2798:2820  Unpaused(_msgSender()) */\n      mload(0x40)\n      sub(shl(0xa0, 0x01), 0x01)\n        /* \"#utility.yul\":3132:3164   */\n      swap1\n      swap2\n      and\n        /* \"#utility.yul\":3114:3165   */\n      dup2\n      mstore\n        /* \"#utility.yul\":3102:3104   */\n      0x20\n        /* \"#utility.yul\":3087:3105   */\n      add\n        /* \"@openzeppelin/contracts/utils/Pausable.sol\":2798:2820  Unpaused(_msgSender()) */\n      mload(0x40)\n      dup1\n      swap2\n      sub\n      swap1\n      log1\n        /* \"@openzeppelin/contracts/utils/Pausable.sol\":2710:2827  function _unpause() internal virtual whenPaused {... */\n      jump\t// out\n        /* \"@openzeppelin/contracts/utils/Pausable.sol\":2463:2578  function _pause() internal virtual whenNotPaused {... */\n    tag_228:\n        /* \"@openzeppelin/contracts/utils/Pausable.sol\":1474:1493  _requireNotPaused() */\n      tag_308\n        /* \"@openzeppelin/contracts/utils/Pausable.sol\":1474:1491  _requireNotPaused */\n      tag_309\n        /* \"@openzeppelin/contracts/utils/Pausable.sol\":1474:1493  _requireNotPaused() */\n      jump\t// in\n    tag_308:\n        /* \"@openzeppelin/contracts/utils/Pausable.sol\":2532:2536  true */\n      0x01\n        /* \"@openzeppelin/contracts/utils/Pausable.sol\":2522:2536  _paused = true */\n      dup1\n      sload\n      not(0xff)\n      and\n      dup2\n      or\n      swap1\n      sstore\n        /* \"@openzeppelin/contracts/utils/Pausable.sol\":2551:2571  Paused(_msgSender()) */\n      0x62e78cea01bee320cd4e420270b5ea74000d11b0c9f74754ebdbfc544b05a258\n        /* \"@openzeppelin/contracts/utils/Context.sol\":735:745  msg.sender */\n      caller\n        /* \"@openzeppelin/contracts/utils/Pausable.sol\":2558:2570  _msgSender() */\n      tag_305\n        /* \"@openzeppelin/contracts/utils/Context.sol\":656:752  function _msgSender() internal view virtual returns (address) {... */\n      jump\n        /* \"contracts/weusd/manageusd.sol\":5999:6468  function convertDecimals(... */\n    tag_239:\n        /* \"contracts/weusd/manageusd.sol\":6140:6154  uint256 result */\n      0x00\n        /* \"contracts/weusd/manageusd.sol\":6189:6203  targetDecimals */\n      dup2\n        /* \"contracts/weusd/manageusd.sol\":6171:6203  sourceDecimals == targetDecimals */\n      0xff\n      and\n        /* \"contracts/weusd/manageusd.sol\":6171:6185  sourceDecimals */\n      dup4\n        /* \"contracts/weusd/manageusd.sol\":6171:6203  sourceDecimals == targetDecimals */\n      0xff\n      and\n      sub\n        /* \"contracts/weusd/manageusd.sol\":6167:6461  if (sourceDecimals == targetDecimals) {... */\n      tag_314\n      jumpi\n      pop\n        /* \"contracts/weusd/manageusd.sol\":6229:6234  value */\n      dup3\n        /* \"contracts/weusd/manageusd.sol\":6167:6461  if (sourceDecimals == targetDecimals) {... */\n      jump(tag_323)\n    tag_314:\n        /* \"contracts/weusd/manageusd.sol\":6273:6287  targetDecimals */\n      dup2\n        /* \"contracts/weusd/manageusd.sol\":6256:6287  sourceDecimals < targetDecimals */\n      0xff\n      and\n        /* \"contracts/weusd/manageusd.sol\":6256:6270  sourceDecimals */\n      dup4\n        /* \"contracts/weusd/manageusd.sol\":6256:6287  sourceDecimals < targetDecimals */\n      0xff\n      and\n      lt\n        /* \"contracts/weusd/manageusd.sol\":6252:6461  if (sourceDecimals < targetDecimals) {... */\n      iszero\n      tag_316\n      jumpi\n        /* \"contracts/weusd/manageusd.sol\":6327:6358  targetDecimals - sourceDecimals */\n      tag_317\n        /* \"contracts/weusd/manageusd.sol\":6344:6358  sourceDecimals */\n      dup4\n        /* \"contracts/weusd/manageusd.sol\":6327:6341  targetDecimals */\n      dup4\n        /* \"contracts/weusd/manageusd.sol\":6327:6358  targetDecimals - sourceDecimals */\n      tag_318\n      jump\t// in\n    tag_317:\n        /* \"contracts/weusd/manageusd.sol\":6322:6359  10**(targetDecimals - sourceDecimals) */\n      tag_319\n      swap1\n        /* \"contracts/weusd/manageusd.sol\":6322:6324  10 */\n      0x0a\n        /* \"contracts/weusd/manageusd.sol\":6322:6359  10**(targetDecimals - sourceDecimals) */\n      tag_320\n      jump\t// in\n    tag_319:\n        /* \"contracts/weusd/manageusd.sol\":6313:6360  value * (10**(targetDecimals - sourceDecimals)) */\n      tag_321\n      swap1\n        /* \"contracts/weusd/manageusd.sol\":6313:6318  value */\n      dup6\n        /* \"contracts/weusd/manageusd.sol\":6313:6360  value * (10**(targetDecimals - sourceDecimals)) */\n      tag_322\n      jump\t// in\n    tag_321:\n        /* \"contracts/weusd/manageusd.sol\":6304:6360  result = value * (10**(targetDecimals - sourceDecimals)) */\n      swap1\n      pop\n        /* \"contracts/weusd/manageusd.sol\":6252:6461  if (sourceDecimals < targetDecimals) {... */\n      jump(tag_323)\n    tag_316:\n        /* \"contracts/weusd/manageusd.sol\":6416:6447  sourceDecimals - targetDecimals */\n      tag_324\n        /* \"contracts/weusd/manageusd.sol\":6433:6447  targetDecimals */\n      dup3\n        /* \"contracts/weusd/manageusd.sol\":6416:6430  sourceDecimals */\n      dup5\n        /* \"contracts/weusd/manageusd.sol\":6416:6447  sourceDecimals - targetDecimals */\n      tag_318\n      jump\t// in\n    tag_324:\n        /* \"contracts/weusd/manageusd.sol\":6411:6448  10**(sourceDecimals - targetDecimals) */\n      tag_325\n      swap1\n        /* \"contracts/weusd/manageusd.sol\":6411:6413  10 */\n      0x0a\n        /* \"contracts/weusd/manageusd.sol\":6411:6448  10**(sourceDecimals - targetDecimals) */\n      tag_320\n      jump\t// in\n    tag_325:\n        /* \"contracts/weusd/manageusd.sol\":6402:6449  value / (10**(sourceDecimals - targetDecimals)) */\n      tag_326\n      swap1\n        /* \"contracts/weusd/manageusd.sol\":6402:6407  value */\n      dup6\n        /* \"contracts/weusd/manageusd.sol\":6402:6449  value / (10**(sourceDecimals - targetDecimals)) */\n      tag_327\n      jump\t// in\n    tag_326:\n        /* \"contracts/weusd/manageusd.sol\":6393:6449  result = value / (10**(sourceDecimals - targetDecimals)) */\n      swap1\n      pop\n        /* \"contracts/weusd/manageusd.sol\":6252:6461  if (sourceDecimals < targetDecimals) {... */\n    tag_323:\n        /* \"contracts/weusd/manageusd.sol\":5999:6468  function convertDecimals(... */\n      swap4\n      swap3\n      pop\n      pop\n      pop\n      jump\t// out\n        /* \"contracts/weusd/manageusd.sol\":6476:7064  function convertDecimalsCeil(... */\n    tag_267:\n        /* \"contracts/weusd/manageusd.sol\":6621:6635  uint256 result */\n      0x00\n        /* \"contracts/weusd/manageusd.sol\":6670:6684  targetDecimals */\n      dup2\n        /* \"contracts/weusd/manageusd.sol\":6652:6684  sourceDecimals == targetDecimals */\n      0xff\n      and\n        /* \"contracts/weusd/manageusd.sol\":6652:6666  sourceDecimals */\n      dup4\n        /* \"contracts/weusd/manageusd.sol\":6652:6684  sourceDecimals == targetDecimals */\n      0xff\n      and\n      sub\n        /* \"contracts/weusd/manageusd.sol\":6648:7057  if (sourceDecimals == targetDecimals) {... */\n      tag_329\n      jumpi\n      pop\n        /* \"contracts/weusd/manageusd.sol\":6710:6715  value */\n      dup3\n        /* \"contracts/weusd/manageusd.sol\":6648:7057  if (sourceDecimals == targetDecimals) {... */\n      jump(tag_323)\n    tag_329:\n        /* \"contracts/weusd/manageusd.sol\":6754:6768  targetDecimals */\n      dup2\n        /* \"contracts/weusd/manageusd.sol\":6737:6768  sourceDecimals < targetDecimals */\n      0xff\n      and\n        /* \"contracts/weusd/manageusd.sol\":6737:6751  sourceDecimals */\n      dup4\n        /* \"contracts/weusd/manageusd.sol\":6737:6768  sourceDecimals < targetDecimals */\n      0xff\n      and\n      lt\n        /* \"contracts/weusd/manageusd.sol\":6733:7057  if (sourceDecimals < targetDecimals) {... */\n      iszero\n      tag_331\n      jumpi\n        /* \"contracts/weusd/manageusd.sol\":6808:6839  targetDecimals - sourceDecimals */\n      tag_317\n        /* \"contracts/weusd/manageusd.sol\":6825:6839  sourceDecimals */\n      dup4\n        /* \"contracts/weusd/manageusd.sol\":6808:6822  targetDecimals */\n      dup4\n        /* \"contracts/weusd/manageusd.sol\":6808:6839  targetDecimals - sourceDecimals */\n      tag_318\n      jump\t// in\n        /* \"contracts/weusd/manageusd.sol\":6733:7057  if (sourceDecimals < targetDecimals) {... */\n    tag_331:\n        /* \"contracts/weusd/manageusd.sol\":6874:6886  uint256 temp */\n      0x00\n        /* \"contracts/weusd/manageusd.sol\":6894:6925  sourceDecimals - targetDecimals */\n      tag_336\n        /* \"contracts/weusd/manageusd.sol\":6911:6925  targetDecimals */\n      dup4\n        /* \"contracts/weusd/manageusd.sol\":6894:6908  sourceDecimals */\n      dup6\n        /* \"contracts/weusd/manageusd.sol\":6894:6925  sourceDecimals - targetDecimals */\n      tag_318\n      jump\t// in\n    tag_336:\n        /* \"contracts/weusd/manageusd.sol\":6889:6926  10**(sourceDecimals - targetDecimals) */\n      tag_337\n      swap1\n        /* \"contracts/weusd/manageusd.sol\":6889:6891  10 */\n      0x0a\n        /* \"contracts/weusd/manageusd.sol\":6889:6926  10**(sourceDecimals - targetDecimals) */\n      tag_320\n      jump\t// in\n    tag_337:\n        /* \"contracts/weusd/manageusd.sol\":6874:6926  uint256 temp = 10**(sourceDecimals - targetDecimals) */\n      swap1\n      pop\n        /* \"contracts/weusd/manageusd.sol\":6950:6962  value / temp */\n      tag_338\n        /* \"contracts/weusd/manageusd.sol\":6874:6926  uint256 temp = 10**(sourceDecimals - targetDecimals) */\n      dup2\n        /* \"contracts/weusd/manageusd.sol\":6950:6955  value */\n      dup7\n        /* \"contracts/weusd/manageusd.sol\":6950:6962  value / temp */\n      tag_327\n      jump\t// in\n    tag_338:\n        /* \"contracts/weusd/manageusd.sol\":6941:6962  result = value / temp */\n      swap2\n      pop\n        /* \"contracts/weusd/manageusd.sol\":6981:6993  value % temp */\n      tag_339\n        /* \"contracts/weusd/manageusd.sol\":6989:6993  temp */\n      dup2\n        /* \"contracts/weusd/manageusd.sol\":6981:6986  value */\n      dup7\n        /* \"contracts/weusd/manageusd.sol\":6981:6993  value % temp */\n      tag_340\n      jump\t// in\n    tag_339:\n        /* \"contracts/weusd/manageusd.sol\":6981:6998  value % temp != 0 */\n      iszero\n        /* \"contracts/weusd/manageusd.sol\":6977:7046  if (value % temp != 0) {... */\n      tag_341\n      jumpi\n        /* \"contracts/weusd/manageusd.sol\":7019:7030  result += 1 */\n      tag_342\n        /* \"contracts/weusd/manageusd.sol\":7029:7030  1 */\n      0x01\n        /* \"contracts/weusd/manageusd.sol\":7019:7030  result += 1 */\n      dup4\n      tag_343\n      jump\t// in\n    tag_342:\n      swap2\n      pop\n        /* \"contracts/weusd/manageusd.sol\":6977:7046  if (value % temp != 0) {... */\n    tag_341:\n        /* \"contracts/weusd/manageusd.sol\":6859:7057  {... */\n      pop\n        /* \"contracts/weusd/manageusd.sol\":6476:7064  function convertDecimalsCeil(... */\n      swap4\n      swap3\n      pop\n      pop\n      pop\n      jump\t// out\n        /* \"@openzeppelin/contracts/access/AccessControl.sol\":3432:3629  function _checkRole(bytes32 role, address account) internal view virtual {... */\n    tag_289:\n        /* \"@openzeppelin/contracts/access/AccessControl.sol\":3520:3542  hasRole(role, account) */\n      tag_345\n        /* \"@openzeppelin/contracts/access/AccessControl.sol\":3528:3532  role */\n      dup3\n        /* \"@openzeppelin/contracts/access/AccessControl.sol\":3534:3541  account */\n      dup3\n        /* \"@openzeppelin/contracts/access/AccessControl.sol\":3520:3527  hasRole */\n      tag_106\n        /* \"@openzeppelin/contracts/access/AccessControl.sol\":3520:3542  hasRole(role, account) */\n      jump\t// in\n    tag_345:\n        /* \"@openzeppelin/contracts/access/AccessControl.sol\":3515:3623  if (!hasRole(role, account)) {... */\n      tag_346\n      jumpi\n        /* \"@openzeppelin/contracts/access/AccessControl.sol\":3565:3612  AccessControlUnauthorizedAccount(account, role) */\n      mload(0x40)\n      shl(0xe0, 0xe2517d3f)\n      dup2\n      mstore\n      sub(shl(0xa0, 0x01), 0x01)\n        /* \"#utility.yul\":6718:6750   */\n      dup3\n      and\n        /* \"@openzeppelin/contracts/access/AccessControl.sol\":3565:3612  AccessControlUnauthorizedAccount(account, role) */\n      0x04\n      dup3\n      add\n        /* \"#utility.yul\":6700:6751   */\n      mstore\n        /* \"#utility.yul\":6767:6785   */\n      0x24\n      dup2\n      add\n        /* \"#utility.yul\":6760:6794   */\n      dup4\n      swap1\n      mstore\n        /* \"#utility.yul\":6673:6691   */\n      0x44\n      add\n        /* \"@openzeppelin/contracts/access/AccessControl.sol\":3565:3612  AccessControlUnauthorizedAccount(account, role) */\n      tag_154\n        /* \"#utility.yul\":6526:6800   */\n      jump\n        /* \"@openzeppelin/contracts/access/AccessControl.sol\":3515:3623  if (!hasRole(role, account)) {... */\n    tag_346:\n        /* \"@openzeppelin/contracts/access/AccessControl.sol\":3432:3629  function _checkRole(bytes32 role, address account) internal view virtual {... */\n      pop\n      pop\n      jump\t// out\n        /* \"@openzeppelin/contracts/utils/Pausable.sol\":2202:2328  function _requirePaused() internal view virtual {... */\n    tag_303:\n        /* \"@openzeppelin/contracts/utils/Pausable.sol\":1920:1927  _paused */\n      and(0xff, sload(0x01))\n        /* \"@openzeppelin/contracts/utils/Pausable.sol\":2260:2322  if (!paused()) {... */\n      tag_351\n      jumpi\n        /* \"@openzeppelin/contracts/utils/Pausable.sol\":2296:2311  ExpectedPause() */\n      mload(0x40)\n      shl(0xe0, 0x8dfc202b)\n      dup2\n      mstore\n      0x04\n      add\n      mload(0x40)\n      dup1\n      swap2\n      sub\n      swap1\n      revert\n        /* \"@openzeppelin/contracts/utils/Pausable.sol\":2260:2322  if (!paused()) {... */\n    tag_351:\n        /* \"@openzeppelin/contracts/utils/Pausable.sol\":2202:2328  function _requirePaused() internal view virtual {... */\n      jump\t// out\n        /* \"@openzeppelin/contracts/utils/Pausable.sol\":2002:2130  function _requireNotPaused() internal view virtual {... */\n    tag_309:\n        /* \"@openzeppelin/contracts/utils/Pausable.sol\":1920:1927  _paused */\n      and(0xff, sload(0x01))\n        /* \"@openzeppelin/contracts/utils/Pausable.sol\":2063:2124  if (paused()) {... */\n      iszero\n      tag_351\n      jumpi\n        /* \"@openzeppelin/contracts/utils/Pausable.sol\":2098:2113  EnforcedPause() */\n      mload(0x40)\n      shl(0xe0, 0xd93c0665)\n      dup2\n      mstore\n      0x04\n      add\n      mload(0x40)\n      dup1\n      swap2\n      sub\n      swap1\n      revert\n        /* \"#utility.yul\":196:482   */\n    tag_46:\n        /* \"#utility.yul\":254:260   */\n      0x00\n        /* \"#utility.yul\":307:309   */\n      0x20\n        /* \"#utility.yul\":295:304   */\n      dup3\n        /* \"#utility.yul\":286:293   */\n      dup5\n        /* \"#utility.yul\":282:305   */\n      sub\n        /* \"#utility.yul\":278:310   */\n      slt\n        /* \"#utility.yul\":275:327   */\n      iszero\n      tag_363\n      jumpi\n        /* \"#utility.yul\":323:324   */\n      0x00\n        /* \"#utility.yul\":320:321   */\n      dup1\n        /* \"#utility.yul\":313:325   */\n      revert\n        /* \"#utility.yul\":275:327   */\n    tag_363:\n        /* \"#utility.yul\":349:372   */\n      dup2\n      calldataload\n      not(sub(shl(0xe0, 0x01), 0x01))\n        /* \"#utility.yul\":401:433   */\n      dup2\n      and\n        /* \"#utility.yul\":391:434   */\n      dup2\n      eq\n        /* \"#utility.yul\":381:452   */\n      tag_323\n      jumpi\n        /* \"#utility.yul\":448:449   */\n      0x00\n        /* \"#utility.yul\":445:446   */\n      dup1\n        /* \"#utility.yul\":438:450   */\n      revert\n        /* \"#utility.yul\":679:852   */\n    tag_355:\n        /* \"#utility.yul\":747:767   */\n      dup1\n      calldataload\n      sub(shl(0xa0, 0x01), 0x01)\n        /* \"#utility.yul\":796:827   */\n      dup2\n      and\n        /* \"#utility.yul\":786:828   */\n      dup2\n      eq\n        /* \"#utility.yul\":776:846   */\n      tag_367\n      jumpi\n        /* \"#utility.yul\":842:843   */\n      0x00\n        /* \"#utility.yul\":839:840   */\n      dup1\n        /* \"#utility.yul\":832:844   */\n      revert\n        /* \"#utility.yul\":776:846   */\n    tag_367:\n        /* \"#utility.yul\":679:852   */\n      swap2\n      swap1\n      pop\n      jump\t// out\n        /* \"#utility.yul\":857:1277   */\n    tag_52:\n        /* \"#utility.yul\":934:940   */\n      0x00\n        /* \"#utility.yul\":942:948   */\n      dup1\n        /* \"#utility.yul\":950:956   */\n      0x00\n        /* \"#utility.yul\":1003:1005   */\n      0x60\n        /* \"#utility.yul\":991:1000   */\n      dup5\n        /* \"#utility.yul\":982:989   */\n      dup7\n        /* \"#utility.yul\":978:1001   */\n      sub\n        /* \"#utility.yul\":974:1006   */\n      slt\n        /* \"#utility.yul\":971:1023   */\n      iszero\n      tag_369\n      jumpi\n        /* \"#utility.yul\":1019:1020   */\n      0x00\n        /* \"#utility.yul\":1016:1017   */\n      dup1\n        /* \"#utility.yul\":1009:1021   */\n      revert\n        /* \"#utility.yul\":971:1023   */\n    tag_369:\n        /* \"#utility.yul\":1064:1087   */\n      dup4\n      calldataload\n      swap3\n      pop\n        /* \"#utility.yul\":1184:1186   */\n      0x20\n        /* \"#utility.yul\":1169:1187   */\n      dup5\n      add\n        /* \"#utility.yul\":1156:1188   */\n      calldataload\n      swap2\n      pop\n        /* \"#utility.yul\":1233:1271   */\n      tag_370\n        /* \"#utility.yul\":1267:1269   */\n      0x40\n        /* \"#utility.yul\":1252:1270   */\n      dup6\n      add\n        /* \"#utility.yul\":1233:1271   */\n      tag_355\n      jump\t// in\n    tag_370:\n        /* \"#utility.yul\":1223:1271   */\n      swap1\n      pop\n        /* \"#utility.yul\":857:1277   */\n      swap3\n      pop\n      swap3\n      pop\n      swap3\n      jump\t// out\n        /* \"#utility.yul\":1282:1468   */\n    tag_56:\n        /* \"#utility.yul\":1341:1347   */\n      0x00\n        /* \"#utility.yul\":1394:1396   */\n      0x20\n        /* \"#utility.yul\":1382:1391   */\n      dup3\n        /* \"#utility.yul\":1373:1380   */\n      dup5\n        /* \"#utility.yul\":1369:1392   */\n      sub\n        /* \"#utility.yul\":1365:1397   */\n      slt\n        /* \"#utility.yul\":1362:1414   */\n      iszero\n      tag_372\n      jumpi\n        /* \"#utility.yul\":1410:1411   */\n      0x00\n        /* \"#utility.yul\":1407:1408   */\n      dup1\n        /* \"#utility.yul\":1400:1412   */\n      revert\n        /* \"#utility.yul\":1362:1414   */\n    tag_372:\n        /* \"#utility.yul\":1433:1462   */\n      tag_323\n        /* \"#utility.yul\":1452:1461   */\n      dup3\n        /* \"#utility.yul\":1433:1462   */\n      tag_355\n      jump\t// in\n        /* \"#utility.yul\":1473:1699   */\n    tag_60:\n        /* \"#utility.yul\":1532:1538   */\n      0x00\n        /* \"#utility.yul\":1585:1587   */\n      0x20\n        /* \"#utility.yul\":1573:1582   */\n      dup3\n        /* \"#utility.yul\":1564:1571   */\n      dup5\n        /* \"#utility.yul\":1560:1583   */\n      sub\n        /* \"#utility.yul\":1556:1588   */\n      slt\n        /* \"#utility.yul\":1553:1605   */\n      iszero\n      tag_375\n      jumpi\n        /* \"#utility.yul\":1601:1602   */\n      0x00\n        /* \"#utility.yul\":1598:1599   */\n      dup1\n        /* \"#utility.yul\":1591:1603   */\n      revert\n        /* \"#utility.yul\":1553:1605   */\n    tag_375:\n      pop\n        /* \"#utility.yul\":1646:1669   */\n      calldataload\n      swap2\n        /* \"#utility.yul\":1473:1699   */\n      swap1\n      pop\n      jump\t// out\n        /* \"#utility.yul\":1704:2245   */\n    tag_65:\n        /* \"#utility.yul\":1790:1796   */\n      0x00\n        /* \"#utility.yul\":1798:1804   */\n      dup1\n        /* \"#utility.yul\":1806:1812   */\n      0x00\n        /* \"#utility.yul\":1814:1820   */\n      dup1\n        /* \"#utility.yul\":1867:1870   */\n      0x80\n        /* \"#utility.yul\":1855:1864   */\n      dup6\n        /* \"#utility.yul\":1846:1853   */\n      dup8\n        /* \"#utility.yul\":1842:1865   */\n      sub\n        /* \"#utility.yul\":1838:1871   */\n      slt\n        /* \"#utility.yul\":1835:1888   */\n      iszero\n      tag_377\n      jumpi\n        /* \"#utility.yul\":1884:1885   */\n      0x00\n        /* \"#utility.yul\":1881:1882   */\n      dup1\n        /* \"#utility.yul\":1874:1886   */\n      revert\n        /* \"#utility.yul\":1835:1888   */\n    tag_377:\n        /* \"#utility.yul\":1929:1952   */\n      dup5\n      calldataload\n      swap4\n      pop\n        /* \"#utility.yul\":2049:2051   */\n      0x20\n        /* \"#utility.yul\":2034:2052   */\n      dup6\n      add\n        /* \"#utility.yul\":2021:2053   */\n      calldataload\n      swap3\n      pop\n        /* \"#utility.yul\":2152:2154   */\n      0x40\n        /* \"#utility.yul\":2137:2155   */\n      dup6\n      add\n        /* \"#utility.yul\":2124:2156   */\n      calldataload\n      swap2\n      pop\n        /* \"#utility.yul\":2201:2239   */\n      tag_378\n        /* \"#utility.yul\":2235:2237   */\n      0x60\n        /* \"#utility.yul\":2220:2238   */\n      dup7\n      add\n        /* \"#utility.yul\":2201:2239   */\n      tag_355\n      jump\t// in\n    tag_378:\n        /* \"#utility.yul\":2191:2239   */\n      swap1\n      pop\n        /* \"#utility.yul\":1704:2245   */\n      swap3\n      swap6\n      swap2\n      swap5\n      pop\n      swap3\n      pop\n      jump\t// out\n        /* \"#utility.yul\":2663:2963   */\n    tag_75:\n        /* \"#utility.yul\":2731:2737   */\n      0x00\n        /* \"#utility.yul\":2739:2745   */\n      dup1\n        /* \"#utility.yul\":2792:2794   */\n      0x40\n        /* \"#utility.yul\":2780:2789   */\n      dup4\n        /* \"#utility.yul\":2771:2778   */\n      dup6\n        /* \"#utility.yul\":2767:2790   */\n      sub\n        /* \"#utility.yul\":2763:2795   */\n      slt\n        /* \"#utility.yul\":2760:2812   */\n      iszero\n      tag_383\n      jumpi\n        /* \"#utility.yul\":2808:2809   */\n      0x00\n        /* \"#utility.yul\":2805:2806   */\n      dup1\n        /* \"#utility.yul\":2798:2810   */\n      revert\n        /* \"#utility.yul\":2760:2812   */\n    tag_383:\n        /* \"#utility.yul\":2853:2876   */\n      dup3\n      calldataload\n      swap2\n      pop\n        /* \"#utility.yul\":2919:2957   */\n      tag_384\n        /* \"#utility.yul\":2953:2955   */\n      0x20\n        /* \"#utility.yul\":2938:2956   */\n      dup5\n      add\n        /* \"#utility.yul\":2919:2957   */\n      tag_355\n      jump\t// in\n    tag_384:\n        /* \"#utility.yul\":2909:2957   */\n      swap1\n      pop\n        /* \"#utility.yul\":2663:2963   */\n      swap3\n      pop\n      swap3\n      swap1\n      pop\n      jump\t// out\n        /* \"#utility.yul\":3176:3476   */\n    tag_117:\n        /* \"#utility.yul\":3244:3250   */\n      0x00\n        /* \"#utility.yul\":3252:3258   */\n      dup1\n        /* \"#utility.yul\":3305:3307   */\n      0x40\n        /* \"#utility.yul\":3293:3302   */\n      dup4\n        /* \"#utility.yul\":3284:3291   */\n      dup6\n        /* \"#utility.yul\":3280:3303   */\n      sub\n        /* \"#utility.yul\":3276:3308   */\n      slt\n        /* \"#utility.yul\":3273:3325   */\n      iszero\n      tag_387\n      jumpi\n        /* \"#utility.yul\":3321:3322   */\n      0x00\n        /* \"#utility.yul\":3318:3319   */\n      dup1\n        /* \"#utility.yul\":3311:3323   */\n      revert\n        /* \"#utility.yul\":3273:3325   */\n    tag_387:\n        /* \"#utility.yul\":3344:3373   */\n      tag_388\n        /* \"#utility.yul\":3363:3372   */\n      dup4\n        /* \"#utility.yul\":3344:3373   */\n      tag_355\n      jump\t// in\n    tag_388:\n        /* \"#utility.yul\":3334:3373   */\n      swap5\n        /* \"#utility.yul\":3442:3444   */\n      0x20\n        /* \"#utility.yul\":3427:3445   */\n      swap4\n      swap1\n      swap4\n      add\n        /* \"#utility.yul\":3414:3446   */\n      calldataload\n      swap4\n      pop\n      pop\n      pop\n        /* \"#utility.yul\":3176:3476   */\n      jump\t// out\n        /* \"#utility.yul\":5111:5238   */\n    tag_356:\n        /* \"#utility.yul\":5172:5182   */\n      0x4e487b71\n        /* \"#utility.yul\":5167:5170   */\n      0xe0\n        /* \"#utility.yul\":5163:5183   */\n      shl\n        /* \"#utility.yul\":5160:5161   */\n      0x00\n        /* \"#utility.yul\":5153:5184   */\n      mstore\n        /* \"#utility.yul\":5203:5207   */\n      0x11\n        /* \"#utility.yul\":5200:5201   */\n      0x04\n        /* \"#utility.yul\":5193:5208   */\n      mstore\n        /* \"#utility.yul\":5227:5231   */\n      0x24\n        /* \"#utility.yul\":5224:5225   */\n      0x00\n        /* \"#utility.yul\":5217:5232   */\n      revert\n        /* \"#utility.yul\":5243:5378   */\n    tag_163:\n        /* \"#utility.yul\":5282:5285   */\n      0x00\n        /* \"#utility.yul\":5303:5320   */\n      0x01\n      dup3\n      add\n        /* \"#utility.yul\":5300:5343   */\n      tag_397\n      jumpi\n        /* \"#utility.yul\":5323:5341   */\n      tag_397\n      tag_356\n      jump\t// in\n    tag_397:\n      pop\n        /* \"#utility.yul\":5370:5371   */\n      0x01\n        /* \"#utility.yul\":5359:5372   */\n      add\n      swap1\n        /* \"#utility.yul\":5243:5378   */\n      jump\t// out\n        /* \"#utility.yul\":5735:5863   */\n    tag_168:\n        /* \"#utility.yul\":5802:5811   */\n      dup2\n      dup2\n      sub\n        /* \"#utility.yul\":5823:5834   */\n      dup2\n      dup2\n      gt\n        /* \"#utility.yul\":5820:5857   */\n      iszero\n      tag_150\n      jumpi\n        /* \"#utility.yul\":5837:5855   */\n      tag_150\n      tag_356\n      jump\t// in\n        /* \"#utility.yul\":6244:6521   */\n    tag_174:\n        /* \"#utility.yul\":6311:6317   */\n      0x00\n        /* \"#utility.yul\":6364:6366   */\n      0x20\n        /* \"#utility.yul\":6352:6361   */\n      dup3\n        /* \"#utility.yul\":6343:6350   */\n      dup5\n        /* \"#utility.yul\":6339:6362   */\n      sub\n        /* \"#utility.yul\":6335:6367   */\n      slt\n        /* \"#utility.yul\":6332:6384   */\n      iszero\n      tag_404\n      jumpi\n        /* \"#utility.yul\":6380:6381   */\n      0x00\n        /* \"#utility.yul\":6377:6378   */\n      dup1\n        /* \"#utility.yul\":6370:6382   */\n      revert\n        /* \"#utility.yul\":6332:6384   */\n    tag_404:\n        /* \"#utility.yul\":6412:6421   */\n      dup2\n        /* \"#utility.yul\":6406:6422   */\n      mload\n        /* \"#utility.yul\":6465:6470   */\n      dup1\n        /* \"#utility.yul\":6458:6471   */\n      iszero\n        /* \"#utility.yul\":6451:6472   */\n      iszero\n        /* \"#utility.yul\":6444:6449   */\n      dup2\n        /* \"#utility.yul\":6441:6473   */\n      eq\n        /* \"#utility.yul\":6431:6491   */\n      tag_323\n      jumpi\n        /* \"#utility.yul\":6487:6488   */\n      0x00\n        /* \"#utility.yul\":6484:6485   */\n      dup1\n        /* \"#utility.yul\":6477:6489   */\n      revert\n        /* \"#utility.yul\":8356:8629   */\n    tag_237:\n        /* \"#utility.yul\":8424:8430   */\n      0x00\n        /* \"#utility.yul\":8477:8479   */\n      0x20\n        /* \"#utility.yul\":8465:8474   */\n      dup3\n        /* \"#utility.yul\":8456:8463   */\n      dup5\n        /* \"#utility.yul\":8452:8475   */\n      sub\n        /* \"#utility.yul\":8448:8480   */\n      slt\n        /* \"#utility.yul\":8445:8497   */\n      iszero\n      tag_412\n      jumpi\n        /* \"#utility.yul\":8493:8494   */\n      0x00\n        /* \"#utility.yul\":8490:8491   */\n      dup1\n        /* \"#utility.yul\":8483:8495   */\n      revert\n        /* \"#utility.yul\":8445:8497   */\n    tag_412:\n        /* \"#utility.yul\":8525:8534   */\n      dup2\n        /* \"#utility.yul\":8519:8535   */\n      mload\n        /* \"#utility.yul\":8575:8579   */\n      0xff\n        /* \"#utility.yul\":8568:8573   */\n      dup2\n        /* \"#utility.yul\":8564:8580   */\n      and\n        /* \"#utility.yul\":8557:8562   */\n      dup2\n        /* \"#utility.yul\":8554:8581   */\n      eq\n        /* \"#utility.yul\":8544:8599   */\n      tag_323\n      jumpi\n        /* \"#utility.yul\":8595:8596   */\n      0x00\n        /* \"#utility.yul\":8592:8593   */\n      dup1\n        /* \"#utility.yul\":8585:8597   */\n      revert\n        /* \"#utility.yul\":9242:9393   */\n    tag_318:\n        /* \"#utility.yul\":9332:9336   */\n      0xff\n        /* \"#utility.yul\":9325:9337   */\n      dup3\n      dup2\n      and\n        /* \"#utility.yul\":9311:9323   */\n      dup3\n      dup3\n      and\n        /* \"#utility.yul\":9307:9338   */\n      sub\n      swap1\n        /* \"#utility.yul\":9350:9364   */\n      dup2\n      gt\n        /* \"#utility.yul\":9347:9387   */\n      iszero\n      tag_150\n      jumpi\n        /* \"#utility.yul\":9367:9385   */\n      tag_150\n      tag_356\n      jump\t// in\n        /* \"#utility.yul\":9398:9773   */\n    tag_357:\n        /* \"#utility.yul\":9486:9487   */\n      0x01\n        /* \"#utility.yul\":9504:9509   */\n      dup2\n        /* \"#utility.yul\":9518:9767   */\n    tag_420:\n        /* \"#utility.yul\":9539:9540   */\n      0x01\n        /* \"#utility.yul\":9529:9537   */\n      dup5\n        /* \"#utility.yul\":9526:9541   */\n      gt\n        /* \"#utility.yul\":9518:9767   */\n      iszero\n      tag_422\n      jumpi\n        /* \"#utility.yul\":9589:9593   */\n      dup1\n        /* \"#utility.yul\":9584:9587   */\n      dup6\n        /* \"#utility.yul\":9580:9594   */\n      div\n        /* \"#utility.yul\":9574:9578   */\n      dup2\n        /* \"#utility.yul\":9571:9595   */\n      gt\n        /* \"#utility.yul\":9568:9618   */\n      iszero\n      tag_424\n      jumpi\n        /* \"#utility.yul\":9598:9616   */\n      tag_424\n      tag_356\n      jump\t// in\n    tag_424:\n        /* \"#utility.yul\":9648:9649   */\n      0x01\n        /* \"#utility.yul\":9638:9646   */\n      dup5\n        /* \"#utility.yul\":9634:9650   */\n      and\n        /* \"#utility.yul\":9631:9680   */\n      iszero\n      tag_425\n      jumpi\n        /* \"#utility.yul\":9662:9678   */\n      swap1\n      dup2\n      mul\n      swap1\n        /* \"#utility.yul\":9631:9680   */\n    tag_425:\n        /* \"#utility.yul\":9745:9746   */\n      0x01\n        /* \"#utility.yul\":9741:9757   */\n      swap4\n      swap1\n      swap4\n      shr\n      swap3\n        /* \"#utility.yul\":9701:9716   */\n      dup1\n      mul\n        /* \"#utility.yul\":9518:9767   */\n      jump(tag_420)\n    tag_422:\n        /* \"#utility.yul\":9398:9773   */\n      swap4\n      pop\n      swap4\n      swap2\n      pop\n      pop\n      jump\t// out\n        /* \"#utility.yul\":9778:10680   */\n    tag_358:\n        /* \"#utility.yul\":9827:9832   */\n      0x00\n        /* \"#utility.yul\":9857:9865   */\n      dup3\n        /* \"#utility.yul\":9847:9927   */\n      tag_427\n      jumpi\n      pop\n        /* \"#utility.yul\":9898:9899   */\n      0x01\n        /* \"#utility.yul\":9912:9917   */\n      jump(tag_150)\n        /* \"#utility.yul\":9847:9927   */\n    tag_427:\n        /* \"#utility.yul\":9946:9950   */\n      dup2\n        /* \"#utility.yul\":9936:10012   */\n      tag_428\n      jumpi\n      pop\n        /* \"#utility.yul\":9983:9984   */\n      0x00\n        /* \"#utility.yul\":9997:10002   */\n      jump(tag_150)\n        /* \"#utility.yul\":9936:10012   */\n    tag_428:\n        /* \"#utility.yul\":10028:10032   */\n      dup2\n        /* \"#utility.yul\":10046:10047   */\n      0x01\n        /* \"#utility.yul\":10041:10100   */\n      dup2\n      eq\n      tag_430\n      jumpi\n        /* \"#utility.yul\":10114:10115   */\n      0x02\n        /* \"#utility.yul\":10109:10283   */\n      dup2\n      eq\n      tag_431\n      jumpi\n        /* \"#utility.yul\":10021:10283   */\n      jump(tag_429)\n        /* \"#utility.yul\":10041:10100   */\n    tag_430:\n        /* \"#utility.yul\":10071:10072   */\n      0x01\n        /* \"#utility.yul\":10062:10072   */\n      swap2\n      pop\n        /* \"#utility.yul\":10085:10090   */\n      pop\n      jump(tag_150)\n        /* \"#utility.yul\":10109:10283   */\n    tag_431:\n        /* \"#utility.yul\":10146:10149   */\n      0xff\n        /* \"#utility.yul\":10136:10144   */\n      dup5\n        /* \"#utility.yul\":10133:10150   */\n      gt\n        /* \"#utility.yul\":10130:10173   */\n      iszero\n      tag_433\n      jumpi\n        /* \"#utility.yul\":10153:10171   */\n      tag_433\n      tag_356\n      jump\t// in\n    tag_433:\n      pop\n      pop\n        /* \"#utility.yul\":10209:10210   */\n      0x01\n        /* \"#utility.yul\":10195:10211   */\n      dup3\n      shl\n        /* \"#utility.yul\":10268:10273   */\n      jump(tag_150)\n        /* \"#utility.yul\":10021:10283   */\n    tag_429:\n      pop\n        /* \"#utility.yul\":10367:10369   */\n      0x20\n        /* \"#utility.yul\":10357:10365   */\n      dup4\n        /* \"#utility.yul\":10354:10370   */\n      lt\n        /* \"#utility.yul\":10348:10351   */\n      0x0133\n        /* \"#utility.yul\":10342:10346   */\n      dup4\n        /* \"#utility.yul\":10339:10352   */\n      lt\n        /* \"#utility.yul\":10335:10371   */\n      and\n        /* \"#utility.yul\":10329:10331   */\n      0x4e\n        /* \"#utility.yul\":10319:10327   */\n      dup5\n        /* \"#utility.yul\":10316:10332   */\n      lt\n        /* \"#utility.yul\":10311:10313   */\n      0x0b\n        /* \"#utility.yul\":10305:10309   */\n      dup5\n        /* \"#utility.yul\":10302:10314   */\n      lt\n        /* \"#utility.yul\":10298:10333   */\n      and\n        /* \"#utility.yul\":10295:10372   */\n      or\n        /* \"#utility.yul\":10292:10495   */\n      iszero\n      tag_434\n      jumpi\n      pop\n        /* \"#utility.yul\":10404:10423   */\n      dup2\n      dup2\n      exp\n        /* \"#utility.yul\":10480:10485   */\n      jump(tag_150)\n        /* \"#utility.yul\":10292:10495   */\n    tag_434:\n        /* \"#utility.yul\":10527:10569   */\n      tag_435\n      not(0x00)\n        /* \"#utility.yul\":10552:10560   */\n      dup5\n        /* \"#utility.yul\":10546:10550   */\n      dup5\n        /* \"#utility.yul\":10527:10569   */\n      tag_357\n      jump\t// in\n    tag_435:\n        /* \"#utility.yul\":10605:10611   */\n      dup1\n        /* \"#utility.yul\":10601:10602   */\n      0x00\n        /* \"#utility.yul\":10597:10603   */\n      not\n        /* \"#utility.yul\":10593:10612   */\n      div\n        /* \"#utility.yul\":10584:10591   */\n      dup3\n        /* \"#utility.yul\":10581:10613   */\n      gt\n        /* \"#utility.yul\":10578:10636   */\n      iszero\n      tag_437\n      jumpi\n        /* \"#utility.yul\":10616:10634   */\n      tag_437\n      tag_356\n      jump\t// in\n    tag_437:\n        /* \"#utility.yul\":10654:10674   */\n      mul\n      swap4\n        /* \"#utility.yul\":9778:10680   */\n      swap3\n      pop\n      pop\n      pop\n      jump\t// out\n        /* \"#utility.yul\":10685:10825   */\n    tag_320:\n        /* \"#utility.yul\":10743:10748   */\n      0x00\n        /* \"#utility.yul\":10772:10819   */\n      tag_323\n        /* \"#utility.yul\":10813:10817   */\n      0xff\n        /* \"#utility.yul\":10803:10811   */\n      dup5\n        /* \"#utility.yul\":10799:10818   */\n      and\n        /* \"#utility.yul\":10793:10797   */\n      dup4\n        /* \"#utility.yul\":10772:10819   */\n      tag_358\n      jump\t// in\n        /* \"#utility.yul\":10830:10998   */\n    tag_322:\n        /* \"#utility.yul\":10903:10912   */\n      dup1\n      dup3\n      mul\n        /* \"#utility.yul\":10934:10943   */\n      dup2\n      iszero\n        /* \"#utility.yul\":10951:10966   */\n      dup3\n      dup3\n      div\n        /* \"#utility.yul\":10945:10967   */\n      dup5\n      eq\n        /* \"#utility.yul\":10931:10968   */\n      or\n        /* \"#utility.yul\":10921:10992   */\n      tag_150\n      jumpi\n        /* \"#utility.yul\":10972:10990   */\n      tag_150\n      tag_356\n      jump\t// in\n        /* \"#utility.yul\":11003:11130   */\n    tag_359:\n        /* \"#utility.yul\":11064:11074   */\n      0x4e487b71\n        /* \"#utility.yul\":11059:11062   */\n      0xe0\n        /* \"#utility.yul\":11055:11075   */\n      shl\n        /* \"#utility.yul\":11052:11053   */\n      0x00\n        /* \"#utility.yul\":11045:11076   */\n      mstore\n        /* \"#utility.yul\":11095:11099   */\n      0x12\n        /* \"#utility.yul\":11092:11093   */\n      0x04\n        /* \"#utility.yul\":11085:11100   */\n      mstore\n        /* \"#utility.yul\":11119:11123   */\n      0x24\n        /* \"#utility.yul\":11116:11117   */\n      0x00\n        /* \"#utility.yul\":11109:11124   */\n      revert\n        /* \"#utility.yul\":11135:11255   */\n    tag_327:\n        /* \"#utility.yul\":11175:11176   */\n      0x00\n        /* \"#utility.yul\":11201:11202   */\n      dup3\n        /* \"#utility.yul\":11191:11226   */\n      tag_446\n      jumpi\n        /* \"#utility.yul\":11206:11224   */\n      tag_446\n      tag_359\n      jump\t// in\n    tag_446:\n      pop\n        /* \"#utility.yul\":11240:11249   */\n      div\n      swap1\n        /* \"#utility.yul\":11135:11255   */\n      jump\t// out\n        /* \"#utility.yul\":11260:11372   */\n    tag_340:\n        /* \"#utility.yul\":11292:11293   */\n      0x00\n        /* \"#utility.yul\":11318:11319   */\n      dup3\n        /* \"#utility.yul\":11308:11343   */\n      tag_449\n      jumpi\n        /* \"#utility.yul\":11323:11341   */\n      tag_449\n      tag_359\n      jump\t// in\n    tag_449:\n      pop\n        /* \"#utility.yul\":11357:11366   */\n      mod\n      swap1\n        /* \"#utility.yul\":11260:11372   */\n      jump\t// out\n        /* \"#utility.yul\":11377:11502   */\n    tag_343:\n        /* \"#utility.yul\":11442:11451   */\n      dup1\n      dup3\n      add\n        /* \"#utility.yul\":11463:11473   */\n      dup1\n      dup3\n      gt\n        /* \"#utility.yul\":11460:11496   */\n      iszero\n      tag_150\n      jumpi\n        /* \"#utility.yul\":11476:11494   */\n      tag_150\n      tag_356\n      jump\t// in\n    stop\n    data_cb864c43dd5d441bb6271f424f11befa622c032dfd374d226e26fbbdb782b8f8 a49807205ce4d355092ef5a8a18f56e8913cf4a201fbe287825b095693c21775\n\n    auxdata: 0xa2646970667358221220dc48af6984076926f7567d87875765c8f5b6d6f8080d4c3ed3f97c9b3a8c067e64736f6c634300081a0033\n}\n",
				"bytecode": {
					"linkReferences": {},
					"object": "60806040526207a120600455348015610016575f80fd5b5060405161195638038061195683398101604081905261003591610204565b60018054600280546001600160a01b03808a166001600160a01b0319909216919091179091558416610100026001600160a81b031990911617905561007a5f33610140565b506100a57fa49807205ce4d355092ef5a8a18f56e8913cf4a201fbe287825b095693c2177533610140565b506100d07f41de7ae3becaf069074d499ebcbd36df88385ba1e2946870f7e4674aecd4370484610140565b506100fb7f65d7a28e3265b37a6474929f336521b332c1681b933f6cb9f3376673440d862a84610140565b506001600160a01b039384165f908152600660205260409020805460ff1916600117905560058054919094166001600160a01b03199091161790925550610265915050565b5f828152602081815260408083206001600160a01b038516845290915281205460ff166101e0575f838152602081815260408083206001600160a01b03861684529091529020805460ff191660011790556101983390565b6001600160a01b0316826001600160a01b0316847f2f8788117e7eff1d82e926ec794901d17c78024a50270940304540a733656f0d60405160405180910390a45060016101e3565b505f5b92915050565b80516001600160a01b03811681146101ff575f80fd5b919050565b5f805f805f60a08688031215610218575f80fd5b610221866101e9565b945061022f602087016101e9565b935061023d604087016101e9565b925061024b606087016101e9565b9150610259608087016101e9565b90509295509295909350565b6116e4806102725f395ff3fe608060405234801561000f575f80fd5b50600436106101d0575f3560e01c806375b238fc116100fe578063b190d8a31161009e578063d270e7ab1161006e578063d270e7ab14610411578063d547741f14610429578063e63ab1e91461043c578063e74b981b14610463575f80fd5b8063b190d8a3146103c6578063c5494ffb146103d8578063c6400657146103eb578063d19fad37146103fe575f80fd5b80639ea4f3a4116100d95780639ea4f3a414610377578063a217fddf14610399578063a2519ae4146103a0578063a62e1b3e146103b3575f80fd5b806375b238fc146103485780638456cb591461035c57806391d1485414610364575f80fd5b80632f2ff15d116101745780633f4ba83a116101445780633f4ba83a1461030157806346904840146103095780635badbe4c146103345780635c975abb1461033d575f80fd5b80632f2ff15d146102925780632f92893c146102a557806336568abe146102c757806337174202146102da575f80fd5b80631008776f116101af5780631008776f146102285780631e7502d71461023b5780631f2245641461025d578063248a9ca314610270575f80fd5b8062677016146101d457806301ffc9a7146101f05780630bd31a5714610213575b5f80fd5b6101dd60045481565b6040519081526020015b60405180910390f35b6102036101fe366004611370565b610476565b60405190151581526020016101e7565b6102266102213660046113b2565b6104ac565b005b6102266102363660046113e4565b6107b0565b6102036102493660046113fd565b5f9081526007602052604090205460ff1690565b61022661026b366004611414565b610810565b6101dd61027e3660046113fd565b5f9081526020819052604090206001015490565b6102266102a0366004611450565b610a73565b6102036102b33660046113fd565b60076020525f908152604090205460ff1681565b6102266102d5366004611450565b610a9d565b6101dd7f41de7ae3becaf069074d499ebcbd36df88385ba1e2946870f7e4674aecd4370481565b610226610ad5565b60055461031c906001600160a01b031681565b6040516001600160a01b0390911681526020016101e7565b6101dd60035481565b60015460ff16610203565b6101dd5f8051602061168f83398151915281565b610226610b0a565b610203610372366004611450565b610b3c565b6102036103853660046113e4565b60066020525f908152604090205460ff1681565b6101dd5f81565b6102266103ae36600461147a565b610b64565b60025461031c906001600160a01b031681565b6003544260401b4660801b17176101dd565b6102266103e63660046113fd565b610db0565b6102266103f93660046113e4565b610dcd565b61022661040c36600461147a565b610e30565b60015461031c9061010090046001600160a01b031681565b610226610437366004611450565b611015565b6101dd7f65d7a28e3265b37a6474929f336521b332c1681b933f6cb9f3376673440d862a81565b6102266104713660046113e4565b611039565b5f6001600160e01b03198216637965db0b60e01b14806104a657506301ffc9a760e01b6001600160e01b03198316145b92915050565b4683036105195760405162461bcd60e51b815260206004820152603060248201527f54617267657420636861696e206d75737420626520646966666572656e74206660448201526f3937b69039b7bab931b29031b430b4b760811b60648201526084015b60405180910390fd5b60045482116105755760405162461bcd60e51b815260206004820152602260248201527f416d6f756e74206d7573742062652067726561746572207468616e2067617366604482015261656560f01b6064820152608401610510565b6001600160a01b0381166105cb5760405162461bcd60e51b815260206004820152601b60248201527f496e76616c6964207461726765742075736572206164647265737300000000006044820152606401610510565b5f4690505f60035f81546105de906114b6565b918290555042604090811b608085901b179091175f8181526007602052919091205490915060ff161561064d5760405162461bcd60e51b815260206004820152601760248201527614995c5d595cdd08125108185b1c9958591e481d5cd959604a1b6044820152606401610510565b5f818152600760205260408120805460ff1916600117905560045461067290866114ce565b600254600554600480546040516323b872dd60e01b815233928101929092526001600160a01b039283166024830152604482015292935016906323b872dd906064016020604051808303815f875af11580156106d0573d5f803e3d5ffd5b505050506040513d601f19601f820116820180604052508101906106f491906114e1565b5060025460405163079cc67960e41b8152336004820152602481018390526001600160a01b03909116906379cc6790906044015f604051808303815f87803b15801561073e575f80fd5b505af1158015610750573d5f803e3d5ffd5b505060408051868152602081018a90529081018490526001600160a01b03871660608201523392508491507f26c32cc5ff12981b55681844f2fb47d52c5e521c58d5288b1325f3304a7e88529060800160405180910390a3505050505050565b5f8051602061168f8339815191526107c781611073565b6001600160a01b0382165f81815260066020526040808220805460ff19169055517f0fa63555fe68cad70e08233633567493a3c74afdc8c7fb9f0c03a8e74f1a137a9190a25050565b7f41de7ae3becaf069074d499ebcbd36df88385ba1e2946870f7e4674aecd4370461083a81611073565b5f8581526007602052604090205460ff16156108925760405162461bcd60e51b815260206004820152601760248201527614995c5d595cdd08125108185b1c9958591e481d5cd959604a1b6044820152606401610510565b4684036108fa5760405162461bcd60e51b815260206004820152603060248201527f536f7572636520636861696e206d75737420626520646966666572656e74206660448201526f3937b6903a30b933b2ba1031b430b4b760811b6064820152608401610510565b5f83116109495760405162461bcd60e51b815260206004820152601d60248201527f416d6f756e74206d7573742062652067726561746572207468616e20300000006044820152606401610510565b6001600160a01b03821661099f5760405162461bcd60e51b815260206004820152601b60248201527f496e76616c6964207461726765742075736572206164647265737300000000006044820152606401610510565b5f8581526007602052604090819020805460ff1916600117905560025490516340c10f1960e01b81526001600160a01b03848116600483015260248201869052909116906340c10f19906044015f604051808303815f87803b158015610a03575f80fd5b505af1158015610a15573d5f803e3d5ffd5b5050604080518781524660208201529081018690526001600160a01b03851660608201523392508791507f7690d9cedf96f067bda7114c24bba31be184ae045d199979a0a373862e70d46b9060800160405180910390a35050505050565b5f82815260208190526040902060010154610a8d81611073565b610a97838361107d565b50505050565b6001600160a01b0381163314610ac65760405163334bd91960e11b815260040160405180910390fd5b610ad0828261110c565b505050565b7f65d7a28e3265b37a6474929f336521b332c1681b933f6cb9f3376673440d862a610aff81611073565b610b07611175565b50565b7f65d7a28e3265b37a6474929f336521b332c1681b933f6cb9f3376673440d862a610b3481611073565b610b076111c7565b5f918252602082815260408084206001600160a01b0393909316845291905290205460ff1690565b6001600160a01b0382165f9081526006602052604090205460ff16610bc75760405162461bcd60e51b815260206004820152601960248201527814dd18589b1958dbda5b881b9bdd081c9959da5cdd195c9959603a1b6044820152606401610510565b5f826001600160a01b031663313ce5676040518163ffffffff1660e01b8152600401602060405180830381865afa158015610c04573d5f803e3d5ffd5b505050506040513d601f19601f82011682018060405250810190610c289190611500565b90505f610c3783836006611202565b6001546040516323b872dd60e01b81523360048201526001600160a01b0361010090920482166024820152604481018690529192508516906323b872dd906064016020604051808303815f875af1158015610c94573d5f803e3d5ffd5b505050506040513d601f19601f82011682018060405250810190610cb891906114e1565b610d045760405162461bcd60e51b815260206004820152601a60248201527f537461626c65636f696e207472616e73666572206661696c65640000000000006044820152606401610510565b6002546040516340c10f1960e01b8152336004820152602481018390526001600160a01b03909116906340c10f19906044015f604051808303815f87803b158015610d4d575f80fd5b505af1158015610d5f573d5f803e3d5ffd5b505060408051868152602081018590526001600160a01b03881693503392507f66c62f0863782653c5c44e10bf21d9def60984ce20d9f75549575a891089658791015b60405180910390a350505050565b5f8051602061168f833981519152610dc781611073565b50600455565b5f8051602061168f833981519152610de481611073565b6001600160a01b0382165f81815260066020526040808220805460ff19166001179055517fd8b2dc62b787ec8afbc8a664cf2fd7c1e7851721acc9e0069132cece3c529c2e9190a25050565b6001600160a01b0382165f9081526006602052604090205460ff16610e935760405162461bcd60e51b815260206004820152601960248201527814dd18589b1958dbda5b881b9bdd081c9959da5cdd195c9959603a1b6044820152606401610510565b5f826001600160a01b031663313ce5676040518163ffffffff1660e01b8152600401602060405180830381865afa158015610ed0573d5f803e3d5ffd5b505050506040513d601f19601f82011682018060405250810190610ef49190611500565b90505f610f0383600684611274565b600154604051631795588d60e21b81526001600160a01b0387811660048301523360248301526044820184905292935061010090910490911690635e556234906064015f604051808303815f87803b158015610f5d575f80fd5b505af1158015610f6f573d5f803e3d5ffd5b505060025460405163079cc67960e41b8152336004820152602481018790526001600160a01b0390911692506379cc679091506044015f604051808303815f87803b158015610fbc575f80fd5b505af1158015610fce573d5f803e3d5ffd5b505060408051868152602081018590526001600160a01b03881693503392507f3d9842cbdfa603ab9534d6e362bf28b3061318f57fed5e7087dfc956a9d744429101610da2565b5f8281526020819052604090206001015461102f81611073565b610a97838361110c565b5f8051602061168f83398151915261105081611073565b50600580546001600160a01b0319166001600160a01b0392909216919091179055565b610b0781336112ea565b5f6110888383610b3c565b611105575f838152602081815260408083206001600160a01b03861684529091529020805460ff191660011790556110bd3390565b6001600160a01b0316826001600160a01b0316847f2f8788117e7eff1d82e926ec794901d17c78024a50270940304540a733656f0d60405160405180910390a45060016104a6565b505f6104a6565b5f6111178383610b3c565b15611105575f838152602081815260408083206001600160a01b0386168085529252808320805460ff1916905551339286917ff6391f5c32d9c69d2a47ea670b442974b53935d1edc7fd64eb21e047a839171b9190a45060016104a6565b61117d611327565b6001805460ff191690557f5db9ee0a495bf2e6ff9c91a7834c1ba4fdd244a5e8aa4e537bd38aeae4b073aa335b6040516001600160a01b03909116815260200160405180910390a1565b6111cf61134c565b6001805460ff1916811790557f62e78cea01bee320cd4e420270b5ea74000d11b0c9f74754ebdbfc544b05a258336111aa565b5f8160ff168360ff160361121757508261126d565b8160ff168360ff16101561124b5761122f8383611520565b61123a90600a61161c565b611244908561162a565b905061126d565b6112558284611520565b61126090600a61161c565b61126a9085611655565b90505b9392505050565b5f8160ff168360ff160361128957508261126d565b8160ff168360ff1610156112a15761122f8383611520565b5f6112ac8385611520565b6112b790600a61161c565b90506112c38186611655565b91506112cf8186611668565b156112e2576112df60018361167b565b91505b509392505050565b6112f48282610b3c565b6113235760405163e2517d3f60e01b81526001600160a01b038216600482015260248101839052604401610510565b5050565b60015460ff1661134a57604051638dfc202b60e01b815260040160405180910390fd5b565b60015460ff161561134a5760405163d93c066560e01b815260040160405180910390fd5b5f60208284031215611380575f80fd5b81356001600160e01b03198116811461126d575f80fd5b80356001600160a01b03811681146113ad575f80fd5b919050565b5f805f606084860312156113c4575f80fd5b83359250602084013591506113db60408501611397565b90509250925092565b5f602082840312156113f4575f80fd5b61126d82611397565b5f6020828403121561140d575f80fd5b5035919050565b5f805f8060808587031215611427575f80fd5b84359350602085013592506040850135915061144560608601611397565b905092959194509250565b5f8060408385031215611461575f80fd5b8235915061147160208401611397565b90509250929050565b5f806040838503121561148b575f80fd5b61149483611397565b946020939093013593505050565b634e487b7160e01b5f52601160045260245ffd5b5f600182016114c7576114c76114a2565b5060010190565b818103818111156104a6576104a66114a2565b5f602082840312156114f1575f80fd5b8151801515811461126d575f80fd5b5f60208284031215611510575f80fd5b815160ff8116811461126d575f80fd5b60ff82811682821603908111156104a6576104a66114a2565b6001815b600184111561157457808504811115611558576115586114a2565b600184161561156657908102905b60019390931c92800261153d565b935093915050565b5f8261158a575060016104a6565b8161159657505f6104a6565b81600181146115ac57600281146115b6576115d2565b60019150506104a6565b60ff8411156115c7576115c76114a2565b50506001821b6104a6565b5060208310610133831016604e8410600b84101617156115f5575081810a6104a6565b6116015f198484611539565b805f1904821115611614576116146114a2565b029392505050565b5f61126d60ff84168361157c565b80820281158282048414176104a6576104a66114a2565b634e487b7160e01b5f52601260045260245ffd5b5f8261166357611663611641565b500490565b5f8261167657611676611641565b500690565b808201808211156104a6576104a66114a256fea49807205ce4d355092ef5a8a18f56e8913cf4a201fbe287825b095693c21775a2646970667358221220dc48af6984076926f7567d87875765c8f5b6d6f8080d4c3ed3f97c9b3a8c067e64736f6c634300081a0033",
					"opcodes": "PUSH1 0x80 PUSH1 0x40 MSTORE PUSH3 0x7A120 PUSH1 0x4 SSTORE CALLVALUE DUP1 ISZERO PUSH2 0x16 JUMPI PUSH0 DUP1 REVERT JUMPDEST POP PUSH1 0x40 MLOAD PUSH2 0x1956 CODESIZE SUB DUP1 PUSH2 0x1956 DUP4 CODECOPY DUP2 ADD PUSH1 0x40 DUP2 SWAP1 MSTORE PUSH2 0x35 SWAP2 PUSH2 0x204 JUMP JUMPDEST PUSH1 0x1 DUP1 SLOAD PUSH1 0x2 DUP1 SLOAD PUSH1 0x1 PUSH1 0x1 PUSH1 0xA0 SHL SUB DUP1 DUP11 AND PUSH1 0x1 PUSH1 0x1 PUSH1 0xA0 SHL SUB NOT SWAP1 SWAP3 AND SWAP2 SWAP1 SWAP2 OR SWAP1 SWAP2 SSTORE DUP5 AND PUSH2 0x100 MUL PUSH1 0x1 PUSH1 0x1 PUSH1 0xA8 SHL SUB NOT SWAP1 SWAP2 AND OR SWAP1 SSTORE PUSH2 0x7A PUSH0 CALLER PUSH2 0x140 JUMP JUMPDEST POP PUSH2 0xA5 PUSH32 0xA49807205CE4D355092EF5A8A18F56E8913CF4A201FBE287825B095693C21775 CALLER PUSH2 0x140 JUMP JUMPDEST POP PUSH2 0xD0 PUSH32 0x41DE7AE3BECAF069074D499EBCBD36DF88385BA1E2946870F7E4674AECD43704 DUP5 PUSH2 0x140 JUMP JUMPDEST POP PUSH2 0xFB PUSH32 0x65D7A28E3265B37A6474929F336521B332C1681B933F6CB9F3376673440D862A DUP5 PUSH2 0x140 JUMP JUMPDEST POP PUSH1 0x1 PUSH1 0x1 PUSH1 0xA0 SHL SUB SWAP4 DUP5 AND PUSH0 SWAP1 DUP2 MSTORE PUSH1 0x6 PUSH1 0x20 MSTORE PUSH1 0x40 SWAP1 KECCAK256 DUP1 SLOAD PUSH1 0xFF NOT AND PUSH1 0x1 OR SWAP1 SSTORE PUSH1 0x5 DUP1 SLOAD SWAP2 SWAP1 SWAP5 AND PUSH1 0x1 PUSH1 0x1 PUSH1 0xA0 SHL SUB NOT SWAP1 SWAP2 AND OR SWAP1 SWAP3 SSTORE POP PUSH2 0x265 SWAP2 POP POP JUMP JUMPDEST PUSH0 DUP3 DUP2 MSTORE PUSH1 0x20 DUP2 DUP2 MSTORE PUSH1 0x40 DUP1 DUP4 KECCAK256 PUSH1 0x1 PUSH1 0x1 PUSH1 0xA0 SHL SUB DUP6 AND DUP5 MSTORE SWAP1 SWAP2 MSTORE DUP2 KECCAK256 SLOAD PUSH1 0xFF AND PUSH2 0x1E0 JUMPI PUSH0 DUP4 DUP2 MSTORE PUSH1 0x20 DUP2 DUP2 MSTORE PUSH1 0x40 DUP1 DUP4 KECCAK256 PUSH1 0x1 PUSH1 0x1 PUSH1 0xA0 SHL SUB DUP7 AND DUP5 MSTORE SWAP1 SWAP2 MSTORE SWAP1 KECCAK256 DUP1 SLOAD PUSH1 0xFF NOT AND PUSH1 0x1 OR SWAP1 SSTORE PUSH2 0x198 CALLER SWAP1 JUMP JUMPDEST PUSH1 0x1 PUSH1 0x1 PUSH1 0xA0 SHL SUB AND DUP3 PUSH1 0x1 PUSH1 0x1 PUSH1 0xA0 SHL SUB AND DUP5 PUSH32 0x2F8788117E7EFF1D82E926EC794901D17C78024A50270940304540A733656F0D PUSH1 0x40 MLOAD PUSH1 0x40 MLOAD DUP1 SWAP2 SUB SWAP1 LOG4 POP PUSH1 0x1 PUSH2 0x1E3 JUMP JUMPDEST POP PUSH0 JUMPDEST SWAP3 SWAP2 POP POP JUMP JUMPDEST DUP1 MLOAD PUSH1 0x1 PUSH1 0x1 PUSH1 0xA0 SHL SUB DUP2 AND DUP2 EQ PUSH2 0x1FF JUMPI PUSH0 DUP1 REVERT JUMPDEST SWAP2 SWAP1 POP JUMP JUMPDEST PUSH0 DUP1 PUSH0 DUP1 PUSH0 PUSH1 0xA0 DUP7 DUP9 SUB SLT ISZERO PUSH2 0x218 JUMPI PUSH0 DUP1 REVERT JUMPDEST PUSH2 0x221 DUP7 PUSH2 0x1E9 JUMP JUMPDEST SWAP5 POP PUSH2 0x22F PUSH1 0x20 DUP8 ADD PUSH2 0x1E9 JUMP JUMPDEST SWAP4 POP PUSH2 0x23D PUSH1 0x40 DUP8 ADD PUSH2 0x1E9 JUMP JUMPDEST SWAP3 POP PUSH2 0x24B PUSH1 0x60 DUP8 ADD PUSH2 0x1E9 JUMP JUMPDEST SWAP2 POP PUSH2 0x259 PUSH1 0x80 DUP8 ADD PUSH2 0x1E9 JUMP JUMPDEST SWAP1 POP SWAP3 SWAP6 POP SWAP3 SWAP6 SWAP1 SWAP4 POP JUMP JUMPDEST PUSH2 0x16E4 DUP1 PUSH2 0x272 PUSH0 CODECOPY PUSH0 RETURN INVALID PUSH1 0x80 PUSH1 0x40 MSTORE CALLVALUE DUP1 ISZERO PUSH2 0xF JUMPI PUSH0 DUP1 REVERT JUMPDEST POP PUSH1 0x4 CALLDATASIZE LT PUSH2 0x1D0 JUMPI PUSH0 CALLDATALOAD PUSH1 0xE0 SHR DUP1 PUSH4 0x75B238FC GT PUSH2 0xFE JUMPI DUP1 PUSH4 0xB190D8A3 GT PUSH2 0x9E JUMPI DUP1 PUSH4 0xD270E7AB GT PUSH2 0x6E JUMPI DUP1 PUSH4 0xD270E7AB EQ PUSH2 0x411 JUMPI DUP1 PUSH4 0xD547741F EQ PUSH2 0x429 JUMPI DUP1 PUSH4 0xE63AB1E9 EQ PUSH2 0x43C JUMPI DUP1 PUSH4 0xE74B981B EQ PUSH2 0x463 JUMPI PUSH0 DUP1 REVERT JUMPDEST DUP1 PUSH4 0xB190D8A3 EQ PUSH2 0x3C6 JUMPI DUP1 PUSH4 0xC5494FFB EQ PUSH2 0x3D8 JUMPI DUP1 PUSH4 0xC6400657 EQ PUSH2 0x3EB JUMPI DUP1 PUSH4 0xD19FAD37 EQ PUSH2 0x3FE JUMPI PUSH0 DUP1 REVERT JUMPDEST DUP1 PUSH4 0x9EA4F3A4 GT PUSH2 0xD9 JUMPI DUP1 PUSH4 0x9EA4F3A4 EQ PUSH2 0x377 JUMPI DUP1 PUSH4 0xA217FDDF EQ PUSH2 0x399 JUMPI DUP1 PUSH4 0xA2519AE4 EQ PUSH2 0x3A0 JUMPI DUP1 PUSH4 0xA62E1B3E EQ PUSH2 0x3B3 JUMPI PUSH0 DUP1 REVERT JUMPDEST DUP1 PUSH4 0x75B238FC EQ PUSH2 0x348 JUMPI DUP1 PUSH4 0x8456CB59 EQ PUSH2 0x35C JUMPI DUP1 PUSH4 0x91D14854 EQ PUSH2 0x364 JUMPI PUSH0 DUP1 REVERT JUMPDEST DUP1 PUSH4 0x2F2FF15D GT PUSH2 0x174 JUMPI DUP1 PUSH4 0x3F4BA83A GT PUSH2 0x144 JUMPI DUP1 PUSH4 0x3F4BA83A EQ PUSH2 0x301 JUMPI DUP1 PUSH4 0x46904840 EQ PUSH2 0x309 JUMPI DUP1 PUSH4 0x5BADBE4C EQ PUSH2 0x334 JUMPI DUP1 PUSH4 0x5C975ABB EQ PUSH2 0x33D JUMPI PUSH0 DUP1 REVERT JUMPDEST DUP1 PUSH4 0x2F2FF15D EQ PUSH2 0x292 JUMPI DUP1 PUSH4 0x2F92893C EQ PUSH2 0x2A5 JUMPI DUP1 PUSH4 0x36568ABE EQ PUSH2 0x2C7 JUMPI DUP1 PUSH4 0x37174202 EQ PUSH2 0x2DA JUMPI PUSH0 DUP1 REVERT JUMPDEST DUP1 PUSH4 0x1008776F GT PUSH2 0x1AF JUMPI DUP1 PUSH4 0x1008776F EQ PUSH2 0x228 JUMPI DUP1 PUSH4 0x1E7502D7 EQ PUSH2 0x23B JUMPI DUP1 PUSH4 0x1F224564 EQ PUSH2 0x25D JUMPI DUP1 PUSH4 0x248A9CA3 EQ PUSH2 0x270 JUMPI PUSH0 DUP1 REVERT JUMPDEST DUP1 PUSH3 0x677016 EQ PUSH2 0x1D4 JUMPI DUP1 PUSH4 0x1FFC9A7 EQ PUSH2 0x1F0 JUMPI DUP1 PUSH4 0xBD31A57 EQ PUSH2 0x213 JUMPI JUMPDEST PUSH0 DUP1 REVERT JUMPDEST PUSH2 0x1DD PUSH1 0x4 SLOAD DUP2 JUMP JUMPDEST PUSH1 0x40 MLOAD SWAP1 DUP2 MSTORE PUSH1 0x20 ADD JUMPDEST PUSH1 0x40 MLOAD DUP1 SWAP2 SUB SWAP1 RETURN JUMPDEST PUSH2 0x203 PUSH2 0x1FE CALLDATASIZE PUSH1 0x4 PUSH2 0x1370 JUMP JUMPDEST PUSH2 0x476 JUMP JUMPDEST PUSH1 0x40 MLOAD SWAP1 ISZERO ISZERO DUP2 MSTORE PUSH1 0x20 ADD PUSH2 0x1E7 JUMP JUMPDEST PUSH2 0x226 PUSH2 0x221 CALLDATASIZE PUSH1 0x4 PUSH2 0x13B2 JUMP JUMPDEST PUSH2 0x4AC JUMP JUMPDEST STOP JUMPDEST PUSH2 0x226 PUSH2 0x236 CALLDATASIZE PUSH1 0x4 PUSH2 0x13E4 JUMP JUMPDEST PUSH2 0x7B0 JUMP JUMPDEST PUSH2 0x203 PUSH2 0x249 CALLDATASIZE PUSH1 0x4 PUSH2 0x13FD JUMP JUMPDEST PUSH0 SWAP1 DUP2 MSTORE PUSH1 0x7 PUSH1 0x20 MSTORE PUSH1 0x40 SWAP1 KECCAK256 SLOAD PUSH1 0xFF AND SWAP1 JUMP JUMPDEST PUSH2 0x226 PUSH2 0x26B CALLDATASIZE PUSH1 0x4 PUSH2 0x1414 JUMP JUMPDEST PUSH2 0x810 JUMP JUMPDEST PUSH2 0x1DD PUSH2 0x27E CALLDATASIZE PUSH1 0x4 PUSH2 0x13FD JUMP JUMPDEST PUSH0 SWAP1 DUP2 MSTORE PUSH1 0x20 DUP2 SWAP1 MSTORE PUSH1 0x40 SWAP1 KECCAK256 PUSH1 0x1 ADD SLOAD SWAP1 JUMP JUMPDEST PUSH2 0x226 PUSH2 0x2A0 CALLDATASIZE PUSH1 0x4 PUSH2 0x1450 JUMP JUMPDEST PUSH2 0xA73 JUMP JUMPDEST PUSH2 0x203 PUSH2 0x2B3 CALLDATASIZE PUSH1 0x4 PUSH2 0x13FD JUMP JUMPDEST PUSH1 0x7 PUSH1 0x20 MSTORE PUSH0 SWAP1 DUP2 MSTORE PUSH1 0x40 SWAP1 KECCAK256 SLOAD PUSH1 0xFF AND DUP2 JUMP JUMPDEST PUSH2 0x226 PUSH2 0x2D5 CALLDATASIZE PUSH1 0x4 PUSH2 0x1450 JUMP JUMPDEST PUSH2 0xA9D JUMP JUMPDEST PUSH2 0x1DD PUSH32 0x41DE7AE3BECAF069074D499EBCBD36DF88385BA1E2946870F7E4674AECD43704 DUP2 JUMP JUMPDEST PUSH2 0x226 PUSH2 0xAD5 JUMP JUMPDEST PUSH1 0x5 SLOAD PUSH2 0x31C SWAP1 PUSH1 0x1 PUSH1 0x1 PUSH1 0xA0 SHL SUB AND DUP2 JUMP JUMPDEST PUSH1 0x40 MLOAD PUSH1 0x1 PUSH1 0x1 PUSH1 0xA0 SHL SUB SWAP1 SWAP2 AND DUP2 MSTORE PUSH1 0x20 ADD PUSH2 0x1E7 JUMP JUMPDEST PUSH2 0x1DD PUSH1 0x3 SLOAD DUP2 JUMP JUMPDEST PUSH1 0x1 SLOAD PUSH1 0xFF AND PUSH2 0x203 JUMP JUMPDEST PUSH2 0x1DD PUSH0 DUP1 MLOAD PUSH1 0x20 PUSH2 0x168F DUP4 CODECOPY DUP2 MLOAD SWAP2 MSTORE DUP2 JUMP JUMPDEST PUSH2 0x226 PUSH2 0xB0A JUMP JUMPDEST PUSH2 0x203 PUSH2 0x372 CALLDATASIZE PUSH1 0x4 PUSH2 0x1450 JUMP JUMPDEST PUSH2 0xB3C JUMP JUMPDEST PUSH2 0x203 PUSH2 0x385 CALLDATASIZE PUSH1 0x4 PUSH2 0x13E4 JUMP JUMPDEST PUSH1 0x6 PUSH1 0x20 MSTORE PUSH0 SWAP1 DUP2 MSTORE PUSH1 0x40 SWAP1 KECCAK256 SLOAD PUSH1 0xFF AND DUP2 JUMP JUMPDEST PUSH2 0x1DD PUSH0 DUP2 JUMP JUMPDEST PUSH2 0x226 PUSH2 0x3AE CALLDATASIZE PUSH1 0x4 PUSH2 0x147A JUMP JUMPDEST PUSH2 0xB64 JUMP JUMPDEST PUSH1 0x2 SLOAD PUSH2 0x31C SWAP1 PUSH1 0x1 PUSH1 0x1 PUSH1 0xA0 SHL SUB AND DUP2 JUMP JUMPDEST PUSH1 0x3 SLOAD TIMESTAMP PUSH1 0x40 SHL CHAINID PUSH1 0x80 SHL OR OR PUSH2 0x1DD JUMP JUMPDEST PUSH2 0x226 PUSH2 0x3E6 CALLDATASIZE PUSH1 0x4 PUSH2 0x13FD JUMP JUMPDEST PUSH2 0xDB0 JUMP JUMPDEST PUSH2 0x226 PUSH2 0x3F9 CALLDATASIZE PUSH1 0x4 PUSH2 0x13E4 JUMP JUMPDEST PUSH2 0xDCD JUMP JUMPDEST PUSH2 0x226 PUSH2 0x40C CALLDATASIZE PUSH1 0x4 PUSH2 0x147A JUMP JUMPDEST PUSH2 0xE30 JUMP JUMPDEST PUSH1 0x1 SLOAD PUSH2 0x31C SWAP1 PUSH2 0x100 SWAP1 DIV PUSH1 0x1 PUSH1 0x1 PUSH1 0xA0 SHL SUB AND DUP2 JUMP JUMPDEST PUSH2 0x226 PUSH2 0x437 CALLDATASIZE PUSH1 0x4 PUSH2 0x1450 JUMP JUMPDEST PUSH2 0x1015 JUMP JUMPDEST PUSH2 0x1DD PUSH32 0x65D7A28E3265B37A6474929F336521B332C1681B933F6CB9F3376673440D862A DUP2 JUMP JUMPDEST PUSH2 0x226 PUSH2 0x471 CALLDATASIZE PUSH1 0x4 PUSH2 0x13E4 JUMP JUMPDEST PUSH2 0x1039 JUMP JUMPDEST PUSH0 PUSH1 0x1 PUSH1 0x1 PUSH1 0xE0 SHL SUB NOT DUP3 AND PUSH4 0x7965DB0B PUSH1 0xE0 SHL EQ DUP1 PUSH2 0x4A6 JUMPI POP PUSH4 0x1FFC9A7 PUSH1 0xE0 SHL PUSH1 0x1 PUSH1 0x1 PUSH1 0xE0 SHL SUB NOT DUP4 AND EQ JUMPDEST SWAP3 SWAP2 POP POP JUMP JUMPDEST CHAINID DUP4 SUB PUSH2 0x519 JUMPI PUSH1 0x40 MLOAD PUSH3 0x461BCD PUSH1 0xE5 SHL DUP2 MSTORE PUSH1 0x20 PUSH1 0x4 DUP3 ADD MSTORE PUSH1 0x30 PUSH1 0x24 DUP3 ADD MSTORE PUSH32 0x54617267657420636861696E206D75737420626520646966666572656E742066 PUSH1 0x44 DUP3 ADD MSTORE PUSH16 0x3937B69039B7BAB931B29031B430B4B7 PUSH1 0x81 SHL PUSH1 0x64 DUP3 ADD MSTORE PUSH1 0x84 ADD JUMPDEST PUSH1 0x40 MLOAD DUP1 SWAP2 SUB SWAP1 REVERT JUMPDEST PUSH1 0x4 SLOAD DUP3 GT PUSH2 0x575 JUMPI PUSH1 0x40 MLOAD PUSH3 0x461BCD PUSH1 0xE5 SHL DUP2 MSTORE PUSH1 0x20 PUSH1 0x4 DUP3 ADD MSTORE PUSH1 0x22 PUSH1 0x24 DUP3 ADD MSTORE PUSH32 0x416D6F756E74206D7573742062652067726561746572207468616E2067617366 PUSH1 0x44 DUP3 ADD MSTORE PUSH2 0x6565 PUSH1 0xF0 SHL PUSH1 0x64 DUP3 ADD MSTORE PUSH1 0x84 ADD PUSH2 0x510 JUMP JUMPDEST PUSH1 0x1 PUSH1 0x1 PUSH1 0xA0 SHL SUB DUP2 AND PUSH2 0x5CB JUMPI PUSH1 0x40 MLOAD PUSH3 0x461BCD PUSH1 0xE5 SHL DUP2 MSTORE PUSH1 0x20 PUSH1 0x4 DUP3 ADD MSTORE PUSH1 0x1B PUSH1 0x24 DUP3 ADD MSTORE PUSH32 0x496E76616C696420746172676574207573657220616464726573730000000000 PUSH1 0x44 DUP3 ADD MSTORE PUSH1 0x64 ADD PUSH2 0x510 JUMP JUMPDEST PUSH0 CHAINID SWAP1 POP PUSH0 PUSH1 0x3 PUSH0 DUP2 SLOAD PUSH2 0x5DE SWAP1 PUSH2 0x14B6 JUMP JUMPDEST SWAP2 DUP3 SWAP1 SSTORE POP TIMESTAMP PUSH1 0x40 SWAP1 DUP2 SHL PUSH1 0x80 DUP6 SWAP1 SHL OR SWAP1 SWAP2 OR PUSH0 DUP2 DUP2 MSTORE PUSH1 0x7 PUSH1 0x20 MSTORE SWAP2 SWAP1 SWAP2 KECCAK256 SLOAD SWAP1 SWAP2 POP PUSH1 0xFF AND ISZERO PUSH2 0x64D JUMPI PUSH1 0x40 MLOAD PUSH3 0x461BCD PUSH1 0xE5 SHL DUP2 MSTORE PUSH1 0x20 PUSH1 0x4 DUP3 ADD MSTORE PUSH1 0x17 PUSH1 0x24 DUP3 ADD MSTORE PUSH23 0x14995C5D595CDD08125108185B1C9958591E481D5CD959 PUSH1 0x4A SHL PUSH1 0x44 DUP3 ADD MSTORE PUSH1 0x64 ADD PUSH2 0x510 JUMP JUMPDEST PUSH0 DUP2 DUP2 MSTORE PUSH1 0x7 PUSH1 0x20 MSTORE PUSH1 0x40 DUP2 KECCAK256 DUP1 SLOAD PUSH1 0xFF NOT AND PUSH1 0x1 OR SWAP1 SSTORE PUSH1 0x4 SLOAD PUSH2 0x672 SWAP1 DUP7 PUSH2 0x14CE JUMP JUMPDEST PUSH1 0x2 SLOAD PUSH1 0x5 SLOAD PUSH1 0x4 DUP1 SLOAD PUSH1 0x40 MLOAD PUSH4 0x23B872DD PUSH1 0xE0 SHL DUP2 MSTORE CALLER SWAP3 DUP2 ADD SWAP3 SWAP1 SWAP3 MSTORE PUSH1 0x1 PUSH1 0x1 PUSH1 0xA0 SHL SUB SWAP3 DUP4 AND PUSH1 0x24 DUP4 ADD MSTORE PUSH1 0x44 DUP3 ADD MSTORE SWAP3 SWAP4 POP AND SWAP1 PUSH4 0x23B872DD SWAP1 PUSH1 0x64 ADD PUSH1 0x20 PUSH1 0x40 MLOAD DUP1 DUP4 SUB DUP2 PUSH0 DUP8 GAS CALL ISZERO DUP1 ISZERO PUSH2 0x6D0 JUMPI RETURNDATASIZE PUSH0 DUP1 RETURNDATACOPY RETURNDATASIZE PUSH0 REVERT JUMPDEST POP POP POP POP PUSH1 0x40 MLOAD RETURNDATASIZE PUSH1 0x1F NOT PUSH1 0x1F DUP3 ADD AND DUP3 ADD DUP1 PUSH1 0x40 MSTORE POP DUP2 ADD SWAP1 PUSH2 0x6F4 SWAP2 SWAP1 PUSH2 0x14E1 JUMP JUMPDEST POP PUSH1 0x2 SLOAD PUSH1 0x40 MLOAD PUSH4 0x79CC679 PUSH1 0xE4 SHL DUP2 MSTORE CALLER PUSH1 0x4 DUP3 ADD MSTORE PUSH1 0x24 DUP2 ADD DUP4 SWAP1 MSTORE PUSH1 0x1 PUSH1 0x1 PUSH1 0xA0 SHL SUB SWAP1 SWAP2 AND SWAP1 PUSH4 0x79CC6790 SWAP1 PUSH1 0x44 ADD PUSH0 PUSH1 0x40 MLOAD DUP1 DUP4 SUB DUP2 PUSH0 DUP8 DUP1 EXTCODESIZE ISZERO DUP1 ISZERO PUSH2 0x73E JUMPI PUSH0 DUP1 REVERT JUMPDEST POP GAS CALL ISZERO DUP1 ISZERO PUSH2 0x750 JUMPI RETURNDATASIZE PUSH0 DUP1 RETURNDATACOPY RETURNDATASIZE PUSH0 REVERT JUMPDEST POP POP PUSH1 0x40 DUP1 MLOAD DUP7 DUP2 MSTORE PUSH1 0x20 DUP2 ADD DUP11 SWAP1 MSTORE SWAP1 DUP2 ADD DUP5 SWAP1 MSTORE PUSH1 0x1 PUSH1 0x1 PUSH1 0xA0 SHL SUB DUP8 AND PUSH1 0x60 DUP3 ADD MSTORE CALLER SWAP3 POP DUP5 SWAP2 POP PUSH32 0x26C32CC5FF12981B55681844F2FB47D52C5E521C58D5288B1325F3304A7E8852 SWAP1 PUSH1 0x80 ADD PUSH1 0x40 MLOAD DUP1 SWAP2 SUB SWAP1 LOG3 POP POP POP POP POP POP JUMP JUMPDEST PUSH0 DUP1 MLOAD PUSH1 0x20 PUSH2 0x168F DUP4 CODECOPY DUP2 MLOAD SWAP2 MSTORE PUSH2 0x7C7 DUP2 PUSH2 0x1073 JUMP JUMPDEST PUSH1 0x1 PUSH1 0x1 PUSH1 0xA0 SHL SUB DUP3 AND PUSH0 DUP2 DUP2 MSTORE PUSH1 0x6 PUSH1 0x20 MSTORE PUSH1 0x40 DUP1 DUP3 KECCAK256 DUP1 SLOAD PUSH1 0xFF NOT AND SWAP1 SSTORE MLOAD PUSH32 0xFA63555FE68CAD70E08233633567493A3C74AFDC8C7FB9F0C03A8E74F1A137A SWAP2 SWAP1 LOG2 POP POP JUMP JUMPDEST PUSH32 0x41DE7AE3BECAF069074D499EBCBD36DF88385BA1E2946870F7E4674AECD43704 PUSH2 0x83A DUP2 PUSH2 0x1073 JUMP JUMPDEST PUSH0 DUP6 DUP2 MSTORE PUSH1 0x7 PUSH1 0x20 MSTORE PUSH1 0x40 SWAP1 KECCAK256 SLOAD PUSH1 0xFF AND ISZERO PUSH2 0x892 JUMPI PUSH1 0x40 MLOAD PUSH3 0x461BCD PUSH1 0xE5 SHL DUP2 MSTORE PUSH1 0x20 PUSH1 0x4 DUP3 ADD MSTORE PUSH1 0x17 PUSH1 0x24 DUP3 ADD MSTORE PUSH23 0x14995C5D595CDD08125108185B1C9958591E481D5CD959 PUSH1 0x4A SHL PUSH1 0x44 DUP3 ADD MSTORE PUSH1 0x64 ADD PUSH2 0x510 JUMP JUMPDEST CHAINID DUP5 SUB PUSH2 0x8FA JUMPI PUSH1 0x40 MLOAD PUSH3 0x461BCD PUSH1 0xE5 SHL DUP2 MSTORE PUSH1 0x20 PUSH1 0x4 DUP3 ADD MSTORE PUSH1 0x30 PUSH1 0x24 DUP3 ADD MSTORE PUSH32 0x536F7572636520636861696E206D75737420626520646966666572656E742066 PUSH1 0x44 DUP3 ADD MSTORE PUSH16 0x3937B6903A30B933B2BA1031B430B4B7 PUSH1 0x81 SHL PUSH1 0x64 DUP3 ADD MSTORE PUSH1 0x84 ADD PUSH2 0x510 JUMP JUMPDEST PUSH0 DUP4 GT PUSH2 0x949 JUMPI PUSH1 0x40 MLOAD PUSH3 0x461BCD PUSH1 0xE5 SHL DUP2 MSTORE PUSH1 0x20 PUSH1 0x4 DUP3 ADD MSTORE PUSH1 0x1D PUSH1 0x24 DUP3 ADD MSTORE PUSH32 0x416D6F756E74206D7573742062652067726561746572207468616E2030000000 PUSH1 0x44 DUP3 ADD MSTORE PUSH1 0x64 ADD PUSH2 0x510 JUMP JUMPDEST PUSH1 0x1 PUSH1 0x1 PUSH1 0xA0 SHL SUB DUP3 AND PUSH2 0x99F JUMPI PUSH1 0x40 MLOAD PUSH3 0x461BCD PUSH1 0xE5 SHL DUP2 MSTORE PUSH1 0x20 PUSH1 0x4 DUP3 ADD MSTORE PUSH1 0x1B PUSH1 0x24 DUP3 ADD MSTORE PUSH32 0x496E76616C696420746172676574207573657220616464726573730000000000 PUSH1 0x44 DUP3 ADD MSTORE PUSH1 0x64 ADD PUSH2 0x510 JUMP JUMPDEST PUSH0 DUP6 DUP2 MSTORE PUSH1 0x7 PUSH1 0x20 MSTORE PUSH1 0x40 SWAP1 DUP2 SWAP1 KECCAK256 DUP1 SLOAD PUSH1 0xFF NOT AND PUSH1 0x1 OR SWAP1 SSTORE PUSH1 0x2 SLOAD SWAP1 MLOAD PUSH4 0x40C10F19 PUSH1 0xE0 SHL DUP2 MSTORE PUSH1 0x1 PUSH1 0x1 PUSH1 0xA0 SHL SUB DUP5 DUP2 AND PUSH1 0x4 DUP4 ADD MSTORE PUSH1 0x24 DUP3 ADD DUP7 SWAP1 MSTORE SWAP1 SWAP2 AND SWAP1 PUSH4 0x40C10F19 SWAP1 PUSH1 0x44 ADD PUSH0 PUSH1 0x40 MLOAD DUP1 DUP4 SUB DUP2 PUSH0 DUP8 DUP1 EXTCODESIZE ISZERO DUP1 ISZERO PUSH2 0xA03 JUMPI PUSH0 DUP1 REVERT JUMPDEST POP GAS CALL ISZERO DUP1 ISZERO PUSH2 0xA15 JUMPI RETURNDATASIZE PUSH0 DUP1 RETURNDATACOPY RETURNDATASIZE PUSH0 REVERT JUMPDEST POP POP PUSH1 0x40 DUP1 MLOAD DUP8 DUP2 MSTORE CHAINID PUSH1 0x20 DUP3 ADD MSTORE SWAP1 DUP2 ADD DUP7 SWAP1 MSTORE PUSH1 0x1 PUSH1 0x1 PUSH1 0xA0 SHL SUB DUP6 AND PUSH1 0x60 DUP3 ADD MSTORE CALLER SWAP3 POP DUP8 SWAP2 POP PUSH32 0x7690D9CEDF96F067BDA7114C24BBA31BE184AE045D199979A0A373862E70D46B SWAP1 PUSH1 0x80 ADD PUSH1 0x40 MLOAD DUP1 SWAP2 SUB SWAP1 LOG3 POP POP POP POP POP JUMP JUMPDEST PUSH0 DUP3 DUP2 MSTORE PUSH1 0x20 DUP2 SWAP1 MSTORE PUSH1 0x40 SWAP1 KECCAK256 PUSH1 0x1 ADD SLOAD PUSH2 0xA8D DUP2 PUSH2 0x1073 JUMP JUMPDEST PUSH2 0xA97 DUP4 DUP4 PUSH2 0x107D JUMP JUMPDEST POP POP POP POP JUMP JUMPDEST PUSH1 0x1 PUSH1 0x1 PUSH1 0xA0 SHL SUB DUP2 AND CALLER EQ PUSH2 0xAC6 JUMPI PUSH1 0x40 MLOAD PUSH4 0x334BD919 PUSH1 0xE1 SHL DUP2 MSTORE PUSH1 0x4 ADD PUSH1 0x40 MLOAD DUP1 SWAP2 SUB SWAP1 REVERT JUMPDEST PUSH2 0xAD0 DUP3 DUP3 PUSH2 0x110C JUMP JUMPDEST POP POP POP JUMP JUMPDEST PUSH32 0x65D7A28E3265B37A6474929F336521B332C1681B933F6CB9F3376673440D862A PUSH2 0xAFF DUP2 PUSH2 0x1073 JUMP JUMPDEST PUSH2 0xB07 PUSH2 0x1175 JUMP JUMPDEST POP JUMP JUMPDEST PUSH32 0x65D7A28E3265B37A6474929F336521B332C1681B933F6CB9F3376673440D862A PUSH2 0xB34 DUP2 PUSH2 0x1073 JUMP JUMPDEST PUSH2 0xB07 PUSH2 0x11C7 JUMP JUMPDEST PUSH0 SWAP2 DUP3 MSTORE PUSH1 0x20 DUP3 DUP2 MSTORE PUSH1 0x40 DUP1 DUP5 KECCAK256 PUSH1 0x1 PUSH1 0x1 PUSH1 0xA0 SHL SUB SWAP4 SWAP1 SWAP4 AND DUP5 MSTORE SWAP2 SWAP1 MSTORE SWAP1 KECCAK256 SLOAD PUSH1 0xFF AND SWAP1 JUMP JUMPDEST PUSH1 0x1 PUSH1 0x1 PUSH1 0xA0 SHL SUB DUP3 AND PUSH0 SWAP1 DUP2 MSTORE PUSH1 0x6 PUSH1 0x20 MSTORE PUSH1 0x40 SWAP1 KECCAK256 SLOAD PUSH1 0xFF AND PUSH2 0xBC7 JUMPI PUSH1 0x40 MLOAD PUSH3 0x461BCD PUSH1 0xE5 SHL DUP2 MSTORE PUSH1 0x20 PUSH1 0x4 DUP3 ADD MSTORE PUSH1 0x19 PUSH1 0x24 DUP3 ADD MSTORE PUSH25 0x14DD18589B1958DBDA5B881B9BDD081C9959DA5CDD195C9959 PUSH1 0x3A SHL PUSH1 0x44 DUP3 ADD MSTORE PUSH1 0x64 ADD PUSH2 0x510 JUMP JUMPDEST PUSH0 DUP3 PUSH1 0x1 PUSH1 0x1 PUSH1 0xA0 SHL SUB AND PUSH4 0x313CE567 PUSH1 0x40 MLOAD DUP2 PUSH4 0xFFFFFFFF AND PUSH1 0xE0 SHL DUP2 MSTORE PUSH1 0x4 ADD PUSH1 0x20 PUSH1 0x40 MLOAD DUP1 DUP4 SUB DUP2 DUP7 GAS STATICCALL ISZERO DUP1 ISZERO PUSH2 0xC04 JUMPI RETURNDATASIZE PUSH0 DUP1 RETURNDATACOPY RETURNDATASIZE PUSH0 REVERT JUMPDEST POP POP POP POP PUSH1 0x40 MLOAD RETURNDATASIZE PUSH1 0x1F NOT PUSH1 0x1F DUP3 ADD AND DUP3 ADD DUP1 PUSH1 0x40 MSTORE POP DUP2 ADD SWAP1 PUSH2 0xC28 SWAP2 SWAP1 PUSH2 0x1500 JUMP JUMPDEST SWAP1 POP PUSH0 PUSH2 0xC37 DUP4 DUP4 PUSH1 0x6 PUSH2 0x1202 JUMP JUMPDEST PUSH1 0x1 SLOAD PUSH1 0x40 MLOAD PUSH4 0x23B872DD PUSH1 0xE0 SHL DUP2 MSTORE CALLER PUSH1 0x4 DUP3 ADD MSTORE PUSH1 0x1 PUSH1 0x1 PUSH1 0xA0 SHL SUB PUSH2 0x100 SWAP1 SWAP3 DIV DUP3 AND PUSH1 0x24 DUP3 ADD MSTORE PUSH1 0x44 DUP2 ADD DUP7 SWAP1 MSTORE SWAP2 SWAP3 POP DUP6 AND SWAP1 PUSH4 0x23B872DD SWAP1 PUSH1 0x64 ADD PUSH1 0x20 PUSH1 0x40 MLOAD DUP1 DUP4 SUB DUP2 PUSH0 DUP8 GAS CALL ISZERO DUP1 ISZERO PUSH2 0xC94 JUMPI RETURNDATASIZE PUSH0 DUP1 RETURNDATACOPY RETURNDATASIZE PUSH0 REVERT JUMPDEST POP POP POP POP PUSH1 0x40 MLOAD RETURNDATASIZE PUSH1 0x1F NOT PUSH1 0x1F DUP3 ADD AND DUP3 ADD DUP1 PUSH1 0x40 MSTORE POP DUP2 ADD SWAP1 PUSH2 0xCB8 SWAP2 SWAP1 PUSH2 0x14E1 JUMP JUMPDEST PUSH2 0xD04 JUMPI PUSH1 0x40 MLOAD PUSH3 0x461BCD PUSH1 0xE5 SHL DUP2 MSTORE PUSH1 0x20 PUSH1 0x4 DUP3 ADD MSTORE PUSH1 0x1A PUSH1 0x24 DUP3 ADD MSTORE PUSH32 0x537461626C65636F696E207472616E73666572206661696C6564000000000000 PUSH1 0x44 DUP3 ADD MSTORE PUSH1 0x64 ADD PUSH2 0x510 JUMP JUMPDEST PUSH1 0x2 SLOAD PUSH1 0x40 MLOAD PUSH4 0x40C10F19 PUSH1 0xE0 SHL DUP2 MSTORE CALLER PUSH1 0x4 DUP3 ADD MSTORE PUSH1 0x24 DUP2 ADD DUP4 SWAP1 MSTORE PUSH1 0x1 PUSH1 0x1 PUSH1 0xA0 SHL SUB SWAP1 SWAP2 AND SWAP1 PUSH4 0x40C10F19 SWAP1 PUSH1 0x44 ADD PUSH0 PUSH1 0x40 MLOAD DUP1 DUP4 SUB DUP2 PUSH0 DUP8 DUP1 EXTCODESIZE ISZERO DUP1 ISZERO PUSH2 0xD4D JUMPI PUSH0 DUP1 REVERT JUMPDEST POP GAS CALL ISZERO DUP1 ISZERO PUSH2 0xD5F JUMPI RETURNDATASIZE PUSH0 DUP1 RETURNDATACOPY RETURNDATASIZE PUSH0 REVERT JUMPDEST POP POP PUSH1 0x40 DUP1 MLOAD DUP7 DUP2 MSTORE PUSH1 0x20 DUP2 ADD DUP6 SWAP1 MSTORE PUSH1 0x1 PUSH1 0x1 PUSH1 0xA0 SHL SUB DUP9 AND SWAP4 POP CALLER SWAP3 POP PUSH32 0x66C62F0863782653C5C44E10BF21D9DEF60984CE20D9F75549575A8910896587 SWAP2 ADD JUMPDEST PUSH1 0x40 MLOAD DUP1 SWAP2 SUB SWAP1 LOG3 POP POP POP POP JUMP JUMPDEST PUSH0 DUP1 MLOAD PUSH1 0x20 PUSH2 0x168F DUP4 CODECOPY DUP2 MLOAD SWAP2 MSTORE PUSH2 0xDC7 DUP2 PUSH2 0x1073 JUMP JUMPDEST POP PUSH1 0x4 SSTORE JUMP JUMPDEST PUSH0 DUP1 MLOAD PUSH1 0x20 PUSH2 0x168F DUP4 CODECOPY DUP2 MLOAD SWAP2 MSTORE PUSH2 0xDE4 DUP2 PUSH2 0x1073 JUMP JUMPDEST PUSH1 0x1 PUSH1 0x1 PUSH1 0xA0 SHL SUB DUP3 AND PUSH0 DUP2 DUP2 MSTORE PUSH1 0x6 PUSH1 0x20 MSTORE PUSH1 0x40 DUP1 DUP3 KECCAK256 DUP1 SLOAD PUSH1 0xFF NOT AND PUSH1 0x1 OR SWAP1 SSTORE MLOAD PUSH32 0xD8B2DC62B787EC8AFBC8A664CF2FD7C1E7851721ACC9E0069132CECE3C529C2E SWAP2 SWAP1 LOG2 POP POP JUMP JUMPDEST PUSH1 0x1 PUSH1 0x1 PUSH1 0xA0 SHL SUB DUP3 AND PUSH0 SWAP1 DUP2 MSTORE PUSH1 0x6 PUSH1 0x20 MSTORE PUSH1 0x40 SWAP1 KECCAK256 SLOAD PUSH1 0xFF AND PUSH2 0xE93 JUMPI PUSH1 0x40 MLOAD PUSH3 0x461BCD PUSH1 0xE5 SHL DUP2 MSTORE PUSH1 0x20 PUSH1 0x4 DUP3 ADD MSTORE PUSH1 0x19 PUSH1 0x24 DUP3 ADD MSTORE PUSH25 0x14DD18589B1958DBDA5B881B9BDD081C9959DA5CDD195C9959 PUSH1 0x3A SHL PUSH1 0x44 DUP3 ADD MSTORE PUSH1 0x64 ADD PUSH2 0x510 JUMP JUMPDEST PUSH0 DUP3 PUSH1 0x1 PUSH1 0x1 PUSH1 0xA0 SHL SUB AND PUSH4 0x313CE567 PUSH1 0x40 MLOAD DUP2 PUSH4 0xFFFFFFFF AND PUSH1 0xE0 SHL DUP2 MSTORE PUSH1 0x4 ADD PUSH1 0x20 PUSH1 0x40 MLOAD DUP1 DUP4 SUB DUP2 DUP7 GAS STATICCALL ISZERO DUP1 ISZERO PUSH2 0xED0 JUMPI RETURNDATASIZE PUSH0 DUP1 RETURNDATACOPY RETURNDATASIZE PUSH0 REVERT JUMPDEST POP POP POP POP PUSH1 0x40 MLOAD RETURNDATASIZE PUSH1 0x1F NOT PUSH1 0x1F DUP3 ADD AND DUP3 ADD DUP1 PUSH1 0x40 MSTORE POP DUP2 ADD SWAP1 PUSH2 0xEF4 SWAP2 SWAP1 PUSH2 0x1500 JUMP JUMPDEST SWAP1 POP PUSH0 PUSH2 0xF03 DUP4 PUSH1 0x6 DUP5 PUSH2 0x1274 JUMP JUMPDEST PUSH1 0x1 SLOAD PUSH1 0x40 MLOAD PUSH4 0x1795588D PUSH1 0xE2 SHL DUP2 MSTORE PUSH1 0x1 PUSH1 0x1 PUSH1 0xA0 SHL SUB DUP8 DUP2 AND PUSH1 0x4 DUP4 ADD MSTORE CALLER PUSH1 0x24 DUP4 ADD MSTORE PUSH1 0x44 DUP3 ADD DUP5 SWAP1 MSTORE SWAP3 SWAP4 POP PUSH2 0x100 SWAP1 SWAP2 DIV SWAP1 SWAP2 AND SWAP1 PUSH4 0x5E556234 SWAP1 PUSH1 0x64 ADD PUSH0 PUSH1 0x40 MLOAD DUP1 DUP4 SUB DUP2 PUSH0 DUP8 DUP1 EXTCODESIZE ISZERO DUP1 ISZERO PUSH2 0xF5D JUMPI PUSH0 DUP1 REVERT JUMPDEST POP GAS CALL ISZERO DUP1 ISZERO PUSH2 0xF6F JUMPI RETURNDATASIZE PUSH0 DUP1 RETURNDATACOPY RETURNDATASIZE PUSH0 REVERT JUMPDEST POP POP PUSH1 0x2 SLOAD PUSH1 0x40 MLOAD PUSH4 0x79CC679 PUSH1 0xE4 SHL DUP2 MSTORE CALLER PUSH1 0x4 DUP3 ADD MSTORE PUSH1 0x24 DUP2 ADD DUP8 SWAP1 MSTORE PUSH1 0x1 PUSH1 0x1 PUSH1 0xA0 SHL SUB SWAP1 SWAP2 AND SWAP3 POP PUSH4 0x79CC6790 SWAP2 POP PUSH1 0x44 ADD PUSH0 PUSH1 0x40 MLOAD DUP1 DUP4 SUB DUP2 PUSH0 DUP8 DUP1 EXTCODESIZE ISZERO DUP1 ISZERO PUSH2 0xFBC JUMPI PUSH0 DUP1 REVERT JUMPDEST POP GAS CALL ISZERO DUP1 ISZERO PUSH2 0xFCE JUMPI RETURNDATASIZE PUSH0 DUP1 RETURNDATACOPY RETURNDATASIZE PUSH0 REVERT JUMPDEST POP POP PUSH1 0x40 DUP1 MLOAD DUP7 DUP2 MSTORE PUSH1 0x20 DUP2 ADD DUP6 SWAP1 MSTORE PUSH1 0x1 PUSH1 0x1 PUSH1 0xA0 SHL SUB DUP9 AND SWAP4 POP CALLER SWAP3 POP PUSH32 0x3D9842CBDFA603AB9534D6E362BF28B3061318F57FED5E7087DFC956A9D74442 SWAP2 ADD PUSH2 0xDA2 JUMP JUMPDEST PUSH0 DUP3 DUP2 MSTORE PUSH1 0x20 DUP2 SWAP1 MSTORE PUSH1 0x40 SWAP1 KECCAK256 PUSH1 0x1 ADD SLOAD PUSH2 0x102F DUP2 PUSH2 0x1073 JUMP JUMPDEST PUSH2 0xA97 DUP4 DUP4 PUSH2 0x110C JUMP JUMPDEST PUSH0 DUP1 MLOAD PUSH1 0x20 PUSH2 0x168F DUP4 CODECOPY DUP2 MLOAD SWAP2 MSTORE PUSH2 0x1050 DUP2 PUSH2 0x1073 JUMP JUMPDEST POP PUSH1 0x5 DUP1 SLOAD PUSH1 0x1 PUSH1 0x1 PUSH1 0xA0 SHL SUB NOT AND PUSH1 0x1 PUSH1 0x1 PUSH1 0xA0 SHL SUB SWAP3 SWAP1 SWAP3 AND SWAP2 SWAP1 SWAP2 OR SWAP1 SSTORE JUMP JUMPDEST PUSH2 0xB07 DUP2 CALLER PUSH2 0x12EA JUMP JUMPDEST PUSH0 PUSH2 0x1088 DUP4 DUP4 PUSH2 0xB3C JUMP JUMPDEST PUSH2 0x1105 JUMPI PUSH0 DUP4 DUP2 MSTORE PUSH1 0x20 DUP2 DUP2 MSTORE PUSH1 0x40 DUP1 DUP4 KECCAK256 PUSH1 0x1 PUSH1 0x1 PUSH1 0xA0 SHL SUB DUP7 AND DUP5 MSTORE SWAP1 SWAP2 MSTORE SWAP1 KECCAK256 DUP1 SLOAD PUSH1 0xFF NOT AND PUSH1 0x1 OR SWAP1 SSTORE PUSH2 0x10BD CALLER SWAP1 JUMP JUMPDEST PUSH1 0x1 PUSH1 0x1 PUSH1 0xA0 SHL SUB AND DUP3 PUSH1 0x1 PUSH1 0x1 PUSH1 0xA0 SHL SUB AND DUP5 PUSH32 0x2F8788117E7EFF1D82E926EC794901D17C78024A50270940304540A733656F0D PUSH1 0x40 MLOAD PUSH1 0x40 MLOAD DUP1 SWAP2 SUB SWAP1 LOG4 POP PUSH1 0x1 PUSH2 0x4A6 JUMP JUMPDEST POP PUSH0 PUSH2 0x4A6 JUMP JUMPDEST PUSH0 PUSH2 0x1117 DUP4 DUP4 PUSH2 0xB3C JUMP JUMPDEST ISZERO PUSH2 0x1105 JUMPI PUSH0 DUP4 DUP2 MSTORE PUSH1 0x20 DUP2 DUP2 MSTORE PUSH1 0x40 DUP1 DUP4 KECCAK256 PUSH1 0x1 PUSH1 0x1 PUSH1 0xA0 SHL SUB DUP7 AND DUP1 DUP6 MSTORE SWAP3 MSTORE DUP1 DUP4 KECCAK256 DUP1 SLOAD PUSH1 0xFF NOT AND SWAP1 SSTORE MLOAD CALLER SWAP3 DUP7 SWAP2 PUSH32 0xF6391F5C32D9C69D2A47EA670B442974B53935D1EDC7FD64EB21E047A839171B SWAP2 SWAP1 LOG4 POP PUSH1 0x1 PUSH2 0x4A6 JUMP JUMPDEST PUSH2 0x117D PUSH2 0x1327 JUMP JUMPDEST PUSH1 0x1 DUP1 SLOAD PUSH1 0xFF NOT AND SWAP1 SSTORE PUSH32 0x5DB9EE0A495BF2E6FF9C91A7834C1BA4FDD244A5E8AA4E537BD38AEAE4B073AA CALLER JUMPDEST PUSH1 0x40 MLOAD PUSH1 0x1 PUSH1 0x1 PUSH1 0xA0 SHL SUB SWAP1 SWAP2 AND DUP2 MSTORE PUSH1 0x20 ADD PUSH1 0x40 MLOAD DUP1 SWAP2 SUB SWAP1 LOG1 JUMP JUMPDEST PUSH2 0x11CF PUSH2 0x134C JUMP JUMPDEST PUSH1 0x1 DUP1 SLOAD PUSH1 0xFF NOT AND DUP2 OR SWAP1 SSTORE PUSH32 0x62E78CEA01BEE320CD4E420270B5EA74000D11B0C9F74754EBDBFC544B05A258 CALLER PUSH2 0x11AA JUMP JUMPDEST PUSH0 DUP2 PUSH1 0xFF AND DUP4 PUSH1 0xFF AND SUB PUSH2 0x1217 JUMPI POP DUP3 PUSH2 0x126D JUMP JUMPDEST DUP2 PUSH1 0xFF AND DUP4 PUSH1 0xFF AND LT ISZERO PUSH2 0x124B JUMPI PUSH2 0x122F DUP4 DUP4 PUSH2 0x1520 JUMP JUMPDEST PUSH2 0x123A SWAP1 PUSH1 0xA PUSH2 0x161C JUMP JUMPDEST PUSH2 0x1244 SWAP1 DUP6 PUSH2 0x162A JUMP JUMPDEST SWAP1 POP PUSH2 0x126D JUMP JUMPDEST PUSH2 0x1255 DUP3 DUP5 PUSH2 0x1520 JUMP JUMPDEST PUSH2 0x1260 SWAP1 PUSH1 0xA PUSH2 0x161C JUMP JUMPDEST PUSH2 0x126A SWAP1 DUP6 PUSH2 0x1655 JUMP JUMPDEST SWAP1 POP JUMPDEST SWAP4 SWAP3 POP POP POP JUMP JUMPDEST PUSH0 DUP2 PUSH1 0xFF AND DUP4 PUSH1 0xFF AND SUB PUSH2 0x1289 JUMPI POP DUP3 PUSH2 0x126D JUMP JUMPDEST DUP2 PUSH1 0xFF AND DUP4 PUSH1 0xFF AND LT ISZERO PUSH2 0x12A1 JUMPI PUSH2 0x122F DUP4 DUP4 PUSH2 0x1520 JUMP JUMPDEST PUSH0 PUSH2 0x12AC DUP4 DUP6 PUSH2 0x1520 JUMP JUMPDEST PUSH2 0x12B7 SWAP1 PUSH1 0xA PUSH2 0x161C JUMP JUMPDEST SWAP1 POP PUSH2 0x12C3 DUP2 DUP7 PUSH2 0x1655 JUMP JUMPDEST SWAP2 POP PUSH2 0x12CF DUP2 DUP7 PUSH2 0x1668 JUMP JUMPDEST ISZERO PUSH2 0x12E2 JUMPI PUSH2 0x12DF PUSH1 0x1 DUP4 PUSH2 0x167B JUMP JUMPDEST SWAP2 POP JUMPDEST POP SWAP4 SWAP3 POP POP POP JUMP JUMPDEST PUSH2 0x12F4 DUP3 DUP3 PUSH2 0xB3C JUMP JUMPDEST PUSH2 0x1323 JUMPI PUSH1 0x40 MLOAD PUSH4 0xE2517D3F PUSH1 0xE0 SHL DUP2 MSTORE PUSH1 0x1 PUSH1 0x1 PUSH1 0xA0 SHL SUB DUP3 AND PUSH1 0x4 DUP3 ADD MSTORE PUSH1 0x24 DUP2 ADD DUP4 SWAP1 MSTORE PUSH1 0x44 ADD PUSH2 0x510 JUMP JUMPDEST POP POP JUMP JUMPDEST PUSH1 0x1 SLOAD PUSH1 0xFF AND PUSH2 0x134A JUMPI PUSH1 0x40 MLOAD PUSH4 0x8DFC202B PUSH1 0xE0 SHL DUP2 MSTORE PUSH1 0x4 ADD PUSH1 0x40 MLOAD DUP1 SWAP2 SUB SWAP1 REVERT JUMPDEST JUMP JUMPDEST PUSH1 0x1 SLOAD PUSH1 0xFF AND ISZERO PUSH2 0x134A JUMPI PUSH1 0x40 MLOAD PUSH4 0xD93C0665 PUSH1 0xE0 SHL DUP2 MSTORE PUSH1 0x4 ADD PUSH1 0x40 MLOAD DUP1 SWAP2 SUB SWAP1 REVERT JUMPDEST PUSH0 PUSH1 0x20 DUP3 DUP5 SUB SLT ISZERO PUSH2 0x1380 JUMPI PUSH0 DUP1 REVERT JUMPDEST DUP2 CALLDATALOAD PUSH1 0x1 PUSH1 0x1 PUSH1 0xE0 SHL SUB NOT DUP2 AND DUP2 EQ PUSH2 0x126D JUMPI PUSH0 DUP1 REVERT JUMPDEST DUP1 CALLDATALOAD PUSH1 0x1 PUSH1 0x1 PUSH1 0xA0 SHL SUB DUP2 AND DUP2 EQ PUSH2 0x13AD JUMPI PUSH0 DUP1 REVERT JUMPDEST SWAP2 SWAP1 POP JUMP JUMPDEST PUSH0 DUP1 PUSH0 PUSH1 0x60 DUP5 DUP7 SUB SLT ISZERO PUSH2 0x13C4 JUMPI PUSH0 DUP1 REVERT JUMPDEST DUP4 CALLDATALOAD SWAP3 POP PUSH1 0x20 DUP5 ADD CALLDATALOAD SWAP2 POP PUSH2 0x13DB PUSH1 0x40 DUP6 ADD PUSH2 0x1397 JUMP JUMPDEST SWAP1 POP SWAP3 POP SWAP3 POP SWAP3 JUMP JUMPDEST PUSH0 PUSH1 0x20 DUP3 DUP5 SUB SLT ISZERO PUSH2 0x13F4 JUMPI PUSH0 DUP1 REVERT JUMPDEST PUSH2 0x126D DUP3 PUSH2 0x1397 JUMP JUMPDEST PUSH0 PUSH1 0x20 DUP3 DUP5 SUB SLT ISZERO PUSH2 0x140D JUMPI PUSH0 DUP1 REVERT JUMPDEST POP CALLDATALOAD SWAP2 SWAP1 POP JUMP JUMPDEST PUSH0 DUP1 PUSH0 DUP1 PUSH1 0x80 DUP6 DUP8 SUB SLT ISZERO PUSH2 0x1427 JUMPI PUSH0 DUP1 REVERT JUMPDEST DUP5 CALLDATALOAD SWAP4 POP PUSH1 0x20 DUP6 ADD CALLDATALOAD SWAP3 POP PUSH1 0x40 DUP6 ADD CALLDATALOAD SWAP2 POP PUSH2 0x1445 PUSH1 0x60 DUP7 ADD PUSH2 0x1397 JUMP JUMPDEST SWAP1 POP SWAP3 SWAP6 SWAP2 SWAP5 POP SWAP3 POP JUMP JUMPDEST PUSH0 DUP1 PUSH1 0x40 DUP4 DUP6 SUB SLT ISZERO PUSH2 0x1461 JUMPI PUSH0 DUP1 REVERT JUMPDEST DUP3 CALLDATALOAD SWAP2 POP PUSH2 0x1471 PUSH1 0x20 DUP5 ADD PUSH2 0x1397 JUMP JUMPDEST SWAP1 POP SWAP3 POP SWAP3 SWAP1 POP JUMP JUMPDEST PUSH0 DUP1 PUSH1 0x40 DUP4 DUP6 SUB SLT ISZERO PUSH2 0x148B JUMPI PUSH0 DUP1 REVERT JUMPDEST PUSH2 0x1494 DUP4 PUSH2 0x1397 JUMP JUMPDEST SWAP5 PUSH1 0x20 SWAP4 SWAP1 SWAP4 ADD CALLDATALOAD SWAP4 POP POP POP JUMP JUMPDEST PUSH4 0x4E487B71 PUSH1 0xE0 SHL PUSH0 MSTORE PUSH1 0x11 PUSH1 0x4 MSTORE PUSH1 0x24 PUSH0 REVERT JUMPDEST PUSH0 PUSH1 0x1 DUP3 ADD PUSH2 0x14C7 JUMPI PUSH2 0x14C7 PUSH2 0x14A2 JUMP JUMPDEST POP PUSH1 0x1 ADD SWAP1 JUMP JUMPDEST DUP2 DUP2 SUB DUP2 DUP2 GT ISZERO PUSH2 0x4A6 JUMPI PUSH2 0x4A6 PUSH2 0x14A2 JUMP JUMPDEST PUSH0 PUSH1 0x20 DUP3 DUP5 SUB SLT ISZERO PUSH2 0x14F1 JUMPI PUSH0 DUP1 REVERT JUMPDEST DUP2 MLOAD DUP1 ISZERO ISZERO DUP2 EQ PUSH2 0x126D JUMPI PUSH0 DUP1 REVERT JUMPDEST PUSH0 PUSH1 0x20 DUP3 DUP5 SUB SLT ISZERO PUSH2 0x1510 JUMPI PUSH0 DUP1 REVERT JUMPDEST DUP2 MLOAD PUSH1 0xFF DUP2 AND DUP2 EQ PUSH2 0x126D JUMPI PUSH0 DUP1 REVERT JUMPDEST PUSH1 0xFF DUP3 DUP2 AND DUP3 DUP3 AND SUB SWAP1 DUP2 GT ISZERO PUSH2 0x4A6 JUMPI PUSH2 0x4A6 PUSH2 0x14A2 JUMP JUMPDEST PUSH1 0x1 DUP2 JUMPDEST PUSH1 0x1 DUP5 GT ISZERO PUSH2 0x1574 JUMPI DUP1 DUP6 DIV DUP2 GT ISZERO PUSH2 0x1558 JUMPI PUSH2 0x1558 PUSH2 0x14A2 JUMP JUMPDEST PUSH1 0x1 DUP5 AND ISZERO PUSH2 0x1566 JUMPI SWAP1 DUP2 MUL SWAP1 JUMPDEST PUSH1 0x1 SWAP4 SWAP1 SWAP4 SHR SWAP3 DUP1 MUL PUSH2 0x153D JUMP JUMPDEST SWAP4 POP SWAP4 SWAP2 POP POP JUMP JUMPDEST PUSH0 DUP3 PUSH2 0x158A JUMPI POP PUSH1 0x1 PUSH2 0x4A6 JUMP JUMPDEST DUP2 PUSH2 0x1596 JUMPI POP PUSH0 PUSH2 0x4A6 JUMP JUMPDEST DUP2 PUSH1 0x1 DUP2 EQ PUSH2 0x15AC JUMPI PUSH1 0x2 DUP2 EQ PUSH2 0x15B6 JUMPI PUSH2 0x15D2 JUMP JUMPDEST PUSH1 0x1 SWAP2 POP POP PUSH2 0x4A6 JUMP JUMPDEST PUSH1 0xFF DUP5 GT ISZERO PUSH2 0x15C7 JUMPI PUSH2 0x15C7 PUSH2 0x14A2 JUMP JUMPDEST POP POP PUSH1 0x1 DUP3 SHL PUSH2 0x4A6 JUMP JUMPDEST POP PUSH1 0x20 DUP4 LT PUSH2 0x133 DUP4 LT AND PUSH1 0x4E DUP5 LT PUSH1 0xB DUP5 LT AND OR ISZERO PUSH2 0x15F5 JUMPI POP DUP2 DUP2 EXP PUSH2 0x4A6 JUMP JUMPDEST PUSH2 0x1601 PUSH0 NOT DUP5 DUP5 PUSH2 0x1539 JUMP JUMPDEST DUP1 PUSH0 NOT DIV DUP3 GT ISZERO PUSH2 0x1614 JUMPI PUSH2 0x1614 PUSH2 0x14A2 JUMP JUMPDEST MUL SWAP4 SWAP3 POP POP POP JUMP JUMPDEST PUSH0 PUSH2 0x126D PUSH1 0xFF DUP5 AND DUP4 PUSH2 0x157C JUMP JUMPDEST DUP1 DUP3 MUL DUP2 ISZERO DUP3 DUP3 DIV DUP5 EQ OR PUSH2 0x4A6 JUMPI PUSH2 0x4A6 PUSH2 0x14A2 JUMP JUMPDEST PUSH4 0x4E487B71 PUSH1 0xE0 SHL PUSH0 MSTORE PUSH1 0x12 PUSH1 0x4 MSTORE PUSH1 0x24 PUSH0 REVERT JUMPDEST PUSH0 DUP3 PUSH2 0x1663 JUMPI PUSH2 0x1663 PUSH2 0x1641 JUMP JUMPDEST POP DIV SWAP1 JUMP JUMPDEST PUSH0 DUP3 PUSH2 0x1676 JUMPI PUSH2 0x1676 PUSH2 0x1641 JUMP JUMPDEST POP MOD SWAP1 JUMP JUMPDEST DUP1 DUP3 ADD DUP1 DUP3 GT ISZERO PUSH2 0x4A6 JUMPI PUSH2 0x4A6 PUSH2 0x14A2 JUMP INVALID LOG4 SWAP9 SMOD KECCAK256 TLOAD 0xE4 0xD3 SSTORE MULMOD 0x2E CREATE2 0xA8 LOG1 DUP16 JUMP 0xE8 SWAP2 EXTCODECOPY DELEGATECALL LOG2 ADD 0xFB 0xE2 DUP8 DUP3 JUMPDEST MULMOD JUMP SWAP4 0xC2 OR PUSH22 0xA2646970667358221220DC48AF6984076926F7567D87 DUP8 JUMPI PUSH6 0xC8F5B6D6F808 0xD 0x4C RETURNDATACOPY 0xD3 0xF9 PUSH29 0x9B3A8C067E64736F6C634300081A003300000000000000000000000000 "
				},
				"gasEstimates": {
					"creation": {
						"codeDepositCost": "1172000",
						"executionCost": "infinite",
						"totalCost": "infinite"
					},
					"external": {
						"ADMIN_ROLE()": "infinite",
						"CROSS_CHAIN_MINTER_ROLE()": "295",
						"DEFAULT_ADMIN_ROLE()": "249",
						"PAUSER_ROLE()": "271",
						"burnWeUSD(address,uint256)": "infinite",
						"burnWeUSDCrossChain(uint256,uint256,address)": "infinite",
						"deleteStablecoin(address)": "infinite",
						"feeRecipient()": "2403",
						"gasfee()": "2330",
						"getLatestRequestId()": "2347",
						"getRoleAdmin(bytes32)": "2545",
						"grantRole(bytes32,address)": "infinite",
						"hasRole(bytes32,address)": "2749",
						"isRequestIdUsed(uint256)": "2515",
						"mainContract()": "2391",
						"mintWeUSD(address,uint256)": "infinite",
						"mintWeUSDCrossChain(uint256,uint256,uint256,address)": "infinite",
						"pause()": "infinite",
						"paused()": "2414",
						"registerStablecoin(address)": "infinite",
						"registeredStablecoins(address)": "2573",
						"renounceRole(bytes32,address)": "29108",
						"requestCount()": "2372",
						"revokeRole(bytes32,address)": "infinite",
						"setFeeRecipient(address)": "infinite",
						"setGasfee(uint256)": "infinite",
						"supportsInterface(bytes4)": "503",
						"unpause()": "infinite",
						"usedRequestIds(uint256)": "2515",
						"weUSD()": "2447"
					},
					"internal": {
						"convertDecimals(uint256,uint8,uint8)": "infinite",
						"convertDecimalsCeil(uint256,uint8,uint8)": "infinite"
					}
				},
				"methodIdentifiers": {
					"ADMIN_ROLE()": "75b238fc",
					"CROSS_CHAIN_MINTER_ROLE()": "37174202",
					"DEFAULT_ADMIN_ROLE()": "a217fddf",
					"PAUSER_ROLE()": "e63ab1e9",
					"burnWeUSD(address,uint256)": "d19fad37",
					"burnWeUSDCrossChain(uint256,uint256,address)": "0bd31a57",
					"deleteStablecoin(address)": "1008776f",
					"feeRecipient()": "46904840",
					"gasfee()": "00677016",
					"getLatestRequestId()": "b190d8a3",
					"getRoleAdmin(bytes32)": "248a9ca3",
					"grantRole(bytes32,address)": "2f2ff15d",
					"hasRole(bytes32,address)": "91d14854",
					"isRequestIdUsed(uint256)": "1e7502d7",
					"mainContract()": "d270e7ab",
					"mintWeUSD(address,uint256)": "a2519ae4",
					"mintWeUSDCrossChain(uint256,uint256,uint256,address)": "1f224564",
					"pause()": "8456cb59",
					"paused()": "5c975abb",
					"registerStablecoin(address)": "c6400657",
					"registeredStablecoins(address)": "9ea4f3a4",
					"renounceRole(bytes32,address)": "36568abe",
					"requestCount()": "5badbe4c",
					"revokeRole(bytes32,address)": "d547741f",
					"setFeeRecipient(address)": "e74b981b",
					"setGasfee(uint256)": "c5494ffb",
					"supportsInterface(bytes4)": "01ffc9a7",
					"unpause()": "3f4ba83a",
					"usedRequestIds(uint256)": "2f92893c",
					"weUSD()": "a62e1b3e"
				}
			},
			"storageLayout": {
				"storage": [
					{
						"astId": 26,
						"contract": "contracts/weusd/manageusd.sol:weUSD_manager",
						"label": "_roles",
						"offset": 0,
						"slot": "0",
						"type": "t_mapping(t_bytes32,t_struct(RoleData)21_storage)"
					},
					{
						"astId": 521,
						"contract": "contracts/weusd/manageusd.sol:weUSD_manager",
						"label": "_paused",
						"offset": 0,
						"slot": "1",
						"type": "t_bool"
					},
					{
						"astId": 712,
						"contract": "contracts/weusd/manageusd.sol:weUSD_manager",
						"label": "mainContract",
						"offset": 1,
						"slot": "1",
						"type": "t_contract(IMainContract)677"
					},
					{
						"astId": 730,
						"contract": "contracts/weusd/manageusd.sol:weUSD_manager",
						"label": "weUSD",
						"offset": 0,
						"slot": "2",
						"type": "t_contract(IPicweUSD)697"
					},
					{
						"astId": 732,
						"contract": "contracts/weusd/manageusd.sol:weUSD_manager",
						"label": "requestCount",
						"offset": 0,
						"slot": "3",
						"type": "t_uint256"
					},
					{
						"astId": 741,
						"contract": "contracts/weusd/manageusd.sol:weUSD_manager",
						"label": "gasfee",
						"offset": 0,
						"slot": "4",
						"type": "t_uint256"
					},
					{
						"astId": 743,
						"contract": "contracts/weusd/manageusd.sol:weUSD_manager",
						"label": "feeRecipient",
						"offset": 0,
						"slot": "5",
						"type": "t_address"
					},
					{
						"astId": 747,
						"contract": "contracts/weusd/manageusd.sol:weUSD_manager",
						"label": "registeredStablecoins",
						"offset": 0,
						"slot": "6",
						"type": "t_mapping(t_address,t_bool)"
					},
					{
						"astId": 751,
						"contract": "contracts/weusd/manageusd.sol:weUSD_manager",
						"label": "usedRequestIds",
						"offset": 0,
						"slot": "7",
						"type": "t_mapping(t_uint256,t_bool)"
					}
				],
				"types": {
					"t_address": {
						"encoding": "inplace",
						"label": "address",
						"numberOfBytes": "20"
					},
					"t_bool": {
						"encoding": "inplace",
						"label": "bool",
						"numberOfBytes": "1"
					},
					"t_bytes32": {
						"encoding": "inplace",
						"label": "bytes32",
						"numberOfBytes": "32"
					},
					"t_contract(IMainContract)677": {
						"encoding": "inplace",
						"label": "contract IMainContract",
						"numberOfBytes": "20"
					},
					"t_contract(IPicweUSD)697": {
						"encoding": "inplace",
						"label": "contract IPicweUSD",
						"numberOfBytes": "20"
					},
					"t_mapping(t_address,t_bool)": {
						"encoding": "mapping",
						"key": "t_address",
						"label": "mapping(address => bool)",
						"numberOfBytes": "32",
						"value": "t_bool"
					},
					"t_mapping(t_bytes32,t_struct(RoleData)21_storage)": {
						"encoding": "mapping",
						"key": "t_bytes32",
						"label": "mapping(bytes32 => struct AccessControl.RoleData)",
						"numberOfBytes": "32",
						"value": "t_struct(RoleData)21_storage"
					},
					"t_mapping(t_uint256,t_bool)": {
						"encoding": "mapping",
						"key": "t_uint256",
						"label": "mapping(uint256 => bool)",
						"numberOfBytes": "32",
						"value": "t_bool"
					},
					"t_struct(RoleData)21_storage": {
						"encoding": "inplace",
						"label": "struct AccessControl.RoleData",
						"members": [
							{
								"astId": 18,
								"contract": "contracts/weusd/manageusd.sol:weUSD_manager",
								"label": "hasRole",
								"offset": 0,
								"slot": "0",
								"type": "t_mapping(t_address,t_bool)"
							},
							{
								"astId": 20,
								"contract": "contracts/weusd/manageusd.sol:weUSD_manager",
								"label": "adminRole",
								"offset": 0,
								"slot": "1",
								"type": "t_bytes32"
							}
						],
						"numberOfBytes": "64"
					},
					"t_uint256": {
						"encoding": "inplace",
						"label": "uint256",
						"numberOfBytes": "32"
					}
				}
			},
			"userdoc": {
				"kind": "user",
				"methods": {},
				"version": 1
			}
		}
	}
}