{
	"data": {
		"bytecode": {
			"linkReferences": {},
			"object": "608060405234801561000f575f80fd5b506040516114e73803806114e783398101604081905261002e9161016a565b600180546001600160a01b0319166001600160a01b0384161790556100535f336100a6565b5061007e7fa49807205ce4d355092ef5a8a18f56e8913cf4a201fbe287825b095693c21775336100a6565b506001600160a01b03165f908152600260205260409020805460ff191660011790555061019b565b5f828152602081815260408083206001600160a01b038516845290915281205460ff16610146575f838152602081815260408083206001600160a01b03861684529091529020805460ff191660011790556100fe3390565b6001600160a01b0316826001600160a01b0316847f2f8788117e7eff1d82e926ec794901d17c78024a50270940304540a733656f0d60405160405180910390a4506001610149565b505f5b92915050565b80516001600160a01b0381168114610165575f80fd5b919050565b5f806040838503121561017b575f80fd5b6101848361014f565b91506101926020840161014f565b90509250929050565b61133f806101a85f395ff3fe608060405234801561000f575f80fd5b5060043610610106575f3560e01c806375b238fc1161009e578063a2519ae41161006e578063a2519ae41461024d578063a62e1b3e14610260578063c64006571461028b578063d19fad371461029e578063d547741f146102b1575f80fd5b806375b238fc146101ea57806391d14854146102115780639ea4f3a414610224578063a217fddf14610246575f80fd5b8063248a9ca3116100d9578063248a9ca31461016d5780632f2ff15d1461019d57806336568abe146101b057806337174202146101c3575f80fd5b806301ffc9a71461010a5780630bd31a57146101325780631008776f146101475780631f2245641461015a575b5f80fd5b61011d610118366004610fff565b6102c4565b60405190151581526020015b60405180910390f35b610145610140366004611041565b6102fa565b005b610145610155366004611073565b6104c3565b61014561016836600461108c565b610536565b61018f61017b3660046110c8565b5f9081526020819052604090206001015490565b604051908152602001610129565b6101456101ab3660046110df565b610787565b6101456101be3660046110df565b6107b1565b61018f7f41de7ae3becaf069074d499ebcbd36df88385ba1e2946870f7e4674aecd4370481565b61018f7fa49807205ce4d355092ef5a8a18f56e8913cf4a201fbe287825b095693c2177581565b61011d61021f3660046110df565b6107e9565b61011d610232366004611073565b60026020525f908152604090205460ff1681565b61018f5f81565b61014561025b366004611109565b610811565b600154610273906001600160a01b031681565b6040516001600160a01b039091168152602001610129565b610145610299366004611073565b610a53565b6101456102ac366004611109565b610ac9565b6101456102bf3660046110df565b610db1565b5f6001600160e01b03198216637965db0b60e01b14806102f457506301ffc9a760e01b6001600160e01b03198316145b92915050565b4683036103675760405162461bcd60e51b815260206004820152603060248201527f54617267657420636861696e206d75737420626520646966666572656e74206660448201526f3937b69039b7bab931b29031b430b4b760811b60648201526084015b60405180910390fd5b5f82116103b65760405162461bcd60e51b815260206004820152601d60248201527f416d6f756e74206d7573742062652067726561746572207468616e2030000000604482015260640161035e565b6001600160a01b03811661040c5760405162461bcd60e51b815260206004820152601b60248201527f496e76616c696420746172676574207573657220616464726573730000000000604482015260640161035e565b60015460405163079cc67960e41b81523360048201526024810184905246916001600160a01b0316906379cc6790906044015f604051808303815f87803b158015610455575f80fd5b505af1158015610467573d5f803e3d5ffd5b505060408051848152602081018890529081018690526001600160a01b03851660608201523392507f80f6288ed2a1ed582fa31bf7afd09a34c0e276e3f22d733d2ec3cccee3e40b4d915060800160405180910390a250505050565b7fa49807205ce4d355092ef5a8a18f56e8913cf4a201fbe287825b095693c217756104ed81610dd5565b6001600160a01b0382165f81815260026020526040808220805460ff19169055517f0fa63555fe68cad70e08233633567493a3c74afdc8c7fb9f0c03a8e74f1a137a9190a25050565b7f41de7ae3becaf069074d499ebcbd36df88385ba1e2946870f7e4674aecd4370461056081610dd5565b4684146105c05760405162461bcd60e51b815260206004820152602860248201527f54617267657420636861696e204944206d757374206d61746368206375727265604482015267373a1031b430b4b760c11b606482015260840161035e565b8385036106285760405162461bcd60e51b815260206004820152603060248201527f536f7572636520636861696e206d75737420626520646966666572656e74206660448201526f3937b6903a30b933b2ba1031b430b4b760811b606482015260840161035e565b5f83116106775760405162461bcd60e51b815260206004820152601d60248201527f416d6f756e74206d7573742062652067726561746572207468616e2030000000604482015260640161035e565b6001600160a01b0382166106cd5760405162461bcd60e51b815260206004820152601b60248201527f496e76616c696420746172676574207573657220616464726573730000000000604482015260640161035e565b6001546040516340c10f1960e01b81526001600160a01b03848116600483015260248201869052909116906340c10f19906044015f604051808303815f87803b158015610718575f80fd5b505af115801561072a573d5f803e3d5ffd5b505060408051888152602081018890529081018690526001600160a01b03851660608201523392507f3c2b0e10e3dafc8ed97666c8bf350f7c91afe3eaacc164d6d2cde8a8afcda7cb915060800160405180910390a25050505050565b5f828152602081905260409020600101546107a181610dd5565b6107ab8383610de2565b50505050565b6001600160a01b03811633146107da5760405163334bd91960e11b815260040160405180910390fd5b6107e48282610e71565b505050565b5f918252602082815260408084206001600160a01b0393909316845291905290205460ff1690565b6001600160a01b0382165f9081526002602052604090205460ff166108745760405162461bcd60e51b815260206004820152601960248201527814dd18589b1958dbda5b881b9bdd081c9959da5cdd195c9959603a1b604482015260640161035e565b5f826001600160a01b031663313ce5676040518163ffffffff1660e01b8152600401602060405180830381865afa1580156108b1573d5f803e3d5ffd5b505050506040513d601f19601f820116820180604052508101906108d59190611131565b90505f6108e483836006610eda565b6040516323b872dd60e01b8152336004820152306024820152604481018590529091506001600160a01b038516906323b872dd906064016020604051808303815f875af1158015610937573d5f803e3d5ffd5b505050506040513d601f19601f8201168201806040525081019061095b9190611151565b6109a75760405162461bcd60e51b815260206004820152601a60248201527f537461626c65636f696e207472616e73666572206661696c6564000000000000604482015260640161035e565b6001546040516340c10f1960e01b8152336004820152602481018390526001600160a01b03909116906340c10f19906044015f604051808303815f87803b1580156109f0575f80fd5b505af1158015610a02573d5f803e3d5ffd5b505060408051868152602081018590526001600160a01b03881693503392507f66c62f0863782653c5c44e10bf21d9def60984ce20d9f75549575a891089658791015b60405180910390a350505050565b7fa49807205ce4d355092ef5a8a18f56e8913cf4a201fbe287825b095693c21775610a7d81610dd5565b6001600160a01b0382165f81815260026020526040808220805460ff19166001179055517fd8b2dc62b787ec8afbc8a664cf2fd7c1e7851721acc9e0069132cece3c529c2e9190a25050565b6001600160a01b0382165f9081526002602052604090205460ff16610b2c5760405162461bcd60e51b815260206004820152601960248201527814dd18589b1958dbda5b881b9bdd081c9959da5cdd195c9959603a1b604482015260640161035e565b5f826001600160a01b031663313ce5676040518163ffffffff1660e01b8152600401602060405180830381865afa158015610b69573d5f803e3d5ffd5b505050506040513d601f19601f82011682018060405250810190610b8d9190611131565b90505f610b9c83600684610f4c565b6040516370a0823160e01b815230600482015290915081906001600160a01b038616906370a0823190602401602060405180830381865afa158015610be3573d5f803e3d5ffd5b505050506040513d601f19601f82011682018060405250810190610c079190611170565b1015610c555760405162461bcd60e51b815260206004820152601f60248201527f496e73756666696369656e7420737461626c65636f696e2062616c616e636500604482015260640161035e565b60015460405163079cc67960e41b8152336004820152602481018590526001600160a01b03909116906379cc6790906044015f604051808303815f87803b158015610c9e575f80fd5b505af1158015610cb0573d5f803e3d5ffd5b505060405163a9059cbb60e01b8152336004820152602481018490526001600160a01b038716925063a9059cbb91506044016020604051808303815f875af1158015610cfe573d5f803e3d5ffd5b505050506040513d601f19601f82011682018060405250810190610d229190611151565b610d6e5760405162461bcd60e51b815260206004820152601a60248201527f537461626c65636f696e207472616e73666572206661696c6564000000000000604482015260640161035e565b60408051848152602081018390526001600160a01b0386169133917f3d9842cbdfa603ab9534d6e362bf28b3061318f57fed5e7087dfc956a9d744429101610a45565b5f82815260208190526040902060010154610dcb81610dd5565b6107ab8383610e71565b610ddf8133610fc2565b50565b5f610ded83836107e9565b610e6a575f838152602081815260408083206001600160a01b03861684529091529020805460ff19166001179055610e223390565b6001600160a01b0316826001600160a01b0316847f2f8788117e7eff1d82e926ec794901d17c78024a50270940304540a733656f0d60405160405180910390a45060016102f4565b505f6102f4565b5f610e7c83836107e9565b15610e6a575f838152602081815260408083206001600160a01b0386168085529252808320805460ff1916905551339286917ff6391f5c32d9c69d2a47ea670b442974b53935d1edc7fd64eb21e047a839171b9190a45060016102f4565b5f8160ff168360ff1603610eef575082610f45565b8160ff168360ff161015610f2357610f07838361119b565b610f1290600a611297565b610f1c90856112a5565b9050610f45565b610f2d828461119b565b610f3890600a611297565b610f4290856112d0565b90505b9392505050565b5f8160ff168360ff1603610f61575082610f45565b8160ff168360ff161015610f7957610f07838361119b565b5f610f84838561119b565b610f8f90600a611297565b9050610f9b81866112d0565b9150610fa781866112e3565b15610fba57610fb76001836112f6565b91505b509392505050565b610fcc82826107e9565b610ffb5760405163e2517d3f60e01b81526001600160a01b03821660048201526024810183905260440161035e565b5050565b5f6020828403121561100f575f80fd5b81356001600160e01b031981168114610f45575f80fd5b80356001600160a01b038116811461103c575f80fd5b919050565b5f805f60608486031215611053575f80fd5b833592506020840135915061106a60408501611026565b90509250925092565b5f60208284031215611083575f80fd5b610f4582611026565b5f805f806080858703121561109f575f80fd5b8435935060208501359250604085013591506110bd60608601611026565b905092959194509250565b5f602082840312156110d8575f80fd5b5035919050565b5f80604083850312156110f0575f80fd5b8235915061110060208401611026565b90509250929050565b5f806040838503121561111a575f80fd5b61112383611026565b946020939093013593505050565b5f60208284031215611141575f80fd5b815160ff81168114610f45575f80fd5b5f60208284031215611161575f80fd5b81518015158114610f45575f80fd5b5f60208284031215611180575f80fd5b5051919050565b634e487b7160e01b5f52601160045260245ffd5b60ff82811682821603908111156102f4576102f4611187565b6001815b60018411156111ef578085048111156111d3576111d3611187565b60018416156111e157908102905b60019390931c9280026111b8565b935093915050565b5f82611205575060016102f4565b8161121157505f6102f4565b816001811461122757600281146112315761124d565b60019150506102f4565b60ff84111561124257611242611187565b50506001821b6102f4565b5060208310610133831016604e8410600b8410161715611270575081810a6102f4565b61127c5f1984846111b4565b805f190482111561128f5761128f611187565b029392505050565b5f610f4560ff8416836111f7565b80820281158282048414176102f4576102f4611187565b634e487b7160e01b5f52601260045260245ffd5b5f826112de576112de6112bc565b500490565b5f826112f1576112f16112bc565b500690565b808201808211156102f4576102f461118756fea264697066735822122049546c710a5f075385412dddd600254f11b2e0927572a8c8213071451f20af4464736f6c634300081a0033",
			"opcodes": "PUSH1 0x80 PUSH1 0x40 MSTORE CALLVALUE DUP1 ISZERO PUSH2 0xF JUMPI PUSH0 DUP1 REVERT JUMPDEST POP PUSH1 0x40 MLOAD PUSH2 0x14E7 CODESIZE SUB DUP1 PUSH2 0x14E7 DUP4 CODECOPY DUP2 ADD PUSH1 0x40 DUP2 SWAP1 MSTORE PUSH2 0x2E SWAP2 PUSH2 0x16A JUMP JUMPDEST PUSH1 0x1 DUP1 SLOAD PUSH1 0x1 PUSH1 0x1 PUSH1 0xA0 SHL SUB NOT AND PUSH1 0x1 PUSH1 0x1 PUSH1 0xA0 SHL SUB DUP5 AND OR SWAP1 SSTORE PUSH2 0x53 PUSH0 CALLER PUSH2 0xA6 JUMP JUMPDEST POP PUSH2 0x7E PUSH32 0xA49807205CE4D355092EF5A8A18F56E8913CF4A201FBE287825B095693C21775 CALLER PUSH2 0xA6 JUMP JUMPDEST POP PUSH1 0x1 PUSH1 0x1 PUSH1 0xA0 SHL SUB AND PUSH0 SWAP1 DUP2 MSTORE PUSH1 0x2 PUSH1 0x20 MSTORE PUSH1 0x40 SWAP1 KECCAK256 DUP1 SLOAD PUSH1 0xFF NOT AND PUSH1 0x1 OR SWAP1 SSTORE POP PUSH2 0x19B JUMP JUMPDEST PUSH0 DUP3 DUP2 MSTORE PUSH1 0x20 DUP2 DUP2 MSTORE PUSH1 0x40 DUP1 DUP4 KECCAK256 PUSH1 0x1 PUSH1 0x1 PUSH1 0xA0 SHL SUB DUP6 AND DUP5 MSTORE SWAP1 SWAP2 MSTORE DUP2 KECCAK256 SLOAD PUSH1 0xFF AND PUSH2 0x146 JUMPI PUSH0 DUP4 DUP2 MSTORE PUSH1 0x20 DUP2 DUP2 MSTORE PUSH1 0x40 DUP1 DUP4 KECCAK256 PUSH1 0x1 PUSH1 0x1 PUSH1 0xA0 SHL SUB DUP7 AND DUP5 MSTORE SWAP1 SWAP2 MSTORE SWAP1 KECCAK256 DUP1 SLOAD PUSH1 0xFF NOT AND PUSH1 0x1 OR SWAP1 SSTORE PUSH2 0xFE CALLER SWAP1 JUMP JUMPDEST PUSH1 0x1 PUSH1 0x1 PUSH1 0xA0 SHL SUB AND DUP3 PUSH1 0x1 PUSH1 0x1 PUSH1 0xA0 SHL SUB AND DUP5 PUSH32 0x2F8788117E7EFF1D82E926EC794901D17C78024A50270940304540A733656F0D PUSH1 0x40 MLOAD PUSH1 0x40 MLOAD DUP1 SWAP2 SUB SWAP1 LOG4 POP PUSH1 0x1 PUSH2 0x149 JUMP JUMPDEST POP PUSH0 JUMPDEST SWAP3 SWAP2 POP POP JUMP JUMPDEST DUP1 MLOAD PUSH1 0x1 PUSH1 0x1 PUSH1 0xA0 SHL SUB DUP2 AND DUP2 EQ PUSH2 0x165 JUMPI PUSH0 DUP1 REVERT JUMPDEST SWAP2 SWAP1 POP JUMP JUMPDEST PUSH0 DUP1 PUSH1 0x40 DUP4 DUP6 SUB SLT ISZERO PUSH2 0x17B JUMPI PUSH0 DUP1 REVERT JUMPDEST PUSH2 0x184 DUP4 PUSH2 0x14F JUMP JUMPDEST SWAP2 POP PUSH2 0x192 PUSH1 0x20 DUP5 ADD PUSH2 0x14F JUMP JUMPDEST SWAP1 POP SWAP3 POP SWAP3 SWAP1 POP JUMP JUMPDEST PUSH2 0x133F DUP1 PUSH2 0x1A8 PUSH0 CODECOPY PUSH0 RETURN INVALID PUSH1 0x80 PUSH1 0x40 MSTORE CALLVALUE DUP1 ISZERO PUSH2 0xF JUMPI PUSH0 DUP1 REVERT JUMPDEST POP PUSH1 0x4 CALLDATASIZE LT PUSH2 0x106 JUMPI PUSH0 CALLDATALOAD PUSH1 0xE0 SHR DUP1 PUSH4 0x75B238FC GT PUSH2 0x9E JUMPI DUP1 PUSH4 0xA2519AE4 GT PUSH2 0x6E JUMPI DUP1 PUSH4 0xA2519AE4 EQ PUSH2 0x24D JUMPI DUP1 PUSH4 0xA62E1B3E EQ PUSH2 0x260 JUMPI DUP1 PUSH4 0xC6400657 EQ PUSH2 0x28B JUMPI DUP1 PUSH4 0xD19FAD37 EQ PUSH2 0x29E JUMPI DUP1 PUSH4 0xD547741F EQ PUSH2 0x2B1 JUMPI PUSH0 DUP1 REVERT JUMPDEST DUP1 PUSH4 0x75B238FC EQ PUSH2 0x1EA JUMPI DUP1 PUSH4 0x91D14854 EQ PUSH2 0x211 JUMPI DUP1 PUSH4 0x9EA4F3A4 EQ PUSH2 0x224 JUMPI DUP1 PUSH4 0xA217FDDF EQ PUSH2 0x246 JUMPI PUSH0 DUP1 REVERT JUMPDEST DUP1 PUSH4 0x248A9CA3 GT PUSH2 0xD9 JUMPI DUP1 PUSH4 0x248A9CA3 EQ PUSH2 0x16D JUMPI DUP1 PUSH4 0x2F2FF15D EQ PUSH2 0x19D JUMPI DUP1 PUSH4 0x36568ABE EQ PUSH2 0x1B0 JUMPI DUP1 PUSH4 0x37174202 EQ PUSH2 0x1C3 JUMPI PUSH0 DUP1 REVERT JUMPDEST DUP1 PUSH4 0x1FFC9A7 EQ PUSH2 0x10A JUMPI DUP1 PUSH4 0xBD31A57 EQ PUSH2 0x132 JUMPI DUP1 PUSH4 0x1008776F EQ PUSH2 0x147 JUMPI DUP1 PUSH4 0x1F224564 EQ PUSH2 0x15A JUMPI JUMPDEST PUSH0 DUP1 REVERT JUMPDEST PUSH2 0x11D PUSH2 0x118 CALLDATASIZE PUSH1 0x4 PUSH2 0xFFF JUMP JUMPDEST PUSH2 0x2C4 JUMP JUMPDEST PUSH1 0x40 MLOAD SWAP1 ISZERO ISZERO DUP2 MSTORE PUSH1 0x20 ADD JUMPDEST PUSH1 0x40 MLOAD DUP1 SWAP2 SUB SWAP1 RETURN JUMPDEST PUSH2 0x145 PUSH2 0x140 CALLDATASIZE PUSH1 0x4 PUSH2 0x1041 JUMP JUMPDEST PUSH2 0x2FA JUMP JUMPDEST STOP JUMPDEST PUSH2 0x145 PUSH2 0x155 CALLDATASIZE PUSH1 0x4 PUSH2 0x1073 JUMP JUMPDEST PUSH2 0x4C3 JUMP JUMPDEST PUSH2 0x145 PUSH2 0x168 CALLDATASIZE PUSH1 0x4 PUSH2 0x108C JUMP JUMPDEST PUSH2 0x536 JUMP JUMPDEST PUSH2 0x18F PUSH2 0x17B CALLDATASIZE PUSH1 0x4 PUSH2 0x10C8 JUMP JUMPDEST PUSH0 SWAP1 DUP2 MSTORE PUSH1 0x20 DUP2 SWAP1 MSTORE PUSH1 0x40 SWAP1 KECCAK256 PUSH1 0x1 ADD SLOAD SWAP1 JUMP JUMPDEST PUSH1 0x40 MLOAD SWAP1 DUP2 MSTORE PUSH1 0x20 ADD PUSH2 0x129 JUMP JUMPDEST PUSH2 0x145 PUSH2 0x1AB CALLDATASIZE PUSH1 0x4 PUSH2 0x10DF JUMP JUMPDEST PUSH2 0x787 JUMP JUMPDEST PUSH2 0x145 PUSH2 0x1BE CALLDATASIZE PUSH1 0x4 PUSH2 0x10DF JUMP JUMPDEST PUSH2 0x7B1 JUMP JUMPDEST PUSH2 0x18F PUSH32 0x41DE7AE3BECAF069074D499EBCBD36DF88385BA1E2946870F7E4674AECD43704 DUP2 JUMP JUMPDEST PUSH2 0x18F PUSH32 0xA49807205CE4D355092EF5A8A18F56E8913CF4A201FBE287825B095693C21775 DUP2 JUMP JUMPDEST PUSH2 0x11D PUSH2 0x21F CALLDATASIZE PUSH1 0x4 PUSH2 0x10DF JUMP JUMPDEST PUSH2 0x7E9 JUMP JUMPDEST PUSH2 0x11D PUSH2 0x232 CALLDATASIZE PUSH1 0x4 PUSH2 0x1073 JUMP JUMPDEST PUSH1 0x2 PUSH1 0x20 MSTORE PUSH0 SWAP1 DUP2 MSTORE PUSH1 0x40 SWAP1 KECCAK256 SLOAD PUSH1 0xFF AND DUP2 JUMP JUMPDEST PUSH2 0x18F PUSH0 DUP2 JUMP JUMPDEST PUSH2 0x145 PUSH2 0x25B CALLDATASIZE PUSH1 0x4 PUSH2 0x1109 JUMP JUMPDEST PUSH2 0x811 JUMP JUMPDEST PUSH1 0x1 SLOAD PUSH2 0x273 SWAP1 PUSH1 0x1 PUSH1 0x1 PUSH1 0xA0 SHL SUB AND DUP2 JUMP JUMPDEST PUSH1 0x40 MLOAD PUSH1 0x1 PUSH1 0x1 PUSH1 0xA0 SHL SUB SWAP1 SWAP2 AND DUP2 MSTORE PUSH1 0x20 ADD PUSH2 0x129 JUMP JUMPDEST PUSH2 0x145 PUSH2 0x299 CALLDATASIZE PUSH1 0x4 PUSH2 0x1073 JUMP JUMPDEST PUSH2 0xA53 JUMP JUMPDEST PUSH2 0x145 PUSH2 0x2AC CALLDATASIZE PUSH1 0x4 PUSH2 0x1109 JUMP JUMPDEST PUSH2 0xAC9 JUMP JUMPDEST PUSH2 0x145 PUSH2 0x2BF CALLDATASIZE PUSH1 0x4 PUSH2 0x10DF JUMP JUMPDEST PUSH2 0xDB1 JUMP JUMPDEST PUSH0 PUSH1 0x1 PUSH1 0x1 PUSH1 0xE0 SHL SUB NOT DUP3 AND PUSH4 0x7965DB0B PUSH1 0xE0 SHL EQ DUP1 PUSH2 0x2F4 JUMPI POP PUSH4 0x1FFC9A7 PUSH1 0xE0 SHL PUSH1 0x1 PUSH1 0x1 PUSH1 0xE0 SHL SUB NOT DUP4 AND EQ JUMPDEST SWAP3 SWAP2 POP POP JUMP JUMPDEST CHAINID DUP4 SUB PUSH2 0x367 JUMPI PUSH1 0x40 MLOAD PUSH3 0x461BCD PUSH1 0xE5 SHL DUP2 MSTORE PUSH1 0x20 PUSH1 0x4 DUP3 ADD MSTORE PUSH1 0x30 PUSH1 0x24 DUP3 ADD MSTORE PUSH32 0x54617267657420636861696E206D75737420626520646966666572656E742066 PUSH1 0x44 DUP3 ADD MSTORE PUSH16 0x3937B69039B7BAB931B29031B430B4B7 PUSH1 0x81 SHL PUSH1 0x64 DUP3 ADD MSTORE PUSH1 0x84 ADD JUMPDEST PUSH1 0x40 MLOAD DUP1 SWAP2 SUB SWAP1 REVERT JUMPDEST PUSH0 DUP3 GT PUSH2 0x3B6 JUMPI PUSH1 0x40 MLOAD PUSH3 0x461BCD PUSH1 0xE5 SHL DUP2 MSTORE PUSH1 0x20 PUSH1 0x4 DUP3 ADD MSTORE PUSH1 0x1D PUSH1 0x24 DUP3 ADD MSTORE PUSH32 0x416D6F756E74206D7573742062652067726561746572207468616E2030000000 PUSH1 0x44 DUP3 ADD MSTORE PUSH1 0x64 ADD PUSH2 0x35E JUMP JUMPDEST PUSH1 0x1 PUSH1 0x1 PUSH1 0xA0 SHL SUB DUP2 AND PUSH2 0x40C JUMPI PUSH1 0x40 MLOAD PUSH3 0x461BCD PUSH1 0xE5 SHL DUP2 MSTORE PUSH1 0x20 PUSH1 0x4 DUP3 ADD MSTORE PUSH1 0x1B PUSH1 0x24 DUP3 ADD MSTORE PUSH32 0x496E76616C696420746172676574207573657220616464726573730000000000 PUSH1 0x44 DUP3 ADD MSTORE PUSH1 0x64 ADD PUSH2 0x35E JUMP JUMPDEST PUSH1 0x1 SLOAD PUSH1 0x40 MLOAD PUSH4 0x79CC679 PUSH1 0xE4 SHL DUP2 MSTORE CALLER PUSH1 0x4 DUP3 ADD MSTORE PUSH1 0x24 DUP2 ADD DUP5 SWAP1 MSTORE CHAINID SWAP2 PUSH1 0x1 PUSH1 0x1 PUSH1 0xA0 SHL SUB AND SWAP1 PUSH4 0x79CC6790 SWAP1 PUSH1 0x44 ADD PUSH0 PUSH1 0x40 MLOAD DUP1 DUP4 SUB DUP2 PUSH0 DUP8 DUP1 EXTCODESIZE ISZERO DUP1 ISZERO PUSH2 0x455 JUMPI PUSH0 DUP1 REVERT JUMPDEST POP GAS CALL ISZERO DUP1 ISZERO PUSH2 0x467 JUMPI RETURNDATASIZE PUSH0 DUP1 RETURNDATACOPY RETURNDATASIZE PUSH0 REVERT JUMPDEST POP POP PUSH1 0x40 DUP1 MLOAD DUP5 DUP2 MSTORE PUSH1 0x20 DUP2 ADD DUP9 SWAP1 MSTORE SWAP1 DUP2 ADD DUP7 SWAP1 MSTORE PUSH1 0x1 PUSH1 0x1 PUSH1 0xA0 SHL SUB DUP6 AND PUSH1 0x60 DUP3 ADD MSTORE CALLER SWAP3 POP PUSH32 0x80F6288ED2A1ED582FA31BF7AFD09A34C0E276E3F22D733D2EC3CCCEE3E40B4D SWAP2 POP PUSH1 0x80 ADD PUSH1 0x40 MLOAD DUP1 SWAP2 SUB SWAP1 LOG2 POP POP POP POP JUMP JUMPDEST PUSH32 0xA49807205CE4D355092EF5A8A18F56E8913CF4A201FBE287825B095693C21775 PUSH2 0x4ED DUP2 PUSH2 0xDD5 JUMP JUMPDEST PUSH1 0x1 PUSH1 0x1 PUSH1 0xA0 SHL SUB DUP3 AND PUSH0 DUP2 DUP2 MSTORE PUSH1 0x2 PUSH1 0x20 MSTORE PUSH1 0x40 DUP1 DUP3 KECCAK256 DUP1 SLOAD PUSH1 0xFF NOT AND SWAP1 SSTORE MLOAD PUSH32 0xFA63555FE68CAD70E08233633567493A3C74AFDC8C7FB9F0C03A8E74F1A137A SWAP2 SWAP1 LOG2 POP POP JUMP JUMPDEST PUSH32 0x41DE7AE3BECAF069074D499EBCBD36DF88385BA1E2946870F7E4674AECD43704 PUSH2 0x560 DUP2 PUSH2 0xDD5 JUMP JUMPDEST CHAINID DUP5 EQ PUSH2 0x5C0 JUMPI PUSH1 0x40 MLOAD PUSH3 0x461BCD PUSH1 0xE5 SHL DUP2 MSTORE PUSH1 0x20 PUSH1 0x4 DUP3 ADD MSTORE PUSH1 0x28 PUSH1 0x24 DUP3 ADD MSTORE PUSH32 0x54617267657420636861696E204944206D757374206D61746368206375727265 PUSH1 0x44 DUP3 ADD MSTORE PUSH8 0x373A1031B430B4B7 PUSH1 0xC1 SHL PUSH1 0x64 DUP3 ADD MSTORE PUSH1 0x84 ADD PUSH2 0x35E JUMP JUMPDEST DUP4 DUP6 SUB PUSH2 0x628 JUMPI PUSH1 0x40 MLOAD PUSH3 0x461BCD PUSH1 0xE5 SHL DUP2 MSTORE PUSH1 0x20 PUSH1 0x4 DUP3 ADD MSTORE PUSH1 0x30 PUSH1 0x24 DUP3 ADD MSTORE PUSH32 0x536F7572636520636861696E206D75737420626520646966666572656E742066 PUSH1 0x44 DUP3 ADD MSTORE PUSH16 0x3937B6903A30B933B2BA1031B430B4B7 PUSH1 0x81 SHL PUSH1 0x64 DUP3 ADD MSTORE PUSH1 0x84 ADD PUSH2 0x35E JUMP JUMPDEST PUSH0 DUP4 GT PUSH2 0x677 JUMPI PUSH1 0x40 MLOAD PUSH3 0x461BCD PUSH1 0xE5 SHL DUP2 MSTORE PUSH1 0x20 PUSH1 0x4 DUP3 ADD MSTORE PUSH1 0x1D PUSH1 0x24 DUP3 ADD MSTORE PUSH32 0x416D6F756E74206D7573742062652067726561746572207468616E2030000000 PUSH1 0x44 DUP3 ADD MSTORE PUSH1 0x64 ADD PUSH2 0x35E JUMP JUMPDEST PUSH1 0x1 PUSH1 0x1 PUSH1 0xA0 SHL SUB DUP3 AND PUSH2 0x6CD JUMPI PUSH1 0x40 MLOAD PUSH3 0x461BCD PUSH1 0xE5 SHL DUP2 MSTORE PUSH1 0x20 PUSH1 0x4 DUP3 ADD MSTORE PUSH1 0x1B PUSH1 0x24 DUP3 ADD MSTORE PUSH32 0x496E76616C696420746172676574207573657220616464726573730000000000 PUSH1 0x44 DUP3 ADD MSTORE PUSH1 0x64 ADD PUSH2 0x35E JUMP JUMPDEST PUSH1 0x1 SLOAD PUSH1 0x40 MLOAD PUSH4 0x40C10F19 PUSH1 0xE0 SHL DUP2 MSTORE PUSH1 0x1 PUSH1 0x1 PUSH1 0xA0 SHL SUB DUP5 DUP2 AND PUSH1 0x4 DUP4 ADD MSTORE PUSH1 0x24 DUP3 ADD DUP7 SWAP1 MSTORE SWAP1 SWAP2 AND SWAP1 PUSH4 0x40C10F19 SWAP1 PUSH1 0x44 ADD PUSH0 PUSH1 0x40 MLOAD DUP1 DUP4 SUB DUP2 PUSH0 DUP8 DUP1 EXTCODESIZE ISZERO DUP1 ISZERO PUSH2 0x718 JUMPI PUSH0 DUP1 REVERT JUMPDEST POP GAS CALL ISZERO DUP1 ISZERO PUSH2 0x72A JUMPI RETURNDATASIZE PUSH0 DUP1 RETURNDATACOPY RETURNDATASIZE PUSH0 REVERT JUMPDEST POP POP PUSH1 0x40 DUP1 MLOAD DUP9 DUP2 MSTORE PUSH1 0x20 DUP2 ADD DUP9 SWAP1 MSTORE SWAP1 DUP2 ADD DUP7 SWAP1 MSTORE PUSH1 0x1 PUSH1 0x1 PUSH1 0xA0 SHL SUB DUP6 AND PUSH1 0x60 DUP3 ADD MSTORE CALLER SWAP3 POP PUSH32 0x3C2B0E10E3DAFC8ED97666C8BF350F7C91AFE3EAACC164D6D2CDE8A8AFCDA7CB SWAP2 POP PUSH1 0x80 ADD PUSH1 0x40 MLOAD DUP1 SWAP2 SUB SWAP1 LOG2 POP POP POP POP POP JUMP JUMPDEST PUSH0 DUP3 DUP2 MSTORE PUSH1 0x20 DUP2 SWAP1 MSTORE PUSH1 0x40 SWAP1 KECCAK256 PUSH1 0x1 ADD SLOAD PUSH2 0x7A1 DUP2 PUSH2 0xDD5 JUMP JUMPDEST PUSH2 0x7AB DUP4 DUP4 PUSH2 0xDE2 JUMP JUMPDEST POP POP POP POP JUMP JUMPDEST PUSH1 0x1 PUSH1 0x1 PUSH1 0xA0 SHL SUB DUP2 AND CALLER EQ PUSH2 0x7DA JUMPI PUSH1 0x40 MLOAD PUSH4 0x334BD919 PUSH1 0xE1 SHL DUP2 MSTORE PUSH1 0x4 ADD PUSH1 0x40 MLOAD DUP1 SWAP2 SUB SWAP1 REVERT JUMPDEST PUSH2 0x7E4 DUP3 DUP3 PUSH2 0xE71 JUMP JUMPDEST POP POP POP JUMP JUMPDEST PUSH0 SWAP2 DUP3 MSTORE PUSH1 0x20 DUP3 DUP2 MSTORE PUSH1 0x40 DUP1 DUP5 KECCAK256 PUSH1 0x1 PUSH1 0x1 PUSH1 0xA0 SHL SUB SWAP4 SWAP1 SWAP4 AND DUP5 MSTORE SWAP2 SWAP1 MSTORE SWAP1 KECCAK256 SLOAD PUSH1 0xFF AND SWAP1 JUMP JUMPDEST PUSH1 0x1 PUSH1 0x1 PUSH1 0xA0 SHL SUB DUP3 AND PUSH0 SWAP1 DUP2 MSTORE PUSH1 0x2 PUSH1 0x20 MSTORE PUSH1 0x40 SWAP1 KECCAK256 SLOAD PUSH1 0xFF AND PUSH2 0x874 JUMPI PUSH1 0x40 MLOAD PUSH3 0x461BCD PUSH1 0xE5 SHL DUP2 MSTORE PUSH1 0x20 PUSH1 0x4 DUP3 ADD MSTORE PUSH1 0x19 PUSH1 0x24 DUP3 ADD MSTORE PUSH25 0x14DD18589B1958DBDA5B881B9BDD081C9959DA5CDD195C9959 PUSH1 0x3A SHL PUSH1 0x44 DUP3 ADD MSTORE PUSH1 0x64 ADD PUSH2 0x35E JUMP JUMPDEST PUSH0 DUP3 PUSH1 0x1 PUSH1 0x1 PUSH1 0xA0 SHL SUB AND PUSH4 0x313CE567 PUSH1 0x40 MLOAD DUP2 PUSH4 0xFFFFFFFF AND PUSH1 0xE0 SHL DUP2 MSTORE PUSH1 0x4 ADD PUSH1 0x20 PUSH1 0x40 MLOAD DUP1 DUP4 SUB DUP2 DUP7 GAS STATICCALL ISZERO DUP1 ISZERO PUSH2 0x8B1 JUMPI RETURNDATASIZE PUSH0 DUP1 RETURNDATACOPY RETURNDATASIZE PUSH0 REVERT JUMPDEST POP POP POP POP PUSH1 0x40 MLOAD RETURNDATASIZE PUSH1 0x1F NOT PUSH1 0x1F DUP3 ADD AND DUP3 ADD DUP1 PUSH1 0x40 MSTORE POP DUP2 ADD SWAP1 PUSH2 0x8D5 SWAP2 SWAP1 PUSH2 0x1131 JUMP JUMPDEST SWAP1 POP PUSH0 PUSH2 0x8E4 DUP4 DUP4 PUSH1 0x6 PUSH2 0xEDA JUMP JUMPDEST PUSH1 0x40 MLOAD PUSH4 0x23B872DD PUSH1 0xE0 SHL DUP2 MSTORE CALLER PUSH1 0x4 DUP3 ADD MSTORE ADDRESS PUSH1 0x24 DUP3 ADD MSTORE PUSH1 0x44 DUP2 ADD DUP6 SWAP1 MSTORE SWAP1 SWAP2 POP PUSH1 0x1 PUSH1 0x1 PUSH1 0xA0 SHL SUB DUP6 AND SWAP1 PUSH4 0x23B872DD SWAP1 PUSH1 0x64 ADD PUSH1 0x20 PUSH1 0x40 MLOAD DUP1 DUP4 SUB DUP2 PUSH0 DUP8 GAS CALL ISZERO DUP1 ISZERO PUSH2 0x937 JUMPI RETURNDATASIZE PUSH0 DUP1 RETURNDATACOPY RETURNDATASIZE PUSH0 REVERT JUMPDEST POP POP POP POP PUSH1 0x40 MLOAD RETURNDATASIZE PUSH1 0x1F NOT PUSH1 0x1F DUP3 ADD AND DUP3 ADD DUP1 PUSH1 0x40 MSTORE POP DUP2 ADD SWAP1 PUSH2 0x95B SWAP2 SWAP1 PUSH2 0x1151 JUMP JUMPDEST PUSH2 0x9A7 JUMPI PUSH1 0x40 MLOAD PUSH3 0x461BCD PUSH1 0xE5 SHL DUP2 MSTORE PUSH1 0x20 PUSH1 0x4 DUP3 ADD MSTORE PUSH1 0x1A PUSH1 0x24 DUP3 ADD MSTORE PUSH32 0x537461626C65636F696E207472616E73666572206661696C6564000000000000 PUSH1 0x44 DUP3 ADD MSTORE PUSH1 0x64 ADD PUSH2 0x35E JUMP JUMPDEST PUSH1 0x1 SLOAD PUSH1 0x40 MLOAD PUSH4 0x40C10F19 PUSH1 0xE0 SHL DUP2 MSTORE CALLER PUSH1 0x4 DUP3 ADD MSTORE PUSH1 0x24 DUP2 ADD DUP4 SWAP1 MSTORE PUSH1 0x1 PUSH1 0x1 PUSH1 0xA0 SHL SUB SWAP1 SWAP2 AND SWAP1 PUSH4 0x40C10F19 SWAP1 PUSH1 0x44 ADD PUSH0 PUSH1 0x40 MLOAD DUP1 DUP4 SUB DUP2 PUSH0 DUP8 DUP1 EXTCODESIZE ISZERO DUP1 ISZERO PUSH2 0x9F0 JUMPI PUSH0 DUP1 REVERT JUMPDEST POP GAS CALL ISZERO DUP1 ISZERO PUSH2 0xA02 JUMPI RETURNDATASIZE PUSH0 DUP1 RETURNDATACOPY RETURNDATASIZE PUSH0 REVERT JUMPDEST POP POP PUSH1 0x40 DUP1 MLOAD DUP7 DUP2 MSTORE PUSH1 0x20 DUP2 ADD DUP6 SWAP1 MSTORE PUSH1 0x1 PUSH1 0x1 PUSH1 0xA0 SHL SUB DUP9 AND SWAP4 POP CALLER SWAP3 POP PUSH32 0x66C62F0863782653C5C44E10BF21D9DEF60984CE20D9F75549575A8910896587 SWAP2 ADD JUMPDEST PUSH1 0x40 MLOAD DUP1 SWAP2 SUB SWAP1 LOG3 POP POP POP POP JUMP JUMPDEST PUSH32 0xA49807205CE4D355092EF5A8A18F56E8913CF4A201FBE287825B095693C21775 PUSH2 0xA7D DUP2 PUSH2 0xDD5 JUMP JUMPDEST PUSH1 0x1 PUSH1 0x1 PUSH1 0xA0 SHL SUB DUP3 AND PUSH0 DUP2 DUP2 MSTORE PUSH1 0x2 PUSH1 0x20 MSTORE PUSH1 0x40 DUP1 DUP3 KECCAK256 DUP1 SLOAD PUSH1 0xFF NOT AND PUSH1 0x1 OR SWAP1 SSTORE MLOAD PUSH32 0xD8B2DC62B787EC8AFBC8A664CF2FD7C1E7851721ACC9E0069132CECE3C529C2E SWAP2 SWAP1 LOG2 POP POP JUMP JUMPDEST PUSH1 0x1 PUSH1 0x1 PUSH1 0xA0 SHL SUB DUP3 AND PUSH0 SWAP1 DUP2 MSTORE PUSH1 0x2 PUSH1 0x20 MSTORE PUSH1 0x40 SWAP1 KECCAK256 SLOAD PUSH1 0xFF AND PUSH2 0xB2C JUMPI PUSH1 0x40 MLOAD PUSH3 0x461BCD PUSH1 0xE5 SHL DUP2 MSTORE PUSH1 0x20 PUSH1 0x4 DUP3 ADD MSTORE PUSH1 0x19 PUSH1 0x24 DUP3 ADD MSTORE PUSH25 0x14DD18589B1958DBDA5B881B9BDD081C9959DA5CDD195C9959 PUSH1 0x3A SHL PUSH1 0x44 DUP3 ADD MSTORE PUSH1 0x64 ADD PUSH2 0x35E JUMP JUMPDEST PUSH0 DUP3 PUSH1 0x1 PUSH1 0x1 PUSH1 0xA0 SHL SUB AND PUSH4 0x313CE567 PUSH1 0x40 MLOAD DUP2 PUSH4 0xFFFFFFFF AND PUSH1 0xE0 SHL DUP2 MSTORE PUSH1 0x4 ADD PUSH1 0x20 PUSH1 0x40 MLOAD DUP1 DUP4 SUB DUP2 DUP7 GAS STATICCALL ISZERO DUP1 ISZERO PUSH2 0xB69 JUMPI RETURNDATASIZE PUSH0 DUP1 RETURNDATACOPY RETURNDATASIZE PUSH0 REVERT JUMPDEST POP POP POP POP PUSH1 0x40 MLOAD RETURNDATASIZE PUSH1 0x1F NOT PUSH1 0x1F DUP3 ADD AND DUP3 ADD DUP1 PUSH1 0x40 MSTORE POP DUP2 ADD SWAP1 PUSH2 0xB8D SWAP2 SWAP1 PUSH2 0x1131 JUMP JUMPDEST SWAP1 POP PUSH0 PUSH2 0xB9C DUP4 PUSH1 0x6 DUP5 PUSH2 0xF4C JUMP JUMPDEST PUSH1 0x40 MLOAD PUSH4 0x70A08231 PUSH1 0xE0 SHL DUP2 MSTORE ADDRESS PUSH1 0x4 DUP3 ADD MSTORE SWAP1 SWAP2 POP DUP2 SWAP1 PUSH1 0x1 PUSH1 0x1 PUSH1 0xA0 SHL SUB DUP7 AND SWAP1 PUSH4 0x70A08231 SWAP1 PUSH1 0x24 ADD PUSH1 0x20 PUSH1 0x40 MLOAD DUP1 DUP4 SUB DUP2 DUP7 GAS STATICCALL ISZERO DUP1 ISZERO PUSH2 0xBE3 JUMPI RETURNDATASIZE PUSH0 DUP1 RETURNDATACOPY RETURNDATASIZE PUSH0 REVERT JUMPDEST POP POP POP POP PUSH1 0x40 MLOAD RETURNDATASIZE PUSH1 0x1F NOT PUSH1 0x1F DUP3 ADD AND DUP3 ADD DUP1 PUSH1 0x40 MSTORE POP DUP2 ADD SWAP1 PUSH2 0xC07 SWAP2 SWAP1 PUSH2 0x1170 JUMP JUMPDEST LT ISZERO PUSH2 0xC55 JUMPI PUSH1 0x40 MLOAD PUSH3 0x461BCD PUSH1 0xE5 SHL DUP2 MSTORE PUSH1 0x20 PUSH1 0x4 DUP3 ADD MSTORE PUSH1 0x1F PUSH1 0x24 DUP3 ADD MSTORE PUSH32 0x496E73756666696369656E7420737461626C65636F696E2062616C616E636500 PUSH1 0x44 DUP3 ADD MSTORE PUSH1 0x64 ADD PUSH2 0x35E JUMP JUMPDEST PUSH1 0x1 SLOAD PUSH1 0x40 MLOAD PUSH4 0x79CC679 PUSH1 0xE4 SHL DUP2 MSTORE CALLER PUSH1 0x4 DUP3 ADD MSTORE PUSH1 0x24 DUP2 ADD DUP6 SWAP1 MSTORE PUSH1 0x1 PUSH1 0x1 PUSH1 0xA0 SHL SUB SWAP1 SWAP2 AND SWAP1 PUSH4 0x79CC6790 SWAP1 PUSH1 0x44 ADD PUSH0 PUSH1 0x40 MLOAD DUP1 DUP4 SUB DUP2 PUSH0 DUP8 DUP1 EXTCODESIZE ISZERO DUP1 ISZERO PUSH2 0xC9E JUMPI PUSH0 DUP1 REVERT JUMPDEST POP GAS CALL ISZERO DUP1 ISZERO PUSH2 0xCB0 JUMPI RETURNDATASIZE PUSH0 DUP1 RETURNDATACOPY RETURNDATASIZE PUSH0 REVERT JUMPDEST POP POP PUSH1 0x40 MLOAD PUSH4 0xA9059CBB PUSH1 0xE0 SHL DUP2 MSTORE CALLER PUSH1 0x4 DUP3 ADD MSTORE PUSH1 0x24 DUP2 ADD DUP5 SWAP1 MSTORE PUSH1 0x1 PUSH1 0x1 PUSH1 0xA0 SHL SUB DUP8 AND SWAP3 POP PUSH4 0xA9059CBB SWAP2 POP PUSH1 0x44 ADD PUSH1 0x20 PUSH1 0x40 MLOAD DUP1 DUP4 SUB DUP2 PUSH0 DUP8 GAS CALL ISZERO DUP1 ISZERO PUSH2 0xCFE JUMPI RETURNDATASIZE PUSH0 DUP1 RETURNDATACOPY RETURNDATASIZE PUSH0 REVERT JUMPDEST POP POP POP POP PUSH1 0x40 MLOAD RETURNDATASIZE PUSH1 0x1F NOT PUSH1 0x1F DUP3 ADD AND DUP3 ADD DUP1 PUSH1 0x40 MSTORE POP DUP2 ADD SWAP1 PUSH2 0xD22 SWAP2 SWAP1 PUSH2 0x1151 JUMP JUMPDEST PUSH2 0xD6E JUMPI PUSH1 0x40 MLOAD PUSH3 0x461BCD PUSH1 0xE5 SHL DUP2 MSTORE PUSH1 0x20 PUSH1 0x4 DUP3 ADD MSTORE PUSH1 0x1A PUSH1 0x24 DUP3 ADD MSTORE PUSH32 0x537461626C65636F696E207472616E73666572206661696C6564000000000000 PUSH1 0x44 DUP3 ADD MSTORE PUSH1 0x64 ADD PUSH2 0x35E JUMP JUMPDEST PUSH1 0x40 DUP1 MLOAD DUP5 DUP2 MSTORE PUSH1 0x20 DUP2 ADD DUP4 SWAP1 MSTORE PUSH1 0x1 PUSH1 0x1 PUSH1 0xA0 SHL SUB DUP7 AND SWAP2 CALLER SWAP2 PUSH32 0x3D9842CBDFA603AB9534D6E362BF28B3061318F57FED5E7087DFC956A9D74442 SWAP2 ADD PUSH2 0xA45 JUMP JUMPDEST PUSH0 DUP3 DUP2 MSTORE PUSH1 0x20 DUP2 SWAP1 MSTORE PUSH1 0x40 SWAP1 KECCAK256 PUSH1 0x1 ADD SLOAD PUSH2 0xDCB DUP2 PUSH2 0xDD5 JUMP JUMPDEST PUSH2 0x7AB DUP4 DUP4 PUSH2 0xE71 JUMP JUMPDEST PUSH2 0xDDF DUP2 CALLER PUSH2 0xFC2 JUMP JUMPDEST POP JUMP JUMPDEST PUSH0 PUSH2 0xDED DUP4 DUP4 PUSH2 0x7E9 JUMP JUMPDEST PUSH2 0xE6A JUMPI PUSH0 DUP4 DUP2 MSTORE PUSH1 0x20 DUP2 DUP2 MSTORE PUSH1 0x40 DUP1 DUP4 KECCAK256 PUSH1 0x1 PUSH1 0x1 PUSH1 0xA0 SHL SUB DUP7 AND DUP5 MSTORE SWAP1 SWAP2 MSTORE SWAP1 KECCAK256 DUP1 SLOAD PUSH1 0xFF NOT AND PUSH1 0x1 OR SWAP1 SSTORE PUSH2 0xE22 CALLER SWAP1 JUMP JUMPDEST PUSH1 0x1 PUSH1 0x1 PUSH1 0xA0 SHL SUB AND DUP3 PUSH1 0x1 PUSH1 0x1 PUSH1 0xA0 SHL SUB AND DUP5 PUSH32 0x2F8788117E7EFF1D82E926EC794901D17C78024A50270940304540A733656F0D PUSH1 0x40 MLOAD PUSH1 0x40 MLOAD DUP1 SWAP2 SUB SWAP1 LOG4 POP PUSH1 0x1 PUSH2 0x2F4 JUMP JUMPDEST POP PUSH0 PUSH2 0x2F4 JUMP JUMPDEST PUSH0 PUSH2 0xE7C DUP4 DUP4 PUSH2 0x7E9 JUMP JUMPDEST ISZERO PUSH2 0xE6A JUMPI PUSH0 DUP4 DUP2 MSTORE PUSH1 0x20 DUP2 DUP2 MSTORE PUSH1 0x40 DUP1 DUP4 KECCAK256 PUSH1 0x1 PUSH1 0x1 PUSH1 0xA0 SHL SUB DUP7 AND DUP1 DUP6 MSTORE SWAP3 MSTORE DUP1 DUP4 KECCAK256 DUP1 SLOAD PUSH1 0xFF NOT AND SWAP1 SSTORE MLOAD CALLER SWAP3 DUP7 SWAP2 PUSH32 0xF6391F5C32D9C69D2A47EA670B442974B53935D1EDC7FD64EB21E047A839171B SWAP2 SWAP1 LOG4 POP PUSH1 0x1 PUSH2 0x2F4 JUMP JUMPDEST PUSH0 DUP2 PUSH1 0xFF AND DUP4 PUSH1 0xFF AND SUB PUSH2 0xEEF JUMPI POP DUP3 PUSH2 0xF45 JUMP JUMPDEST DUP2 PUSH1 0xFF AND DUP4 PUSH1 0xFF AND LT ISZERO PUSH2 0xF23 JUMPI PUSH2 0xF07 DUP4 DUP4 PUSH2 0x119B JUMP JUMPDEST PUSH2 0xF12 SWAP1 PUSH1 0xA PUSH2 0x1297 JUMP JUMPDEST PUSH2 0xF1C SWAP1 DUP6 PUSH2 0x12A5 JUMP JUMPDEST SWAP1 POP PUSH2 0xF45 JUMP JUMPDEST PUSH2 0xF2D DUP3 DUP5 PUSH2 0x119B JUMP JUMPDEST PUSH2 0xF38 SWAP1 PUSH1 0xA PUSH2 0x1297 JUMP JUMPDEST PUSH2 0xF42 SWAP1 DUP6 PUSH2 0x12D0 JUMP JUMPDEST SWAP1 POP JUMPDEST SWAP4 SWAP3 POP POP POP JUMP JUMPDEST PUSH0 DUP2 PUSH1 0xFF AND DUP4 PUSH1 0xFF AND SUB PUSH2 0xF61 JUMPI POP DUP3 PUSH2 0xF45 JUMP JUMPDEST DUP2 PUSH1 0xFF AND DUP4 PUSH1 0xFF AND LT ISZERO PUSH2 0xF79 JUMPI PUSH2 0xF07 DUP4 DUP4 PUSH2 0x119B JUMP JUMPDEST PUSH0 PUSH2 0xF84 DUP4 DUP6 PUSH2 0x119B JUMP JUMPDEST PUSH2 0xF8F SWAP1 PUSH1 0xA PUSH2 0x1297 JUMP JUMPDEST SWAP1 POP PUSH2 0xF9B DUP2 DUP7 PUSH2 0x12D0 JUMP JUMPDEST SWAP2 POP PUSH2 0xFA7 DUP2 DUP7 PUSH2 0x12E3 JUMP JUMPDEST ISZERO PUSH2 0xFBA JUMPI PUSH2 0xFB7 PUSH1 0x1 DUP4 PUSH2 0x12F6 JUMP JUMPDEST SWAP2 POP JUMPDEST POP SWAP4 SWAP3 POP POP POP JUMP JUMPDEST PUSH2 0xFCC DUP3 DUP3 PUSH2 0x7E9 JUMP JUMPDEST PUSH2 0xFFB JUMPI PUSH1 0x40 MLOAD PUSH4 0xE2517D3F PUSH1 0xE0 SHL DUP2 MSTORE PUSH1 0x1 PUSH1 0x1 PUSH1 0xA0 SHL SUB DUP3 AND PUSH1 0x4 DUP3 ADD MSTORE PUSH1 0x24 DUP2 ADD DUP4 SWAP1 MSTORE PUSH1 0x44 ADD PUSH2 0x35E JUMP JUMPDEST POP POP JUMP JUMPDEST PUSH0 PUSH1 0x20 DUP3 DUP5 SUB SLT ISZERO PUSH2 0x100F JUMPI PUSH0 DUP1 REVERT JUMPDEST DUP2 CALLDATALOAD PUSH1 0x1 PUSH1 0x1 PUSH1 0xE0 SHL SUB NOT DUP2 AND DUP2 EQ PUSH2 0xF45 JUMPI PUSH0 DUP1 REVERT JUMPDEST DUP1 CALLDATALOAD PUSH1 0x1 PUSH1 0x1 PUSH1 0xA0 SHL SUB DUP2 AND DUP2 EQ PUSH2 0x103C JUMPI PUSH0 DUP1 REVERT JUMPDEST SWAP2 SWAP1 POP JUMP JUMPDEST PUSH0 DUP1 PUSH0 PUSH1 0x60 DUP5 DUP7 SUB SLT ISZERO PUSH2 0x1053 JUMPI PUSH0 DUP1 REVERT JUMPDEST DUP4 CALLDATALOAD SWAP3 POP PUSH1 0x20 DUP5 ADD CALLDATALOAD SWAP2 POP PUSH2 0x106A PUSH1 0x40 DUP6 ADD PUSH2 0x1026 JUMP JUMPDEST SWAP1 POP SWAP3 POP SWAP3 POP SWAP3 JUMP JUMPDEST PUSH0 PUSH1 0x20 DUP3 DUP5 SUB SLT ISZERO PUSH2 0x1083 JUMPI PUSH0 DUP1 REVERT JUMPDEST PUSH2 0xF45 DUP3 PUSH2 0x1026 JUMP JUMPDEST PUSH0 DUP1 PUSH0 DUP1 PUSH1 0x80 DUP6 DUP8 SUB SLT ISZERO PUSH2 0x109F JUMPI PUSH0 DUP1 REVERT JUMPDEST DUP5 CALLDATALOAD SWAP4 POP PUSH1 0x20 DUP6 ADD CALLDATALOAD SWAP3 POP PUSH1 0x40 DUP6 ADD CALLDATALOAD SWAP2 POP PUSH2 0x10BD PUSH1 0x60 DUP7 ADD PUSH2 0x1026 JUMP JUMPDEST SWAP1 POP SWAP3 SWAP6 SWAP2 SWAP5 POP SWAP3 POP JUMP JUMPDEST PUSH0 PUSH1 0x20 DUP3 DUP5 SUB SLT ISZERO PUSH2 0x10D8 JUMPI PUSH0 DUP1 REVERT JUMPDEST POP CALLDATALOAD SWAP2 SWAP1 POP JUMP JUMPDEST PUSH0 DUP1 PUSH1 0x40 DUP4 DUP6 SUB SLT ISZERO PUSH2 0x10F0 JUMPI PUSH0 DUP1 REVERT JUMPDEST DUP3 CALLDATALOAD SWAP2 POP PUSH2 0x1100 PUSH1 0x20 DUP5 ADD PUSH2 0x1026 JUMP JUMPDEST SWAP1 POP SWAP3 POP SWAP3 SWAP1 POP JUMP JUMPDEST PUSH0 DUP1 PUSH1 0x40 DUP4 DUP6 SUB SLT ISZERO PUSH2 0x111A JUMPI PUSH0 DUP1 REVERT JUMPDEST PUSH2 0x1123 DUP4 PUSH2 0x1026 JUMP JUMPDEST SWAP5 PUSH1 0x20 SWAP4 SWAP1 SWAP4 ADD CALLDATALOAD SWAP4 POP POP POP JUMP JUMPDEST PUSH0 PUSH1 0x20 DUP3 DUP5 SUB SLT ISZERO PUSH2 0x1141 JUMPI PUSH0 DUP1 REVERT JUMPDEST DUP2 MLOAD PUSH1 0xFF DUP2 AND DUP2 EQ PUSH2 0xF45 JUMPI PUSH0 DUP1 REVERT JUMPDEST PUSH0 PUSH1 0x20 DUP3 DUP5 SUB SLT ISZERO PUSH2 0x1161 JUMPI PUSH0 DUP1 REVERT JUMPDEST DUP2 MLOAD DUP1 ISZERO ISZERO DUP2 EQ PUSH2 0xF45 JUMPI PUSH0 DUP1 REVERT JUMPDEST PUSH0 PUSH1 0x20 DUP3 DUP5 SUB SLT ISZERO PUSH2 0x1180 JUMPI PUSH0 DUP1 REVERT JUMPDEST POP MLOAD SWAP2 SWAP1 POP JUMP JUMPDEST PUSH4 0x4E487B71 PUSH1 0xE0 SHL PUSH0 MSTORE PUSH1 0x11 PUSH1 0x4 MSTORE PUSH1 0x24 PUSH0 REVERT JUMPDEST PUSH1 0xFF DUP3 DUP2 AND DUP3 DUP3 AND SUB SWAP1 DUP2 GT ISZERO PUSH2 0x2F4 JUMPI PUSH2 0x2F4 PUSH2 0x1187 JUMP JUMPDEST PUSH1 0x1 DUP2 JUMPDEST PUSH1 0x1 DUP5 GT ISZERO PUSH2 0x11EF JUMPI DUP1 DUP6 DIV DUP2 GT ISZERO PUSH2 0x11D3 JUMPI PUSH2 0x11D3 PUSH2 0x1187 JUMP JUMPDEST PUSH1 0x1 DUP5 AND ISZERO PUSH2 0x11E1 JUMPI SWAP1 DUP2 MUL SWAP1 JUMPDEST PUSH1 0x1 SWAP4 SWAP1 SWAP4 SHR SWAP3 DUP1 MUL PUSH2 0x11B8 JUMP JUMPDEST SWAP4 POP SWAP4 SWAP2 POP POP JUMP JUMPDEST PUSH0 DUP3 PUSH2 0x1205 JUMPI POP PUSH1 0x1 PUSH2 0x2F4 JUMP JUMPDEST DUP2 PUSH2 0x1211 JUMPI POP PUSH0 PUSH2 0x2F4 JUMP JUMPDEST DUP2 PUSH1 0x1 DUP2 EQ PUSH2 0x1227 JUMPI PUSH1 0x2 DUP2 EQ PUSH2 0x1231 JUMPI PUSH2 0x124D JUMP JUMPDEST PUSH1 0x1 SWAP2 POP POP PUSH2 0x2F4 JUMP JUMPDEST PUSH1 0xFF DUP5 GT ISZERO PUSH2 0x1242 JUMPI PUSH2 0x1242 PUSH2 0x1187 JUMP JUMPDEST POP POP PUSH1 0x1 DUP3 SHL PUSH2 0x2F4 JUMP JUMPDEST POP PUSH1 0x20 DUP4 LT PUSH2 0x133 DUP4 LT AND PUSH1 0x4E DUP5 LT PUSH1 0xB DUP5 LT AND OR ISZERO PUSH2 0x1270 JUMPI POP DUP2 DUP2 EXP PUSH2 0x2F4 JUMP JUMPDEST PUSH2 0x127C PUSH0 NOT DUP5 DUP5 PUSH2 0x11B4 JUMP JUMPDEST DUP1 PUSH0 NOT DIV DUP3 GT ISZERO PUSH2 0x128F JUMPI PUSH2 0x128F PUSH2 0x1187 JUMP JUMPDEST MUL SWAP4 SWAP3 POP POP POP JUMP JUMPDEST PUSH0 PUSH2 0xF45 PUSH1 0xFF DUP5 AND DUP4 PUSH2 0x11F7 JUMP JUMPDEST DUP1 DUP3 MUL DUP2 ISZERO DUP3 DUP3 DIV DUP5 EQ OR PUSH2 0x2F4 JUMPI PUSH2 0x2F4 PUSH2 0x1187 JUMP JUMPDEST PUSH4 0x4E487B71 PUSH1 0xE0 SHL PUSH0 MSTORE PUSH1 0x12 PUSH1 0x4 MSTORE PUSH1 0x24 PUSH0 REVERT JUMPDEST PUSH0 DUP3 PUSH2 0x12DE JUMPI PUSH2 0x12DE PUSH2 0x12BC JUMP JUMPDEST POP DIV SWAP1 JUMP JUMPDEST PUSH0 DUP3 PUSH2 0x12F1 JUMPI PUSH2 0x12F1 PUSH2 0x12BC JUMP JUMPDEST POP MOD SWAP1 JUMP JUMPDEST DUP1 DUP3 ADD DUP1 DUP3 GT ISZERO PUSH2 0x2F4 JUMPI PUSH2 0x2F4 PUSH2 0x1187 JUMP INVALID LOG2 PUSH5 0x6970667358 0x22 SLT KECCAK256 BLOBHASH SLOAD PUSH13 0x710A5F075385412DDDD600254F GT 0xB2 0xE0 SWAP3 PUSH22 0x72A8C8213071451F20AF4464736F6C634300081A0033 "
		},
		"gasEstimates": {
			"creation": {
				"codeDepositCost": "985400",
				"executionCost": "infinite",
				"totalCost": "infinite"
			},
			"external": {
				"ADMIN_ROLE()": "217",
				"CROSS_CHAIN_MINTER_ROLE()": "283",
				"DEFAULT_ADMIN_ROLE()": "282",
				"burnWeUSD(address,uint256)": "infinite",
				"burnWeUSDCrossChain(uint256,uint256,address)": "infinite",
				"deleteStablecoin(address)": "28195",
				"getRoleAdmin(bytes32)": "2467",
				"grantRole(bytes32,address)": "infinite",
				"hasRole(bytes32,address)": "2693",
				"mintWeUSD(address,uint256)": "infinite",
				"mintWeUSDCrossChain(uint256,uint256,uint256,address)": "infinite",
				"registerStablecoin(address)": "28199",
				"registeredStablecoins(address)": "2584",
				"renounceRole(bytes32,address)": "29085",
				"revokeRole(bytes32,address)": "infinite",
				"supportsInterface(bytes4)": "447",
				"weUSD()": "2380"
			},
			"internal": {
				"convertDecimals(uint256,uint8,uint8)": "infinite",
				"convertDecimalsCeil(uint256,uint8,uint8)": "infinite"
			}
		},
		"methodIdentifiers": {
			"ADMIN_ROLE()": "75b238fc",
			"CROSS_CHAIN_MINTER_ROLE()": "37174202",
			"DEFAULT_ADMIN_ROLE()": "a217fddf",
			"burnWeUSD(address,uint256)": "d19fad37",
			"burnWeUSDCrossChain(uint256,uint256,address)": "0bd31a57",
			"deleteStablecoin(address)": "1008776f",
			"getRoleAdmin(bytes32)": "248a9ca3",
			"grantRole(bytes32,address)": "2f2ff15d",
			"hasRole(bytes32,address)": "91d14854",
			"mintWeUSD(address,uint256)": "a2519ae4",
			"mintWeUSDCrossChain(uint256,uint256,uint256,address)": "1f224564",
			"registerStablecoin(address)": "c6400657",
			"registeredStablecoins(address)": "9ea4f3a4",
			"renounceRole(bytes32,address)": "36568abe",
			"revokeRole(bytes32,address)": "d547741f",
			"supportsInterface(bytes4)": "01ffc9a7",
			"weUSD()": "a62e1b3e"
		}
	},
	"abi": [
		{
			"inputs": [
				{
					"internalType": "address",
					"name": "_weUSD",
					"type": "address"
				},
				{
					"internalType": "address",
					"name": "_stablecoin",
					"type": "address"
				}
			],
			"stateMutability": "nonpayable",
			"type": "constructor"
		},
		{
			"inputs": [],
			"name": "AccessControlBadConfirmation",
			"type": "error"
		},
		{
			"inputs": [
				{
					"internalType": "address",
					"name": "account",
					"type": "address"
				},
				{
					"internalType": "bytes32",
					"name": "neededRole",
					"type": "bytes32"
				}
			],
			"name": "AccessControlUnauthorizedAccount",
			"type": "error"
		},
		{
			"anonymous": false,
			"inputs": [
				{
					"indexed": true,
					"internalType": "address",
					"name": "user",
					"type": "address"
				},
				{
					"indexed": true,
					"internalType": "address",
					"name": "stablecoin",
					"type": "address"
				},
				{
					"indexed": false,
					"internalType": "uint256",
					"name": "weUSDAmount",
					"type": "uint256"
				},
				{
					"indexed": false,
					"internalType": "uint256",
					"name": "stablecoinAmount",
					"type": "uint256"
				}
			],
			"name": "BurnedWeUSD",
			"type": "event"
		},
		{
			"anonymous": false,
			"inputs": [
				{
					"indexed": true,
					"internalType": "address",
					"name": "user",
					"type": "address"
				},
				{
					"indexed": false,
					"internalType": "uint256",
					"name": "sourceChainId",
					"type": "uint256"
				},
				{
					"indexed": false,
					"internalType": "uint256",
					"name": "targetChainId",
					"type": "uint256"
				},
				{
					"indexed": false,
					"internalType": "uint256",
					"name": "amount",
					"type": "uint256"
				},
				{
					"indexed": false,
					"internalType": "address",
					"name": "targetUser",
					"type": "address"
				}
			],
			"name": "CrossChainBurn",
			"type": "event"
		},
		{
			"anonymous": false,
			"inputs": [
				{
					"indexed": true,
					"internalType": "address",
					"name": "minter",
					"type": "address"
				},
				{
					"indexed": false,
					"internalType": "uint256",
					"name": "sourceChainId",
					"type": "uint256"
				},
				{
					"indexed": false,
					"internalType": "uint256",
					"name": "targetChainId",
					"type": "uint256"
				},
				{
					"indexed": false,
					"internalType": "uint256",
					"name": "amount",
					"type": "uint256"
				},
				{
					"indexed": false,
					"internalType": "address",
					"name": "targetUser",
					"type": "address"
				}
			],
			"name": "CrossChainMint",
			"type": "event"
		},
		{
			"anonymous": false,
			"inputs": [
				{
					"indexed": true,
					"internalType": "address",
					"name": "user",
					"type": "address"
				},
				{
					"indexed": true,
					"internalType": "address",
					"name": "stablecoin",
					"type": "address"
				},
				{
					"indexed": false,
					"internalType": "uint256",
					"name": "stablecoinAmount",
					"type": "uint256"
				},
				{
					"indexed": false,
					"internalType": "uint256",
					"name": "weUSDAmount",
					"type": "uint256"
				}
			],
			"name": "MintedWeUSD",
			"type": "event"
		},
		{
			"anonymous": false,
			"inputs": [
				{
					"indexed": true,
					"internalType": "bytes32",
					"name": "role",
					"type": "bytes32"
				},
				{
					"indexed": true,
					"internalType": "bytes32",
					"name": "previousAdminRole",
					"type": "bytes32"
				},
				{
					"indexed": true,
					"internalType": "bytes32",
					"name": "newAdminRole",
					"type": "bytes32"
				}
			],
			"name": "RoleAdminChanged",
			"type": "event"
		},
		{
			"anonymous": false,
			"inputs": [
				{
					"indexed": true,
					"internalType": "bytes32",
					"name": "role",
					"type": "bytes32"
				},
				{
					"indexed": true,
					"internalType": "address",
					"name": "account",
					"type": "address"
				},
				{
					"indexed": true,
					"internalType": "address",
					"name": "sender",
					"type": "address"
				}
			],
			"name": "RoleGranted",
			"type": "event"
		},
		{
			"anonymous": false,
			"inputs": [
				{
					"indexed": true,
					"internalType": "bytes32",
					"name": "role",
					"type": "bytes32"
				},
				{
					"indexed": true,
					"internalType": "address",
					"name": "account",
					"type": "address"
				},
				{
					"indexed": true,
					"internalType": "address",
					"name": "sender",
					"type": "address"
				}
			],
			"name": "RoleRevoked",
			"type": "event"
		},
		{
			"anonymous": false,
			"inputs": [
				{
					"indexed": true,
					"internalType": "address",
					"name": "stablecoin",
					"type": "address"
				}
			],
			"name": "StablecoinDeleted",
			"type": "event"
		},
		{
			"anonymous": false,
			"inputs": [
				{
					"indexed": true,
					"internalType": "address",
					"name": "stablecoin",
					"type": "address"
				}
			],
			"name": "StablecoinRegistered",
			"type": "event"
		},
		{
			"inputs": [],
			"name": "ADMIN_ROLE",
			"outputs": [
				{
					"internalType": "bytes32",
					"name": "",
					"type": "bytes32"
				}
			],
			"stateMutability": "view",
			"type": "function"
		},
		{
			"inputs": [],
			"name": "CROSS_CHAIN_MINTER_ROLE",
			"outputs": [
				{
					"internalType": "bytes32",
					"name": "",
					"type": "bytes32"
				}
			],
			"stateMutability": "view",
			"type": "function"
		},
		{
			"inputs": [],
			"name": "DEFAULT_ADMIN_ROLE",
			"outputs": [
				{
					"internalType": "bytes32",
					"name": "",
					"type": "bytes32"
				}
			],
			"stateMutability": "view",
			"type": "function"
		},
		{
			"inputs": [
				{
					"internalType": "address",
					"name": "stablecoin",
					"type": "address"
				},
				{
					"internalType": "uint256",
					"name": "weUSDAmount",
					"type": "uint256"
				}
			],
			"name": "burnWeUSD",
			"outputs": [],
			"stateMutability": "nonpayable",
			"type": "function"
		},
		{
			"inputs": [
				{
					"internalType": "uint256",
					"name": "targetChainId",
					"type": "uint256"
				},
				{
					"internalType": "uint256",
					"name": "amount",
					"type": "uint256"
				},
				{
					"internalType": "address",
					"name": "targetUser",
					"type": "address"
				}
			],
			"name": "burnWeUSDCrossChain",
			"outputs": [],
			"stateMutability": "nonpayable",
			"type": "function"
		},
		{
			"inputs": [
				{
					"internalType": "address",
					"name": "stablecoin",
					"type": "address"
				}
			],
			"name": "deleteStablecoin",
			"outputs": [],
			"stateMutability": "nonpayable",
			"type": "function"
		},
		{
			"inputs": [
				{
					"internalType": "bytes32",
					"name": "role",
					"type": "bytes32"
				}
			],
			"name": "getRoleAdmin",
			"outputs": [
				{
					"internalType": "bytes32",
					"name": "",
					"type": "bytes32"
				}
			],
			"stateMutability": "view",
			"type": "function"
		},
		{
			"inputs": [
				{
					"internalType": "bytes32",
					"name": "role",
					"type": "bytes32"
				},
				{
					"internalType": "address",
					"name": "account",
					"type": "address"
				}
			],
			"name": "grantRole",
			"outputs": [],
			"stateMutability": "nonpayable",
			"type": "function"
		},
		{
			"inputs": [
				{
					"internalType": "bytes32",
					"name": "role",
					"type": "bytes32"
				},
				{
					"internalType": "address",
					"name": "account",
					"type": "address"
				}
			],
			"name": "hasRole",
			"outputs": [
				{
					"internalType": "bool",
					"name": "",
					"type": "bool"
				}
			],
			"stateMutability": "view",
			"type": "function"
		},
		{
			"inputs": [
				{
					"internalType": "address",
					"name": "stablecoin",
					"type": "address"
				},
				{
					"internalType": "uint256",
					"name": "stablecoinAmount",
					"type": "uint256"
				}
			],
			"name": "mintWeUSD",
			"outputs": [],
			"stateMutability": "nonpayable",
			"type": "function"
		},
		{
			"inputs": [
				{
					"internalType": "uint256",
					"name": "sourceChainId",
					"type": "uint256"
				},
				{
					"internalType": "uint256",
					"name": "targetChainId",
					"type": "uint256"
				},
				{
					"internalType": "uint256",
					"name": "amount",
					"type": "uint256"
				},
				{
					"internalType": "address",
					"name": "targetUser",
					"type": "address"
				}
			],
			"name": "mintWeUSDCrossChain",
			"outputs": [],
			"stateMutability": "nonpayable",
			"type": "function"
		},
		{
			"inputs": [
				{
					"internalType": "address",
					"name": "stablecoin",
					"type": "address"
				}
			],
			"name": "registerStablecoin",
			"outputs": [],
			"stateMutability": "nonpayable",
			"type": "function"
		},
		{
			"inputs": [
				{
					"internalType": "address",
					"name": "",
					"type": "address"
				}
			],
			"name": "registeredStablecoins",
			"outputs": [
				{
					"internalType": "bool",
					"name": "",
					"type": "bool"
				}
			],
			"stateMutability": "view",
			"type": "function"
		},
		{
			"inputs": [
				{
					"internalType": "bytes32",
					"name": "role",
					"type": "bytes32"
				},
				{
					"internalType": "address",
					"name": "callerConfirmation",
					"type": "address"
				}
			],
			"name": "renounceRole",
			"outputs": [],
			"stateMutability": "nonpayable",
			"type": "function"
		},
		{
			"inputs": [
				{
					"internalType": "bytes32",
					"name": "role",
					"type": "bytes32"
				},
				{
					"internalType": "address",
					"name": "account",
					"type": "address"
				}
			],
			"name": "revokeRole",
			"outputs": [],
			"stateMutability": "nonpayable",
			"type": "function"
		},
		{
			"inputs": [
				{
					"internalType": "bytes4",
					"name": "interfaceId",
					"type": "bytes4"
				}
			],
			"name": "supportsInterface",
			"outputs": [
				{
					"internalType": "bool",
					"name": "",
					"type": "bool"
				}
			],
			"stateMutability": "view",
			"type": "function"
		},
		{
			"inputs": [],
			"name": "weUSD",
			"outputs": [
				{
					"internalType": "contract IPicweUSD",
					"name": "",
					"type": "address"
				}
			],
			"stateMutability": "view",
			"type": "function"
		}
	]
}