{
	"data": {
		"bytecode": {
			"linkReferences": {},
			"object": "60806040526207a120600455348015610016575f80fd5b506040516121c93803806121c983398101604081905261003591610204565b60018054600280546001600160a01b03808a166001600160a01b0319909216919091179091558416610100026001600160a81b031990911617905561007a5f33610140565b506100a57fa49807205ce4d355092ef5a8a18f56e8913cf4a201fbe287825b095693c2177533610140565b506100d07f41de7ae3becaf069074d499ebcbd36df88385ba1e2946870f7e4674aecd4370484610140565b506100fb7f65d7a28e3265b37a6474929f336521b332c1681b933f6cb9f3376673440d862a84610140565b506001600160a01b039384165f908152600860205260409020805460ff1916600117905560058054919094166001600160a01b03199091161790925550610265915050565b5f828152602081815260408083206001600160a01b038516845290915281205460ff166101e0575f838152602081815260408083206001600160a01b03861684529091529020805460ff191660011790556101983390565b6001600160a01b0316826001600160a01b0316847f2f8788117e7eff1d82e926ec794901d17c78024a50270940304540a733656f0d60405160405180910390a45060016101e3565b505f5b92915050565b80516001600160a01b03811681146101ff575f80fd5b919050565b5f805f805f60a08688031215610218575f80fd5b610221866101e9565b945061022f602087016101e9565b935061023d604087016101e9565b925061024b606087016101e9565b9150610259608087016101e9565b90509295509295909350565b611f57806102725f395ff3fe608060405234801561000f575f80fd5b5060043610610228575f3560e01c8063854935f11161012a578063c5494ffb116100b4578063d547741f11610079578063d547741f146105c3578063e63ab1e9146105d6578063e74b981b146105fd578063ea277eca14610610578063eda87eff14610631575f80fd5b8063c5494ffb14610553578063c640065714610566578063c99773ce14610579578063d19fad3714610598578063d270e7ab146105ab575f80fd5b8063a217fddf116100fa578063a217fddf146104f4578063a2519ae4146104fb578063a62e1b3e1461050e578063bb93ede014610521578063bead8d2614610534575f80fd5b8063854935f11461048b57806391d148541461049e578063973697bd146104b15780639ea4f3a4146104d2575f80fd5b80632f92893c116101b6578063469048401161017b57806346904840146104305780635badbe4c1461045b5780635c975abb1461046457806375b238fc1461046f5780638456cb5914610483575f80fd5b80632f92893c146103b957806334d8c7d5146103db57806336568abe146103ee57806337174202146104015780633f4ba83a14610428575f80fd5b80631e7502d7116101fc5780631e7502d7146102935780631f224564146102b5578063248a9ca3146102c857806326757b73146102ea5780632f2ff15d146103a6575f80fd5b80626770161461022c57806301ffc9a7146102485780630bd31a571461026b5780631008776f14610280575b5f80fd5b61023560045481565b6040519081526020015b60405180910390f35b61025b610256366004611b32565b61064b565b604051901515815260200161023f565b61027e610279366004611b74565b610681565b005b61027e61028e366004611ba6565b61098d565b61025b6102a1366004611bbf565b5f9081526009602052604090205460ff1690565b61027e6102c3366004611bd6565b6109ed565b6102356102d6366004611bbf565b5f9081526020819052604090206001015490565b6103686102f8366004611bbf565b60408051608080820183525f80835260208084018290528385018290526060938401829052948152600a8552839020835191820184528054825260018101546001600160a01b03169482019490945260028401549281019290925260039092015460ff1615159181019190915290565b60405161023f9190815181526020808301516001600160a01b0316908201526040808301519082015260609182015115159181019190915260800190565b61027e6103b4366004611c12565b610c4a565b61025b6103c7366004611bbf565b60096020525f908152604090205460ff1681565b6102356103e9366004611bbf565b610c74565b61027e6103fc366004611c12565b610c93565b6102357f41de7ae3becaf069074d499ebcbd36df88385ba1e2946870f7e4674aecd4370481565b61027e610ccb565b600554610443906001600160a01b031681565b6040516001600160a01b03909116815260200161023f565b61023560035481565b60015460ff1661025b565b6102355f80516020611f0283398151915281565b61027e610d00565b610235610499366004611bbf565b610d32565b61025b6104ac366004611c12565b610d41565b6104c46104bf366004611c3c565b610d69565b60405161023f929190611c6c565b61025b6104e0366004611ba6565b60086020525f908152604090205460ff1681565b6102355f81565b61027e610509366004611cb8565b610fb9565b600254610443906001600160a01b031681565b6104c461052f366004611c3c565b611205565b610235610542366004611bbf565b600c6020525f908152604090205481565b61027e610561366004611bbf565b611438565b61027e610574366004611ba6565b611455565b610235610587366004611bbf565b600b6020525f908152604090205481565b61027e6105a6366004611cb8565b6114b8565b6001546104439061010090046001600160a01b031681565b61027e6105d1366004611c12565b61169d565b6102357f65d7a28e3265b37a6474929f336521b332c1681b933f6cb9f3376673440d862a81565b61027e61060b366004611ba6565b6116c1565b61025b61061e366004611bbf565b5f908152600a6020526040902054151590565b610639600681565b60405160ff909116815260200161023f565b5f6001600160e01b03198216637965db0b60e01b148061067b57506301ffc9a760e01b6001600160e01b03198316145b92915050565b6106896116fb565b4683036106f65760405162461bcd60e51b815260206004820152603060248201527f54617267657420636861696e206d75737420626520646966666572656e74206660448201526f3937b69039b7bab931b29031b430b4b760811b60648201526084015b60405180910390fd5b60045482116107525760405162461bcd60e51b815260206004820152602260248201527f416d6f756e74206d7573742062652067726561746572207468616e2067617366604482015261656560f01b60648201526084016106ed565b6001600160a01b0381166107a85760405162461bcd60e51b815260206004820152601b60248201527f496e76616c69642074617267657420757365722061646472657373000000000060448201526064016106ed565b5f4690505f60035f81546107bb90611cf4565b918290555060c083901b608087901b174260401b171790506107ea815f908152600a6020526040902054151590565b156108335760405162461bcd60e51b81526020600482015260196024820152785265717565737420494420616c72656164792065786973747360381b60448201526064016106ed565b5f600454856108429190611d0c565b600254600554600480546040516323b872dd60e01b815233928101929092526001600160a01b039283166024830152604482015292935016906323b872dd906064016020604051808303815f875af11580156108a0573d5f803e3d5ffd5b505050506040513d601f19601f820116820180604052508101906108c49190611d1f565b5060025460405163079cc67960e41b8152336004820152602481018390526001600160a01b03909116906379cc6790906044015f604051808303815f87803b15801561090e575f80fd5b505af1158015610920573d5f803e3d5ffd5b505050506109318233836001611721565b60408051848152602081018890529081018290526001600160a01b0385166060820152339083907f26c32cc5ff12981b55681844f2fb47d52c5e521c58d5288b1325f3304a7e88529060800160405180910390a3505050505050565b5f80516020611f028339815191526109a48161185b565b6001600160a01b0382165f81815260086020526040808220805460ff19169055517f0fa63555fe68cad70e08233633567493a3c74afdc8c7fb9f0c03a8e74f1a137a9190a25050565b7f41de7ae3becaf069074d499ebcbd36df88385ba1e2946870f7e4674aecd43704610a178161185b565b610a1f6116fb565b468403610a875760405162461bcd60e51b815260206004820152603060248201527f536f7572636520636861696e206d75737420626520646966666572656e74206660448201526f3937b6903a30b933b2ba1031b430b4b760811b60648201526084016106ed565b5f8311610ad65760405162461bcd60e51b815260206004820152601d60248201527f416d6f756e74206d7573742062652067726561746572207468616e203000000060448201526064016106ed565b6001600160a01b038216610b2c5760405162461bcd60e51b815260206004820152601b60248201527f496e76616c69642074617267657420757365722061646472657373000000000060448201526064016106ed565b5f858152600a602052604090205415610b835760405162461bcd60e51b81526020600482015260196024820152785265717565737420494420616c72656164792065786973747360381b60448201526064016106ed565b6002546040516340c10f1960e01b81526001600160a01b03848116600483015260248201869052909116906340c10f19906044015f604051808303815f87803b158015610bce575f80fd5b505af1158015610be0573d5f803e3d5ffd5b50505050610bf08583855f611721565b604080518581524660208201529081018490526001600160a01b0383166060820152339086907f7690d9cedf96f067bda7114c24bba31be184ae045d199979a0a373862e70d46b9060800160405180910390a35050505050565b5f82815260208190526040902060010154610c648161185b565b610c6e8383611865565b50505050565b60078181548110610c83575f80fd5b5f91825260209091200154905081565b6001600160a01b0381163314610cbc5760405163334bd91960e11b815260040160405180910390fd5b610cc682826118f4565b505050565b7f65d7a28e3265b37a6474929f336521b332c1681b933f6cb9f3376673440d862a610cf58161185b565b610cfd61195d565b50565b7f65d7a28e3265b37a6474929f336521b332c1681b933f6cb9f3376673440d862a610d2a8161185b565b610cfd6119af565b60068181548110610c83575f80fd5b5f918252602082815260408084206001600160a01b0393909316845291905290205460ff1690565b60605f831580610d77575082155b80610d8b57505f84118015610d8b57505f83115b610dd35760405162461bcd60e51b8152602060048201526019602482015278496e76616c69642070616765206f7220706167652073697a6560381b60448201526064016106ed565b5f805b600654811015610e4257866001600160a01b0316600a5f60068481548110610e0057610e00611d3e565b5f91825260208083209091015483528201929092526040019020600101546001600160a01b031603610e3a5781610e3681611cf4565b9250505b600101610dd6565b505f818615801590610e5357505f86115b15610e9157610e628688611d52565b610e6c9084611d0c565b915082821115610e7a575f91505b610e848683611d69565b905082811115610e915750815b5f610e9c8383611d0c565b67ffffffffffffffff811115610eb457610eb4611d7c565b604051908082528060200260200182016040528015610edd578160200160208202803683370190505b506006549091505f905b5f81118015610ef65750825182105b15610fa6575f6006610f09600184611d0c565b81548110610f1957610f19611d3e565b5f918252602080832090910154808352600a9091526040909120600101549091506001600160a01b03808e16911603610f935785610f578489611d0c565b1115610f8d5780848481518110610f7057610f70611d3e565b602090810291909101015282610f8581611cf4565b935050610f93565b50610fa6565b5080610f9e81611d90565b915050610ee7565b509095509293505050505b935093915050565b6001600160a01b0382165f9081526008602052604090205460ff1661101c5760405162461bcd60e51b815260206004820152601960248201527814dd18589b1958dbda5b881b9bdd081c9959da5cdd195c9959603a1b60448201526064016106ed565b5f826001600160a01b031663313ce5676040518163ffffffff1660e01b8152600401602060405180830381865afa158015611059573d5f803e3d5ffd5b505050506040513d601f19601f8201168201806040525081019061107d9190611da5565b90505f61108c838360066119ea565b6001546040516323b872dd60e01b81523360048201526001600160a01b0361010090920482166024820152604481018690529192508516906323b872dd906064016020604051808303815f875af11580156110e9573d5f803e3d5ffd5b505050506040513d601f19601f8201168201806040525081019061110d9190611d1f565b6111595760405162461bcd60e51b815260206004820152601a60248201527f537461626c65636f696e207472616e73666572206661696c656400000000000060448201526064016106ed565b6002546040516340c10f1960e01b8152336004820152602481018390526001600160a01b03909116906340c10f19906044015f604051808303815f87803b1580156111a2575f80fd5b505af11580156111b4573d5f803e3d5ffd5b505060408051868152602081018590526001600160a01b03881693503392507f66c62f0863782653c5c44e10bf21d9def60984ce20d9f75549575a891089658791015b60405180910390a350505050565b60605f831580611213575082155b8061122757505f8411801561122757505f83115b61126f5760405162461bcd60e51b8152602060048201526019602482015278496e76616c69642070616765206f7220706167652073697a6560381b60448201526064016106ed565b5f805b6007548110156112de57866001600160a01b0316600a5f6007848154811061129c5761129c611d3e565b5f91825260208083209091015483528201929092526040019020600101546001600160a01b0316036112d657816112d281611cf4565b9250505b600101611272565b505f8186158015906112ef57505f86115b1561132d576112fe8688611d52565b6113089084611d0c565b915082821115611316575f91505b6113208683611d69565b90508281111561132d5750815b5f6113388383611d0c565b67ffffffffffffffff81111561135057611350611d7c565b604051908082528060200260200182016040528015611379578160200160208202803683370190505b506007549091505f905b5f811180156113925750825182105b15610fa6575f60076113a5600184611d0c565b815481106113b5576113b5611d3e565b5f918252602080832090910154808352600a9091526040909120600101549091506001600160a01b03808e1691160361142557856113f38489611d0c565b1115610f8d578084848151811061140c5761140c611d3e565b60209081029190910101528261142181611cf4565b9350505b508061143081611d90565b915050611383565b5f80516020611f0283398151915261144f8161185b565b50600455565b5f80516020611f0283398151915261146c8161185b565b6001600160a01b0382165f81815260086020526040808220805460ff19166001179055517fd8b2dc62b787ec8afbc8a664cf2fd7c1e7851721acc9e0069132cece3c529c2e9190a25050565b6001600160a01b0382165f9081526008602052604090205460ff1661151b5760405162461bcd60e51b815260206004820152601960248201527814dd18589b1958dbda5b881b9bdd081c9959da5cdd195c9959603a1b60448201526064016106ed565b5f826001600160a01b031663313ce5676040518163ffffffff1660e01b8152600401602060405180830381865afa158015611558573d5f803e3d5ffd5b505050506040513d601f19601f8201168201806040525081019061157c9190611da5565b90505f61158b83600684611a5c565b600154604051631795588d60e21b81526001600160a01b0387811660048301523360248301526044820184905292935061010090910490911690635e556234906064015f604051808303815f87803b1580156115e5575f80fd5b505af11580156115f7573d5f803e3d5ffd5b505060025460405163079cc67960e41b8152336004820152602481018790526001600160a01b0390911692506379cc679091506044015f604051808303815f87803b158015611644575f80fd5b505af1158015611656573d5f803e3d5ffd5b505060408051868152602081018590526001600160a01b03881693503392507f3d9842cbdfa603ab9534d6e362bf28b3061318f57fed5e7087dfc956a9d7444291016111f7565b5f828152602081905260409020600101546116b78161185b565b610c6e83836118f4565b5f80516020611f028339815191526116d88161185b565b50600580546001600160a01b0319166001600160a01b0392909216919091179055565b60015460ff161561171f5760405163d93c066560e01b815260040160405180910390fd5b565b604080516080810182528581526001600160a01b03858116602080840191825283850187815286158015606087019081525f8c8152600a909452969092208551815592516001840180546001600160a01b03191691909516179093559151600282015592516003909301805460ff191693151593909317909255906117d957600680546001810182555f919091527ff652222313e28459528d920b65115c16c04f3efc82aaedc97be59f3f377c0d3f0185905561180e565b600780546001810182555f919091527fa66cc928b5edb82af9bd49922954155ab7b0942694bea4ce44661d9a8736c688018590555b81156118365760065461182390600190611d0c565b5f868152600b6020526040902055611854565b60075461184590600190611d0c565b5f868152600c60205260409020555b5050505050565b610cfd8133611ad2565b5f6118708383610d41565b6118ed575f838152602081815260408083206001600160a01b03861684529091529020805460ff191660011790556118a53390565b6001600160a01b0316826001600160a01b0316847f2f8788117e7eff1d82e926ec794901d17c78024a50270940304540a733656f0d60405160405180910390a450600161067b565b505f61067b565b5f6118ff8383610d41565b156118ed575f838152602081815260408083206001600160a01b0386168085529252808320805460ff1916905551339286917ff6391f5c32d9c69d2a47ea670b442974b53935d1edc7fd64eb21e047a839171b9190a450600161067b565b611965611b0f565b6001805460ff191690557f5db9ee0a495bf2e6ff9c91a7834c1ba4fdd244a5e8aa4e537bd38aeae4b073aa335b6040516001600160a01b03909116815260200160405180910390a1565b6119b76116fb565b6001805460ff1916811790557f62e78cea01bee320cd4e420270b5ea74000d11b0c9f74754ebdbfc544b05a25833611992565b5f8160ff168360ff16036119ff575082611a55565b8160ff168360ff161015611a3357611a178383611dc5565b611a2290600a611eb9565b611a2c9085611d52565b9050611a55565b611a3d8284611dc5565b611a4890600a611eb9565b611a529085611edb565b90505b9392505050565b5f8160ff168360ff1603611a71575082611a55565b8160ff168360ff161015611a8957611a178383611dc5565b5f611a948385611dc5565b611a9f90600a611eb9565b9050611aab8186611edb565b9150611ab78186611eee565b15611aca57611ac7600183611d69565b91505b509392505050565b611adc8282610d41565b611b0b5760405163e2517d3f60e01b81526001600160a01b0382166004820152602481018390526044016106ed565b5050565b60015460ff1661171f57604051638dfc202b60e01b815260040160405180910390fd5b5f60208284031215611b42575f80fd5b81356001600160e01b031981168114611a55575f80fd5b80356001600160a01b0381168114611b6f575f80fd5b919050565b5f805f60608486031215611b86575f80fd5b8335925060208401359150611b9d60408501611b59565b90509250925092565b5f60208284031215611bb6575f80fd5b611a5582611b59565b5f60208284031215611bcf575f80fd5b5035919050565b5f805f8060808587031215611be9575f80fd5b843593506020850135925060408501359150611c0760608601611b59565b905092959194509250565b5f8060408385031215611c23575f80fd5b82359150611c3360208401611b59565b90509250929050565b5f805f60608486031215611c4e575f80fd5b611c5784611b59565b95602085013595506040909401359392505050565b604080825283519082018190525f9060208501906060840190835b81811015611ca5578351835260209384019390920191600101611c87565b5050602093909301939093525092915050565b5f8060408385031215611cc9575f80fd5b611cd283611b59565b946020939093013593505050565b634e487b7160e01b5f52601160045260245ffd5b5f60018201611d0557611d05611ce0565b5060010190565b8181038181111561067b5761067b611ce0565b5f60208284031215611d2f575f80fd5b81518015158114611a55575f80fd5b634e487b7160e01b5f52603260045260245ffd5b808202811582820484141761067b5761067b611ce0565b8082018082111561067b5761067b611ce0565b634e487b7160e01b5f52604160045260245ffd5b5f81611d9e57611d9e611ce0565b505f190190565b5f60208284031215611db5575f80fd5b815160ff81168114611a55575f80fd5b60ff828116828216039081111561067b5761067b611ce0565b6001815b6001841115610fb157808504811115611dfd57611dfd611ce0565b6001841615611e0b57908102905b60019390931c928002611de2565b5f82611e275750600161067b565b81611e3357505f61067b565b8160018114611e495760028114611e5357611e6f565b600191505061067b565b60ff841115611e6457611e64611ce0565b50506001821b61067b565b5060208310610133831016604e8410600b8410161715611e92575081810a61067b565b611e9e5f198484611dde565b805f1904821115611eb157611eb1611ce0565b029392505050565b5f611a5560ff841683611e19565b634e487b7160e01b5f52601260045260245ffd5b5f82611ee957611ee9611ec7565b500490565b5f82611efc57611efc611ec7565b50069056fea49807205ce4d355092ef5a8a18f56e8913cf4a201fbe287825b095693c21775a264697066735822122043c091aa4a94152f4445b337be5de9e6b3d6fa063bc9244af3e6de28840319be64736f6c634300081a0033",
			"opcodes": "PUSH1 0x80 PUSH1 0x40 MSTORE PUSH3 0x7A120 PUSH1 0x4 SSTORE CALLVALUE DUP1 ISZERO PUSH2 0x16 JUMPI PUSH0 DUP1 REVERT JUMPDEST POP PUSH1 0x40 MLOAD PUSH2 0x21C9 CODESIZE SUB DUP1 PUSH2 0x21C9 DUP4 CODECOPY DUP2 ADD PUSH1 0x40 DUP2 SWAP1 MSTORE PUSH2 0x35 SWAP2 PUSH2 0x204 JUMP JUMPDEST PUSH1 0x1 DUP1 SLOAD PUSH1 0x2 DUP1 SLOAD PUSH1 0x1 PUSH1 0x1 PUSH1 0xA0 SHL SUB DUP1 DUP11 AND PUSH1 0x1 PUSH1 0x1 PUSH1 0xA0 SHL SUB NOT SWAP1 SWAP3 AND SWAP2 SWAP1 SWAP2 OR SWAP1 SWAP2 SSTORE DUP5 AND PUSH2 0x100 MUL PUSH1 0x1 PUSH1 0x1 PUSH1 0xA8 SHL SUB NOT SWAP1 SWAP2 AND OR SWAP1 SSTORE PUSH2 0x7A PUSH0 CALLER PUSH2 0x140 JUMP JUMPDEST POP PUSH2 0xA5 PUSH32 0xA49807205CE4D355092EF5A8A18F56E8913CF4A201FBE287825B095693C21775 CALLER PUSH2 0x140 JUMP JUMPDEST POP PUSH2 0xD0 PUSH32 0x41DE7AE3BECAF069074D499EBCBD36DF88385BA1E2946870F7E4674AECD43704 DUP5 PUSH2 0x140 JUMP JUMPDEST POP PUSH2 0xFB PUSH32 0x65D7A28E3265B37A6474929F336521B332C1681B933F6CB9F3376673440D862A DUP5 PUSH2 0x140 JUMP JUMPDEST POP PUSH1 0x1 PUSH1 0x1 PUSH1 0xA0 SHL SUB SWAP4 DUP5 AND PUSH0 SWAP1 DUP2 MSTORE PUSH1 0x8 PUSH1 0x20 MSTORE PUSH1 0x40 SWAP1 KECCAK256 DUP1 SLOAD PUSH1 0xFF NOT AND PUSH1 0x1 OR SWAP1 SSTORE PUSH1 0x5 DUP1 SLOAD SWAP2 SWAP1 SWAP5 AND PUSH1 0x1 PUSH1 0x1 PUSH1 0xA0 SHL SUB NOT SWAP1 SWAP2 AND OR SWAP1 SWAP3 SSTORE POP PUSH2 0x265 SWAP2 POP POP JUMP JUMPDEST PUSH0 DUP3 DUP2 MSTORE PUSH1 0x20 DUP2 DUP2 MSTORE PUSH1 0x40 DUP1 DUP4 KECCAK256 PUSH1 0x1 PUSH1 0x1 PUSH1 0xA0 SHL SUB DUP6 AND DUP5 MSTORE SWAP1 SWAP2 MSTORE DUP2 KECCAK256 SLOAD PUSH1 0xFF AND PUSH2 0x1E0 JUMPI PUSH0 DUP4 DUP2 MSTORE PUSH1 0x20 DUP2 DUP2 MSTORE PUSH1 0x40 DUP1 DUP4 KECCAK256 PUSH1 0x1 PUSH1 0x1 PUSH1 0xA0 SHL SUB DUP7 AND DUP5 MSTORE SWAP1 SWAP2 MSTORE SWAP1 KECCAK256 DUP1 SLOAD PUSH1 0xFF NOT AND PUSH1 0x1 OR SWAP1 SSTORE PUSH2 0x198 CALLER SWAP1 JUMP JUMPDEST PUSH1 0x1 PUSH1 0x1 PUSH1 0xA0 SHL SUB AND DUP3 PUSH1 0x1 PUSH1 0x1 PUSH1 0xA0 SHL SUB AND DUP5 PUSH32 0x2F8788117E7EFF1D82E926EC794901D17C78024A50270940304540A733656F0D PUSH1 0x40 MLOAD PUSH1 0x40 MLOAD DUP1 SWAP2 SUB SWAP1 LOG4 POP PUSH1 0x1 PUSH2 0x1E3 JUMP JUMPDEST POP PUSH0 JUMPDEST SWAP3 SWAP2 POP POP JUMP JUMPDEST DUP1 MLOAD PUSH1 0x1 PUSH1 0x1 PUSH1 0xA0 SHL SUB DUP2 AND DUP2 EQ PUSH2 0x1FF JUMPI PUSH0 DUP1 REVERT JUMPDEST SWAP2 SWAP1 POP JUMP JUMPDEST PUSH0 DUP1 PUSH0 DUP1 PUSH0 PUSH1 0xA0 DUP7 DUP9 SUB SLT ISZERO PUSH2 0x218 JUMPI PUSH0 DUP1 REVERT JUMPDEST PUSH2 0x221 DUP7 PUSH2 0x1E9 JUMP JUMPDEST SWAP5 POP PUSH2 0x22F PUSH1 0x20 DUP8 ADD PUSH2 0x1E9 JUMP JUMPDEST SWAP4 POP PUSH2 0x23D PUSH1 0x40 DUP8 ADD PUSH2 0x1E9 JUMP JUMPDEST SWAP3 POP PUSH2 0x24B PUSH1 0x60 DUP8 ADD PUSH2 0x1E9 JUMP JUMPDEST SWAP2 POP PUSH2 0x259 PUSH1 0x80 DUP8 ADD PUSH2 0x1E9 JUMP JUMPDEST SWAP1 POP SWAP3 SWAP6 POP SWAP3 SWAP6 SWAP1 SWAP4 POP JUMP JUMPDEST PUSH2 0x1F57 DUP1 PUSH2 0x272 PUSH0 CODECOPY PUSH0 RETURN INVALID PUSH1 0x80 PUSH1 0x40 MSTORE CALLVALUE DUP1 ISZERO PUSH2 0xF JUMPI PUSH0 DUP1 REVERT JUMPDEST POP PUSH1 0x4 CALLDATASIZE LT PUSH2 0x228 JUMPI PUSH0 CALLDATALOAD PUSH1 0xE0 SHR DUP1 PUSH4 0x854935F1 GT PUSH2 0x12A JUMPI DUP1 PUSH4 0xC5494FFB GT PUSH2 0xB4 JUMPI DUP1 PUSH4 0xD547741F GT PUSH2 0x79 JUMPI DUP1 PUSH4 0xD547741F EQ PUSH2 0x5C3 JUMPI DUP1 PUSH4 0xE63AB1E9 EQ PUSH2 0x5D6 JUMPI DUP1 PUSH4 0xE74B981B EQ PUSH2 0x5FD JUMPI DUP1 PUSH4 0xEA277ECA EQ PUSH2 0x610 JUMPI DUP1 PUSH4 0xEDA87EFF EQ PUSH2 0x631 JUMPI PUSH0 DUP1 REVERT JUMPDEST DUP1 PUSH4 0xC5494FFB EQ PUSH2 0x553 JUMPI DUP1 PUSH4 0xC6400657 EQ PUSH2 0x566 JUMPI DUP1 PUSH4 0xC99773CE EQ PUSH2 0x579 JUMPI DUP1 PUSH4 0xD19FAD37 EQ PUSH2 0x598 JUMPI DUP1 PUSH4 0xD270E7AB EQ PUSH2 0x5AB JUMPI PUSH0 DUP1 REVERT JUMPDEST DUP1 PUSH4 0xA217FDDF GT PUSH2 0xFA JUMPI DUP1 PUSH4 0xA217FDDF EQ PUSH2 0x4F4 JUMPI DUP1 PUSH4 0xA2519AE4 EQ PUSH2 0x4FB JUMPI DUP1 PUSH4 0xA62E1B3E EQ PUSH2 0x50E JUMPI DUP1 PUSH4 0xBB93EDE0 EQ PUSH2 0x521 JUMPI DUP1 PUSH4 0xBEAD8D26 EQ PUSH2 0x534 JUMPI PUSH0 DUP1 REVERT JUMPDEST DUP1 PUSH4 0x854935F1 EQ PUSH2 0x48B JUMPI DUP1 PUSH4 0x91D14854 EQ PUSH2 0x49E JUMPI DUP1 PUSH4 0x973697BD EQ PUSH2 0x4B1 JUMPI DUP1 PUSH4 0x9EA4F3A4 EQ PUSH2 0x4D2 JUMPI PUSH0 DUP1 REVERT JUMPDEST DUP1 PUSH4 0x2F92893C GT PUSH2 0x1B6 JUMPI DUP1 PUSH4 0x46904840 GT PUSH2 0x17B JUMPI DUP1 PUSH4 0x46904840 EQ PUSH2 0x430 JUMPI DUP1 PUSH4 0x5BADBE4C EQ PUSH2 0x45B JUMPI DUP1 PUSH4 0x5C975ABB EQ PUSH2 0x464 JUMPI DUP1 PUSH4 0x75B238FC EQ PUSH2 0x46F JUMPI DUP1 PUSH4 0x8456CB59 EQ PUSH2 0x483 JUMPI PUSH0 DUP1 REVERT JUMPDEST DUP1 PUSH4 0x2F92893C EQ PUSH2 0x3B9 JUMPI DUP1 PUSH4 0x34D8C7D5 EQ PUSH2 0x3DB JUMPI DUP1 PUSH4 0x36568ABE EQ PUSH2 0x3EE JUMPI DUP1 PUSH4 0x37174202 EQ PUSH2 0x401 JUMPI DUP1 PUSH4 0x3F4BA83A EQ PUSH2 0x428 JUMPI PUSH0 DUP1 REVERT JUMPDEST DUP1 PUSH4 0x1E7502D7 GT PUSH2 0x1FC JUMPI DUP1 PUSH4 0x1E7502D7 EQ PUSH2 0x293 JUMPI DUP1 PUSH4 0x1F224564 EQ PUSH2 0x2B5 JUMPI DUP1 PUSH4 0x248A9CA3 EQ PUSH2 0x2C8 JUMPI DUP1 PUSH4 0x26757B73 EQ PUSH2 0x2EA JUMPI DUP1 PUSH4 0x2F2FF15D EQ PUSH2 0x3A6 JUMPI PUSH0 DUP1 REVERT JUMPDEST DUP1 PUSH3 0x677016 EQ PUSH2 0x22C JUMPI DUP1 PUSH4 0x1FFC9A7 EQ PUSH2 0x248 JUMPI DUP1 PUSH4 0xBD31A57 EQ PUSH2 0x26B JUMPI DUP1 PUSH4 0x1008776F EQ PUSH2 0x280 JUMPI JUMPDEST PUSH0 DUP1 REVERT JUMPDEST PUSH2 0x235 PUSH1 0x4 SLOAD DUP2 JUMP JUMPDEST PUSH1 0x40 MLOAD SWAP1 DUP2 MSTORE PUSH1 0x20 ADD JUMPDEST PUSH1 0x40 MLOAD DUP1 SWAP2 SUB SWAP1 RETURN JUMPDEST PUSH2 0x25B PUSH2 0x256 CALLDATASIZE PUSH1 0x4 PUSH2 0x1B32 JUMP JUMPDEST PUSH2 0x64B JUMP JUMPDEST PUSH1 0x40 MLOAD SWAP1 ISZERO ISZERO DUP2 MSTORE PUSH1 0x20 ADD PUSH2 0x23F JUMP JUMPDEST PUSH2 0x27E PUSH2 0x279 CALLDATASIZE PUSH1 0x4 PUSH2 0x1B74 JUMP JUMPDEST PUSH2 0x681 JUMP JUMPDEST STOP JUMPDEST PUSH2 0x27E PUSH2 0x28E CALLDATASIZE PUSH1 0x4 PUSH2 0x1BA6 JUMP JUMPDEST PUSH2 0x98D JUMP JUMPDEST PUSH2 0x25B PUSH2 0x2A1 CALLDATASIZE PUSH1 0x4 PUSH2 0x1BBF JUMP JUMPDEST PUSH0 SWAP1 DUP2 MSTORE PUSH1 0x9 PUSH1 0x20 MSTORE PUSH1 0x40 SWAP1 KECCAK256 SLOAD PUSH1 0xFF AND SWAP1 JUMP JUMPDEST PUSH2 0x27E PUSH2 0x2C3 CALLDATASIZE PUSH1 0x4 PUSH2 0x1BD6 JUMP JUMPDEST PUSH2 0x9ED JUMP JUMPDEST PUSH2 0x235 PUSH2 0x2D6 CALLDATASIZE PUSH1 0x4 PUSH2 0x1BBF JUMP JUMPDEST PUSH0 SWAP1 DUP2 MSTORE PUSH1 0x20 DUP2 SWAP1 MSTORE PUSH1 0x40 SWAP1 KECCAK256 PUSH1 0x1 ADD SLOAD SWAP1 JUMP JUMPDEST PUSH2 0x368 PUSH2 0x2F8 CALLDATASIZE PUSH1 0x4 PUSH2 0x1BBF JUMP JUMPDEST PUSH1 0x40 DUP1 MLOAD PUSH1 0x80 DUP1 DUP3 ADD DUP4 MSTORE PUSH0 DUP1 DUP4 MSTORE PUSH1 0x20 DUP1 DUP5 ADD DUP3 SWAP1 MSTORE DUP4 DUP6 ADD DUP3 SWAP1 MSTORE PUSH1 0x60 SWAP4 DUP5 ADD DUP3 SWAP1 MSTORE SWAP5 DUP2 MSTORE PUSH1 0xA DUP6 MSTORE DUP4 SWAP1 KECCAK256 DUP4 MLOAD SWAP2 DUP3 ADD DUP5 MSTORE DUP1 SLOAD DUP3 MSTORE PUSH1 0x1 DUP2 ADD SLOAD PUSH1 0x1 PUSH1 0x1 PUSH1 0xA0 SHL SUB AND SWAP5 DUP3 ADD SWAP5 SWAP1 SWAP5 MSTORE PUSH1 0x2 DUP5 ADD SLOAD SWAP3 DUP2 ADD SWAP3 SWAP1 SWAP3 MSTORE PUSH1 0x3 SWAP1 SWAP3 ADD SLOAD PUSH1 0xFF AND ISZERO ISZERO SWAP2 DUP2 ADD SWAP2 SWAP1 SWAP2 MSTORE SWAP1 JUMP JUMPDEST PUSH1 0x40 MLOAD PUSH2 0x23F SWAP2 SWAP1 DUP2 MLOAD DUP2 MSTORE PUSH1 0x20 DUP1 DUP4 ADD MLOAD PUSH1 0x1 PUSH1 0x1 PUSH1 0xA0 SHL SUB AND SWAP1 DUP3 ADD MSTORE PUSH1 0x40 DUP1 DUP4 ADD MLOAD SWAP1 DUP3 ADD MSTORE PUSH1 0x60 SWAP2 DUP3 ADD MLOAD ISZERO ISZERO SWAP2 DUP2 ADD SWAP2 SWAP1 SWAP2 MSTORE PUSH1 0x80 ADD SWAP1 JUMP JUMPDEST PUSH2 0x27E PUSH2 0x3B4 CALLDATASIZE PUSH1 0x4 PUSH2 0x1C12 JUMP JUMPDEST PUSH2 0xC4A JUMP JUMPDEST PUSH2 0x25B PUSH2 0x3C7 CALLDATASIZE PUSH1 0x4 PUSH2 0x1BBF JUMP JUMPDEST PUSH1 0x9 PUSH1 0x20 MSTORE PUSH0 SWAP1 DUP2 MSTORE PUSH1 0x40 SWAP1 KECCAK256 SLOAD PUSH1 0xFF AND DUP2 JUMP JUMPDEST PUSH2 0x235 PUSH2 0x3E9 CALLDATASIZE PUSH1 0x4 PUSH2 0x1BBF JUMP JUMPDEST PUSH2 0xC74 JUMP JUMPDEST PUSH2 0x27E PUSH2 0x3FC CALLDATASIZE PUSH1 0x4 PUSH2 0x1C12 JUMP JUMPDEST PUSH2 0xC93 JUMP JUMPDEST PUSH2 0x235 PUSH32 0x41DE7AE3BECAF069074D499EBCBD36DF88385BA1E2946870F7E4674AECD43704 DUP2 JUMP JUMPDEST PUSH2 0x27E PUSH2 0xCCB JUMP JUMPDEST PUSH1 0x5 SLOAD PUSH2 0x443 SWAP1 PUSH1 0x1 PUSH1 0x1 PUSH1 0xA0 SHL SUB AND DUP2 JUMP JUMPDEST PUSH1 0x40 MLOAD PUSH1 0x1 PUSH1 0x1 PUSH1 0xA0 SHL SUB SWAP1 SWAP2 AND DUP2 MSTORE PUSH1 0x20 ADD PUSH2 0x23F JUMP JUMPDEST PUSH2 0x235 PUSH1 0x3 SLOAD DUP2 JUMP JUMPDEST PUSH1 0x1 SLOAD PUSH1 0xFF AND PUSH2 0x25B JUMP JUMPDEST PUSH2 0x235 PUSH0 DUP1 MLOAD PUSH1 0x20 PUSH2 0x1F02 DUP4 CODECOPY DUP2 MLOAD SWAP2 MSTORE DUP2 JUMP JUMPDEST PUSH2 0x27E PUSH2 0xD00 JUMP JUMPDEST PUSH2 0x235 PUSH2 0x499 CALLDATASIZE PUSH1 0x4 PUSH2 0x1BBF JUMP JUMPDEST PUSH2 0xD32 JUMP JUMPDEST PUSH2 0x25B PUSH2 0x4AC CALLDATASIZE PUSH1 0x4 PUSH2 0x1C12 JUMP JUMPDEST PUSH2 0xD41 JUMP JUMPDEST PUSH2 0x4C4 PUSH2 0x4BF CALLDATASIZE PUSH1 0x4 PUSH2 0x1C3C JUMP JUMPDEST PUSH2 0xD69 JUMP JUMPDEST PUSH1 0x40 MLOAD PUSH2 0x23F SWAP3 SWAP2 SWAP1 PUSH2 0x1C6C JUMP JUMPDEST PUSH2 0x25B PUSH2 0x4E0 CALLDATASIZE PUSH1 0x4 PUSH2 0x1BA6 JUMP JUMPDEST PUSH1 0x8 PUSH1 0x20 MSTORE PUSH0 SWAP1 DUP2 MSTORE PUSH1 0x40 SWAP1 KECCAK256 SLOAD PUSH1 0xFF AND DUP2 JUMP JUMPDEST PUSH2 0x235 PUSH0 DUP2 JUMP JUMPDEST PUSH2 0x27E PUSH2 0x509 CALLDATASIZE PUSH1 0x4 PUSH2 0x1CB8 JUMP JUMPDEST PUSH2 0xFB9 JUMP JUMPDEST PUSH1 0x2 SLOAD PUSH2 0x443 SWAP1 PUSH1 0x1 PUSH1 0x1 PUSH1 0xA0 SHL SUB AND DUP2 JUMP JUMPDEST PUSH2 0x4C4 PUSH2 0x52F CALLDATASIZE PUSH1 0x4 PUSH2 0x1C3C JUMP JUMPDEST PUSH2 0x1205 JUMP JUMPDEST PUSH2 0x235 PUSH2 0x542 CALLDATASIZE PUSH1 0x4 PUSH2 0x1BBF JUMP JUMPDEST PUSH1 0xC PUSH1 0x20 MSTORE PUSH0 SWAP1 DUP2 MSTORE PUSH1 0x40 SWAP1 KECCAK256 SLOAD DUP2 JUMP JUMPDEST PUSH2 0x27E PUSH2 0x561 CALLDATASIZE PUSH1 0x4 PUSH2 0x1BBF JUMP JUMPDEST PUSH2 0x1438 JUMP JUMPDEST PUSH2 0x27E PUSH2 0x574 CALLDATASIZE PUSH1 0x4 PUSH2 0x1BA6 JUMP JUMPDEST PUSH2 0x1455 JUMP JUMPDEST PUSH2 0x235 PUSH2 0x587 CALLDATASIZE PUSH1 0x4 PUSH2 0x1BBF JUMP JUMPDEST PUSH1 0xB PUSH1 0x20 MSTORE PUSH0 SWAP1 DUP2 MSTORE PUSH1 0x40 SWAP1 KECCAK256 SLOAD DUP2 JUMP JUMPDEST PUSH2 0x27E PUSH2 0x5A6 CALLDATASIZE PUSH1 0x4 PUSH2 0x1CB8 JUMP JUMPDEST PUSH2 0x14B8 JUMP JUMPDEST PUSH1 0x1 SLOAD PUSH2 0x443 SWAP1 PUSH2 0x100 SWAP1 DIV PUSH1 0x1 PUSH1 0x1 PUSH1 0xA0 SHL SUB AND DUP2 JUMP JUMPDEST PUSH2 0x27E PUSH2 0x5D1 CALLDATASIZE PUSH1 0x4 PUSH2 0x1C12 JUMP JUMPDEST PUSH2 0x169D JUMP JUMPDEST PUSH2 0x235 PUSH32 0x65D7A28E3265B37A6474929F336521B332C1681B933F6CB9F3376673440D862A DUP2 JUMP JUMPDEST PUSH2 0x27E PUSH2 0x60B CALLDATASIZE PUSH1 0x4 PUSH2 0x1BA6 JUMP JUMPDEST PUSH2 0x16C1 JUMP JUMPDEST PUSH2 0x25B PUSH2 0x61E CALLDATASIZE PUSH1 0x4 PUSH2 0x1BBF JUMP JUMPDEST PUSH0 SWAP1 DUP2 MSTORE PUSH1 0xA PUSH1 0x20 MSTORE PUSH1 0x40 SWAP1 KECCAK256 SLOAD ISZERO ISZERO SWAP1 JUMP JUMPDEST PUSH2 0x639 PUSH1 0x6 DUP2 JUMP JUMPDEST PUSH1 0x40 MLOAD PUSH1 0xFF SWAP1 SWAP2 AND DUP2 MSTORE PUSH1 0x20 ADD PUSH2 0x23F JUMP JUMPDEST PUSH0 PUSH1 0x1 PUSH1 0x1 PUSH1 0xE0 SHL SUB NOT DUP3 AND PUSH4 0x7965DB0B PUSH1 0xE0 SHL EQ DUP1 PUSH2 0x67B JUMPI POP PUSH4 0x1FFC9A7 PUSH1 0xE0 SHL PUSH1 0x1 PUSH1 0x1 PUSH1 0xE0 SHL SUB NOT DUP4 AND EQ JUMPDEST SWAP3 SWAP2 POP POP JUMP JUMPDEST PUSH2 0x689 PUSH2 0x16FB JUMP JUMPDEST CHAINID DUP4 SUB PUSH2 0x6F6 JUMPI PUSH1 0x40 MLOAD PUSH3 0x461BCD PUSH1 0xE5 SHL DUP2 MSTORE PUSH1 0x20 PUSH1 0x4 DUP3 ADD MSTORE PUSH1 0x30 PUSH1 0x24 DUP3 ADD MSTORE PUSH32 0x54617267657420636861696E206D75737420626520646966666572656E742066 PUSH1 0x44 DUP3 ADD MSTORE PUSH16 0x3937B69039B7BAB931B29031B430B4B7 PUSH1 0x81 SHL PUSH1 0x64 DUP3 ADD MSTORE PUSH1 0x84 ADD JUMPDEST PUSH1 0x40 MLOAD DUP1 SWAP2 SUB SWAP1 REVERT JUMPDEST PUSH1 0x4 SLOAD DUP3 GT PUSH2 0x752 JUMPI PUSH1 0x40 MLOAD PUSH3 0x461BCD PUSH1 0xE5 SHL DUP2 MSTORE PUSH1 0x20 PUSH1 0x4 DUP3 ADD MSTORE PUSH1 0x22 PUSH1 0x24 DUP3 ADD MSTORE PUSH32 0x416D6F756E74206D7573742062652067726561746572207468616E2067617366 PUSH1 0x44 DUP3 ADD MSTORE PUSH2 0x6565 PUSH1 0xF0 SHL PUSH1 0x64 DUP3 ADD MSTORE PUSH1 0x84 ADD PUSH2 0x6ED JUMP JUMPDEST PUSH1 0x1 PUSH1 0x1 PUSH1 0xA0 SHL SUB DUP2 AND PUSH2 0x7A8 JUMPI PUSH1 0x40 MLOAD PUSH3 0x461BCD PUSH1 0xE5 SHL DUP2 MSTORE PUSH1 0x20 PUSH1 0x4 DUP3 ADD MSTORE PUSH1 0x1B PUSH1 0x24 DUP3 ADD MSTORE PUSH32 0x496E76616C696420746172676574207573657220616464726573730000000000 PUSH1 0x44 DUP3 ADD MSTORE PUSH1 0x64 ADD PUSH2 0x6ED JUMP JUMPDEST PUSH0 CHAINID SWAP1 POP PUSH0 PUSH1 0x3 PUSH0 DUP2 SLOAD PUSH2 0x7BB SWAP1 PUSH2 0x1CF4 JUMP JUMPDEST SWAP2 DUP3 SWAP1 SSTORE POP PUSH1 0xC0 DUP4 SWAP1 SHL PUSH1 0x80 DUP8 SWAP1 SHL OR TIMESTAMP PUSH1 0x40 SHL OR OR SWAP1 POP PUSH2 0x7EA DUP2 PUSH0 SWAP1 DUP2 MSTORE PUSH1 0xA PUSH1 0x20 MSTORE PUSH1 0x40 SWAP1 KECCAK256 SLOAD ISZERO ISZERO SWAP1 JUMP JUMPDEST ISZERO PUSH2 0x833 JUMPI PUSH1 0x40 MLOAD PUSH3 0x461BCD PUSH1 0xE5 SHL DUP2 MSTORE PUSH1 0x20 PUSH1 0x4 DUP3 ADD MSTORE PUSH1 0x19 PUSH1 0x24 DUP3 ADD MSTORE PUSH25 0x5265717565737420494420616C726561647920657869737473 PUSH1 0x38 SHL PUSH1 0x44 DUP3 ADD MSTORE PUSH1 0x64 ADD PUSH2 0x6ED JUMP JUMPDEST PUSH0 PUSH1 0x4 SLOAD DUP6 PUSH2 0x842 SWAP2 SWAP1 PUSH2 0x1D0C JUMP JUMPDEST PUSH1 0x2 SLOAD PUSH1 0x5 SLOAD PUSH1 0x4 DUP1 SLOAD PUSH1 0x40 MLOAD PUSH4 0x23B872DD PUSH1 0xE0 SHL DUP2 MSTORE CALLER SWAP3 DUP2 ADD SWAP3 SWAP1 SWAP3 MSTORE PUSH1 0x1 PUSH1 0x1 PUSH1 0xA0 SHL SUB SWAP3 DUP4 AND PUSH1 0x24 DUP4 ADD MSTORE PUSH1 0x44 DUP3 ADD MSTORE SWAP3 SWAP4 POP AND SWAP1 PUSH4 0x23B872DD SWAP1 PUSH1 0x64 ADD PUSH1 0x20 PUSH1 0x40 MLOAD DUP1 DUP4 SUB DUP2 PUSH0 DUP8 GAS CALL ISZERO DUP1 ISZERO PUSH2 0x8A0 JUMPI RETURNDATASIZE PUSH0 DUP1 RETURNDATACOPY RETURNDATASIZE PUSH0 REVERT JUMPDEST POP POP POP POP PUSH1 0x40 MLOAD RETURNDATASIZE PUSH1 0x1F NOT PUSH1 0x1F DUP3 ADD AND DUP3 ADD DUP1 PUSH1 0x40 MSTORE POP DUP2 ADD SWAP1 PUSH2 0x8C4 SWAP2 SWAP1 PUSH2 0x1D1F JUMP JUMPDEST POP PUSH1 0x2 SLOAD PUSH1 0x40 MLOAD PUSH4 0x79CC679 PUSH1 0xE4 SHL DUP2 MSTORE CALLER PUSH1 0x4 DUP3 ADD MSTORE PUSH1 0x24 DUP2 ADD DUP4 SWAP1 MSTORE PUSH1 0x1 PUSH1 0x1 PUSH1 0xA0 SHL SUB SWAP1 SWAP2 AND SWAP1 PUSH4 0x79CC6790 SWAP1 PUSH1 0x44 ADD PUSH0 PUSH1 0x40 MLOAD DUP1 DUP4 SUB DUP2 PUSH0 DUP8 DUP1 EXTCODESIZE ISZERO DUP1 ISZERO PUSH2 0x90E JUMPI PUSH0 DUP1 REVERT JUMPDEST POP GAS CALL ISZERO DUP1 ISZERO PUSH2 0x920 JUMPI RETURNDATASIZE PUSH0 DUP1 RETURNDATACOPY RETURNDATASIZE PUSH0 REVERT JUMPDEST POP POP POP POP PUSH2 0x931 DUP3 CALLER DUP4 PUSH1 0x1 PUSH2 0x1721 JUMP JUMPDEST PUSH1 0x40 DUP1 MLOAD DUP5 DUP2 MSTORE PUSH1 0x20 DUP2 ADD DUP9 SWAP1 MSTORE SWAP1 DUP2 ADD DUP3 SWAP1 MSTORE PUSH1 0x1 PUSH1 0x1 PUSH1 0xA0 SHL SUB DUP6 AND PUSH1 0x60 DUP3 ADD MSTORE CALLER SWAP1 DUP4 SWAP1 PUSH32 0x26C32CC5FF12981B55681844F2FB47D52C5E521C58D5288B1325F3304A7E8852 SWAP1 PUSH1 0x80 ADD PUSH1 0x40 MLOAD DUP1 SWAP2 SUB SWAP1 LOG3 POP POP POP POP POP POP JUMP JUMPDEST PUSH0 DUP1 MLOAD PUSH1 0x20 PUSH2 0x1F02 DUP4 CODECOPY DUP2 MLOAD SWAP2 MSTORE PUSH2 0x9A4 DUP2 PUSH2 0x185B JUMP JUMPDEST PUSH1 0x1 PUSH1 0x1 PUSH1 0xA0 SHL SUB DUP3 AND PUSH0 DUP2 DUP2 MSTORE PUSH1 0x8 PUSH1 0x20 MSTORE PUSH1 0x40 DUP1 DUP3 KECCAK256 DUP1 SLOAD PUSH1 0xFF NOT AND SWAP1 SSTORE MLOAD PUSH32 0xFA63555FE68CAD70E08233633567493A3C74AFDC8C7FB9F0C03A8E74F1A137A SWAP2 SWAP1 LOG2 POP POP JUMP JUMPDEST PUSH32 0x41DE7AE3BECAF069074D499EBCBD36DF88385BA1E2946870F7E4674AECD43704 PUSH2 0xA17 DUP2 PUSH2 0x185B JUMP JUMPDEST PUSH2 0xA1F PUSH2 0x16FB JUMP JUMPDEST CHAINID DUP5 SUB PUSH2 0xA87 JUMPI PUSH1 0x40 MLOAD PUSH3 0x461BCD PUSH1 0xE5 SHL DUP2 MSTORE PUSH1 0x20 PUSH1 0x4 DUP3 ADD MSTORE PUSH1 0x30 PUSH1 0x24 DUP3 ADD MSTORE PUSH32 0x536F7572636520636861696E206D75737420626520646966666572656E742066 PUSH1 0x44 DUP3 ADD MSTORE PUSH16 0x3937B6903A30B933B2BA1031B430B4B7 PUSH1 0x81 SHL PUSH1 0x64 DUP3 ADD MSTORE PUSH1 0x84 ADD PUSH2 0x6ED JUMP JUMPDEST PUSH0 DUP4 GT PUSH2 0xAD6 JUMPI PUSH1 0x40 MLOAD PUSH3 0x461BCD PUSH1 0xE5 SHL DUP2 MSTORE PUSH1 0x20 PUSH1 0x4 DUP3 ADD MSTORE PUSH1 0x1D PUSH1 0x24 DUP3 ADD MSTORE PUSH32 0x416D6F756E74206D7573742062652067726561746572207468616E2030000000 PUSH1 0x44 DUP3 ADD MSTORE PUSH1 0x64 ADD PUSH2 0x6ED JUMP JUMPDEST PUSH1 0x1 PUSH1 0x1 PUSH1 0xA0 SHL SUB DUP3 AND PUSH2 0xB2C JUMPI PUSH1 0x40 MLOAD PUSH3 0x461BCD PUSH1 0xE5 SHL DUP2 MSTORE PUSH1 0x20 PUSH1 0x4 DUP3 ADD MSTORE PUSH1 0x1B PUSH1 0x24 DUP3 ADD MSTORE PUSH32 0x496E76616C696420746172676574207573657220616464726573730000000000 PUSH1 0x44 DUP3 ADD MSTORE PUSH1 0x64 ADD PUSH2 0x6ED JUMP JUMPDEST PUSH0 DUP6 DUP2 MSTORE PUSH1 0xA PUSH1 0x20 MSTORE PUSH1 0x40 SWAP1 KECCAK256 SLOAD ISZERO PUSH2 0xB83 JUMPI PUSH1 0x40 MLOAD PUSH3 0x461BCD PUSH1 0xE5 SHL DUP2 MSTORE PUSH1 0x20 PUSH1 0x4 DUP3 ADD MSTORE PUSH1 0x19 PUSH1 0x24 DUP3 ADD MSTORE PUSH25 0x5265717565737420494420616C726561647920657869737473 PUSH1 0x38 SHL PUSH1 0x44 DUP3 ADD MSTORE PUSH1 0x64 ADD PUSH2 0x6ED JUMP JUMPDEST PUSH1 0x2 SLOAD PUSH1 0x40 MLOAD PUSH4 0x40C10F19 PUSH1 0xE0 SHL DUP2 MSTORE PUSH1 0x1 PUSH1 0x1 PUSH1 0xA0 SHL SUB DUP5 DUP2 AND PUSH1 0x4 DUP4 ADD MSTORE PUSH1 0x24 DUP3 ADD DUP7 SWAP1 MSTORE SWAP1 SWAP2 AND SWAP1 PUSH4 0x40C10F19 SWAP1 PUSH1 0x44 ADD PUSH0 PUSH1 0x40 MLOAD DUP1 DUP4 SUB DUP2 PUSH0 DUP8 DUP1 EXTCODESIZE ISZERO DUP1 ISZERO PUSH2 0xBCE JUMPI PUSH0 DUP1 REVERT JUMPDEST POP GAS CALL ISZERO DUP1 ISZERO PUSH2 0xBE0 JUMPI RETURNDATASIZE PUSH0 DUP1 RETURNDATACOPY RETURNDATASIZE PUSH0 REVERT JUMPDEST POP POP POP POP PUSH2 0xBF0 DUP6 DUP4 DUP6 PUSH0 PUSH2 0x1721 JUMP JUMPDEST PUSH1 0x40 DUP1 MLOAD DUP6 DUP2 MSTORE CHAINID PUSH1 0x20 DUP3 ADD MSTORE SWAP1 DUP2 ADD DUP5 SWAP1 MSTORE PUSH1 0x1 PUSH1 0x1 PUSH1 0xA0 SHL SUB DUP4 AND PUSH1 0x60 DUP3 ADD MSTORE CALLER SWAP1 DUP7 SWAP1 PUSH32 0x7690D9CEDF96F067BDA7114C24BBA31BE184AE045D199979A0A373862E70D46B SWAP1 PUSH1 0x80 ADD PUSH1 0x40 MLOAD DUP1 SWAP2 SUB SWAP1 LOG3 POP POP POP POP POP JUMP JUMPDEST PUSH0 DUP3 DUP2 MSTORE PUSH1 0x20 DUP2 SWAP1 MSTORE PUSH1 0x40 SWAP1 KECCAK256 PUSH1 0x1 ADD SLOAD PUSH2 0xC64 DUP2 PUSH2 0x185B JUMP JUMPDEST PUSH2 0xC6E DUP4 DUP4 PUSH2 0x1865 JUMP JUMPDEST POP POP POP POP JUMP JUMPDEST PUSH1 0x7 DUP2 DUP2 SLOAD DUP2 LT PUSH2 0xC83 JUMPI PUSH0 DUP1 REVERT JUMPDEST PUSH0 SWAP2 DUP3 MSTORE PUSH1 0x20 SWAP1 SWAP2 KECCAK256 ADD SLOAD SWAP1 POP DUP2 JUMP JUMPDEST PUSH1 0x1 PUSH1 0x1 PUSH1 0xA0 SHL SUB DUP2 AND CALLER EQ PUSH2 0xCBC JUMPI PUSH1 0x40 MLOAD PUSH4 0x334BD919 PUSH1 0xE1 SHL DUP2 MSTORE PUSH1 0x4 ADD PUSH1 0x40 MLOAD DUP1 SWAP2 SUB SWAP1 REVERT JUMPDEST PUSH2 0xCC6 DUP3 DUP3 PUSH2 0x18F4 JUMP JUMPDEST POP POP POP JUMP JUMPDEST PUSH32 0x65D7A28E3265B37A6474929F336521B332C1681B933F6CB9F3376673440D862A PUSH2 0xCF5 DUP2 PUSH2 0x185B JUMP JUMPDEST PUSH2 0xCFD PUSH2 0x195D JUMP JUMPDEST POP JUMP JUMPDEST PUSH32 0x65D7A28E3265B37A6474929F336521B332C1681B933F6CB9F3376673440D862A PUSH2 0xD2A DUP2 PUSH2 0x185B JUMP JUMPDEST PUSH2 0xCFD PUSH2 0x19AF JUMP JUMPDEST PUSH1 0x6 DUP2 DUP2 SLOAD DUP2 LT PUSH2 0xC83 JUMPI PUSH0 DUP1 REVERT JUMPDEST PUSH0 SWAP2 DUP3 MSTORE PUSH1 0x20 DUP3 DUP2 MSTORE PUSH1 0x40 DUP1 DUP5 KECCAK256 PUSH1 0x1 PUSH1 0x1 PUSH1 0xA0 SHL SUB SWAP4 SWAP1 SWAP4 AND DUP5 MSTORE SWAP2 SWAP1 MSTORE SWAP1 KECCAK256 SLOAD PUSH1 0xFF AND SWAP1 JUMP JUMPDEST PUSH1 0x60 PUSH0 DUP4 ISZERO DUP1 PUSH2 0xD77 JUMPI POP DUP3 ISZERO JUMPDEST DUP1 PUSH2 0xD8B JUMPI POP PUSH0 DUP5 GT DUP1 ISZERO PUSH2 0xD8B JUMPI POP PUSH0 DUP4 GT JUMPDEST PUSH2 0xDD3 JUMPI PUSH1 0x40 MLOAD PUSH3 0x461BCD PUSH1 0xE5 SHL DUP2 MSTORE PUSH1 0x20 PUSH1 0x4 DUP3 ADD MSTORE PUSH1 0x19 PUSH1 0x24 DUP3 ADD MSTORE PUSH25 0x496E76616C69642070616765206F7220706167652073697A65 PUSH1 0x38 SHL PUSH1 0x44 DUP3 ADD MSTORE PUSH1 0x64 ADD PUSH2 0x6ED JUMP JUMPDEST PUSH0 DUP1 JUMPDEST PUSH1 0x6 SLOAD DUP2 LT ISZERO PUSH2 0xE42 JUMPI DUP7 PUSH1 0x1 PUSH1 0x1 PUSH1 0xA0 SHL SUB AND PUSH1 0xA PUSH0 PUSH1 0x6 DUP5 DUP2 SLOAD DUP2 LT PUSH2 0xE00 JUMPI PUSH2 0xE00 PUSH2 0x1D3E JUMP JUMPDEST PUSH0 SWAP2 DUP3 MSTORE PUSH1 0x20 DUP1 DUP4 KECCAK256 SWAP1 SWAP2 ADD SLOAD DUP4 MSTORE DUP3 ADD SWAP3 SWAP1 SWAP3 MSTORE PUSH1 0x40 ADD SWAP1 KECCAK256 PUSH1 0x1 ADD SLOAD PUSH1 0x1 PUSH1 0x1 PUSH1 0xA0 SHL SUB AND SUB PUSH2 0xE3A JUMPI DUP2 PUSH2 0xE36 DUP2 PUSH2 0x1CF4 JUMP JUMPDEST SWAP3 POP POP JUMPDEST PUSH1 0x1 ADD PUSH2 0xDD6 JUMP JUMPDEST POP PUSH0 DUP2 DUP7 ISZERO DUP1 ISZERO SWAP1 PUSH2 0xE53 JUMPI POP PUSH0 DUP7 GT JUMPDEST ISZERO PUSH2 0xE91 JUMPI PUSH2 0xE62 DUP7 DUP9 PUSH2 0x1D52 JUMP JUMPDEST PUSH2 0xE6C SWAP1 DUP5 PUSH2 0x1D0C JUMP JUMPDEST SWAP2 POP DUP3 DUP3 GT ISZERO PUSH2 0xE7A JUMPI PUSH0 SWAP2 POP JUMPDEST PUSH2 0xE84 DUP7 DUP4 PUSH2 0x1D69 JUMP JUMPDEST SWAP1 POP DUP3 DUP2 GT ISZERO PUSH2 0xE91 JUMPI POP DUP2 JUMPDEST PUSH0 PUSH2 0xE9C DUP4 DUP4 PUSH2 0x1D0C JUMP JUMPDEST PUSH8 0xFFFFFFFFFFFFFFFF DUP2 GT ISZERO PUSH2 0xEB4 JUMPI PUSH2 0xEB4 PUSH2 0x1D7C JUMP JUMPDEST PUSH1 0x40 MLOAD SWAP1 DUP1 DUP3 MSTORE DUP1 PUSH1 0x20 MUL PUSH1 0x20 ADD DUP3 ADD PUSH1 0x40 MSTORE DUP1 ISZERO PUSH2 0xEDD JUMPI DUP2 PUSH1 0x20 ADD PUSH1 0x20 DUP3 MUL DUP1 CALLDATASIZE DUP4 CALLDATACOPY ADD SWAP1 POP JUMPDEST POP PUSH1 0x6 SLOAD SWAP1 SWAP2 POP PUSH0 SWAP1 JUMPDEST PUSH0 DUP2 GT DUP1 ISZERO PUSH2 0xEF6 JUMPI POP DUP3 MLOAD DUP3 LT JUMPDEST ISZERO PUSH2 0xFA6 JUMPI PUSH0 PUSH1 0x6 PUSH2 0xF09 PUSH1 0x1 DUP5 PUSH2 0x1D0C JUMP JUMPDEST DUP2 SLOAD DUP2 LT PUSH2 0xF19 JUMPI PUSH2 0xF19 PUSH2 0x1D3E JUMP JUMPDEST PUSH0 SWAP2 DUP3 MSTORE PUSH1 0x20 DUP1 DUP4 KECCAK256 SWAP1 SWAP2 ADD SLOAD DUP1 DUP4 MSTORE PUSH1 0xA SWAP1 SWAP2 MSTORE PUSH1 0x40 SWAP1 SWAP2 KECCAK256 PUSH1 0x1 ADD SLOAD SWAP1 SWAP2 POP PUSH1 0x1 PUSH1 0x1 PUSH1 0xA0 SHL SUB DUP1 DUP15 AND SWAP2 AND SUB PUSH2 0xF93 JUMPI DUP6 PUSH2 0xF57 DUP5 DUP10 PUSH2 0x1D0C JUMP JUMPDEST GT ISZERO PUSH2 0xF8D JUMPI DUP1 DUP5 DUP5 DUP2 MLOAD DUP2 LT PUSH2 0xF70 JUMPI PUSH2 0xF70 PUSH2 0x1D3E JUMP JUMPDEST PUSH1 0x20 SWAP1 DUP2 MUL SWAP2 SWAP1 SWAP2 ADD ADD MSTORE DUP3 PUSH2 0xF85 DUP2 PUSH2 0x1CF4 JUMP JUMPDEST SWAP4 POP POP PUSH2 0xF93 JUMP JUMPDEST POP PUSH2 0xFA6 JUMP JUMPDEST POP DUP1 PUSH2 0xF9E DUP2 PUSH2 0x1D90 JUMP JUMPDEST SWAP2 POP POP PUSH2 0xEE7 JUMP JUMPDEST POP SWAP1 SWAP6 POP SWAP3 SWAP4 POP POP POP POP JUMPDEST SWAP4 POP SWAP4 SWAP2 POP POP JUMP JUMPDEST PUSH1 0x1 PUSH1 0x1 PUSH1 0xA0 SHL SUB DUP3 AND PUSH0 SWAP1 DUP2 MSTORE PUSH1 0x8 PUSH1 0x20 MSTORE PUSH1 0x40 SWAP1 KECCAK256 SLOAD PUSH1 0xFF AND PUSH2 0x101C JUMPI PUSH1 0x40 MLOAD PUSH3 0x461BCD PUSH1 0xE5 SHL DUP2 MSTORE PUSH1 0x20 PUSH1 0x4 DUP3 ADD MSTORE PUSH1 0x19 PUSH1 0x24 DUP3 ADD MSTORE PUSH25 0x14DD18589B1958DBDA5B881B9BDD081C9959DA5CDD195C9959 PUSH1 0x3A SHL PUSH1 0x44 DUP3 ADD MSTORE PUSH1 0x64 ADD PUSH2 0x6ED JUMP JUMPDEST PUSH0 DUP3 PUSH1 0x1 PUSH1 0x1 PUSH1 0xA0 SHL SUB AND PUSH4 0x313CE567 PUSH1 0x40 MLOAD DUP2 PUSH4 0xFFFFFFFF AND PUSH1 0xE0 SHL DUP2 MSTORE PUSH1 0x4 ADD PUSH1 0x20 PUSH1 0x40 MLOAD DUP1 DUP4 SUB DUP2 DUP7 GAS STATICCALL ISZERO DUP1 ISZERO PUSH2 0x1059 JUMPI RETURNDATASIZE PUSH0 DUP1 RETURNDATACOPY RETURNDATASIZE PUSH0 REVERT JUMPDEST POP POP POP POP PUSH1 0x40 MLOAD RETURNDATASIZE PUSH1 0x1F NOT PUSH1 0x1F DUP3 ADD AND DUP3 ADD DUP1 PUSH1 0x40 MSTORE POP DUP2 ADD SWAP1 PUSH2 0x107D SWAP2 SWAP1 PUSH2 0x1DA5 JUMP JUMPDEST SWAP1 POP PUSH0 PUSH2 0x108C DUP4 DUP4 PUSH1 0x6 PUSH2 0x19EA JUMP JUMPDEST PUSH1 0x1 SLOAD PUSH1 0x40 MLOAD PUSH4 0x23B872DD PUSH1 0xE0 SHL DUP2 MSTORE CALLER PUSH1 0x4 DUP3 ADD MSTORE PUSH1 0x1 PUSH1 0x1 PUSH1 0xA0 SHL SUB PUSH2 0x100 SWAP1 SWAP3 DIV DUP3 AND PUSH1 0x24 DUP3 ADD MSTORE PUSH1 0x44 DUP2 ADD DUP7 SWAP1 MSTORE SWAP2 SWAP3 POP DUP6 AND SWAP1 PUSH4 0x23B872DD SWAP1 PUSH1 0x64 ADD PUSH1 0x20 PUSH1 0x40 MLOAD DUP1 DUP4 SUB DUP2 PUSH0 DUP8 GAS CALL ISZERO DUP1 ISZERO PUSH2 0x10E9 JUMPI RETURNDATASIZE PUSH0 DUP1 RETURNDATACOPY RETURNDATASIZE PUSH0 REVERT JUMPDEST POP POP POP POP PUSH1 0x40 MLOAD RETURNDATASIZE PUSH1 0x1F NOT PUSH1 0x1F DUP3 ADD AND DUP3 ADD DUP1 PUSH1 0x40 MSTORE POP DUP2 ADD SWAP1 PUSH2 0x110D SWAP2 SWAP1 PUSH2 0x1D1F JUMP JUMPDEST PUSH2 0x1159 JUMPI PUSH1 0x40 MLOAD PUSH3 0x461BCD PUSH1 0xE5 SHL DUP2 MSTORE PUSH1 0x20 PUSH1 0x4 DUP3 ADD MSTORE PUSH1 0x1A PUSH1 0x24 DUP3 ADD MSTORE PUSH32 0x537461626C65636F696E207472616E73666572206661696C6564000000000000 PUSH1 0x44 DUP3 ADD MSTORE PUSH1 0x64 ADD PUSH2 0x6ED JUMP JUMPDEST PUSH1 0x2 SLOAD PUSH1 0x40 MLOAD PUSH4 0x40C10F19 PUSH1 0xE0 SHL DUP2 MSTORE CALLER PUSH1 0x4 DUP3 ADD MSTORE PUSH1 0x24 DUP2 ADD DUP4 SWAP1 MSTORE PUSH1 0x1 PUSH1 0x1 PUSH1 0xA0 SHL SUB SWAP1 SWAP2 AND SWAP1 PUSH4 0x40C10F19 SWAP1 PUSH1 0x44 ADD PUSH0 PUSH1 0x40 MLOAD DUP1 DUP4 SUB DUP2 PUSH0 DUP8 DUP1 EXTCODESIZE ISZERO DUP1 ISZERO PUSH2 0x11A2 JUMPI PUSH0 DUP1 REVERT JUMPDEST POP GAS CALL ISZERO DUP1 ISZERO PUSH2 0x11B4 JUMPI RETURNDATASIZE PUSH0 DUP1 RETURNDATACOPY RETURNDATASIZE PUSH0 REVERT JUMPDEST POP POP PUSH1 0x40 DUP1 MLOAD DUP7 DUP2 MSTORE PUSH1 0x20 DUP2 ADD DUP6 SWAP1 MSTORE PUSH1 0x1 PUSH1 0x1 PUSH1 0xA0 SHL SUB DUP9 AND SWAP4 POP CALLER SWAP3 POP PUSH32 0x66C62F0863782653C5C44E10BF21D9DEF60984CE20D9F75549575A8910896587 SWAP2 ADD JUMPDEST PUSH1 0x40 MLOAD DUP1 SWAP2 SUB SWAP1 LOG3 POP POP POP POP JUMP JUMPDEST PUSH1 0x60 PUSH0 DUP4 ISZERO DUP1 PUSH2 0x1213 JUMPI POP DUP3 ISZERO JUMPDEST DUP1 PUSH2 0x1227 JUMPI POP PUSH0 DUP5 GT DUP1 ISZERO PUSH2 0x1227 JUMPI POP PUSH0 DUP4 GT JUMPDEST PUSH2 0x126F JUMPI PUSH1 0x40 MLOAD PUSH3 0x461BCD PUSH1 0xE5 SHL DUP2 MSTORE PUSH1 0x20 PUSH1 0x4 DUP3 ADD MSTORE PUSH1 0x19 PUSH1 0x24 DUP3 ADD MSTORE PUSH25 0x496E76616C69642070616765206F7220706167652073697A65 PUSH1 0x38 SHL PUSH1 0x44 DUP3 ADD MSTORE PUSH1 0x64 ADD PUSH2 0x6ED JUMP JUMPDEST PUSH0 DUP1 JUMPDEST PUSH1 0x7 SLOAD DUP2 LT ISZERO PUSH2 0x12DE JUMPI DUP7 PUSH1 0x1 PUSH1 0x1 PUSH1 0xA0 SHL SUB AND PUSH1 0xA PUSH0 PUSH1 0x7 DUP5 DUP2 SLOAD DUP2 LT PUSH2 0x129C JUMPI PUSH2 0x129C PUSH2 0x1D3E JUMP JUMPDEST PUSH0 SWAP2 DUP3 MSTORE PUSH1 0x20 DUP1 DUP4 KECCAK256 SWAP1 SWAP2 ADD SLOAD DUP4 MSTORE DUP3 ADD SWAP3 SWAP1 SWAP3 MSTORE PUSH1 0x40 ADD SWAP1 KECCAK256 PUSH1 0x1 ADD SLOAD PUSH1 0x1 PUSH1 0x1 PUSH1 0xA0 SHL SUB AND SUB PUSH2 0x12D6 JUMPI DUP2 PUSH2 0x12D2 DUP2 PUSH2 0x1CF4 JUMP JUMPDEST SWAP3 POP POP JUMPDEST PUSH1 0x1 ADD PUSH2 0x1272 JUMP JUMPDEST POP PUSH0 DUP2 DUP7 ISZERO DUP1 ISZERO SWAP1 PUSH2 0x12EF JUMPI POP PUSH0 DUP7 GT JUMPDEST ISZERO PUSH2 0x132D JUMPI PUSH2 0x12FE DUP7 DUP9 PUSH2 0x1D52 JUMP JUMPDEST PUSH2 0x1308 SWAP1 DUP5 PUSH2 0x1D0C JUMP JUMPDEST SWAP2 POP DUP3 DUP3 GT ISZERO PUSH2 0x1316 JUMPI PUSH0 SWAP2 POP JUMPDEST PUSH2 0x1320 DUP7 DUP4 PUSH2 0x1D69 JUMP JUMPDEST SWAP1 POP DUP3 DUP2 GT ISZERO PUSH2 0x132D JUMPI POP DUP2 JUMPDEST PUSH0 PUSH2 0x1338 DUP4 DUP4 PUSH2 0x1D0C JUMP JUMPDEST PUSH8 0xFFFFFFFFFFFFFFFF DUP2 GT ISZERO PUSH2 0x1350 JUMPI PUSH2 0x1350 PUSH2 0x1D7C JUMP JUMPDEST PUSH1 0x40 MLOAD SWAP1 DUP1 DUP3 MSTORE DUP1 PUSH1 0x20 MUL PUSH1 0x20 ADD DUP3 ADD PUSH1 0x40 MSTORE DUP1 ISZERO PUSH2 0x1379 JUMPI DUP2 PUSH1 0x20 ADD PUSH1 0x20 DUP3 MUL DUP1 CALLDATASIZE DUP4 CALLDATACOPY ADD SWAP1 POP JUMPDEST POP PUSH1 0x7 SLOAD SWAP1 SWAP2 POP PUSH0 SWAP1 JUMPDEST PUSH0 DUP2 GT DUP1 ISZERO PUSH2 0x1392 JUMPI POP DUP3 MLOAD DUP3 LT JUMPDEST ISZERO PUSH2 0xFA6 JUMPI PUSH0 PUSH1 0x7 PUSH2 0x13A5 PUSH1 0x1 DUP5 PUSH2 0x1D0C JUMP JUMPDEST DUP2 SLOAD DUP2 LT PUSH2 0x13B5 JUMPI PUSH2 0x13B5 PUSH2 0x1D3E JUMP JUMPDEST PUSH0 SWAP2 DUP3 MSTORE PUSH1 0x20 DUP1 DUP4 KECCAK256 SWAP1 SWAP2 ADD SLOAD DUP1 DUP4 MSTORE PUSH1 0xA SWAP1 SWAP2 MSTORE PUSH1 0x40 SWAP1 SWAP2 KECCAK256 PUSH1 0x1 ADD SLOAD SWAP1 SWAP2 POP PUSH1 0x1 PUSH1 0x1 PUSH1 0xA0 SHL SUB DUP1 DUP15 AND SWAP2 AND SUB PUSH2 0x1425 JUMPI DUP6 PUSH2 0x13F3 DUP5 DUP10 PUSH2 0x1D0C JUMP JUMPDEST GT ISZERO PUSH2 0xF8D JUMPI DUP1 DUP5 DUP5 DUP2 MLOAD DUP2 LT PUSH2 0x140C JUMPI PUSH2 0x140C PUSH2 0x1D3E JUMP JUMPDEST PUSH1 0x20 SWAP1 DUP2 MUL SWAP2 SWAP1 SWAP2 ADD ADD MSTORE DUP3 PUSH2 0x1421 DUP2 PUSH2 0x1CF4 JUMP JUMPDEST SWAP4 POP POP JUMPDEST POP DUP1 PUSH2 0x1430 DUP2 PUSH2 0x1D90 JUMP JUMPDEST SWAP2 POP POP PUSH2 0x1383 JUMP JUMPDEST PUSH0 DUP1 MLOAD PUSH1 0x20 PUSH2 0x1F02 DUP4 CODECOPY DUP2 MLOAD SWAP2 MSTORE PUSH2 0x144F DUP2 PUSH2 0x185B JUMP JUMPDEST POP PUSH1 0x4 SSTORE JUMP JUMPDEST PUSH0 DUP1 MLOAD PUSH1 0x20 PUSH2 0x1F02 DUP4 CODECOPY DUP2 MLOAD SWAP2 MSTORE PUSH2 0x146C DUP2 PUSH2 0x185B JUMP JUMPDEST PUSH1 0x1 PUSH1 0x1 PUSH1 0xA0 SHL SUB DUP3 AND PUSH0 DUP2 DUP2 MSTORE PUSH1 0x8 PUSH1 0x20 MSTORE PUSH1 0x40 DUP1 DUP3 KECCAK256 DUP1 SLOAD PUSH1 0xFF NOT AND PUSH1 0x1 OR SWAP1 SSTORE MLOAD PUSH32 0xD8B2DC62B787EC8AFBC8A664CF2FD7C1E7851721ACC9E0069132CECE3C529C2E SWAP2 SWAP1 LOG2 POP POP JUMP JUMPDEST PUSH1 0x1 PUSH1 0x1 PUSH1 0xA0 SHL SUB DUP3 AND PUSH0 SWAP1 DUP2 MSTORE PUSH1 0x8 PUSH1 0x20 MSTORE PUSH1 0x40 SWAP1 KECCAK256 SLOAD PUSH1 0xFF AND PUSH2 0x151B JUMPI PUSH1 0x40 MLOAD PUSH3 0x461BCD PUSH1 0xE5 SHL DUP2 MSTORE PUSH1 0x20 PUSH1 0x4 DUP3 ADD MSTORE PUSH1 0x19 PUSH1 0x24 DUP3 ADD MSTORE PUSH25 0x14DD18589B1958DBDA5B881B9BDD081C9959DA5CDD195C9959 PUSH1 0x3A SHL PUSH1 0x44 DUP3 ADD MSTORE PUSH1 0x64 ADD PUSH2 0x6ED JUMP JUMPDEST PUSH0 DUP3 PUSH1 0x1 PUSH1 0x1 PUSH1 0xA0 SHL SUB AND PUSH4 0x313CE567 PUSH1 0x40 MLOAD DUP2 PUSH4 0xFFFFFFFF AND PUSH1 0xE0 SHL DUP2 MSTORE PUSH1 0x4 ADD PUSH1 0x20 PUSH1 0x40 MLOAD DUP1 DUP4 SUB DUP2 DUP7 GAS STATICCALL ISZERO DUP1 ISZERO PUSH2 0x1558 JUMPI RETURNDATASIZE PUSH0 DUP1 RETURNDATACOPY RETURNDATASIZE PUSH0 REVERT JUMPDEST POP POP POP POP PUSH1 0x40 MLOAD RETURNDATASIZE PUSH1 0x1F NOT PUSH1 0x1F DUP3 ADD AND DUP3 ADD DUP1 PUSH1 0x40 MSTORE POP DUP2 ADD SWAP1 PUSH2 0x157C SWAP2 SWAP1 PUSH2 0x1DA5 JUMP JUMPDEST SWAP1 POP PUSH0 PUSH2 0x158B DUP4 PUSH1 0x6 DUP5 PUSH2 0x1A5C JUMP JUMPDEST PUSH1 0x1 SLOAD PUSH1 0x40 MLOAD PUSH4 0x1795588D PUSH1 0xE2 SHL DUP2 MSTORE PUSH1 0x1 PUSH1 0x1 PUSH1 0xA0 SHL SUB DUP8 DUP2 AND PUSH1 0x4 DUP4 ADD MSTORE CALLER PUSH1 0x24 DUP4 ADD MSTORE PUSH1 0x44 DUP3 ADD DUP5 SWAP1 MSTORE SWAP3 SWAP4 POP PUSH2 0x100 SWAP1 SWAP2 DIV SWAP1 SWAP2 AND SWAP1 PUSH4 0x5E556234 SWAP1 PUSH1 0x64 ADD PUSH0 PUSH1 0x40 MLOAD DUP1 DUP4 SUB DUP2 PUSH0 DUP8 DUP1 EXTCODESIZE ISZERO DUP1 ISZERO PUSH2 0x15E5 JUMPI PUSH0 DUP1 REVERT JUMPDEST POP GAS CALL ISZERO DUP1 ISZERO PUSH2 0x15F7 JUMPI RETURNDATASIZE PUSH0 DUP1 RETURNDATACOPY RETURNDATASIZE PUSH0 REVERT JUMPDEST POP POP PUSH1 0x2 SLOAD PUSH1 0x40 MLOAD PUSH4 0x79CC679 PUSH1 0xE4 SHL DUP2 MSTORE CALLER PUSH1 0x4 DUP3 ADD MSTORE PUSH1 0x24 DUP2 ADD DUP8 SWAP1 MSTORE PUSH1 0x1 PUSH1 0x1 PUSH1 0xA0 SHL SUB SWAP1 SWAP2 AND SWAP3 POP PUSH4 0x79CC6790 SWAP2 POP PUSH1 0x44 ADD PUSH0 PUSH1 0x40 MLOAD DUP1 DUP4 SUB DUP2 PUSH0 DUP8 DUP1 EXTCODESIZE ISZERO DUP1 ISZERO PUSH2 0x1644 JUMPI PUSH0 DUP1 REVERT JUMPDEST POP GAS CALL ISZERO DUP1 ISZERO PUSH2 0x1656 JUMPI RETURNDATASIZE PUSH0 DUP1 RETURNDATACOPY RETURNDATASIZE PUSH0 REVERT JUMPDEST POP POP PUSH1 0x40 DUP1 MLOAD DUP7 DUP2 MSTORE PUSH1 0x20 DUP2 ADD DUP6 SWAP1 MSTORE PUSH1 0x1 PUSH1 0x1 PUSH1 0xA0 SHL SUB DUP9 AND SWAP4 POP CALLER SWAP3 POP PUSH32 0x3D9842CBDFA603AB9534D6E362BF28B3061318F57FED5E7087DFC956A9D74442 SWAP2 ADD PUSH2 0x11F7 JUMP JUMPDEST PUSH0 DUP3 DUP2 MSTORE PUSH1 0x20 DUP2 SWAP1 MSTORE PUSH1 0x40 SWAP1 KECCAK256 PUSH1 0x1 ADD SLOAD PUSH2 0x16B7 DUP2 PUSH2 0x185B JUMP JUMPDEST PUSH2 0xC6E DUP4 DUP4 PUSH2 0x18F4 JUMP JUMPDEST PUSH0 DUP1 MLOAD PUSH1 0x20 PUSH2 0x1F02 DUP4 CODECOPY DUP2 MLOAD SWAP2 MSTORE PUSH2 0x16D8 DUP2 PUSH2 0x185B JUMP JUMPDEST POP PUSH1 0x5 DUP1 SLOAD PUSH1 0x1 PUSH1 0x1 PUSH1 0xA0 SHL SUB NOT AND PUSH1 0x1 PUSH1 0x1 PUSH1 0xA0 SHL SUB SWAP3 SWAP1 SWAP3 AND SWAP2 SWAP1 SWAP2 OR SWAP1 SSTORE JUMP JUMPDEST PUSH1 0x1 SLOAD PUSH1 0xFF AND ISZERO PUSH2 0x171F JUMPI PUSH1 0x40 MLOAD PUSH4 0xD93C0665 PUSH1 0xE0 SHL DUP2 MSTORE PUSH1 0x4 ADD PUSH1 0x40 MLOAD DUP1 SWAP2 SUB SWAP1 REVERT JUMPDEST JUMP JUMPDEST PUSH1 0x40 DUP1 MLOAD PUSH1 0x80 DUP2 ADD DUP3 MSTORE DUP6 DUP2 MSTORE PUSH1 0x1 PUSH1 0x1 PUSH1 0xA0 SHL SUB DUP6 DUP2 AND PUSH1 0x20 DUP1 DUP5 ADD SWAP2 DUP3 MSTORE DUP4 DUP6 ADD DUP8 DUP2 MSTORE DUP7 ISZERO DUP1 ISZERO PUSH1 0x60 DUP8 ADD SWAP1 DUP2 MSTORE PUSH0 DUP13 DUP2 MSTORE PUSH1 0xA SWAP1 SWAP5 MSTORE SWAP7 SWAP1 SWAP3 KECCAK256 DUP6 MLOAD DUP2 SSTORE SWAP3 MLOAD PUSH1 0x1 DUP5 ADD DUP1 SLOAD PUSH1 0x1 PUSH1 0x1 PUSH1 0xA0 SHL SUB NOT AND SWAP2 SWAP1 SWAP6 AND OR SWAP1 SWAP4 SSTORE SWAP2 MLOAD PUSH1 0x2 DUP3 ADD SSTORE SWAP3 MLOAD PUSH1 0x3 SWAP1 SWAP4 ADD DUP1 SLOAD PUSH1 0xFF NOT AND SWAP4 ISZERO ISZERO SWAP4 SWAP1 SWAP4 OR SWAP1 SWAP3 SSTORE SWAP1 PUSH2 0x17D9 JUMPI PUSH1 0x6 DUP1 SLOAD PUSH1 0x1 DUP2 ADD DUP3 SSTORE PUSH0 SWAP2 SWAP1 SWAP2 MSTORE PUSH32 0xF652222313E28459528D920B65115C16C04F3EFC82AAEDC97BE59F3F377C0D3F ADD DUP6 SWAP1 SSTORE PUSH2 0x180E JUMP JUMPDEST PUSH1 0x7 DUP1 SLOAD PUSH1 0x1 DUP2 ADD DUP3 SSTORE PUSH0 SWAP2 SWAP1 SWAP2 MSTORE PUSH32 0xA66CC928B5EDB82AF9BD49922954155AB7B0942694BEA4CE44661D9A8736C688 ADD DUP6 SWAP1 SSTORE JUMPDEST DUP2 ISZERO PUSH2 0x1836 JUMPI PUSH1 0x6 SLOAD PUSH2 0x1823 SWAP1 PUSH1 0x1 SWAP1 PUSH2 0x1D0C JUMP JUMPDEST PUSH0 DUP7 DUP2 MSTORE PUSH1 0xB PUSH1 0x20 MSTORE PUSH1 0x40 SWAP1 KECCAK256 SSTORE PUSH2 0x1854 JUMP JUMPDEST PUSH1 0x7 SLOAD PUSH2 0x1845 SWAP1 PUSH1 0x1 SWAP1 PUSH2 0x1D0C JUMP JUMPDEST PUSH0 DUP7 DUP2 MSTORE PUSH1 0xC PUSH1 0x20 MSTORE PUSH1 0x40 SWAP1 KECCAK256 SSTORE JUMPDEST POP POP POP POP POP JUMP JUMPDEST PUSH2 0xCFD DUP2 CALLER PUSH2 0x1AD2 JUMP JUMPDEST PUSH0 PUSH2 0x1870 DUP4 DUP4 PUSH2 0xD41 JUMP JUMPDEST PUSH2 0x18ED JUMPI PUSH0 DUP4 DUP2 MSTORE PUSH1 0x20 DUP2 DUP2 MSTORE PUSH1 0x40 DUP1 DUP4 KECCAK256 PUSH1 0x1 PUSH1 0x1 PUSH1 0xA0 SHL SUB DUP7 AND DUP5 MSTORE SWAP1 SWAP2 MSTORE SWAP1 KECCAK256 DUP1 SLOAD PUSH1 0xFF NOT AND PUSH1 0x1 OR SWAP1 SSTORE PUSH2 0x18A5 CALLER SWAP1 JUMP JUMPDEST PUSH1 0x1 PUSH1 0x1 PUSH1 0xA0 SHL SUB AND DUP3 PUSH1 0x1 PUSH1 0x1 PUSH1 0xA0 SHL SUB AND DUP5 PUSH32 0x2F8788117E7EFF1D82E926EC794901D17C78024A50270940304540A733656F0D PUSH1 0x40 MLOAD PUSH1 0x40 MLOAD DUP1 SWAP2 SUB SWAP1 LOG4 POP PUSH1 0x1 PUSH2 0x67B JUMP JUMPDEST POP PUSH0 PUSH2 0x67B JUMP JUMPDEST PUSH0 PUSH2 0x18FF DUP4 DUP4 PUSH2 0xD41 JUMP JUMPDEST ISZERO PUSH2 0x18ED JUMPI PUSH0 DUP4 DUP2 MSTORE PUSH1 0x20 DUP2 DUP2 MSTORE PUSH1 0x40 DUP1 DUP4 KECCAK256 PUSH1 0x1 PUSH1 0x1 PUSH1 0xA0 SHL SUB DUP7 AND DUP1 DUP6 MSTORE SWAP3 MSTORE DUP1 DUP4 KECCAK256 DUP1 SLOAD PUSH1 0xFF NOT AND SWAP1 SSTORE MLOAD CALLER SWAP3 DUP7 SWAP2 PUSH32 0xF6391F5C32D9C69D2A47EA670B442974B53935D1EDC7FD64EB21E047A839171B SWAP2 SWAP1 LOG4 POP PUSH1 0x1 PUSH2 0x67B JUMP JUMPDEST PUSH2 0x1965 PUSH2 0x1B0F JUMP JUMPDEST PUSH1 0x1 DUP1 SLOAD PUSH1 0xFF NOT AND SWAP1 SSTORE PUSH32 0x5DB9EE0A495BF2E6FF9C91A7834C1BA4FDD244A5E8AA4E537BD38AEAE4B073AA CALLER JUMPDEST PUSH1 0x40 MLOAD PUSH1 0x1 PUSH1 0x1 PUSH1 0xA0 SHL SUB SWAP1 SWAP2 AND DUP2 MSTORE PUSH1 0x20 ADD PUSH1 0x40 MLOAD DUP1 SWAP2 SUB SWAP1 LOG1 JUMP JUMPDEST PUSH2 0x19B7 PUSH2 0x16FB JUMP JUMPDEST PUSH1 0x1 DUP1 SLOAD PUSH1 0xFF NOT AND DUP2 OR SWAP1 SSTORE PUSH32 0x62E78CEA01BEE320CD4E420270B5EA74000D11B0C9F74754EBDBFC544B05A258 CALLER PUSH2 0x1992 JUMP JUMPDEST PUSH0 DUP2 PUSH1 0xFF AND DUP4 PUSH1 0xFF AND SUB PUSH2 0x19FF JUMPI POP DUP3 PUSH2 0x1A55 JUMP JUMPDEST DUP2 PUSH1 0xFF AND DUP4 PUSH1 0xFF AND LT ISZERO PUSH2 0x1A33 JUMPI PUSH2 0x1A17 DUP4 DUP4 PUSH2 0x1DC5 JUMP JUMPDEST PUSH2 0x1A22 SWAP1 PUSH1 0xA PUSH2 0x1EB9 JUMP JUMPDEST PUSH2 0x1A2C SWAP1 DUP6 PUSH2 0x1D52 JUMP JUMPDEST SWAP1 POP PUSH2 0x1A55 JUMP JUMPDEST PUSH2 0x1A3D DUP3 DUP5 PUSH2 0x1DC5 JUMP JUMPDEST PUSH2 0x1A48 SWAP1 PUSH1 0xA PUSH2 0x1EB9 JUMP JUMPDEST PUSH2 0x1A52 SWAP1 DUP6 PUSH2 0x1EDB JUMP JUMPDEST SWAP1 POP JUMPDEST SWAP4 SWAP3 POP POP POP JUMP JUMPDEST PUSH0 DUP2 PUSH1 0xFF AND DUP4 PUSH1 0xFF AND SUB PUSH2 0x1A71 JUMPI POP DUP3 PUSH2 0x1A55 JUMP JUMPDEST DUP2 PUSH1 0xFF AND DUP4 PUSH1 0xFF AND LT ISZERO PUSH2 0x1A89 JUMPI PUSH2 0x1A17 DUP4 DUP4 PUSH2 0x1DC5 JUMP JUMPDEST PUSH0 PUSH2 0x1A94 DUP4 DUP6 PUSH2 0x1DC5 JUMP JUMPDEST PUSH2 0x1A9F SWAP1 PUSH1 0xA PUSH2 0x1EB9 JUMP JUMPDEST SWAP1 POP PUSH2 0x1AAB DUP2 DUP7 PUSH2 0x1EDB JUMP JUMPDEST SWAP2 POP PUSH2 0x1AB7 DUP2 DUP7 PUSH2 0x1EEE JUMP JUMPDEST ISZERO PUSH2 0x1ACA JUMPI PUSH2 0x1AC7 PUSH1 0x1 DUP4 PUSH2 0x1D69 JUMP JUMPDEST SWAP2 POP JUMPDEST POP SWAP4 SWAP3 POP POP POP JUMP JUMPDEST PUSH2 0x1ADC DUP3 DUP3 PUSH2 0xD41 JUMP JUMPDEST PUSH2 0x1B0B JUMPI PUSH1 0x40 MLOAD PUSH4 0xE2517D3F PUSH1 0xE0 SHL DUP2 MSTORE PUSH1 0x1 PUSH1 0x1 PUSH1 0xA0 SHL SUB DUP3 AND PUSH1 0x4 DUP3 ADD MSTORE PUSH1 0x24 DUP2 ADD DUP4 SWAP1 MSTORE PUSH1 0x44 ADD PUSH2 0x6ED JUMP JUMPDEST POP POP JUMP JUMPDEST PUSH1 0x1 SLOAD PUSH1 0xFF AND PUSH2 0x171F JUMPI PUSH1 0x40 MLOAD PUSH4 0x8DFC202B PUSH1 0xE0 SHL DUP2 MSTORE PUSH1 0x4 ADD PUSH1 0x40 MLOAD DUP1 SWAP2 SUB SWAP1 REVERT JUMPDEST PUSH0 PUSH1 0x20 DUP3 DUP5 SUB SLT ISZERO PUSH2 0x1B42 JUMPI PUSH0 DUP1 REVERT JUMPDEST DUP2 CALLDATALOAD PUSH1 0x1 PUSH1 0x1 PUSH1 0xE0 SHL SUB NOT DUP2 AND DUP2 EQ PUSH2 0x1A55 JUMPI PUSH0 DUP1 REVERT JUMPDEST DUP1 CALLDATALOAD PUSH1 0x1 PUSH1 0x1 PUSH1 0xA0 SHL SUB DUP2 AND DUP2 EQ PUSH2 0x1B6F JUMPI PUSH0 DUP1 REVERT JUMPDEST SWAP2 SWAP1 POP JUMP JUMPDEST PUSH0 DUP1 PUSH0 PUSH1 0x60 DUP5 DUP7 SUB SLT ISZERO PUSH2 0x1B86 JUMPI PUSH0 DUP1 REVERT JUMPDEST DUP4 CALLDATALOAD SWAP3 POP PUSH1 0x20 DUP5 ADD CALLDATALOAD SWAP2 POP PUSH2 0x1B9D PUSH1 0x40 DUP6 ADD PUSH2 0x1B59 JUMP JUMPDEST SWAP1 POP SWAP3 POP SWAP3 POP SWAP3 JUMP JUMPDEST PUSH0 PUSH1 0x20 DUP3 DUP5 SUB SLT ISZERO PUSH2 0x1BB6 JUMPI PUSH0 DUP1 REVERT JUMPDEST PUSH2 0x1A55 DUP3 PUSH2 0x1B59 JUMP JUMPDEST PUSH0 PUSH1 0x20 DUP3 DUP5 SUB SLT ISZERO PUSH2 0x1BCF JUMPI PUSH0 DUP1 REVERT JUMPDEST POP CALLDATALOAD SWAP2 SWAP1 POP JUMP JUMPDEST PUSH0 DUP1 PUSH0 DUP1 PUSH1 0x80 DUP6 DUP8 SUB SLT ISZERO PUSH2 0x1BE9 JUMPI PUSH0 DUP1 REVERT JUMPDEST DUP5 CALLDATALOAD SWAP4 POP PUSH1 0x20 DUP6 ADD CALLDATALOAD SWAP3 POP PUSH1 0x40 DUP6 ADD CALLDATALOAD SWAP2 POP PUSH2 0x1C07 PUSH1 0x60 DUP7 ADD PUSH2 0x1B59 JUMP JUMPDEST SWAP1 POP SWAP3 SWAP6 SWAP2 SWAP5 POP SWAP3 POP JUMP JUMPDEST PUSH0 DUP1 PUSH1 0x40 DUP4 DUP6 SUB SLT ISZERO PUSH2 0x1C23 JUMPI PUSH0 DUP1 REVERT JUMPDEST DUP3 CALLDATALOAD SWAP2 POP PUSH2 0x1C33 PUSH1 0x20 DUP5 ADD PUSH2 0x1B59 JUMP JUMPDEST SWAP1 POP SWAP3 POP SWAP3 SWAP1 POP JUMP JUMPDEST PUSH0 DUP1 PUSH0 PUSH1 0x60 DUP5 DUP7 SUB SLT ISZERO PUSH2 0x1C4E JUMPI PUSH0 DUP1 REVERT JUMPDEST PUSH2 0x1C57 DUP5 PUSH2 0x1B59 JUMP JUMPDEST SWAP6 PUSH1 0x20 DUP6 ADD CALLDATALOAD SWAP6 POP PUSH1 0x40 SWAP1 SWAP5 ADD CALLDATALOAD SWAP4 SWAP3 POP POP POP JUMP JUMPDEST PUSH1 0x40 DUP1 DUP3 MSTORE DUP4 MLOAD SWAP1 DUP3 ADD DUP2 SWAP1 MSTORE PUSH0 SWAP1 PUSH1 0x20 DUP6 ADD SWAP1 PUSH1 0x60 DUP5 ADD SWAP1 DUP4 JUMPDEST DUP2 DUP2 LT ISZERO PUSH2 0x1CA5 JUMPI DUP4 MLOAD DUP4 MSTORE PUSH1 0x20 SWAP4 DUP5 ADD SWAP4 SWAP1 SWAP3 ADD SWAP2 PUSH1 0x1 ADD PUSH2 0x1C87 JUMP JUMPDEST POP POP PUSH1 0x20 SWAP4 SWAP1 SWAP4 ADD SWAP4 SWAP1 SWAP4 MSTORE POP SWAP3 SWAP2 POP POP JUMP JUMPDEST PUSH0 DUP1 PUSH1 0x40 DUP4 DUP6 SUB SLT ISZERO PUSH2 0x1CC9 JUMPI PUSH0 DUP1 REVERT JUMPDEST PUSH2 0x1CD2 DUP4 PUSH2 0x1B59 JUMP JUMPDEST SWAP5 PUSH1 0x20 SWAP4 SWAP1 SWAP4 ADD CALLDATALOAD SWAP4 POP POP POP JUMP JUMPDEST PUSH4 0x4E487B71 PUSH1 0xE0 SHL PUSH0 MSTORE PUSH1 0x11 PUSH1 0x4 MSTORE PUSH1 0x24 PUSH0 REVERT JUMPDEST PUSH0 PUSH1 0x1 DUP3 ADD PUSH2 0x1D05 JUMPI PUSH2 0x1D05 PUSH2 0x1CE0 JUMP JUMPDEST POP PUSH1 0x1 ADD SWAP1 JUMP JUMPDEST DUP2 DUP2 SUB DUP2 DUP2 GT ISZERO PUSH2 0x67B JUMPI PUSH2 0x67B PUSH2 0x1CE0 JUMP JUMPDEST PUSH0 PUSH1 0x20 DUP3 DUP5 SUB SLT ISZERO PUSH2 0x1D2F JUMPI PUSH0 DUP1 REVERT JUMPDEST DUP2 MLOAD DUP1 ISZERO ISZERO DUP2 EQ PUSH2 0x1A55 JUMPI PUSH0 DUP1 REVERT JUMPDEST PUSH4 0x4E487B71 PUSH1 0xE0 SHL PUSH0 MSTORE PUSH1 0x32 PUSH1 0x4 MSTORE PUSH1 0x24 PUSH0 REVERT JUMPDEST DUP1 DUP3 MUL DUP2 ISZERO DUP3 DUP3 DIV DUP5 EQ OR PUSH2 0x67B JUMPI PUSH2 0x67B PUSH2 0x1CE0 JUMP JUMPDEST DUP1 DUP3 ADD DUP1 DUP3 GT ISZERO PUSH2 0x67B JUMPI PUSH2 0x67B PUSH2 0x1CE0 JUMP JUMPDEST PUSH4 0x4E487B71 PUSH1 0xE0 SHL PUSH0 MSTORE PUSH1 0x41 PUSH1 0x4 MSTORE PUSH1 0x24 PUSH0 REVERT JUMPDEST PUSH0 DUP2 PUSH2 0x1D9E JUMPI PUSH2 0x1D9E PUSH2 0x1CE0 JUMP JUMPDEST POP PUSH0 NOT ADD SWAP1 JUMP JUMPDEST PUSH0 PUSH1 0x20 DUP3 DUP5 SUB SLT ISZERO PUSH2 0x1DB5 JUMPI PUSH0 DUP1 REVERT JUMPDEST DUP2 MLOAD PUSH1 0xFF DUP2 AND DUP2 EQ PUSH2 0x1A55 JUMPI PUSH0 DUP1 REVERT JUMPDEST PUSH1 0xFF DUP3 DUP2 AND DUP3 DUP3 AND SUB SWAP1 DUP2 GT ISZERO PUSH2 0x67B JUMPI PUSH2 0x67B PUSH2 0x1CE0 JUMP JUMPDEST PUSH1 0x1 DUP2 JUMPDEST PUSH1 0x1 DUP5 GT ISZERO PUSH2 0xFB1 JUMPI DUP1 DUP6 DIV DUP2 GT ISZERO PUSH2 0x1DFD JUMPI PUSH2 0x1DFD PUSH2 0x1CE0 JUMP JUMPDEST PUSH1 0x1 DUP5 AND ISZERO PUSH2 0x1E0B JUMPI SWAP1 DUP2 MUL SWAP1 JUMPDEST PUSH1 0x1 SWAP4 SWAP1 SWAP4 SHR SWAP3 DUP1 MUL PUSH2 0x1DE2 JUMP JUMPDEST PUSH0 DUP3 PUSH2 0x1E27 JUMPI POP PUSH1 0x1 PUSH2 0x67B JUMP JUMPDEST DUP2 PUSH2 0x1E33 JUMPI POP PUSH0 PUSH2 0x67B JUMP JUMPDEST DUP2 PUSH1 0x1 DUP2 EQ PUSH2 0x1E49 JUMPI PUSH1 0x2 DUP2 EQ PUSH2 0x1E53 JUMPI PUSH2 0x1E6F JUMP JUMPDEST PUSH1 0x1 SWAP2 POP POP PUSH2 0x67B JUMP JUMPDEST PUSH1 0xFF DUP5 GT ISZERO PUSH2 0x1E64 JUMPI PUSH2 0x1E64 PUSH2 0x1CE0 JUMP JUMPDEST POP POP PUSH1 0x1 DUP3 SHL PUSH2 0x67B JUMP JUMPDEST POP PUSH1 0x20 DUP4 LT PUSH2 0x133 DUP4 LT AND PUSH1 0x4E DUP5 LT PUSH1 0xB DUP5 LT AND OR ISZERO PUSH2 0x1E92 JUMPI POP DUP2 DUP2 EXP PUSH2 0x67B JUMP JUMPDEST PUSH2 0x1E9E PUSH0 NOT DUP5 DUP5 PUSH2 0x1DDE JUMP JUMPDEST DUP1 PUSH0 NOT DIV DUP3 GT ISZERO PUSH2 0x1EB1 JUMPI PUSH2 0x1EB1 PUSH2 0x1CE0 JUMP JUMPDEST MUL SWAP4 SWAP3 POP POP POP JUMP JUMPDEST PUSH0 PUSH2 0x1A55 PUSH1 0xFF DUP5 AND DUP4 PUSH2 0x1E19 JUMP JUMPDEST PUSH4 0x4E487B71 PUSH1 0xE0 SHL PUSH0 MSTORE PUSH1 0x12 PUSH1 0x4 MSTORE PUSH1 0x24 PUSH0 REVERT JUMPDEST PUSH0 DUP3 PUSH2 0x1EE9 JUMPI PUSH2 0x1EE9 PUSH2 0x1EC7 JUMP JUMPDEST POP DIV SWAP1 JUMP JUMPDEST PUSH0 DUP3 PUSH2 0x1EFC JUMPI PUSH2 0x1EFC PUSH2 0x1EC7 JUMP JUMPDEST POP MOD SWAP1 JUMP INVALID LOG4 SWAP9 SMOD KECCAK256 TLOAD 0xE4 0xD3 SSTORE MULMOD 0x2E CREATE2 0xA8 LOG1 DUP16 JUMP 0xE8 SWAP2 EXTCODECOPY DELEGATECALL LOG2 ADD 0xFB 0xE2 DUP8 DUP3 JUMPDEST MULMOD JUMP SWAP4 0xC2 OR PUSH22 0xA264697066735822122043C091AA4A94152F4445B337 0xBE TSTORE 0xE9 0xE6 0xB3 0xD6 STATICCALL MOD EXTCODESIZE 0xC9 0x24 BLOBBASEFEE RETURN 0xE6 0xDE 0x28 DUP5 SUB NOT 0xBE PUSH5 0x736F6C6343 STOP ADDMOD BYTE STOP CALLER "
		},
		"gasEstimates": {
			"creation": {
				"codeDepositCost": "1604600",
				"executionCost": "infinite",
				"totalCost": "infinite"
			},
			"external": {
				"ADMIN_ROLE()": "infinite",
				"CROSS_CHAIN_MINTER_ROLE()": "295",
				"DEFAULT_ADMIN_ROLE()": "227",
				"PAUSER_ROLE()": "249",
				"WEUSD_DECIMALS()": "335",
				"activeSourceRequests(uint256)": "4607",
				"activeTargetRequests(uint256)": "4629",
				"burnWeUSD(address,uint256)": "infinite",
				"burnWeUSDCrossChain(uint256,uint256,address)": "infinite",
				"deleteStablecoin(address)": "infinite",
				"feeRecipient()": "2381",
				"gasfee()": "2330",
				"getRequestById(uint256)": "9255",
				"getRoleAdmin(bytes32)": "2523",
				"getUserSourceRequests(address,uint256,uint256)": "infinite",
				"getUserTargetRequests(address,uint256,uint256)": "infinite",
				"grantRole(bytes32,address)": "infinite",
				"hasRole(bytes32,address)": "2727",
				"isRequestIdUsed(uint256)": "2493",
				"mainContract()": "2480",
				"mintWeUSD(address,uint256)": "infinite",
				"mintWeUSDCrossChain(uint256,uint256,uint256,address)": "infinite",
				"pause()": "infinite",
				"paused()": "2392",
				"registerStablecoin(address)": "infinite",
				"registeredStablecoins(address)": "2640",
				"renounceRole(bytes32,address)": "29108",
				"requestCount()": "2350",
				"requestExists(uint256)": "2557",
				"requestIdToSourceActiveIndex(uint256)": "2513",
				"requestIdToTargetActiveIndex(uint256)": "2557",
				"revokeRole(bytes32,address)": "infinite",
				"setFeeRecipient(address)": "infinite",
				"setGasfee(uint256)": "infinite",
				"supportsInterface(bytes4)": "503",
				"unpause()": "infinite",
				"usedRequestIds(uint256)": "2493",
				"weUSD()": "2425"
			},
			"internal": {
				"_createRequest(uint256,address,uint256,bool)": "infinite",
				"convertDecimals(uint256,uint8,uint8)": "infinite",
				"convertDecimalsCeil(uint256,uint8,uint8)": "infinite"
			}
		},
		"methodIdentifiers": {
			"ADMIN_ROLE()": "75b238fc",
			"CROSS_CHAIN_MINTER_ROLE()": "37174202",
			"DEFAULT_ADMIN_ROLE()": "a217fddf",
			"PAUSER_ROLE()": "e63ab1e9",
			"WEUSD_DECIMALS()": "eda87eff",
			"activeSourceRequests(uint256)": "854935f1",
			"activeTargetRequests(uint256)": "34d8c7d5",
			"burnWeUSD(address,uint256)": "d19fad37",
			"burnWeUSDCrossChain(uint256,uint256,address)": "0bd31a57",
			"deleteStablecoin(address)": "1008776f",
			"feeRecipient()": "46904840",
			"gasfee()": "00677016",
			"getRequestById(uint256)": "26757b73",
			"getRoleAdmin(bytes32)": "248a9ca3",
			"getUserSourceRequests(address,uint256,uint256)": "973697bd",
			"getUserTargetRequests(address,uint256,uint256)": "bb93ede0",
			"grantRole(bytes32,address)": "2f2ff15d",
			"hasRole(bytes32,address)": "91d14854",
			"isRequestIdUsed(uint256)": "1e7502d7",
			"mainContract()": "d270e7ab",
			"mintWeUSD(address,uint256)": "a2519ae4",
			"mintWeUSDCrossChain(uint256,uint256,uint256,address)": "1f224564",
			"pause()": "8456cb59",
			"paused()": "5c975abb",
			"registerStablecoin(address)": "c6400657",
			"registeredStablecoins(address)": "9ea4f3a4",
			"renounceRole(bytes32,address)": "36568abe",
			"requestCount()": "5badbe4c",
			"requestExists(uint256)": "ea277eca",
			"requestIdToSourceActiveIndex(uint256)": "c99773ce",
			"requestIdToTargetActiveIndex(uint256)": "bead8d26",
			"revokeRole(bytes32,address)": "d547741f",
			"setFeeRecipient(address)": "e74b981b",
			"setGasfee(uint256)": "c5494ffb",
			"supportsInterface(bytes4)": "01ffc9a7",
			"unpause()": "3f4ba83a",
			"usedRequestIds(uint256)": "2f92893c",
			"weUSD()": "a62e1b3e"
		}
	},
	"abi": [
		{
			"inputs": [
				{
					"internalType": "address",
					"name": "_weUSD",
					"type": "address"
				},
				{
					"internalType": "address",
					"name": "_stablecoin",
					"type": "address"
				},
				{
					"internalType": "address",
					"name": "_crossChainMinter",
					"type": "address"
				},
				{
					"internalType": "address",
					"name": "_main",
					"type": "address"
				},
				{
					"internalType": "address",
					"name": "_feeRecipient",
					"type": "address"
				}
			],
			"stateMutability": "nonpayable",
			"type": "constructor"
		},
		{
			"inputs": [],
			"name": "AccessControlBadConfirmation",
			"type": "error"
		},
		{
			"inputs": [
				{
					"internalType": "address",
					"name": "account",
					"type": "address"
				},
				{
					"internalType": "bytes32",
					"name": "neededRole",
					"type": "bytes32"
				}
			],
			"name": "AccessControlUnauthorizedAccount",
			"type": "error"
		},
		{
			"inputs": [],
			"name": "EnforcedPause",
			"type": "error"
		},
		{
			"inputs": [],
			"name": "ExpectedPause",
			"type": "error"
		},
		{
			"anonymous": false,
			"inputs": [
				{
					"indexed": true,
					"internalType": "address",
					"name": "user",
					"type": "address"
				},
				{
					"indexed": true,
					"internalType": "address",
					"name": "stablecoin",
					"type": "address"
				},
				{
					"indexed": false,
					"internalType": "uint256",
					"name": "weUSDAmount",
					"type": "uint256"
				},
				{
					"indexed": false,
					"internalType": "uint256",
					"name": "stablecoinAmount",
					"type": "uint256"
				}
			],
			"name": "BurnedWeUSD",
			"type": "event"
		},
		{
			"anonymous": false,
			"inputs": [
				{
					"indexed": true,
					"internalType": "uint256",
					"name": "requestId",
					"type": "uint256"
				},
				{
					"indexed": true,
					"internalType": "address",
					"name": "user",
					"type": "address"
				},
				{
					"indexed": false,
					"internalType": "uint256",
					"name": "sourceChainId",
					"type": "uint256"
				},
				{
					"indexed": false,
					"internalType": "uint256",
					"name": "targetChainId",
					"type": "uint256"
				},
				{
					"indexed": false,
					"internalType": "uint256",
					"name": "amount",
					"type": "uint256"
				},
				{
					"indexed": false,
					"internalType": "address",
					"name": "targetUser",
					"type": "address"
				}
			],
			"name": "CrossChainBurn",
			"type": "event"
		},
		{
			"anonymous": false,
			"inputs": [
				{
					"indexed": true,
					"internalType": "uint256",
					"name": "requestId",
					"type": "uint256"
				},
				{
					"indexed": true,
					"internalType": "address",
					"name": "minter",
					"type": "address"
				},
				{
					"indexed": false,
					"internalType": "uint256",
					"name": "sourceChainId",
					"type": "uint256"
				},
				{
					"indexed": false,
					"internalType": "uint256",
					"name": "targetChainId",
					"type": "uint256"
				},
				{
					"indexed": false,
					"internalType": "uint256",
					"name": "amount",
					"type": "uint256"
				},
				{
					"indexed": false,
					"internalType": "address",
					"name": "targetUser",
					"type": "address"
				}
			],
			"name": "CrossChainMint",
			"type": "event"
		},
		{
			"anonymous": false,
			"inputs": [
				{
					"indexed": true,
					"internalType": "address",
					"name": "user",
					"type": "address"
				},
				{
					"indexed": true,
					"internalType": "address",
					"name": "stablecoin",
					"type": "address"
				},
				{
					"indexed": false,
					"internalType": "uint256",
					"name": "stablecoinAmount",
					"type": "uint256"
				},
				{
					"indexed": false,
					"internalType": "uint256",
					"name": "weUSDAmount",
					"type": "uint256"
				}
			],
			"name": "MintedWeUSD",
			"type": "event"
		},
		{
			"anonymous": false,
			"inputs": [
				{
					"indexed": false,
					"internalType": "address",
					"name": "account",
					"type": "address"
				}
			],
			"name": "Paused",
			"type": "event"
		},
		{
			"anonymous": false,
			"inputs": [
				{
					"indexed": true,
					"internalType": "bytes32",
					"name": "role",
					"type": "bytes32"
				},
				{
					"indexed": true,
					"internalType": "bytes32",
					"name": "previousAdminRole",
					"type": "bytes32"
				},
				{
					"indexed": true,
					"internalType": "bytes32",
					"name": "newAdminRole",
					"type": "bytes32"
				}
			],
			"name": "RoleAdminChanged",
			"type": "event"
		},
		{
			"anonymous": false,
			"inputs": [
				{
					"indexed": true,
					"internalType": "bytes32",
					"name": "role",
					"type": "bytes32"
				},
				{
					"indexed": true,
					"internalType": "address",
					"name": "account",
					"type": "address"
				},
				{
					"indexed": true,
					"internalType": "address",
					"name": "sender",
					"type": "address"
				}
			],
			"name": "RoleGranted",
			"type": "event"
		},
		{
			"anonymous": false,
			"inputs": [
				{
					"indexed": true,
					"internalType": "bytes32",
					"name": "role",
					"type": "bytes32"
				},
				{
					"indexed": true,
					"internalType": "address",
					"name": "account",
					"type": "address"
				},
				{
					"indexed": true,
					"internalType": "address",
					"name": "sender",
					"type": "address"
				}
			],
			"name": "RoleRevoked",
			"type": "event"
		},
		{
			"anonymous": false,
			"inputs": [
				{
					"indexed": true,
					"internalType": "address",
					"name": "stablecoin",
					"type": "address"
				}
			],
			"name": "StablecoinDeleted",
			"type": "event"
		},
		{
			"anonymous": false,
			"inputs": [
				{
					"indexed": true,
					"internalType": "address",
					"name": "stablecoin",
					"type": "address"
				}
			],
			"name": "StablecoinRegistered",
			"type": "event"
		},
		{
			"anonymous": false,
			"inputs": [
				{
					"indexed": false,
					"internalType": "address",
					"name": "account",
					"type": "address"
				}
			],
			"name": "Unpaused",
			"type": "event"
		},
		{
			"inputs": [],
			"name": "ADMIN_ROLE",
			"outputs": [
				{
					"internalType": "bytes32",
					"name": "",
					"type": "bytes32"
				}
			],
			"stateMutability": "view",
			"type": "function"
		},
		{
			"inputs": [],
			"name": "CROSS_CHAIN_MINTER_ROLE",
			"outputs": [
				{
					"internalType": "bytes32",
					"name": "",
					"type": "bytes32"
				}
			],
			"stateMutability": "view",
			"type": "function"
		},
		{
			"inputs": [],
			"name": "DEFAULT_ADMIN_ROLE",
			"outputs": [
				{
					"internalType": "bytes32",
					"name": "",
					"type": "bytes32"
				}
			],
			"stateMutability": "view",
			"type": "function"
		},
		{
			"inputs": [],
			"name": "PAUSER_ROLE",
			"outputs": [
				{
					"internalType": "bytes32",
					"name": "",
					"type": "bytes32"
				}
			],
			"stateMutability": "view",
			"type": "function"
		},
		{
			"inputs": [],
			"name": "WEUSD_DECIMALS",
			"outputs": [
				{
					"internalType": "uint8",
					"name": "",
					"type": "uint8"
				}
			],
			"stateMutability": "view",
			"type": "function"
		},
		{
			"inputs": [
				{
					"internalType": "uint256",
					"name": "",
					"type": "uint256"
				}
			],
			"name": "activeSourceRequests",
			"outputs": [
				{
					"internalType": "uint256",
					"name": "",
					"type": "uint256"
				}
			],
			"stateMutability": "view",
			"type": "function"
		},
		{
			"inputs": [
				{
					"internalType": "uint256",
					"name": "",
					"type": "uint256"
				}
			],
			"name": "activeTargetRequests",
			"outputs": [
				{
					"internalType": "uint256",
					"name": "",
					"type": "uint256"
				}
			],
			"stateMutability": "view",
			"type": "function"
		},
		{
			"inputs": [
				{
					"internalType": "address",
					"name": "stablecoin",
					"type": "address"
				},
				{
					"internalType": "uint256",
					"name": "weUSDAmount",
					"type": "uint256"
				}
			],
			"name": "burnWeUSD",
			"outputs": [],
			"stateMutability": "nonpayable",
			"type": "function"
		},
		{
			"inputs": [
				{
					"internalType": "uint256",
					"name": "targetChainId",
					"type": "uint256"
				},
				{
					"internalType": "uint256",
					"name": "amount",
					"type": "uint256"
				},
				{
					"internalType": "address",
					"name": "targetUser",
					"type": "address"
				}
			],
			"name": "burnWeUSDCrossChain",
			"outputs": [],
			"stateMutability": "nonpayable",
			"type": "function"
		},
		{
			"inputs": [
				{
					"internalType": "address",
					"name": "stablecoin",
					"type": "address"
				}
			],
			"name": "deleteStablecoin",
			"outputs": [],
			"stateMutability": "nonpayable",
			"type": "function"
		},
		{
			"inputs": [],
			"name": "feeRecipient",
			"outputs": [
				{
					"internalType": "address",
					"name": "",
					"type": "address"
				}
			],
			"stateMutability": "view",
			"type": "function"
		},
		{
			"inputs": [],
			"name": "gasfee",
			"outputs": [
				{
					"internalType": "uint256",
					"name": "",
					"type": "uint256"
				}
			],
			"stateMutability": "view",
			"type": "function"
		},
		{
			"inputs": [
				{
					"internalType": "uint256",
					"name": "_requestId",
					"type": "uint256"
				}
			],
			"name": "getRequestById",
			"outputs": [
				{
					"components": [
						{
							"internalType": "uint256",
							"name": "requestId",
							"type": "uint256"
						},
						{
							"internalType": "address",
							"name": "user",
							"type": "address"
						},
						{
							"internalType": "uint256",
							"name": "amount",
							"type": "uint256"
						},
						{
							"internalType": "bool",
							"name": "isburn",
							"type": "bool"
						}
					],
					"internalType": "struct RequestData",
					"name": "",
					"type": "tuple"
				}
			],
			"stateMutability": "view",
			"type": "function"
		},
		{
			"inputs": [
				{
					"internalType": "bytes32",
					"name": "role",
					"type": "bytes32"
				}
			],
			"name": "getRoleAdmin",
			"outputs": [
				{
					"internalType": "bytes32",
					"name": "",
					"type": "bytes32"
				}
			],
			"stateMutability": "view",
			"type": "function"
		},
		{
			"inputs": [
				{
					"internalType": "address",
					"name": "_user",
					"type": "address"
				},
				{
					"internalType": "uint256",
					"name": "_page",
					"type": "uint256"
				},
				{
					"internalType": "uint256",
					"name": "_pageSize",
					"type": "uint256"
				}
			],
			"name": "getUserSourceRequests",
			"outputs": [
				{
					"internalType": "uint256[]",
					"name": "",
					"type": "uint256[]"
				},
				{
					"internalType": "uint256",
					"name": "",
					"type": "uint256"
				}
			],
			"stateMutability": "view",
			"type": "function"
		},
		{
			"inputs": [
				{
					"internalType": "address",
					"name": "_user",
					"type": "address"
				},
				{
					"internalType": "uint256",
					"name": "_page",
					"type": "uint256"
				},
				{
					"internalType": "uint256",
					"name": "_pageSize",
					"type": "uint256"
				}
			],
			"name": "getUserTargetRequests",
			"outputs": [
				{
					"internalType": "uint256[]",
					"name": "",
					"type": "uint256[]"
				},
				{
					"internalType": "uint256",
					"name": "",
					"type": "uint256"
				}
			],
			"stateMutability": "view",
			"type": "function"
		},
		{
			"inputs": [
				{
					"internalType": "bytes32",
					"name": "role",
					"type": "bytes32"
				},
				{
					"internalType": "address",
					"name": "account",
					"type": "address"
				}
			],
			"name": "grantRole",
			"outputs": [],
			"stateMutability": "nonpayable",
			"type": "function"
		},
		{
			"inputs": [
				{
					"internalType": "bytes32",
					"name": "role",
					"type": "bytes32"
				},
				{
					"internalType": "address",
					"name": "account",
					"type": "address"
				}
			],
			"name": "hasRole",
			"outputs": [
				{
					"internalType": "bool",
					"name": "",
					"type": "bool"
				}
			],
			"stateMutability": "view",
			"type": "function"
		},
		{
			"inputs": [
				{
					"internalType": "uint256",
					"name": "requestId",
					"type": "uint256"
				}
			],
			"name": "isRequestIdUsed",
			"outputs": [
				{
					"internalType": "bool",
					"name": "",
					"type": "bool"
				}
			],
			"stateMutability": "view",
			"type": "function"
		},
		{
			"inputs": [],
			"name": "mainContract",
			"outputs": [
				{
					"internalType": "contract IMainContract",
					"name": "",
					"type": "address"
				}
			],
			"stateMutability": "view",
			"type": "function"
		},
		{
			"inputs": [
				{
					"internalType": "address",
					"name": "stablecoin",
					"type": "address"
				},
				{
					"internalType": "uint256",
					"name": "stablecoinAmount",
					"type": "uint256"
				}
			],
			"name": "mintWeUSD",
			"outputs": [],
			"stateMutability": "nonpayable",
			"type": "function"
		},
		{
			"inputs": [
				{
					"internalType": "uint256",
					"name": "requestId",
					"type": "uint256"
				},
				{
					"internalType": "uint256",
					"name": "sourceChainId",
					"type": "uint256"
				},
				{
					"internalType": "uint256",
					"name": "amount",
					"type": "uint256"
				},
				{
					"internalType": "address",
					"name": "targetUser",
					"type": "address"
				}
			],
			"name": "mintWeUSDCrossChain",
			"outputs": [],
			"stateMutability": "nonpayable",
			"type": "function"
		},
		{
			"inputs": [],
			"name": "pause",
			"outputs": [],
			"stateMutability": "nonpayable",
			"type": "function"
		},
		{
			"inputs": [],
			"name": "paused",
			"outputs": [
				{
					"internalType": "bool",
					"name": "",
					"type": "bool"
				}
			],
			"stateMutability": "view",
			"type": "function"
		},
		{
			"inputs": [
				{
					"internalType": "address",
					"name": "stablecoin",
					"type": "address"
				}
			],
			"name": "registerStablecoin",
			"outputs": [],
			"stateMutability": "nonpayable",
			"type": "function"
		},
		{
			"inputs": [
				{
					"internalType": "address",
					"name": "",
					"type": "address"
				}
			],
			"name": "registeredStablecoins",
			"outputs": [
				{
					"internalType": "bool",
					"name": "",
					"type": "bool"
				}
			],
			"stateMutability": "view",
			"type": "function"
		},
		{
			"inputs": [
				{
					"internalType": "bytes32",
					"name": "role",
					"type": "bytes32"
				},
				{
					"internalType": "address",
					"name": "callerConfirmation",
					"type": "address"
				}
			],
			"name": "renounceRole",
			"outputs": [],
			"stateMutability": "nonpayable",
			"type": "function"
		},
		{
			"inputs": [],
			"name": "requestCount",
			"outputs": [
				{
					"internalType": "uint256",
					"name": "",
					"type": "uint256"
				}
			],
			"stateMutability": "view",
			"type": "function"
		},
		{
			"inputs": [
				{
					"internalType": "uint256",
					"name": "_requestId",
					"type": "uint256"
				}
			],
			"name": "requestExists",
			"outputs": [
				{
					"internalType": "bool",
					"name": "",
					"type": "bool"
				}
			],
			"stateMutability": "view",
			"type": "function"
		},
		{
			"inputs": [
				{
					"internalType": "uint256",
					"name": "",
					"type": "uint256"
				}
			],
			"name": "requestIdToSourceActiveIndex",
			"outputs": [
				{
					"internalType": "uint256",
					"name": "",
					"type": "uint256"
				}
			],
			"stateMutability": "view",
			"type": "function"
		},
		{
			"inputs": [
				{
					"internalType": "uint256",
					"name": "",
					"type": "uint256"
				}
			],
			"name": "requestIdToTargetActiveIndex",
			"outputs": [
				{
					"internalType": "uint256",
					"name": "",
					"type": "uint256"
				}
			],
			"stateMutability": "view",
			"type": "function"
		},
		{
			"inputs": [
				{
					"internalType": "bytes32",
					"name": "role",
					"type": "bytes32"
				},
				{
					"internalType": "address",
					"name": "account",
					"type": "address"
				}
			],
			"name": "revokeRole",
			"outputs": [],
			"stateMutability": "nonpayable",
			"type": "function"
		},
		{
			"inputs": [
				{
					"internalType": "address",
					"name": "_feeRecipient",
					"type": "address"
				}
			],
			"name": "setFeeRecipient",
			"outputs": [],
			"stateMutability": "nonpayable",
			"type": "function"
		},
		{
			"inputs": [
				{
					"internalType": "uint256",
					"name": "_gasfee",
					"type": "uint256"
				}
			],
			"name": "setGasfee",
			"outputs": [],
			"stateMutability": "nonpayable",
			"type": "function"
		},
		{
			"inputs": [
				{
					"internalType": "bytes4",
					"name": "interfaceId",
					"type": "bytes4"
				}
			],
			"name": "supportsInterface",
			"outputs": [
				{
					"internalType": "bool",
					"name": "",
					"type": "bool"
				}
			],
			"stateMutability": "view",
			"type": "function"
		},
		{
			"inputs": [],
			"name": "unpause",
			"outputs": [],
			"stateMutability": "nonpayable",
			"type": "function"
		},
		{
			"inputs": [
				{
					"internalType": "uint256",
					"name": "",
					"type": "uint256"
				}
			],
			"name": "usedRequestIds",
			"outputs": [
				{
					"internalType": "bool",
					"name": "",
					"type": "bool"
				}
			],
			"stateMutability": "view",
			"type": "function"
		},
		{
			"inputs": [],
			"name": "weUSD",
			"outputs": [
				{
					"internalType": "contract IPicweUSD",
					"name": "",
					"type": "address"
				}
			],
			"stateMutability": "view",
			"type": "function"
		}
	]
}